{
	"TrackSupplyChain.sol": {
		"TrackSupplyChain": {
			"abi": [
				{
					"inputs": [],
					"stateMutability": "nonpayable",
					"type": "constructor"
				},
				{
					"anonymous": false,
					"inputs": [
						{
							"indexed": false,
							"internalType": "address",
							"name": "aggregator",
							"type": "address"
						},
						{
							"indexed": false,
							"internalType": "string",
							"name": "name",
							"type": "string"
						}
					],
					"name": "AggregatorRegistered",
					"type": "event"
				},
				{
					"anonymous": false,
					"inputs": [
						{
							"indexed": false,
							"internalType": "bytes32",
							"name": "cropID",
							"type": "bytes32"
						},
						{
							"indexed": false,
							"internalType": "string",
							"name": "date",
							"type": "string"
						}
					],
					"name": "BatchDivided",
					"type": "event"
				},
				{
					"anonymous": false,
					"inputs": [
						{
							"indexed": false,
							"internalType": "bytes32",
							"name": "cropID",
							"type": "bytes32"
						},
						{
							"indexed": false,
							"internalType": "string",
							"name": "cropType",
							"type": "string"
						},
						{
							"indexed": false,
							"internalType": "uint256",
							"name": "price",
							"type": "uint256"
						}
					],
					"name": "CropCollected",
					"type": "event"
				},
				{
					"anonymous": false,
					"inputs": [
						{
							"indexed": false,
							"internalType": "address",
							"name": "customer",
							"type": "address"
						},
						{
							"indexed": false,
							"internalType": "string",
							"name": "name",
							"type": "string"
						}
					],
					"name": "CustomerRegistered",
					"type": "event"
				},
				{
					"anonymous": false,
					"inputs": [
						{
							"indexed": false,
							"internalType": "address",
							"name": "farmer",
							"type": "address"
						},
						{
							"indexed": false,
							"internalType": "string",
							"name": "name",
							"type": "string"
						}
					],
					"name": "FarmerRegistered",
					"type": "event"
				},
				{
					"anonymous": false,
					"inputs": [
						{
							"indexed": true,
							"internalType": "uint256",
							"name": "productId",
							"type": "uint256"
						},
						{
							"indexed": false,
							"internalType": "uint256",
							"name": "gasValue",
							"type": "uint256"
						},
						{
							"indexed": false,
							"internalType": "uint256",
							"name": "temperature",
							"type": "uint256"
						},
						{
							"indexed": false,
							"internalType": "uint256",
							"name": "humidity",
							"type": "uint256"
						},
						{
							"indexed": false,
							"internalType": "uint256",
							"name": "timestamp",
							"type": "uint256"
						}
					],
					"name": "FreshnessUpdated",
					"type": "event"
				},
				{
					"anonymous": false,
					"inputs": [
						{
							"indexed": false,
							"internalType": "bytes32",
							"name": "cropID",
							"type": "bytes32"
						},
						{
							"indexed": false,
							"internalType": "address",
							"name": "buyer",
							"type": "address"
						}
					],
					"name": "PurchaseConfirmed",
					"type": "event"
				},
				{
					"anonymous": false,
					"inputs": [
						{
							"indexed": false,
							"internalType": "bytes32",
							"name": "cropID",
							"type": "bytes32"
						},
						{
							"indexed": false,
							"internalType": "address",
							"name": "retailer",
							"type": "address"
						}
					],
					"name": "ReceivedFromAggregator",
					"type": "event"
				},
				{
					"anonymous": false,
					"inputs": [
						{
							"indexed": false,
							"internalType": "bytes32",
							"name": "cropID",
							"type": "bytes32"
						},
						{
							"indexed": false,
							"internalType": "address",
							"name": "supplier",
							"type": "address"
						}
					],
					"name": "ReceivedFromFarmer",
					"type": "event"
				},
				{
					"anonymous": false,
					"inputs": [
						{
							"indexed": false,
							"internalType": "bytes32",
							"name": "cropID",
							"type": "bytes32"
						},
						{
							"indexed": false,
							"internalType": "address",
							"name": "aggregator",
							"type": "address"
						}
					],
					"name": "ReceivedFromSupplier",
					"type": "event"
				},
				{
					"anonymous": false,
					"inputs": [
						{
							"indexed": false,
							"internalType": "address",
							"name": "retailer",
							"type": "address"
						},
						{
							"indexed": false,
							"internalType": "string",
							"name": "name",
							"type": "string"
						}
					],
					"name": "RetailerRegistered",
					"type": "event"
				},
				{
					"anonymous": false,
					"inputs": [
						{
							"indexed": false,
							"internalType": "address",
							"name": "supplier",
							"type": "address"
						},
						{
							"indexed": false,
							"internalType": "string",
							"name": "name",
							"type": "string"
						}
					],
					"name": "SupplierRegistered",
					"type": "event"
				},
				{
					"anonymous": false,
					"inputs": [
						{
							"indexed": false,
							"internalType": "bytes32",
							"name": "cropID",
							"type": "bytes32"
						},
						{
							"indexed": false,
							"internalType": "address",
							"name": "aggregator",
							"type": "address"
						}
					],
					"name": "TransferredToAggregator",
					"type": "event"
				},
				{
					"anonymous": false,
					"inputs": [
						{
							"indexed": false,
							"internalType": "bytes32",
							"name": "cropID",
							"type": "bytes32"
						},
						{
							"indexed": false,
							"internalType": "address",
							"name": "consumer",
							"type": "address"
						}
					],
					"name": "TransferredToConsumer",
					"type": "event"
				},
				{
					"anonymous": false,
					"inputs": [
						{
							"indexed": false,
							"internalType": "bytes32",
							"name": "cropID",
							"type": "bytes32"
						},
						{
							"indexed": false,
							"internalType": "address",
							"name": "retailer",
							"type": "address"
						}
					],
					"name": "TransferredToRetailer",
					"type": "event"
				},
				{
					"anonymous": false,
					"inputs": [
						{
							"indexed": false,
							"internalType": "bytes32",
							"name": "cropID",
							"type": "bytes32"
						},
						{
							"indexed": false,
							"internalType": "address",
							"name": "supplier",
							"type": "address"
						},
						{
							"indexed": false,
							"internalType": "string",
							"name": "date",
							"type": "string"
						}
					],
					"name": "TransferredToSupplier",
					"type": "event"
				},
				{
					"inputs": [
						{
							"internalType": "bytes32",
							"name": "cropID",
							"type": "bytes32"
						},
						{
							"internalType": "string",
							"name": "date",
							"type": "string"
						}
					],
					"name": "aggregatorDivideBatch",
					"outputs": [],
					"stateMutability": "nonpayable",
					"type": "function"
				},
				{
					"inputs": [
						{
							"internalType": "address",
							"name": "",
							"type": "address"
						}
					],
					"name": "aggregatorProfiles",
					"outputs": [
						{
							"internalType": "string",
							"name": "name",
							"type": "string"
						},
						{
							"internalType": "string",
							"name": "location",
							"type": "string"
						},
						{
							"internalType": "string",
							"name": "contact",
							"type": "string"
						}
					],
					"stateMutability": "view",
					"type": "function"
				},
				{
					"inputs": [
						{
							"internalType": "bytes32",
							"name": "cropID",
							"type": "bytes32"
						},
						{
							"internalType": "string",
							"name": "date",
							"type": "string"
						}
					],
					"name": "aggregatorReceiveFromSupplier",
					"outputs": [],
					"stateMutability": "nonpayable",
					"type": "function"
				},
				{
					"inputs": [
						{
							"internalType": "bytes32",
							"name": "cropID",
							"type": "bytes32"
						},
						{
							"internalType": "address",
							"name": "retailer",
							"type": "address"
						},
						{
							"internalType": "string",
							"name": "transferDate",
							"type": "string"
						}
					],
					"name": "aggregatorTransferToRetailer",
					"outputs": [],
					"stateMutability": "nonpayable",
					"type": "function"
				},
				{
					"inputs": [
						{
							"internalType": "address",
							"name": "",
							"type": "address"
						}
					],
					"name": "aggregators",
					"outputs": [
						{
							"internalType": "bool",
							"name": "",
							"type": "bool"
						}
					],
					"stateMutability": "view",
					"type": "function"
				},
				{
					"inputs": [
						{
							"internalType": "bytes32",
							"name": "",
							"type": "bytes32"
						}
					],
					"name": "batches",
					"outputs": [
						{
							"internalType": "bytes32",
							"name": "cropID",
							"type": "bytes32"
						},
						{
							"internalType": "bool",
							"name": "received",
							"type": "bool"
						},
						{
							"internalType": "string",
							"name": "receivedDate",
							"type": "string"
						},
						{
							"internalType": "bool",
							"name": "divided",
							"type": "bool"
						},
						{
							"internalType": "string",
							"name": "dividedDate",
							"type": "string"
						},
						{
							"internalType": "string",
							"name": "transferDate",
							"type": "string"
						},
						{
							"internalType": "address",
							"name": "currentHolder",
							"type": "address"
						}
					],
					"stateMutability": "view",
					"type": "function"
				},
				{
					"inputs": [
						{
							"internalType": "bytes32",
							"name": "cropID",
							"type": "bytes32"
						},
						{
							"internalType": "bool",
							"name": "_purchased",
							"type": "bool"
						},
						{
							"internalType": "string",
							"name": "_feedback",
							"type": "string"
						},
						{
							"internalType": "string",
							"name": "_date",
							"type": "string"
						}
					],
					"name": "consumerConfirmPurchase",
					"outputs": [],
					"stateMutability": "nonpayable",
					"type": "function"
				},
				{
					"inputs": [
						{
							"internalType": "uint256",
							"name": "seed",
							"type": "uint256"
						}
					],
					"name": "createUniqueCropID",
					"outputs": [
						{
							"internalType": "bytes32",
							"name": "",
							"type": "bytes32"
						}
					],
					"stateMutability": "nonpayable",
					"type": "function"
				},
				{
					"inputs": [],
					"name": "cropCount",
					"outputs": [
						{
							"internalType": "uint256",
							"name": "",
							"type": "uint256"
						}
					],
					"stateMutability": "view",
					"type": "function"
				},
				{
					"inputs": [
						{
							"internalType": "uint256",
							"name": "",
							"type": "uint256"
						}
					],
					"name": "cropIDs",
					"outputs": [
						{
							"internalType": "bytes32",
							"name": "",
							"type": "bytes32"
						}
					],
					"stateMutability": "view",
					"type": "function"
				},
				{
					"inputs": [
						{
							"internalType": "bytes32",
							"name": "",
							"type": "bytes32"
						}
					],
					"name": "crops",
					"outputs": [
						{
							"internalType": "bytes32",
							"name": "cropID",
							"type": "bytes32"
						},
						{
							"internalType": "string",
							"name": "cropType",
							"type": "string"
						},
						{
							"internalType": "string",
							"name": "origin",
							"type": "string"
						},
						{
							"internalType": "string",
							"name": "date",
							"type": "string"
						},
						{
							"internalType": "uint256",
							"name": "price",
							"type": "uint256"
						},
						{
							"internalType": "enum Farmer.Stage",
							"name": "stage",
							"type": "uint8"
						},
						{
							"internalType": "address",
							"name": "currentHolder",
							"type": "address"
						},
						{
							"internalType": "string",
							"name": "transferDate",
							"type": "string"
						}
					],
					"stateMutability": "view",
					"type": "function"
				},
				{
					"inputs": [
						{
							"internalType": "address",
							"name": "",
							"type": "address"
						}
					],
					"name": "customerProfiles",
					"outputs": [
						{
							"internalType": "string",
							"name": "name",
							"type": "string"
						},
						{
							"internalType": "string",
							"name": "location",
							"type": "string"
						},
						{
							"internalType": "string",
							"name": "contact",
							"type": "string"
						}
					],
					"stateMutability": "view",
					"type": "function"
				},
				{
					"inputs": [
						{
							"internalType": "address",
							"name": "",
							"type": "address"
						}
					],
					"name": "customers",
					"outputs": [
						{
							"internalType": "bool",
							"name": "",
							"type": "bool"
						}
					],
					"stateMutability": "view",
					"type": "function"
				},
				{
					"inputs": [
						{
							"internalType": "bytes32",
							"name": "",
							"type": "bytes32"
						}
					],
					"name": "exists",
					"outputs": [
						{
							"internalType": "bool",
							"name": "",
							"type": "bool"
						}
					],
					"stateMutability": "view",
					"type": "function"
				},
				{
					"inputs": [
						{
							"internalType": "bytes32",
							"name": "cropID",
							"type": "bytes32"
						},
						{
							"internalType": "string",
							"name": "cropType",
							"type": "string"
						},
						{
							"internalType": "string",
							"name": "origin",
							"type": "string"
						},
						{
							"internalType": "string",
							"name": "date",
							"type": "string"
						},
						{
							"internalType": "uint256",
							"name": "price",
							"type": "uint256"
						}
					],
					"name": "farmerCollectCrop",
					"outputs": [],
					"stateMutability": "nonpayable",
					"type": "function"
				},
				{
					"inputs": [
						{
							"internalType": "address",
							"name": "",
							"type": "address"
						}
					],
					"name": "farmerProfiles",
					"outputs": [
						{
							"internalType": "string",
							"name": "name",
							"type": "string"
						},
						{
							"internalType": "string",
							"name": "location",
							"type": "string"
						},
						{
							"internalType": "string",
							"name": "contact",
							"type": "string"
						}
					],
					"stateMutability": "view",
					"type": "function"
				},
				{
					"inputs": [
						{
							"internalType": "bytes32",
							"name": "cropID",
							"type": "bytes32"
						},
						{
							"internalType": "address",
							"name": "supplier",
							"type": "address"
						},
						{
							"internalType": "string",
							"name": "transferDate",
							"type": "string"
						}
					],
					"name": "farmerTransferToSupplier",
					"outputs": [],
					"stateMutability": "nonpayable",
					"type": "function"
				},
				{
					"inputs": [
						{
							"internalType": "address",
							"name": "",
							"type": "address"
						}
					],
					"name": "farmers",
					"outputs": [
						{
							"internalType": "bool",
							"name": "",
							"type": "bool"
						}
					],
					"stateMutability": "view",
					"type": "function"
				},
				{
					"inputs": [
						{
							"internalType": "uint256",
							"name": "_productId",
							"type": "uint256"
						}
					],
					"name": "getFreshness",
					"outputs": [
						{
							"internalType": "uint256",
							"name": "gasValue",
							"type": "uint256"
						},
						{
							"internalType": "uint256",
							"name": "temperature",
							"type": "uint256"
						},
						{
							"internalType": "uint256",
							"name": "humidity",
							"type": "uint256"
						},
						{
							"internalType": "uint256",
							"name": "timestamp",
							"type": "uint256"
						}
					],
					"stateMutability": "view",
					"type": "function"
				},
				{
					"inputs": [],
					"name": "owner",
					"outputs": [
						{
							"internalType": "address",
							"name": "",
							"type": "address"
						}
					],
					"stateMutability": "view",
					"type": "function"
				},
				{
					"inputs": [
						{
							"internalType": "uint256",
							"name": "",
							"type": "uint256"
						}
					],
					"name": "productFreshness",
					"outputs": [
						{
							"internalType": "uint256",
							"name": "gasValue",
							"type": "uint256"
						},
						{
							"internalType": "uint256",
							"name": "temperature",
							"type": "uint256"
						},
						{
							"internalType": "uint256",
							"name": "humidity",
							"type": "uint256"
						},
						{
							"internalType": "uint256",
							"name": "timestamp",
							"type": "uint256"
						}
					],
					"stateMutability": "view",
					"type": "function"
				},
				{
					"inputs": [
						{
							"internalType": "bytes32",
							"name": "",
							"type": "bytes32"
						}
					],
					"name": "purchases",
					"outputs": [
						{
							"internalType": "bytes32",
							"name": "cropID",
							"type": "bytes32"
						},
						{
							"internalType": "bool",
							"name": "purchased",
							"type": "bool"
						},
						{
							"internalType": "string",
							"name": "feedback",
							"type": "string"
						},
						{
							"internalType": "string",
							"name": "purchaseDate",
							"type": "string"
						},
						{
							"internalType": "address",
							"name": "buyer",
							"type": "address"
						}
					],
					"stateMutability": "view",
					"type": "function"
				},
				{
					"inputs": [
						{
							"internalType": "string",
							"name": "name",
							"type": "string"
						},
						{
							"internalType": "string",
							"name": "location",
							"type": "string"
						},
						{
							"internalType": "string",
							"name": "contact",
							"type": "string"
						}
					],
					"name": "registerAggregator",
					"outputs": [],
					"stateMutability": "nonpayable",
					"type": "function"
				},
				{
					"inputs": [
						{
							"internalType": "string",
							"name": "name",
							"type": "string"
						},
						{
							"internalType": "string",
							"name": "location",
							"type": "string"
						},
						{
							"internalType": "string",
							"name": "contact",
							"type": "string"
						}
					],
					"name": "registerCustomer",
					"outputs": [],
					"stateMutability": "nonpayable",
					"type": "function"
				},
				{
					"inputs": [
						{
							"internalType": "string",
							"name": "name",
							"type": "string"
						},
						{
							"internalType": "string",
							"name": "location",
							"type": "string"
						},
						{
							"internalType": "string",
							"name": "contact",
							"type": "string"
						}
					],
					"name": "registerFarmer",
					"outputs": [],
					"stateMutability": "nonpayable",
					"type": "function"
				},
				{
					"inputs": [
						{
							"internalType": "string",
							"name": "name",
							"type": "string"
						},
						{
							"internalType": "string",
							"name": "location",
							"type": "string"
						},
						{
							"internalType": "string",
							"name": "contact",
							"type": "string"
						}
					],
					"name": "registerRetailer",
					"outputs": [],
					"stateMutability": "nonpayable",
					"type": "function"
				},
				{
					"inputs": [
						{
							"internalType": "string",
							"name": "name",
							"type": "string"
						},
						{
							"internalType": "string",
							"name": "location",
							"type": "string"
						},
						{
							"internalType": "string",
							"name": "contact",
							"type": "string"
						}
					],
					"name": "registerSupplier",
					"outputs": [],
					"stateMutability": "nonpayable",
					"type": "function"
				},
				{
					"inputs": [
						{
							"internalType": "address",
							"name": "",
							"type": "address"
						}
					],
					"name": "retailerProfiles",
					"outputs": [
						{
							"internalType": "string",
							"name": "name",
							"type": "string"
						},
						{
							"internalType": "string",
							"name": "location",
							"type": "string"
						},
						{
							"internalType": "string",
							"name": "contact",
							"type": "string"
						}
					],
					"stateMutability": "view",
					"type": "function"
				},
				{
					"inputs": [
						{
							"internalType": "bytes32",
							"name": "cropID",
							"type": "bytes32"
						},
						{
							"internalType": "uint256",
							"name": "retailPrice",
							"type": "uint256"
						},
						{
							"internalType": "string",
							"name": "date",
							"type": "string"
						}
					],
					"name": "retailerReceiveFromAggregator",
					"outputs": [],
					"stateMutability": "nonpayable",
					"type": "function"
				},
				{
					"inputs": [
						{
							"internalType": "bytes32",
							"name": "cropID",
							"type": "bytes32"
						},
						{
							"internalType": "address",
							"name": "consumer",
							"type": "address"
						},
						{
							"internalType": "string",
							"name": "transferDate",
							"type": "string"
						}
					],
					"name": "retailerTransferToConsumer",
					"outputs": [],
					"stateMutability": "nonpayable",
					"type": "function"
				},
				{
					"inputs": [
						{
							"internalType": "address",
							"name": "",
							"type": "address"
						}
					],
					"name": "retailers",
					"outputs": [
						{
							"internalType": "bool",
							"name": "",
							"type": "bool"
						}
					],
					"stateMutability": "view",
					"type": "function"
				},
				{
					"inputs": [
						{
							"internalType": "bytes32",
							"name": "",
							"type": "bytes32"
						}
					],
					"name": "retails",
					"outputs": [
						{
							"internalType": "bytes32",
							"name": "cropID",
							"type": "bytes32"
						},
						{
							"internalType": "uint256",
							"name": "retailPrice",
							"type": "uint256"
						},
						{
							"internalType": "string",
							"name": "receivedDate",
							"type": "string"
						},
						{
							"internalType": "string",
							"name": "transferDate",
							"type": "string"
						},
						{
							"internalType": "address",
							"name": "holder",
							"type": "address"
						}
					],
					"stateMutability": "view",
					"type": "function"
				},
				{
					"inputs": [
						{
							"internalType": "address",
							"name": "",
							"type": "address"
						}
					],
					"name": "supplierProfiles",
					"outputs": [
						{
							"internalType": "string",
							"name": "name",
							"type": "string"
						},
						{
							"internalType": "string",
							"name": "location",
							"type": "string"
						},
						{
							"internalType": "string",
							"name": "contact",
							"type": "string"
						}
					],
					"stateMutability": "view",
					"type": "function"
				},
				{
					"inputs": [
						{
							"internalType": "bytes32",
							"name": "cropID",
							"type": "bytes32"
						},
						{
							"internalType": "uint256",
							"name": "transportCost",
							"type": "uint256"
						},
						{
							"internalType": "string",
							"name": "date",
							"type": "string"
						}
					],
					"name": "supplierReceiveFromFarmer",
					"outputs": [],
					"stateMutability": "nonpayable",
					"type": "function"
				},
				{
					"inputs": [
						{
							"internalType": "bytes32",
							"name": "cropID",
							"type": "bytes32"
						},
						{
							"internalType": "address",
							"name": "aggregator",
							"type": "address"
						},
						{
							"internalType": "string",
							"name": "transferDate",
							"type": "string"
						}
					],
					"name": "supplierTransferToAggregator",
					"outputs": [],
					"stateMutability": "nonpayable",
					"type": "function"
				},
				{
					"inputs": [
						{
							"internalType": "address",
							"name": "",
							"type": "address"
						}
					],
					"name": "suppliers",
					"outputs": [
						{
							"internalType": "bool",
							"name": "",
							"type": "bool"
						}
					],
					"stateMutability": "view",
					"type": "function"
				},
				{
					"inputs": [
						{
							"internalType": "bytes32",
							"name": "",
							"type": "bytes32"
						}
					],
					"name": "supplies",
					"outputs": [
						{
							"internalType": "bytes32",
							"name": "cropID",
							"type": "bytes32"
						},
						{
							"internalType": "uint256",
							"name": "transportCost",
							"type": "uint256"
						},
						{
							"internalType": "string",
							"name": "receivedDate",
							"type": "string"
						},
						{
							"internalType": "string",
							"name": "transferDate",
							"type": "string"
						},
						{
							"internalType": "address",
							"name": "currentHolder",
							"type": "address"
						}
					],
					"stateMutability": "view",
					"type": "function"
				},
				{
					"inputs": [
						{
							"internalType": "uint256",
							"name": "_productId",
							"type": "uint256"
						},
						{
							"internalType": "uint256",
							"name": "_gasValue",
							"type": "uint256"
						},
						{
							"internalType": "uint256",
							"name": "_temperature",
							"type": "uint256"
						},
						{
							"internalType": "uint256",
							"name": "_humidity",
							"type": "uint256"
						}
					],
					"name": "updateFreshness",
					"outputs": [],
					"stateMutability": "nonpayable",
					"type": "function"
				}
			],
			"devdoc": {
				"kind": "dev",
				"methods": {},
				"version": 1
			},
			"evm": {
				"assembly": "    /* \"TrackSupplyChain.sol\":193:2039  contract TrackSupplyChain is Farmer, Supplier, Aggregator, Retailer, Customer {... */\n  mstore(0x40, 0x80)\n    /* \"TrackSupplyChain.sol\":821:872  constructor() {... */\n  callvalue\n  dup1\n  iszero\n  tag_1\n  jumpi\n  revert(0x00, 0x00)\ntag_1:\n  pop\n    /* \"TrackSupplyChain.sol\":854:864  msg.sender */\n  caller\n    /* \"TrackSupplyChain.sol\":846:851  owner */\n  0x12\n  0x00\n    /* \"TrackSupplyChain.sol\":846:864  owner = msg.sender */\n  0x0100\n  exp\n  dup2\n  sload\n  dup2\n  0xffffffffffffffffffffffffffffffffffffffff\n  mul\n  not\n  and\n  swap1\n  dup4\n  0xffffffffffffffffffffffffffffffffffffffff\n  and\n  mul\n  or\n  swap1\n  sstore\n  pop\n    /* \"TrackSupplyChain.sol\":193:2039  contract TrackSupplyChain is Farmer, Supplier, Aggregator, Retailer, Customer {... */\n  dataSize(sub_0)\n  dup1\n  dataOffset(sub_0)\n  0x00\n  codecopy\n  0x00\n  return\nstop\n\nsub_0: assembly {\n        /* \"TrackSupplyChain.sol\":193:2039  contract TrackSupplyChain is Farmer, Supplier, Aggregator, Retailer, Customer {... */\n      mstore(0x40, 0x80)\n      callvalue\n      dup1\n      iszero\n      tag_1\n      jumpi\n      revert(0x00, 0x00)\n    tag_1:\n      pop\n      jumpi(tag_2, lt(calldatasize, 0x04))\n      shr(0xe0, calldataload(0x00))\n      dup1\n      0x750aa2ea\n      gt\n      tag_41\n      jumpi\n      dup1\n      0xa900d628\n      gt\n      tag_42\n      jumpi\n      dup1\n      0xdfd55a2c\n      gt\n      tag_43\n      jumpi\n      dup1\n      0xdfd55a2c\n      eq\n      tag_36\n      jumpi\n      dup1\n      0xe9ef9cf7\n      eq\n      tag_37\n      jumpi\n      dup1\n      0xf0861b3a\n      eq\n      tag_38\n      jumpi\n      dup1\n      0xf49d66a3\n      eq\n      tag_39\n      jumpi\n      dup1\n      0xf8e66a4d\n      eq\n      tag_40\n      jumpi\n      jump(tag_2)\n    tag_43:\n      dup1\n      0xa900d628\n      eq\n      tag_31\n      jumpi\n      dup1\n      0xb71b75f4\n      eq\n      tag_32\n      jumpi\n      dup1\n      0xc81e25ab\n      eq\n      tag_33\n      jumpi\n      dup1\n      0xc9820cc4\n      eq\n      tag_34\n      jumpi\n      dup1\n      0xd8aa4558\n      eq\n      tag_35\n      jumpi\n      jump(tag_2)\n    tag_42:\n      dup1\n      0x88e46740\n      gt\n      tag_44\n      jumpi\n      dup1\n      0x88e46740\n      eq\n      tag_26\n      jumpi\n      dup1\n      0x8da5cb5b\n      eq\n      tag_27\n      jumpi\n      dup1\n      0x92714224\n      eq\n      tag_28\n      jumpi\n      dup1\n      0x9a268f35\n      eq\n      tag_29\n      jumpi\n      dup1\n      0xa1c2e79c\n      eq\n      tag_30\n      jumpi\n      jump(tag_2)\n    tag_44:\n      dup1\n      0x750aa2ea\n      eq\n      tag_22\n      jumpi\n      dup1\n      0x769d0420\n      eq\n      tag_23\n      jumpi\n      dup1\n      0x7ab8dbe9\n      eq\n      tag_24\n      jumpi\n      dup1\n      0x8039feef\n      eq\n      tag_25\n      jumpi\n      jump(tag_2)\n    tag_41:\n      dup1\n      0x401b2168\n      gt\n      tag_45\n      jumpi\n      dup1\n      0x51c4add5\n      gt\n      tag_46\n      jumpi\n      dup1\n      0x51c4add5\n      eq\n      tag_17\n      jumpi\n      dup1\n      0x52f86467\n      eq\n      tag_18\n      jumpi\n      dup1\n      0x5ce48268\n      eq\n      tag_19\n      jumpi\n      dup1\n      0x6c1e9d87\n      eq\n      tag_20\n      jumpi\n      dup1\n      0x7304957b\n      eq\n      tag_21\n      jumpi\n      jump(tag_2)\n    tag_46:\n      dup1\n      0x401b2168\n      eq\n      tag_12\n      jumpi\n      dup1\n      0x49beb611\n      eq\n      tag_13\n      jumpi\n      dup1\n      0x4d6ec6e8\n      eq\n      tag_14\n      jumpi\n      dup1\n      0x4e3c5452\n      eq\n      tag_15\n      jumpi\n      dup1\n      0x4f3bedbd\n      eq\n      tag_16\n      jumpi\n      jump(tag_2)\n    tag_45:\n      dup1\n      0x18f13654\n      gt\n      tag_47\n      jumpi\n      dup1\n      0x18f13654\n      eq\n      tag_7\n      jumpi\n      dup1\n      0x27ed3540\n      eq\n      tag_8\n      jumpi\n      dup1\n      0x29a566d2\n      eq\n      tag_9\n      jumpi\n      dup1\n      0x336989ae\n      eq\n      tag_10\n      jumpi\n      dup1\n      0x38a699a4\n      eq\n      tag_11\n      jumpi\n      jump(tag_2)\n    tag_47:\n      dup1\n      0x0f5600cb\n      eq\n      tag_3\n      jumpi\n      dup1\n      0x0f86a2a4\n      eq\n      tag_4\n      jumpi\n      dup1\n      0x112cdab9\n      eq\n      tag_5\n      jumpi\n      dup1\n      0x16dc15fe\n      eq\n      tag_6\n      jumpi\n    tag_2:\n      revert(0x00, 0x00)\n        /* \"Supplier.sol\":223:282  mapping(address => SupplierProfile) public supplierProfiles */\n    tag_3:\n      tag_48\n      0x04\n      dup1\n      calldatasize\n      sub\n      dup2\n      add\n      swap1\n      tag_49\n      swap2\n      swap1\n      tag_50\n      jump\t// in\n    tag_49:\n      tag_51\n      jump\t// in\n    tag_48:\n      mload(0x40)\n      tag_52\n      swap4\n      swap3\n      swap2\n      swap1\n      tag_53\n      jump\t// in\n    tag_52:\n      mload(0x40)\n      dup1\n      swap2\n      sub\n      swap1\n      return\n        /* \"Farmer.sol\":1795:2189  function farmerCollectCrop(bytes32 cropID, string calldata cropType, string calldata origin, string calldata date, uint price) external onlyFarmer {... */\n    tag_4:\n      tag_54\n      0x04\n      dup1\n      calldatasize\n      sub\n      dup2\n      add\n      swap1\n      tag_55\n      swap2\n      swap1\n      tag_56\n      jump\t// in\n    tag_55:\n      tag_57\n      jump\t// in\n    tag_54:\n      stop\n        /* \"Aggregator.sol\":97:140  mapping(address => bool) public aggregators */\n    tag_5:\n      tag_58\n      0x04\n      dup1\n      calldatasize\n      sub\n      dup2\n      add\n      swap1\n      tag_59\n      swap2\n      swap1\n      tag_50\n      jump\t// in\n    tag_59:\n      tag_60\n      jump\t// in\n    tag_58:\n      mload(0x40)\n      tag_61\n      swap2\n      swap1\n      tag_62\n      jump\t// in\n    tag_61:\n      mload(0x40)\n      dup1\n      swap2\n      sub\n      swap1\n      return\n        /* \"Supplier.sol\":95:136  mapping(address => bool) public suppliers */\n    tag_6:\n      tag_63\n      0x04\n      dup1\n      calldatasize\n      sub\n      dup2\n      add\n      swap1\n      tag_64\n      swap2\n      swap1\n      tag_50\n      jump\t// in\n    tag_64:\n      tag_65\n      jump\t// in\n    tag_63:\n      mload(0x40)\n      tag_66\n      swap2\n      swap1\n      tag_62\n      jump\t// in\n    tag_66:\n      mload(0x40)\n      dup1\n      swap2\n      sub\n      swap1\n      return\n        /* \"Retailer.sol\":223:282  mapping(address => RetailerProfile) public retailerProfiles */\n    tag_7:\n      tag_67\n      0x04\n      dup1\n      calldatasize\n      sub\n      dup2\n      add\n      swap1\n      tag_68\n      swap2\n      swap1\n      tag_50\n      jump\t// in\n    tag_68:\n      tag_69\n      jump\t// in\n    tag_67:\n      mload(0x40)\n      tag_70\n      swap4\n      swap3\n      swap2\n      swap1\n      tag_53\n      jump\t// in\n    tag_70:\n      mload(0x40)\n      dup1\n      swap2\n      sub\n      swap1\n      return\n        /* \"Aggregator.sol\":1579:1868  function aggregatorDivideBatch(bytes32 cropID, string calldata date) external onlyAggregator {... */\n    tag_8:\n      tag_71\n      0x04\n      dup1\n      calldatasize\n      sub\n      dup2\n      add\n      swap1\n      tag_72\n      swap2\n      swap1\n      tag_73\n      jump\t// in\n    tag_72:\n      tag_74\n      jump\t// in\n    tag_71:\n      stop\n        /* \"Farmer.sol\":1055:1396  function registerFarmer(string calldata name, string calldata location, string calldata contact) external {... */\n    tag_9:\n      tag_75\n      0x04\n      dup1\n      calldatasize\n      sub\n      dup2\n      add\n      swap1\n      tag_76\n      swap2\n      swap1\n      tag_77\n      jump\t// in\n    tag_76:\n      tag_78\n      jump\t// in\n    tag_75:\n      stop\n        /* \"Customer.sol\":95:136  mapping(address => bool) public customers */\n    tag_10:\n      tag_79\n      0x04\n      dup1\n      calldatasize\n      sub\n      dup2\n      add\n      swap1\n      tag_80\n      swap2\n      swap1\n      tag_50\n      jump\t// in\n    tag_80:\n      tag_81\n      jump\t// in\n    tag_79:\n      mload(0x40)\n      tag_82\n      swap2\n      swap1\n      tag_62\n      jump\t// in\n    tag_82:\n      mload(0x40)\n      dup1\n      swap2\n      sub\n      swap1\n      return\n        /* \"Farmer.sol\":899:937  mapping(bytes32 => bool) public exists */\n    tag_11:\n      tag_83\n      0x04\n      dup1\n      calldatasize\n      sub\n      dup2\n      add\n      swap1\n      tag_84\n      swap2\n      swap1\n      tag_85\n      jump\t// in\n    tag_84:\n      tag_86\n      jump\t// in\n    tag_83:\n      mload(0x40)\n      tag_87\n      swap2\n      swap1\n      tag_62\n      jump\t// in\n    tag_87:\n      mload(0x40)\n      dup1\n      swap2\n      sub\n      swap1\n      return\n        /* \"Farmer.sol\":93:132  mapping(address => bool) public farmers */\n    tag_12:\n      tag_88\n      0x04\n      dup1\n      calldatasize\n      sub\n      dup2\n      add\n      swap1\n      tag_89\n      swap2\n      swap1\n      tag_50\n      jump\t// in\n    tag_89:\n      tag_90\n      jump\t// in\n    tag_88:\n      mload(0x40)\n      tag_91\n      swap2\n      swap1\n      tag_62\n      jump\t// in\n    tag_91:\n      mload(0x40)\n      dup1\n      swap2\n      sub\n      swap1\n      return\n        /* \"Customer.sol\":223:282  mapping(address => CustomerProfile) public customerProfiles */\n    tag_13:\n      tag_92\n      0x04\n      dup1\n      calldatasize\n      sub\n      dup2\n      add\n      swap1\n      tag_93\n      swap2\n      swap1\n      tag_50\n      jump\t// in\n    tag_93:\n      tag_94\n      jump\t// in\n    tag_92:\n      mload(0x40)\n      tag_95\n      swap4\n      swap3\n      swap2\n      swap1\n      tag_53\n      jump\t// in\n    tag_95:\n      mload(0x40)\n      dup1\n      swap2\n      sub\n      swap1\n      return\n        /* \"Retailer.sol\":794:1147  function registerRetailer(string calldata name, string calldata location, string calldata contact) external {... */\n    tag_14:\n      tag_96\n      0x04\n      dup1\n      calldatasize\n      sub\n      dup2\n      add\n      swap1\n      tag_97\n      swap2\n      swap1\n      tag_77\n      jump\t// in\n    tag_97:\n      tag_98\n      jump\t// in\n    tag_96:\n      stop\n        /* \"TrackSupplyChain.sol\":1659:2036  function getFreshness(uint256 _productId)... */\n    tag_15:\n      tag_99\n      0x04\n      dup1\n      calldatasize\n      sub\n      dup2\n      add\n      swap1\n      tag_100\n      swap2\n      swap1\n      tag_101\n      jump\t// in\n    tag_100:\n      tag_102\n      jump\t// in\n    tag_99:\n      mload(0x40)\n      tag_103\n      swap5\n      swap4\n      swap3\n      swap2\n      swap1\n      tag_104\n      jump\t// in\n    tag_103:\n      mload(0x40)\n      dup1\n      swap2\n      sub\n      swap1\n      return\n        /* \"Retailer.sol\":1424:1777  function retailerTransferToConsumer(bytes32 cropID, address consumer, string calldata transferDate) external onlyRetailer {... */\n    tag_16:\n      tag_105\n      0x04\n      dup1\n      calldatasize\n      sub\n      dup2\n      add\n      swap1\n      tag_106\n      swap2\n      swap1\n      tag_107\n      jump\t// in\n    tag_106:\n      tag_108\n      jump\t// in\n    tag_105:\n      stop\n        /* \"Customer.sol\":1078:1366  function consumerConfirmPurchase(bytes32 cropID, bool _purchased, string calldata _feedback, string calldata _date) external onlyConsumer {... */\n    tag_17:\n      tag_109\n      0x04\n      dup1\n      calldatasize\n      sub\n      dup2\n      add\n      swap1\n      tag_110\n      swap2\n      swap1\n      tag_111\n      jump\t// in\n    tag_110:\n      tag_112\n      jump\t// in\n    tag_109:\n      stop\n        /* \"Retailer.sol\":1155:1416  function retailerReceiveFromAggregator(bytes32 cropID, uint retailPrice, string calldata date) external onlyRetailer {... */\n    tag_18:\n      tag_113\n      0x04\n      dup1\n      calldatasize\n      sub\n      dup2\n      add\n      swap1\n      tag_114\n      swap2\n      swap1\n      tag_115\n      jump\t// in\n    tag_114:\n      tag_116\n      jump\t// in\n    tag_113:\n      stop\n        /* \"TrackSupplyChain.sol\":502:559  mapping(uint256 => FreshnessData) public productFreshness */\n    tag_19:\n      tag_117\n      0x04\n      dup1\n      calldatasize\n      sub\n      dup2\n      add\n      swap1\n      tag_118\n      swap2\n      swap1\n      tag_101\n      jump\t// in\n    tag_118:\n      tag_119\n      jump\t// in\n    tag_117:\n      mload(0x40)\n      tag_120\n      swap5\n      swap4\n      swap3\n      swap2\n      swap1\n      tag_104\n      jump\t// in\n    tag_120:\n      mload(0x40)\n      dup1\n      swap2\n      sub\n      swap1\n      return\n        /* \"Supplier.sol\":1431:1811  function supplierTransferToAggregator(bytes32 cropID, address aggregator, string calldata transferDate) external onlySupplier {... */\n    tag_20:\n      tag_121\n      0x04\n      dup1\n      calldatasize\n      sub\n      dup2\n      add\n      swap1\n      tag_122\n      swap2\n      swap1\n      tag_107\n      jump\t// in\n    tag_122:\n      tag_123\n      jump\t// in\n    tag_121:\n      stop\n        /* \"Aggregator.sol\":1876:2230  function aggregatorTransferToRetailer(bytes32 cropID, address retailer, string calldata transferDate) external onlyAggregator {... */\n    tag_21:\n      tag_124\n      0x04\n      dup1\n      calldatasize\n      sub\n      dup2\n      add\n      swap1\n      tag_125\n      swap2\n      swap1\n      tag_107\n      jump\t// in\n    tag_125:\n      tag_126\n      jump\t// in\n    tag_124:\n      stop\n        /* \"Farmer.sol\":1659:1787  function createUniqueCropID(uint seed) public onlyFarmer returns (bytes32) {... */\n    tag_22:\n      tag_127\n      0x04\n      dup1\n      calldatasize\n      sub\n      dup2\n      add\n      swap1\n      tag_128\n      swap2\n      swap1\n      tag_101\n      jump\t// in\n    tag_128:\n      tag_129\n      jump\t// in\n    tag_127:\n      mload(0x40)\n      tag_130\n      swap2\n      swap1\n      tag_131\n      jump\t// in\n    tag_130:\n      mload(0x40)\n      dup1\n      swap2\n      sub\n      swap1\n      return\n        /* \"Farmer.sol\":2197:2665  function farmerTransferToSupplier(bytes32 cropID, address supplier, string calldata transferDate) external onlyFarmer {... */\n    tag_23:\n      tag_132\n      0x04\n      dup1\n      calldatasize\n      sub\n      dup2\n      add\n      swap1\n      tag_133\n      swap2\n      swap1\n      tag_107\n      jump\t// in\n    tag_133:\n      tag_134\n      jump\t// in\n    tag_132:\n      stop\n        /* \"Customer.sol\":576:621  mapping(bytes32 => Purchase) public purchases */\n    tag_24:\n      tag_135\n      0x04\n      dup1\n      calldatasize\n      sub\n      dup2\n      add\n      swap1\n      tag_136\n      swap2\n      swap1\n      tag_85\n      jump\t// in\n    tag_136:\n      tag_137\n      jump\t// in\n    tag_135:\n      mload(0x40)\n      tag_138\n      swap6\n      swap5\n      swap4\n      swap3\n      swap2\n      swap1\n      tag_139\n      jump\t// in\n    tag_138:\n      mload(0x40)\n      dup1\n      swap2\n      sub\n      swap1\n      return\n        /* \"Aggregator.sol\":229:292  mapping(address => AggregatorProfile) public aggregatorProfiles */\n    tag_25:\n      tag_140\n      0x04\n      dup1\n      calldatasize\n      sub\n      dup2\n      add\n      swap1\n      tag_141\n      swap2\n      swap1\n      tag_50\n      jump\t// in\n    tag_141:\n      tag_142\n      jump\t// in\n    tag_140:\n      mload(0x40)\n      tag_143\n      swap4\n      swap3\n      swap2\n      swap1\n      tag_53\n      jump\t// in\n    tag_143:\n      mload(0x40)\n      dup1\n      swap2\n      sub\n      swap1\n      return\n        /* \"Retailer.sol\":657:698  mapping(bytes32 => Retail) public retails */\n    tag_26:\n      tag_144\n      0x04\n      dup1\n      calldatasize\n      sub\n      dup2\n      add\n      swap1\n      tag_145\n      swap2\n      swap1\n      tag_85\n      jump\t// in\n    tag_145:\n      tag_146\n      jump\t// in\n    tag_144:\n      mload(0x40)\n      tag_147\n      swap6\n      swap5\n      swap4\n      swap3\n      swap2\n      swap1\n      tag_148\n      jump\t// in\n    tag_147:\n      mload(0x40)\n      dup1\n      swap2\n      sub\n      swap1\n      return\n        /* \"TrackSupplyChain.sol\":278:298  address public owner */\n    tag_27:\n      tag_149\n      tag_150\n      jump\t// in\n    tag_149:\n      mload(0x40)\n      tag_151\n      swap2\n      swap1\n      tag_152\n      jump\t// in\n    tag_151:\n      mload(0x40)\n      dup1\n      swap2\n      sub\n      swap1\n      return\n        /* \"Farmer.sol\":217:272  mapping(address => FarmerProfile) public farmerProfiles */\n    tag_28:\n      tag_153\n      0x04\n      dup1\n      calldatasize\n      sub\n      dup2\n      add\n      swap1\n      tag_154\n      swap2\n      swap1\n      tag_50\n      jump\t// in\n    tag_154:\n      tag_155\n      jump\t// in\n    tag_153:\n      mload(0x40)\n      tag_156\n      swap4\n      swap3\n      swap2\n      swap1\n      tag_53\n      jump\t// in\n    tag_156:\n      mload(0x40)\n      dup1\n      swap2\n      sub\n      swap1\n      return\n        /* \"Retailer.sol\":95:136  mapping(address => bool) public retailers */\n    tag_29:\n      tag_157\n      0x04\n      dup1\n      calldatasize\n      sub\n      dup2\n      add\n      swap1\n      tag_158\n      swap2\n      swap1\n      tag_50\n      jump\t// in\n    tag_158:\n      tag_159\n      jump\t// in\n    tag_157:\n      mload(0x40)\n      tag_160\n      swap2\n      swap1\n      tag_62\n      jump\t// in\n    tag_160:\n      mload(0x40)\n      dup1\n      swap2\n      sub\n      swap1\n      return\n        /* \"Supplier.sol\":804:1157  function registerSupplier(string calldata name, string calldata location, string calldata contact) external {... */\n    tag_30:\n      tag_161\n      0x04\n      dup1\n      calldatasize\n      sub\n      dup2\n      add\n      swap1\n      tag_162\n      swap2\n      swap1\n      tag_77\n      jump\t// in\n    tag_162:\n      tag_163\n      jump\t// in\n    tag_161:\n      stop\n        /* \"Farmer.sol\":809:846  mapping(bytes32 => Crop) public crops */\n    tag_31:\n      tag_164\n      0x04\n      dup1\n      calldatasize\n      sub\n      dup2\n      add\n      swap1\n      tag_165\n      swap2\n      swap1\n      tag_85\n      jump\t// in\n    tag_165:\n      tag_166\n      jump\t// in\n    tag_164:\n      mload(0x40)\n      tag_167\n      swap9\n      swap8\n      swap7\n      swap6\n      swap5\n      swap4\n      swap3\n      swap2\n      swap1\n      tag_168\n      jump\t// in\n    tag_167:\n      mload(0x40)\n      dup1\n      swap2\n      sub\n      swap1\n      return\n        /* \"Supplier.sol\":1165:1423  function supplierReceiveFromFarmer(bytes32 cropID, uint transportCost, string calldata date) external onlySupplier {... */\n    tag_32:\n      tag_169\n      0x04\n      dup1\n      calldatasize\n      sub\n      dup2\n      add\n      swap1\n      tag_170\n      swap2\n      swap1\n      tag_115\n      jump\t// in\n    tag_170:\n      tag_171\n      jump\t// in\n    tag_169:\n      stop\n        /* \"Aggregator.sol\":790:840  mapping(bytes32 => AggregatedBatch) public batches */\n    tag_33:\n      tag_172\n      0x04\n      dup1\n      calldatasize\n      sub\n      dup2\n      add\n      swap1\n      tag_173\n      swap2\n      swap1\n      tag_85\n      jump\t// in\n    tag_173:\n      tag_174\n      jump\t// in\n    tag_172:\n      mload(0x40)\n      tag_175\n      swap8\n      swap7\n      swap6\n      swap5\n      swap4\n      swap3\n      swap2\n      swap1\n      tag_176\n      jump\t// in\n    tag_175:\n      mload(0x40)\n      dup1\n      swap2\n      sub\n      swap1\n      return\n        /* \"Aggregator.sol\":1315:1571  function aggregatorReceiveFromSupplier(bytes32 cropID, string calldata date) external onlyAggregator {... */\n    tag_34:\n      tag_177\n      0x04\n      dup1\n      calldatasize\n      sub\n      dup2\n      add\n      swap1\n      tag_178\n      swap2\n      swap1\n      tag_73\n      jump\t// in\n    tag_178:\n      tag_179\n      jump\t// in\n    tag_177:\n      stop\n        /* \"TrackSupplyChain.sol\":955:1588  function updateFreshness(... */\n    tag_35:\n      tag_180\n      0x04\n      dup1\n      calldatasize\n      sub\n      dup2\n      add\n      swap1\n      tag_181\n      swap2\n      swap1\n      tag_182\n      jump\t// in\n    tag_181:\n      tag_183\n      jump\t// in\n    tag_180:\n      stop\n        /* \"Farmer.sol\":944:965  uint public cropCount */\n    tag_36:\n      tag_184\n      tag_185\n      jump\t// in\n    tag_184:\n      mload(0x40)\n      tag_186\n      swap2\n      swap1\n      tag_187\n      jump\t// in\n    tag_186:\n      mload(0x40)\n      dup1\n      swap2\n      sub\n      swap1\n      return\n        /* \"Aggregator.sol\":942:1307  function registerAggregator(string calldata name, string calldata location, string calldata contact) external {... */\n    tag_37:\n      tag_188\n      0x04\n      dup1\n      calldatasize\n      sub\n      dup2\n      add\n      swap1\n      tag_189\n      swap2\n      swap1\n      tag_77\n      jump\t// in\n    tag_189:\n      tag_190\n      jump\t// in\n    tag_188:\n      stop\n        /* \"Farmer.sol\":853:892  mapping(uint => bytes32) public cropIDs */\n    tag_38:\n      tag_191\n      0x04\n      dup1\n      calldatasize\n      sub\n      dup2\n      add\n      swap1\n      tag_192\n      swap2\n      swap1\n      tag_101\n      jump\t// in\n    tag_192:\n      tag_193\n      jump\t// in\n    tag_191:\n      mload(0x40)\n      tag_194\n      swap2\n      swap1\n      tag_131\n      jump\t// in\n    tag_194:\n      mload(0x40)\n      dup1\n      swap2\n      sub\n      swap1\n      return\n        /* \"Supplier.sol\":666:708  mapping(bytes32 => Supply) public supplies */\n    tag_39:\n      tag_195\n      0x04\n      dup1\n      calldatasize\n      sub\n      dup2\n      add\n      swap1\n      tag_196\n      swap2\n      swap1\n      tag_85\n      jump\t// in\n    tag_196:\n      tag_197\n      jump\t// in\n    tag_195:\n      mload(0x40)\n      tag_198\n      swap6\n      swap5\n      swap4\n      swap3\n      swap2\n      swap1\n      tag_148\n      jump\t// in\n    tag_198:\n      mload(0x40)\n      dup1\n      swap2\n      sub\n      swap1\n      return\n        /* \"Customer.sol\":717:1070  function registerCustomer(string calldata name, string calldata location, string calldata contact) external {... */\n    tag_40:\n      tag_199\n      0x04\n      dup1\n      calldatasize\n      sub\n      dup2\n      add\n      swap1\n      tag_200\n      swap2\n      swap1\n      tag_77\n      jump\t// in\n    tag_200:\n      tag_201\n      jump\t// in\n    tag_199:\n      stop\n        /* \"Supplier.sol\":223:282  mapping(address => SupplierProfile) public supplierProfiles */\n    tag_51:\n      mstore(0x20, 0x07)\n      dup1\n      0x00\n      mstore\n      keccak256(0x00, 0x40)\n      0x00\n      swap2\n      pop\n      swap1\n      pop\n      dup1\n      0x00\n      add\n      dup1\n      sload\n      tag_202\n      swap1\n      tag_203\n      jump\t// in\n    tag_202:\n      dup1\n      0x1f\n      add\n      0x20\n      dup1\n      swap2\n      div\n      mul\n      0x20\n      add\n      mload(0x40)\n      swap1\n      dup2\n      add\n      0x40\n      mstore\n      dup1\n      swap3\n      swap2\n      swap1\n      dup2\n      dup2\n      mstore\n      0x20\n      add\n      dup3\n      dup1\n      sload\n      tag_204\n      swap1\n      tag_203\n      jump\t// in\n    tag_204:\n      dup1\n      iszero\n      tag_205\n      jumpi\n      dup1\n      0x1f\n      lt\n      tag_206\n      jumpi\n      0x0100\n      dup1\n      dup4\n      sload\n      div\n      mul\n      dup4\n      mstore\n      swap2\n      0x20\n      add\n      swap2\n      jump(tag_205)\n    tag_206:\n      dup3\n      add\n      swap2\n      swap1\n      0x00\n      mstore\n      keccak256(0x00, 0x20)\n      swap1\n    tag_207:\n      dup2\n      sload\n      dup2\n      mstore\n      swap1\n      0x01\n      add\n      swap1\n      0x20\n      add\n      dup1\n      dup4\n      gt\n      tag_207\n      jumpi\n      dup3\n      swap1\n      sub\n      0x1f\n      and\n      dup3\n      add\n      swap2\n    tag_205:\n      pop\n      pop\n      pop\n      pop\n      pop\n      swap1\n      dup1\n      0x01\n      add\n      dup1\n      sload\n      tag_208\n      swap1\n      tag_203\n      jump\t// in\n    tag_208:\n      dup1\n      0x1f\n      add\n      0x20\n      dup1\n      swap2\n      div\n      mul\n      0x20\n      add\n      mload(0x40)\n      swap1\n      dup2\n      add\n      0x40\n      mstore\n      dup1\n      swap3\n      swap2\n      swap1\n      dup2\n      dup2\n      mstore\n      0x20\n      add\n      dup3\n      dup1\n      sload\n      tag_209\n      swap1\n      tag_203\n      jump\t// in\n    tag_209:\n      dup1\n      iszero\n      tag_210\n      jumpi\n      dup1\n      0x1f\n      lt\n      tag_211\n      jumpi\n      0x0100\n      dup1\n      dup4\n      sload\n      div\n      mul\n      dup4\n      mstore\n      swap2\n      0x20\n      add\n      swap2\n      jump(tag_210)\n    tag_211:\n      dup3\n      add\n      swap2\n      swap1\n      0x00\n      mstore\n      keccak256(0x00, 0x20)\n      swap1\n    tag_212:\n      dup2\n      sload\n      dup2\n      mstore\n      swap1\n      0x01\n      add\n      swap1\n      0x20\n      add\n      dup1\n      dup4\n      gt\n      tag_212\n      jumpi\n      dup3\n      swap1\n      sub\n      0x1f\n      and\n      dup3\n      add\n      swap2\n    tag_210:\n      pop\n      pop\n      pop\n      pop\n      pop\n      swap1\n      dup1\n      0x02\n      add\n      dup1\n      sload\n      tag_213\n      swap1\n      tag_203\n      jump\t// in\n    tag_213:\n      dup1\n      0x1f\n      add\n      0x20\n      dup1\n      swap2\n      div\n      mul\n      0x20\n      add\n      mload(0x40)\n      swap1\n      dup2\n      add\n      0x40\n      mstore\n      dup1\n      swap3\n      swap2\n      swap1\n      dup2\n      dup2\n      mstore\n      0x20\n      add\n      dup3\n      dup1\n      sload\n      tag_214\n      swap1\n      tag_203\n      jump\t// in\n    tag_214:\n      dup1\n      iszero\n      tag_215\n      jumpi\n      dup1\n      0x1f\n      lt\n      tag_216\n      jumpi\n      0x0100\n      dup1\n      dup4\n      sload\n      div\n      mul\n      dup4\n      mstore\n      swap2\n      0x20\n      add\n      swap2\n      jump(tag_215)\n    tag_216:\n      dup3\n      add\n      swap2\n      swap1\n      0x00\n      mstore\n      keccak256(0x00, 0x20)\n      swap1\n    tag_217:\n      dup2\n      sload\n      dup2\n      mstore\n      swap1\n      0x01\n      add\n      swap1\n      0x20\n      add\n      dup1\n      dup4\n      gt\n      tag_217\n      jumpi\n      dup3\n      swap1\n      sub\n      0x1f\n      and\n      dup3\n      add\n      swap2\n    tag_215:\n      pop\n      pop\n      pop\n      pop\n      pop\n      swap1\n      pop\n      dup4\n      jump\t// out\n        /* \"Farmer.sol\":1795:2189  function farmerCollectCrop(bytes32 cropID, string calldata cropType, string calldata origin, string calldata date, uint price) external onlyFarmer {... */\n    tag_57:\n        /* \"Farmer.sol\":1006:1013  farmers */\n      0x00\n        /* \"Farmer.sol\":1006:1025  farmers[msg.sender] */\n      0x00\n        /* \"Farmer.sol\":1014:1024  msg.sender */\n      caller\n        /* \"Farmer.sol\":1006:1025  farmers[msg.sender] */\n      0xffffffffffffffffffffffffffffffffffffffff\n      and\n      0xffffffffffffffffffffffffffffffffffffffff\n      and\n      dup2\n      mstore\n      0x20\n      add\n      swap1\n      dup2\n      mstore\n      0x20\n      add\n      0x00\n      keccak256\n      0x00\n      swap1\n      sload\n      swap1\n      0x0100\n      exp\n      swap1\n      div\n      0xff\n      and\n        /* \"Farmer.sol\":998:1041  require(farmers[msg.sender], \"Only farmer\") */\n      tag_219\n      jumpi\n      mload(0x40)\n      0x08c379a000000000000000000000000000000000000000000000000000000000\n      dup2\n      mstore\n      0x04\n      add\n      tag_220\n      swap1\n      tag_221\n      jump\t// in\n    tag_220:\n      mload(0x40)\n      dup1\n      swap2\n      sub\n      swap1\n      revert\n    tag_219:\n        /* \"Farmer.sol\":1962:1968  exists */\n      0x04\n        /* \"Farmer.sol\":1962:1976  exists[cropID] */\n      0x00\n        /* \"Farmer.sol\":1969:1975  cropID */\n      dup10\n        /* \"Farmer.sol\":1962:1976  exists[cropID] */\n      dup2\n      mstore\n      0x20\n      add\n      swap1\n      dup2\n      mstore\n      0x20\n      add\n      0x00\n      keccak256\n      0x00\n      swap1\n      sload\n      swap1\n      0x0100\n      exp\n      swap1\n      div\n      0xff\n      and\n        /* \"Farmer.sol\":1961:1976  !exists[cropID] */\n      iszero\n        /* \"Farmer.sol\":1953:1992  require(!exists[cropID], \"Crop exists\") */\n      tag_223\n      jumpi\n      mload(0x40)\n      0x08c379a000000000000000000000000000000000000000000000000000000000\n      dup2\n      mstore\n      0x04\n      add\n      tag_224\n      swap1\n      tag_225\n      jump\t// in\n    tag_224:\n      mload(0x40)\n      dup1\n      swap2\n      sub\n      swap1\n      revert\n    tag_223:\n        /* \"Farmer.sol\":2019:2095  Crop(cropID, cropType, origin, date, price, Stage.Collected, msg.sender, \"\") */\n      mload(0x40)\n      dup1\n      0x0100\n      add\n      0x40\n      mstore\n      dup1\n        /* \"Farmer.sol\":2024:2030  cropID */\n      dup10\n        /* \"Farmer.sol\":2019:2095  Crop(cropID, cropType, origin, date, price, Stage.Collected, msg.sender, \"\") */\n      dup2\n      mstore\n      0x20\n      add\n        /* \"Farmer.sol\":2032:2040  cropType */\n      dup9\n      dup9\n        /* \"Farmer.sol\":2019:2095  Crop(cropID, cropType, origin, date, price, Stage.Collected, msg.sender, \"\") */\n      dup1\n      dup1\n      0x1f\n      add\n      0x20\n      dup1\n      swap2\n      div\n      mul\n      0x20\n      add\n      mload(0x40)\n      swap1\n      dup2\n      add\n      0x40\n      mstore\n      dup1\n      swap4\n      swap3\n      swap2\n      swap1\n      dup2\n      dup2\n      mstore\n      0x20\n      add\n      dup4\n      dup4\n      dup1\n      dup3\n      dup5\n      calldatacopy\n      0x00\n      dup2\n      dup5\n      add\n      mstore\n      not(0x1f)\n      0x1f\n      dup3\n      add\n      and\n      swap1\n      pop\n      dup1\n      dup4\n      add\n      swap3\n      pop\n      pop\n      pop\n      pop\n      pop\n      pop\n      pop\n      dup2\n      mstore\n      0x20\n      add\n        /* \"Farmer.sol\":2042:2048  origin */\n      dup7\n      dup7\n        /* \"Farmer.sol\":2019:2095  Crop(cropID, cropType, origin, date, price, Stage.Collected, msg.sender, \"\") */\n      dup1\n      dup1\n      0x1f\n      add\n      0x20\n      dup1\n      swap2\n      div\n      mul\n      0x20\n      add\n      mload(0x40)\n      swap1\n      dup2\n      add\n      0x40\n      mstore\n      dup1\n      swap4\n      swap3\n      swap2\n      swap1\n      dup2\n      dup2\n      mstore\n      0x20\n      add\n      dup4\n      dup4\n      dup1\n      dup3\n      dup5\n      calldatacopy\n      0x00\n      dup2\n      dup5\n      add\n      mstore\n      not(0x1f)\n      0x1f\n      dup3\n      add\n      and\n      swap1\n      pop\n      dup1\n      dup4\n      add\n      swap3\n      pop\n      pop\n      pop\n      pop\n      pop\n      pop\n      pop\n      dup2\n      mstore\n      0x20\n      add\n        /* \"Farmer.sol\":2050:2054  date */\n      dup5\n      dup5\n        /* \"Farmer.sol\":2019:2095  Crop(cropID, cropType, origin, date, price, Stage.Collected, msg.sender, \"\") */\n      dup1\n      dup1\n      0x1f\n      add\n      0x20\n      dup1\n      swap2\n      div\n      mul\n      0x20\n      add\n      mload(0x40)\n      swap1\n      dup2\n      add\n      0x40\n      mstore\n      dup1\n      swap4\n      swap3\n      swap2\n      swap1\n      dup2\n      dup2\n      mstore\n      0x20\n      add\n      dup4\n      dup4\n      dup1\n      dup3\n      dup5\n      calldatacopy\n      0x00\n      dup2\n      dup5\n      add\n      mstore\n      not(0x1f)\n      0x1f\n      dup3\n      add\n      and\n      swap1\n      pop\n      dup1\n      dup4\n      add\n      swap3\n      pop\n      pop\n      pop\n      pop\n      pop\n      pop\n      pop\n      dup2\n      mstore\n      0x20\n      add\n        /* \"Farmer.sol\":2056:2061  price */\n      dup3\n        /* \"Farmer.sol\":2019:2095  Crop(cropID, cropType, origin, date, price, Stage.Collected, msg.sender, \"\") */\n      dup2\n      mstore\n      0x20\n      add\n        /* \"Farmer.sol\":2063:2078  Stage.Collected */\n      0x01\n        /* \"Farmer.sol\":2019:2095  Crop(cropID, cropType, origin, date, price, Stage.Collected, msg.sender, \"\") */\n      0x06\n      dup2\n      gt\n      iszero\n      tag_226\n      jumpi\n      tag_227\n      tag_228\n      jump\t// in\n    tag_227:\n    tag_226:\n      dup2\n      mstore\n      0x20\n      add\n        /* \"Farmer.sol\":2080:2090  msg.sender */\n      caller\n        /* \"Farmer.sol\":2019:2095  Crop(cropID, cropType, origin, date, price, Stage.Collected, msg.sender, \"\") */\n      0xffffffffffffffffffffffffffffffffffffffff\n      and\n      dup2\n      mstore\n      0x20\n      add\n      mload(0x40)\n      dup1\n      0x20\n      add\n      0x40\n      mstore\n      dup1\n      0x00\n      dup2\n      mstore\n      pop\n      dup2\n      mstore\n      pop\n        /* \"Farmer.sol\":2003:2008  crops */\n      0x02\n        /* \"Farmer.sol\":2003:2016  crops[cropID] */\n      0x00\n        /* \"Farmer.sol\":2009:2015  cropID */\n      dup11\n        /* \"Farmer.sol\":2003:2016  crops[cropID] */\n      dup2\n      mstore\n      0x20\n      add\n      swap1\n      dup2\n      mstore\n      0x20\n      add\n      0x00\n      keccak256\n        /* \"Farmer.sol\":2003:2095  crops[cropID] = Crop(cropID, cropType, origin, date, price, Stage.Collected, msg.sender, \"\") */\n      0x00\n      dup3\n      add\n      mload\n      dup2\n      0x00\n      add\n      sstore\n      0x20\n      dup3\n      add\n      mload\n      dup2\n      0x01\n      add\n      swap1\n      dup2\n      tag_229\n      swap2\n      swap1\n      tag_230\n      jump\t// in\n    tag_229:\n      pop\n      0x40\n      dup3\n      add\n      mload\n      dup2\n      0x02\n      add\n      swap1\n      dup2\n      tag_231\n      swap2\n      swap1\n      tag_230\n      jump\t// in\n    tag_231:\n      pop\n      0x60\n      dup3\n      add\n      mload\n      dup2\n      0x03\n      add\n      swap1\n      dup2\n      tag_232\n      swap2\n      swap1\n      tag_230\n      jump\t// in\n    tag_232:\n      pop\n      0x80\n      dup3\n      add\n      mload\n      dup2\n      0x04\n      add\n      sstore\n      0xa0\n      dup3\n      add\n      mload\n      dup2\n      0x05\n      add\n      exp(0x0100, 0x00)\n      dup2\n      sload\n      dup2\n      0xff\n      mul\n      not\n      and\n      swap1\n      dup4\n      0x06\n      dup2\n      gt\n      iszero\n      tag_233\n      jumpi\n      tag_234\n      tag_228\n      jump\t// in\n    tag_234:\n    tag_233:\n      mul\n      or\n      swap1\n      sstore\n      pop\n      0xc0\n      dup3\n      add\n      mload\n      dup2\n      0x05\n      add\n      exp(0x0100, 0x01)\n      dup2\n      sload\n      dup2\n      0xffffffffffffffffffffffffffffffffffffffff\n      mul\n      not\n      and\n      swap1\n      dup4\n      0xffffffffffffffffffffffffffffffffffffffff\n      and\n      mul\n      or\n      swap1\n      sstore\n      pop\n      0xe0\n      dup3\n      add\n      mload\n      dup2\n      0x06\n      add\n      swap1\n      dup2\n      tag_235\n      swap2\n      swap1\n      tag_230\n      jump\t// in\n    tag_235:\n      pop\n      swap1\n      pop\n      pop\n        /* \"Farmer.sol\":2123:2127  true */\n      0x01\n        /* \"Farmer.sol\":2106:2112  exists */\n      0x04\n        /* \"Farmer.sol\":2106:2120  exists[cropID] */\n      0x00\n        /* \"Farmer.sol\":2113:2119  cropID */\n      dup11\n        /* \"Farmer.sol\":2106:2120  exists[cropID] */\n      dup2\n      mstore\n      0x20\n      add\n      swap1\n      dup2\n      mstore\n      0x20\n      add\n      0x00\n      keccak256\n      0x00\n        /* \"Farmer.sol\":2106:2127  exists[cropID] = true */\n      0x0100\n      exp\n      dup2\n      sload\n      dup2\n      0xff\n      mul\n      not\n      and\n      swap1\n      dup4\n      iszero\n      iszero\n      mul\n      or\n      swap1\n      sstore\n      pop\n        /* \"Farmer.sol\":2143:2181  CropCollected(cropID, cropType, price) */\n      0x9dcca99eebc5190547e039817ed1a8656e9d96c9fcc340f1223d2717dc72ae58\n        /* \"Farmer.sol\":2157:2163  cropID */\n      dup9\n        /* \"Farmer.sol\":2165:2173  cropType */\n      dup9\n      dup9\n        /* \"Farmer.sol\":2175:2180  price */\n      dup5\n        /* \"Farmer.sol\":2143:2181  CropCollected(cropID, cropType, price) */\n      mload(0x40)\n      tag_236\n      swap5\n      swap4\n      swap3\n      swap2\n      swap1\n      tag_237\n      jump\t// in\n    tag_236:\n      mload(0x40)\n      dup1\n      swap2\n      sub\n      swap1\n      log1\n        /* \"Farmer.sol\":1795:2189  function farmerCollectCrop(bytes32 cropID, string calldata cropType, string calldata origin, string calldata date, uint price) external onlyFarmer {... */\n      pop\n      pop\n      pop\n      pop\n      pop\n      pop\n      pop\n      pop\n      jump\t// out\n        /* \"Aggregator.sol\":97:140  mapping(address => bool) public aggregators */\n    tag_60:\n      mstore(0x20, 0x09)\n      dup1\n      0x00\n      mstore\n      keccak256(0x00, 0x40)\n      0x00\n      swap2\n      pop\n      sload\n      swap1\n      0x0100\n      exp\n      swap1\n      div\n      0xff\n      and\n      dup2\n      jump\t// out\n        /* \"Supplier.sol\":95:136  mapping(address => bool) public suppliers */\n    tag_65:\n      mstore(0x20, 0x06)\n      dup1\n      0x00\n      mstore\n      keccak256(0x00, 0x40)\n      0x00\n      swap2\n      pop\n      sload\n      swap1\n      0x0100\n      exp\n      swap1\n      div\n      0xff\n      and\n      dup2\n      jump\t// out\n        /* \"Retailer.sol\":223:282  mapping(address => RetailerProfile) public retailerProfiles */\n    tag_69:\n      mstore(0x20, 0x0d)\n      dup1\n      0x00\n      mstore\n      keccak256(0x00, 0x40)\n      0x00\n      swap2\n      pop\n      swap1\n      pop\n      dup1\n      0x00\n      add\n      dup1\n      sload\n      tag_238\n      swap1\n      tag_203\n      jump\t// in\n    tag_238:\n      dup1\n      0x1f\n      add\n      0x20\n      dup1\n      swap2\n      div\n      mul\n      0x20\n      add\n      mload(0x40)\n      swap1\n      dup2\n      add\n      0x40\n      mstore\n      dup1\n      swap3\n      swap2\n      swap1\n      dup2\n      dup2\n      mstore\n      0x20\n      add\n      dup3\n      dup1\n      sload\n      tag_239\n      swap1\n      tag_203\n      jump\t// in\n    tag_239:\n      dup1\n      iszero\n      tag_240\n      jumpi\n      dup1\n      0x1f\n      lt\n      tag_241\n      jumpi\n      0x0100\n      dup1\n      dup4\n      sload\n      div\n      mul\n      dup4\n      mstore\n      swap2\n      0x20\n      add\n      swap2\n      jump(tag_240)\n    tag_241:\n      dup3\n      add\n      swap2\n      swap1\n      0x00\n      mstore\n      keccak256(0x00, 0x20)\n      swap1\n    tag_242:\n      dup2\n      sload\n      dup2\n      mstore\n      swap1\n      0x01\n      add\n      swap1\n      0x20\n      add\n      dup1\n      dup4\n      gt\n      tag_242\n      jumpi\n      dup3\n      swap1\n      sub\n      0x1f\n      and\n      dup3\n      add\n      swap2\n    tag_240:\n      pop\n      pop\n      pop\n      pop\n      pop\n      swap1\n      dup1\n      0x01\n      add\n      dup1\n      sload\n      tag_243\n      swap1\n      tag_203\n      jump\t// in\n    tag_243:\n      dup1\n      0x1f\n      add\n      0x20\n      dup1\n      swap2\n      div\n      mul\n      0x20\n      add\n      mload(0x40)\n      swap1\n      dup2\n      add\n      0x40\n      mstore\n      dup1\n      swap3\n      swap2\n      swap1\n      dup2\n      dup2\n      mstore\n      0x20\n      add\n      dup3\n      dup1\n      sload\n      tag_244\n      swap1\n      tag_203\n      jump\t// in\n    tag_244:\n      dup1\n      iszero\n      tag_245\n      jumpi\n      dup1\n      0x1f\n      lt\n      tag_246\n      jumpi\n      0x0100\n      dup1\n      dup4\n      sload\n      div\n      mul\n      dup4\n      mstore\n      swap2\n      0x20\n      add\n      swap2\n      jump(tag_245)\n    tag_246:\n      dup3\n      add\n      swap2\n      swap1\n      0x00\n      mstore\n      keccak256(0x00, 0x20)\n      swap1\n    tag_247:\n      dup2\n      sload\n      dup2\n      mstore\n      swap1\n      0x01\n      add\n      swap1\n      0x20\n      add\n      dup1\n      dup4\n      gt\n      tag_247\n      jumpi\n      dup3\n      swap1\n      sub\n      0x1f\n      and\n      dup3\n      add\n      swap2\n    tag_245:\n      pop\n      pop\n      pop\n      pop\n      pop\n      swap1\n      dup1\n      0x02\n      add\n      dup1\n      sload\n      tag_248\n      swap1\n      tag_203\n      jump\t// in\n    tag_248:\n      dup1\n      0x1f\n      add\n      0x20\n      dup1\n      swap2\n      div\n      mul\n      0x20\n      add\n      mload(0x40)\n      swap1\n      dup2\n      add\n      0x40\n      mstore\n      dup1\n      swap3\n      swap2\n      swap1\n      dup2\n      dup2\n      mstore\n      0x20\n      add\n      dup3\n      dup1\n      sload\n      tag_249\n      swap1\n      tag_203\n      jump\t// in\n    tag_249:\n      dup1\n      iszero\n      tag_250\n      jumpi\n      dup1\n      0x1f\n      lt\n      tag_251\n      jumpi\n      0x0100\n      dup1\n      dup4\n      sload\n      div\n      mul\n      dup4\n      mstore\n      swap2\n      0x20\n      add\n      swap2\n      jump(tag_250)\n    tag_251:\n      dup3\n      add\n      swap2\n      swap1\n      0x00\n      mstore\n      keccak256(0x00, 0x20)\n      swap1\n    tag_252:\n      dup2\n      sload\n      dup2\n      mstore\n      swap1\n      0x01\n      add\n      swap1\n      0x20\n      add\n      dup1\n      dup4\n      gt\n      tag_252\n      jumpi\n      dup3\n      swap1\n      sub\n      0x1f\n      and\n      dup3\n      add\n      swap2\n    tag_250:\n      pop\n      pop\n      pop\n      pop\n      pop\n      swap1\n      pop\n      dup4\n      jump\t// out\n        /* \"Aggregator.sol\":1579:1868  function aggregatorDivideBatch(bytes32 cropID, string calldata date) external onlyAggregator {... */\n    tag_74:\n        /* \"Aggregator.sol\":885:896  aggregators */\n      0x09\n        /* \"Aggregator.sol\":885:908  aggregators[msg.sender] */\n      0x00\n        /* \"Aggregator.sol\":897:907  msg.sender */\n      caller\n        /* \"Aggregator.sol\":885:908  aggregators[msg.sender] */\n      0xffffffffffffffffffffffffffffffffffffffff\n      and\n      0xffffffffffffffffffffffffffffffffffffffff\n      and\n      dup2\n      mstore\n      0x20\n      add\n      swap1\n      dup2\n      mstore\n      0x20\n      add\n      0x00\n      keccak256\n      0x00\n      swap1\n      sload\n      swap1\n      0x0100\n      exp\n      swap1\n      div\n      0xff\n      and\n        /* \"Aggregator.sol\":877:928  require(aggregators[msg.sender], \"Only aggregator\") */\n      tag_254\n      jumpi\n      mload(0x40)\n      0x08c379a000000000000000000000000000000000000000000000000000000000\n      dup2\n      mstore\n      0x04\n      add\n      tag_255\n      swap1\n      tag_256\n      jump\t// in\n    tag_255:\n      mload(0x40)\n      dup1\n      swap2\n      sub\n      swap1\n      revert\n    tag_254:\n        /* \"Aggregator.sol\":1691:1698  batches */\n      0x0b\n        /* \"Aggregator.sol\":1691:1706  batches[cropID] */\n      0x00\n        /* \"Aggregator.sol\":1699:1705  cropID */\n      dup5\n        /* \"Aggregator.sol\":1691:1706  batches[cropID] */\n      dup2\n      mstore\n      0x20\n      add\n      swap1\n      dup2\n      mstore\n      0x20\n      add\n      0x00\n      keccak256\n        /* \"Aggregator.sol\":1691:1715  batches[cropID].received */\n      0x01\n      add\n      0x00\n      swap1\n      sload\n      swap1\n      0x0100\n      exp\n      swap1\n      div\n      0xff\n      and\n        /* \"Aggregator.sol\":1683:1732  require(batches[cropID].received, \"Not received\") */\n      tag_258\n      jumpi\n      mload(0x40)\n      0x08c379a000000000000000000000000000000000000000000000000000000000\n      dup2\n      mstore\n      0x04\n      add\n      tag_259\n      swap1\n      tag_260\n      jump\t// in\n    tag_259:\n      mload(0x40)\n      dup1\n      swap2\n      sub\n      swap1\n      revert\n    tag_258:\n        /* \"Aggregator.sol\":1769:1773  true */\n      0x01\n        /* \"Aggregator.sol\":1743:1750  batches */\n      0x0b\n        /* \"Aggregator.sol\":1743:1758  batches[cropID] */\n      0x00\n        /* \"Aggregator.sol\":1751:1757  cropID */\n      dup6\n        /* \"Aggregator.sol\":1743:1758  batches[cropID] */\n      dup2\n      mstore\n      0x20\n      add\n      swap1\n      dup2\n      mstore\n      0x20\n      add\n      0x00\n      keccak256\n        /* \"Aggregator.sol\":1743:1766  batches[cropID].divided */\n      0x03\n      add\n      0x00\n        /* \"Aggregator.sol\":1743:1773  batches[cropID].divided = true */\n      0x0100\n      exp\n      dup2\n      sload\n      dup2\n      0xff\n      mul\n      not\n      and\n      swap1\n      dup4\n      iszero\n      iszero\n      mul\n      or\n      swap1\n      sstore\n      pop\n        /* \"Aggregator.sol\":1814:1818  date */\n      dup2\n      dup2\n        /* \"Aggregator.sol\":1784:1791  batches */\n      0x0b\n        /* \"Aggregator.sol\":1784:1799  batches[cropID] */\n      0x00\n        /* \"Aggregator.sol\":1792:1798  cropID */\n      dup7\n        /* \"Aggregator.sol\":1784:1799  batches[cropID] */\n      dup2\n      mstore\n      0x20\n      add\n      swap1\n      dup2\n      mstore\n      0x20\n      add\n      0x00\n      keccak256\n        /* \"Aggregator.sol\":1784:1811  batches[cropID].dividedDate */\n      0x04\n      add\n        /* \"Aggregator.sol\":1784:1818  batches[cropID].dividedDate = date */\n      swap2\n      dup3\n      tag_261\n      swap3\n      swap2\n      swap1\n      tag_262\n      jump\t// in\n    tag_261:\n      pop\n        /* \"Aggregator.sol\":1834:1860  BatchDivided(cropID, date) */\n      0xe5d0b47a1fe3de7357458b7b7aa20aede2093baa892e9d8c2784e39fa58a7d8c\n        /* \"Aggregator.sol\":1847:1853  cropID */\n      dup4\n        /* \"Aggregator.sol\":1855:1859  date */\n      dup4\n      dup4\n        /* \"Aggregator.sol\":1834:1860  BatchDivided(cropID, date) */\n      mload(0x40)\n      tag_263\n      swap4\n      swap3\n      swap2\n      swap1\n      tag_264\n      jump\t// in\n    tag_263:\n      mload(0x40)\n      dup1\n      swap2\n      sub\n      swap1\n      log1\n        /* \"Aggregator.sol\":1579:1868  function aggregatorDivideBatch(bytes32 cropID, string calldata date) external onlyAggregator {... */\n      pop\n      pop\n      pop\n      jump\t// out\n        /* \"Farmer.sol\":1055:1396  function registerFarmer(string calldata name, string calldata location, string calldata contact) external {... */\n    tag_78:\n        /* \"Farmer.sol\":1181:1188  farmers */\n      0x00\n        /* \"Farmer.sol\":1181:1200  farmers[msg.sender] */\n      0x00\n        /* \"Farmer.sol\":1189:1199  msg.sender */\n      caller\n        /* \"Farmer.sol\":1181:1200  farmers[msg.sender] */\n      0xffffffffffffffffffffffffffffffffffffffff\n      and\n      0xffffffffffffffffffffffffffffffffffffffff\n      and\n      dup2\n      mstore\n      0x20\n      add\n      swap1\n      dup2\n      mstore\n      0x20\n      add\n      0x00\n      keccak256\n      0x00\n      swap1\n      sload\n      swap1\n      0x0100\n      exp\n      swap1\n      div\n      0xff\n      and\n        /* \"Farmer.sol\":1180:1200  !farmers[msg.sender] */\n      iszero\n        /* \"Farmer.sol\":1172:1223  require(!farmers[msg.sender], \"Already registered\") */\n      tag_266\n      jumpi\n      mload(0x40)\n      0x08c379a000000000000000000000000000000000000000000000000000000000\n      dup2\n      mstore\n      0x04\n      add\n      tag_267\n      swap1\n      tag_268\n      jump\t// in\n    tag_267:\n      mload(0x40)\n      dup1\n      swap2\n      sub\n      swap1\n      revert\n    tag_266:\n        /* \"Farmer.sol\":1256:1260  true */\n      0x01\n        /* \"Farmer.sol\":1234:1241  farmers */\n      0x00\n        /* \"Farmer.sol\":1234:1253  farmers[msg.sender] */\n      0x00\n        /* \"Farmer.sol\":1242:1252  msg.sender */\n      caller\n        /* \"Farmer.sol\":1234:1253  farmers[msg.sender] */\n      0xffffffffffffffffffffffffffffffffffffffff\n      and\n      0xffffffffffffffffffffffffffffffffffffffff\n      and\n      dup2\n      mstore\n      0x20\n      add\n      swap1\n      dup2\n      mstore\n      0x20\n      add\n      0x00\n      keccak256\n      0x00\n        /* \"Farmer.sol\":1234:1260  farmers[msg.sender] = true */\n      0x0100\n      exp\n      dup2\n      sload\n      dup2\n      0xff\n      mul\n      not\n      and\n      swap1\n      dup4\n      iszero\n      iszero\n      mul\n      or\n      swap1\n      sstore\n      pop\n        /* \"Farmer.sol\":1300:1338  FarmerProfile(name, location, contact) */\n      mload(0x40)\n      dup1\n      0x60\n      add\n      0x40\n      mstore\n      dup1\n        /* \"Farmer.sol\":1314:1318  name */\n      dup8\n      dup8\n        /* \"Farmer.sol\":1300:1338  FarmerProfile(name, location, contact) */\n      dup1\n      dup1\n      0x1f\n      add\n      0x20\n      dup1\n      swap2\n      div\n      mul\n      0x20\n      add\n      mload(0x40)\n      swap1\n      dup2\n      add\n      0x40\n      mstore\n      dup1\n      swap4\n      swap3\n      swap2\n      swap1\n      dup2\n      dup2\n      mstore\n      0x20\n      add\n      dup4\n      dup4\n      dup1\n      dup3\n      dup5\n      calldatacopy\n      0x00\n      dup2\n      dup5\n      add\n      mstore\n      not(0x1f)\n      0x1f\n      dup3\n      add\n      and\n      swap1\n      pop\n      dup1\n      dup4\n      add\n      swap3\n      pop\n      pop\n      pop\n      pop\n      pop\n      pop\n      pop\n      dup2\n      mstore\n      0x20\n      add\n        /* \"Farmer.sol\":1320:1328  location */\n      dup6\n      dup6\n        /* \"Farmer.sol\":1300:1338  FarmerProfile(name, location, contact) */\n      dup1\n      dup1\n      0x1f\n      add\n      0x20\n      dup1\n      swap2\n      div\n      mul\n      0x20\n      add\n      mload(0x40)\n      swap1\n      dup2\n      add\n      0x40\n      mstore\n      dup1\n      swap4\n      swap3\n      swap2\n      swap1\n      dup2\n      dup2\n      mstore\n      0x20\n      add\n      dup4\n      dup4\n      dup1\n      dup3\n      dup5\n      calldatacopy\n      0x00\n      dup2\n      dup5\n      add\n      mstore\n      not(0x1f)\n      0x1f\n      dup3\n      add\n      and\n      swap1\n      pop\n      dup1\n      dup4\n      add\n      swap3\n      pop\n      pop\n      pop\n      pop\n      pop\n      pop\n      pop\n      dup2\n      mstore\n      0x20\n      add\n        /* \"Farmer.sol\":1330:1337  contact */\n      dup4\n      dup4\n        /* \"Farmer.sol\":1300:1338  FarmerProfile(name, location, contact) */\n      dup1\n      dup1\n      0x1f\n      add\n      0x20\n      dup1\n      swap2\n      div\n      mul\n      0x20\n      add\n      mload(0x40)\n      swap1\n      dup2\n      add\n      0x40\n      mstore\n      dup1\n      swap4\n      swap3\n      swap2\n      swap1\n      dup2\n      dup2\n      mstore\n      0x20\n      add\n      dup4\n      dup4\n      dup1\n      dup3\n      dup5\n      calldatacopy\n      0x00\n      dup2\n      dup5\n      add\n      mstore\n      not(0x1f)\n      0x1f\n      dup3\n      add\n      and\n      swap1\n      pop\n      dup1\n      dup4\n      add\n      swap3\n      pop\n      pop\n      pop\n      pop\n      pop\n      pop\n      pop\n      dup2\n      mstore\n      pop\n        /* \"Farmer.sol\":1271:1285  farmerProfiles */\n      0x01\n        /* \"Farmer.sol\":1271:1297  farmerProfiles[msg.sender] */\n      0x00\n        /* \"Farmer.sol\":1286:1296  msg.sender */\n      caller\n        /* \"Farmer.sol\":1271:1297  farmerProfiles[msg.sender] */\n      0xffffffffffffffffffffffffffffffffffffffff\n      and\n      0xffffffffffffffffffffffffffffffffffffffff\n      and\n      dup2\n      mstore\n      0x20\n      add\n      swap1\n      dup2\n      mstore\n      0x20\n      add\n      0x00\n      keccak256\n        /* \"Farmer.sol\":1271:1338  farmerProfiles[msg.sender] = FarmerProfile(name, location, contact) */\n      0x00\n      dup3\n      add\n      mload\n      dup2\n      0x00\n      add\n      swap1\n      dup2\n      tag_269\n      swap2\n      swap1\n      tag_230\n      jump\t// in\n    tag_269:\n      pop\n      0x20\n      dup3\n      add\n      mload\n      dup2\n      0x01\n      add\n      swap1\n      dup2\n      tag_270\n      swap2\n      swap1\n      tag_230\n      jump\t// in\n    tag_270:\n      pop\n      0x40\n      dup3\n      add\n      mload\n      dup2\n      0x02\n      add\n      swap1\n      dup2\n      tag_271\n      swap2\n      swap1\n      tag_230\n      jump\t// in\n    tag_271:\n      pop\n      swap1\n      pop\n      pop\n        /* \"Farmer.sol\":1354:1388  FarmerRegistered(msg.sender, name) */\n      0x42558426a946ab6e527d7f548e7bd3e34c2a7ddde555007464cdfbb5f58665f8\n        /* \"Farmer.sol\":1371:1381  msg.sender */\n      caller\n        /* \"Farmer.sol\":1383:1387  name */\n      dup8\n      dup8\n        /* \"Farmer.sol\":1354:1388  FarmerRegistered(msg.sender, name) */\n      mload(0x40)\n      tag_272\n      swap4\n      swap3\n      swap2\n      swap1\n      tag_273\n      jump\t// in\n    tag_272:\n      mload(0x40)\n      dup1\n      swap2\n      sub\n      swap1\n      log1\n        /* \"Farmer.sol\":1055:1396  function registerFarmer(string calldata name, string calldata location, string calldata contact) external {... */\n      pop\n      pop\n      pop\n      pop\n      pop\n      pop\n      jump\t// out\n        /* \"Customer.sol\":95:136  mapping(address => bool) public customers */\n    tag_81:\n      mstore(0x20, 0x0f)\n      dup1\n      0x00\n      mstore\n      keccak256(0x00, 0x40)\n      0x00\n      swap2\n      pop\n      sload\n      swap1\n      0x0100\n      exp\n      swap1\n      div\n      0xff\n      and\n      dup2\n      jump\t// out\n        /* \"Farmer.sol\":899:937  mapping(bytes32 => bool) public exists */\n    tag_86:\n      mstore(0x20, 0x04)\n      dup1\n      0x00\n      mstore\n      keccak256(0x00, 0x40)\n      0x00\n      swap2\n      pop\n      sload\n      swap1\n      0x0100\n      exp\n      swap1\n      div\n      0xff\n      and\n      dup2\n      jump\t// out\n        /* \"Farmer.sol\":93:132  mapping(address => bool) public farmers */\n    tag_90:\n      mstore(0x20, 0x00)\n      dup1\n      0x00\n      mstore\n      keccak256(0x00, 0x40)\n      0x00\n      swap2\n      pop\n      sload\n      swap1\n      0x0100\n      exp\n      swap1\n      div\n      0xff\n      and\n      dup2\n      jump\t// out\n        /* \"Customer.sol\":223:282  mapping(address => CustomerProfile) public customerProfiles */\n    tag_94:\n      mstore(0x20, 0x10)\n      dup1\n      0x00\n      mstore\n      keccak256(0x00, 0x40)\n      0x00\n      swap2\n      pop\n      swap1\n      pop\n      dup1\n      0x00\n      add\n      dup1\n      sload\n      tag_274\n      swap1\n      tag_203\n      jump\t// in\n    tag_274:\n      dup1\n      0x1f\n      add\n      0x20\n      dup1\n      swap2\n      div\n      mul\n      0x20\n      add\n      mload(0x40)\n      swap1\n      dup2\n      add\n      0x40\n      mstore\n      dup1\n      swap3\n      swap2\n      swap1\n      dup2\n      dup2\n      mstore\n      0x20\n      add\n      dup3\n      dup1\n      sload\n      tag_275\n      swap1\n      tag_203\n      jump\t// in\n    tag_275:\n      dup1\n      iszero\n      tag_276\n      jumpi\n      dup1\n      0x1f\n      lt\n      tag_277\n      jumpi\n      0x0100\n      dup1\n      dup4\n      sload\n      div\n      mul\n      dup4\n      mstore\n      swap2\n      0x20\n      add\n      swap2\n      jump(tag_276)\n    tag_277:\n      dup3\n      add\n      swap2\n      swap1\n      0x00\n      mstore\n      keccak256(0x00, 0x20)\n      swap1\n    tag_278:\n      dup2\n      sload\n      dup2\n      mstore\n      swap1\n      0x01\n      add\n      swap1\n      0x20\n      add\n      dup1\n      dup4\n      gt\n      tag_278\n      jumpi\n      dup3\n      swap1\n      sub\n      0x1f\n      and\n      dup3\n      add\n      swap2\n    tag_276:\n      pop\n      pop\n      pop\n      pop\n      pop\n      swap1\n      dup1\n      0x01\n      add\n      dup1\n      sload\n      tag_279\n      swap1\n      tag_203\n      jump\t// in\n    tag_279:\n      dup1\n      0x1f\n      add\n      0x20\n      dup1\n      swap2\n      div\n      mul\n      0x20\n      add\n      mload(0x40)\n      swap1\n      dup2\n      add\n      0x40\n      mstore\n      dup1\n      swap3\n      swap2\n      swap1\n      dup2\n      dup2\n      mstore\n      0x20\n      add\n      dup3\n      dup1\n      sload\n      tag_280\n      swap1\n      tag_203\n      jump\t// in\n    tag_280:\n      dup1\n      iszero\n      tag_281\n      jumpi\n      dup1\n      0x1f\n      lt\n      tag_282\n      jumpi\n      0x0100\n      dup1\n      dup4\n      sload\n      div\n      mul\n      dup4\n      mstore\n      swap2\n      0x20\n      add\n      swap2\n      jump(tag_281)\n    tag_282:\n      dup3\n      add\n      swap2\n      swap1\n      0x00\n      mstore\n      keccak256(0x00, 0x20)\n      swap1\n    tag_283:\n      dup2\n      sload\n      dup2\n      mstore\n      swap1\n      0x01\n      add\n      swap1\n      0x20\n      add\n      dup1\n      dup4\n      gt\n      tag_283\n      jumpi\n      dup3\n      swap1\n      sub\n      0x1f\n      and\n      dup3\n      add\n      swap2\n    tag_281:\n      pop\n      pop\n      pop\n      pop\n      pop\n      swap1\n      dup1\n      0x02\n      add\n      dup1\n      sload\n      tag_284\n      swap1\n      tag_203\n      jump\t// in\n    tag_284:\n      dup1\n      0x1f\n      add\n      0x20\n      dup1\n      swap2\n      div\n      mul\n      0x20\n      add\n      mload(0x40)\n      swap1\n      dup2\n      add\n      0x40\n      mstore\n      dup1\n      swap3\n      swap2\n      swap1\n      dup2\n      dup2\n      mstore\n      0x20\n      add\n      dup3\n      dup1\n      sload\n      tag_285\n      swap1\n      tag_203\n      jump\t// in\n    tag_285:\n      dup1\n      iszero\n      tag_286\n      jumpi\n      dup1\n      0x1f\n      lt\n      tag_287\n      jumpi\n      0x0100\n      dup1\n      dup4\n      sload\n      div\n      mul\n      dup4\n      mstore\n      swap2\n      0x20\n      add\n      swap2\n      jump(tag_286)\n    tag_287:\n      dup3\n      add\n      swap2\n      swap1\n      0x00\n      mstore\n      keccak256(0x00, 0x20)\n      swap1\n    tag_288:\n      dup2\n      sload\n      dup2\n      mstore\n      swap1\n      0x01\n      add\n      swap1\n      0x20\n      add\n      dup1\n      dup4\n      gt\n      tag_288\n      jumpi\n      dup3\n      swap1\n      sub\n      0x1f\n      and\n      dup3\n      add\n      swap2\n    tag_286:\n      pop\n      pop\n      pop\n      pop\n      pop\n      swap1\n      pop\n      dup4\n      jump\t// out\n        /* \"Retailer.sol\":794:1147  function registerRetailer(string calldata name, string calldata location, string calldata contact) external {... */\n    tag_98:\n        /* \"Retailer.sol\":922:931  retailers */\n      0x0c\n        /* \"Retailer.sol\":922:943  retailers[msg.sender] */\n      0x00\n        /* \"Retailer.sol\":932:942  msg.sender */\n      caller\n        /* \"Retailer.sol\":922:943  retailers[msg.sender] */\n      0xffffffffffffffffffffffffffffffffffffffff\n      and\n      0xffffffffffffffffffffffffffffffffffffffff\n      and\n      dup2\n      mstore\n      0x20\n      add\n      swap1\n      dup2\n      mstore\n      0x20\n      add\n      0x00\n      keccak256\n      0x00\n      swap1\n      sload\n      swap1\n      0x0100\n      exp\n      swap1\n      div\n      0xff\n      and\n        /* \"Retailer.sol\":921:943  !retailers[msg.sender] */\n      iszero\n        /* \"Retailer.sol\":913:966  require(!retailers[msg.sender], \"Already registered\") */\n      tag_290\n      jumpi\n      mload(0x40)\n      0x08c379a000000000000000000000000000000000000000000000000000000000\n      dup2\n      mstore\n      0x04\n      add\n      tag_291\n      swap1\n      tag_268\n      jump\t// in\n    tag_291:\n      mload(0x40)\n      dup1\n      swap2\n      sub\n      swap1\n      revert\n    tag_290:\n        /* \"Retailer.sol\":1001:1005  true */\n      0x01\n        /* \"Retailer.sol\":977:986  retailers */\n      0x0c\n        /* \"Retailer.sol\":977:998  retailers[msg.sender] */\n      0x00\n        /* \"Retailer.sol\":987:997  msg.sender */\n      caller\n        /* \"Retailer.sol\":977:998  retailers[msg.sender] */\n      0xffffffffffffffffffffffffffffffffffffffff\n      and\n      0xffffffffffffffffffffffffffffffffffffffff\n      and\n      dup2\n      mstore\n      0x20\n      add\n      swap1\n      dup2\n      mstore\n      0x20\n      add\n      0x00\n      keccak256\n      0x00\n        /* \"Retailer.sol\":977:1005  retailers[msg.sender] = true */\n      0x0100\n      exp\n      dup2\n      sload\n      dup2\n      0xff\n      mul\n      not\n      and\n      swap1\n      dup4\n      iszero\n      iszero\n      mul\n      or\n      swap1\n      sstore\n      pop\n        /* \"Retailer.sol\":1047:1087  RetailerProfile(name, location, contact) */\n      mload(0x40)\n      dup1\n      0x60\n      add\n      0x40\n      mstore\n      dup1\n        /* \"Retailer.sol\":1063:1067  name */\n      dup8\n      dup8\n        /* \"Retailer.sol\":1047:1087  RetailerProfile(name, location, contact) */\n      dup1\n      dup1\n      0x1f\n      add\n      0x20\n      dup1\n      swap2\n      div\n      mul\n      0x20\n      add\n      mload(0x40)\n      swap1\n      dup2\n      add\n      0x40\n      mstore\n      dup1\n      swap4\n      swap3\n      swap2\n      swap1\n      dup2\n      dup2\n      mstore\n      0x20\n      add\n      dup4\n      dup4\n      dup1\n      dup3\n      dup5\n      calldatacopy\n      0x00\n      dup2\n      dup5\n      add\n      mstore\n      not(0x1f)\n      0x1f\n      dup3\n      add\n      and\n      swap1\n      pop\n      dup1\n      dup4\n      add\n      swap3\n      pop\n      pop\n      pop\n      pop\n      pop\n      pop\n      pop\n      dup2\n      mstore\n      0x20\n      add\n        /* \"Retailer.sol\":1069:1077  location */\n      dup6\n      dup6\n        /* \"Retailer.sol\":1047:1087  RetailerProfile(name, location, contact) */\n      dup1\n      dup1\n      0x1f\n      add\n      0x20\n      dup1\n      swap2\n      div\n      mul\n      0x20\n      add\n      mload(0x40)\n      swap1\n      dup2\n      add\n      0x40\n      mstore\n      dup1\n      swap4\n      swap3\n      swap2\n      swap1\n      dup2\n      dup2\n      mstore\n      0x20\n      add\n      dup4\n      dup4\n      dup1\n      dup3\n      dup5\n      calldatacopy\n      0x00\n      dup2\n      dup5\n      add\n      mstore\n      not(0x1f)\n      0x1f\n      dup3\n      add\n      and\n      swap1\n      pop\n      dup1\n      dup4\n      add\n      swap3\n      pop\n      pop\n      pop\n      pop\n      pop\n      pop\n      pop\n      dup2\n      mstore\n      0x20\n      add\n        /* \"Retailer.sol\":1079:1086  contact */\n      dup4\n      dup4\n        /* \"Retailer.sol\":1047:1087  RetailerProfile(name, location, contact) */\n      dup1\n      dup1\n      0x1f\n      add\n      0x20\n      dup1\n      swap2\n      div\n      mul\n      0x20\n      add\n      mload(0x40)\n      swap1\n      dup2\n      add\n      0x40\n      mstore\n      dup1\n      swap4\n      swap3\n      swap2\n      swap1\n      dup2\n      dup2\n      mstore\n      0x20\n      add\n      dup4\n      dup4\n      dup1\n      dup3\n      dup5\n      calldatacopy\n      0x00\n      dup2\n      dup5\n      add\n      mstore\n      not(0x1f)\n      0x1f\n      dup3\n      add\n      and\n      swap1\n      pop\n      dup1\n      dup4\n      add\n      swap3\n      pop\n      pop\n      pop\n      pop\n      pop\n      pop\n      pop\n      dup2\n      mstore\n      pop\n        /* \"Retailer.sol\":1016:1032  retailerProfiles */\n      0x0d\n        /* \"Retailer.sol\":1016:1044  retailerProfiles[msg.sender] */\n      0x00\n        /* \"Retailer.sol\":1033:1043  msg.sender */\n      caller\n        /* \"Retailer.sol\":1016:1044  retailerProfiles[msg.sender] */\n      0xffffffffffffffffffffffffffffffffffffffff\n      and\n      0xffffffffffffffffffffffffffffffffffffffff\n      and\n      dup2\n      mstore\n      0x20\n      add\n      swap1\n      dup2\n      mstore\n      0x20\n      add\n      0x00\n      keccak256\n        /* \"Retailer.sol\":1016:1087  retailerProfiles[msg.sender] = RetailerProfile(name, location, contact) */\n      0x00\n      dup3\n      add\n      mload\n      dup2\n      0x00\n      add\n      swap1\n      dup2\n      tag_292\n      swap2\n      swap1\n      tag_230\n      jump\t// in\n    tag_292:\n      pop\n      0x20\n      dup3\n      add\n      mload\n      dup2\n      0x01\n      add\n      swap1\n      dup2\n      tag_293\n      swap2\n      swap1\n      tag_230\n      jump\t// in\n    tag_293:\n      pop\n      0x40\n      dup3\n      add\n      mload\n      dup2\n      0x02\n      add\n      swap1\n      dup2\n      tag_294\n      swap2\n      swap1\n      tag_230\n      jump\t// in\n    tag_294:\n      pop\n      swap1\n      pop\n      pop\n        /* \"Retailer.sol\":1103:1139  RetailerRegistered(msg.sender, name) */\n      0xc6b3a3cb893680baef98e6f2f73e2f33a36a14eaea0ba521451d6547ba362b62\n        /* \"Retailer.sol\":1122:1132  msg.sender */\n      caller\n        /* \"Retailer.sol\":1134:1138  name */\n      dup8\n      dup8\n        /* \"Retailer.sol\":1103:1139  RetailerRegistered(msg.sender, name) */\n      mload(0x40)\n      tag_295\n      swap4\n      swap3\n      swap2\n      swap1\n      tag_273\n      jump\t// in\n    tag_295:\n      mload(0x40)\n      dup1\n      swap2\n      sub\n      swap1\n      log1\n        /* \"Retailer.sol\":794:1147  function registerRetailer(string calldata name, string calldata location, string calldata contact) external {... */\n      pop\n      pop\n      pop\n      pop\n      pop\n      pop\n      jump\t// out\n        /* \"TrackSupplyChain.sol\":1659:2036  function getFreshness(uint256 _productId)... */\n    tag_102:\n        /* \"TrackSupplyChain.sol\":1763:1779  uint256 gasValue */\n      0x00\n        /* \"TrackSupplyChain.sol\":1794:1813  uint256 temperature */\n      0x00\n        /* \"TrackSupplyChain.sol\":1828:1844  uint256 humidity */\n      0x00\n        /* \"TrackSupplyChain.sol\":1859:1876  uint256 timestamp */\n      0x00\n        /* \"TrackSupplyChain.sol\":1904:1927  FreshnessData storage f */\n      0x00\n        /* \"TrackSupplyChain.sol\":1930:1946  productFreshness */\n      0x13\n        /* \"TrackSupplyChain.sol\":1930:1958  productFreshness[_productId] */\n      0x00\n        /* \"TrackSupplyChain.sol\":1947:1957  _productId */\n      dup8\n        /* \"TrackSupplyChain.sol\":1930:1958  productFreshness[_productId] */\n      dup2\n      mstore\n      0x20\n      add\n      swap1\n      dup2\n      mstore\n      0x20\n      add\n      0x00\n      keccak256\n        /* \"TrackSupplyChain.sol\":1904:1958  FreshnessData storage f = productFreshness[_productId] */\n      swap1\n      pop\n        /* \"TrackSupplyChain.sol\":1977:1978  f */\n      dup1\n        /* \"TrackSupplyChain.sol\":1977:1987  f.gasValue */\n      0x00\n      add\n      sload\n        /* \"TrackSupplyChain.sol\":1989:1990  f */\n      dup2\n        /* \"TrackSupplyChain.sol\":1989:2002  f.temperature */\n      0x01\n      add\n      sload\n        /* \"TrackSupplyChain.sol\":2004:2005  f */\n      dup3\n        /* \"TrackSupplyChain.sol\":2004:2014  f.humidity */\n      0x02\n      add\n      sload\n        /* \"TrackSupplyChain.sol\":2016:2017  f */\n      dup4\n        /* \"TrackSupplyChain.sol\":2016:2027  f.timestamp */\n      0x03\n      add\n      sload\n        /* \"TrackSupplyChain.sol\":1969:2028  return (f.gasValue, f.temperature, f.humidity, f.timestamp) */\n      swap5\n      pop\n      swap5\n      pop\n      swap5\n      pop\n      swap5\n      pop\n      pop\n        /* \"TrackSupplyChain.sol\":1659:2036  function getFreshness(uint256 _productId)... */\n      swap2\n      swap4\n      pop\n      swap2\n      swap4\n      jump\t// out\n        /* \"Retailer.sol\":1424:1777  function retailerTransferToConsumer(bytes32 cropID, address consumer, string calldata transferDate) external onlyRetailer {... */\n    tag_108:\n        /* \"Retailer.sol\":741:750  retailers */\n      0x0c\n        /* \"Retailer.sol\":741:762  retailers[msg.sender] */\n      0x00\n        /* \"Retailer.sol\":751:761  msg.sender */\n      caller\n        /* \"Retailer.sol\":741:762  retailers[msg.sender] */\n      0xffffffffffffffffffffffffffffffffffffffff\n      and\n      0xffffffffffffffffffffffffffffffffffffffff\n      and\n      dup2\n      mstore\n      0x20\n      add\n      swap1\n      dup2\n      mstore\n      0x20\n      add\n      0x00\n      keccak256\n      0x00\n      swap1\n      sload\n      swap1\n      0x0100\n      exp\n      swap1\n      div\n      0xff\n      and\n        /* \"Retailer.sol\":733:780  require(retailers[msg.sender], \"Only retailer\") */\n      tag_298\n      jumpi\n      mload(0x40)\n      0x08c379a000000000000000000000000000000000000000000000000000000000\n      dup2\n      mstore\n      0x04\n      add\n      tag_299\n      swap1\n      tag_300\n      jump\t// in\n    tag_299:\n      mload(0x40)\n      dup1\n      swap2\n      sub\n      swap1\n      revert\n    tag_298:\n        /* \"Retailer.sol\":1591:1601  msg.sender */\n      caller\n        /* \"Retailer.sol\":1565:1601  retails[cropID].holder == msg.sender */\n      0xffffffffffffffffffffffffffffffffffffffff\n      and\n        /* \"Retailer.sol\":1565:1572  retails */\n      0x0e\n        /* \"Retailer.sol\":1565:1580  retails[cropID] */\n      0x00\n        /* \"Retailer.sol\":1573:1579  cropID */\n      dup7\n        /* \"Retailer.sol\":1565:1580  retails[cropID] */\n      dup2\n      mstore\n      0x20\n      add\n      swap1\n      dup2\n      mstore\n      0x20\n      add\n      0x00\n      keccak256\n        /* \"Retailer.sol\":1565:1587  retails[cropID].holder */\n      0x04\n      add\n      0x00\n      swap1\n      sload\n      swap1\n      0x0100\n      exp\n      swap1\n      div\n      0xffffffffffffffffffffffffffffffffffffffff\n      and\n        /* \"Retailer.sol\":1565:1601  retails[cropID].holder == msg.sender */\n      0xffffffffffffffffffffffffffffffffffffffff\n      and\n      eq\n        /* \"Retailer.sol\":1557:1616  require(retails[cropID].holder == msg.sender, \"Not holder\") */\n      tag_302\n      jumpi\n      mload(0x40)\n      0x08c379a000000000000000000000000000000000000000000000000000000000\n      dup2\n      mstore\n      0x04\n      add\n      tag_303\n      swap1\n      tag_304\n      jump\t// in\n    tag_303:\n      mload(0x40)\n      dup1\n      swap2\n      sub\n      swap1\n      revert\n    tag_302:\n        /* \"Retailer.sol\":1652:1660  consumer */\n      dup3\n        /* \"Retailer.sol\":1627:1634  retails */\n      0x0e\n        /* \"Retailer.sol\":1627:1642  retails[cropID] */\n      0x00\n        /* \"Retailer.sol\":1635:1641  cropID */\n      dup7\n        /* \"Retailer.sol\":1627:1642  retails[cropID] */\n      dup2\n      mstore\n      0x20\n      add\n      swap1\n      dup2\n      mstore\n      0x20\n      add\n      0x00\n      keccak256\n        /* \"Retailer.sol\":1627:1649  retails[cropID].holder */\n      0x04\n      add\n      0x00\n        /* \"Retailer.sol\":1627:1660  retails[cropID].holder = consumer */\n      0x0100\n      exp\n      dup2\n      sload\n      dup2\n      0xffffffffffffffffffffffffffffffffffffffff\n      mul\n      not\n      and\n      swap1\n      dup4\n      0xffffffffffffffffffffffffffffffffffffffff\n      and\n      mul\n      or\n      swap1\n      sstore\n      pop\n        /* \"Retailer.sol\":1702:1714  transferDate */\n      dup2\n      dup2\n        /* \"Retailer.sol\":1671:1678  retails */\n      0x0e\n        /* \"Retailer.sol\":1671:1686  retails[cropID] */\n      0x00\n        /* \"Retailer.sol\":1679:1685  cropID */\n      dup8\n        /* \"Retailer.sol\":1671:1686  retails[cropID] */\n      dup2\n      mstore\n      0x20\n      add\n      swap1\n      dup2\n      mstore\n      0x20\n      add\n      0x00\n      keccak256\n        /* \"Retailer.sol\":1671:1699  retails[cropID].transferDate */\n      0x03\n      add\n        /* \"Retailer.sol\":1671:1714  retails[cropID].transferDate = transferDate */\n      swap2\n      dup3\n      tag_305\n      swap3\n      swap2\n      swap1\n      tag_262\n      jump\t// in\n    tag_305:\n      pop\n        /* \"Retailer.sol\":1730:1769  TransferredToConsumer(cropID, consumer) */\n      0x02666d7b1655588adc2208a66dd88260cfd5b9c5c38aecf90e5170371cfa4f19\n        /* \"Retailer.sol\":1752:1758  cropID */\n      dup5\n        /* \"Retailer.sol\":1760:1768  consumer */\n      dup5\n        /* \"Retailer.sol\":1730:1769  TransferredToConsumer(cropID, consumer) */\n      mload(0x40)\n      tag_306\n      swap3\n      swap2\n      swap1\n      tag_307\n      jump\t// in\n    tag_306:\n      mload(0x40)\n      dup1\n      swap2\n      sub\n      swap1\n      log1\n        /* \"Retailer.sol\":1424:1777  function retailerTransferToConsumer(bytes32 cropID, address consumer, string calldata transferDate) external onlyRetailer {... */\n      pop\n      pop\n      pop\n      pop\n      jump\t// out\n        /* \"Customer.sol\":1078:1366  function consumerConfirmPurchase(bytes32 cropID, bool _purchased, string calldata _feedback, string calldata _date) external onlyConsumer {... */\n    tag_112:\n        /* \"Customer.sol\":664:673  customers */\n      0x0f\n        /* \"Customer.sol\":664:685  customers[msg.sender] */\n      0x00\n        /* \"Customer.sol\":674:684  msg.sender */\n      caller\n        /* \"Customer.sol\":664:685  customers[msg.sender] */\n      0xffffffffffffffffffffffffffffffffffffffff\n      and\n      0xffffffffffffffffffffffffffffffffffffffff\n      and\n      dup2\n      mstore\n      0x20\n      add\n      swap1\n      dup2\n      mstore\n      0x20\n      add\n      0x00\n      keccak256\n      0x00\n      swap1\n      sload\n      swap1\n      0x0100\n      exp\n      swap1\n      div\n      0xff\n      and\n        /* \"Customer.sol\":656:703  require(customers[msg.sender], \"Only customer\") */\n      tag_309\n      jumpi\n      mload(0x40)\n      0x08c379a000000000000000000000000000000000000000000000000000000000\n      dup2\n      mstore\n      0x04\n      add\n      tag_310\n      swap1\n      tag_311\n      jump\t// in\n    tag_310:\n      mload(0x40)\n      dup1\n      swap2\n      sub\n      swap1\n      revert\n    tag_309:\n        /* \"Customer.sol\":1247:1305  Purchase(cropID, _purchased, _feedback, _date, msg.sender) */\n      mload(0x40)\n      dup1\n      0xa0\n      add\n      0x40\n      mstore\n      dup1\n        /* \"Customer.sol\":1256:1262  cropID */\n      dup8\n        /* \"Customer.sol\":1247:1305  Purchase(cropID, _purchased, _feedback, _date, msg.sender) */\n      dup2\n      mstore\n      0x20\n      add\n        /* \"Customer.sol\":1264:1274  _purchased */\n      dup7\n        /* \"Customer.sol\":1247:1305  Purchase(cropID, _purchased, _feedback, _date, msg.sender) */\n      iszero\n      iszero\n      dup2\n      mstore\n      0x20\n      add\n        /* \"Customer.sol\":1276:1285  _feedback */\n      dup6\n      dup6\n        /* \"Customer.sol\":1247:1305  Purchase(cropID, _purchased, _feedback, _date, msg.sender) */\n      dup1\n      dup1\n      0x1f\n      add\n      0x20\n      dup1\n      swap2\n      div\n      mul\n      0x20\n      add\n      mload(0x40)\n      swap1\n      dup2\n      add\n      0x40\n      mstore\n      dup1\n      swap4\n      swap3\n      swap2\n      swap1\n      dup2\n      dup2\n      mstore\n      0x20\n      add\n      dup4\n      dup4\n      dup1\n      dup3\n      dup5\n      calldatacopy\n      0x00\n      dup2\n      dup5\n      add\n      mstore\n      not(0x1f)\n      0x1f\n      dup3\n      add\n      and\n      swap1\n      pop\n      dup1\n      dup4\n      add\n      swap3\n      pop\n      pop\n      pop\n      pop\n      pop\n      pop\n      pop\n      dup2\n      mstore\n      0x20\n      add\n        /* \"Customer.sol\":1287:1292  _date */\n      dup4\n      dup4\n        /* \"Customer.sol\":1247:1305  Purchase(cropID, _purchased, _feedback, _date, msg.sender) */\n      dup1\n      dup1\n      0x1f\n      add\n      0x20\n      dup1\n      swap2\n      div\n      mul\n      0x20\n      add\n      mload(0x40)\n      swap1\n      dup2\n      add\n      0x40\n      mstore\n      dup1\n      swap4\n      swap3\n      swap2\n      swap1\n      dup2\n      dup2\n      mstore\n      0x20\n      add\n      dup4\n      dup4\n      dup1\n      dup3\n      dup5\n      calldatacopy\n      0x00\n      dup2\n      dup5\n      add\n      mstore\n      not(0x1f)\n      0x1f\n      dup3\n      add\n      and\n      swap1\n      pop\n      dup1\n      dup4\n      add\n      swap3\n      pop\n      pop\n      pop\n      pop\n      pop\n      pop\n      pop\n      dup2\n      mstore\n      0x20\n      add\n        /* \"Customer.sol\":1294:1304  msg.sender */\n      caller\n        /* \"Customer.sol\":1247:1305  Purchase(cropID, _purchased, _feedback, _date, msg.sender) */\n      0xffffffffffffffffffffffffffffffffffffffff\n      and\n      dup2\n      mstore\n      pop\n        /* \"Customer.sol\":1227:1236  purchases */\n      0x11\n        /* \"Customer.sol\":1227:1244  purchases[cropID] */\n      0x00\n        /* \"Customer.sol\":1237:1243  cropID */\n      dup9\n        /* \"Customer.sol\":1227:1244  purchases[cropID] */\n      dup2\n      mstore\n      0x20\n      add\n      swap1\n      dup2\n      mstore\n      0x20\n      add\n      0x00\n      keccak256\n        /* \"Customer.sol\":1227:1305  purchases[cropID] = Purchase(cropID, _purchased, _feedback, _date, msg.sender) */\n      0x00\n      dup3\n      add\n      mload\n      dup2\n      0x00\n      add\n      sstore\n      0x20\n      dup3\n      add\n      mload\n      dup2\n      0x01\n      add\n      exp(0x0100, 0x00)\n      dup2\n      sload\n      dup2\n      0xff\n      mul\n      not\n      and\n      swap1\n      dup4\n      iszero\n      iszero\n      mul\n      or\n      swap1\n      sstore\n      pop\n      0x40\n      dup3\n      add\n      mload\n      dup2\n      0x02\n      add\n      swap1\n      dup2\n      tag_313\n      swap2\n      swap1\n      tag_230\n      jump\t// in\n    tag_313:\n      pop\n      0x60\n      dup3\n      add\n      mload\n      dup2\n      0x03\n      add\n      swap1\n      dup2\n      tag_314\n      swap2\n      swap1\n      tag_230\n      jump\t// in\n    tag_314:\n      pop\n      0x80\n      dup3\n      add\n      mload\n      dup2\n      0x04\n      add\n      exp(0x0100, 0x00)\n      dup2\n      sload\n      dup2\n      0xffffffffffffffffffffffffffffffffffffffff\n      mul\n      not\n      and\n      swap1\n      dup4\n      0xffffffffffffffffffffffffffffffffffffffff\n      and\n      mul\n      or\n      swap1\n      sstore\n      pop\n      swap1\n      pop\n      pop\n        /* \"Customer.sol\":1321:1358  PurchaseConfirmed(cropID, msg.sender) */\n      0x9712bb7e105b124f0cc3f0585e06a1950de77a678ebaec3506656b363733eb5e\n        /* \"Customer.sol\":1339:1345  cropID */\n      dup7\n        /* \"Customer.sol\":1347:1357  msg.sender */\n      caller\n        /* \"Customer.sol\":1321:1358  PurchaseConfirmed(cropID, msg.sender) */\n      mload(0x40)\n      tag_315\n      swap3\n      swap2\n      swap1\n      tag_307\n      jump\t// in\n    tag_315:\n      mload(0x40)\n      dup1\n      swap2\n      sub\n      swap1\n      log1\n        /* \"Customer.sol\":1078:1366  function consumerConfirmPurchase(bytes32 cropID, bool _purchased, string calldata _feedback, string calldata _date) external onlyConsumer {... */\n      pop\n      pop\n      pop\n      pop\n      pop\n      pop\n      jump\t// out\n        /* \"Retailer.sol\":1155:1416  function retailerReceiveFromAggregator(bytes32 cropID, uint retailPrice, string calldata date) external onlyRetailer {... */\n    tag_116:\n        /* \"Retailer.sol\":741:750  retailers */\n      0x0c\n        /* \"Retailer.sol\":741:762  retailers[msg.sender] */\n      0x00\n        /* \"Retailer.sol\":751:761  msg.sender */\n      caller\n        /* \"Retailer.sol\":741:762  retailers[msg.sender] */\n      0xffffffffffffffffffffffffffffffffffffffff\n      and\n      0xffffffffffffffffffffffffffffffffffffffff\n      and\n      dup2\n      mstore\n      0x20\n      add\n      swap1\n      dup2\n      mstore\n      0x20\n      add\n      0x00\n      keccak256\n      0x00\n      swap1\n      sload\n      swap1\n      0x0100\n      exp\n      swap1\n      div\n      0xff\n      and\n        /* \"Retailer.sol\":733:780  require(retailers[msg.sender], \"Only retailer\") */\n      tag_317\n      jumpi\n      mload(0x40)\n      0x08c379a000000000000000000000000000000000000000000000000000000000\n      dup2\n      mstore\n      0x04\n      add\n      tag_318\n      swap1\n      tag_300\n      jump\t// in\n    tag_318:\n      mload(0x40)\n      dup1\n      swap2\n      sub\n      swap1\n      revert\n    tag_317:\n        /* \"Retailer.sol\":1301:1350  Retail(cropID, retailPrice, date, \"\", msg.sender) */\n      mload(0x40)\n      dup1\n      0xa0\n      add\n      0x40\n      mstore\n      dup1\n        /* \"Retailer.sol\":1308:1314  cropID */\n      dup6\n        /* \"Retailer.sol\":1301:1350  Retail(cropID, retailPrice, date, \"\", msg.sender) */\n      dup2\n      mstore\n      0x20\n      add\n        /* \"Retailer.sol\":1316:1327  retailPrice */\n      dup5\n        /* \"Retailer.sol\":1301:1350  Retail(cropID, retailPrice, date, \"\", msg.sender) */\n      dup2\n      mstore\n      0x20\n      add\n        /* \"Retailer.sol\":1329:1333  date */\n      dup4\n      dup4\n        /* \"Retailer.sol\":1301:1350  Retail(cropID, retailPrice, date, \"\", msg.sender) */\n      dup1\n      dup1\n      0x1f\n      add\n      0x20\n      dup1\n      swap2\n      div\n      mul\n      0x20\n      add\n      mload(0x40)\n      swap1\n      dup2\n      add\n      0x40\n      mstore\n      dup1\n      swap4\n      swap3\n      swap2\n      swap1\n      dup2\n      dup2\n      mstore\n      0x20\n      add\n      dup4\n      dup4\n      dup1\n      dup3\n      dup5\n      calldatacopy\n      0x00\n      dup2\n      dup5\n      add\n      mstore\n      not(0x1f)\n      0x1f\n      dup3\n      add\n      and\n      swap1\n      pop\n      dup1\n      dup4\n      add\n      swap3\n      pop\n      pop\n      pop\n      pop\n      pop\n      pop\n      pop\n      dup2\n      mstore\n      0x20\n      add\n      mload(0x40)\n      dup1\n      0x20\n      add\n      0x40\n      mstore\n      dup1\n      0x00\n      dup2\n      mstore\n      pop\n      dup2\n      mstore\n      0x20\n      add\n        /* \"Retailer.sol\":1339:1349  msg.sender */\n      caller\n        /* \"Retailer.sol\":1301:1350  Retail(cropID, retailPrice, date, \"\", msg.sender) */\n      0xffffffffffffffffffffffffffffffffffffffff\n      and\n      dup2\n      mstore\n      pop\n        /* \"Retailer.sol\":1283:1290  retails */\n      0x0e\n        /* \"Retailer.sol\":1283:1298  retails[cropID] */\n      0x00\n        /* \"Retailer.sol\":1291:1297  cropID */\n      dup7\n        /* \"Retailer.sol\":1283:1298  retails[cropID] */\n      dup2\n      mstore\n      0x20\n      add\n      swap1\n      dup2\n      mstore\n      0x20\n      add\n      0x00\n      keccak256\n        /* \"Retailer.sol\":1283:1350  retails[cropID] = Retail(cropID, retailPrice, date, \"\", msg.sender) */\n      0x00\n      dup3\n      add\n      mload\n      dup2\n      0x00\n      add\n      sstore\n      0x20\n      dup3\n      add\n      mload\n      dup2\n      0x01\n      add\n      sstore\n      0x40\n      dup3\n      add\n      mload\n      dup2\n      0x02\n      add\n      swap1\n      dup2\n      tag_320\n      swap2\n      swap1\n      tag_230\n      jump\t// in\n    tag_320:\n      pop\n      0x60\n      dup3\n      add\n      mload\n      dup2\n      0x03\n      add\n      swap1\n      dup2\n      tag_321\n      swap2\n      swap1\n      tag_230\n      jump\t// in\n    tag_321:\n      pop\n      0x80\n      dup3\n      add\n      mload\n      dup2\n      0x04\n      add\n      exp(0x0100, 0x00)\n      dup2\n      sload\n      dup2\n      0xffffffffffffffffffffffffffffffffffffffff\n      mul\n      not\n      and\n      swap1\n      dup4\n      0xffffffffffffffffffffffffffffffffffffffff\n      and\n      mul\n      or\n      swap1\n      sstore\n      pop\n      swap1\n      pop\n      pop\n        /* \"Retailer.sol\":1366:1408  ReceivedFromAggregator(cropID, msg.sender) */\n      0xdce449d7850ca6bef609273e8c07c207f37e3df3d879cd8b431342eb623d20fe\n        /* \"Retailer.sol\":1389:1395  cropID */\n      dup5\n        /* \"Retailer.sol\":1397:1407  msg.sender */\n      caller\n        /* \"Retailer.sol\":1366:1408  ReceivedFromAggregator(cropID, msg.sender) */\n      mload(0x40)\n      tag_322\n      swap3\n      swap2\n      swap1\n      tag_307\n      jump\t// in\n    tag_322:\n      mload(0x40)\n      dup1\n      swap2\n      sub\n      swap1\n      log1\n        /* \"Retailer.sol\":1155:1416  function retailerReceiveFromAggregator(bytes32 cropID, uint retailPrice, string calldata date) external onlyRetailer {... */\n      pop\n      pop\n      pop\n      pop\n      jump\t// out\n        /* \"TrackSupplyChain.sol\":502:559  mapping(uint256 => FreshnessData) public productFreshness */\n    tag_119:\n      mstore(0x20, 0x13)\n      dup1\n      0x00\n      mstore\n      keccak256(0x00, 0x40)\n      0x00\n      swap2\n      pop\n      swap1\n      pop\n      dup1\n      0x00\n      add\n      sload\n      swap1\n      dup1\n      0x01\n      add\n      sload\n      swap1\n      dup1\n      0x02\n      add\n      sload\n      swap1\n      dup1\n      0x03\n      add\n      sload\n      swap1\n      pop\n      dup5\n      jump\t// out\n        /* \"Supplier.sol\":1431:1811  function supplierTransferToAggregator(bytes32 cropID, address aggregator, string calldata transferDate) external onlySupplier {... */\n    tag_123:\n        /* \"Supplier.sol\":751:760  suppliers */\n      0x06\n        /* \"Supplier.sol\":751:772  suppliers[msg.sender] */\n      0x00\n        /* \"Supplier.sol\":761:771  msg.sender */\n      caller\n        /* \"Supplier.sol\":751:772  suppliers[msg.sender] */\n      0xffffffffffffffffffffffffffffffffffffffff\n      and\n      0xffffffffffffffffffffffffffffffffffffffff\n      and\n      dup2\n      mstore\n      0x20\n      add\n      swap1\n      dup2\n      mstore\n      0x20\n      add\n      0x00\n      keccak256\n      0x00\n      swap1\n      sload\n      swap1\n      0x0100\n      exp\n      swap1\n      div\n      0xff\n      and\n        /* \"Supplier.sol\":743:790  require(suppliers[msg.sender], \"Only supplier\") */\n      tag_324\n      jumpi\n      mload(0x40)\n      0x08c379a000000000000000000000000000000000000000000000000000000000\n      dup2\n      mstore\n      0x04\n      add\n      tag_325\n      swap1\n      tag_326\n      jump\t// in\n    tag_325:\n      mload(0x40)\n      dup1\n      swap2\n      sub\n      swap1\n      revert\n    tag_324:\n        /* \"Supplier.sol\":1610:1620  msg.sender */\n      caller\n        /* \"Supplier.sol\":1576:1620  supplies[cropID].currentHolder == msg.sender */\n      0xffffffffffffffffffffffffffffffffffffffff\n      and\n        /* \"Supplier.sol\":1576:1584  supplies */\n      0x08\n        /* \"Supplier.sol\":1576:1592  supplies[cropID] */\n      0x00\n        /* \"Supplier.sol\":1585:1591  cropID */\n      dup7\n        /* \"Supplier.sol\":1576:1592  supplies[cropID] */\n      dup2\n      mstore\n      0x20\n      add\n      swap1\n      dup2\n      mstore\n      0x20\n      add\n      0x00\n      keccak256\n        /* \"Supplier.sol\":1576:1606  supplies[cropID].currentHolder */\n      0x04\n      add\n      0x00\n      swap1\n      sload\n      swap1\n      0x0100\n      exp\n      swap1\n      div\n      0xffffffffffffffffffffffffffffffffffffffff\n      and\n        /* \"Supplier.sol\":1576:1620  supplies[cropID].currentHolder == msg.sender */\n      0xffffffffffffffffffffffffffffffffffffffff\n      and\n      eq\n        /* \"Supplier.sol\":1568:1635  require(supplies[cropID].currentHolder == msg.sender, \"Not holder\") */\n      tag_328\n      jumpi\n      mload(0x40)\n      0x08c379a000000000000000000000000000000000000000000000000000000000\n      dup2\n      mstore\n      0x04\n      add\n      tag_329\n      swap1\n      tag_304\n      jump\t// in\n    tag_329:\n      mload(0x40)\n      dup1\n      swap2\n      sub\n      swap1\n      revert\n    tag_328:\n        /* \"Supplier.sol\":1679:1689  aggregator */\n      dup3\n        /* \"Supplier.sol\":1646:1654  supplies */\n      0x08\n        /* \"Supplier.sol\":1646:1662  supplies[cropID] */\n      0x00\n        /* \"Supplier.sol\":1655:1661  cropID */\n      dup7\n        /* \"Supplier.sol\":1646:1662  supplies[cropID] */\n      dup2\n      mstore\n      0x20\n      add\n      swap1\n      dup2\n      mstore\n      0x20\n      add\n      0x00\n      keccak256\n        /* \"Supplier.sol\":1646:1676  supplies[cropID].currentHolder */\n      0x04\n      add\n      0x00\n        /* \"Supplier.sol\":1646:1689  supplies[cropID].currentHolder = aggregator */\n      0x0100\n      exp\n      dup2\n      sload\n      dup2\n      0xffffffffffffffffffffffffffffffffffffffff\n      mul\n      not\n      and\n      swap1\n      dup4\n      0xffffffffffffffffffffffffffffffffffffffff\n      and\n      mul\n      or\n      swap1\n      sstore\n      pop\n        /* \"Supplier.sol\":1732:1744  transferDate */\n      dup2\n      dup2\n        /* \"Supplier.sol\":1700:1708  supplies */\n      0x08\n        /* \"Supplier.sol\":1700:1716  supplies[cropID] */\n      0x00\n        /* \"Supplier.sol\":1709:1715  cropID */\n      dup8\n        /* \"Supplier.sol\":1700:1716  supplies[cropID] */\n      dup2\n      mstore\n      0x20\n      add\n      swap1\n      dup2\n      mstore\n      0x20\n      add\n      0x00\n      keccak256\n        /* \"Supplier.sol\":1700:1729  supplies[cropID].transferDate */\n      0x03\n      add\n        /* \"Supplier.sol\":1700:1744  supplies[cropID].transferDate = transferDate */\n      swap2\n      dup3\n      tag_330\n      swap3\n      swap2\n      swap1\n      tag_262\n      jump\t// in\n    tag_330:\n      pop\n        /* \"Supplier.sol\":1760:1803  TransferredToAggregator(cropID, aggregator) */\n      0x49e75bcd87d6285773e5c15db6c81bb4d20bd0f6498faba00160e92b9c478654\n        /* \"Supplier.sol\":1784:1790  cropID */\n      dup5\n        /* \"Supplier.sol\":1792:1802  aggregator */\n      dup5\n        /* \"Supplier.sol\":1760:1803  TransferredToAggregator(cropID, aggregator) */\n      mload(0x40)\n      tag_331\n      swap3\n      swap2\n      swap1\n      tag_307\n      jump\t// in\n    tag_331:\n      mload(0x40)\n      dup1\n      swap2\n      sub\n      swap1\n      log1\n        /* \"Supplier.sol\":1431:1811  function supplierTransferToAggregator(bytes32 cropID, address aggregator, string calldata transferDate) external onlySupplier {... */\n      pop\n      pop\n      pop\n      pop\n      jump\t// out\n        /* \"Aggregator.sol\":1876:2230  function aggregatorTransferToRetailer(bytes32 cropID, address retailer, string calldata transferDate) external onlyAggregator {... */\n    tag_126:\n        /* \"Aggregator.sol\":885:896  aggregators */\n      0x09\n        /* \"Aggregator.sol\":885:908  aggregators[msg.sender] */\n      0x00\n        /* \"Aggregator.sol\":897:907  msg.sender */\n      caller\n        /* \"Aggregator.sol\":885:908  aggregators[msg.sender] */\n      0xffffffffffffffffffffffffffffffffffffffff\n      and\n      0xffffffffffffffffffffffffffffffffffffffff\n      and\n      dup2\n      mstore\n      0x20\n      add\n      swap1\n      dup2\n      mstore\n      0x20\n      add\n      0x00\n      keccak256\n      0x00\n      swap1\n      sload\n      swap1\n      0x0100\n      exp\n      swap1\n      div\n      0xff\n      and\n        /* \"Aggregator.sol\":877:928  require(aggregators[msg.sender], \"Only aggregator\") */\n      tag_333\n      jumpi\n      mload(0x40)\n      0x08c379a000000000000000000000000000000000000000000000000000000000\n      dup2\n      mstore\n      0x04\n      add\n      tag_334\n      swap1\n      tag_256\n      jump\t// in\n    tag_334:\n      mload(0x40)\n      dup1\n      swap2\n      sub\n      swap1\n      revert\n    tag_333:\n        /* \"Aggregator.sol\":2021:2028  batches */\n      0x0b\n        /* \"Aggregator.sol\":2021:2036  batches[cropID] */\n      0x00\n        /* \"Aggregator.sol\":2029:2035  cropID */\n      dup6\n        /* \"Aggregator.sol\":2021:2036  batches[cropID] */\n      dup2\n      mstore\n      0x20\n      add\n      swap1\n      dup2\n      mstore\n      0x20\n      add\n      0x00\n      keccak256\n        /* \"Aggregator.sol\":2021:2045  batches[cropID].received */\n      0x01\n      add\n      0x00\n      swap1\n      sload\n      swap1\n      0x0100\n      exp\n      swap1\n      div\n      0xff\n      and\n        /* \"Aggregator.sol\":2013:2062  require(batches[cropID].received, \"Not received\") */\n      tag_336\n      jumpi\n      mload(0x40)\n      0x08c379a000000000000000000000000000000000000000000000000000000000\n      dup2\n      mstore\n      0x04\n      add\n      tag_337\n      swap1\n      tag_260\n      jump\t// in\n    tag_337:\n      mload(0x40)\n      dup1\n      swap2\n      sub\n      swap1\n      revert\n    tag_336:\n        /* \"Aggregator.sol\":2105:2113  retailer */\n      dup3\n        /* \"Aggregator.sol\":2073:2080  batches */\n      0x0b\n        /* \"Aggregator.sol\":2073:2088  batches[cropID] */\n      0x00\n        /* \"Aggregator.sol\":2081:2087  cropID */\n      dup7\n        /* \"Aggregator.sol\":2073:2088  batches[cropID] */\n      dup2\n      mstore\n      0x20\n      add\n      swap1\n      dup2\n      mstore\n      0x20\n      add\n      0x00\n      keccak256\n        /* \"Aggregator.sol\":2073:2102  batches[cropID].currentHolder */\n      0x06\n      add\n      0x00\n        /* \"Aggregator.sol\":2073:2113  batches[cropID].currentHolder = retailer */\n      0x0100\n      exp\n      dup2\n      sload\n      dup2\n      0xffffffffffffffffffffffffffffffffffffffff\n      mul\n      not\n      and\n      swap1\n      dup4\n      0xffffffffffffffffffffffffffffffffffffffff\n      and\n      mul\n      or\n      swap1\n      sstore\n      pop\n        /* \"Aggregator.sol\":2155:2167  transferDate */\n      dup2\n      dup2\n        /* \"Aggregator.sol\":2124:2131  batches */\n      0x0b\n        /* \"Aggregator.sol\":2124:2139  batches[cropID] */\n      0x00\n        /* \"Aggregator.sol\":2132:2138  cropID */\n      dup8\n        /* \"Aggregator.sol\":2124:2139  batches[cropID] */\n      dup2\n      mstore\n      0x20\n      add\n      swap1\n      dup2\n      mstore\n      0x20\n      add\n      0x00\n      keccak256\n        /* \"Aggregator.sol\":2124:2152  batches[cropID].transferDate */\n      0x05\n      add\n        /* \"Aggregator.sol\":2124:2167  batches[cropID].transferDate = transferDate */\n      swap2\n      dup3\n      tag_338\n      swap3\n      swap2\n      swap1\n      tag_262\n      jump\t// in\n    tag_338:\n      pop\n        /* \"Aggregator.sol\":2183:2222  TransferredToRetailer(cropID, retailer) */\n      0xebfa8f41a2a15e0e89718bd17a4f728bd822d73550222a896ea5d3cfe2331ecc\n        /* \"Aggregator.sol\":2205:2211  cropID */\n      dup5\n        /* \"Aggregator.sol\":2213:2221  retailer */\n      dup5\n        /* \"Aggregator.sol\":2183:2222  TransferredToRetailer(cropID, retailer) */\n      mload(0x40)\n      tag_339\n      swap3\n      swap2\n      swap1\n      tag_307\n      jump\t// in\n    tag_339:\n      mload(0x40)\n      dup1\n      swap2\n      sub\n      swap1\n      log1\n        /* \"Aggregator.sol\":1876:2230  function aggregatorTransferToRetailer(bytes32 cropID, address retailer, string calldata transferDate) external onlyAggregator {... */\n      pop\n      pop\n      pop\n      pop\n      jump\t// out\n        /* \"Farmer.sol\":1659:1787  function createUniqueCropID(uint seed) public onlyFarmer returns (bytes32) {... */\n    tag_129:\n        /* \"Farmer.sol\":1725:1732  bytes32 */\n      0x00\n        /* \"Farmer.sol\":1006:1013  farmers */\n      0x00\n        /* \"Farmer.sol\":1006:1025  farmers[msg.sender] */\n      0x00\n        /* \"Farmer.sol\":1014:1024  msg.sender */\n      caller\n        /* \"Farmer.sol\":1006:1025  farmers[msg.sender] */\n      0xffffffffffffffffffffffffffffffffffffffff\n      and\n      0xffffffffffffffffffffffffffffffffffffffff\n      and\n      dup2\n      mstore\n      0x20\n      add\n      swap1\n      dup2\n      mstore\n      0x20\n      add\n      0x00\n      keccak256\n      0x00\n      swap1\n      sload\n      swap1\n      0x0100\n      exp\n      swap1\n      div\n      0xff\n      and\n        /* \"Farmer.sol\":998:1041  require(farmers[msg.sender], \"Only farmer\") */\n      tag_341\n      jumpi\n      mload(0x40)\n      0x08c379a000000000000000000000000000000000000000000000000000000000\n      dup2\n      mstore\n      0x04\n      add\n      tag_342\n      swap1\n      tag_221\n      jump\t// in\n    tag_342:\n      mload(0x40)\n      dup1\n      swap2\n      sub\n      swap1\n      revert\n    tag_341:\n        /* \"Farmer.sol\":1752:1779  _generateUniqueCropID(seed) */\n      tag_344\n        /* \"Farmer.sol\":1774:1778  seed */\n      dup3\n        /* \"Farmer.sol\":1752:1773  _generateUniqueCropID */\n      tag_345\n        /* \"Farmer.sol\":1752:1779  _generateUniqueCropID(seed) */\n      jump\t// in\n    tag_344:\n        /* \"Farmer.sol\":1745:1779  return _generateUniqueCropID(seed) */\n      swap1\n      pop\n        /* \"Farmer.sol\":1659:1787  function createUniqueCropID(uint seed) public onlyFarmer returns (bytes32) {... */\n      swap2\n      swap1\n      pop\n      jump\t// out\n        /* \"Farmer.sol\":2197:2665  function farmerTransferToSupplier(bytes32 cropID, address supplier, string calldata transferDate) external onlyFarmer {... */\n    tag_134:\n        /* \"Farmer.sol\":1006:1013  farmers */\n      0x00\n        /* \"Farmer.sol\":1006:1025  farmers[msg.sender] */\n      0x00\n        /* \"Farmer.sol\":1014:1024  msg.sender */\n      caller\n        /* \"Farmer.sol\":1006:1025  farmers[msg.sender] */\n      0xffffffffffffffffffffffffffffffffffffffff\n      and\n      0xffffffffffffffffffffffffffffffffffffffff\n      and\n      dup2\n      mstore\n      0x20\n      add\n      swap1\n      dup2\n      mstore\n      0x20\n      add\n      0x00\n      keccak256\n      0x00\n      swap1\n      sload\n      swap1\n      0x0100\n      exp\n      swap1\n      div\n      0xff\n      and\n        /* \"Farmer.sol\":998:1041  require(farmers[msg.sender], \"Only farmer\") */\n      tag_347\n      jumpi\n      mload(0x40)\n      0x08c379a000000000000000000000000000000000000000000000000000000000\n      dup2\n      mstore\n      0x04\n      add\n      tag_348\n      swap1\n      tag_221\n      jump\t// in\n    tag_348:\n      mload(0x40)\n      dup1\n      swap2\n      sub\n      swap1\n      revert\n    tag_347:\n        /* \"Farmer.sol\":2334:2340  exists */\n      0x04\n        /* \"Farmer.sol\":2334:2348  exists[cropID] */\n      0x00\n        /* \"Farmer.sol\":2341:2347  cropID */\n      dup6\n        /* \"Farmer.sol\":2334:2348  exists[cropID] */\n      dup2\n      mstore\n      0x20\n      add\n      swap1\n      dup2\n      mstore\n      0x20\n      add\n      0x00\n      keccak256\n      0x00\n      swap1\n      sload\n      swap1\n      0x0100\n      exp\n      swap1\n      div\n      0xff\n      and\n        /* \"Farmer.sol\":2326:2365  require(exists[cropID], \"Unknown crop\") */\n      tag_350\n      jumpi\n      mload(0x40)\n      0x08c379a000000000000000000000000000000000000000000000000000000000\n      dup2\n      mstore\n      0x04\n      add\n      tag_351\n      swap1\n      tag_352\n      jump\t// in\n    tag_351:\n      mload(0x40)\n      dup1\n      swap2\n      sub\n      swap1\n      revert\n    tag_350:\n        /* \"Farmer.sol\":2415:2425  msg.sender */\n      caller\n        /* \"Farmer.sol\":2384:2425  crops[cropID].currentHolder == msg.sender */\n      0xffffffffffffffffffffffffffffffffffffffff\n      and\n        /* \"Farmer.sol\":2384:2389  crops */\n      0x02\n        /* \"Farmer.sol\":2384:2397  crops[cropID] */\n      0x00\n        /* \"Farmer.sol\":2390:2396  cropID */\n      dup7\n        /* \"Farmer.sol\":2384:2397  crops[cropID] */\n      dup2\n      mstore\n      0x20\n      add\n      swap1\n      dup2\n      mstore\n      0x20\n      add\n      0x00\n      keccak256\n        /* \"Farmer.sol\":2384:2411  crops[cropID].currentHolder */\n      0x05\n      add\n      0x01\n      swap1\n      sload\n      swap1\n      0x0100\n      exp\n      swap1\n      div\n      0xffffffffffffffffffffffffffffffffffffffff\n      and\n        /* \"Farmer.sol\":2384:2425  crops[cropID].currentHolder == msg.sender */\n      0xffffffffffffffffffffffffffffffffffffffff\n      and\n      eq\n        /* \"Farmer.sol\":2376:2440  require(crops[cropID].currentHolder == msg.sender, \"Not holder\") */\n      tag_353\n      jumpi\n      mload(0x40)\n      0x08c379a000000000000000000000000000000000000000000000000000000000\n      dup2\n      mstore\n      0x04\n      add\n      tag_354\n      swap1\n      tag_304\n      jump\t// in\n    tag_354:\n      mload(0x40)\n      dup1\n      swap2\n      sub\n      swap1\n      revert\n    tag_353:\n        /* \"Farmer.sol\":2481:2489  supplier */\n      dup3\n        /* \"Farmer.sol\":2451:2456  crops */\n      0x02\n        /* \"Farmer.sol\":2451:2464  crops[cropID] */\n      0x00\n        /* \"Farmer.sol\":2457:2463  cropID */\n      dup7\n        /* \"Farmer.sol\":2451:2464  crops[cropID] */\n      dup2\n      mstore\n      0x20\n      add\n      swap1\n      dup2\n      mstore\n      0x20\n      add\n      0x00\n      keccak256\n        /* \"Farmer.sol\":2451:2478  crops[cropID].currentHolder */\n      0x05\n      add\n      0x01\n        /* \"Farmer.sol\":2451:2489  crops[cropID].currentHolder = supplier */\n      0x0100\n      exp\n      dup2\n      sload\n      dup2\n      0xffffffffffffffffffffffffffffffffffffffff\n      mul\n      not\n      and\n      swap1\n      dup4\n      0xffffffffffffffffffffffffffffffffffffffff\n      and\n      mul\n      or\n      swap1\n      sstore\n      pop\n        /* \"Farmer.sol\":2522:2536  Stage.Supplied */\n      0x02\n        /* \"Farmer.sol\":2500:2505  crops */\n      dup1\n        /* \"Farmer.sol\":2500:2513  crops[cropID] */\n      0x00\n        /* \"Farmer.sol\":2506:2512  cropID */\n      dup7\n        /* \"Farmer.sol\":2500:2513  crops[cropID] */\n      dup2\n      mstore\n      0x20\n      add\n      swap1\n      dup2\n      mstore\n      0x20\n      add\n      0x00\n      keccak256\n        /* \"Farmer.sol\":2500:2519  crops[cropID].stage */\n      0x05\n      add\n      0x00\n        /* \"Farmer.sol\":2500:2536  crops[cropID].stage = Stage.Supplied */\n      0x0100\n      exp\n      dup2\n      sload\n      dup2\n      0xff\n      mul\n      not\n      and\n      swap1\n      dup4\n      0x06\n      dup2\n      gt\n      iszero\n      tag_355\n      jumpi\n      tag_356\n      tag_228\n      jump\t// in\n    tag_356:\n    tag_355:\n      mul\n      or\n      swap1\n      sstore\n      pop\n        /* \"Farmer.sol\":2576:2588  transferDate */\n      dup2\n      dup2\n        /* \"Farmer.sol\":2547:2552  crops */\n      0x02\n        /* \"Farmer.sol\":2547:2560  crops[cropID] */\n      0x00\n        /* \"Farmer.sol\":2553:2559  cropID */\n      dup8\n        /* \"Farmer.sol\":2547:2560  crops[cropID] */\n      dup2\n      mstore\n      0x20\n      add\n      swap1\n      dup2\n      mstore\n      0x20\n      add\n      0x00\n      keccak256\n        /* \"Farmer.sol\":2547:2573  crops[cropID].transferDate */\n      0x06\n      add\n        /* \"Farmer.sol\":2547:2588  crops[cropID].transferDate = transferDate */\n      swap2\n      dup3\n      tag_357\n      swap3\n      swap2\n      swap1\n      tag_262\n      jump\t// in\n    tag_357:\n      pop\n        /* \"Farmer.sol\":2604:2657  TransferredToSupplier(cropID, supplier, transferDate) */\n      0xddd0a704fbe441f1fd23c0e39bfa7cdc43718cc3a6e329a80605132407f7b07a\n        /* \"Farmer.sol\":2626:2632  cropID */\n      dup5\n        /* \"Farmer.sol\":2634:2642  supplier */\n      dup5\n        /* \"Farmer.sol\":2644:2656  transferDate */\n      dup5\n      dup5\n        /* \"Farmer.sol\":2604:2657  TransferredToSupplier(cropID, supplier, transferDate) */\n      mload(0x40)\n      tag_358\n      swap5\n      swap4\n      swap3\n      swap2\n      swap1\n      tag_359\n      jump\t// in\n    tag_358:\n      mload(0x40)\n      dup1\n      swap2\n      sub\n      swap1\n      log1\n        /* \"Farmer.sol\":2197:2665  function farmerTransferToSupplier(bytes32 cropID, address supplier, string calldata transferDate) external onlyFarmer {... */\n      pop\n      pop\n      pop\n      pop\n      jump\t// out\n        /* \"Customer.sol\":576:621  mapping(bytes32 => Purchase) public purchases */\n    tag_137:\n      mstore(0x20, 0x11)\n      dup1\n      0x00\n      mstore\n      keccak256(0x00, 0x40)\n      0x00\n      swap2\n      pop\n      swap1\n      pop\n      dup1\n      0x00\n      add\n      sload\n      swap1\n      dup1\n      0x01\n      add\n      0x00\n      swap1\n      sload\n      swap1\n      0x0100\n      exp\n      swap1\n      div\n      0xff\n      and\n      swap1\n      dup1\n      0x02\n      add\n      dup1\n      sload\n      tag_360\n      swap1\n      tag_203\n      jump\t// in\n    tag_360:\n      dup1\n      0x1f\n      add\n      0x20\n      dup1\n      swap2\n      div\n      mul\n      0x20\n      add\n      mload(0x40)\n      swap1\n      dup2\n      add\n      0x40\n      mstore\n      dup1\n      swap3\n      swap2\n      swap1\n      dup2\n      dup2\n      mstore\n      0x20\n      add\n      dup3\n      dup1\n      sload\n      tag_361\n      swap1\n      tag_203\n      jump\t// in\n    tag_361:\n      dup1\n      iszero\n      tag_362\n      jumpi\n      dup1\n      0x1f\n      lt\n      tag_363\n      jumpi\n      0x0100\n      dup1\n      dup4\n      sload\n      div\n      mul\n      dup4\n      mstore\n      swap2\n      0x20\n      add\n      swap2\n      jump(tag_362)\n    tag_363:\n      dup3\n      add\n      swap2\n      swap1\n      0x00\n      mstore\n      keccak256(0x00, 0x20)\n      swap1\n    tag_364:\n      dup2\n      sload\n      dup2\n      mstore\n      swap1\n      0x01\n      add\n      swap1\n      0x20\n      add\n      dup1\n      dup4\n      gt\n      tag_364\n      jumpi\n      dup3\n      swap1\n      sub\n      0x1f\n      and\n      dup3\n      add\n      swap2\n    tag_362:\n      pop\n      pop\n      pop\n      pop\n      pop\n      swap1\n      dup1\n      0x03\n      add\n      dup1\n      sload\n      tag_365\n      swap1\n      tag_203\n      jump\t// in\n    tag_365:\n      dup1\n      0x1f\n      add\n      0x20\n      dup1\n      swap2\n      div\n      mul\n      0x20\n      add\n      mload(0x40)\n      swap1\n      dup2\n      add\n      0x40\n      mstore\n      dup1\n      swap3\n      swap2\n      swap1\n      dup2\n      dup2\n      mstore\n      0x20\n      add\n      dup3\n      dup1\n      sload\n      tag_366\n      swap1\n      tag_203\n      jump\t// in\n    tag_366:\n      dup1\n      iszero\n      tag_367\n      jumpi\n      dup1\n      0x1f\n      lt\n      tag_368\n      jumpi\n      0x0100\n      dup1\n      dup4\n      sload\n      div\n      mul\n      dup4\n      mstore\n      swap2\n      0x20\n      add\n      swap2\n      jump(tag_367)\n    tag_368:\n      dup3\n      add\n      swap2\n      swap1\n      0x00\n      mstore\n      keccak256(0x00, 0x20)\n      swap1\n    tag_369:\n      dup2\n      sload\n      dup2\n      mstore\n      swap1\n      0x01\n      add\n      swap1\n      0x20\n      add\n      dup1\n      dup4\n      gt\n      tag_369\n      jumpi\n      dup3\n      swap1\n      sub\n      0x1f\n      and\n      dup3\n      add\n      swap2\n    tag_367:\n      pop\n      pop\n      pop\n      pop\n      pop\n      swap1\n      dup1\n      0x04\n      add\n      0x00\n      swap1\n      sload\n      swap1\n      0x0100\n      exp\n      swap1\n      div\n      0xffffffffffffffffffffffffffffffffffffffff\n      and\n      swap1\n      pop\n      dup6\n      jump\t// out\n        /* \"Aggregator.sol\":229:292  mapping(address => AggregatorProfile) public aggregatorProfiles */\n    tag_142:\n      mstore(0x20, 0x0a)\n      dup1\n      0x00\n      mstore\n      keccak256(0x00, 0x40)\n      0x00\n      swap2\n      pop\n      swap1\n      pop\n      dup1\n      0x00\n      add\n      dup1\n      sload\n      tag_370\n      swap1\n      tag_203\n      jump\t// in\n    tag_370:\n      dup1\n      0x1f\n      add\n      0x20\n      dup1\n      swap2\n      div\n      mul\n      0x20\n      add\n      mload(0x40)\n      swap1\n      dup2\n      add\n      0x40\n      mstore\n      dup1\n      swap3\n      swap2\n      swap1\n      dup2\n      dup2\n      mstore\n      0x20\n      add\n      dup3\n      dup1\n      sload\n      tag_371\n      swap1\n      tag_203\n      jump\t// in\n    tag_371:\n      dup1\n      iszero\n      tag_372\n      jumpi\n      dup1\n      0x1f\n      lt\n      tag_373\n      jumpi\n      0x0100\n      dup1\n      dup4\n      sload\n      div\n      mul\n      dup4\n      mstore\n      swap2\n      0x20\n      add\n      swap2\n      jump(tag_372)\n    tag_373:\n      dup3\n      add\n      swap2\n      swap1\n      0x00\n      mstore\n      keccak256(0x00, 0x20)\n      swap1\n    tag_374:\n      dup2\n      sload\n      dup2\n      mstore\n      swap1\n      0x01\n      add\n      swap1\n      0x20\n      add\n      dup1\n      dup4\n      gt\n      tag_374\n      jumpi\n      dup3\n      swap1\n      sub\n      0x1f\n      and\n      dup3\n      add\n      swap2\n    tag_372:\n      pop\n      pop\n      pop\n      pop\n      pop\n      swap1\n      dup1\n      0x01\n      add\n      dup1\n      sload\n      tag_375\n      swap1\n      tag_203\n      jump\t// in\n    tag_375:\n      dup1\n      0x1f\n      add\n      0x20\n      dup1\n      swap2\n      div\n      mul\n      0x20\n      add\n      mload(0x40)\n      swap1\n      dup2\n      add\n      0x40\n      mstore\n      dup1\n      swap3\n      swap2\n      swap1\n      dup2\n      dup2\n      mstore\n      0x20\n      add\n      dup3\n      dup1\n      sload\n      tag_376\n      swap1\n      tag_203\n      jump\t// in\n    tag_376:\n      dup1\n      iszero\n      tag_377\n      jumpi\n      dup1\n      0x1f\n      lt\n      tag_378\n      jumpi\n      0x0100\n      dup1\n      dup4\n      sload\n      div\n      mul\n      dup4\n      mstore\n      swap2\n      0x20\n      add\n      swap2\n      jump(tag_377)\n    tag_378:\n      dup3\n      add\n      swap2\n      swap1\n      0x00\n      mstore\n      keccak256(0x00, 0x20)\n      swap1\n    tag_379:\n      dup2\n      sload\n      dup2\n      mstore\n      swap1\n      0x01\n      add\n      swap1\n      0x20\n      add\n      dup1\n      dup4\n      gt\n      tag_379\n      jumpi\n      dup3\n      swap1\n      sub\n      0x1f\n      and\n      dup3\n      add\n      swap2\n    tag_377:\n      pop\n      pop\n      pop\n      pop\n      pop\n      swap1\n      dup1\n      0x02\n      add\n      dup1\n      sload\n      tag_380\n      swap1\n      tag_203\n      jump\t// in\n    tag_380:\n      dup1\n      0x1f\n      add\n      0x20\n      dup1\n      swap2\n      div\n      mul\n      0x20\n      add\n      mload(0x40)\n      swap1\n      dup2\n      add\n      0x40\n      mstore\n      dup1\n      swap3\n      swap2\n      swap1\n      dup2\n      dup2\n      mstore\n      0x20\n      add\n      dup3\n      dup1\n      sload\n      tag_381\n      swap1\n      tag_203\n      jump\t// in\n    tag_381:\n      dup1\n      iszero\n      tag_382\n      jumpi\n      dup1\n      0x1f\n      lt\n      tag_383\n      jumpi\n      0x0100\n      dup1\n      dup4\n      sload\n      div\n      mul\n      dup4\n      mstore\n      swap2\n      0x20\n      add\n      swap2\n      jump(tag_382)\n    tag_383:\n      dup3\n      add\n      swap2\n      swap1\n      0x00\n      mstore\n      keccak256(0x00, 0x20)\n      swap1\n    tag_384:\n      dup2\n      sload\n      dup2\n      mstore\n      swap1\n      0x01\n      add\n      swap1\n      0x20\n      add\n      dup1\n      dup4\n      gt\n      tag_384\n      jumpi\n      dup3\n      swap1\n      sub\n      0x1f\n      and\n      dup3\n      add\n      swap2\n    tag_382:\n      pop\n      pop\n      pop\n      pop\n      pop\n      swap1\n      pop\n      dup4\n      jump\t// out\n        /* \"Retailer.sol\":657:698  mapping(bytes32 => Retail) public retails */\n    tag_146:\n      mstore(0x20, 0x0e)\n      dup1\n      0x00\n      mstore\n      keccak256(0x00, 0x40)\n      0x00\n      swap2\n      pop\n      swap1\n      pop\n      dup1\n      0x00\n      add\n      sload\n      swap1\n      dup1\n      0x01\n      add\n      sload\n      swap1\n      dup1\n      0x02\n      add\n      dup1\n      sload\n      tag_385\n      swap1\n      tag_203\n      jump\t// in\n    tag_385:\n      dup1\n      0x1f\n      add\n      0x20\n      dup1\n      swap2\n      div\n      mul\n      0x20\n      add\n      mload(0x40)\n      swap1\n      dup2\n      add\n      0x40\n      mstore\n      dup1\n      swap3\n      swap2\n      swap1\n      dup2\n      dup2\n      mstore\n      0x20\n      add\n      dup3\n      dup1\n      sload\n      tag_386\n      swap1\n      tag_203\n      jump\t// in\n    tag_386:\n      dup1\n      iszero\n      tag_387\n      jumpi\n      dup1\n      0x1f\n      lt\n      tag_388\n      jumpi\n      0x0100\n      dup1\n      dup4\n      sload\n      div\n      mul\n      dup4\n      mstore\n      swap2\n      0x20\n      add\n      swap2\n      jump(tag_387)\n    tag_388:\n      dup3\n      add\n      swap2\n      swap1\n      0x00\n      mstore\n      keccak256(0x00, 0x20)\n      swap1\n    tag_389:\n      dup2\n      sload\n      dup2\n      mstore\n      swap1\n      0x01\n      add\n      swap1\n      0x20\n      add\n      dup1\n      dup4\n      gt\n      tag_389\n      jumpi\n      dup3\n      swap1\n      sub\n      0x1f\n      and\n      dup3\n      add\n      swap2\n    tag_387:\n      pop\n      pop\n      pop\n      pop\n      pop\n      swap1\n      dup1\n      0x03\n      add\n      dup1\n      sload\n      tag_390\n      swap1\n      tag_203\n      jump\t// in\n    tag_390:\n      dup1\n      0x1f\n      add\n      0x20\n      dup1\n      swap2\n      div\n      mul\n      0x20\n      add\n      mload(0x40)\n      swap1\n      dup2\n      add\n      0x40\n      mstore\n      dup1\n      swap3\n      swap2\n      swap1\n      dup2\n      dup2\n      mstore\n      0x20\n      add\n      dup3\n      dup1\n      sload\n      tag_391\n      swap1\n      tag_203\n      jump\t// in\n    tag_391:\n      dup1\n      iszero\n      tag_392\n      jumpi\n      dup1\n      0x1f\n      lt\n      tag_393\n      jumpi\n      0x0100\n      dup1\n      dup4\n      sload\n      div\n      mul\n      dup4\n      mstore\n      swap2\n      0x20\n      add\n      swap2\n      jump(tag_392)\n    tag_393:\n      dup3\n      add\n      swap2\n      swap1\n      0x00\n      mstore\n      keccak256(0x00, 0x20)\n      swap1\n    tag_394:\n      dup2\n      sload\n      dup2\n      mstore\n      swap1\n      0x01\n      add\n      swap1\n      0x20\n      add\n      dup1\n      dup4\n      gt\n      tag_394\n      jumpi\n      dup3\n      swap1\n      sub\n      0x1f\n      and\n      dup3\n      add\n      swap2\n    tag_392:\n      pop\n      pop\n      pop\n      pop\n      pop\n      swap1\n      dup1\n      0x04\n      add\n      0x00\n      swap1\n      sload\n      swap1\n      0x0100\n      exp\n      swap1\n      div\n      0xffffffffffffffffffffffffffffffffffffffff\n      and\n      swap1\n      pop\n      dup6\n      jump\t// out\n        /* \"TrackSupplyChain.sol\":278:298  address public owner */\n    tag_150:\n      0x12\n      0x00\n      swap1\n      sload\n      swap1\n      0x0100\n      exp\n      swap1\n      div\n      0xffffffffffffffffffffffffffffffffffffffff\n      and\n      dup2\n      jump\t// out\n        /* \"Farmer.sol\":217:272  mapping(address => FarmerProfile) public farmerProfiles */\n    tag_155:\n      mstore(0x20, 0x01)\n      dup1\n      0x00\n      mstore\n      keccak256(0x00, 0x40)\n      0x00\n      swap2\n      pop\n      swap1\n      pop\n      dup1\n      0x00\n      add\n      dup1\n      sload\n      tag_395\n      swap1\n      tag_203\n      jump\t// in\n    tag_395:\n      dup1\n      0x1f\n      add\n      0x20\n      dup1\n      swap2\n      div\n      mul\n      0x20\n      add\n      mload(0x40)\n      swap1\n      dup2\n      add\n      0x40\n      mstore\n      dup1\n      swap3\n      swap2\n      swap1\n      dup2\n      dup2\n      mstore\n      0x20\n      add\n      dup3\n      dup1\n      sload\n      tag_396\n      swap1\n      tag_203\n      jump\t// in\n    tag_396:\n      dup1\n      iszero\n      tag_397\n      jumpi\n      dup1\n      0x1f\n      lt\n      tag_398\n      jumpi\n      0x0100\n      dup1\n      dup4\n      sload\n      div\n      mul\n      dup4\n      mstore\n      swap2\n      0x20\n      add\n      swap2\n      jump(tag_397)\n    tag_398:\n      dup3\n      add\n      swap2\n      swap1\n      0x00\n      mstore\n      keccak256(0x00, 0x20)\n      swap1\n    tag_399:\n      dup2\n      sload\n      dup2\n      mstore\n      swap1\n      0x01\n      add\n      swap1\n      0x20\n      add\n      dup1\n      dup4\n      gt\n      tag_399\n      jumpi\n      dup3\n      swap1\n      sub\n      0x1f\n      and\n      dup3\n      add\n      swap2\n    tag_397:\n      pop\n      pop\n      pop\n      pop\n      pop\n      swap1\n      dup1\n      0x01\n      add\n      dup1\n      sload\n      tag_400\n      swap1\n      tag_203\n      jump\t// in\n    tag_400:\n      dup1\n      0x1f\n      add\n      0x20\n      dup1\n      swap2\n      div\n      mul\n      0x20\n      add\n      mload(0x40)\n      swap1\n      dup2\n      add\n      0x40\n      mstore\n      dup1\n      swap3\n      swap2\n      swap1\n      dup2\n      dup2\n      mstore\n      0x20\n      add\n      dup3\n      dup1\n      sload\n      tag_401\n      swap1\n      tag_203\n      jump\t// in\n    tag_401:\n      dup1\n      iszero\n      tag_402\n      jumpi\n      dup1\n      0x1f\n      lt\n      tag_403\n      jumpi\n      0x0100\n      dup1\n      dup4\n      sload\n      div\n      mul\n      dup4\n      mstore\n      swap2\n      0x20\n      add\n      swap2\n      jump(tag_402)\n    tag_403:\n      dup3\n      add\n      swap2\n      swap1\n      0x00\n      mstore\n      keccak256(0x00, 0x20)\n      swap1\n    tag_404:\n      dup2\n      sload\n      dup2\n      mstore\n      swap1\n      0x01\n      add\n      swap1\n      0x20\n      add\n      dup1\n      dup4\n      gt\n      tag_404\n      jumpi\n      dup3\n      swap1\n      sub\n      0x1f\n      and\n      dup3\n      add\n      swap2\n    tag_402:\n      pop\n      pop\n      pop\n      pop\n      pop\n      swap1\n      dup1\n      0x02\n      add\n      dup1\n      sload\n      tag_405\n      swap1\n      tag_203\n      jump\t// in\n    tag_405:\n      dup1\n      0x1f\n      add\n      0x20\n      dup1\n      swap2\n      div\n      mul\n      0x20\n      add\n      mload(0x40)\n      swap1\n      dup2\n      add\n      0x40\n      mstore\n      dup1\n      swap3\n      swap2\n      swap1\n      dup2\n      dup2\n      mstore\n      0x20\n      add\n      dup3\n      dup1\n      sload\n      tag_406\n      swap1\n      tag_203\n      jump\t// in\n    tag_406:\n      dup1\n      iszero\n      tag_407\n      jumpi\n      dup1\n      0x1f\n      lt\n      tag_408\n      jumpi\n      0x0100\n      dup1\n      dup4\n      sload\n      div\n      mul\n      dup4\n      mstore\n      swap2\n      0x20\n      add\n      swap2\n      jump(tag_407)\n    tag_408:\n      dup3\n      add\n      swap2\n      swap1\n      0x00\n      mstore\n      keccak256(0x00, 0x20)\n      swap1\n    tag_409:\n      dup2\n      sload\n      dup2\n      mstore\n      swap1\n      0x01\n      add\n      swap1\n      0x20\n      add\n      dup1\n      dup4\n      gt\n      tag_409\n      jumpi\n      dup3\n      swap1\n      sub\n      0x1f\n      and\n      dup3\n      add\n      swap2\n    tag_407:\n      pop\n      pop\n      pop\n      pop\n      pop\n      swap1\n      pop\n      dup4\n      jump\t// out\n        /* \"Retailer.sol\":95:136  mapping(address => bool) public retailers */\n    tag_159:\n      mstore(0x20, 0x0c)\n      dup1\n      0x00\n      mstore\n      keccak256(0x00, 0x40)\n      0x00\n      swap2\n      pop\n      sload\n      swap1\n      0x0100\n      exp\n      swap1\n      div\n      0xff\n      and\n      dup2\n      jump\t// out\n        /* \"Supplier.sol\":804:1157  function registerSupplier(string calldata name, string calldata location, string calldata contact) external {... */\n    tag_163:\n        /* \"Supplier.sol\":932:941  suppliers */\n      0x06\n        /* \"Supplier.sol\":932:953  suppliers[msg.sender] */\n      0x00\n        /* \"Supplier.sol\":942:952  msg.sender */\n      caller\n        /* \"Supplier.sol\":932:953  suppliers[msg.sender] */\n      0xffffffffffffffffffffffffffffffffffffffff\n      and\n      0xffffffffffffffffffffffffffffffffffffffff\n      and\n      dup2\n      mstore\n      0x20\n      add\n      swap1\n      dup2\n      mstore\n      0x20\n      add\n      0x00\n      keccak256\n      0x00\n      swap1\n      sload\n      swap1\n      0x0100\n      exp\n      swap1\n      div\n      0xff\n      and\n        /* \"Supplier.sol\":931:953  !suppliers[msg.sender] */\n      iszero\n        /* \"Supplier.sol\":923:976  require(!suppliers[msg.sender], \"Already registered\") */\n      tag_411\n      jumpi\n      mload(0x40)\n      0x08c379a000000000000000000000000000000000000000000000000000000000\n      dup2\n      mstore\n      0x04\n      add\n      tag_412\n      swap1\n      tag_268\n      jump\t// in\n    tag_412:\n      mload(0x40)\n      dup1\n      swap2\n      sub\n      swap1\n      revert\n    tag_411:\n        /* \"Supplier.sol\":1011:1015  true */\n      0x01\n        /* \"Supplier.sol\":987:996  suppliers */\n      0x06\n        /* \"Supplier.sol\":987:1008  suppliers[msg.sender] */\n      0x00\n        /* \"Supplier.sol\":997:1007  msg.sender */\n      caller\n        /* \"Supplier.sol\":987:1008  suppliers[msg.sender] */\n      0xffffffffffffffffffffffffffffffffffffffff\n      and\n      0xffffffffffffffffffffffffffffffffffffffff\n      and\n      dup2\n      mstore\n      0x20\n      add\n      swap1\n      dup2\n      mstore\n      0x20\n      add\n      0x00\n      keccak256\n      0x00\n        /* \"Supplier.sol\":987:1015  suppliers[msg.sender] = true */\n      0x0100\n      exp\n      dup2\n      sload\n      dup2\n      0xff\n      mul\n      not\n      and\n      swap1\n      dup4\n      iszero\n      iszero\n      mul\n      or\n      swap1\n      sstore\n      pop\n        /* \"Supplier.sol\":1057:1097  SupplierProfile(name, location, contact) */\n      mload(0x40)\n      dup1\n      0x60\n      add\n      0x40\n      mstore\n      dup1\n        /* \"Supplier.sol\":1073:1077  name */\n      dup8\n      dup8\n        /* \"Supplier.sol\":1057:1097  SupplierProfile(name, location, contact) */\n      dup1\n      dup1\n      0x1f\n      add\n      0x20\n      dup1\n      swap2\n      div\n      mul\n      0x20\n      add\n      mload(0x40)\n      swap1\n      dup2\n      add\n      0x40\n      mstore\n      dup1\n      swap4\n      swap3\n      swap2\n      swap1\n      dup2\n      dup2\n      mstore\n      0x20\n      add\n      dup4\n      dup4\n      dup1\n      dup3\n      dup5\n      calldatacopy\n      0x00\n      dup2\n      dup5\n      add\n      mstore\n      not(0x1f)\n      0x1f\n      dup3\n      add\n      and\n      swap1\n      pop\n      dup1\n      dup4\n      add\n      swap3\n      pop\n      pop\n      pop\n      pop\n      pop\n      pop\n      pop\n      dup2\n      mstore\n      0x20\n      add\n        /* \"Supplier.sol\":1079:1087  location */\n      dup6\n      dup6\n        /* \"Supplier.sol\":1057:1097  SupplierProfile(name, location, contact) */\n      dup1\n      dup1\n      0x1f\n      add\n      0x20\n      dup1\n      swap2\n      div\n      mul\n      0x20\n      add\n      mload(0x40)\n      swap1\n      dup2\n      add\n      0x40\n      mstore\n      dup1\n      swap4\n      swap3\n      swap2\n      swap1\n      dup2\n      dup2\n      mstore\n      0x20\n      add\n      dup4\n      dup4\n      dup1\n      dup3\n      dup5\n      calldatacopy\n      0x00\n      dup2\n      dup5\n      add\n      mstore\n      not(0x1f)\n      0x1f\n      dup3\n      add\n      and\n      swap1\n      pop\n      dup1\n      dup4\n      add\n      swap3\n      pop\n      pop\n      pop\n      pop\n      pop\n      pop\n      pop\n      dup2\n      mstore\n      0x20\n      add\n        /* \"Supplier.sol\":1089:1096  contact */\n      dup4\n      dup4\n        /* \"Supplier.sol\":1057:1097  SupplierProfile(name, location, contact) */\n      dup1\n      dup1\n      0x1f\n      add\n      0x20\n      dup1\n      swap2\n      div\n      mul\n      0x20\n      add\n      mload(0x40)\n      swap1\n      dup2\n      add\n      0x40\n      mstore\n      dup1\n      swap4\n      swap3\n      swap2\n      swap1\n      dup2\n      dup2\n      mstore\n      0x20\n      add\n      dup4\n      dup4\n      dup1\n      dup3\n      dup5\n      calldatacopy\n      0x00\n      dup2\n      dup5\n      add\n      mstore\n      not(0x1f)\n      0x1f\n      dup3\n      add\n      and\n      swap1\n      pop\n      dup1\n      dup4\n      add\n      swap3\n      pop\n      pop\n      pop\n      pop\n      pop\n      pop\n      pop\n      dup2\n      mstore\n      pop\n        /* \"Supplier.sol\":1026:1042  supplierProfiles */\n      0x07\n        /* \"Supplier.sol\":1026:1054  supplierProfiles[msg.sender] */\n      0x00\n        /* \"Supplier.sol\":1043:1053  msg.sender */\n      caller\n        /* \"Supplier.sol\":1026:1054  supplierProfiles[msg.sender] */\n      0xffffffffffffffffffffffffffffffffffffffff\n      and\n      0xffffffffffffffffffffffffffffffffffffffff\n      and\n      dup2\n      mstore\n      0x20\n      add\n      swap1\n      dup2\n      mstore\n      0x20\n      add\n      0x00\n      keccak256\n        /* \"Supplier.sol\":1026:1097  supplierProfiles[msg.sender] = SupplierProfile(name, location, contact) */\n      0x00\n      dup3\n      add\n      mload\n      dup2\n      0x00\n      add\n      swap1\n      dup2\n      tag_413\n      swap2\n      swap1\n      tag_230\n      jump\t// in\n    tag_413:\n      pop\n      0x20\n      dup3\n      add\n      mload\n      dup2\n      0x01\n      add\n      swap1\n      dup2\n      tag_414\n      swap2\n      swap1\n      tag_230\n      jump\t// in\n    tag_414:\n      pop\n      0x40\n      dup3\n      add\n      mload\n      dup2\n      0x02\n      add\n      swap1\n      dup2\n      tag_415\n      swap2\n      swap1\n      tag_230\n      jump\t// in\n    tag_415:\n      pop\n      swap1\n      pop\n      pop\n        /* \"Supplier.sol\":1113:1149  SupplierRegistered(msg.sender, name) */\n      0xd52881a6125270bc10edc37221b17d746ef540e29867a40b76ed110ef520224c\n        /* \"Supplier.sol\":1132:1142  msg.sender */\n      caller\n        /* \"Supplier.sol\":1144:1148  name */\n      dup8\n      dup8\n        /* \"Supplier.sol\":1113:1149  SupplierRegistered(msg.sender, name) */\n      mload(0x40)\n      tag_416\n      swap4\n      swap3\n      swap2\n      swap1\n      tag_273\n      jump\t// in\n    tag_416:\n      mload(0x40)\n      dup1\n      swap2\n      sub\n      swap1\n      log1\n        /* \"Supplier.sol\":804:1157  function registerSupplier(string calldata name, string calldata location, string calldata contact) external {... */\n      pop\n      pop\n      pop\n      pop\n      pop\n      pop\n      jump\t// out\n        /* \"Farmer.sol\":809:846  mapping(bytes32 => Crop) public crops */\n    tag_166:\n      mstore(0x20, 0x02)\n      dup1\n      0x00\n      mstore\n      keccak256(0x00, 0x40)\n      0x00\n      swap2\n      pop\n      swap1\n      pop\n      dup1\n      0x00\n      add\n      sload\n      swap1\n      dup1\n      0x01\n      add\n      dup1\n      sload\n      tag_417\n      swap1\n      tag_203\n      jump\t// in\n    tag_417:\n      dup1\n      0x1f\n      add\n      0x20\n      dup1\n      swap2\n      div\n      mul\n      0x20\n      add\n      mload(0x40)\n      swap1\n      dup2\n      add\n      0x40\n      mstore\n      dup1\n      swap3\n      swap2\n      swap1\n      dup2\n      dup2\n      mstore\n      0x20\n      add\n      dup3\n      dup1\n      sload\n      tag_418\n      swap1\n      tag_203\n      jump\t// in\n    tag_418:\n      dup1\n      iszero\n      tag_419\n      jumpi\n      dup1\n      0x1f\n      lt\n      tag_420\n      jumpi\n      0x0100\n      dup1\n      dup4\n      sload\n      div\n      mul\n      dup4\n      mstore\n      swap2\n      0x20\n      add\n      swap2\n      jump(tag_419)\n    tag_420:\n      dup3\n      add\n      swap2\n      swap1\n      0x00\n      mstore\n      keccak256(0x00, 0x20)\n      swap1\n    tag_421:\n      dup2\n      sload\n      dup2\n      mstore\n      swap1\n      0x01\n      add\n      swap1\n      0x20\n      add\n      dup1\n      dup4\n      gt\n      tag_421\n      jumpi\n      dup3\n      swap1\n      sub\n      0x1f\n      and\n      dup3\n      add\n      swap2\n    tag_419:\n      pop\n      pop\n      pop\n      pop\n      pop\n      swap1\n      dup1\n      0x02\n      add\n      dup1\n      sload\n      tag_422\n      swap1\n      tag_203\n      jump\t// in\n    tag_422:\n      dup1\n      0x1f\n      add\n      0x20\n      dup1\n      swap2\n      div\n      mul\n      0x20\n      add\n      mload(0x40)\n      swap1\n      dup2\n      add\n      0x40\n      mstore\n      dup1\n      swap3\n      swap2\n      swap1\n      dup2\n      dup2\n      mstore\n      0x20\n      add\n      dup3\n      dup1\n      sload\n      tag_423\n      swap1\n      tag_203\n      jump\t// in\n    tag_423:\n      dup1\n      iszero\n      tag_424\n      jumpi\n      dup1\n      0x1f\n      lt\n      tag_425\n      jumpi\n      0x0100\n      dup1\n      dup4\n      sload\n      div\n      mul\n      dup4\n      mstore\n      swap2\n      0x20\n      add\n      swap2\n      jump(tag_424)\n    tag_425:\n      dup3\n      add\n      swap2\n      swap1\n      0x00\n      mstore\n      keccak256(0x00, 0x20)\n      swap1\n    tag_426:\n      dup2\n      sload\n      dup2\n      mstore\n      swap1\n      0x01\n      add\n      swap1\n      0x20\n      add\n      dup1\n      dup4\n      gt\n      tag_426\n      jumpi\n      dup3\n      swap1\n      sub\n      0x1f\n      and\n      dup3\n      add\n      swap2\n    tag_424:\n      pop\n      pop\n      pop\n      pop\n      pop\n      swap1\n      dup1\n      0x03\n      add\n      dup1\n      sload\n      tag_427\n      swap1\n      tag_203\n      jump\t// in\n    tag_427:\n      dup1\n      0x1f\n      add\n      0x20\n      dup1\n      swap2\n      div\n      mul\n      0x20\n      add\n      mload(0x40)\n      swap1\n      dup2\n      add\n      0x40\n      mstore\n      dup1\n      swap3\n      swap2\n      swap1\n      dup2\n      dup2\n      mstore\n      0x20\n      add\n      dup3\n      dup1\n      sload\n      tag_428\n      swap1\n      tag_203\n      jump\t// in\n    tag_428:\n      dup1\n      iszero\n      tag_429\n      jumpi\n      dup1\n      0x1f\n      lt\n      tag_430\n      jumpi\n      0x0100\n      dup1\n      dup4\n      sload\n      div\n      mul\n      dup4\n      mstore\n      swap2\n      0x20\n      add\n      swap2\n      jump(tag_429)\n    tag_430:\n      dup3\n      add\n      swap2\n      swap1\n      0x00\n      mstore\n      keccak256(0x00, 0x20)\n      swap1\n    tag_431:\n      dup2\n      sload\n      dup2\n      mstore\n      swap1\n      0x01\n      add\n      swap1\n      0x20\n      add\n      dup1\n      dup4\n      gt\n      tag_431\n      jumpi\n      dup3\n      swap1\n      sub\n      0x1f\n      and\n      dup3\n      add\n      swap2\n    tag_429:\n      pop\n      pop\n      pop\n      pop\n      pop\n      swap1\n      dup1\n      0x04\n      add\n      sload\n      swap1\n      dup1\n      0x05\n      add\n      0x00\n      swap1\n      sload\n      swap1\n      0x0100\n      exp\n      swap1\n      div\n      0xff\n      and\n      swap1\n      dup1\n      0x05\n      add\n      0x01\n      swap1\n      sload\n      swap1\n      0x0100\n      exp\n      swap1\n      div\n      0xffffffffffffffffffffffffffffffffffffffff\n      and\n      swap1\n      dup1\n      0x06\n      add\n      dup1\n      sload\n      tag_432\n      swap1\n      tag_203\n      jump\t// in\n    tag_432:\n      dup1\n      0x1f\n      add\n      0x20\n      dup1\n      swap2\n      div\n      mul\n      0x20\n      add\n      mload(0x40)\n      swap1\n      dup2\n      add\n      0x40\n      mstore\n      dup1\n      swap3\n      swap2\n      swap1\n      dup2\n      dup2\n      mstore\n      0x20\n      add\n      dup3\n      dup1\n      sload\n      tag_433\n      swap1\n      tag_203\n      jump\t// in\n    tag_433:\n      dup1\n      iszero\n      tag_434\n      jumpi\n      dup1\n      0x1f\n      lt\n      tag_435\n      jumpi\n      0x0100\n      dup1\n      dup4\n      sload\n      div\n      mul\n      dup4\n      mstore\n      swap2\n      0x20\n      add\n      swap2\n      jump(tag_434)\n    tag_435:\n      dup3\n      add\n      swap2\n      swap1\n      0x00\n      mstore\n      keccak256(0x00, 0x20)\n      swap1\n    tag_436:\n      dup2\n      sload\n      dup2\n      mstore\n      swap1\n      0x01\n      add\n      swap1\n      0x20\n      add\n      dup1\n      dup4\n      gt\n      tag_436\n      jumpi\n      dup3\n      swap1\n      sub\n      0x1f\n      and\n      dup3\n      add\n      swap2\n    tag_434:\n      pop\n      pop\n      pop\n      pop\n      pop\n      swap1\n      pop\n      dup9\n      jump\t// out\n        /* \"Supplier.sol\":1165:1423  function supplierReceiveFromFarmer(bytes32 cropID, uint transportCost, string calldata date) external onlySupplier {... */\n    tag_171:\n        /* \"Supplier.sol\":751:760  suppliers */\n      0x06\n        /* \"Supplier.sol\":751:772  suppliers[msg.sender] */\n      0x00\n        /* \"Supplier.sol\":761:771  msg.sender */\n      caller\n        /* \"Supplier.sol\":751:772  suppliers[msg.sender] */\n      0xffffffffffffffffffffffffffffffffffffffff\n      and\n      0xffffffffffffffffffffffffffffffffffffffff\n      and\n      dup2\n      mstore\n      0x20\n      add\n      swap1\n      dup2\n      mstore\n      0x20\n      add\n      0x00\n      keccak256\n      0x00\n      swap1\n      sload\n      swap1\n      0x0100\n      exp\n      swap1\n      div\n      0xff\n      and\n        /* \"Supplier.sol\":743:790  require(suppliers[msg.sender], \"Only supplier\") */\n      tag_438\n      jumpi\n      mload(0x40)\n      0x08c379a000000000000000000000000000000000000000000000000000000000\n      dup2\n      mstore\n      0x04\n      add\n      tag_439\n      swap1\n      tag_326\n      jump\t// in\n    tag_439:\n      mload(0x40)\n      dup1\n      swap2\n      sub\n      swap1\n      revert\n    tag_438:\n        /* \"Supplier.sol\":1310:1361  Supply(cropID, transportCost, date, \"\", msg.sender) */\n      mload(0x40)\n      dup1\n      0xa0\n      add\n      0x40\n      mstore\n      dup1\n        /* \"Supplier.sol\":1317:1323  cropID */\n      dup6\n        /* \"Supplier.sol\":1310:1361  Supply(cropID, transportCost, date, \"\", msg.sender) */\n      dup2\n      mstore\n      0x20\n      add\n        /* \"Supplier.sol\":1325:1338  transportCost */\n      dup5\n        /* \"Supplier.sol\":1310:1361  Supply(cropID, transportCost, date, \"\", msg.sender) */\n      dup2\n      mstore\n      0x20\n      add\n        /* \"Supplier.sol\":1340:1344  date */\n      dup4\n      dup4\n        /* \"Supplier.sol\":1310:1361  Supply(cropID, transportCost, date, \"\", msg.sender) */\n      dup1\n      dup1\n      0x1f\n      add\n      0x20\n      dup1\n      swap2\n      div\n      mul\n      0x20\n      add\n      mload(0x40)\n      swap1\n      dup2\n      add\n      0x40\n      mstore\n      dup1\n      swap4\n      swap3\n      swap2\n      swap1\n      dup2\n      dup2\n      mstore\n      0x20\n      add\n      dup4\n      dup4\n      dup1\n      dup3\n      dup5\n      calldatacopy\n      0x00\n      dup2\n      dup5\n      add\n      mstore\n      not(0x1f)\n      0x1f\n      dup3\n      add\n      and\n      swap1\n      pop\n      dup1\n      dup4\n      add\n      swap3\n      pop\n      pop\n      pop\n      pop\n      pop\n      pop\n      pop\n      dup2\n      mstore\n      0x20\n      add\n      mload(0x40)\n      dup1\n      0x20\n      add\n      0x40\n      mstore\n      dup1\n      0x00\n      dup2\n      mstore\n      pop\n      dup2\n      mstore\n      0x20\n      add\n        /* \"Supplier.sol\":1350:1360  msg.sender */\n      caller\n        /* \"Supplier.sol\":1310:1361  Supply(cropID, transportCost, date, \"\", msg.sender) */\n      0xffffffffffffffffffffffffffffffffffffffff\n      and\n      dup2\n      mstore\n      pop\n        /* \"Supplier.sol\":1291:1299  supplies */\n      0x08\n        /* \"Supplier.sol\":1291:1307  supplies[cropID] */\n      0x00\n        /* \"Supplier.sol\":1300:1306  cropID */\n      dup7\n        /* \"Supplier.sol\":1291:1307  supplies[cropID] */\n      dup2\n      mstore\n      0x20\n      add\n      swap1\n      dup2\n      mstore\n      0x20\n      add\n      0x00\n      keccak256\n        /* \"Supplier.sol\":1291:1361  supplies[cropID] = Supply(cropID, transportCost, date, \"\", msg.sender) */\n      0x00\n      dup3\n      add\n      mload\n      dup2\n      0x00\n      add\n      sstore\n      0x20\n      dup3\n      add\n      mload\n      dup2\n      0x01\n      add\n      sstore\n      0x40\n      dup3\n      add\n      mload\n      dup2\n      0x02\n      add\n      swap1\n      dup2\n      tag_441\n      swap2\n      swap1\n      tag_230\n      jump\t// in\n    tag_441:\n      pop\n      0x60\n      dup3\n      add\n      mload\n      dup2\n      0x03\n      add\n      swap1\n      dup2\n      tag_442\n      swap2\n      swap1\n      tag_230\n      jump\t// in\n    tag_442:\n      pop\n      0x80\n      dup3\n      add\n      mload\n      dup2\n      0x04\n      add\n      exp(0x0100, 0x00)\n      dup2\n      sload\n      dup2\n      0xffffffffffffffffffffffffffffffffffffffff\n      mul\n      not\n      and\n      swap1\n      dup4\n      0xffffffffffffffffffffffffffffffffffffffff\n      and\n      mul\n      or\n      swap1\n      sstore\n      pop\n      swap1\n      pop\n      pop\n        /* \"Supplier.sol\":1377:1415  ReceivedFromFarmer(cropID, msg.sender) */\n      0xc84b2e7a91cbbf0711ac91fd9090853f03a14f7bef43df0eb49e6b32d36fe0ac\n        /* \"Supplier.sol\":1396:1402  cropID */\n      dup5\n        /* \"Supplier.sol\":1404:1414  msg.sender */\n      caller\n        /* \"Supplier.sol\":1377:1415  ReceivedFromFarmer(cropID, msg.sender) */\n      mload(0x40)\n      tag_443\n      swap3\n      swap2\n      swap1\n      tag_307\n      jump\t// in\n    tag_443:\n      mload(0x40)\n      dup1\n      swap2\n      sub\n      swap1\n      log1\n        /* \"Supplier.sol\":1165:1423  function supplierReceiveFromFarmer(bytes32 cropID, uint transportCost, string calldata date) external onlySupplier {... */\n      pop\n      pop\n      pop\n      pop\n      jump\t// out\n        /* \"Aggregator.sol\":790:840  mapping(bytes32 => AggregatedBatch) public batches */\n    tag_174:\n      mstore(0x20, 0x0b)\n      dup1\n      0x00\n      mstore\n      keccak256(0x00, 0x40)\n      0x00\n      swap2\n      pop\n      swap1\n      pop\n      dup1\n      0x00\n      add\n      sload\n      swap1\n      dup1\n      0x01\n      add\n      0x00\n      swap1\n      sload\n      swap1\n      0x0100\n      exp\n      swap1\n      div\n      0xff\n      and\n      swap1\n      dup1\n      0x02\n      add\n      dup1\n      sload\n      tag_444\n      swap1\n      tag_203\n      jump\t// in\n    tag_444:\n      dup1\n      0x1f\n      add\n      0x20\n      dup1\n      swap2\n      div\n      mul\n      0x20\n      add\n      mload(0x40)\n      swap1\n      dup2\n      add\n      0x40\n      mstore\n      dup1\n      swap3\n      swap2\n      swap1\n      dup2\n      dup2\n      mstore\n      0x20\n      add\n      dup3\n      dup1\n      sload\n      tag_445\n      swap1\n      tag_203\n      jump\t// in\n    tag_445:\n      dup1\n      iszero\n      tag_446\n      jumpi\n      dup1\n      0x1f\n      lt\n      tag_447\n      jumpi\n      0x0100\n      dup1\n      dup4\n      sload\n      div\n      mul\n      dup4\n      mstore\n      swap2\n      0x20\n      add\n      swap2\n      jump(tag_446)\n    tag_447:\n      dup3\n      add\n      swap2\n      swap1\n      0x00\n      mstore\n      keccak256(0x00, 0x20)\n      swap1\n    tag_448:\n      dup2\n      sload\n      dup2\n      mstore\n      swap1\n      0x01\n      add\n      swap1\n      0x20\n      add\n      dup1\n      dup4\n      gt\n      tag_448\n      jumpi\n      dup3\n      swap1\n      sub\n      0x1f\n      and\n      dup3\n      add\n      swap2\n    tag_446:\n      pop\n      pop\n      pop\n      pop\n      pop\n      swap1\n      dup1\n      0x03\n      add\n      0x00\n      swap1\n      sload\n      swap1\n      0x0100\n      exp\n      swap1\n      div\n      0xff\n      and\n      swap1\n      dup1\n      0x04\n      add\n      dup1\n      sload\n      tag_449\n      swap1\n      tag_203\n      jump\t// in\n    tag_449:\n      dup1\n      0x1f\n      add\n      0x20\n      dup1\n      swap2\n      div\n      mul\n      0x20\n      add\n      mload(0x40)\n      swap1\n      dup2\n      add\n      0x40\n      mstore\n      dup1\n      swap3\n      swap2\n      swap1\n      dup2\n      dup2\n      mstore\n      0x20\n      add\n      dup3\n      dup1\n      sload\n      tag_450\n      swap1\n      tag_203\n      jump\t// in\n    tag_450:\n      dup1\n      iszero\n      tag_451\n      jumpi\n      dup1\n      0x1f\n      lt\n      tag_452\n      jumpi\n      0x0100\n      dup1\n      dup4\n      sload\n      div\n      mul\n      dup4\n      mstore\n      swap2\n      0x20\n      add\n      swap2\n      jump(tag_451)\n    tag_452:\n      dup3\n      add\n      swap2\n      swap1\n      0x00\n      mstore\n      keccak256(0x00, 0x20)\n      swap1\n    tag_453:\n      dup2\n      sload\n      dup2\n      mstore\n      swap1\n      0x01\n      add\n      swap1\n      0x20\n      add\n      dup1\n      dup4\n      gt\n      tag_453\n      jumpi\n      dup3\n      swap1\n      sub\n      0x1f\n      and\n      dup3\n      add\n      swap2\n    tag_451:\n      pop\n      pop\n      pop\n      pop\n      pop\n      swap1\n      dup1\n      0x05\n      add\n      dup1\n      sload\n      tag_454\n      swap1\n      tag_203\n      jump\t// in\n    tag_454:\n      dup1\n      0x1f\n      add\n      0x20\n      dup1\n      swap2\n      div\n      mul\n      0x20\n      add\n      mload(0x40)\n      swap1\n      dup2\n      add\n      0x40\n      mstore\n      dup1\n      swap3\n      swap2\n      swap1\n      dup2\n      dup2\n      mstore\n      0x20\n      add\n      dup3\n      dup1\n      sload\n      tag_455\n      swap1\n      tag_203\n      jump\t// in\n    tag_455:\n      dup1\n      iszero\n      tag_456\n      jumpi\n      dup1\n      0x1f\n      lt\n      tag_457\n      jumpi\n      0x0100\n      dup1\n      dup4\n      sload\n      div\n      mul\n      dup4\n      mstore\n      swap2\n      0x20\n      add\n      swap2\n      jump(tag_456)\n    tag_457:\n      dup3\n      add\n      swap2\n      swap1\n      0x00\n      mstore\n      keccak256(0x00, 0x20)\n      swap1\n    tag_458:\n      dup2\n      sload\n      dup2\n      mstore\n      swap1\n      0x01\n      add\n      swap1\n      0x20\n      add\n      dup1\n      dup4\n      gt\n      tag_458\n      jumpi\n      dup3\n      swap1\n      sub\n      0x1f\n      and\n      dup3\n      add\n      swap2\n    tag_456:\n      pop\n      pop\n      pop\n      pop\n      pop\n      swap1\n      dup1\n      0x06\n      add\n      0x00\n      swap1\n      sload\n      swap1\n      0x0100\n      exp\n      swap1\n      div\n      0xffffffffffffffffffffffffffffffffffffffff\n      and\n      swap1\n      pop\n      dup8\n      jump\t// out\n        /* \"Aggregator.sol\":1315:1571  function aggregatorReceiveFromSupplier(bytes32 cropID, string calldata date) external onlyAggregator {... */\n    tag_179:\n        /* \"Aggregator.sol\":885:896  aggregators */\n      0x09\n        /* \"Aggregator.sol\":885:908  aggregators[msg.sender] */\n      0x00\n        /* \"Aggregator.sol\":897:907  msg.sender */\n      caller\n        /* \"Aggregator.sol\":885:908  aggregators[msg.sender] */\n      0xffffffffffffffffffffffffffffffffffffffff\n      and\n      0xffffffffffffffffffffffffffffffffffffffff\n      and\n      dup2\n      mstore\n      0x20\n      add\n      swap1\n      dup2\n      mstore\n      0x20\n      add\n      0x00\n      keccak256\n      0x00\n      swap1\n      sload\n      swap1\n      0x0100\n      exp\n      swap1\n      div\n      0xff\n      and\n        /* \"Aggregator.sol\":877:928  require(aggregators[msg.sender], \"Only aggregator\") */\n      tag_460\n      jumpi\n      mload(0x40)\n      0x08c379a000000000000000000000000000000000000000000000000000000000\n      dup2\n      mstore\n      0x04\n      add\n      tag_461\n      swap1\n      tag_256\n      jump\t// in\n    tag_461:\n      mload(0x40)\n      dup1\n      swap2\n      sub\n      swap1\n      revert\n    tag_460:\n        /* \"Aggregator.sol\":1445:1507  AggregatedBatch(cropID, true, date, false, \"\", \"\", msg.sender) */\n      mload(0x40)\n      dup1\n      0xe0\n      add\n      0x40\n      mstore\n      dup1\n        /* \"Aggregator.sol\":1461:1467  cropID */\n      dup5\n        /* \"Aggregator.sol\":1445:1507  AggregatedBatch(cropID, true, date, false, \"\", \"\", msg.sender) */\n      dup2\n      mstore\n      0x20\n      add\n        /* \"Aggregator.sol\":1469:1473  true */\n      0x01\n        /* \"Aggregator.sol\":1445:1507  AggregatedBatch(cropID, true, date, false, \"\", \"\", msg.sender) */\n      iszero\n      iszero\n      dup2\n      mstore\n      0x20\n      add\n        /* \"Aggregator.sol\":1475:1479  date */\n      dup4\n      dup4\n        /* \"Aggregator.sol\":1445:1507  AggregatedBatch(cropID, true, date, false, \"\", \"\", msg.sender) */\n      dup1\n      dup1\n      0x1f\n      add\n      0x20\n      dup1\n      swap2\n      div\n      mul\n      0x20\n      add\n      mload(0x40)\n      swap1\n      dup2\n      add\n      0x40\n      mstore\n      dup1\n      swap4\n      swap3\n      swap2\n      swap1\n      dup2\n      dup2\n      mstore\n      0x20\n      add\n      dup4\n      dup4\n      dup1\n      dup3\n      dup5\n      calldatacopy\n      0x00\n      dup2\n      dup5\n      add\n      mstore\n      not(0x1f)\n      0x1f\n      dup3\n      add\n      and\n      swap1\n      pop\n      dup1\n      dup4\n      add\n      swap3\n      pop\n      pop\n      pop\n      pop\n      pop\n      pop\n      pop\n      dup2\n      mstore\n      0x20\n      add\n        /* \"Aggregator.sol\":1481:1486  false */\n      0x00\n        /* \"Aggregator.sol\":1445:1507  AggregatedBatch(cropID, true, date, false, \"\", \"\", msg.sender) */\n      iszero\n      iszero\n      dup2\n      mstore\n      0x20\n      add\n      mload(0x40)\n      dup1\n      0x20\n      add\n      0x40\n      mstore\n      dup1\n      0x00\n      dup2\n      mstore\n      pop\n      dup2\n      mstore\n      0x20\n      add\n      mload(0x40)\n      dup1\n      0x20\n      add\n      0x40\n      mstore\n      dup1\n      0x00\n      dup2\n      mstore\n      pop\n      dup2\n      mstore\n      0x20\n      add\n        /* \"Aggregator.sol\":1496:1506  msg.sender */\n      caller\n        /* \"Aggregator.sol\":1445:1507  AggregatedBatch(cropID, true, date, false, \"\", \"\", msg.sender) */\n      0xffffffffffffffffffffffffffffffffffffffff\n      and\n      dup2\n      mstore\n      pop\n        /* \"Aggregator.sol\":1427:1434  batches */\n      0x0b\n        /* \"Aggregator.sol\":1427:1442  batches[cropID] */\n      0x00\n        /* \"Aggregator.sol\":1435:1441  cropID */\n      dup6\n        /* \"Aggregator.sol\":1427:1442  batches[cropID] */\n      dup2\n      mstore\n      0x20\n      add\n      swap1\n      dup2\n      mstore\n      0x20\n      add\n      0x00\n      keccak256\n        /* \"Aggregator.sol\":1427:1507  batches[cropID] = AggregatedBatch(cropID, true, date, false, \"\", \"\", msg.sender) */\n      0x00\n      dup3\n      add\n      mload\n      dup2\n      0x00\n      add\n      sstore\n      0x20\n      dup3\n      add\n      mload\n      dup2\n      0x01\n      add\n      exp(0x0100, 0x00)\n      dup2\n      sload\n      dup2\n      0xff\n      mul\n      not\n      and\n      swap1\n      dup4\n      iszero\n      iszero\n      mul\n      or\n      swap1\n      sstore\n      pop\n      0x40\n      dup3\n      add\n      mload\n      dup2\n      0x02\n      add\n      swap1\n      dup2\n      tag_463\n      swap2\n      swap1\n      tag_230\n      jump\t// in\n    tag_463:\n      pop\n      0x60\n      dup3\n      add\n      mload\n      dup2\n      0x03\n      add\n      exp(0x0100, 0x00)\n      dup2\n      sload\n      dup2\n      0xff\n      mul\n      not\n      and\n      swap1\n      dup4\n      iszero\n      iszero\n      mul\n      or\n      swap1\n      sstore\n      pop\n      0x80\n      dup3\n      add\n      mload\n      dup2\n      0x04\n      add\n      swap1\n      dup2\n      tag_464\n      swap2\n      swap1\n      tag_230\n      jump\t// in\n    tag_464:\n      pop\n      0xa0\n      dup3\n      add\n      mload\n      dup2\n      0x05\n      add\n      swap1\n      dup2\n      tag_465\n      swap2\n      swap1\n      tag_230\n      jump\t// in\n    tag_465:\n      pop\n      0xc0\n      dup3\n      add\n      mload\n      dup2\n      0x06\n      add\n      exp(0x0100, 0x00)\n      dup2\n      sload\n      dup2\n      0xffffffffffffffffffffffffffffffffffffffff\n      mul\n      not\n      and\n      swap1\n      dup4\n      0xffffffffffffffffffffffffffffffffffffffff\n      and\n      mul\n      or\n      swap1\n      sstore\n      pop\n      swap1\n      pop\n      pop\n        /* \"Aggregator.sol\":1523:1563  ReceivedFromSupplier(cropID, msg.sender) */\n      0x3da11207acef64a8ef6a06e530a71956f123355b74d421e1883e3d3ce94c92c1\n        /* \"Aggregator.sol\":1544:1550  cropID */\n      dup4\n        /* \"Aggregator.sol\":1552:1562  msg.sender */\n      caller\n        /* \"Aggregator.sol\":1523:1563  ReceivedFromSupplier(cropID, msg.sender) */\n      mload(0x40)\n      tag_466\n      swap3\n      swap2\n      swap1\n      tag_307\n      jump\t// in\n    tag_466:\n      mload(0x40)\n      dup1\n      swap2\n      sub\n      swap1\n      log1\n        /* \"Aggregator.sol\":1315:1571  function aggregatorReceiveFromSupplier(bytes32 cropID, string calldata date) external onlyAggregator {... */\n      pop\n      pop\n      pop\n      jump\t// out\n        /* \"TrackSupplyChain.sol\":955:1588  function updateFreshness(... */\n    tag_183:\n        /* \"TrackSupplyChain.sol\":1306:1481  FreshnessData({... */\n      mload(0x40)\n      dup1\n      0x80\n      add\n      0x40\n      mstore\n      dup1\n        /* \"TrackSupplyChain.sol\":1345:1354  _gasValue */\n      dup5\n        /* \"TrackSupplyChain.sol\":1306:1481  FreshnessData({... */\n      dup2\n      mstore\n      0x20\n      add\n        /* \"TrackSupplyChain.sol\":1382:1394  _temperature */\n      dup4\n        /* \"TrackSupplyChain.sol\":1306:1481  FreshnessData({... */\n      dup2\n      mstore\n      0x20\n      add\n        /* \"TrackSupplyChain.sol\":1419:1428  _humidity */\n      dup3\n        /* \"TrackSupplyChain.sol\":1306:1481  FreshnessData({... */\n      dup2\n      mstore\n      0x20\n      add\n        /* \"TrackSupplyChain.sol\":1454:1469  block.timestamp */\n      timestamp\n        /* \"TrackSupplyChain.sol\":1306:1481  FreshnessData({... */\n      dup2\n      mstore\n      pop\n        /* \"TrackSupplyChain.sol\":1275:1291  productFreshness */\n      0x13\n        /* \"TrackSupplyChain.sol\":1275:1303  productFreshness[_productId] */\n      0x00\n        /* \"TrackSupplyChain.sol\":1292:1302  _productId */\n      dup7\n        /* \"TrackSupplyChain.sol\":1275:1303  productFreshness[_productId] */\n      dup2\n      mstore\n      0x20\n      add\n      swap1\n      dup2\n      mstore\n      0x20\n      add\n      0x00\n      keccak256\n        /* \"TrackSupplyChain.sol\":1275:1481  productFreshness[_productId] = FreshnessData({... */\n      0x00\n      dup3\n      add\n      mload\n      dup2\n      0x00\n      add\n      sstore\n      0x20\n      dup3\n      add\n      mload\n      dup2\n      0x01\n      add\n      sstore\n      0x40\n      dup3\n      add\n      mload\n      dup2\n      0x02\n      add\n      sstore\n      0x60\n      dup3\n      add\n      mload\n      dup2\n      0x03\n      add\n      sstore\n      swap1\n      pop\n      pop\n        /* \"TrackSupplyChain.sol\":1516:1526  _productId */\n      dup4\n        /* \"TrackSupplyChain.sol\":1499:1580  FreshnessUpdated(_productId, _gasValue, _temperature, _humidity, block.timestamp) */\n      0x7ce2a33116d3ce50a5abafe23cf84fc634fa2ec50e9632cf280e3b7d770da4\n        /* \"TrackSupplyChain.sol\":1528:1537  _gasValue */\n      dup5\n        /* \"TrackSupplyChain.sol\":1539:1551  _temperature */\n      dup5\n        /* \"TrackSupplyChain.sol\":1553:1562  _humidity */\n      dup5\n        /* \"TrackSupplyChain.sol\":1564:1579  block.timestamp */\n      timestamp\n        /* \"TrackSupplyChain.sol\":1499:1580  FreshnessUpdated(_productId, _gasValue, _temperature, _humidity, block.timestamp) */\n      mload(0x40)\n      tag_468\n      swap5\n      swap4\n      swap3\n      swap2\n      swap1\n      tag_104\n      jump\t// in\n    tag_468:\n      mload(0x40)\n      dup1\n      swap2\n      sub\n      swap1\n      log2\n        /* \"TrackSupplyChain.sol\":955:1588  function updateFreshness(... */\n      pop\n      pop\n      pop\n      pop\n      jump\t// out\n        /* \"Farmer.sol\":944:965  uint public cropCount */\n    tag_185:\n      sload(0x05)\n      dup2\n      jump\t// out\n        /* \"Aggregator.sol\":942:1307  function registerAggregator(string calldata name, string calldata location, string calldata contact) external {... */\n    tag_190:\n        /* \"Aggregator.sol\":1072:1083  aggregators */\n      0x09\n        /* \"Aggregator.sol\":1072:1095  aggregators[msg.sender] */\n      0x00\n        /* \"Aggregator.sol\":1084:1094  msg.sender */\n      caller\n        /* \"Aggregator.sol\":1072:1095  aggregators[msg.sender] */\n      0xffffffffffffffffffffffffffffffffffffffff\n      and\n      0xffffffffffffffffffffffffffffffffffffffff\n      and\n      dup2\n      mstore\n      0x20\n      add\n      swap1\n      dup2\n      mstore\n      0x20\n      add\n      0x00\n      keccak256\n      0x00\n      swap1\n      sload\n      swap1\n      0x0100\n      exp\n      swap1\n      div\n      0xff\n      and\n        /* \"Aggregator.sol\":1071:1095  !aggregators[msg.sender] */\n      iszero\n        /* \"Aggregator.sol\":1063:1118  require(!aggregators[msg.sender], \"Already registered\") */\n      tag_470\n      jumpi\n      mload(0x40)\n      0x08c379a000000000000000000000000000000000000000000000000000000000\n      dup2\n      mstore\n      0x04\n      add\n      tag_471\n      swap1\n      tag_268\n      jump\t// in\n    tag_471:\n      mload(0x40)\n      dup1\n      swap2\n      sub\n      swap1\n      revert\n    tag_470:\n        /* \"Aggregator.sol\":1155:1159  true */\n      0x01\n        /* \"Aggregator.sol\":1129:1140  aggregators */\n      0x09\n        /* \"Aggregator.sol\":1129:1152  aggregators[msg.sender] */\n      0x00\n        /* \"Aggregator.sol\":1141:1151  msg.sender */\n      caller\n        /* \"Aggregator.sol\":1129:1152  aggregators[msg.sender] */\n      0xffffffffffffffffffffffffffffffffffffffff\n      and\n      0xffffffffffffffffffffffffffffffffffffffff\n      and\n      dup2\n      mstore\n      0x20\n      add\n      swap1\n      dup2\n      mstore\n      0x20\n      add\n      0x00\n      keccak256\n      0x00\n        /* \"Aggregator.sol\":1129:1159  aggregators[msg.sender] = true */\n      0x0100\n      exp\n      dup2\n      sload\n      dup2\n      0xff\n      mul\n      not\n      and\n      swap1\n      dup4\n      iszero\n      iszero\n      mul\n      or\n      swap1\n      sstore\n      pop\n        /* \"Aggregator.sol\":1203:1245  AggregatorProfile(name, location, contact) */\n      mload(0x40)\n      dup1\n      0x60\n      add\n      0x40\n      mstore\n      dup1\n        /* \"Aggregator.sol\":1221:1225  name */\n      dup8\n      dup8\n        /* \"Aggregator.sol\":1203:1245  AggregatorProfile(name, location, contact) */\n      dup1\n      dup1\n      0x1f\n      add\n      0x20\n      dup1\n      swap2\n      div\n      mul\n      0x20\n      add\n      mload(0x40)\n      swap1\n      dup2\n      add\n      0x40\n      mstore\n      dup1\n      swap4\n      swap3\n      swap2\n      swap1\n      dup2\n      dup2\n      mstore\n      0x20\n      add\n      dup4\n      dup4\n      dup1\n      dup3\n      dup5\n      calldatacopy\n      0x00\n      dup2\n      dup5\n      add\n      mstore\n      not(0x1f)\n      0x1f\n      dup3\n      add\n      and\n      swap1\n      pop\n      dup1\n      dup4\n      add\n      swap3\n      pop\n      pop\n      pop\n      pop\n      pop\n      pop\n      pop\n      dup2\n      mstore\n      0x20\n      add\n        /* \"Aggregator.sol\":1227:1235  location */\n      dup6\n      dup6\n        /* \"Aggregator.sol\":1203:1245  AggregatorProfile(name, location, contact) */\n      dup1\n      dup1\n      0x1f\n      add\n      0x20\n      dup1\n      swap2\n      div\n      mul\n      0x20\n      add\n      mload(0x40)\n      swap1\n      dup2\n      add\n      0x40\n      mstore\n      dup1\n      swap4\n      swap3\n      swap2\n      swap1\n      dup2\n      dup2\n      mstore\n      0x20\n      add\n      dup4\n      dup4\n      dup1\n      dup3\n      dup5\n      calldatacopy\n      0x00\n      dup2\n      dup5\n      add\n      mstore\n      not(0x1f)\n      0x1f\n      dup3\n      add\n      and\n      swap1\n      pop\n      dup1\n      dup4\n      add\n      swap3\n      pop\n      pop\n      pop\n      pop\n      pop\n      pop\n      pop\n      dup2\n      mstore\n      0x20\n      add\n        /* \"Aggregator.sol\":1237:1244  contact */\n      dup4\n      dup4\n        /* \"Aggregator.sol\":1203:1245  AggregatorProfile(name, location, contact) */\n      dup1\n      dup1\n      0x1f\n      add\n      0x20\n      dup1\n      swap2\n      div\n      mul\n      0x20\n      add\n      mload(0x40)\n      swap1\n      dup2\n      add\n      0x40\n      mstore\n      dup1\n      swap4\n      swap3\n      swap2\n      swap1\n      dup2\n      dup2\n      mstore\n      0x20\n      add\n      dup4\n      dup4\n      dup1\n      dup3\n      dup5\n      calldatacopy\n      0x00\n      dup2\n      dup5\n      add\n      mstore\n      not(0x1f)\n      0x1f\n      dup3\n      add\n      and\n      swap1\n      pop\n      dup1\n      dup4\n      add\n      swap3\n      pop\n      pop\n      pop\n      pop\n      pop\n      pop\n      pop\n      dup2\n      mstore\n      pop\n        /* \"Aggregator.sol\":1170:1188  aggregatorProfiles */\n      0x0a\n        /* \"Aggregator.sol\":1170:1200  aggregatorProfiles[msg.sender] */\n      0x00\n        /* \"Aggregator.sol\":1189:1199  msg.sender */\n      caller\n        /* \"Aggregator.sol\":1170:1200  aggregatorProfiles[msg.sender] */\n      0xffffffffffffffffffffffffffffffffffffffff\n      and\n      0xffffffffffffffffffffffffffffffffffffffff\n      and\n      dup2\n      mstore\n      0x20\n      add\n      swap1\n      dup2\n      mstore\n      0x20\n      add\n      0x00\n      keccak256\n        /* \"Aggregator.sol\":1170:1245  aggregatorProfiles[msg.sender] = AggregatorProfile(name, location, contact) */\n      0x00\n      dup3\n      add\n      mload\n      dup2\n      0x00\n      add\n      swap1\n      dup2\n      tag_472\n      swap2\n      swap1\n      tag_230\n      jump\t// in\n    tag_472:\n      pop\n      0x20\n      dup3\n      add\n      mload\n      dup2\n      0x01\n      add\n      swap1\n      dup2\n      tag_473\n      swap2\n      swap1\n      tag_230\n      jump\t// in\n    tag_473:\n      pop\n      0x40\n      dup3\n      add\n      mload\n      dup2\n      0x02\n      add\n      swap1\n      dup2\n      tag_474\n      swap2\n      swap1\n      tag_230\n      jump\t// in\n    tag_474:\n      pop\n      swap1\n      pop\n      pop\n        /* \"Aggregator.sol\":1261:1299  AggregatorRegistered(msg.sender, name) */\n      0xf326cfeee4a98cdaa20d4b3ea99e1d7ba56e0bc16159f422e5ef8a57fceb26\n        /* \"Aggregator.sol\":1282:1292  msg.sender */\n      caller\n        /* \"Aggregator.sol\":1294:1298  name */\n      dup8\n      dup8\n        /* \"Aggregator.sol\":1261:1299  AggregatorRegistered(msg.sender, name) */\n      mload(0x40)\n      tag_475\n      swap4\n      swap3\n      swap2\n      swap1\n      tag_273\n      jump\t// in\n    tag_475:\n      mload(0x40)\n      dup1\n      swap2\n      sub\n      swap1\n      log1\n        /* \"Aggregator.sol\":942:1307  function registerAggregator(string calldata name, string calldata location, string calldata contact) external {... */\n      pop\n      pop\n      pop\n      pop\n      pop\n      pop\n      jump\t// out\n        /* \"Farmer.sol\":853:892  mapping(uint => bytes32) public cropIDs */\n    tag_193:\n      mstore(0x20, 0x03)\n      dup1\n      0x00\n      mstore\n      keccak256(0x00, 0x40)\n      0x00\n      swap2\n      pop\n      swap1\n      pop\n      sload\n      dup2\n      jump\t// out\n        /* \"Supplier.sol\":666:708  mapping(bytes32 => Supply) public supplies */\n    tag_197:\n      mstore(0x20, 0x08)\n      dup1\n      0x00\n      mstore\n      keccak256(0x00, 0x40)\n      0x00\n      swap2\n      pop\n      swap1\n      pop\n      dup1\n      0x00\n      add\n      sload\n      swap1\n      dup1\n      0x01\n      add\n      sload\n      swap1\n      dup1\n      0x02\n      add\n      dup1\n      sload\n      tag_476\n      swap1\n      tag_203\n      jump\t// in\n    tag_476:\n      dup1\n      0x1f\n      add\n      0x20\n      dup1\n      swap2\n      div\n      mul\n      0x20\n      add\n      mload(0x40)\n      swap1\n      dup2\n      add\n      0x40\n      mstore\n      dup1\n      swap3\n      swap2\n      swap1\n      dup2\n      dup2\n      mstore\n      0x20\n      add\n      dup3\n      dup1\n      sload\n      tag_477\n      swap1\n      tag_203\n      jump\t// in\n    tag_477:\n      dup1\n      iszero\n      tag_478\n      jumpi\n      dup1\n      0x1f\n      lt\n      tag_479\n      jumpi\n      0x0100\n      dup1\n      dup4\n      sload\n      div\n      mul\n      dup4\n      mstore\n      swap2\n      0x20\n      add\n      swap2\n      jump(tag_478)\n    tag_479:\n      dup3\n      add\n      swap2\n      swap1\n      0x00\n      mstore\n      keccak256(0x00, 0x20)\n      swap1\n    tag_480:\n      dup2\n      sload\n      dup2\n      mstore\n      swap1\n      0x01\n      add\n      swap1\n      0x20\n      add\n      dup1\n      dup4\n      gt\n      tag_480\n      jumpi\n      dup3\n      swap1\n      sub\n      0x1f\n      and\n      dup3\n      add\n      swap2\n    tag_478:\n      pop\n      pop\n      pop\n      pop\n      pop\n      swap1\n      dup1\n      0x03\n      add\n      dup1\n      sload\n      tag_481\n      swap1\n      tag_203\n      jump\t// in\n    tag_481:\n      dup1\n      0x1f\n      add\n      0x20\n      dup1\n      swap2\n      div\n      mul\n      0x20\n      add\n      mload(0x40)\n      swap1\n      dup2\n      add\n      0x40\n      mstore\n      dup1\n      swap3\n      swap2\n      swap1\n      dup2\n      dup2\n      mstore\n      0x20\n      add\n      dup3\n      dup1\n      sload\n      tag_482\n      swap1\n      tag_203\n      jump\t// in\n    tag_482:\n      dup1\n      iszero\n      tag_483\n      jumpi\n      dup1\n      0x1f\n      lt\n      tag_484\n      jumpi\n      0x0100\n      dup1\n      dup4\n      sload\n      div\n      mul\n      dup4\n      mstore\n      swap2\n      0x20\n      add\n      swap2\n      jump(tag_483)\n    tag_484:\n      dup3\n      add\n      swap2\n      swap1\n      0x00\n      mstore\n      keccak256(0x00, 0x20)\n      swap1\n    tag_485:\n      dup2\n      sload\n      dup2\n      mstore\n      swap1\n      0x01\n      add\n      swap1\n      0x20\n      add\n      dup1\n      dup4\n      gt\n      tag_485\n      jumpi\n      dup3\n      swap1\n      sub\n      0x1f\n      and\n      dup3\n      add\n      swap2\n    tag_483:\n      pop\n      pop\n      pop\n      pop\n      pop\n      swap1\n      dup1\n      0x04\n      add\n      0x00\n      swap1\n      sload\n      swap1\n      0x0100\n      exp\n      swap1\n      div\n      0xffffffffffffffffffffffffffffffffffffffff\n      and\n      swap1\n      pop\n      dup6\n      jump\t// out\n        /* \"Customer.sol\":717:1070  function registerCustomer(string calldata name, string calldata location, string calldata contact) external {... */\n    tag_201:\n        /* \"Customer.sol\":845:854  customers */\n      0x0f\n        /* \"Customer.sol\":845:866  customers[msg.sender] */\n      0x00\n        /* \"Customer.sol\":855:865  msg.sender */\n      caller\n        /* \"Customer.sol\":845:866  customers[msg.sender] */\n      0xffffffffffffffffffffffffffffffffffffffff\n      and\n      0xffffffffffffffffffffffffffffffffffffffff\n      and\n      dup2\n      mstore\n      0x20\n      add\n      swap1\n      dup2\n      mstore\n      0x20\n      add\n      0x00\n      keccak256\n      0x00\n      swap1\n      sload\n      swap1\n      0x0100\n      exp\n      swap1\n      div\n      0xff\n      and\n        /* \"Customer.sol\":844:866  !customers[msg.sender] */\n      iszero\n        /* \"Customer.sol\":836:889  require(!customers[msg.sender], \"Already registered\") */\n      tag_487\n      jumpi\n      mload(0x40)\n      0x08c379a000000000000000000000000000000000000000000000000000000000\n      dup2\n      mstore\n      0x04\n      add\n      tag_488\n      swap1\n      tag_268\n      jump\t// in\n    tag_488:\n      mload(0x40)\n      dup1\n      swap2\n      sub\n      swap1\n      revert\n    tag_487:\n        /* \"Customer.sol\":924:928  true */\n      0x01\n        /* \"Customer.sol\":900:909  customers */\n      0x0f\n        /* \"Customer.sol\":900:921  customers[msg.sender] */\n      0x00\n        /* \"Customer.sol\":910:920  msg.sender */\n      caller\n        /* \"Customer.sol\":900:921  customers[msg.sender] */\n      0xffffffffffffffffffffffffffffffffffffffff\n      and\n      0xffffffffffffffffffffffffffffffffffffffff\n      and\n      dup2\n      mstore\n      0x20\n      add\n      swap1\n      dup2\n      mstore\n      0x20\n      add\n      0x00\n      keccak256\n      0x00\n        /* \"Customer.sol\":900:928  customers[msg.sender] = true */\n      0x0100\n      exp\n      dup2\n      sload\n      dup2\n      0xff\n      mul\n      not\n      and\n      swap1\n      dup4\n      iszero\n      iszero\n      mul\n      or\n      swap1\n      sstore\n      pop\n        /* \"Customer.sol\":970:1010  CustomerProfile(name, location, contact) */\n      mload(0x40)\n      dup1\n      0x60\n      add\n      0x40\n      mstore\n      dup1\n        /* \"Customer.sol\":986:990  name */\n      dup8\n      dup8\n        /* \"Customer.sol\":970:1010  CustomerProfile(name, location, contact) */\n      dup1\n      dup1\n      0x1f\n      add\n      0x20\n      dup1\n      swap2\n      div\n      mul\n      0x20\n      add\n      mload(0x40)\n      swap1\n      dup2\n      add\n      0x40\n      mstore\n      dup1\n      swap4\n      swap3\n      swap2\n      swap1\n      dup2\n      dup2\n      mstore\n      0x20\n      add\n      dup4\n      dup4\n      dup1\n      dup3\n      dup5\n      calldatacopy\n      0x00\n      dup2\n      dup5\n      add\n      mstore\n      not(0x1f)\n      0x1f\n      dup3\n      add\n      and\n      swap1\n      pop\n      dup1\n      dup4\n      add\n      swap3\n      pop\n      pop\n      pop\n      pop\n      pop\n      pop\n      pop\n      dup2\n      mstore\n      0x20\n      add\n        /* \"Customer.sol\":992:1000  location */\n      dup6\n      dup6\n        /* \"Customer.sol\":970:1010  CustomerProfile(name, location, contact) */\n      dup1\n      dup1\n      0x1f\n      add\n      0x20\n      dup1\n      swap2\n      div\n      mul\n      0x20\n      add\n      mload(0x40)\n      swap1\n      dup2\n      add\n      0x40\n      mstore\n      dup1\n      swap4\n      swap3\n      swap2\n      swap1\n      dup2\n      dup2\n      mstore\n      0x20\n      add\n      dup4\n      dup4\n      dup1\n      dup3\n      dup5\n      calldatacopy\n      0x00\n      dup2\n      dup5\n      add\n      mstore\n      not(0x1f)\n      0x1f\n      dup3\n      add\n      and\n      swap1\n      pop\n      dup1\n      dup4\n      add\n      swap3\n      pop\n      pop\n      pop\n      pop\n      pop\n      pop\n      pop\n      dup2\n      mstore\n      0x20\n      add\n        /* \"Customer.sol\":1002:1009  contact */\n      dup4\n      dup4\n        /* \"Customer.sol\":970:1010  CustomerProfile(name, location, contact) */\n      dup1\n      dup1\n      0x1f\n      add\n      0x20\n      dup1\n      swap2\n      div\n      mul\n      0x20\n      add\n      mload(0x40)\n      swap1\n      dup2\n      add\n      0x40\n      mstore\n      dup1\n      swap4\n      swap3\n      swap2\n      swap1\n      dup2\n      dup2\n      mstore\n      0x20\n      add\n      dup4\n      dup4\n      dup1\n      dup3\n      dup5\n      calldatacopy\n      0x00\n      dup2\n      dup5\n      add\n      mstore\n      not(0x1f)\n      0x1f\n      dup3\n      add\n      and\n      swap1\n      pop\n      dup1\n      dup4\n      add\n      swap3\n      pop\n      pop\n      pop\n      pop\n      pop\n      pop\n      pop\n      dup2\n      mstore\n      pop\n        /* \"Customer.sol\":939:955  customerProfiles */\n      0x10\n        /* \"Customer.sol\":939:967  customerProfiles[msg.sender] */\n      0x00\n        /* \"Customer.sol\":956:966  msg.sender */\n      caller\n        /* \"Customer.sol\":939:967  customerProfiles[msg.sender] */\n      0xffffffffffffffffffffffffffffffffffffffff\n      and\n      0xffffffffffffffffffffffffffffffffffffffff\n      and\n      dup2\n      mstore\n      0x20\n      add\n      swap1\n      dup2\n      mstore\n      0x20\n      add\n      0x00\n      keccak256\n        /* \"Customer.sol\":939:1010  customerProfiles[msg.sender] = CustomerProfile(name, location, contact) */\n      0x00\n      dup3\n      add\n      mload\n      dup2\n      0x00\n      add\n      swap1\n      dup2\n      tag_489\n      swap2\n      swap1\n      tag_230\n      jump\t// in\n    tag_489:\n      pop\n      0x20\n      dup3\n      add\n      mload\n      dup2\n      0x01\n      add\n      swap1\n      dup2\n      tag_490\n      swap2\n      swap1\n      tag_230\n      jump\t// in\n    tag_490:\n      pop\n      0x40\n      dup3\n      add\n      mload\n      dup2\n      0x02\n      add\n      swap1\n      dup2\n      tag_491\n      swap2\n      swap1\n      tag_230\n      jump\t// in\n    tag_491:\n      pop\n      swap1\n      pop\n      pop\n        /* \"Customer.sol\":1026:1062  CustomerRegistered(msg.sender, name) */\n      0x2bf7863d4068dda3123298d02ee28530519d2e96eaab6784f5f0b6184ddd2015\n        /* \"Customer.sol\":1045:1055  msg.sender */\n      caller\n        /* \"Customer.sol\":1057:1061  name */\n      dup8\n      dup8\n        /* \"Customer.sol\":1026:1062  CustomerRegistered(msg.sender, name) */\n      mload(0x40)\n      tag_492\n      swap4\n      swap3\n      swap2\n      swap1\n      tag_273\n      jump\t// in\n    tag_492:\n      mload(0x40)\n      dup1\n      swap2\n      sub\n      swap1\n      log1\n        /* \"Customer.sol\":717:1070  function registerCustomer(string calldata name, string calldata location, string calldata contact) external {... */\n      pop\n      pop\n      pop\n      pop\n      pop\n      pop\n      jump\t// out\n        /* \"Farmer.sol\":1404:1651  function _generateUniqueCropID(uint seed) internal returns (bytes32) {... */\n    tag_345:\n        /* \"Farmer.sol\":1464:1471  bytes32 */\n      0x00\n        /* \"Farmer.sol\":1484:1494  bytes32 id */\n      0x00\n        /* \"Farmer.sol\":1497:1567  sha256(abi.encodePacked(seed, block.timestamp, msg.sender, cropCount)) */\n      0x02\n        /* \"Farmer.sol\":1521:1525  seed */\n      dup4\n        /* \"Farmer.sol\":1527:1542  block.timestamp */\n      timestamp\n        /* \"Farmer.sol\":1544:1554  msg.sender */\n      caller\n        /* \"Farmer.sol\":1556:1565  cropCount */\n      sload(0x05)\n        /* \"Farmer.sol\":1504:1566  abi.encodePacked(seed, block.timestamp, msg.sender, cropCount) */\n      add(0x20, mload(0x40))\n      tag_494\n      swap5\n      swap4\n      swap3\n      swap2\n      swap1\n      tag_495\n      jump\t// in\n    tag_494:\n      mload(0x40)\n      0x20\n      dup2\n      dup4\n      sub\n      sub\n      dup2\n      mstore\n      swap1\n      0x40\n      mstore\n        /* \"Farmer.sol\":1497:1567  sha256(abi.encodePacked(seed, block.timestamp, msg.sender, cropCount)) */\n      mload(0x40)\n      tag_496\n      swap2\n      swap1\n      tag_497\n      jump\t// in\n    tag_496:\n      0x20\n      mload(0x40)\n      dup1\n      dup4\n      sub\n      dup2\n      dup6\n      gas\n      staticcall\n      iszero\n      dup1\n      iszero\n      tag_499\n      jumpi\n      returndatacopy(0x00, 0x00, returndatasize)\n      revert(0x00, returndatasize)\n    tag_499:\n      pop\n      pop\n      pop\n      mload(0x40)\n      returndatasize\n      not(0x1f)\n      0x1f\n      dup3\n      add\n      and\n      dup3\n      add\n      dup1\n      0x40\n      mstore\n      pop\n      dup2\n      add\n      swap1\n      tag_500\n      swap2\n      swap1\n      tag_501\n      jump\t// in\n    tag_500:\n        /* \"Farmer.sol\":1484:1567  bytes32 id = sha256(abi.encodePacked(seed, block.timestamp, msg.sender, cropCount)) */\n      swap1\n      pop\n        /* \"Farmer.sol\":1599:1601  id */\n      dup1\n        /* \"Farmer.sol\":1578:1585  cropIDs */\n      0x03\n        /* \"Farmer.sol\":1578:1596  cropIDs[cropCount] */\n      0x00\n        /* \"Farmer.sol\":1586:1595  cropCount */\n      sload(0x05)\n        /* \"Farmer.sol\":1578:1596  cropIDs[cropCount] */\n      dup2\n      mstore\n      0x20\n      add\n      swap1\n      dup2\n      mstore\n      0x20\n      add\n      0x00\n      keccak256\n        /* \"Farmer.sol\":1578:1601  cropIDs[cropCount] = id */\n      dup2\n      swap1\n      sstore\n      pop\n        /* \"Farmer.sol\":1612:1621  cropCount */\n      0x05\n      0x00\n        /* \"Farmer.sol\":1612:1623  cropCount++ */\n      dup2\n      sload\n      dup1\n      swap3\n      swap2\n      swap1\n      tag_502\n      swap1\n      tag_503\n      jump\t// in\n    tag_502:\n      swap2\n      swap1\n      pop\n      sstore\n      pop\n        /* \"Farmer.sol\":1641:1643  id */\n      dup1\n        /* \"Farmer.sol\":1634:1643  return id */\n      swap2\n      pop\n      pop\n        /* \"Farmer.sol\":1404:1651  function _generateUniqueCropID(uint seed) internal returns (bytes32) {... */\n      swap2\n      swap1\n      pop\n      jump\t// out\n        /* \"#utility.yul\":88:205   */\n    tag_505:\n        /* \"#utility.yul\":197:198   */\n      0x00\n        /* \"#utility.yul\":194:195   */\n      0x00\n        /* \"#utility.yul\":187:199   */\n      revert\n        /* \"#utility.yul\":211:328   */\n    tag_506:\n        /* \"#utility.yul\":320:321   */\n      0x00\n        /* \"#utility.yul\":317:318   */\n      0x00\n        /* \"#utility.yul\":310:322   */\n      revert\n        /* \"#utility.yul\":334:460   */\n    tag_507:\n        /* \"#utility.yul\":371:378   */\n      0x00\n        /* \"#utility.yul\":411:453   */\n      0xffffffffffffffffffffffffffffffffffffffff\n        /* \"#utility.yul\":404:409   */\n      dup3\n        /* \"#utility.yul\":400:454   */\n      and\n        /* \"#utility.yul\":389:454   */\n      swap1\n      pop\n        /* \"#utility.yul\":334:460   */\n      swap2\n      swap1\n      pop\n      jump\t// out\n        /* \"#utility.yul\":466:562   */\n    tag_508:\n        /* \"#utility.yul\":503:510   */\n      0x00\n        /* \"#utility.yul\":532:556   */\n      tag_594\n        /* \"#utility.yul\":550:555   */\n      dup3\n        /* \"#utility.yul\":532:556   */\n      tag_507\n      jump\t// in\n    tag_594:\n        /* \"#utility.yul\":521:556   */\n      swap1\n      pop\n        /* \"#utility.yul\":466:562   */\n      swap2\n      swap1\n      pop\n      jump\t// out\n        /* \"#utility.yul\":568:690   */\n    tag_509:\n        /* \"#utility.yul\":641:665   */\n      tag_596\n        /* \"#utility.yul\":659:664   */\n      dup2\n        /* \"#utility.yul\":641:665   */\n      tag_508\n      jump\t// in\n    tag_596:\n        /* \"#utility.yul\":634:639   */\n      dup2\n        /* \"#utility.yul\":631:666   */\n      eq\n        /* \"#utility.yul\":621:684   */\n      tag_597\n      jumpi\n        /* \"#utility.yul\":680:681   */\n      0x00\n        /* \"#utility.yul\":677:678   */\n      0x00\n        /* \"#utility.yul\":670:682   */\n      revert\n        /* \"#utility.yul\":621:684   */\n    tag_597:\n        /* \"#utility.yul\":568:690   */\n      pop\n      jump\t// out\n        /* \"#utility.yul\":696:835   */\n    tag_510:\n        /* \"#utility.yul\":742:747   */\n      0x00\n        /* \"#utility.yul\":780:786   */\n      dup2\n        /* \"#utility.yul\":767:787   */\n      calldataload\n        /* \"#utility.yul\":758:787   */\n      swap1\n      pop\n        /* \"#utility.yul\":796:829   */\n      tag_599\n        /* \"#utility.yul\":823:828   */\n      dup2\n        /* \"#utility.yul\":796:829   */\n      tag_509\n      jump\t// in\n    tag_599:\n        /* \"#utility.yul\":696:835   */\n      swap3\n      swap2\n      pop\n      pop\n      jump\t// out\n        /* \"#utility.yul\":841:1170   */\n    tag_50:\n        /* \"#utility.yul\":900:906   */\n      0x00\n        /* \"#utility.yul\":949:951   */\n      0x20\n        /* \"#utility.yul\":937:946   */\n      dup3\n        /* \"#utility.yul\":928:935   */\n      dup5\n        /* \"#utility.yul\":924:947   */\n      sub\n        /* \"#utility.yul\":920:952   */\n      slt\n        /* \"#utility.yul\":917:1036   */\n      iszero\n      tag_601\n      jumpi\n        /* \"#utility.yul\":955:1034   */\n      tag_602\n      tag_505\n      jump\t// in\n    tag_602:\n        /* \"#utility.yul\":917:1036   */\n    tag_601:\n        /* \"#utility.yul\":1075:1076   */\n      0x00\n        /* \"#utility.yul\":1100:1153   */\n      tag_603\n        /* \"#utility.yul\":1145:1152   */\n      dup5\n        /* \"#utility.yul\":1136:1142   */\n      dup3\n        /* \"#utility.yul\":1125:1134   */\n      dup6\n        /* \"#utility.yul\":1121:1143   */\n      add\n        /* \"#utility.yul\":1100:1153   */\n      tag_510\n      jump\t// in\n    tag_603:\n        /* \"#utility.yul\":1090:1153   */\n      swap2\n      pop\n        /* \"#utility.yul\":1046:1163   */\n      pop\n        /* \"#utility.yul\":841:1170   */\n      swap3\n      swap2\n      pop\n      pop\n      jump\t// out\n        /* \"#utility.yul\":1176:1275   */\n    tag_511:\n        /* \"#utility.yul\":1228:1234   */\n      0x00\n        /* \"#utility.yul\":1262:1267   */\n      dup2\n        /* \"#utility.yul\":1256:1268   */\n      mload\n        /* \"#utility.yul\":1246:1268   */\n      swap1\n      pop\n        /* \"#utility.yul\":1176:1275   */\n      swap2\n      swap1\n      pop\n      jump\t// out\n        /* \"#utility.yul\":1281:1450   */\n    tag_512:\n        /* \"#utility.yul\":1365:1376   */\n      0x00\n        /* \"#utility.yul\":1399:1405   */\n      dup3\n        /* \"#utility.yul\":1394:1397   */\n      dup3\n        /* \"#utility.yul\":1387:1406   */\n      mstore\n        /* \"#utility.yul\":1439:1443   */\n      0x20\n        /* \"#utility.yul\":1434:1437   */\n      dup3\n        /* \"#utility.yul\":1430:1444   */\n      add\n        /* \"#utility.yul\":1415:1444   */\n      swap1\n      pop\n        /* \"#utility.yul\":1281:1450   */\n      swap3\n      swap2\n      pop\n      pop\n      jump\t// out\n        /* \"#utility.yul\":1456:1595   */\n    tag_513:\n        /* \"#utility.yul\":1545:1551   */\n      dup3\n        /* \"#utility.yul\":1540:1543   */\n      dup2\n        /* \"#utility.yul\":1535:1538   */\n      dup4\n        /* \"#utility.yul\":1529:1552   */\n      mcopy\n        /* \"#utility.yul\":1586:1587   */\n      0x00\n        /* \"#utility.yul\":1577:1583   */\n      dup4\n        /* \"#utility.yul\":1572:1575   */\n      dup4\n        /* \"#utility.yul\":1568:1584   */\n      add\n        /* \"#utility.yul\":1561:1588   */\n      mstore\n        /* \"#utility.yul\":1456:1595   */\n      pop\n      pop\n      pop\n      jump\t// out\n        /* \"#utility.yul\":1601:1703   */\n    tag_514:\n        /* \"#utility.yul\":1642:1648   */\n      0x00\n        /* \"#utility.yul\":1693:1695   */\n      0x1f\n        /* \"#utility.yul\":1689:1696   */\n      not\n        /* \"#utility.yul\":1684:1686   */\n      0x1f\n        /* \"#utility.yul\":1677:1682   */\n      dup4\n        /* \"#utility.yul\":1673:1687   */\n      add\n        /* \"#utility.yul\":1669:1697   */\n      and\n        /* \"#utility.yul\":1659:1697   */\n      swap1\n      pop\n        /* \"#utility.yul\":1601:1703   */\n      swap2\n      swap1\n      pop\n      jump\t// out\n        /* \"#utility.yul\":1709:2086   */\n    tag_515:\n        /* \"#utility.yul\":1797:1800   */\n      0x00\n        /* \"#utility.yul\":1825:1864   */\n      tag_609\n        /* \"#utility.yul\":1858:1863   */\n      dup3\n        /* \"#utility.yul\":1825:1864   */\n      tag_511\n      jump\t// in\n    tag_609:\n        /* \"#utility.yul\":1880:1951   */\n      tag_610\n        /* \"#utility.yul\":1944:1950   */\n      dup2\n        /* \"#utility.yul\":1939:1942   */\n      dup6\n        /* \"#utility.yul\":1880:1951   */\n      tag_512\n      jump\t// in\n    tag_610:\n        /* \"#utility.yul\":1873:1951   */\n      swap4\n      pop\n        /* \"#utility.yul\":1960:2025   */\n      tag_611\n        /* \"#utility.yul\":2018:2024   */\n      dup2\n        /* \"#utility.yul\":2013:2016   */\n      dup6\n        /* \"#utility.yul\":2006:2010   */\n      0x20\n        /* \"#utility.yul\":1999:2004   */\n      dup7\n        /* \"#utility.yul\":1995:2011   */\n      add\n        /* \"#utility.yul\":1960:2025   */\n      tag_513\n      jump\t// in\n    tag_611:\n        /* \"#utility.yul\":2050:2079   */\n      tag_612\n        /* \"#utility.yul\":2072:2078   */\n      dup2\n        /* \"#utility.yul\":2050:2079   */\n      tag_514\n      jump\t// in\n    tag_612:\n        /* \"#utility.yul\":2045:2048   */\n      dup5\n        /* \"#utility.yul\":2041:2080   */\n      add\n        /* \"#utility.yul\":2034:2080   */\n      swap2\n      pop\n        /* \"#utility.yul\":1801:2086   */\n      pop\n        /* \"#utility.yul\":1709:2086   */\n      swap3\n      swap2\n      pop\n      pop\n      jump\t// out\n        /* \"#utility.yul\":2092:2807   */\n    tag_53:\n        /* \"#utility.yul\":2301:2305   */\n      0x00\n        /* \"#utility.yul\":2339:2341   */\n      0x60\n        /* \"#utility.yul\":2328:2337   */\n      dup3\n        /* \"#utility.yul\":2324:2342   */\n      add\n        /* \"#utility.yul\":2316:2342   */\n      swap1\n      pop\n        /* \"#utility.yul\":2388:2397   */\n      dup2\n        /* \"#utility.yul\":2382:2386   */\n      dup2\n        /* \"#utility.yul\":2378:2398   */\n      sub\n        /* \"#utility.yul\":2374:2375   */\n      0x00\n        /* \"#utility.yul\":2363:2372   */\n      dup4\n        /* \"#utility.yul\":2359:2376   */\n      add\n        /* \"#utility.yul\":2352:2399   */\n      mstore\n        /* \"#utility.yul\":2416:2494   */\n      tag_614\n        /* \"#utility.yul\":2489:2493   */\n      dup2\n        /* \"#utility.yul\":2480:2486   */\n      dup7\n        /* \"#utility.yul\":2416:2494   */\n      tag_515\n      jump\t// in\n    tag_614:\n        /* \"#utility.yul\":2408:2494   */\n      swap1\n      pop\n        /* \"#utility.yul\":2541:2550   */\n      dup2\n        /* \"#utility.yul\":2535:2539   */\n      dup2\n        /* \"#utility.yul\":2531:2551   */\n      sub\n        /* \"#utility.yul\":2526:2528   */\n      0x20\n        /* \"#utility.yul\":2515:2524   */\n      dup4\n        /* \"#utility.yul\":2511:2529   */\n      add\n        /* \"#utility.yul\":2504:2552   */\n      mstore\n        /* \"#utility.yul\":2569:2647   */\n      tag_615\n        /* \"#utility.yul\":2642:2646   */\n      dup2\n        /* \"#utility.yul\":2633:2639   */\n      dup6\n        /* \"#utility.yul\":2569:2647   */\n      tag_515\n      jump\t// in\n    tag_615:\n        /* \"#utility.yul\":2561:2647   */\n      swap1\n      pop\n        /* \"#utility.yul\":2694:2703   */\n      dup2\n        /* \"#utility.yul\":2688:2692   */\n      dup2\n        /* \"#utility.yul\":2684:2704   */\n      sub\n        /* \"#utility.yul\":2679:2681   */\n      0x40\n        /* \"#utility.yul\":2668:2677   */\n      dup4\n        /* \"#utility.yul\":2664:2682   */\n      add\n        /* \"#utility.yul\":2657:2705   */\n      mstore\n        /* \"#utility.yul\":2722:2800   */\n      tag_616\n        /* \"#utility.yul\":2795:2799   */\n      dup2\n        /* \"#utility.yul\":2786:2792   */\n      dup5\n        /* \"#utility.yul\":2722:2800   */\n      tag_515\n      jump\t// in\n    tag_616:\n        /* \"#utility.yul\":2714:2800   */\n      swap1\n      pop\n        /* \"#utility.yul\":2092:2807   */\n      swap5\n      swap4\n      pop\n      pop\n      pop\n      pop\n      jump\t// out\n        /* \"#utility.yul\":2813:2890   */\n    tag_516:\n        /* \"#utility.yul\":2850:2857   */\n      0x00\n        /* \"#utility.yul\":2879:2884   */\n      dup2\n        /* \"#utility.yul\":2868:2884   */\n      swap1\n      pop\n        /* \"#utility.yul\":2813:2890   */\n      swap2\n      swap1\n      pop\n      jump\t// out\n        /* \"#utility.yul\":2896:3018   */\n    tag_517:\n        /* \"#utility.yul\":2969:2993   */\n      tag_619\n        /* \"#utility.yul\":2987:2992   */\n      dup2\n        /* \"#utility.yul\":2969:2993   */\n      tag_516\n      jump\t// in\n    tag_619:\n        /* \"#utility.yul\":2962:2967   */\n      dup2\n        /* \"#utility.yul\":2959:2994   */\n      eq\n        /* \"#utility.yul\":2949:3012   */\n      tag_620\n      jumpi\n        /* \"#utility.yul\":3008:3009   */\n      0x00\n        /* \"#utility.yul\":3005:3006   */\n      0x00\n        /* \"#utility.yul\":2998:3010   */\n      revert\n        /* \"#utility.yul\":2949:3012   */\n    tag_620:\n        /* \"#utility.yul\":2896:3018   */\n      pop\n      jump\t// out\n        /* \"#utility.yul\":3024:3163   */\n    tag_518:\n        /* \"#utility.yul\":3070:3075   */\n      0x00\n        /* \"#utility.yul\":3108:3114   */\n      dup2\n        /* \"#utility.yul\":3095:3115   */\n      calldataload\n        /* \"#utility.yul\":3086:3115   */\n      swap1\n      pop\n        /* \"#utility.yul\":3124:3157   */\n      tag_622\n        /* \"#utility.yul\":3151:3156   */\n      dup2\n        /* \"#utility.yul\":3124:3157   */\n      tag_517\n      jump\t// in\n    tag_622:\n        /* \"#utility.yul\":3024:3163   */\n      swap3\n      swap2\n      pop\n      pop\n      jump\t// out\n        /* \"#utility.yul\":3169:3286   */\n    tag_519:\n        /* \"#utility.yul\":3278:3279   */\n      0x00\n        /* \"#utility.yul\":3275:3276   */\n      0x00\n        /* \"#utility.yul\":3268:3280   */\n      revert\n        /* \"#utility.yul\":3292:3409   */\n    tag_520:\n        /* \"#utility.yul\":3401:3402   */\n      0x00\n        /* \"#utility.yul\":3398:3399   */\n      0x00\n        /* \"#utility.yul\":3391:3403   */\n      revert\n        /* \"#utility.yul\":3415:3532   */\n    tag_521:\n        /* \"#utility.yul\":3524:3525   */\n      0x00\n        /* \"#utility.yul\":3521:3522   */\n      0x00\n        /* \"#utility.yul\":3514:3526   */\n      revert\n        /* \"#utility.yul\":3552:4105   */\n    tag_522:\n        /* \"#utility.yul\":3610:3618   */\n      0x00\n        /* \"#utility.yul\":3620:3626   */\n      0x00\n        /* \"#utility.yul\":3670:3673   */\n      dup4\n        /* \"#utility.yul\":3663:3667   */\n      0x1f\n        /* \"#utility.yul\":3655:3661   */\n      dup5\n        /* \"#utility.yul\":3651:3668   */\n      add\n        /* \"#utility.yul\":3647:3674   */\n      slt\n        /* \"#utility.yul\":3637:3759   */\n      tag_627\n      jumpi\n        /* \"#utility.yul\":3678:3757   */\n      tag_628\n      tag_519\n      jump\t// in\n    tag_628:\n        /* \"#utility.yul\":3637:3759   */\n    tag_627:\n        /* \"#utility.yul\":3791:3797   */\n      dup3\n        /* \"#utility.yul\":3778:3798   */\n      calldataload\n        /* \"#utility.yul\":3768:3798   */\n      swap1\n      pop\n        /* \"#utility.yul\":3821:3839   */\n      0xffffffffffffffff\n        /* \"#utility.yul\":3813:3819   */\n      dup2\n        /* \"#utility.yul\":3810:3840   */\n      gt\n        /* \"#utility.yul\":3807:3924   */\n      iszero\n      tag_629\n      jumpi\n        /* \"#utility.yul\":3843:3922   */\n      tag_630\n      tag_520\n      jump\t// in\n    tag_630:\n        /* \"#utility.yul\":3807:3924   */\n    tag_629:\n        /* \"#utility.yul\":3957:3961   */\n      0x20\n        /* \"#utility.yul\":3949:3955   */\n      dup4\n        /* \"#utility.yul\":3945:3962   */\n      add\n        /* \"#utility.yul\":3933:3962   */\n      swap2\n      pop\n        /* \"#utility.yul\":4011:4014   */\n      dup4\n        /* \"#utility.yul\":4003:4007   */\n      0x01\n        /* \"#utility.yul\":3995:4001   */\n      dup3\n        /* \"#utility.yul\":3991:4008   */\n      mul\n        /* \"#utility.yul\":3981:3989   */\n      dup4\n        /* \"#utility.yul\":3977:4009   */\n      add\n        /* \"#utility.yul\":3974:4015   */\n      gt\n        /* \"#utility.yul\":3971:4099   */\n      iszero\n      tag_631\n      jumpi\n        /* \"#utility.yul\":4018:4097   */\n      tag_632\n      tag_521\n      jump\t// in\n    tag_632:\n        /* \"#utility.yul\":3971:4099   */\n    tag_631:\n        /* \"#utility.yul\":3552:4105   */\n      swap3\n      pop\n      swap3\n      swap1\n      pop\n      jump\t// out\n        /* \"#utility.yul\":4111:4188   */\n    tag_523:\n        /* \"#utility.yul\":4148:4155   */\n      0x00\n        /* \"#utility.yul\":4177:4182   */\n      dup2\n        /* \"#utility.yul\":4166:4182   */\n      swap1\n      pop\n        /* \"#utility.yul\":4111:4188   */\n      swap2\n      swap1\n      pop\n      jump\t// out\n        /* \"#utility.yul\":4194:4316   */\n    tag_524:\n        /* \"#utility.yul\":4267:4291   */\n      tag_635\n        /* \"#utility.yul\":4285:4290   */\n      dup2\n        /* \"#utility.yul\":4267:4291   */\n      tag_523\n      jump\t// in\n    tag_635:\n        /* \"#utility.yul\":4260:4265   */\n      dup2\n        /* \"#utility.yul\":4257:4292   */\n      eq\n        /* \"#utility.yul\":4247:4310   */\n      tag_636\n      jumpi\n        /* \"#utility.yul\":4306:4307   */\n      0x00\n        /* \"#utility.yul\":4303:4304   */\n      0x00\n        /* \"#utility.yul\":4296:4308   */\n      revert\n        /* \"#utility.yul\":4247:4310   */\n    tag_636:\n        /* \"#utility.yul\":4194:4316   */\n      pop\n      jump\t// out\n        /* \"#utility.yul\":4322:4461   */\n    tag_525:\n        /* \"#utility.yul\":4368:4373   */\n      0x00\n        /* \"#utility.yul\":4406:4412   */\n      dup2\n        /* \"#utility.yul\":4393:4413   */\n      calldataload\n        /* \"#utility.yul\":4384:4413   */\n      swap1\n      pop\n        /* \"#utility.yul\":4422:4455   */\n      tag_638\n        /* \"#utility.yul\":4449:4454   */\n      dup2\n        /* \"#utility.yul\":4422:4455   */\n      tag_524\n      jump\t// in\n    tag_638:\n        /* \"#utility.yul\":4322:4461   */\n      swap3\n      swap2\n      pop\n      pop\n      jump\t// out\n        /* \"#utility.yul\":4467:5978   */\n    tag_56:\n        /* \"#utility.yul\":4598:4604   */\n      0x00\n        /* \"#utility.yul\":4606:4612   */\n      0x00\n        /* \"#utility.yul\":4614:4620   */\n      0x00\n        /* \"#utility.yul\":4622:4628   */\n      0x00\n        /* \"#utility.yul\":4630:4636   */\n      0x00\n        /* \"#utility.yul\":4638:4644   */\n      0x00\n        /* \"#utility.yul\":4646:4652   */\n      0x00\n        /* \"#utility.yul\":4654:4660   */\n      0x00\n        /* \"#utility.yul\":4703:4706   */\n      0xa0\n        /* \"#utility.yul\":4691:4700   */\n      dup10\n        /* \"#utility.yul\":4682:4689   */\n      dup12\n        /* \"#utility.yul\":4678:4701   */\n      sub\n        /* \"#utility.yul\":4674:4707   */\n      slt\n        /* \"#utility.yul\":4671:4791   */\n      iszero\n      tag_640\n      jumpi\n        /* \"#utility.yul\":4710:4789   */\n      tag_641\n      tag_505\n      jump\t// in\n    tag_641:\n        /* \"#utility.yul\":4671:4791   */\n    tag_640:\n        /* \"#utility.yul\":4830:4831   */\n      0x00\n        /* \"#utility.yul\":4855:4908   */\n      tag_642\n        /* \"#utility.yul\":4900:4907   */\n      dup12\n        /* \"#utility.yul\":4891:4897   */\n      dup3\n        /* \"#utility.yul\":4880:4889   */\n      dup13\n        /* \"#utility.yul\":4876:4898   */\n      add\n        /* \"#utility.yul\":4855:4908   */\n      tag_518\n      jump\t// in\n    tag_642:\n        /* \"#utility.yul\":4845:4908   */\n      swap9\n      pop\n        /* \"#utility.yul\":4801:4918   */\n      pop\n        /* \"#utility.yul\":4985:4987   */\n      0x20\n        /* \"#utility.yul\":4974:4983   */\n      dup10\n        /* \"#utility.yul\":4970:4988   */\n      add\n        /* \"#utility.yul\":4957:4989   */\n      calldataload\n        /* \"#utility.yul\":5016:5034   */\n      0xffffffffffffffff\n        /* \"#utility.yul\":5008:5014   */\n      dup2\n        /* \"#utility.yul\":5005:5035   */\n      gt\n        /* \"#utility.yul\":5002:5119   */\n      iszero\n      tag_643\n      jumpi\n        /* \"#utility.yul\":5038:5117   */\n      tag_644\n      tag_506\n      jump\t// in\n    tag_644:\n        /* \"#utility.yul\":5002:5119   */\n    tag_643:\n        /* \"#utility.yul\":5151:5216   */\n      tag_645\n        /* \"#utility.yul\":5208:5215   */\n      dup12\n        /* \"#utility.yul\":5199:5205   */\n      dup3\n        /* \"#utility.yul\":5188:5197   */\n      dup13\n        /* \"#utility.yul\":5184:5206   */\n      add\n        /* \"#utility.yul\":5151:5216   */\n      tag_522\n      jump\t// in\n    tag_645:\n        /* \"#utility.yul\":5133:5216   */\n      swap8\n      pop\n      swap8\n      pop\n        /* \"#utility.yul\":4928:5226   */\n      pop\n        /* \"#utility.yul\":5293:5295   */\n      0x40\n        /* \"#utility.yul\":5282:5291   */\n      dup10\n        /* \"#utility.yul\":5278:5296   */\n      add\n        /* \"#utility.yul\":5265:5297   */\n      calldataload\n        /* \"#utility.yul\":5324:5342   */\n      0xffffffffffffffff\n        /* \"#utility.yul\":5316:5322   */\n      dup2\n        /* \"#utility.yul\":5313:5343   */\n      gt\n        /* \"#utility.yul\":5310:5427   */\n      iszero\n      tag_646\n      jumpi\n        /* \"#utility.yul\":5346:5425   */\n      tag_647\n      tag_506\n      jump\t// in\n    tag_647:\n        /* \"#utility.yul\":5310:5427   */\n    tag_646:\n        /* \"#utility.yul\":5459:5524   */\n      tag_648\n        /* \"#utility.yul\":5516:5523   */\n      dup12\n        /* \"#utility.yul\":5507:5513   */\n      dup3\n        /* \"#utility.yul\":5496:5505   */\n      dup13\n        /* \"#utility.yul\":5492:5514   */\n      add\n        /* \"#utility.yul\":5459:5524   */\n      tag_522\n      jump\t// in\n    tag_648:\n        /* \"#utility.yul\":5441:5524   */\n      swap6\n      pop\n      swap6\n      pop\n        /* \"#utility.yul\":5236:5534   */\n      pop\n        /* \"#utility.yul\":5601:5603   */\n      0x60\n        /* \"#utility.yul\":5590:5599   */\n      dup10\n        /* \"#utility.yul\":5586:5604   */\n      add\n        /* \"#utility.yul\":5573:5605   */\n      calldataload\n        /* \"#utility.yul\":5632:5650   */\n      0xffffffffffffffff\n        /* \"#utility.yul\":5624:5630   */\n      dup2\n        /* \"#utility.yul\":5621:5651   */\n      gt\n        /* \"#utility.yul\":5618:5735   */\n      iszero\n      tag_649\n      jumpi\n        /* \"#utility.yul\":5654:5733   */\n      tag_650\n      tag_506\n      jump\t// in\n    tag_650:\n        /* \"#utility.yul\":5618:5735   */\n    tag_649:\n        /* \"#utility.yul\":5767:5832   */\n      tag_651\n        /* \"#utility.yul\":5824:5831   */\n      dup12\n        /* \"#utility.yul\":5815:5821   */\n      dup3\n        /* \"#utility.yul\":5804:5813   */\n      dup13\n        /* \"#utility.yul\":5800:5822   */\n      add\n        /* \"#utility.yul\":5767:5832   */\n      tag_522\n      jump\t// in\n    tag_651:\n        /* \"#utility.yul\":5749:5832   */\n      swap4\n      pop\n      swap4\n      pop\n        /* \"#utility.yul\":5544:5842   */\n      pop\n        /* \"#utility.yul\":5881:5884   */\n      0x80\n        /* \"#utility.yul\":5908:5961   */\n      tag_652\n        /* \"#utility.yul\":5953:5960   */\n      dup12\n        /* \"#utility.yul\":5944:5950   */\n      dup3\n        /* \"#utility.yul\":5933:5942   */\n      dup13\n        /* \"#utility.yul\":5929:5951   */\n      add\n        /* \"#utility.yul\":5908:5961   */\n      tag_525\n      jump\t// in\n    tag_652:\n        /* \"#utility.yul\":5898:5961   */\n      swap2\n      pop\n        /* \"#utility.yul\":5852:5971   */\n      pop\n        /* \"#utility.yul\":4467:5978   */\n      swap3\n      swap6\n      swap9\n      pop\n      swap3\n      swap6\n      swap9\n      swap1\n      swap4\n      swap7\n      pop\n      jump\t// out\n        /* \"#utility.yul\":5984:6074   */\n    tag_526:\n        /* \"#utility.yul\":6018:6025   */\n      0x00\n        /* \"#utility.yul\":6061:6066   */\n      dup2\n        /* \"#utility.yul\":6054:6067   */\n      iszero\n        /* \"#utility.yul\":6047:6068   */\n      iszero\n        /* \"#utility.yul\":6036:6068   */\n      swap1\n      pop\n        /* \"#utility.yul\":5984:6074   */\n      swap2\n      swap1\n      pop\n      jump\t// out\n        /* \"#utility.yul\":6080:6189   */\n    tag_527:\n        /* \"#utility.yul\":6161:6182   */\n      tag_655\n        /* \"#utility.yul\":6176:6181   */\n      dup2\n        /* \"#utility.yul\":6161:6182   */\n      tag_526\n      jump\t// in\n    tag_655:\n        /* \"#utility.yul\":6156:6159   */\n      dup3\n        /* \"#utility.yul\":6149:6183   */\n      mstore\n        /* \"#utility.yul\":6080:6189   */\n      pop\n      pop\n      jump\t// out\n        /* \"#utility.yul\":6195:6405   */\n    tag_62:\n        /* \"#utility.yul\":6282:6286   */\n      0x00\n        /* \"#utility.yul\":6320:6322   */\n      0x20\n        /* \"#utility.yul\":6309:6318   */\n      dup3\n        /* \"#utility.yul\":6305:6323   */\n      add\n        /* \"#utility.yul\":6297:6323   */\n      swap1\n      pop\n        /* \"#utility.yul\":6333:6398   */\n      tag_657\n        /* \"#utility.yul\":6395:6396   */\n      0x00\n        /* \"#utility.yul\":6384:6393   */\n      dup4\n        /* \"#utility.yul\":6380:6397   */\n      add\n        /* \"#utility.yul\":6371:6377   */\n      dup5\n        /* \"#utility.yul\":6333:6398   */\n      tag_527\n      jump\t// in\n    tag_657:\n        /* \"#utility.yul\":6195:6405   */\n      swap3\n      swap2\n      pop\n      pop\n      jump\t// out\n        /* \"#utility.yul\":6411:7085   */\n    tag_73:\n        /* \"#utility.yul\":6491:6497   */\n      0x00\n        /* \"#utility.yul\":6499:6505   */\n      0x00\n        /* \"#utility.yul\":6507:6513   */\n      0x00\n        /* \"#utility.yul\":6556:6558   */\n      0x40\n        /* \"#utility.yul\":6544:6553   */\n      dup5\n        /* \"#utility.yul\":6535:6542   */\n      dup7\n        /* \"#utility.yul\":6531:6554   */\n      sub\n        /* \"#utility.yul\":6527:6559   */\n      slt\n        /* \"#utility.yul\":6524:6643   */\n      iszero\n      tag_659\n      jumpi\n        /* \"#utility.yul\":6562:6641   */\n      tag_660\n      tag_505\n      jump\t// in\n    tag_660:\n        /* \"#utility.yul\":6524:6643   */\n    tag_659:\n        /* \"#utility.yul\":6682:6683   */\n      0x00\n        /* \"#utility.yul\":6707:6760   */\n      tag_661\n        /* \"#utility.yul\":6752:6759   */\n      dup7\n        /* \"#utility.yul\":6743:6749   */\n      dup3\n        /* \"#utility.yul\":6732:6741   */\n      dup8\n        /* \"#utility.yul\":6728:6750   */\n      add\n        /* \"#utility.yul\":6707:6760   */\n      tag_518\n      jump\t// in\n    tag_661:\n        /* \"#utility.yul\":6697:6760   */\n      swap4\n      pop\n        /* \"#utility.yul\":6653:6770   */\n      pop\n        /* \"#utility.yul\":6837:6839   */\n      0x20\n        /* \"#utility.yul\":6826:6835   */\n      dup5\n        /* \"#utility.yul\":6822:6840   */\n      add\n        /* \"#utility.yul\":6809:6841   */\n      calldataload\n        /* \"#utility.yul\":6868:6886   */\n      0xffffffffffffffff\n        /* \"#utility.yul\":6860:6866   */\n      dup2\n        /* \"#utility.yul\":6857:6887   */\n      gt\n        /* \"#utility.yul\":6854:6971   */\n      iszero\n      tag_662\n      jumpi\n        /* \"#utility.yul\":6890:6969   */\n      tag_663\n      tag_506\n      jump\t// in\n    tag_663:\n        /* \"#utility.yul\":6854:6971   */\n    tag_662:\n        /* \"#utility.yul\":7003:7068   */\n      tag_664\n        /* \"#utility.yul\":7060:7067   */\n      dup7\n        /* \"#utility.yul\":7051:7057   */\n      dup3\n        /* \"#utility.yul\":7040:7049   */\n      dup8\n        /* \"#utility.yul\":7036:7058   */\n      add\n        /* \"#utility.yul\":7003:7068   */\n      tag_522\n      jump\t// in\n    tag_664:\n        /* \"#utility.yul\":6985:7068   */\n      swap3\n      pop\n      swap3\n      pop\n        /* \"#utility.yul\":6780:7078   */\n      pop\n        /* \"#utility.yul\":6411:7085   */\n      swap3\n      pop\n      swap3\n      pop\n      swap3\n      jump\t// out\n        /* \"#utility.yul\":7091:8310   */\n    tag_77:\n        /* \"#utility.yul\":7204:7210   */\n      0x00\n        /* \"#utility.yul\":7212:7218   */\n      0x00\n        /* \"#utility.yul\":7220:7226   */\n      0x00\n        /* \"#utility.yul\":7228:7234   */\n      0x00\n        /* \"#utility.yul\":7236:7242   */\n      0x00\n        /* \"#utility.yul\":7244:7250   */\n      0x00\n        /* \"#utility.yul\":7293:7295   */\n      0x60\n        /* \"#utility.yul\":7281:7290   */\n      dup8\n        /* \"#utility.yul\":7272:7279   */\n      dup10\n        /* \"#utility.yul\":7268:7291   */\n      sub\n        /* \"#utility.yul\":7264:7296   */\n      slt\n        /* \"#utility.yul\":7261:7380   */\n      iszero\n      tag_666\n      jumpi\n        /* \"#utility.yul\":7299:7378   */\n      tag_667\n      tag_505\n      jump\t// in\n    tag_667:\n        /* \"#utility.yul\":7261:7380   */\n    tag_666:\n        /* \"#utility.yul\":7447:7448   */\n      0x00\n        /* \"#utility.yul\":7436:7445   */\n      dup8\n        /* \"#utility.yul\":7432:7449   */\n      add\n        /* \"#utility.yul\":7419:7450   */\n      calldataload\n        /* \"#utility.yul\":7477:7495   */\n      0xffffffffffffffff\n        /* \"#utility.yul\":7469:7475   */\n      dup2\n        /* \"#utility.yul\":7466:7496   */\n      gt\n        /* \"#utility.yul\":7463:7580   */\n      iszero\n      tag_668\n      jumpi\n        /* \"#utility.yul\":7499:7578   */\n      tag_669\n      tag_506\n      jump\t// in\n    tag_669:\n        /* \"#utility.yul\":7463:7580   */\n    tag_668:\n        /* \"#utility.yul\":7612:7677   */\n      tag_670\n        /* \"#utility.yul\":7669:7676   */\n      dup10\n        /* \"#utility.yul\":7660:7666   */\n      dup3\n        /* \"#utility.yul\":7649:7658   */\n      dup11\n        /* \"#utility.yul\":7645:7667   */\n      add\n        /* \"#utility.yul\":7612:7677   */\n      tag_522\n      jump\t// in\n    tag_670:\n        /* \"#utility.yul\":7594:7677   */\n      swap7\n      pop\n      swap7\n      pop\n        /* \"#utility.yul\":7390:7687   */\n      pop\n        /* \"#utility.yul\":7754:7756   */\n      0x20\n        /* \"#utility.yul\":7743:7752   */\n      dup8\n        /* \"#utility.yul\":7739:7757   */\n      add\n        /* \"#utility.yul\":7726:7758   */\n      calldataload\n        /* \"#utility.yul\":7785:7803   */\n      0xffffffffffffffff\n        /* \"#utility.yul\":7777:7783   */\n      dup2\n        /* \"#utility.yul\":7774:7804   */\n      gt\n        /* \"#utility.yul\":7771:7888   */\n      iszero\n      tag_671\n      jumpi\n        /* \"#utility.yul\":7807:7886   */\n      tag_672\n      tag_506\n      jump\t// in\n    tag_672:\n        /* \"#utility.yul\":7771:7888   */\n    tag_671:\n        /* \"#utility.yul\":7920:7985   */\n      tag_673\n        /* \"#utility.yul\":7977:7984   */\n      dup10\n        /* \"#utility.yul\":7968:7974   */\n      dup3\n        /* \"#utility.yul\":7957:7966   */\n      dup11\n        /* \"#utility.yul\":7953:7975   */\n      add\n        /* \"#utility.yul\":7920:7985   */\n      tag_522\n      jump\t// in\n    tag_673:\n        /* \"#utility.yul\":7902:7985   */\n      swap5\n      pop\n      swap5\n      pop\n        /* \"#utility.yul\":7697:7995   */\n      pop\n        /* \"#utility.yul\":8062:8064   */\n      0x40\n        /* \"#utility.yul\":8051:8060   */\n      dup8\n        /* \"#utility.yul\":8047:8065   */\n      add\n        /* \"#utility.yul\":8034:8066   */\n      calldataload\n        /* \"#utility.yul\":8093:8111   */\n      0xffffffffffffffff\n        /* \"#utility.yul\":8085:8091   */\n      dup2\n        /* \"#utility.yul\":8082:8112   */\n      gt\n        /* \"#utility.yul\":8079:8196   */\n      iszero\n      tag_674\n      jumpi\n        /* \"#utility.yul\":8115:8194   */\n      tag_675\n      tag_506\n      jump\t// in\n    tag_675:\n        /* \"#utility.yul\":8079:8196   */\n    tag_674:\n        /* \"#utility.yul\":8228:8293   */\n      tag_676\n        /* \"#utility.yul\":8285:8292   */\n      dup10\n        /* \"#utility.yul\":8276:8282   */\n      dup3\n        /* \"#utility.yul\":8265:8274   */\n      dup11\n        /* \"#utility.yul\":8261:8283   */\n      add\n        /* \"#utility.yul\":8228:8293   */\n      tag_522\n      jump\t// in\n    tag_676:\n        /* \"#utility.yul\":8210:8293   */\n      swap3\n      pop\n      swap3\n      pop\n        /* \"#utility.yul\":8005:8303   */\n      pop\n        /* \"#utility.yul\":7091:8310   */\n      swap3\n      swap6\n      pop\n      swap3\n      swap6\n      pop\n      swap3\n      swap6\n      jump\t// out\n        /* \"#utility.yul\":8316:8645   */\n    tag_85:\n        /* \"#utility.yul\":8375:8381   */\n      0x00\n        /* \"#utility.yul\":8424:8426   */\n      0x20\n        /* \"#utility.yul\":8412:8421   */\n      dup3\n        /* \"#utility.yul\":8403:8410   */\n      dup5\n        /* \"#utility.yul\":8399:8422   */\n      sub\n        /* \"#utility.yul\":8395:8427   */\n      slt\n        /* \"#utility.yul\":8392:8511   */\n      iszero\n      tag_678\n      jumpi\n        /* \"#utility.yul\":8430:8509   */\n      tag_679\n      tag_505\n      jump\t// in\n    tag_679:\n        /* \"#utility.yul\":8392:8511   */\n    tag_678:\n        /* \"#utility.yul\":8550:8551   */\n      0x00\n        /* \"#utility.yul\":8575:8628   */\n      tag_680\n        /* \"#utility.yul\":8620:8627   */\n      dup5\n        /* \"#utility.yul\":8611:8617   */\n      dup3\n        /* \"#utility.yul\":8600:8609   */\n      dup6\n        /* \"#utility.yul\":8596:8618   */\n      add\n        /* \"#utility.yul\":8575:8628   */\n      tag_518\n      jump\t// in\n    tag_680:\n        /* \"#utility.yul\":8565:8628   */\n      swap2\n      pop\n        /* \"#utility.yul\":8521:8638   */\n      pop\n        /* \"#utility.yul\":8316:8645   */\n      swap3\n      swap2\n      pop\n      pop\n      jump\t// out\n        /* \"#utility.yul\":8651:8980   */\n    tag_101:\n        /* \"#utility.yul\":8710:8716   */\n      0x00\n        /* \"#utility.yul\":8759:8761   */\n      0x20\n        /* \"#utility.yul\":8747:8756   */\n      dup3\n        /* \"#utility.yul\":8738:8745   */\n      dup5\n        /* \"#utility.yul\":8734:8757   */\n      sub\n        /* \"#utility.yul\":8730:8762   */\n      slt\n        /* \"#utility.yul\":8727:8846   */\n      iszero\n      tag_682\n      jumpi\n        /* \"#utility.yul\":8765:8844   */\n      tag_683\n      tag_505\n      jump\t// in\n    tag_683:\n        /* \"#utility.yul\":8727:8846   */\n    tag_682:\n        /* \"#utility.yul\":8885:8886   */\n      0x00\n        /* \"#utility.yul\":8910:8963   */\n      tag_684\n        /* \"#utility.yul\":8955:8962   */\n      dup5\n        /* \"#utility.yul\":8946:8952   */\n      dup3\n        /* \"#utility.yul\":8935:8944   */\n      dup6\n        /* \"#utility.yul\":8931:8953   */\n      add\n        /* \"#utility.yul\":8910:8963   */\n      tag_525\n      jump\t// in\n    tag_684:\n        /* \"#utility.yul\":8900:8963   */\n      swap2\n      pop\n        /* \"#utility.yul\":8856:8973   */\n      pop\n        /* \"#utility.yul\":8651:8980   */\n      swap3\n      swap2\n      pop\n      pop\n      jump\t// out\n        /* \"#utility.yul\":8986:9104   */\n    tag_528:\n        /* \"#utility.yul\":9073:9097   */\n      tag_686\n        /* \"#utility.yul\":9091:9096   */\n      dup2\n        /* \"#utility.yul\":9073:9097   */\n      tag_523\n      jump\t// in\n    tag_686:\n        /* \"#utility.yul\":9068:9071   */\n      dup3\n        /* \"#utility.yul\":9061:9098   */\n      mstore\n        /* \"#utility.yul\":8986:9104   */\n      pop\n      pop\n      jump\t// out\n        /* \"#utility.yul\":9110:9663   */\n    tag_104:\n        /* \"#utility.yul\":9287:9291   */\n      0x00\n        /* \"#utility.yul\":9325:9328   */\n      0x80\n        /* \"#utility.yul\":9314:9323   */\n      dup3\n        /* \"#utility.yul\":9310:9329   */\n      add\n        /* \"#utility.yul\":9302:9329   */\n      swap1\n      pop\n        /* \"#utility.yul\":9339:9410   */\n      tag_688\n        /* \"#utility.yul\":9407:9408   */\n      0x00\n        /* \"#utility.yul\":9396:9405   */\n      dup4\n        /* \"#utility.yul\":9392:9409   */\n      add\n        /* \"#utility.yul\":9383:9389   */\n      dup8\n        /* \"#utility.yul\":9339:9410   */\n      tag_528\n      jump\t// in\n    tag_688:\n        /* \"#utility.yul\":9420:9492   */\n      tag_689\n        /* \"#utility.yul\":9488:9490   */\n      0x20\n        /* \"#utility.yul\":9477:9486   */\n      dup4\n        /* \"#utility.yul\":9473:9491   */\n      add\n        /* \"#utility.yul\":9464:9470   */\n      dup7\n        /* \"#utility.yul\":9420:9492   */\n      tag_528\n      jump\t// in\n    tag_689:\n        /* \"#utility.yul\":9502:9574   */\n      tag_690\n        /* \"#utility.yul\":9570:9572   */\n      0x40\n        /* \"#utility.yul\":9559:9568   */\n      dup4\n        /* \"#utility.yul\":9555:9573   */\n      add\n        /* \"#utility.yul\":9546:9552   */\n      dup6\n        /* \"#utility.yul\":9502:9574   */\n      tag_528\n      jump\t// in\n    tag_690:\n        /* \"#utility.yul\":9584:9656   */\n      tag_691\n        /* \"#utility.yul\":9652:9654   */\n      0x60\n        /* \"#utility.yul\":9641:9650   */\n      dup4\n        /* \"#utility.yul\":9637:9655   */\n      add\n        /* \"#utility.yul\":9628:9634   */\n      dup5\n        /* \"#utility.yul\":9584:9656   */\n      tag_528\n      jump\t// in\n    tag_691:\n        /* \"#utility.yul\":9110:9663   */\n      swap6\n      swap5\n      pop\n      pop\n      pop\n      pop\n      pop\n      jump\t// out\n        /* \"#utility.yul\":9669:10488   */\n    tag_107:\n        /* \"#utility.yul\":9758:9764   */\n      0x00\n        /* \"#utility.yul\":9766:9772   */\n      0x00\n        /* \"#utility.yul\":9774:9780   */\n      0x00\n        /* \"#utility.yul\":9782:9788   */\n      0x00\n        /* \"#utility.yul\":9831:9833   */\n      0x60\n        /* \"#utility.yul\":9819:9828   */\n      dup6\n        /* \"#utility.yul\":9810:9817   */\n      dup8\n        /* \"#utility.yul\":9806:9829   */\n      sub\n        /* \"#utility.yul\":9802:9834   */\n      slt\n        /* \"#utility.yul\":9799:9918   */\n      iszero\n      tag_693\n      jumpi\n        /* \"#utility.yul\":9837:9916   */\n      tag_694\n      tag_505\n      jump\t// in\n    tag_694:\n        /* \"#utility.yul\":9799:9918   */\n    tag_693:\n        /* \"#utility.yul\":9957:9958   */\n      0x00\n        /* \"#utility.yul\":9982:10035   */\n      tag_695\n        /* \"#utility.yul\":10027:10034   */\n      dup8\n        /* \"#utility.yul\":10018:10024   */\n      dup3\n        /* \"#utility.yul\":10007:10016   */\n      dup9\n        /* \"#utility.yul\":10003:10025   */\n      add\n        /* \"#utility.yul\":9982:10035   */\n      tag_518\n      jump\t// in\n    tag_695:\n        /* \"#utility.yul\":9972:10035   */\n      swap5\n      pop\n        /* \"#utility.yul\":9928:10045   */\n      pop\n        /* \"#utility.yul\":10084:10086   */\n      0x20\n        /* \"#utility.yul\":10110:10163   */\n      tag_696\n        /* \"#utility.yul\":10155:10162   */\n      dup8\n        /* \"#utility.yul\":10146:10152   */\n      dup3\n        /* \"#utility.yul\":10135:10144   */\n      dup9\n        /* \"#utility.yul\":10131:10153   */\n      add\n        /* \"#utility.yul\":10110:10163   */\n      tag_510\n      jump\t// in\n    tag_696:\n        /* \"#utility.yul\":10100:10163   */\n      swap4\n      pop\n        /* \"#utility.yul\":10055:10173   */\n      pop\n        /* \"#utility.yul\":10240:10242   */\n      0x40\n        /* \"#utility.yul\":10229:10238   */\n      dup6\n        /* \"#utility.yul\":10225:10243   */\n      add\n        /* \"#utility.yul\":10212:10244   */\n      calldataload\n        /* \"#utility.yul\":10271:10289   */\n      0xffffffffffffffff\n        /* \"#utility.yul\":10263:10269   */\n      dup2\n        /* \"#utility.yul\":10260:10290   */\n      gt\n        /* \"#utility.yul\":10257:10374   */\n      iszero\n      tag_697\n      jumpi\n        /* \"#utility.yul\":10293:10372   */\n      tag_698\n      tag_506\n      jump\t// in\n    tag_698:\n        /* \"#utility.yul\":10257:10374   */\n    tag_697:\n        /* \"#utility.yul\":10406:10471   */\n      tag_699\n        /* \"#utility.yul\":10463:10470   */\n      dup8\n        /* \"#utility.yul\":10454:10460   */\n      dup3\n        /* \"#utility.yul\":10443:10452   */\n      dup9\n        /* \"#utility.yul\":10439:10461   */\n      add\n        /* \"#utility.yul\":10406:10471   */\n      tag_522\n      jump\t// in\n    tag_699:\n        /* \"#utility.yul\":10388:10471   */\n      swap3\n      pop\n      swap3\n      pop\n        /* \"#utility.yul\":10183:10481   */\n      pop\n        /* \"#utility.yul\":9669:10488   */\n      swap3\n      swap6\n      swap2\n      swap5\n      pop\n      swap3\n      pop\n      jump\t// out\n        /* \"#utility.yul\":10494:10610   */\n    tag_529:\n        /* \"#utility.yul\":10564:10585   */\n      tag_701\n        /* \"#utility.yul\":10579:10584   */\n      dup2\n        /* \"#utility.yul\":10564:10585   */\n      tag_526\n      jump\t// in\n    tag_701:\n        /* \"#utility.yul\":10557:10562   */\n      dup2\n        /* \"#utility.yul\":10554:10586   */\n      eq\n        /* \"#utility.yul\":10544:10604   */\n      tag_702\n      jumpi\n        /* \"#utility.yul\":10600:10601   */\n      0x00\n        /* \"#utility.yul\":10597:10598   */\n      0x00\n        /* \"#utility.yul\":10590:10602   */\n      revert\n        /* \"#utility.yul\":10544:10604   */\n    tag_702:\n        /* \"#utility.yul\":10494:10610   */\n      pop\n      jump\t// out\n        /* \"#utility.yul\":10616:10749   */\n    tag_530:\n        /* \"#utility.yul\":10659:10664   */\n      0x00\n        /* \"#utility.yul\":10697:10703   */\n      dup2\n        /* \"#utility.yul\":10684:10704   */\n      calldataload\n        /* \"#utility.yul\":10675:10704   */\n      swap1\n      pop\n        /* \"#utility.yul\":10713:10743   */\n      tag_704\n        /* \"#utility.yul\":10737:10742   */\n      dup2\n        /* \"#utility.yul\":10713:10743   */\n      tag_529\n      jump\t// in\n    tag_704:\n        /* \"#utility.yul\":10616:10749   */\n      swap3\n      swap2\n      pop\n      pop\n      jump\t// out\n        /* \"#utility.yul\":10755:11914   */\n    tag_111:\n        /* \"#utility.yul\":10862:10868   */\n      0x00\n        /* \"#utility.yul\":10870:10876   */\n      0x00\n        /* \"#utility.yul\":10878:10884   */\n      0x00\n        /* \"#utility.yul\":10886:10892   */\n      0x00\n        /* \"#utility.yul\":10894:10900   */\n      0x00\n        /* \"#utility.yul\":10902:10908   */\n      0x00\n        /* \"#utility.yul\":10951:10954   */\n      0x80\n        /* \"#utility.yul\":10939:10948   */\n      dup8\n        /* \"#utility.yul\":10930:10937   */\n      dup10\n        /* \"#utility.yul\":10926:10949   */\n      sub\n        /* \"#utility.yul\":10922:10955   */\n      slt\n        /* \"#utility.yul\":10919:11039   */\n      iszero\n      tag_706\n      jumpi\n        /* \"#utility.yul\":10958:11037   */\n      tag_707\n      tag_505\n      jump\t// in\n    tag_707:\n        /* \"#utility.yul\":10919:11039   */\n    tag_706:\n        /* \"#utility.yul\":11078:11079   */\n      0x00\n        /* \"#utility.yul\":11103:11156   */\n      tag_708\n        /* \"#utility.yul\":11148:11155   */\n      dup10\n        /* \"#utility.yul\":11139:11145   */\n      dup3\n        /* \"#utility.yul\":11128:11137   */\n      dup11\n        /* \"#utility.yul\":11124:11146   */\n      add\n        /* \"#utility.yul\":11103:11156   */\n      tag_518\n      jump\t// in\n    tag_708:\n        /* \"#utility.yul\":11093:11156   */\n      swap7\n      pop\n        /* \"#utility.yul\":11049:11166   */\n      pop\n        /* \"#utility.yul\":11205:11207   */\n      0x20\n        /* \"#utility.yul\":11231:11281   */\n      tag_709\n        /* \"#utility.yul\":11273:11280   */\n      dup10\n        /* \"#utility.yul\":11264:11270   */\n      dup3\n        /* \"#utility.yul\":11253:11262   */\n      dup11\n        /* \"#utility.yul\":11249:11271   */\n      add\n        /* \"#utility.yul\":11231:11281   */\n      tag_530\n      jump\t// in\n    tag_709:\n        /* \"#utility.yul\":11221:11281   */\n      swap6\n      pop\n        /* \"#utility.yul\":11176:11291   */\n      pop\n        /* \"#utility.yul\":11358:11360   */\n      0x40\n        /* \"#utility.yul\":11347:11356   */\n      dup8\n        /* \"#utility.yul\":11343:11361   */\n      add\n        /* \"#utility.yul\":11330:11362   */\n      calldataload\n        /* \"#utility.yul\":11389:11407   */\n      0xffffffffffffffff\n        /* \"#utility.yul\":11381:11387   */\n      dup2\n        /* \"#utility.yul\":11378:11408   */\n      gt\n        /* \"#utility.yul\":11375:11492   */\n      iszero\n      tag_710\n      jumpi\n        /* \"#utility.yul\":11411:11490   */\n      tag_711\n      tag_506\n      jump\t// in\n    tag_711:\n        /* \"#utility.yul\":11375:11492   */\n    tag_710:\n        /* \"#utility.yul\":11524:11589   */\n      tag_712\n        /* \"#utility.yul\":11581:11588   */\n      dup10\n        /* \"#utility.yul\":11572:11578   */\n      dup3\n        /* \"#utility.yul\":11561:11570   */\n      dup11\n        /* \"#utility.yul\":11557:11579   */\n      add\n        /* \"#utility.yul\":11524:11589   */\n      tag_522\n      jump\t// in\n    tag_712:\n        /* \"#utility.yul\":11506:11589   */\n      swap5\n      pop\n      swap5\n      pop\n        /* \"#utility.yul\":11301:11599   */\n      pop\n        /* \"#utility.yul\":11666:11668   */\n      0x60\n        /* \"#utility.yul\":11655:11664   */\n      dup8\n        /* \"#utility.yul\":11651:11669   */\n      add\n        /* \"#utility.yul\":11638:11670   */\n      calldataload\n        /* \"#utility.yul\":11697:11715   */\n      0xffffffffffffffff\n        /* \"#utility.yul\":11689:11695   */\n      dup2\n        /* \"#utility.yul\":11686:11716   */\n      gt\n        /* \"#utility.yul\":11683:11800   */\n      iszero\n      tag_713\n      jumpi\n        /* \"#utility.yul\":11719:11798   */\n      tag_714\n      tag_506\n      jump\t// in\n    tag_714:\n        /* \"#utility.yul\":11683:11800   */\n    tag_713:\n        /* \"#utility.yul\":11832:11897   */\n      tag_715\n        /* \"#utility.yul\":11889:11896   */\n      dup10\n        /* \"#utility.yul\":11880:11886   */\n      dup3\n        /* \"#utility.yul\":11869:11878   */\n      dup11\n        /* \"#utility.yul\":11865:11887   */\n      add\n        /* \"#utility.yul\":11832:11897   */\n      tag_522\n      jump\t// in\n    tag_715:\n        /* \"#utility.yul\":11814:11897   */\n      swap3\n      pop\n      swap3\n      pop\n        /* \"#utility.yul\":11609:11907   */\n      pop\n        /* \"#utility.yul\":10755:11914   */\n      swap3\n      swap6\n      pop\n      swap3\n      swap6\n      pop\n      swap3\n      swap6\n      jump\t// out\n        /* \"#utility.yul\":11920:12739   */\n    tag_115:\n        /* \"#utility.yul\":12009:12015   */\n      0x00\n        /* \"#utility.yul\":12017:12023   */\n      0x00\n        /* \"#utility.yul\":12025:12031   */\n      0x00\n        /* \"#utility.yul\":12033:12039   */\n      0x00\n        /* \"#utility.yul\":12082:12084   */\n      0x60\n        /* \"#utility.yul\":12070:12079   */\n      dup6\n        /* \"#utility.yul\":12061:12068   */\n      dup8\n        /* \"#utility.yul\":12057:12080   */\n      sub\n        /* \"#utility.yul\":12053:12085   */\n      slt\n        /* \"#utility.yul\":12050:12169   */\n      iszero\n      tag_717\n      jumpi\n        /* \"#utility.yul\":12088:12167   */\n      tag_718\n      tag_505\n      jump\t// in\n    tag_718:\n        /* \"#utility.yul\":12050:12169   */\n    tag_717:\n        /* \"#utility.yul\":12208:12209   */\n      0x00\n        /* \"#utility.yul\":12233:12286   */\n      tag_719\n        /* \"#utility.yul\":12278:12285   */\n      dup8\n        /* \"#utility.yul\":12269:12275   */\n      dup3\n        /* \"#utility.yul\":12258:12267   */\n      dup9\n        /* \"#utility.yul\":12254:12276   */\n      add\n        /* \"#utility.yul\":12233:12286   */\n      tag_518\n      jump\t// in\n    tag_719:\n        /* \"#utility.yul\":12223:12286   */\n      swap5\n      pop\n        /* \"#utility.yul\":12179:12296   */\n      pop\n        /* \"#utility.yul\":12335:12337   */\n      0x20\n        /* \"#utility.yul\":12361:12414   */\n      tag_720\n        /* \"#utility.yul\":12406:12413   */\n      dup8\n        /* \"#utility.yul\":12397:12403   */\n      dup3\n        /* \"#utility.yul\":12386:12395   */\n      dup9\n        /* \"#utility.yul\":12382:12404   */\n      add\n        /* \"#utility.yul\":12361:12414   */\n      tag_525\n      jump\t// in\n    tag_720:\n        /* \"#utility.yul\":12351:12414   */\n      swap4\n      pop\n        /* \"#utility.yul\":12306:12424   */\n      pop\n        /* \"#utility.yul\":12491:12493   */\n      0x40\n        /* \"#utility.yul\":12480:12489   */\n      dup6\n        /* \"#utility.yul\":12476:12494   */\n      add\n        /* \"#utility.yul\":12463:12495   */\n      calldataload\n        /* \"#utility.yul\":12522:12540   */\n      0xffffffffffffffff\n        /* \"#utility.yul\":12514:12520   */\n      dup2\n        /* \"#utility.yul\":12511:12541   */\n      gt\n        /* \"#utility.yul\":12508:12625   */\n      iszero\n      tag_721\n      jumpi\n        /* \"#utility.yul\":12544:12623   */\n      tag_722\n      tag_506\n      jump\t// in\n    tag_722:\n        /* \"#utility.yul\":12508:12625   */\n    tag_721:\n        /* \"#utility.yul\":12657:12722   */\n      tag_723\n        /* \"#utility.yul\":12714:12721   */\n      dup8\n        /* \"#utility.yul\":12705:12711   */\n      dup3\n        /* \"#utility.yul\":12694:12703   */\n      dup9\n        /* \"#utility.yul\":12690:12712   */\n      add\n        /* \"#utility.yul\":12657:12722   */\n      tag_522\n      jump\t// in\n    tag_723:\n        /* \"#utility.yul\":12639:12722   */\n      swap3\n      pop\n      swap3\n      pop\n        /* \"#utility.yul\":12434:12732   */\n      pop\n        /* \"#utility.yul\":11920:12739   */\n      swap3\n      swap6\n      swap2\n      swap5\n      pop\n      swap3\n      pop\n      jump\t// out\n        /* \"#utility.yul\":12745:12863   */\n    tag_531:\n        /* \"#utility.yul\":12832:12856   */\n      tag_725\n        /* \"#utility.yul\":12850:12855   */\n      dup2\n        /* \"#utility.yul\":12832:12856   */\n      tag_516\n      jump\t// in\n    tag_725:\n        /* \"#utility.yul\":12827:12830   */\n      dup3\n        /* \"#utility.yul\":12820:12857   */\n      mstore\n        /* \"#utility.yul\":12745:12863   */\n      pop\n      pop\n      jump\t// out\n        /* \"#utility.yul\":12869:13091   */\n    tag_131:\n        /* \"#utility.yul\":12962:12966   */\n      0x00\n        /* \"#utility.yul\":13000:13002   */\n      0x20\n        /* \"#utility.yul\":12989:12998   */\n      dup3\n        /* \"#utility.yul\":12985:13003   */\n      add\n        /* \"#utility.yul\":12977:13003   */\n      swap1\n      pop\n        /* \"#utility.yul\":13013:13084   */\n      tag_727\n        /* \"#utility.yul\":13081:13082   */\n      0x00\n        /* \"#utility.yul\":13070:13079   */\n      dup4\n        /* \"#utility.yul\":13066:13083   */\n      add\n        /* \"#utility.yul\":13057:13063   */\n      dup5\n        /* \"#utility.yul\":13013:13084   */\n      tag_531\n      jump\t// in\n    tag_727:\n        /* \"#utility.yul\":12869:13091   */\n      swap3\n      swap2\n      pop\n      pop\n      jump\t// out\n        /* \"#utility.yul\":13097:13215   */\n    tag_532:\n        /* \"#utility.yul\":13184:13208   */\n      tag_729\n        /* \"#utility.yul\":13202:13207   */\n      dup2\n        /* \"#utility.yul\":13184:13208   */\n      tag_508\n      jump\t// in\n    tag_729:\n        /* \"#utility.yul\":13179:13182   */\n      dup3\n        /* \"#utility.yul\":13172:13209   */\n      mstore\n        /* \"#utility.yul\":13097:13215   */\n      pop\n      pop\n      jump\t// out\n        /* \"#utility.yul\":13221:14055   */\n    tag_139:\n        /* \"#utility.yul\":13460:13464   */\n      0x00\n        /* \"#utility.yul\":13498:13501   */\n      0xa0\n        /* \"#utility.yul\":13487:13496   */\n      dup3\n        /* \"#utility.yul\":13483:13502   */\n      add\n        /* \"#utility.yul\":13475:13502   */\n      swap1\n      pop\n        /* \"#utility.yul\":13512:13583   */\n      tag_731\n        /* \"#utility.yul\":13580:13581   */\n      0x00\n        /* \"#utility.yul\":13569:13578   */\n      dup4\n        /* \"#utility.yul\":13565:13582   */\n      add\n        /* \"#utility.yul\":13556:13562   */\n      dup9\n        /* \"#utility.yul\":13512:13583   */\n      tag_531\n      jump\t// in\n    tag_731:\n        /* \"#utility.yul\":13593:13659   */\n      tag_732\n        /* \"#utility.yul\":13655:13657   */\n      0x20\n        /* \"#utility.yul\":13644:13653   */\n      dup4\n        /* \"#utility.yul\":13640:13658   */\n      add\n        /* \"#utility.yul\":13631:13637   */\n      dup8\n        /* \"#utility.yul\":13593:13659   */\n      tag_527\n      jump\t// in\n    tag_732:\n        /* \"#utility.yul\":13706:13715   */\n      dup2\n        /* \"#utility.yul\":13700:13704   */\n      dup2\n        /* \"#utility.yul\":13696:13716   */\n      sub\n        /* \"#utility.yul\":13691:13693   */\n      0x40\n        /* \"#utility.yul\":13680:13689   */\n      dup4\n        /* \"#utility.yul\":13676:13694   */\n      add\n        /* \"#utility.yul\":13669:13717   */\n      mstore\n        /* \"#utility.yul\":13734:13812   */\n      tag_733\n        /* \"#utility.yul\":13807:13811   */\n      dup2\n        /* \"#utility.yul\":13798:13804   */\n      dup7\n        /* \"#utility.yul\":13734:13812   */\n      tag_515\n      jump\t// in\n    tag_733:\n        /* \"#utility.yul\":13726:13812   */\n      swap1\n      pop\n        /* \"#utility.yul\":13859:13868   */\n      dup2\n        /* \"#utility.yul\":13853:13857   */\n      dup2\n        /* \"#utility.yul\":13849:13869   */\n      sub\n        /* \"#utility.yul\":13844:13846   */\n      0x60\n        /* \"#utility.yul\":13833:13842   */\n      dup4\n        /* \"#utility.yul\":13829:13847   */\n      add\n        /* \"#utility.yul\":13822:13870   */\n      mstore\n        /* \"#utility.yul\":13887:13965   */\n      tag_734\n        /* \"#utility.yul\":13960:13964   */\n      dup2\n        /* \"#utility.yul\":13951:13957   */\n      dup6\n        /* \"#utility.yul\":13887:13965   */\n      tag_515\n      jump\t// in\n    tag_734:\n        /* \"#utility.yul\":13879:13965   */\n      swap1\n      pop\n        /* \"#utility.yul\":13975:14048   */\n      tag_735\n        /* \"#utility.yul\":14043:14046   */\n      0x80\n        /* \"#utility.yul\":14032:14041   */\n      dup4\n        /* \"#utility.yul\":14028:14047   */\n      add\n        /* \"#utility.yul\":14019:14025   */\n      dup5\n        /* \"#utility.yul\":13975:14048   */\n      tag_532\n      jump\t// in\n    tag_735:\n        /* \"#utility.yul\":13221:14055   */\n      swap7\n      swap6\n      pop\n      pop\n      pop\n      pop\n      pop\n      pop\n      jump\t// out\n        /* \"#utility.yul\":14061:14907   */\n    tag_148:\n        /* \"#utility.yul\":14306:14310   */\n      0x00\n        /* \"#utility.yul\":14344:14347   */\n      0xa0\n        /* \"#utility.yul\":14333:14342   */\n      dup3\n        /* \"#utility.yul\":14329:14348   */\n      add\n        /* \"#utility.yul\":14321:14348   */\n      swap1\n      pop\n        /* \"#utility.yul\":14358:14429   */\n      tag_737\n        /* \"#utility.yul\":14426:14427   */\n      0x00\n        /* \"#utility.yul\":14415:14424   */\n      dup4\n        /* \"#utility.yul\":14411:14428   */\n      add\n        /* \"#utility.yul\":14402:14408   */\n      dup9\n        /* \"#utility.yul\":14358:14429   */\n      tag_531\n      jump\t// in\n    tag_737:\n        /* \"#utility.yul\":14439:14511   */\n      tag_738\n        /* \"#utility.yul\":14507:14509   */\n      0x20\n        /* \"#utility.yul\":14496:14505   */\n      dup4\n        /* \"#utility.yul\":14492:14510   */\n      add\n        /* \"#utility.yul\":14483:14489   */\n      dup8\n        /* \"#utility.yul\":14439:14511   */\n      tag_528\n      jump\t// in\n    tag_738:\n        /* \"#utility.yul\":14558:14567   */\n      dup2\n        /* \"#utility.yul\":14552:14556   */\n      dup2\n        /* \"#utility.yul\":14548:14568   */\n      sub\n        /* \"#utility.yul\":14543:14545   */\n      0x40\n        /* \"#utility.yul\":14532:14541   */\n      dup4\n        /* \"#utility.yul\":14528:14546   */\n      add\n        /* \"#utility.yul\":14521:14569   */\n      mstore\n        /* \"#utility.yul\":14586:14664   */\n      tag_739\n        /* \"#utility.yul\":14659:14663   */\n      dup2\n        /* \"#utility.yul\":14650:14656   */\n      dup7\n        /* \"#utility.yul\":14586:14664   */\n      tag_515\n      jump\t// in\n    tag_739:\n        /* \"#utility.yul\":14578:14664   */\n      swap1\n      pop\n        /* \"#utility.yul\":14711:14720   */\n      dup2\n        /* \"#utility.yul\":14705:14709   */\n      dup2\n        /* \"#utility.yul\":14701:14721   */\n      sub\n        /* \"#utility.yul\":14696:14698   */\n      0x60\n        /* \"#utility.yul\":14685:14694   */\n      dup4\n        /* \"#utility.yul\":14681:14699   */\n      add\n        /* \"#utility.yul\":14674:14722   */\n      mstore\n        /* \"#utility.yul\":14739:14817   */\n      tag_740\n        /* \"#utility.yul\":14812:14816   */\n      dup2\n        /* \"#utility.yul\":14803:14809   */\n      dup6\n        /* \"#utility.yul\":14739:14817   */\n      tag_515\n      jump\t// in\n    tag_740:\n        /* \"#utility.yul\":14731:14817   */\n      swap1\n      pop\n        /* \"#utility.yul\":14827:14900   */\n      tag_741\n        /* \"#utility.yul\":14895:14898   */\n      0x80\n        /* \"#utility.yul\":14884:14893   */\n      dup4\n        /* \"#utility.yul\":14880:14899   */\n      add\n        /* \"#utility.yul\":14871:14877   */\n      dup5\n        /* \"#utility.yul\":14827:14900   */\n      tag_532\n      jump\t// in\n    tag_741:\n        /* \"#utility.yul\":14061:14907   */\n      swap7\n      swap6\n      pop\n      pop\n      pop\n      pop\n      pop\n      pop\n      jump\t// out\n        /* \"#utility.yul\":14913:15135   */\n    tag_152:\n        /* \"#utility.yul\":15006:15010   */\n      0x00\n        /* \"#utility.yul\":15044:15046   */\n      0x20\n        /* \"#utility.yul\":15033:15042   */\n      dup3\n        /* \"#utility.yul\":15029:15047   */\n      add\n        /* \"#utility.yul\":15021:15047   */\n      swap1\n      pop\n        /* \"#utility.yul\":15057:15128   */\n      tag_743\n        /* \"#utility.yul\":15125:15126   */\n      0x00\n        /* \"#utility.yul\":15114:15123   */\n      dup4\n        /* \"#utility.yul\":15110:15127   */\n      add\n        /* \"#utility.yul\":15101:15107   */\n      dup5\n        /* \"#utility.yul\":15057:15128   */\n      tag_532\n      jump\t// in\n    tag_743:\n        /* \"#utility.yul\":14913:15135   */\n      swap3\n      swap2\n      pop\n      pop\n      jump\t// out\n        /* \"#utility.yul\":15141:15321   */\n    tag_228:\n        /* \"#utility.yul\":15189:15266   */\n      0x4e487b7100000000000000000000000000000000000000000000000000000000\n        /* \"#utility.yul\":15186:15187   */\n      0x00\n        /* \"#utility.yul\":15179:15267   */\n      mstore\n        /* \"#utility.yul\":15286:15290   */\n      0x21\n        /* \"#utility.yul\":15283:15284   */\n      0x04\n        /* \"#utility.yul\":15276:15291   */\n      mstore\n        /* \"#utility.yul\":15310:15314   */\n      0x24\n        /* \"#utility.yul\":15307:15308   */\n      0x00\n        /* \"#utility.yul\":15300:15315   */\n      revert\n        /* \"#utility.yul\":15327:15441   */\n    tag_533:\n        /* \"#utility.yul\":15409:15410   */\n      0x07\n        /* \"#utility.yul\":15402:15407   */\n      dup2\n        /* \"#utility.yul\":15399:15411   */\n      lt\n        /* \"#utility.yul\":15389:15435   */\n      tag_746\n      jumpi\n        /* \"#utility.yul\":15415:15433   */\n      tag_747\n      tag_228\n      jump\t// in\n    tag_747:\n        /* \"#utility.yul\":15389:15435   */\n    tag_746:\n        /* \"#utility.yul\":15327:15441   */\n      pop\n      jump\t// out\n        /* \"#utility.yul\":15447:15576   */\n    tag_534:\n        /* \"#utility.yul\":15493:15500   */\n      0x00\n        /* \"#utility.yul\":15522:15527   */\n      dup2\n        /* \"#utility.yul\":15511:15527   */\n      swap1\n      pop\n        /* \"#utility.yul\":15528:15570   */\n      tag_749\n        /* \"#utility.yul\":15564:15569   */\n      dup3\n        /* \"#utility.yul\":15528:15570   */\n      tag_533\n      jump\t// in\n    tag_749:\n        /* \"#utility.yul\":15447:15576   */\n      swap2\n      swap1\n      pop\n      jump\t// out\n        /* \"#utility.yul\":15582:15711   */\n    tag_535:\n        /* \"#utility.yul\":15639:15648   */\n      0x00\n        /* \"#utility.yul\":15672:15705   */\n      tag_751\n        /* \"#utility.yul\":15699:15704   */\n      dup3\n        /* \"#utility.yul\":15672:15705   */\n      tag_534\n      jump\t// in\n    tag_751:\n        /* \"#utility.yul\":15659:15705   */\n      swap1\n      pop\n        /* \"#utility.yul\":15582:15711   */\n      swap2\n      swap1\n      pop\n      jump\t// out\n        /* \"#utility.yul\":15717:15862   */\n    tag_536:\n        /* \"#utility.yul\":15811:15855   */\n      tag_753\n        /* \"#utility.yul\":15849:15854   */\n      dup2\n        /* \"#utility.yul\":15811:15855   */\n      tag_535\n      jump\t// in\n    tag_753:\n        /* \"#utility.yul\":15806:15809   */\n      dup3\n        /* \"#utility.yul\":15799:15856   */\n      mstore\n        /* \"#utility.yul\":15717:15862   */\n      pop\n      pop\n      jump\t// out\n        /* \"#utility.yul\":15868:17243   */\n    tag_168:\n        /* \"#utility.yul\":16244:16248   */\n      0x00\n        /* \"#utility.yul\":16282:16285   */\n      0x0100\n        /* \"#utility.yul\":16271:16280   */\n      dup3\n        /* \"#utility.yul\":16267:16286   */\n      add\n        /* \"#utility.yul\":16259:16286   */\n      swap1\n      pop\n        /* \"#utility.yul\":16296:16367   */\n      tag_755\n        /* \"#utility.yul\":16364:16365   */\n      0x00\n        /* \"#utility.yul\":16353:16362   */\n      dup4\n        /* \"#utility.yul\":16349:16366   */\n      add\n        /* \"#utility.yul\":16340:16346   */\n      dup12\n        /* \"#utility.yul\":16296:16367   */\n      tag_531\n      jump\t// in\n    tag_755:\n        /* \"#utility.yul\":16414:16423   */\n      dup2\n        /* \"#utility.yul\":16408:16412   */\n      dup2\n        /* \"#utility.yul\":16404:16424   */\n      sub\n        /* \"#utility.yul\":16399:16401   */\n      0x20\n        /* \"#utility.yul\":16388:16397   */\n      dup4\n        /* \"#utility.yul\":16384:16402   */\n      add\n        /* \"#utility.yul\":16377:16425   */\n      mstore\n        /* \"#utility.yul\":16442:16520   */\n      tag_756\n        /* \"#utility.yul\":16515:16519   */\n      dup2\n        /* \"#utility.yul\":16506:16512   */\n      dup11\n        /* \"#utility.yul\":16442:16520   */\n      tag_515\n      jump\t// in\n    tag_756:\n        /* \"#utility.yul\":16434:16520   */\n      swap1\n      pop\n        /* \"#utility.yul\":16567:16576   */\n      dup2\n        /* \"#utility.yul\":16561:16565   */\n      dup2\n        /* \"#utility.yul\":16557:16577   */\n      sub\n        /* \"#utility.yul\":16552:16554   */\n      0x40\n        /* \"#utility.yul\":16541:16550   */\n      dup4\n        /* \"#utility.yul\":16537:16555   */\n      add\n        /* \"#utility.yul\":16530:16578   */\n      mstore\n        /* \"#utility.yul\":16595:16673   */\n      tag_757\n        /* \"#utility.yul\":16668:16672   */\n      dup2\n        /* \"#utility.yul\":16659:16665   */\n      dup10\n        /* \"#utility.yul\":16595:16673   */\n      tag_515\n      jump\t// in\n    tag_757:\n        /* \"#utility.yul\":16587:16673   */\n      swap1\n      pop\n        /* \"#utility.yul\":16720:16729   */\n      dup2\n        /* \"#utility.yul\":16714:16718   */\n      dup2\n        /* \"#utility.yul\":16710:16730   */\n      sub\n        /* \"#utility.yul\":16705:16707   */\n      0x60\n        /* \"#utility.yul\":16694:16703   */\n      dup4\n        /* \"#utility.yul\":16690:16708   */\n      add\n        /* \"#utility.yul\":16683:16731   */\n      mstore\n        /* \"#utility.yul\":16748:16826   */\n      tag_758\n        /* \"#utility.yul\":16821:16825   */\n      dup2\n        /* \"#utility.yul\":16812:16818   */\n      dup9\n        /* \"#utility.yul\":16748:16826   */\n      tag_515\n      jump\t// in\n    tag_758:\n        /* \"#utility.yul\":16740:16826   */\n      swap1\n      pop\n        /* \"#utility.yul\":16836:16909   */\n      tag_759\n        /* \"#utility.yul\":16904:16907   */\n      0x80\n        /* \"#utility.yul\":16893:16902   */\n      dup4\n        /* \"#utility.yul\":16889:16908   */\n      add\n        /* \"#utility.yul\":16880:16886   */\n      dup8\n        /* \"#utility.yul\":16836:16909   */\n      tag_528\n      jump\t// in\n    tag_759:\n        /* \"#utility.yul\":16919:16999   */\n      tag_760\n        /* \"#utility.yul\":16994:16997   */\n      0xa0\n        /* \"#utility.yul\":16983:16992   */\n      dup4\n        /* \"#utility.yul\":16979:16998   */\n      add\n        /* \"#utility.yul\":16970:16976   */\n      dup7\n        /* \"#utility.yul\":16919:16999   */\n      tag_536\n      jump\t// in\n    tag_760:\n        /* \"#utility.yul\":17009:17082   */\n      tag_761\n        /* \"#utility.yul\":17077:17080   */\n      0xc0\n        /* \"#utility.yul\":17066:17075   */\n      dup4\n        /* \"#utility.yul\":17062:17081   */\n      add\n        /* \"#utility.yul\":17053:17059   */\n      dup6\n        /* \"#utility.yul\":17009:17082   */\n      tag_532\n      jump\t// in\n    tag_761:\n        /* \"#utility.yul\":17130:17139   */\n      dup2\n        /* \"#utility.yul\":17124:17128   */\n      dup2\n        /* \"#utility.yul\":17120:17140   */\n      sub\n        /* \"#utility.yul\":17114:17117   */\n      0xe0\n        /* \"#utility.yul\":17103:17112   */\n      dup4\n        /* \"#utility.yul\":17099:17118   */\n      add\n        /* \"#utility.yul\":17092:17141   */\n      mstore\n        /* \"#utility.yul\":17158:17236   */\n      tag_762\n        /* \"#utility.yul\":17231:17235   */\n      dup2\n        /* \"#utility.yul\":17222:17228   */\n      dup5\n        /* \"#utility.yul\":17158:17236   */\n      tag_515\n      jump\t// in\n    tag_762:\n        /* \"#utility.yul\":17150:17236   */\n      swap1\n      pop\n        /* \"#utility.yul\":15868:17243   */\n      swap10\n      swap9\n      pop\n      pop\n      pop\n      pop\n      pop\n      pop\n      pop\n      pop\n      pop\n      jump\t// out\n        /* \"#utility.yul\":17249:18384   */\n    tag_176:\n        /* \"#utility.yul\":17558:17562   */\n      0x00\n        /* \"#utility.yul\":17596:17599   */\n      0xe0\n        /* \"#utility.yul\":17585:17594   */\n      dup3\n        /* \"#utility.yul\":17581:17600   */\n      add\n        /* \"#utility.yul\":17573:17600   */\n      swap1\n      pop\n        /* \"#utility.yul\":17610:17681   */\n      tag_764\n        /* \"#utility.yul\":17678:17679   */\n      0x00\n        /* \"#utility.yul\":17667:17676   */\n      dup4\n        /* \"#utility.yul\":17663:17680   */\n      add\n        /* \"#utility.yul\":17654:17660   */\n      dup11\n        /* \"#utility.yul\":17610:17681   */\n      tag_531\n      jump\t// in\n    tag_764:\n        /* \"#utility.yul\":17691:17757   */\n      tag_765\n        /* \"#utility.yul\":17753:17755   */\n      0x20\n        /* \"#utility.yul\":17742:17751   */\n      dup4\n        /* \"#utility.yul\":17738:17756   */\n      add\n        /* \"#utility.yul\":17729:17735   */\n      dup10\n        /* \"#utility.yul\":17691:17757   */\n      tag_527\n      jump\t// in\n    tag_765:\n        /* \"#utility.yul\":17804:17813   */\n      dup2\n        /* \"#utility.yul\":17798:17802   */\n      dup2\n        /* \"#utility.yul\":17794:17814   */\n      sub\n        /* \"#utility.yul\":17789:17791   */\n      0x40\n        /* \"#utility.yul\":17778:17787   */\n      dup4\n        /* \"#utility.yul\":17774:17792   */\n      add\n        /* \"#utility.yul\":17767:17815   */\n      mstore\n        /* \"#utility.yul\":17832:17910   */\n      tag_766\n        /* \"#utility.yul\":17905:17909   */\n      dup2\n        /* \"#utility.yul\":17896:17902   */\n      dup9\n        /* \"#utility.yul\":17832:17910   */\n      tag_515\n      jump\t// in\n    tag_766:\n        /* \"#utility.yul\":17824:17910   */\n      swap1\n      pop\n        /* \"#utility.yul\":17920:17986   */\n      tag_767\n        /* \"#utility.yul\":17982:17984   */\n      0x60\n        /* \"#utility.yul\":17971:17980   */\n      dup4\n        /* \"#utility.yul\":17967:17985   */\n      add\n        /* \"#utility.yul\":17958:17964   */\n      dup8\n        /* \"#utility.yul\":17920:17986   */\n      tag_527\n      jump\t// in\n    tag_767:\n        /* \"#utility.yul\":18034:18043   */\n      dup2\n        /* \"#utility.yul\":18028:18032   */\n      dup2\n        /* \"#utility.yul\":18024:18044   */\n      sub\n        /* \"#utility.yul\":18018:18021   */\n      0x80\n        /* \"#utility.yul\":18007:18016   */\n      dup4\n        /* \"#utility.yul\":18003:18022   */\n      add\n        /* \"#utility.yul\":17996:18045   */\n      mstore\n        /* \"#utility.yul\":18062:18140   */\n      tag_768\n        /* \"#utility.yul\":18135:18139   */\n      dup2\n        /* \"#utility.yul\":18126:18132   */\n      dup7\n        /* \"#utility.yul\":18062:18140   */\n      tag_515\n      jump\t// in\n    tag_768:\n        /* \"#utility.yul\":18054:18140   */\n      swap1\n      pop\n        /* \"#utility.yul\":18188:18197   */\n      dup2\n        /* \"#utility.yul\":18182:18186   */\n      dup2\n        /* \"#utility.yul\":18178:18198   */\n      sub\n        /* \"#utility.yul\":18172:18175   */\n      0xa0\n        /* \"#utility.yul\":18161:18170   */\n      dup4\n        /* \"#utility.yul\":18157:18176   */\n      add\n        /* \"#utility.yul\":18150:18199   */\n      mstore\n        /* \"#utility.yul\":18216:18294   */\n      tag_769\n        /* \"#utility.yul\":18289:18293   */\n      dup2\n        /* \"#utility.yul\":18280:18286   */\n      dup6\n        /* \"#utility.yul\":18216:18294   */\n      tag_515\n      jump\t// in\n    tag_769:\n        /* \"#utility.yul\":18208:18294   */\n      swap1\n      pop\n        /* \"#utility.yul\":18304:18377   */\n      tag_770\n        /* \"#utility.yul\":18372:18375   */\n      0xc0\n        /* \"#utility.yul\":18361:18370   */\n      dup4\n        /* \"#utility.yul\":18357:18376   */\n      add\n        /* \"#utility.yul\":18348:18354   */\n      dup5\n        /* \"#utility.yul\":18304:18377   */\n      tag_532\n      jump\t// in\n    tag_770:\n        /* \"#utility.yul\":17249:18384   */\n      swap9\n      swap8\n      pop\n      pop\n      pop\n      pop\n      pop\n      pop\n      pop\n      pop\n      jump\t// out\n        /* \"#utility.yul\":18390:19155   */\n    tag_182:\n        /* \"#utility.yul\":18476:18482   */\n      0x00\n        /* \"#utility.yul\":18484:18490   */\n      0x00\n        /* \"#utility.yul\":18492:18498   */\n      0x00\n        /* \"#utility.yul\":18500:18506   */\n      0x00\n        /* \"#utility.yul\":18549:18552   */\n      0x80\n        /* \"#utility.yul\":18537:18546   */\n      dup6\n        /* \"#utility.yul\":18528:18535   */\n      dup8\n        /* \"#utility.yul\":18524:18547   */\n      sub\n        /* \"#utility.yul\":18520:18553   */\n      slt\n        /* \"#utility.yul\":18517:18637   */\n      iszero\n      tag_772\n      jumpi\n        /* \"#utility.yul\":18556:18635   */\n      tag_773\n      tag_505\n      jump\t// in\n    tag_773:\n        /* \"#utility.yul\":18517:18637   */\n    tag_772:\n        /* \"#utility.yul\":18676:18677   */\n      0x00\n        /* \"#utility.yul\":18701:18754   */\n      tag_774\n        /* \"#utility.yul\":18746:18753   */\n      dup8\n        /* \"#utility.yul\":18737:18743   */\n      dup3\n        /* \"#utility.yul\":18726:18735   */\n      dup9\n        /* \"#utility.yul\":18722:18744   */\n      add\n        /* \"#utility.yul\":18701:18754   */\n      tag_525\n      jump\t// in\n    tag_774:\n        /* \"#utility.yul\":18691:18754   */\n      swap5\n      pop\n        /* \"#utility.yul\":18647:18764   */\n      pop\n        /* \"#utility.yul\":18803:18805   */\n      0x20\n        /* \"#utility.yul\":18829:18882   */\n      tag_775\n        /* \"#utility.yul\":18874:18881   */\n      dup8\n        /* \"#utility.yul\":18865:18871   */\n      dup3\n        /* \"#utility.yul\":18854:18863   */\n      dup9\n        /* \"#utility.yul\":18850:18872   */\n      add\n        /* \"#utility.yul\":18829:18882   */\n      tag_525\n      jump\t// in\n    tag_775:\n        /* \"#utility.yul\":18819:18882   */\n      swap4\n      pop\n        /* \"#utility.yul\":18774:18892   */\n      pop\n        /* \"#utility.yul\":18931:18933   */\n      0x40\n        /* \"#utility.yul\":18957:19010   */\n      tag_776\n        /* \"#utility.yul\":19002:19009   */\n      dup8\n        /* \"#utility.yul\":18993:18999   */\n      dup3\n        /* \"#utility.yul\":18982:18991   */\n      dup9\n        /* \"#utility.yul\":18978:19000   */\n      add\n        /* \"#utility.yul\":18957:19010   */\n      tag_525\n      jump\t// in\n    tag_776:\n        /* \"#utility.yul\":18947:19010   */\n      swap3\n      pop\n        /* \"#utility.yul\":18902:19020   */\n      pop\n        /* \"#utility.yul\":19059:19061   */\n      0x60\n        /* \"#utility.yul\":19085:19138   */\n      tag_777\n        /* \"#utility.yul\":19130:19137   */\n      dup8\n        /* \"#utility.yul\":19121:19127   */\n      dup3\n        /* \"#utility.yul\":19110:19119   */\n      dup9\n        /* \"#utility.yul\":19106:19128   */\n      add\n        /* \"#utility.yul\":19085:19138   */\n      tag_525\n      jump\t// in\n    tag_777:\n        /* \"#utility.yul\":19075:19138   */\n      swap2\n      pop\n        /* \"#utility.yul\":19030:19148   */\n      pop\n        /* \"#utility.yul\":18390:19155   */\n      swap3\n      swap6\n      swap2\n      swap5\n      pop\n      swap3\n      pop\n      jump\t// out\n        /* \"#utility.yul\":19161:19383   */\n    tag_187:\n        /* \"#utility.yul\":19254:19258   */\n      0x00\n        /* \"#utility.yul\":19292:19294   */\n      0x20\n        /* \"#utility.yul\":19281:19290   */\n      dup3\n        /* \"#utility.yul\":19277:19295   */\n      add\n        /* \"#utility.yul\":19269:19295   */\n      swap1\n      pop\n        /* \"#utility.yul\":19305:19376   */\n      tag_779\n        /* \"#utility.yul\":19373:19374   */\n      0x00\n        /* \"#utility.yul\":19362:19371   */\n      dup4\n        /* \"#utility.yul\":19358:19375   */\n      add\n        /* \"#utility.yul\":19349:19355   */\n      dup5\n        /* \"#utility.yul\":19305:19376   */\n      tag_528\n      jump\t// in\n    tag_779:\n        /* \"#utility.yul\":19161:19383   */\n      swap3\n      swap2\n      pop\n      pop\n      jump\t// out\n        /* \"#utility.yul\":19389:19569   */\n    tag_537:\n        /* \"#utility.yul\":19437:19514   */\n      0x4e487b7100000000000000000000000000000000000000000000000000000000\n        /* \"#utility.yul\":19434:19435   */\n      0x00\n        /* \"#utility.yul\":19427:19515   */\n      mstore\n        /* \"#utility.yul\":19534:19538   */\n      0x22\n        /* \"#utility.yul\":19531:19532   */\n      0x04\n        /* \"#utility.yul\":19524:19539   */\n      mstore\n        /* \"#utility.yul\":19558:19562   */\n      0x24\n        /* \"#utility.yul\":19555:19556   */\n      0x00\n        /* \"#utility.yul\":19548:19563   */\n      revert\n        /* \"#utility.yul\":19575:19895   */\n    tag_203:\n        /* \"#utility.yul\":19619:19625   */\n      0x00\n        /* \"#utility.yul\":19656:19657   */\n      0x02\n        /* \"#utility.yul\":19650:19654   */\n      dup3\n        /* \"#utility.yul\":19646:19658   */\n      div\n        /* \"#utility.yul\":19636:19658   */\n      swap1\n      pop\n        /* \"#utility.yul\":19703:19704   */\n      0x01\n        /* \"#utility.yul\":19697:19701   */\n      dup3\n        /* \"#utility.yul\":19693:19705   */\n      and\n        /* \"#utility.yul\":19724:19742   */\n      dup1\n        /* \"#utility.yul\":19714:19795   */\n      tag_782\n      jumpi\n        /* \"#utility.yul\":19780:19784   */\n      0x7f\n        /* \"#utility.yul\":19772:19778   */\n      dup3\n        /* \"#utility.yul\":19768:19785   */\n      and\n        /* \"#utility.yul\":19758:19785   */\n      swap2\n      pop\n        /* \"#utility.yul\":19714:19795   */\n    tag_782:\n        /* \"#utility.yul\":19842:19844   */\n      0x20\n        /* \"#utility.yul\":19834:19840   */\n      dup3\n        /* \"#utility.yul\":19831:19845   */\n      lt\n        /* \"#utility.yul\":19811:19829   */\n      dup2\n        /* \"#utility.yul\":19808:19846   */\n      sub\n        /* \"#utility.yul\":19805:19889   */\n      tag_783\n      jumpi\n        /* \"#utility.yul\":19861:19879   */\n      tag_784\n      tag_537\n      jump\t// in\n    tag_784:\n        /* \"#utility.yul\":19805:19889   */\n    tag_783:\n        /* \"#utility.yul\":19626:19895   */\n      pop\n        /* \"#utility.yul\":19575:19895   */\n      swap2\n      swap1\n      pop\n      jump\t// out\n        /* \"#utility.yul\":19901:20062   */\n    tag_538:\n        /* \"#utility.yul\":20041:20054   */\n      0x4f6e6c79206661726d6572000000000000000000000000000000000000000000\n        /* \"#utility.yul\":20037:20038   */\n      0x00\n        /* \"#utility.yul\":20029:20035   */\n      dup3\n        /* \"#utility.yul\":20025:20039   */\n      add\n        /* \"#utility.yul\":20018:20055   */\n      mstore\n        /* \"#utility.yul\":19901:20062   */\n      pop\n      jump\t// out\n        /* \"#utility.yul\":20068:20434   */\n    tag_539:\n        /* \"#utility.yul\":20210:20213   */\n      0x00\n        /* \"#utility.yul\":20231:20298   */\n      tag_787\n        /* \"#utility.yul\":20295:20297   */\n      0x0b\n        /* \"#utility.yul\":20290:20293   */\n      dup4\n        /* \"#utility.yul\":20231:20298   */\n      tag_512\n      jump\t// in\n    tag_787:\n        /* \"#utility.yul\":20224:20298   */\n      swap2\n      pop\n        /* \"#utility.yul\":20307:20400   */\n      tag_788\n        /* \"#utility.yul\":20396:20399   */\n      dup3\n        /* \"#utility.yul\":20307:20400   */\n      tag_538\n      jump\t// in\n    tag_788:\n        /* \"#utility.yul\":20425:20427   */\n      0x20\n        /* \"#utility.yul\":20420:20423   */\n      dup3\n        /* \"#utility.yul\":20416:20428   */\n      add\n        /* \"#utility.yul\":20409:20428   */\n      swap1\n      pop\n        /* \"#utility.yul\":20068:20434   */\n      swap2\n      swap1\n      pop\n      jump\t// out\n        /* \"#utility.yul\":20440:20859   */\n    tag_221:\n        /* \"#utility.yul\":20606:20610   */\n      0x00\n        /* \"#utility.yul\":20644:20646   */\n      0x20\n        /* \"#utility.yul\":20633:20642   */\n      dup3\n        /* \"#utility.yul\":20629:20647   */\n      add\n        /* \"#utility.yul\":20621:20647   */\n      swap1\n      pop\n        /* \"#utility.yul\":20693:20702   */\n      dup2\n        /* \"#utility.yul\":20687:20691   */\n      dup2\n        /* \"#utility.yul\":20683:20703   */\n      sub\n        /* \"#utility.yul\":20679:20680   */\n      0x00\n        /* \"#utility.yul\":20668:20677   */\n      dup4\n        /* \"#utility.yul\":20664:20681   */\n      add\n        /* \"#utility.yul\":20657:20704   */\n      mstore\n        /* \"#utility.yul\":20721:20852   */\n      tag_790\n        /* \"#utility.yul\":20847:20851   */\n      dup2\n        /* \"#utility.yul\":20721:20852   */\n      tag_539\n      jump\t// in\n    tag_790:\n        /* \"#utility.yul\":20713:20852   */\n      swap1\n      pop\n        /* \"#utility.yul\":20440:20859   */\n      swap2\n      swap1\n      pop\n      jump\t// out\n        /* \"#utility.yul\":20865:21026   */\n    tag_540:\n        /* \"#utility.yul\":21005:21018   */\n      0x43726f7020657869737473000000000000000000000000000000000000000000\n        /* \"#utility.yul\":21001:21002   */\n      0x00\n        /* \"#utility.yul\":20993:20999   */\n      dup3\n        /* \"#utility.yul\":20989:21003   */\n      add\n        /* \"#utility.yul\":20982:21019   */\n      mstore\n        /* \"#utility.yul\":20865:21026   */\n      pop\n      jump\t// out\n        /* \"#utility.yul\":21032:21398   */\n    tag_541:\n        /* \"#utility.yul\":21174:21177   */\n      0x00\n        /* \"#utility.yul\":21195:21262   */\n      tag_793\n        /* \"#utility.yul\":21259:21261   */\n      0x0b\n        /* \"#utility.yul\":21254:21257   */\n      dup4\n        /* \"#utility.yul\":21195:21262   */\n      tag_512\n      jump\t// in\n    tag_793:\n        /* \"#utility.yul\":21188:21262   */\n      swap2\n      pop\n        /* \"#utility.yul\":21271:21364   */\n      tag_794\n        /* \"#utility.yul\":21360:21363   */\n      dup3\n        /* \"#utility.yul\":21271:21364   */\n      tag_540\n      jump\t// in\n    tag_794:\n        /* \"#utility.yul\":21389:21391   */\n      0x20\n        /* \"#utility.yul\":21384:21387   */\n      dup3\n        /* \"#utility.yul\":21380:21392   */\n      add\n        /* \"#utility.yul\":21373:21392   */\n      swap1\n      pop\n        /* \"#utility.yul\":21032:21398   */\n      swap2\n      swap1\n      pop\n      jump\t// out\n        /* \"#utility.yul\":21404:21823   */\n    tag_225:\n        /* \"#utility.yul\":21570:21574   */\n      0x00\n        /* \"#utility.yul\":21608:21610   */\n      0x20\n        /* \"#utility.yul\":21597:21606   */\n      dup3\n        /* \"#utility.yul\":21593:21611   */\n      add\n        /* \"#utility.yul\":21585:21611   */\n      swap1\n      pop\n        /* \"#utility.yul\":21657:21666   */\n      dup2\n        /* \"#utility.yul\":21651:21655   */\n      dup2\n        /* \"#utility.yul\":21647:21667   */\n      sub\n        /* \"#utility.yul\":21643:21644   */\n      0x00\n        /* \"#utility.yul\":21632:21641   */\n      dup4\n        /* \"#utility.yul\":21628:21645   */\n      add\n        /* \"#utility.yul\":21621:21668   */\n      mstore\n        /* \"#utility.yul\":21685:21816   */\n      tag_796\n        /* \"#utility.yul\":21811:21815   */\n      dup2\n        /* \"#utility.yul\":21685:21816   */\n      tag_541\n      jump\t// in\n    tag_796:\n        /* \"#utility.yul\":21677:21816   */\n      swap1\n      pop\n        /* \"#utility.yul\":21404:21823   */\n      swap2\n      swap1\n      pop\n      jump\t// out\n        /* \"#utility.yul\":21829:22009   */\n    tag_542:\n        /* \"#utility.yul\":21877:21954   */\n      0x4e487b7100000000000000000000000000000000000000000000000000000000\n        /* \"#utility.yul\":21874:21875   */\n      0x00\n        /* \"#utility.yul\":21867:21955   */\n      mstore\n        /* \"#utility.yul\":21974:21978   */\n      0x41\n        /* \"#utility.yul\":21971:21972   */\n      0x04\n        /* \"#utility.yul\":21964:21979   */\n      mstore\n        /* \"#utility.yul\":21998:22002   */\n      0x24\n        /* \"#utility.yul\":21995:21996   */\n      0x00\n        /* \"#utility.yul\":21988:22003   */\n      revert\n        /* \"#utility.yul\":22015:22156   */\n    tag_543:\n        /* \"#utility.yul\":22064:22068   */\n      0x00\n        /* \"#utility.yul\":22087:22090   */\n      dup2\n        /* \"#utility.yul\":22079:22090   */\n      swap1\n      pop\n        /* \"#utility.yul\":22110:22113   */\n      dup2\n        /* \"#utility.yul\":22107:22108   */\n      0x00\n        /* \"#utility.yul\":22100:22114   */\n      mstore\n        /* \"#utility.yul\":22144:22148   */\n      0x20\n        /* \"#utility.yul\":22141:22142   */\n      0x00\n        /* \"#utility.yul\":22131:22149   */\n      keccak256\n        /* \"#utility.yul\":22123:22149   */\n      swap1\n      pop\n        /* \"#utility.yul\":22015:22156   */\n      swap2\n      swap1\n      pop\n      jump\t// out\n        /* \"#utility.yul\":22162:22255   */\n    tag_544:\n        /* \"#utility.yul\":22199:22205   */\n      0x00\n        /* \"#utility.yul\":22246:22248   */\n      0x20\n        /* \"#utility.yul\":22241:22243   */\n      0x1f\n        /* \"#utility.yul\":22234:22239   */\n      dup4\n        /* \"#utility.yul\":22230:22244   */\n      add\n        /* \"#utility.yul\":22226:22249   */\n      div\n        /* \"#utility.yul\":22216:22249   */\n      swap1\n      pop\n        /* \"#utility.yul\":22162:22255   */\n      swap2\n      swap1\n      pop\n      jump\t// out\n        /* \"#utility.yul\":22261:22368   */\n    tag_545:\n        /* \"#utility.yul\":22305:22313   */\n      0x00\n        /* \"#utility.yul\":22355:22360   */\n      dup3\n        /* \"#utility.yul\":22349:22353   */\n      dup3\n        /* \"#utility.yul\":22345:22361   */\n      shl\n        /* \"#utility.yul\":22324:22361   */\n      swap1\n      pop\n        /* \"#utility.yul\":22261:22368   */\n      swap3\n      swap2\n      pop\n      pop\n      jump\t// out\n        /* \"#utility.yul\":22374:22767   */\n    tag_546:\n        /* \"#utility.yul\":22443:22449   */\n      0x00\n        /* \"#utility.yul\":22493:22494   */\n      0x08\n        /* \"#utility.yul\":22481:22491   */\n      dup4\n        /* \"#utility.yul\":22477:22495   */\n      mul\n        /* \"#utility.yul\":22516:22613   */\n      tag_802\n        /* \"#utility.yul\":22546:22612   */\n      0xffffffffffffffffffffffffffffffffffffffffffffffffffffffffffffffff\n        /* \"#utility.yul\":22535:22544   */\n      dup3\n        /* \"#utility.yul\":22516:22613   */\n      tag_545\n      jump\t// in\n    tag_802:\n        /* \"#utility.yul\":22634:22673   */\n      tag_803\n        /* \"#utility.yul\":22664:22672   */\n      dup7\n        /* \"#utility.yul\":22653:22662   */\n      dup4\n        /* \"#utility.yul\":22634:22673   */\n      tag_545\n      jump\t// in\n    tag_803:\n        /* \"#utility.yul\":22622:22673   */\n      swap6\n      pop\n        /* \"#utility.yul\":22706:22710   */\n      dup1\n        /* \"#utility.yul\":22702:22711   */\n      not\n        /* \"#utility.yul\":22695:22700   */\n      dup5\n        /* \"#utility.yul\":22691:22712   */\n      and\n        /* \"#utility.yul\":22682:22712   */\n      swap4\n      pop\n        /* \"#utility.yul\":22755:22759   */\n      dup1\n        /* \"#utility.yul\":22745:22753   */\n      dup7\n        /* \"#utility.yul\":22741:22760   */\n      and\n        /* \"#utility.yul\":22734:22739   */\n      dup5\n        /* \"#utility.yul\":22731:22761   */\n      or\n        /* \"#utility.yul\":22721:22761   */\n      swap3\n      pop\n        /* \"#utility.yul\":22450:22767   */\n      pop\n      pop\n        /* \"#utility.yul\":22374:22767   */\n      swap4\n      swap3\n      pop\n      pop\n      pop\n      jump\t// out\n        /* \"#utility.yul\":22773:22833   */\n    tag_547:\n        /* \"#utility.yul\":22801:22804   */\n      0x00\n        /* \"#utility.yul\":22822:22827   */\n      dup2\n        /* \"#utility.yul\":22815:22827   */\n      swap1\n      pop\n        /* \"#utility.yul\":22773:22833   */\n      swap2\n      swap1\n      pop\n      jump\t// out\n        /* \"#utility.yul\":22839:22981   */\n    tag_548:\n        /* \"#utility.yul\":22889:22898   */\n      0x00\n        /* \"#utility.yul\":22922:22975   */\n      tag_806\n        /* \"#utility.yul\":22940:22974   */\n      tag_807\n        /* \"#utility.yul\":22949:22973   */\n      tag_808\n        /* \"#utility.yul\":22967:22972   */\n      dup5\n        /* \"#utility.yul\":22949:22973   */\n      tag_523\n      jump\t// in\n    tag_808:\n        /* \"#utility.yul\":22940:22974   */\n      tag_547\n      jump\t// in\n    tag_807:\n        /* \"#utility.yul\":22922:22975   */\n      tag_523\n      jump\t// in\n    tag_806:\n        /* \"#utility.yul\":22909:22975   */\n      swap1\n      pop\n        /* \"#utility.yul\":22839:22981   */\n      swap2\n      swap1\n      pop\n      jump\t// out\n        /* \"#utility.yul\":22987:23062   */\n    tag_549:\n        /* \"#utility.yul\":23030:23033   */\n      0x00\n        /* \"#utility.yul\":23051:23056   */\n      dup2\n        /* \"#utility.yul\":23044:23056   */\n      swap1\n      pop\n        /* \"#utility.yul\":22987:23062   */\n      swap2\n      swap1\n      pop\n      jump\t// out\n        /* \"#utility.yul\":23068:23337   */\n    tag_550:\n        /* \"#utility.yul\":23178:23217   */\n      tag_811\n        /* \"#utility.yul\":23209:23216   */\n      dup4\n        /* \"#utility.yul\":23178:23217   */\n      tag_548\n      jump\t// in\n    tag_811:\n        /* \"#utility.yul\":23239:23330   */\n      tag_812\n        /* \"#utility.yul\":23288:23329   */\n      tag_813\n        /* \"#utility.yul\":23312:23328   */\n      dup3\n        /* \"#utility.yul\":23288:23329   */\n      tag_549\n      jump\t// in\n    tag_813:\n        /* \"#utility.yul\":23280:23286   */\n      dup5\n        /* \"#utility.yul\":23273:23277   */\n      dup5\n        /* \"#utility.yul\":23267:23278   */\n      sload\n        /* \"#utility.yul\":23239:23330   */\n      tag_546\n      jump\t// in\n    tag_812:\n        /* \"#utility.yul\":23233:23237   */\n      dup3\n        /* \"#utility.yul\":23226:23331   */\n      sstore\n        /* \"#utility.yul\":23144:23337   */\n      pop\n        /* \"#utility.yul\":23068:23337   */\n      pop\n      pop\n      pop\n      jump\t// out\n        /* \"#utility.yul\":23343:23416   */\n    tag_551:\n        /* \"#utility.yul\":23388:23391   */\n      0x00\n        /* \"#utility.yul\":23409:23410   */\n      0x00\n        /* \"#utility.yul\":23402:23410   */\n      swap1\n      pop\n        /* \"#utility.yul\":23343:23416   */\n      swap1\n      jump\t// out\n        /* \"#utility.yul\":23422:23611   */\n    tag_552:\n        /* \"#utility.yul\":23499:23531   */\n      tag_816\n      tag_551\n      jump\t// in\n    tag_816:\n        /* \"#utility.yul\":23540:23605   */\n      tag_817\n        /* \"#utility.yul\":23598:23604   */\n      dup2\n        /* \"#utility.yul\":23590:23596   */\n      dup5\n        /* \"#utility.yul\":23584:23588   */\n      dup5\n        /* \"#utility.yul\":23540:23605   */\n      tag_550\n      jump\t// in\n    tag_817:\n        /* \"#utility.yul\":23475:23611   */\n      pop\n        /* \"#utility.yul\":23422:23611   */\n      pop\n      pop\n      jump\t// out\n        /* \"#utility.yul\":23617:23803   */\n    tag_553:\n        /* \"#utility.yul\":23677:23797   */\n    tag_819:\n        /* \"#utility.yul\":23694:23697   */\n      dup2\n        /* \"#utility.yul\":23687:23692   */\n      dup2\n        /* \"#utility.yul\":23684:23698   */\n      lt\n        /* \"#utility.yul\":23677:23797   */\n      iszero\n      tag_821\n      jumpi\n        /* \"#utility.yul\":23748:23787   */\n      tag_822\n        /* \"#utility.yul\":23785:23786   */\n      0x00\n        /* \"#utility.yul\":23778:23783   */\n      dup3\n        /* \"#utility.yul\":23748:23787   */\n      tag_552\n      jump\t// in\n    tag_822:\n        /* \"#utility.yul\":23721:23722   */\n      0x01\n        /* \"#utility.yul\":23714:23719   */\n      dup2\n        /* \"#utility.yul\":23710:23723   */\n      add\n        /* \"#utility.yul\":23701:23723   */\n      swap1\n      pop\n        /* \"#utility.yul\":23677:23797   */\n      jump(tag_819)\n    tag_821:\n        /* \"#utility.yul\":23617:23803   */\n      pop\n      pop\n      jump\t// out\n        /* \"#utility.yul\":23809:24352   */\n    tag_554:\n        /* \"#utility.yul\":23910:23912   */\n      0x1f\n        /* \"#utility.yul\":23905:23908   */\n      dup3\n        /* \"#utility.yul\":23902:23913   */\n      gt\n        /* \"#utility.yul\":23899:24345   */\n      iszero\n      tag_824\n      jumpi\n        /* \"#utility.yul\":23944:23982   */\n      tag_825\n        /* \"#utility.yul\":23976:23981   */\n      dup2\n        /* \"#utility.yul\":23944:23982   */\n      tag_543\n      jump\t// in\n    tag_825:\n        /* \"#utility.yul\":24028:24057   */\n      tag_826\n        /* \"#utility.yul\":24046:24056   */\n      dup5\n        /* \"#utility.yul\":24028:24057   */\n      tag_544\n      jump\t// in\n    tag_826:\n        /* \"#utility.yul\":24018:24026   */\n      dup2\n        /* \"#utility.yul\":24014:24058   */\n      add\n        /* \"#utility.yul\":24211:24213   */\n      0x20\n        /* \"#utility.yul\":24199:24209   */\n      dup6\n        /* \"#utility.yul\":24196:24214   */\n      lt\n        /* \"#utility.yul\":24193:24242   */\n      iszero\n      tag_827\n      jumpi\n        /* \"#utility.yul\":24232:24240   */\n      dup2\n        /* \"#utility.yul\":24217:24240   */\n      swap1\n      pop\n        /* \"#utility.yul\":24193:24242   */\n    tag_827:\n        /* \"#utility.yul\":24255:24335   */\n      tag_828\n        /* \"#utility.yul\":24311:24333   */\n      tag_829\n        /* \"#utility.yul\":24329:24332   */\n      dup6\n        /* \"#utility.yul\":24311:24333   */\n      tag_544\n      jump\t// in\n    tag_829:\n        /* \"#utility.yul\":24301:24309   */\n      dup4\n        /* \"#utility.yul\":24297:24334   */\n      add\n        /* \"#utility.yul\":24284:24295   */\n      dup3\n        /* \"#utility.yul\":24255:24335   */\n      tag_553\n      jump\t// in\n    tag_828:\n        /* \"#utility.yul\":23914:24345   */\n      pop\n      pop\n        /* \"#utility.yul\":23899:24345   */\n    tag_824:\n        /* \"#utility.yul\":23809:24352   */\n      pop\n      pop\n      pop\n      jump\t// out\n        /* \"#utility.yul\":24358:24475   */\n    tag_555:\n        /* \"#utility.yul\":24412:24420   */\n      0x00\n        /* \"#utility.yul\":24462:24467   */\n      dup3\n        /* \"#utility.yul\":24456:24460   */\n      dup3\n        /* \"#utility.yul\":24452:24468   */\n      shr\n        /* \"#utility.yul\":24431:24468   */\n      swap1\n      pop\n        /* \"#utility.yul\":24358:24475   */\n      swap3\n      swap2\n      pop\n      pop\n      jump\t// out\n        /* \"#utility.yul\":24481:24650   */\n    tag_556:\n        /* \"#utility.yul\":24525:24531   */\n      0x00\n        /* \"#utility.yul\":24558:24609   */\n      tag_832\n        /* \"#utility.yul\":24606:24607   */\n      0x00\n        /* \"#utility.yul\":24602:24608   */\n      not\n        /* \"#utility.yul\":24594:24599   */\n      dup5\n        /* \"#utility.yul\":24591:24592   */\n      0x08\n        /* \"#utility.yul\":24587:24600   */\n      mul\n        /* \"#utility.yul\":24558:24609   */\n      tag_555\n      jump\t// in\n    tag_832:\n        /* \"#utility.yul\":24554:24610   */\n      not\n        /* \"#utility.yul\":24639:24643   */\n      dup1\n        /* \"#utility.yul\":24633:24637   */\n      dup4\n        /* \"#utility.yul\":24629:24644   */\n      and\n        /* \"#utility.yul\":24619:24644   */\n      swap2\n      pop\n        /* \"#utility.yul\":24532:24650   */\n      pop\n        /* \"#utility.yul\":24481:24650   */\n      swap3\n      swap2\n      pop\n      pop\n      jump\t// out\n        /* \"#utility.yul\":24655:24950   */\n    tag_557:\n        /* \"#utility.yul\":24731:24735   */\n      0x00\n        /* \"#utility.yul\":24877:24906   */\n      tag_834\n        /* \"#utility.yul\":24902:24905   */\n      dup4\n        /* \"#utility.yul\":24896:24900   */\n      dup4\n        /* \"#utility.yul\":24877:24906   */\n      tag_556\n      jump\t// in\n    tag_834:\n        /* \"#utility.yul\":24869:24906   */\n      swap2\n      pop\n        /* \"#utility.yul\":24939:24942   */\n      dup3\n        /* \"#utility.yul\":24936:24937   */\n      0x02\n        /* \"#utility.yul\":24932:24943   */\n      mul\n        /* \"#utility.yul\":24926:24930   */\n      dup3\n        /* \"#utility.yul\":24923:24944   */\n      or\n        /* \"#utility.yul\":24915:24944   */\n      swap1\n      pop\n        /* \"#utility.yul\":24655:24950   */\n      swap3\n      swap2\n      pop\n      pop\n      jump\t// out\n        /* \"#utility.yul\":24955:26350   */\n    tag_230:\n        /* \"#utility.yul\":25072:25109   */\n      tag_836\n        /* \"#utility.yul\":25105:25108   */\n      dup3\n        /* \"#utility.yul\":25072:25109   */\n      tag_511\n      jump\t// in\n    tag_836:\n        /* \"#utility.yul\":25174:25192   */\n      0xffffffffffffffff\n        /* \"#utility.yul\":25166:25172   */\n      dup2\n        /* \"#utility.yul\":25163:25193   */\n      gt\n        /* \"#utility.yul\":25160:25216   */\n      iszero\n      tag_837\n      jumpi\n        /* \"#utility.yul\":25196:25214   */\n      tag_838\n      tag_542\n      jump\t// in\n    tag_838:\n        /* \"#utility.yul\":25160:25216   */\n    tag_837:\n        /* \"#utility.yul\":25240:25278   */\n      tag_839\n        /* \"#utility.yul\":25272:25276   */\n      dup3\n        /* \"#utility.yul\":25266:25277   */\n      sload\n        /* \"#utility.yul\":25240:25278   */\n      tag_203\n      jump\t// in\n    tag_839:\n        /* \"#utility.yul\":25325:25392   */\n      tag_840\n        /* \"#utility.yul\":25385:25391   */\n      dup3\n        /* \"#utility.yul\":25377:25383   */\n      dup3\n        /* \"#utility.yul\":25371:25375   */\n      dup6\n        /* \"#utility.yul\":25325:25392   */\n      tag_554\n      jump\t// in\n    tag_840:\n        /* \"#utility.yul\":25419:25420   */\n      0x00\n        /* \"#utility.yul\":25443:25447   */\n      0x20\n        /* \"#utility.yul\":25430:25447   */\n      swap1\n      pop\n        /* \"#utility.yul\":25475:25477   */\n      0x1f\n        /* \"#utility.yul\":25467:25473   */\n      dup4\n        /* \"#utility.yul\":25464:25478   */\n      gt\n        /* \"#utility.yul\":25492:25493   */\n      0x01\n        /* \"#utility.yul\":25487:26105   */\n      dup2\n      eq\n      tag_842\n      jumpi\n        /* \"#utility.yul\":26149:26150   */\n      0x00\n        /* \"#utility.yul\":26166:26172   */\n      dup5\n        /* \"#utility.yul\":26163:26240   */\n      iszero\n      tag_843\n      jumpi\n        /* \"#utility.yul\":26215:26224   */\n      dup3\n        /* \"#utility.yul\":26210:26213   */\n      dup8\n        /* \"#utility.yul\":26206:26225   */\n      add\n        /* \"#utility.yul\":26200:26226   */\n      mload\n        /* \"#utility.yul\":26191:26226   */\n      swap1\n      pop\n        /* \"#utility.yul\":26163:26240   */\n    tag_843:\n        /* \"#utility.yul\":26266:26333   */\n      tag_844\n        /* \"#utility.yul\":26326:26332   */\n      dup6\n        /* \"#utility.yul\":26319:26324   */\n      dup3\n        /* \"#utility.yul\":26266:26333   */\n      tag_557\n      jump\t// in\n    tag_844:\n        /* \"#utility.yul\":26260:26264   */\n      dup7\n        /* \"#utility.yul\":26253:26334   */\n      sstore\n        /* \"#utility.yul\":26122:26344   */\n      pop\n        /* \"#utility.yul\":25457:26344   */\n      jump(tag_841)\n        /* \"#utility.yul\":25487:26105   */\n    tag_842:\n        /* \"#utility.yul\":25539:25543   */\n      0x1f\n        /* \"#utility.yul\":25535:25544   */\n      not\n        /* \"#utility.yul\":25527:25533   */\n      dup5\n        /* \"#utility.yul\":25523:25545   */\n      and\n        /* \"#utility.yul\":25573:25610   */\n      tag_845\n        /* \"#utility.yul\":25605:25609   */\n      dup7\n        /* \"#utility.yul\":25573:25610   */\n      tag_543\n      jump\t// in\n    tag_845:\n        /* \"#utility.yul\":25632:25633   */\n      0x00\n        /* \"#utility.yul\":25646:25854   */\n    tag_846:\n        /* \"#utility.yul\":25660:25667   */\n      dup3\n        /* \"#utility.yul\":25657:25658   */\n      dup2\n        /* \"#utility.yul\":25654:25668   */\n      lt\n        /* \"#utility.yul\":25646:25854   */\n      iszero\n      tag_848\n      jumpi\n        /* \"#utility.yul\":25739:25748   */\n      dup5\n        /* \"#utility.yul\":25734:25737   */\n      dup10\n        /* \"#utility.yul\":25730:25749   */\n      add\n        /* \"#utility.yul\":25724:25750   */\n      mload\n        /* \"#utility.yul\":25716:25722   */\n      dup3\n        /* \"#utility.yul\":25709:25751   */\n      sstore\n        /* \"#utility.yul\":25790:25791   */\n      0x01\n        /* \"#utility.yul\":25782:25788   */\n      dup3\n        /* \"#utility.yul\":25778:25792   */\n      add\n        /* \"#utility.yul\":25768:25792   */\n      swap2\n      pop\n        /* \"#utility.yul\":25837:25839   */\n      0x20\n        /* \"#utility.yul\":25826:25835   */\n      dup6\n        /* \"#utility.yul\":25822:25840   */\n      add\n        /* \"#utility.yul\":25809:25840   */\n      swap5\n      pop\n        /* \"#utility.yul\":25683:25687   */\n      0x20\n        /* \"#utility.yul\":25680:25681   */\n      dup2\n        /* \"#utility.yul\":25676:25688   */\n      add\n        /* \"#utility.yul\":25671:25688   */\n      swap1\n      pop\n        /* \"#utility.yul\":25646:25854   */\n      jump(tag_846)\n    tag_848:\n        /* \"#utility.yul\":25882:25888   */\n      dup7\n        /* \"#utility.yul\":25873:25880   */\n      dup4\n        /* \"#utility.yul\":25870:25889   */\n      lt\n        /* \"#utility.yul\":25867:26046   */\n      iszero\n      tag_849\n      jumpi\n        /* \"#utility.yul\":25940:25949   */\n      dup5\n        /* \"#utility.yul\":25935:25938   */\n      dup10\n        /* \"#utility.yul\":25931:25950   */\n      add\n        /* \"#utility.yul\":25925:25951   */\n      mload\n        /* \"#utility.yul\":25983:26031   */\n      tag_850\n        /* \"#utility.yul\":26025:26029   */\n      0x1f\n        /* \"#utility.yul\":26017:26023   */\n      dup10\n        /* \"#utility.yul\":26013:26030   */\n      and\n        /* \"#utility.yul\":26002:26011   */\n      dup3\n        /* \"#utility.yul\":25983:26031   */\n      tag_556\n      jump\t// in\n    tag_850:\n        /* \"#utility.yul\":25975:25981   */\n      dup4\n        /* \"#utility.yul\":25968:26032   */\n      sstore\n        /* \"#utility.yul\":25890:26046   */\n      pop\n        /* \"#utility.yul\":25867:26046   */\n    tag_849:\n        /* \"#utility.yul\":26092:26093   */\n      0x01\n        /* \"#utility.yul\":26088:26089   */\n      0x02\n        /* \"#utility.yul\":26080:26086   */\n      dup9\n        /* \"#utility.yul\":26076:26090   */\n      mul\n        /* \"#utility.yul\":26072:26094   */\n      add\n        /* \"#utility.yul\":26066:26070   */\n      dup9\n        /* \"#utility.yul\":26059:26095   */\n      sstore\n        /* \"#utility.yul\":25494:26105   */\n      pop\n      pop\n      pop\n        /* \"#utility.yul\":25457:26344   */\n    tag_841:\n      pop\n        /* \"#utility.yul\":25047:26350   */\n      pop\n      pop\n      pop\n        /* \"#utility.yul\":24955:26350   */\n      pop\n      pop\n      jump\t// out\n        /* \"#utility.yul\":26356:26504   */\n    tag_558:\n        /* \"#utility.yul\":26454:26460   */\n      dup3\n        /* \"#utility.yul\":26449:26452   */\n      dup2\n        /* \"#utility.yul\":26444:26447   */\n      dup4\n        /* \"#utility.yul\":26431:26461   */\n      calldatacopy\n        /* \"#utility.yul\":26495:26496   */\n      0x00\n        /* \"#utility.yul\":26486:26492   */\n      dup4\n        /* \"#utility.yul\":26481:26484   */\n      dup4\n        /* \"#utility.yul\":26477:26493   */\n      add\n        /* \"#utility.yul\":26470:26497   */\n      mstore\n        /* \"#utility.yul\":26356:26504   */\n      pop\n      pop\n      pop\n      jump\t// out\n        /* \"#utility.yul\":26534:26851   */\n    tag_559:\n        /* \"#utility.yul\":26632:26635   */\n      0x00\n        /* \"#utility.yul\":26653:26724   */\n      tag_853\n        /* \"#utility.yul\":26717:26723   */\n      dup4\n        /* \"#utility.yul\":26712:26715   */\n      dup6\n        /* \"#utility.yul\":26653:26724   */\n      tag_512\n      jump\t// in\n    tag_853:\n        /* \"#utility.yul\":26646:26724   */\n      swap4\n      pop\n        /* \"#utility.yul\":26734:26790   */\n      tag_854\n        /* \"#utility.yul\":26783:26789   */\n      dup4\n        /* \"#utility.yul\":26778:26781   */\n      dup6\n        /* \"#utility.yul\":26771:26776   */\n      dup5\n        /* \"#utility.yul\":26734:26790   */\n      tag_558\n      jump\t// in\n    tag_854:\n        /* \"#utility.yul\":26815:26844   */\n      tag_855\n        /* \"#utility.yul\":26837:26843   */\n      dup4\n        /* \"#utility.yul\":26815:26844   */\n      tag_514\n      jump\t// in\n    tag_855:\n        /* \"#utility.yul\":26810:26813   */\n      dup5\n        /* \"#utility.yul\":26806:26845   */\n      add\n        /* \"#utility.yul\":26799:26845   */\n      swap1\n      pop\n        /* \"#utility.yul\":26534:26851   */\n      swap4\n      swap3\n      pop\n      pop\n      pop\n      jump\t// out\n        /* \"#utility.yul\":26857:27410   */\n    tag_237:\n        /* \"#utility.yul\":27036:27040   */\n      0x00\n        /* \"#utility.yul\":27074:27076   */\n      0x60\n        /* \"#utility.yul\":27063:27072   */\n      dup3\n        /* \"#utility.yul\":27059:27077   */\n      add\n        /* \"#utility.yul\":27051:27077   */\n      swap1\n      pop\n        /* \"#utility.yul\":27087:27158   */\n      tag_857\n        /* \"#utility.yul\":27155:27156   */\n      0x00\n        /* \"#utility.yul\":27144:27153   */\n      dup4\n        /* \"#utility.yul\":27140:27157   */\n      add\n        /* \"#utility.yul\":27131:27137   */\n      dup8\n        /* \"#utility.yul\":27087:27158   */\n      tag_531\n      jump\t// in\n    tag_857:\n        /* \"#utility.yul\":27205:27214   */\n      dup2\n        /* \"#utility.yul\":27199:27203   */\n      dup2\n        /* \"#utility.yul\":27195:27215   */\n      sub\n        /* \"#utility.yul\":27190:27192   */\n      0x20\n        /* \"#utility.yul\":27179:27188   */\n      dup4\n        /* \"#utility.yul\":27175:27193   */\n      add\n        /* \"#utility.yul\":27168:27216   */\n      mstore\n        /* \"#utility.yul\":27233:27321   */\n      tag_858\n        /* \"#utility.yul\":27316:27320   */\n      dup2\n        /* \"#utility.yul\":27307:27313   */\n      dup6\n        /* \"#utility.yul\":27299:27305   */\n      dup8\n        /* \"#utility.yul\":27233:27321   */\n      tag_559\n      jump\t// in\n    tag_858:\n        /* \"#utility.yul\":27225:27321   */\n      swap1\n      pop\n        /* \"#utility.yul\":27331:27403   */\n      tag_859\n        /* \"#utility.yul\":27399:27401   */\n      0x40\n        /* \"#utility.yul\":27388:27397   */\n      dup4\n        /* \"#utility.yul\":27384:27402   */\n      add\n        /* \"#utility.yul\":27375:27381   */\n      dup5\n        /* \"#utility.yul\":27331:27403   */\n      tag_528\n      jump\t// in\n    tag_859:\n        /* \"#utility.yul\":26857:27410   */\n      swap6\n      swap5\n      pop\n      pop\n      pop\n      pop\n      pop\n      jump\t// out\n        /* \"#utility.yul\":27416:27581   */\n    tag_560:\n        /* \"#utility.yul\":27556:27573   */\n      0x4f6e6c792061676772656761746f720000000000000000000000000000000000\n        /* \"#utility.yul\":27552:27553   */\n      0x00\n        /* \"#utility.yul\":27544:27550   */\n      dup3\n        /* \"#utility.yul\":27540:27554   */\n      add\n        /* \"#utility.yul\":27533:27574   */\n      mstore\n        /* \"#utility.yul\":27416:27581   */\n      pop\n      jump\t// out\n        /* \"#utility.yul\":27587:27953   */\n    tag_561:\n        /* \"#utility.yul\":27729:27732   */\n      0x00\n        /* \"#utility.yul\":27750:27817   */\n      tag_862\n        /* \"#utility.yul\":27814:27816   */\n      0x0f\n        /* \"#utility.yul\":27809:27812   */\n      dup4\n        /* \"#utility.yul\":27750:27817   */\n      tag_512\n      jump\t// in\n    tag_862:\n        /* \"#utility.yul\":27743:27817   */\n      swap2\n      pop\n        /* \"#utility.yul\":27826:27919   */\n      tag_863\n        /* \"#utility.yul\":27915:27918   */\n      dup3\n        /* \"#utility.yul\":27826:27919   */\n      tag_560\n      jump\t// in\n    tag_863:\n        /* \"#utility.yul\":27944:27946   */\n      0x20\n        /* \"#utility.yul\":27939:27942   */\n      dup3\n        /* \"#utility.yul\":27935:27947   */\n      add\n        /* \"#utility.yul\":27928:27947   */\n      swap1\n      pop\n        /* \"#utility.yul\":27587:27953   */\n      swap2\n      swap1\n      pop\n      jump\t// out\n        /* \"#utility.yul\":27959:28378   */\n    tag_256:\n        /* \"#utility.yul\":28125:28129   */\n      0x00\n        /* \"#utility.yul\":28163:28165   */\n      0x20\n        /* \"#utility.yul\":28152:28161   */\n      dup3\n        /* \"#utility.yul\":28148:28166   */\n      add\n        /* \"#utility.yul\":28140:28166   */\n      swap1\n      pop\n        /* \"#utility.yul\":28212:28221   */\n      dup2\n        /* \"#utility.yul\":28206:28210   */\n      dup2\n        /* \"#utility.yul\":28202:28222   */\n      sub\n        /* \"#utility.yul\":28198:28199   */\n      0x00\n        /* \"#utility.yul\":28187:28196   */\n      dup4\n        /* \"#utility.yul\":28183:28200   */\n      add\n        /* \"#utility.yul\":28176:28223   */\n      mstore\n        /* \"#utility.yul\":28240:28371   */\n      tag_865\n        /* \"#utility.yul\":28366:28370   */\n      dup2\n        /* \"#utility.yul\":28240:28371   */\n      tag_561\n      jump\t// in\n    tag_865:\n        /* \"#utility.yul\":28232:28371   */\n      swap1\n      pop\n        /* \"#utility.yul\":27959:28378   */\n      swap2\n      swap1\n      pop\n      jump\t// out\n        /* \"#utility.yul\":28384:28546   */\n    tag_562:\n        /* \"#utility.yul\":28524:28538   */\n      0x4e6f742072656365697665640000000000000000000000000000000000000000\n        /* \"#utility.yul\":28520:28521   */\n      0x00\n        /* \"#utility.yul\":28512:28518   */\n      dup3\n        /* \"#utility.yul\":28508:28522   */\n      add\n        /* \"#utility.yul\":28501:28539   */\n      mstore\n        /* \"#utility.yul\":28384:28546   */\n      pop\n      jump\t// out\n        /* \"#utility.yul\":28552:28918   */\n    tag_563:\n        /* \"#utility.yul\":28694:28697   */\n      0x00\n        /* \"#utility.yul\":28715:28782   */\n      tag_868\n        /* \"#utility.yul\":28779:28781   */\n      0x0c\n        /* \"#utility.yul\":28774:28777   */\n      dup4\n        /* \"#utility.yul\":28715:28782   */\n      tag_512\n      jump\t// in\n    tag_868:\n        /* \"#utility.yul\":28708:28782   */\n      swap2\n      pop\n        /* \"#utility.yul\":28791:28884   */\n      tag_869\n        /* \"#utility.yul\":28880:28883   */\n      dup3\n        /* \"#utility.yul\":28791:28884   */\n      tag_562\n      jump\t// in\n    tag_869:\n        /* \"#utility.yul\":28909:28911   */\n      0x20\n        /* \"#utility.yul\":28904:28907   */\n      dup3\n        /* \"#utility.yul\":28900:28912   */\n      add\n        /* \"#utility.yul\":28893:28912   */\n      swap1\n      pop\n        /* \"#utility.yul\":28552:28918   */\n      swap2\n      swap1\n      pop\n      jump\t// out\n        /* \"#utility.yul\":28924:29343   */\n    tag_260:\n        /* \"#utility.yul\":29090:29094   */\n      0x00\n        /* \"#utility.yul\":29128:29130   */\n      0x20\n        /* \"#utility.yul\":29117:29126   */\n      dup3\n        /* \"#utility.yul\":29113:29131   */\n      add\n        /* \"#utility.yul\":29105:29131   */\n      swap1\n      pop\n        /* \"#utility.yul\":29177:29186   */\n      dup2\n        /* \"#utility.yul\":29171:29175   */\n      dup2\n        /* \"#utility.yul\":29167:29187   */\n      sub\n        /* \"#utility.yul\":29163:29164   */\n      0x00\n        /* \"#utility.yul\":29152:29161   */\n      dup4\n        /* \"#utility.yul\":29148:29165   */\n      add\n        /* \"#utility.yul\":29141:29188   */\n      mstore\n        /* \"#utility.yul\":29205:29336   */\n      tag_871\n        /* \"#utility.yul\":29331:29335   */\n      dup2\n        /* \"#utility.yul\":29205:29336   */\n      tag_563\n      jump\t// in\n    tag_871:\n        /* \"#utility.yul\":29197:29336   */\n      swap1\n      pop\n        /* \"#utility.yul\":28924:29343   */\n      swap2\n      swap1\n      pop\n      jump\t// out\n        /* \"#utility.yul\":29349:29446   */\n    tag_564:\n        /* \"#utility.yul\":29408:29414   */\n      0x00\n        /* \"#utility.yul\":29436:29439   */\n      dup3\n        /* \"#utility.yul\":29426:29439   */\n      swap1\n      pop\n        /* \"#utility.yul\":29349:29446   */\n      swap3\n      swap2\n      pop\n      pop\n      jump\t// out\n        /* \"#utility.yul\":29452:30855   */\n    tag_262:\n        /* \"#utility.yul\":29576:29620   */\n      tag_874\n        /* \"#utility.yul\":29616:29619   */\n      dup4\n        /* \"#utility.yul\":29611:29614   */\n      dup4\n        /* \"#utility.yul\":29576:29620   */\n      tag_564\n      jump\t// in\n    tag_874:\n        /* \"#utility.yul\":29685:29703   */\n      0xffffffffffffffff\n        /* \"#utility.yul\":29677:29683   */\n      dup2\n        /* \"#utility.yul\":29674:29704   */\n      gt\n        /* \"#utility.yul\":29671:29727   */\n      iszero\n      tag_875\n      jumpi\n        /* \"#utility.yul\":29707:29725   */\n      tag_876\n      tag_542\n      jump\t// in\n    tag_876:\n        /* \"#utility.yul\":29671:29727   */\n    tag_875:\n        /* \"#utility.yul\":29751:29789   */\n      tag_877\n        /* \"#utility.yul\":29783:29787   */\n      dup3\n        /* \"#utility.yul\":29777:29788   */\n      sload\n        /* \"#utility.yul\":29751:29789   */\n      tag_203\n      jump\t// in\n    tag_877:\n        /* \"#utility.yul\":29836:29903   */\n      tag_878\n        /* \"#utility.yul\":29896:29902   */\n      dup3\n        /* \"#utility.yul\":29888:29894   */\n      dup3\n        /* \"#utility.yul\":29882:29886   */\n      dup6\n        /* \"#utility.yul\":29836:29903   */\n      tag_554\n      jump\t// in\n    tag_878:\n        /* \"#utility.yul\":29930:29931   */\n      0x00\n        /* \"#utility.yul\":29959:29961   */\n      0x1f\n        /* \"#utility.yul\":29951:29957   */\n      dup4\n        /* \"#utility.yul\":29948:29962   */\n      gt\n        /* \"#utility.yul\":29976:29977   */\n      0x01\n        /* \"#utility.yul\":29971:30603   */\n      dup2\n      eq\n      tag_880\n      jumpi\n        /* \"#utility.yul\":30647:30648   */\n      0x00\n        /* \"#utility.yul\":30664:30670   */\n      dup5\n        /* \"#utility.yul\":30661:30745   */\n      iszero\n      tag_881\n      jumpi\n        /* \"#utility.yul\":30720:30729   */\n      dup3\n        /* \"#utility.yul\":30715:30718   */\n      dup8\n        /* \"#utility.yul\":30711:30730   */\n      add\n        /* \"#utility.yul\":30698:30731   */\n      calldataload\n        /* \"#utility.yul\":30689:30731   */\n      swap1\n      pop\n        /* \"#utility.yul\":30661:30745   */\n    tag_881:\n        /* \"#utility.yul\":30771:30838   */\n      tag_882\n        /* \"#utility.yul\":30831:30837   */\n      dup6\n        /* \"#utility.yul\":30824:30829   */\n      dup3\n        /* \"#utility.yul\":30771:30838   */\n      tag_557\n      jump\t// in\n    tag_882:\n        /* \"#utility.yul\":30765:30769   */\n      dup7\n        /* \"#utility.yul\":30758:30839   */\n      sstore\n        /* \"#utility.yul\":30620:30849   */\n      pop\n        /* \"#utility.yul\":29941:30849   */\n      jump(tag_879)\n        /* \"#utility.yul\":29971:30603   */\n    tag_880:\n        /* \"#utility.yul\":30023:30027   */\n      0x1f\n        /* \"#utility.yul\":30019:30028   */\n      not\n        /* \"#utility.yul\":30011:30017   */\n      dup5\n        /* \"#utility.yul\":30007:30029   */\n      and\n        /* \"#utility.yul\":30057:30094   */\n      tag_883\n        /* \"#utility.yul\":30089:30093   */\n      dup7\n        /* \"#utility.yul\":30057:30094   */\n      tag_543\n      jump\t// in\n    tag_883:\n        /* \"#utility.yul\":30116:30117   */\n      0x00\n        /* \"#utility.yul\":30130:30345   */\n    tag_884:\n        /* \"#utility.yul\":30144:30151   */\n      dup3\n        /* \"#utility.yul\":30141:30142   */\n      dup2\n        /* \"#utility.yul\":30138:30152   */\n      lt\n        /* \"#utility.yul\":30130:30345   */\n      iszero\n      tag_886\n      jumpi\n        /* \"#utility.yul\":30230:30239   */\n      dup5\n        /* \"#utility.yul\":30225:30228   */\n      dup10\n        /* \"#utility.yul\":30221:30240   */\n      add\n        /* \"#utility.yul\":30208:30241   */\n      calldataload\n        /* \"#utility.yul\":30200:30206   */\n      dup3\n        /* \"#utility.yul\":30193:30242   */\n      sstore\n        /* \"#utility.yul\":30281:30282   */\n      0x01\n        /* \"#utility.yul\":30273:30279   */\n      dup3\n        /* \"#utility.yul\":30269:30283   */\n      add\n        /* \"#utility.yul\":30259:30283   */\n      swap2\n      pop\n        /* \"#utility.yul\":30328:30330   */\n      0x20\n        /* \"#utility.yul\":30317:30326   */\n      dup6\n        /* \"#utility.yul\":30313:30331   */\n      add\n        /* \"#utility.yul\":30300:30331   */\n      swap5\n      pop\n        /* \"#utility.yul\":30167:30171   */\n      0x20\n        /* \"#utility.yul\":30164:30165   */\n      dup2\n        /* \"#utility.yul\":30160:30172   */\n      add\n        /* \"#utility.yul\":30155:30172   */\n      swap1\n      pop\n        /* \"#utility.yul\":30130:30345   */\n      jump(tag_884)\n    tag_886:\n        /* \"#utility.yul\":30373:30379   */\n      dup7\n        /* \"#utility.yul\":30364:30371   */\n      dup4\n        /* \"#utility.yul\":30361:30380   */\n      lt\n        /* \"#utility.yul\":30358:30544   */\n      iszero\n      tag_887\n      jumpi\n        /* \"#utility.yul\":30438:30447   */\n      dup5\n        /* \"#utility.yul\":30433:30436   */\n      dup10\n        /* \"#utility.yul\":30429:30448   */\n      add\n        /* \"#utility.yul\":30416:30449   */\n      calldataload\n        /* \"#utility.yul\":30481:30529   */\n      tag_888\n        /* \"#utility.yul\":30523:30527   */\n      0x1f\n        /* \"#utility.yul\":30515:30521   */\n      dup10\n        /* \"#utility.yul\":30511:30528   */\n      and\n        /* \"#utility.yul\":30500:30509   */\n      dup3\n        /* \"#utility.yul\":30481:30529   */\n      tag_556\n      jump\t// in\n    tag_888:\n        /* \"#utility.yul\":30473:30479   */\n      dup4\n        /* \"#utility.yul\":30466:30530   */\n      sstore\n        /* \"#utility.yul\":30381:30544   */\n      pop\n        /* \"#utility.yul\":30358:30544   */\n    tag_887:\n        /* \"#utility.yul\":30590:30591   */\n      0x01\n        /* \"#utility.yul\":30586:30587   */\n      0x02\n        /* \"#utility.yul\":30578:30584   */\n      dup9\n        /* \"#utility.yul\":30574:30588   */\n      mul\n        /* \"#utility.yul\":30570:30592   */\n      add\n        /* \"#utility.yul\":30564:30568   */\n      dup9\n        /* \"#utility.yul\":30557:30593   */\n      sstore\n        /* \"#utility.yul\":29978:30603   */\n      pop\n      pop\n      pop\n        /* \"#utility.yul\":29941:30849   */\n    tag_879:\n      pop\n        /* \"#utility.yul\":29551:30855   */\n      pop\n      pop\n      pop\n        /* \"#utility.yul\":29452:30855   */\n      pop\n      pop\n      pop\n      jump\t// out\n        /* \"#utility.yul\":30861:31304   */\n    tag_264:\n        /* \"#utility.yul\":31012:31016   */\n      0x00\n        /* \"#utility.yul\":31050:31052   */\n      0x40\n        /* \"#utility.yul\":31039:31048   */\n      dup3\n        /* \"#utility.yul\":31035:31053   */\n      add\n        /* \"#utility.yul\":31027:31053   */\n      swap1\n      pop\n        /* \"#utility.yul\":31063:31134   */\n      tag_890\n        /* \"#utility.yul\":31131:31132   */\n      0x00\n        /* \"#utility.yul\":31120:31129   */\n      dup4\n        /* \"#utility.yul\":31116:31133   */\n      add\n        /* \"#utility.yul\":31107:31113   */\n      dup7\n        /* \"#utility.yul\":31063:31134   */\n      tag_531\n      jump\t// in\n    tag_890:\n        /* \"#utility.yul\":31181:31190   */\n      dup2\n        /* \"#utility.yul\":31175:31179   */\n      dup2\n        /* \"#utility.yul\":31171:31191   */\n      sub\n        /* \"#utility.yul\":31166:31168   */\n      0x20\n        /* \"#utility.yul\":31155:31164   */\n      dup4\n        /* \"#utility.yul\":31151:31169   */\n      add\n        /* \"#utility.yul\":31144:31192   */\n      mstore\n        /* \"#utility.yul\":31209:31297   */\n      tag_891\n        /* \"#utility.yul\":31292:31296   */\n      dup2\n        /* \"#utility.yul\":31283:31289   */\n      dup5\n        /* \"#utility.yul\":31275:31281   */\n      dup7\n        /* \"#utility.yul\":31209:31297   */\n      tag_559\n      jump\t// in\n    tag_891:\n        /* \"#utility.yul\":31201:31297   */\n      swap1\n      pop\n        /* \"#utility.yul\":30861:31304   */\n      swap5\n      swap4\n      pop\n      pop\n      pop\n      pop\n      jump\t// out\n        /* \"#utility.yul\":31310:31478   */\n    tag_565:\n        /* \"#utility.yul\":31450:31470   */\n      0x416c726561647920726567697374657265640000000000000000000000000000\n        /* \"#utility.yul\":31446:31447   */\n      0x00\n        /* \"#utility.yul\":31438:31444   */\n      dup3\n        /* \"#utility.yul\":31434:31448   */\n      add\n        /* \"#utility.yul\":31427:31471   */\n      mstore\n        /* \"#utility.yul\":31310:31478   */\n      pop\n      jump\t// out\n        /* \"#utility.yul\":31484:31850   */\n    tag_566:\n        /* \"#utility.yul\":31626:31629   */\n      0x00\n        /* \"#utility.yul\":31647:31714   */\n      tag_894\n        /* \"#utility.yul\":31711:31713   */\n      0x12\n        /* \"#utility.yul\":31706:31709   */\n      dup4\n        /* \"#utility.yul\":31647:31714   */\n      tag_512\n      jump\t// in\n    tag_894:\n        /* \"#utility.yul\":31640:31714   */\n      swap2\n      pop\n        /* \"#utility.yul\":31723:31816   */\n      tag_895\n        /* \"#utility.yul\":31812:31815   */\n      dup3\n        /* \"#utility.yul\":31723:31816   */\n      tag_565\n      jump\t// in\n    tag_895:\n        /* \"#utility.yul\":31841:31843   */\n      0x20\n        /* \"#utility.yul\":31836:31839   */\n      dup3\n        /* \"#utility.yul\":31832:31844   */\n      add\n        /* \"#utility.yul\":31825:31844   */\n      swap1\n      pop\n        /* \"#utility.yul\":31484:31850   */\n      swap2\n      swap1\n      pop\n      jump\t// out\n        /* \"#utility.yul\":31856:32275   */\n    tag_268:\n        /* \"#utility.yul\":32022:32026   */\n      0x00\n        /* \"#utility.yul\":32060:32062   */\n      0x20\n        /* \"#utility.yul\":32049:32058   */\n      dup3\n        /* \"#utility.yul\":32045:32063   */\n      add\n        /* \"#utility.yul\":32037:32063   */\n      swap1\n      pop\n        /* \"#utility.yul\":32109:32118   */\n      dup2\n        /* \"#utility.yul\":32103:32107   */\n      dup2\n        /* \"#utility.yul\":32099:32119   */\n      sub\n        /* \"#utility.yul\":32095:32096   */\n      0x00\n        /* \"#utility.yul\":32084:32093   */\n      dup4\n        /* \"#utility.yul\":32080:32097   */\n      add\n        /* \"#utility.yul\":32073:32120   */\n      mstore\n        /* \"#utility.yul\":32137:32268   */\n      tag_897\n        /* \"#utility.yul\":32263:32267   */\n      dup2\n        /* \"#utility.yul\":32137:32268   */\n      tag_566\n      jump\t// in\n    tag_897:\n        /* \"#utility.yul\":32129:32268   */\n      swap1\n      pop\n        /* \"#utility.yul\":31856:32275   */\n      swap2\n      swap1\n      pop\n      jump\t// out\n        /* \"#utility.yul\":32281:32724   */\n    tag_273:\n        /* \"#utility.yul\":32432:32436   */\n      0x00\n        /* \"#utility.yul\":32470:32472   */\n      0x40\n        /* \"#utility.yul\":32459:32468   */\n      dup3\n        /* \"#utility.yul\":32455:32473   */\n      add\n        /* \"#utility.yul\":32447:32473   */\n      swap1\n      pop\n        /* \"#utility.yul\":32483:32554   */\n      tag_899\n        /* \"#utility.yul\":32551:32552   */\n      0x00\n        /* \"#utility.yul\":32540:32549   */\n      dup4\n        /* \"#utility.yul\":32536:32553   */\n      add\n        /* \"#utility.yul\":32527:32533   */\n      dup7\n        /* \"#utility.yul\":32483:32554   */\n      tag_532\n      jump\t// in\n    tag_899:\n        /* \"#utility.yul\":32601:32610   */\n      dup2\n        /* \"#utility.yul\":32595:32599   */\n      dup2\n        /* \"#utility.yul\":32591:32611   */\n      sub\n        /* \"#utility.yul\":32586:32588   */\n      0x20\n        /* \"#utility.yul\":32575:32584   */\n      dup4\n        /* \"#utility.yul\":32571:32589   */\n      add\n        /* \"#utility.yul\":32564:32612   */\n      mstore\n        /* \"#utility.yul\":32629:32717   */\n      tag_900\n        /* \"#utility.yul\":32712:32716   */\n      dup2\n        /* \"#utility.yul\":32703:32709   */\n      dup5\n        /* \"#utility.yul\":32695:32701   */\n      dup7\n        /* \"#utility.yul\":32629:32717   */\n      tag_559\n      jump\t// in\n    tag_900:\n        /* \"#utility.yul\":32621:32717   */\n      swap1\n      pop\n        /* \"#utility.yul\":32281:32724   */\n      swap5\n      swap4\n      pop\n      pop\n      pop\n      pop\n      jump\t// out\n        /* \"#utility.yul\":32730:32893   */\n    tag_567:\n        /* \"#utility.yul\":32870:32885   */\n      0x4f6e6c792072657461696c657200000000000000000000000000000000000000\n        /* \"#utility.yul\":32866:32867   */\n      0x00\n        /* \"#utility.yul\":32858:32864   */\n      dup3\n        /* \"#utility.yul\":32854:32868   */\n      add\n        /* \"#utility.yul\":32847:32886   */\n      mstore\n        /* \"#utility.yul\":32730:32893   */\n      pop\n      jump\t// out\n        /* \"#utility.yul\":32899:33265   */\n    tag_568:\n        /* \"#utility.yul\":33041:33044   */\n      0x00\n        /* \"#utility.yul\":33062:33129   */\n      tag_903\n        /* \"#utility.yul\":33126:33128   */\n      0x0d\n        /* \"#utility.yul\":33121:33124   */\n      dup4\n        /* \"#utility.yul\":33062:33129   */\n      tag_512\n      jump\t// in\n    tag_903:\n        /* \"#utility.yul\":33055:33129   */\n      swap2\n      pop\n        /* \"#utility.yul\":33138:33231   */\n      tag_904\n        /* \"#utility.yul\":33227:33230   */\n      dup3\n        /* \"#utility.yul\":33138:33231   */\n      tag_567\n      jump\t// in\n    tag_904:\n        /* \"#utility.yul\":33256:33258   */\n      0x20\n        /* \"#utility.yul\":33251:33254   */\n      dup3\n        /* \"#utility.yul\":33247:33259   */\n      add\n        /* \"#utility.yul\":33240:33259   */\n      swap1\n      pop\n        /* \"#utility.yul\":32899:33265   */\n      swap2\n      swap1\n      pop\n      jump\t// out\n        /* \"#utility.yul\":33271:33690   */\n    tag_300:\n        /* \"#utility.yul\":33437:33441   */\n      0x00\n        /* \"#utility.yul\":33475:33477   */\n      0x20\n        /* \"#utility.yul\":33464:33473   */\n      dup3\n        /* \"#utility.yul\":33460:33478   */\n      add\n        /* \"#utility.yul\":33452:33478   */\n      swap1\n      pop\n        /* \"#utility.yul\":33524:33533   */\n      dup2\n        /* \"#utility.yul\":33518:33522   */\n      dup2\n        /* \"#utility.yul\":33514:33534   */\n      sub\n        /* \"#utility.yul\":33510:33511   */\n      0x00\n        /* \"#utility.yul\":33499:33508   */\n      dup4\n        /* \"#utility.yul\":33495:33512   */\n      add\n        /* \"#utility.yul\":33488:33535   */\n      mstore\n        /* \"#utility.yul\":33552:33683   */\n      tag_906\n        /* \"#utility.yul\":33678:33682   */\n      dup2\n        /* \"#utility.yul\":33552:33683   */\n      tag_568\n      jump\t// in\n    tag_906:\n        /* \"#utility.yul\":33544:33683   */\n      swap1\n      pop\n        /* \"#utility.yul\":33271:33690   */\n      swap2\n      swap1\n      pop\n      jump\t// out\n        /* \"#utility.yul\":33696:33856   */\n    tag_569:\n        /* \"#utility.yul\":33836:33848   */\n      0x4e6f7420686f6c64657200000000000000000000000000000000000000000000\n        /* \"#utility.yul\":33832:33833   */\n      0x00\n        /* \"#utility.yul\":33824:33830   */\n      dup3\n        /* \"#utility.yul\":33820:33834   */\n      add\n        /* \"#utility.yul\":33813:33849   */\n      mstore\n        /* \"#utility.yul\":33696:33856   */\n      pop\n      jump\t// out\n        /* \"#utility.yul\":33862:34228   */\n    tag_570:\n        /* \"#utility.yul\":34004:34007   */\n      0x00\n        /* \"#utility.yul\":34025:34092   */\n      tag_909\n        /* \"#utility.yul\":34089:34091   */\n      0x0a\n        /* \"#utility.yul\":34084:34087   */\n      dup4\n        /* \"#utility.yul\":34025:34092   */\n      tag_512\n      jump\t// in\n    tag_909:\n        /* \"#utility.yul\":34018:34092   */\n      swap2\n      pop\n        /* \"#utility.yul\":34101:34194   */\n      tag_910\n        /* \"#utility.yul\":34190:34193   */\n      dup3\n        /* \"#utility.yul\":34101:34194   */\n      tag_569\n      jump\t// in\n    tag_910:\n        /* \"#utility.yul\":34219:34221   */\n      0x20\n        /* \"#utility.yul\":34214:34217   */\n      dup3\n        /* \"#utility.yul\":34210:34222   */\n      add\n        /* \"#utility.yul\":34203:34222   */\n      swap1\n      pop\n        /* \"#utility.yul\":33862:34228   */\n      swap2\n      swap1\n      pop\n      jump\t// out\n        /* \"#utility.yul\":34234:34653   */\n    tag_304:\n        /* \"#utility.yul\":34400:34404   */\n      0x00\n        /* \"#utility.yul\":34438:34440   */\n      0x20\n        /* \"#utility.yul\":34427:34436   */\n      dup3\n        /* \"#utility.yul\":34423:34441   */\n      add\n        /* \"#utility.yul\":34415:34441   */\n      swap1\n      pop\n        /* \"#utility.yul\":34487:34496   */\n      dup2\n        /* \"#utility.yul\":34481:34485   */\n      dup2\n        /* \"#utility.yul\":34477:34497   */\n      sub\n        /* \"#utility.yul\":34473:34474   */\n      0x00\n        /* \"#utility.yul\":34462:34471   */\n      dup4\n        /* \"#utility.yul\":34458:34475   */\n      add\n        /* \"#utility.yul\":34451:34498   */\n      mstore\n        /* \"#utility.yul\":34515:34646   */\n      tag_912\n        /* \"#utility.yul\":34641:34645   */\n      dup2\n        /* \"#utility.yul\":34515:34646   */\n      tag_570\n      jump\t// in\n    tag_912:\n        /* \"#utility.yul\":34507:34646   */\n      swap1\n      pop\n        /* \"#utility.yul\":34234:34653   */\n      swap2\n      swap1\n      pop\n      jump\t// out\n        /* \"#utility.yul\":34659:34991   */\n    tag_307:\n        /* \"#utility.yul\":34780:34784   */\n      0x00\n        /* \"#utility.yul\":34818:34820   */\n      0x40\n        /* \"#utility.yul\":34807:34816   */\n      dup3\n        /* \"#utility.yul\":34803:34821   */\n      add\n        /* \"#utility.yul\":34795:34821   */\n      swap1\n      pop\n        /* \"#utility.yul\":34831:34902   */\n      tag_914\n        /* \"#utility.yul\":34899:34900   */\n      0x00\n        /* \"#utility.yul\":34888:34897   */\n      dup4\n        /* \"#utility.yul\":34884:34901   */\n      add\n        /* \"#utility.yul\":34875:34881   */\n      dup6\n        /* \"#utility.yul\":34831:34902   */\n      tag_531\n      jump\t// in\n    tag_914:\n        /* \"#utility.yul\":34912:34984   */\n      tag_915\n        /* \"#utility.yul\":34980:34982   */\n      0x20\n        /* \"#utility.yul\":34969:34978   */\n      dup4\n        /* \"#utility.yul\":34965:34983   */\n      add\n        /* \"#utility.yul\":34956:34962   */\n      dup5\n        /* \"#utility.yul\":34912:34984   */\n      tag_532\n      jump\t// in\n    tag_915:\n        /* \"#utility.yul\":34659:34991   */\n      swap4\n      swap3\n      pop\n      pop\n      pop\n      jump\t// out\n        /* \"#utility.yul\":34997:35160   */\n    tag_571:\n        /* \"#utility.yul\":35137:35152   */\n      0x4f6e6c7920637573746f6d657200000000000000000000000000000000000000\n        /* \"#utility.yul\":35133:35134   */\n      0x00\n        /* \"#utility.yul\":35125:35131   */\n      dup3\n        /* \"#utility.yul\":35121:35135   */\n      add\n        /* \"#utility.yul\":35114:35153   */\n      mstore\n        /* \"#utility.yul\":34997:35160   */\n      pop\n      jump\t// out\n        /* \"#utility.yul\":35166:35532   */\n    tag_572:\n        /* \"#utility.yul\":35308:35311   */\n      0x00\n        /* \"#utility.yul\":35329:35396   */\n      tag_918\n        /* \"#utility.yul\":35393:35395   */\n      0x0d\n        /* \"#utility.yul\":35388:35391   */\n      dup4\n        /* \"#utility.yul\":35329:35396   */\n      tag_512\n      jump\t// in\n    tag_918:\n        /* \"#utility.yul\":35322:35396   */\n      swap2\n      pop\n        /* \"#utility.yul\":35405:35498   */\n      tag_919\n        /* \"#utility.yul\":35494:35497   */\n      dup3\n        /* \"#utility.yul\":35405:35498   */\n      tag_571\n      jump\t// in\n    tag_919:\n        /* \"#utility.yul\":35523:35525   */\n      0x20\n        /* \"#utility.yul\":35518:35521   */\n      dup3\n        /* \"#utility.yul\":35514:35526   */\n      add\n        /* \"#utility.yul\":35507:35526   */\n      swap1\n      pop\n        /* \"#utility.yul\":35166:35532   */\n      swap2\n      swap1\n      pop\n      jump\t// out\n        /* \"#utility.yul\":35538:35957   */\n    tag_311:\n        /* \"#utility.yul\":35704:35708   */\n      0x00\n        /* \"#utility.yul\":35742:35744   */\n      0x20\n        /* \"#utility.yul\":35731:35740   */\n      dup3\n        /* \"#utility.yul\":35727:35745   */\n      add\n        /* \"#utility.yul\":35719:35745   */\n      swap1\n      pop\n        /* \"#utility.yul\":35791:35800   */\n      dup2\n        /* \"#utility.yul\":35785:35789   */\n      dup2\n        /* \"#utility.yul\":35781:35801   */\n      sub\n        /* \"#utility.yul\":35777:35778   */\n      0x00\n        /* \"#utility.yul\":35766:35775   */\n      dup4\n        /* \"#utility.yul\":35762:35779   */\n      add\n        /* \"#utility.yul\":35755:35802   */\n      mstore\n        /* \"#utility.yul\":35819:35950   */\n      tag_921\n        /* \"#utility.yul\":35945:35949   */\n      dup2\n        /* \"#utility.yul\":35819:35950   */\n      tag_572\n      jump\t// in\n    tag_921:\n        /* \"#utility.yul\":35811:35950   */\n      swap1\n      pop\n        /* \"#utility.yul\":35538:35957   */\n      swap2\n      swap1\n      pop\n      jump\t// out\n        /* \"#utility.yul\":35963:36126   */\n    tag_573:\n        /* \"#utility.yul\":36103:36118   */\n      0x4f6e6c7920737570706c69657200000000000000000000000000000000000000\n        /* \"#utility.yul\":36099:36100   */\n      0x00\n        /* \"#utility.yul\":36091:36097   */\n      dup3\n        /* \"#utility.yul\":36087:36101   */\n      add\n        /* \"#utility.yul\":36080:36119   */\n      mstore\n        /* \"#utility.yul\":35963:36126   */\n      pop\n      jump\t// out\n        /* \"#utility.yul\":36132:36498   */\n    tag_574:\n        /* \"#utility.yul\":36274:36277   */\n      0x00\n        /* \"#utility.yul\":36295:36362   */\n      tag_924\n        /* \"#utility.yul\":36359:36361   */\n      0x0d\n        /* \"#utility.yul\":36354:36357   */\n      dup4\n        /* \"#utility.yul\":36295:36362   */\n      tag_512\n      jump\t// in\n    tag_924:\n        /* \"#utility.yul\":36288:36362   */\n      swap2\n      pop\n        /* \"#utility.yul\":36371:36464   */\n      tag_925\n        /* \"#utility.yul\":36460:36463   */\n      dup3\n        /* \"#utility.yul\":36371:36464   */\n      tag_573\n      jump\t// in\n    tag_925:\n        /* \"#utility.yul\":36489:36491   */\n      0x20\n        /* \"#utility.yul\":36484:36487   */\n      dup3\n        /* \"#utility.yul\":36480:36492   */\n      add\n        /* \"#utility.yul\":36473:36492   */\n      swap1\n      pop\n        /* \"#utility.yul\":36132:36498   */\n      swap2\n      swap1\n      pop\n      jump\t// out\n        /* \"#utility.yul\":36504:36923   */\n    tag_326:\n        /* \"#utility.yul\":36670:36674   */\n      0x00\n        /* \"#utility.yul\":36708:36710   */\n      0x20\n        /* \"#utility.yul\":36697:36706   */\n      dup3\n        /* \"#utility.yul\":36693:36711   */\n      add\n        /* \"#utility.yul\":36685:36711   */\n      swap1\n      pop\n        /* \"#utility.yul\":36757:36766   */\n      dup2\n        /* \"#utility.yul\":36751:36755   */\n      dup2\n        /* \"#utility.yul\":36747:36767   */\n      sub\n        /* \"#utility.yul\":36743:36744   */\n      0x00\n        /* \"#utility.yul\":36732:36741   */\n      dup4\n        /* \"#utility.yul\":36728:36745   */\n      add\n        /* \"#utility.yul\":36721:36768   */\n      mstore\n        /* \"#utility.yul\":36785:36916   */\n      tag_927\n        /* \"#utility.yul\":36911:36915   */\n      dup2\n        /* \"#utility.yul\":36785:36916   */\n      tag_574\n      jump\t// in\n    tag_927:\n        /* \"#utility.yul\":36777:36916   */\n      swap1\n      pop\n        /* \"#utility.yul\":36504:36923   */\n      swap2\n      swap1\n      pop\n      jump\t// out\n        /* \"#utility.yul\":36929:37091   */\n    tag_575:\n        /* \"#utility.yul\":37069:37083   */\n      0x556e6b6e6f776e2063726f700000000000000000000000000000000000000000\n        /* \"#utility.yul\":37065:37066   */\n      0x00\n        /* \"#utility.yul\":37057:37063   */\n      dup3\n        /* \"#utility.yul\":37053:37067   */\n      add\n        /* \"#utility.yul\":37046:37084   */\n      mstore\n        /* \"#utility.yul\":36929:37091   */\n      pop\n      jump\t// out\n        /* \"#utility.yul\":37097:37463   */\n    tag_576:\n        /* \"#utility.yul\":37239:37242   */\n      0x00\n        /* \"#utility.yul\":37260:37327   */\n      tag_930\n        /* \"#utility.yul\":37324:37326   */\n      0x0c\n        /* \"#utility.yul\":37319:37322   */\n      dup4\n        /* \"#utility.yul\":37260:37327   */\n      tag_512\n      jump\t// in\n    tag_930:\n        /* \"#utility.yul\":37253:37327   */\n      swap2\n      pop\n        /* \"#utility.yul\":37336:37429   */\n      tag_931\n        /* \"#utility.yul\":37425:37428   */\n      dup3\n        /* \"#utility.yul\":37336:37429   */\n      tag_575\n      jump\t// in\n    tag_931:\n        /* \"#utility.yul\":37454:37456   */\n      0x20\n        /* \"#utility.yul\":37449:37452   */\n      dup3\n        /* \"#utility.yul\":37445:37457   */\n      add\n        /* \"#utility.yul\":37438:37457   */\n      swap1\n      pop\n        /* \"#utility.yul\":37097:37463   */\n      swap2\n      swap1\n      pop\n      jump\t// out\n        /* \"#utility.yul\":37469:37888   */\n    tag_352:\n        /* \"#utility.yul\":37635:37639   */\n      0x00\n        /* \"#utility.yul\":37673:37675   */\n      0x20\n        /* \"#utility.yul\":37662:37671   */\n      dup3\n        /* \"#utility.yul\":37658:37676   */\n      add\n        /* \"#utility.yul\":37650:37676   */\n      swap1\n      pop\n        /* \"#utility.yul\":37722:37731   */\n      dup2\n        /* \"#utility.yul\":37716:37720   */\n      dup2\n        /* \"#utility.yul\":37712:37732   */\n      sub\n        /* \"#utility.yul\":37708:37709   */\n      0x00\n        /* \"#utility.yul\":37697:37706   */\n      dup4\n        /* \"#utility.yul\":37693:37710   */\n      add\n        /* \"#utility.yul\":37686:37733   */\n      mstore\n        /* \"#utility.yul\":37750:37881   */\n      tag_933\n        /* \"#utility.yul\":37876:37880   */\n      dup2\n        /* \"#utility.yul\":37750:37881   */\n      tag_576\n      jump\t// in\n    tag_933:\n        /* \"#utility.yul\":37742:37881   */\n      swap1\n      pop\n        /* \"#utility.yul\":37469:37888   */\n      swap2\n      swap1\n      pop\n      jump\t// out\n        /* \"#utility.yul\":37894:38447   */\n    tag_359:\n        /* \"#utility.yul\":38073:38077   */\n      0x00\n        /* \"#utility.yul\":38111:38113   */\n      0x60\n        /* \"#utility.yul\":38100:38109   */\n      dup3\n        /* \"#utility.yul\":38096:38114   */\n      add\n        /* \"#utility.yul\":38088:38114   */\n      swap1\n      pop\n        /* \"#utility.yul\":38124:38195   */\n      tag_935\n        /* \"#utility.yul\":38192:38193   */\n      0x00\n        /* \"#utility.yul\":38181:38190   */\n      dup4\n        /* \"#utility.yul\":38177:38194   */\n      add\n        /* \"#utility.yul\":38168:38174   */\n      dup8\n        /* \"#utility.yul\":38124:38195   */\n      tag_531\n      jump\t// in\n    tag_935:\n        /* \"#utility.yul\":38205:38277   */\n      tag_936\n        /* \"#utility.yul\":38273:38275   */\n      0x20\n        /* \"#utility.yul\":38262:38271   */\n      dup4\n        /* \"#utility.yul\":38258:38276   */\n      add\n        /* \"#utility.yul\":38249:38255   */\n      dup7\n        /* \"#utility.yul\":38205:38277   */\n      tag_532\n      jump\t// in\n    tag_936:\n        /* \"#utility.yul\":38324:38333   */\n      dup2\n        /* \"#utility.yul\":38318:38322   */\n      dup2\n        /* \"#utility.yul\":38314:38334   */\n      sub\n        /* \"#utility.yul\":38309:38311   */\n      0x40\n        /* \"#utility.yul\":38298:38307   */\n      dup4\n        /* \"#utility.yul\":38294:38312   */\n      add\n        /* \"#utility.yul\":38287:38335   */\n      mstore\n        /* \"#utility.yul\":38352:38440   */\n      tag_937\n        /* \"#utility.yul\":38435:38439   */\n      dup2\n        /* \"#utility.yul\":38426:38432   */\n      dup5\n        /* \"#utility.yul\":38418:38424   */\n      dup7\n        /* \"#utility.yul\":38352:38440   */\n      tag_559\n      jump\t// in\n    tag_937:\n        /* \"#utility.yul\":38344:38440   */\n      swap1\n      pop\n        /* \"#utility.yul\":37894:38447   */\n      swap6\n      swap5\n      pop\n      pop\n      pop\n      pop\n      pop\n      jump\t// out\n        /* \"#utility.yul\":38453:38532   */\n    tag_577:\n        /* \"#utility.yul\":38492:38499   */\n      0x00\n        /* \"#utility.yul\":38521:38526   */\n      dup2\n        /* \"#utility.yul\":38510:38526   */\n      swap1\n      pop\n        /* \"#utility.yul\":38453:38532   */\n      swap2\n      swap1\n      pop\n      jump\t// out\n        /* \"#utility.yul\":38538:38695   */\n    tag_578:\n        /* \"#utility.yul\":38643:38688   */\n      tag_940\n        /* \"#utility.yul\":38663:38687   */\n      tag_941\n        /* \"#utility.yul\":38681:38686   */\n      dup3\n        /* \"#utility.yul\":38663:38687   */\n      tag_523\n      jump\t// in\n    tag_941:\n        /* \"#utility.yul\":38643:38688   */\n      tag_577\n      jump\t// in\n    tag_940:\n        /* \"#utility.yul\":38638:38641   */\n      dup3\n        /* \"#utility.yul\":38631:38689   */\n      mstore\n        /* \"#utility.yul\":38538:38695   */\n      pop\n      pop\n      jump\t// out\n        /* \"#utility.yul\":38701:38795   */\n    tag_579:\n        /* \"#utility.yul\":38734:38742   */\n      0x00\n        /* \"#utility.yul\":38782:38787   */\n      dup2\n        /* \"#utility.yul\":38778:38780   */\n      0x60\n        /* \"#utility.yul\":38774:38788   */\n      shl\n        /* \"#utility.yul\":38753:38788   */\n      swap1\n      pop\n        /* \"#utility.yul\":38701:38795   */\n      swap2\n      swap1\n      pop\n      jump\t// out\n        /* \"#utility.yul\":38801:38895   */\n    tag_580:\n        /* \"#utility.yul\":38840:38847   */\n      0x00\n        /* \"#utility.yul\":38869:38889   */\n      tag_944\n        /* \"#utility.yul\":38883:38888   */\n      dup3\n        /* \"#utility.yul\":38869:38889   */\n      tag_579\n      jump\t// in\n    tag_944:\n        /* \"#utility.yul\":38858:38889   */\n      swap1\n      pop\n        /* \"#utility.yul\":38801:38895   */\n      swap2\n      swap1\n      pop\n      jump\t// out\n        /* \"#utility.yul\":38901:39001   */\n    tag_581:\n        /* \"#utility.yul\":38940:38947   */\n      0x00\n        /* \"#utility.yul\":38969:38995   */\n      tag_946\n        /* \"#utility.yul\":38989:38994   */\n      dup3\n        /* \"#utility.yul\":38969:38995   */\n      tag_580\n      jump\t// in\n    tag_946:\n        /* \"#utility.yul\":38958:38995   */\n      swap1\n      pop\n        /* \"#utility.yul\":38901:39001   */\n      swap2\n      swap1\n      pop\n      jump\t// out\n        /* \"#utility.yul\":39007:39164   */\n    tag_582:\n        /* \"#utility.yul\":39112:39157   */\n      tag_948\n        /* \"#utility.yul\":39132:39156   */\n      tag_949\n        /* \"#utility.yul\":39150:39155   */\n      dup3\n        /* \"#utility.yul\":39132:39156   */\n      tag_508\n      jump\t// in\n    tag_949:\n        /* \"#utility.yul\":39112:39157   */\n      tag_581\n      jump\t// in\n    tag_948:\n        /* \"#utility.yul\":39107:39110   */\n      dup3\n        /* \"#utility.yul\":39100:39158   */\n      mstore\n        /* \"#utility.yul\":39007:39164   */\n      pop\n      pop\n      jump\t// out\n        /* \"#utility.yul\":39170:39849   */\n    tag_495:\n        /* \"#utility.yul\":39366:39369   */\n      0x00\n        /* \"#utility.yul\":39381:39456   */\n      tag_951\n        /* \"#utility.yul\":39452:39455   */\n      dup3\n        /* \"#utility.yul\":39443:39449   */\n      dup8\n        /* \"#utility.yul\":39381:39456   */\n      tag_578\n      jump\t// in\n    tag_951:\n        /* \"#utility.yul\":39481:39483   */\n      0x20\n        /* \"#utility.yul\":39476:39479   */\n      dup3\n        /* \"#utility.yul\":39472:39484   */\n      add\n        /* \"#utility.yul\":39465:39484   */\n      swap2\n      pop\n        /* \"#utility.yul\":39494:39569   */\n      tag_952\n        /* \"#utility.yul\":39565:39568   */\n      dup3\n        /* \"#utility.yul\":39556:39562   */\n      dup7\n        /* \"#utility.yul\":39494:39569   */\n      tag_578\n      jump\t// in\n    tag_952:\n        /* \"#utility.yul\":39594:39596   */\n      0x20\n        /* \"#utility.yul\":39589:39592   */\n      dup3\n        /* \"#utility.yul\":39585:39597   */\n      add\n        /* \"#utility.yul\":39578:39597   */\n      swap2\n      pop\n        /* \"#utility.yul\":39607:39682   */\n      tag_953\n        /* \"#utility.yul\":39678:39681   */\n      dup3\n        /* \"#utility.yul\":39669:39675   */\n      dup6\n        /* \"#utility.yul\":39607:39682   */\n      tag_582\n      jump\t// in\n    tag_953:\n        /* \"#utility.yul\":39707:39709   */\n      0x14\n        /* \"#utility.yul\":39702:39705   */\n      dup3\n        /* \"#utility.yul\":39698:39710   */\n      add\n        /* \"#utility.yul\":39691:39710   */\n      swap2\n      pop\n        /* \"#utility.yul\":39720:39795   */\n      tag_954\n        /* \"#utility.yul\":39791:39794   */\n      dup3\n        /* \"#utility.yul\":39782:39788   */\n      dup5\n        /* \"#utility.yul\":39720:39795   */\n      tag_578\n      jump\t// in\n    tag_954:\n        /* \"#utility.yul\":39820:39822   */\n      0x20\n        /* \"#utility.yul\":39815:39818   */\n      dup3\n        /* \"#utility.yul\":39811:39823   */\n      add\n        /* \"#utility.yul\":39804:39823   */\n      swap2\n      pop\n        /* \"#utility.yul\":39840:39843   */\n      dup2\n        /* \"#utility.yul\":39833:39843   */\n      swap1\n      pop\n        /* \"#utility.yul\":39170:39849   */\n      swap6\n      swap5\n      pop\n      pop\n      pop\n      pop\n      pop\n      jump\t// out\n        /* \"#utility.yul\":39855:39953   */\n    tag_583:\n        /* \"#utility.yul\":39906:39912   */\n      0x00\n        /* \"#utility.yul\":39940:39945   */\n      dup2\n        /* \"#utility.yul\":39934:39946   */\n      mload\n        /* \"#utility.yul\":39924:39946   */\n      swap1\n      pop\n        /* \"#utility.yul\":39855:39953   */\n      swap2\n      swap1\n      pop\n      jump\t// out\n        /* \"#utility.yul\":39959:40106   */\n    tag_584:\n        /* \"#utility.yul\":40060:40071   */\n      0x00\n        /* \"#utility.yul\":40097:40100   */\n      dup2\n        /* \"#utility.yul\":40082:40100   */\n      swap1\n      pop\n        /* \"#utility.yul\":39959:40106   */\n      swap3\n      swap2\n      pop\n      pop\n      jump\t// out\n        /* \"#utility.yul\":40112:40498   */\n    tag_585:\n        /* \"#utility.yul\":40216:40219   */\n      0x00\n        /* \"#utility.yul\":40244:40282   */\n      tag_958\n        /* \"#utility.yul\":40276:40281   */\n      dup3\n        /* \"#utility.yul\":40244:40282   */\n      tag_583\n      jump\t// in\n    tag_958:\n        /* \"#utility.yul\":40298:40386   */\n      tag_959\n        /* \"#utility.yul\":40379:40385   */\n      dup2\n        /* \"#utility.yul\":40374:40377   */\n      dup6\n        /* \"#utility.yul\":40298:40386   */\n      tag_584\n      jump\t// in\n    tag_959:\n        /* \"#utility.yul\":40291:40386   */\n      swap4\n      pop\n        /* \"#utility.yul\":40395:40460   */\n      tag_960\n        /* \"#utility.yul\":40453:40459   */\n      dup2\n        /* \"#utility.yul\":40448:40451   */\n      dup6\n        /* \"#utility.yul\":40441:40445   */\n      0x20\n        /* \"#utility.yul\":40434:40439   */\n      dup7\n        /* \"#utility.yul\":40430:40446   */\n      add\n        /* \"#utility.yul\":40395:40460   */\n      tag_513\n      jump\t// in\n    tag_960:\n        /* \"#utility.yul\":40485:40491   */\n      dup1\n        /* \"#utility.yul\":40480:40483   */\n      dup5\n        /* \"#utility.yul\":40476:40492   */\n      add\n        /* \"#utility.yul\":40469:40492   */\n      swap2\n      pop\n        /* \"#utility.yul\":40220:40498   */\n      pop\n        /* \"#utility.yul\":40112:40498   */\n      swap3\n      swap2\n      pop\n      pop\n      jump\t// out\n        /* \"#utility.yul\":40504:40775   */\n    tag_497:\n        /* \"#utility.yul\":40634:40637   */\n      0x00\n        /* \"#utility.yul\":40656:40749   */\n      tag_962\n        /* \"#utility.yul\":40745:40748   */\n      dup3\n        /* \"#utility.yul\":40736:40742   */\n      dup5\n        /* \"#utility.yul\":40656:40749   */\n      tag_585\n      jump\t// in\n    tag_962:\n        /* \"#utility.yul\":40649:40749   */\n      swap2\n      pop\n        /* \"#utility.yul\":40766:40769   */\n      dup2\n        /* \"#utility.yul\":40759:40769   */\n      swap1\n      pop\n        /* \"#utility.yul\":40504:40775   */\n      swap3\n      swap2\n      pop\n      pop\n      jump\t// out\n        /* \"#utility.yul\":40781:40924   */\n    tag_586:\n        /* \"#utility.yul\":40838:40843   */\n      0x00\n        /* \"#utility.yul\":40869:40875   */\n      dup2\n        /* \"#utility.yul\":40863:40876   */\n      mload\n        /* \"#utility.yul\":40854:40876   */\n      swap1\n      pop\n        /* \"#utility.yul\":40885:40918   */\n      tag_964\n        /* \"#utility.yul\":40912:40917   */\n      dup2\n        /* \"#utility.yul\":40885:40918   */\n      tag_517\n      jump\t// in\n    tag_964:\n        /* \"#utility.yul\":40781:40924   */\n      swap3\n      swap2\n      pop\n      pop\n      jump\t// out\n        /* \"#utility.yul\":40930:41281   */\n    tag_501:\n        /* \"#utility.yul\":41000:41006   */\n      0x00\n        /* \"#utility.yul\":41049:41051   */\n      0x20\n        /* \"#utility.yul\":41037:41046   */\n      dup3\n        /* \"#utility.yul\":41028:41035   */\n      dup5\n        /* \"#utility.yul\":41024:41047   */\n      sub\n        /* \"#utility.yul\":41020:41052   */\n      slt\n        /* \"#utility.yul\":41017:41136   */\n      iszero\n      tag_966\n      jumpi\n        /* \"#utility.yul\":41055:41134   */\n      tag_967\n      tag_505\n      jump\t// in\n    tag_967:\n        /* \"#utility.yul\":41017:41136   */\n    tag_966:\n        /* \"#utility.yul\":41175:41176   */\n      0x00\n        /* \"#utility.yul\":41200:41264   */\n      tag_968\n        /* \"#utility.yul\":41256:41263   */\n      dup5\n        /* \"#utility.yul\":41247:41253   */\n      dup3\n        /* \"#utility.yul\":41236:41245   */\n      dup6\n        /* \"#utility.yul\":41232:41254   */\n      add\n        /* \"#utility.yul\":41200:41264   */\n      tag_586\n      jump\t// in\n    tag_968:\n        /* \"#utility.yul\":41190:41264   */\n      swap2\n      pop\n        /* \"#utility.yul\":41146:41274   */\n      pop\n        /* \"#utility.yul\":40930:41281   */\n      swap3\n      swap2\n      pop\n      pop\n      jump\t// out\n        /* \"#utility.yul\":41287:41467   */\n    tag_587:\n        /* \"#utility.yul\":41335:41412   */\n      0x4e487b7100000000000000000000000000000000000000000000000000000000\n        /* \"#utility.yul\":41332:41333   */\n      0x00\n        /* \"#utility.yul\":41325:41413   */\n      mstore\n        /* \"#utility.yul\":41432:41436   */\n      0x11\n        /* \"#utility.yul\":41429:41430   */\n      0x04\n        /* \"#utility.yul\":41422:41437   */\n      mstore\n        /* \"#utility.yul\":41456:41460   */\n      0x24\n        /* \"#utility.yul\":41453:41454   */\n      0x00\n        /* \"#utility.yul\":41446:41461   */\n      revert\n        /* \"#utility.yul\":41473:41706   */\n    tag_503:\n        /* \"#utility.yul\":41512:41515   */\n      0x00\n        /* \"#utility.yul\":41535:41559   */\n      tag_971\n        /* \"#utility.yul\":41553:41558   */\n      dup3\n        /* \"#utility.yul\":41535:41559   */\n      tag_523\n      jump\t// in\n    tag_971:\n        /* \"#utility.yul\":41526:41559   */\n      swap2\n      pop\n        /* \"#utility.yul\":41581:41647   */\n      0xffffffffffffffffffffffffffffffffffffffffffffffffffffffffffffffff\n        /* \"#utility.yul\":41574:41579   */\n      dup3\n        /* \"#utility.yul\":41571:41648   */\n      sub\n        /* \"#utility.yul\":41568:41671   */\n      tag_972\n      jumpi\n        /* \"#utility.yul\":41651:41669   */\n      tag_973\n      tag_587\n      jump\t// in\n    tag_973:\n        /* \"#utility.yul\":41568:41671   */\n    tag_972:\n        /* \"#utility.yul\":41698:41699   */\n      0x01\n        /* \"#utility.yul\":41691:41696   */\n      dup3\n        /* \"#utility.yul\":41687:41700   */\n      add\n        /* \"#utility.yul\":41680:41700   */\n      swap1\n      pop\n        /* \"#utility.yul\":41473:41706   */\n      swap2\n      swap1\n      pop\n      jump\t// out\n\n    auxdata: 0xa2646970667358221220fd69b91b6f97e3878fb9ec7b2937576481bd2d34e8347d31af0f17022756c03564736f6c634300081e0033\n}\n",
				"bytecode": {
					"linkReferences": {},
					"object": "6080604052348015600e575f5ffd5b503360125f6101000a81548173ffffffffffffffffffffffffffffffffffffffff021916908373ffffffffffffffffffffffffffffffffffffffff1602179055506153238061005c5f395ff3fe608060405234801561000f575f5ffd5b5060043610610230575f3560e01c8063750aa2ea1161012e578063a900d628116100b6578063dfd55a2c1161007a578063dfd55a2c1461075f578063e9ef9cf71461077d578063f0861b3a14610799578063f49d66a3146107c9578063f8e66a4d146107fd57610230565b8063a900d6281461069e578063b71b75f4146106d5578063c81e25ab146106f1578063c9820cc414610727578063d8aa45581461074357610230565b806388e46740116100fd57806388e46740146105ce5780638da5cb5b1461060257806392714224146106205780639a268f3514610652578063a1c2e79c1461068257610230565b8063750aa2ea1461051c578063769d04201461054c5780637ab8dbe9146105685780638039feef1461059c57610230565b8063401b2168116101bc57806351c4add51161018057806351c4add51461047957806352f86467146104955780635ce48268146104b15780636c1e9d87146104e45780637304957b1461050057610230565b8063401b2168146103ac57806349beb611146103dc5780634d6ec6e81461040e5780634e3c54521461042a5780634f3bedbd1461045d57610230565b806318f136541161020357806318f13654146102e257806327ed35401461031457806329a566d214610330578063336989ae1461034c57806338a699a41461037c57610230565b80630f5600cb146102345780630f86a2a414610266578063112cdab91461028257806316dc15fe146102b2575b5f5ffd5b61024e60048036038101906102499190613edf565b610819565b60405161025d93929190613f7a565b60405180910390f35b610280600480360381019061027b919061408b565b6109d1565b005b61029c60048036038101906102979190613edf565b610d55565b6040516102a9919061417c565b60405180910390f35b6102cc60048036038101906102c79190613edf565b610d72565b6040516102d9919061417c565b60405180910390f35b6102fc60048036038101906102f79190613edf565b610d8f565b60405161030b93929190613f7a565b60405180910390f35b61032e60048036038101906103299190614195565b610f47565b005b61034a600480360381019061034591906141f2565b6110c0565b005b61036660048036038101906103619190613edf565b611344565b604051610373919061417c565b60405180910390f35b610396600480360381019061039191906142a2565b611361565b6040516103a3919061417c565b60405180910390f35b6103c660048036038101906103c19190613edf565b61137e565b6040516103d3919061417c565b60405180910390f35b6103f660048036038101906103f19190613edf565b61139a565b60405161040593929190613f7a565b60405180910390f35b610428600480360381019061042391906141f2565b611552565b005b610444600480360381019061043f91906142cd565b6117d8565b6040516104549493929190614307565b60405180910390f35b6104776004803603810190610472919061434a565b611813565b005b610493600480360381019061048e91906143e5565b6119f2565b005b6104af60048036038101906104aa9190614488565b611c2e565b005b6104cb60048036038101906104c691906142cd565b611e1c565b6040516104db9493929190614307565b60405180910390f35b6104fe60048036038101906104f9919061434a565b611e48565b005b61051a6004803603810190610515919061434a565b612027565b005b610536600480360381019061053191906142cd565b6121c5565b6040516105439190614508565b60405180910390f35b6105666004803603810190610561919061434a565b61225e565b005b610582600480360381019061057d91906142a2565b6124da565b604051610593959493929190614530565b60405180910390f35b6105b660048036038101906105b19190613edf565b612643565b6040516105c593929190613f7a565b60405180910390f35b6105e860048036038101906105e391906142a2565b6127fb565b6040516105f995949392919061458f565b60405180910390f35b61060a612958565b60405161061791906145ee565b60405180910390f35b61063a60048036038101906106359190613edf565b61297d565b60405161064993929190613f7a565b60405180910390f35b61066c60048036038101906106679190613edf565b612b35565b604051610679919061417c565b60405180910390f35b61069c600480360381019061069791906141f2565b612b52565b005b6106b860048036038101906106b391906142a2565b612dd8565b6040516106cc98979695949392919061467a565b60405180910390f35b6106ef60048036038101906106ea9190614488565b613060565b005b61070b600480360381019061070691906142a2565b61324e565b60405161071e9796959493929190614712565b60405180910390f35b610741600480360381019061073c9190614195565b613455565b005b61075d60048036038101906107589190614794565b6136ab565b005b610767613749565b60405161077491906147f8565b60405180910390f35b610797600480360381019061079291906141f2565b61374f565b005b6107b360048036038101906107ae91906142cd565b6139d4565b6040516107c09190614508565b60405180910390f35b6107e360048036038101906107de91906142a2565b6139e9565b6040516107f495949392919061458f565b60405180910390f35b610817600480360381019061081291906141f2565b613b46565b005b6007602052805f5260405f205f91509050805f0180546108389061483e565b80601f01602080910402602001604051908101604052809291908181526020018280546108649061483e565b80156108af5780601f10610886576101008083540402835291602001916108af565b820191905f5260205f20905b81548152906001019060200180831161089257829003601f168201915b5050505050908060010180546108c49061483e565b80601f01602080910402602001604051908101604052809291908181526020018280546108f09061483e565b801561093b5780601f106109125761010080835404028352916020019161093b565b820191905f5260205f20905b81548152906001019060200180831161091e57829003601f168201915b5050505050908060020180546109509061483e565b80601f016020809104026020016040519081016040528092919081815260200182805461097c9061483e565b80156109c75780601f1061099e576101008083540402835291602001916109c7565b820191905f5260205f20905b8154815290600101906020018083116109aa57829003601f168201915b5050505050905083565b5f5f3373ffffffffffffffffffffffffffffffffffffffff1673ffffffffffffffffffffffffffffffffffffffff1681526020019081526020015f205f9054906101000a900460ff16610a59576040517f08c379a0000000000000000000000000000000000000000000000000000000008152600401610a50906148b8565b60405180910390fd5b60045f8981526020019081526020015f205f9054906101000a900460ff1615610ab7576040517f08c379a0000000000000000000000000000000000000000000000000000000008152600401610aae90614920565b60405180910390fd5b60405180610100016040528089815260200188888080601f0160208091040260200160405190810160405280939291908181526020018383808284375f81840152601f19601f82011690508083019250505050505050815260200186868080601f0160208091040260200160405190810160405280939291908181526020018383808284375f81840152601f19601f82011690508083019250505050505050815260200184848080601f0160208091040260200160405190810160405280939291908181526020018383808284375f81840152601f19601f82011690508083019250505050505050815260200182815260200160016006811115610bbe57610bbd614607565b5b81526020013373ffffffffffffffffffffffffffffffffffffffff16815260200160405180602001604052805f81525081525060025f8a81526020019081526020015f205f820151815f01556020820151816001019081610c1f9190614b0b565b506040820151816002019081610c359190614b0b565b506060820151816003019081610c4b9190614b0b565b506080820151816004015560a0820151816005015f6101000a81548160ff02191690836006811115610c8057610c7f614607565b5b021790555060c08201518160050160016101000a81548173ffffffffffffffffffffffffffffffffffffffff021916908373ffffffffffffffffffffffffffffffffffffffff16021790555060e0820151816006019081610ce19190614b0b565b50905050600160045f8a81526020019081526020015f205f6101000a81548160ff0219169083151502179055507f9dcca99eebc5190547e039817ed1a8656e9d96c9fcc340f1223d2717dc72ae5888888884604051610d439493929190614c14565b60405180910390a15050505050505050565b6009602052805f5260405f205f915054906101000a900460ff1681565b6006602052805f5260405f205f915054906101000a900460ff1681565b600d602052805f5260405f205f91509050805f018054610dae9061483e565b80601f0160208091040260200160405190810160405280929190818152602001828054610dda9061483e565b8015610e255780601f10610dfc57610100808354040283529160200191610e25565b820191905f5260205f20905b815481529060010190602001808311610e0857829003601f168201915b505050505090806001018054610e3a9061483e565b80601f0160208091040260200160405190810160405280929190818152602001828054610e669061483e565b8015610eb15780601f10610e8857610100808354040283529160200191610eb1565b820191905f5260205f20905b815481529060010190602001808311610e9457829003601f168201915b505050505090806002018054610ec69061483e565b80601f0160208091040260200160405190810160405280929190818152602001828054610ef29061483e565b8015610f3d5780601f10610f1457610100808354040283529160200191610f3d565b820191905f5260205f20905b815481529060010190602001808311610f2057829003601f168201915b5050505050905083565b60095f3373ffffffffffffffffffffffffffffffffffffffff1673ffffffffffffffffffffffffffffffffffffffff1681526020019081526020015f205f9054906101000a900460ff16610fd0576040517f08c379a0000000000000000000000000000000000000000000000000000000008152600401610fc790614c9c565b60405180910390fd5b600b5f8481526020019081526020015f206001015f9054906101000a900460ff16611030576040517f08c379a000000000000000000000000000000000000000000000000000000000815260040161102790614d04565b60405180910390fd5b6001600b5f8581526020019081526020015f206003015f6101000a81548160ff0219169083151502179055508181600b5f8681526020019081526020015f20600401918261107f929190614d2c565b507fe5d0b47a1fe3de7357458b7b7aa20aede2093baa892e9d8c2784e39fa58a7d8c8383836040516110b393929190614df9565b60405180910390a1505050565b5f5f3373ffffffffffffffffffffffffffffffffffffffff1673ffffffffffffffffffffffffffffffffffffffff1681526020019081526020015f205f9054906101000a900460ff1615611149576040517f08c379a000000000000000000000000000000000000000000000000000000000815260040161114090614e73565b60405180910390fd5b60015f5f3373ffffffffffffffffffffffffffffffffffffffff1673ffffffffffffffffffffffffffffffffffffffff1681526020019081526020015f205f6101000a81548160ff021916908315150217905550604051806060016040528087878080601f0160208091040260200160405190810160405280939291908181526020018383808284375f81840152601f19601f82011690508083019250505050505050815260200185858080601f0160208091040260200160405190810160405280939291908181526020018383808284375f81840152601f19601f82011690508083019250505050505050815260200183838080601f0160208091040260200160405190810160405280939291908181526020018383808284375f81840152601f19601f8201169050808301925050505050505081525060015f3373ffffffffffffffffffffffffffffffffffffffff1673ffffffffffffffffffffffffffffffffffffffff1681526020019081526020015f205f820151815f0190816112d19190614b0b565b5060208201518160010190816112e79190614b0b565b5060408201518160020190816112fd9190614b0b565b509050507f42558426a946ab6e527d7f548e7bd3e34c2a7ddde555007464cdfbb5f58665f833878760405161133493929190614e91565b60405180910390a1505050505050565b600f602052805f5260405f205f915054906101000a900460ff1681565b6004602052805f5260405f205f915054906101000a900460ff1681565b5f602052805f5260405f205f915054906101000a900460ff1681565b6010602052805f5260405f205f91509050805f0180546113b99061483e565b80601f01602080910402602001604051908101604052809291908181526020018280546113e59061483e565b80156114305780601f1061140757610100808354040283529160200191611430565b820191905f5260205f20905b81548152906001019060200180831161141357829003601f168201915b5050505050908060010180546114459061483e565b80601f01602080910402602001604051908101604052809291908181526020018280546114719061483e565b80156114bc5780601f10611493576101008083540402835291602001916114bc565b820191905f5260205f20905b81548152906001019060200180831161149f57829003601f168201915b5050505050908060020180546114d19061483e565b80601f01602080910402602001604051908101604052809291908181526020018280546114fd9061483e565b80156115485780601f1061151f57610100808354040283529160200191611548565b820191905f5260205f20905b81548152906001019060200180831161152b57829003601f168201915b5050505050905083565b600c5f3373ffffffffffffffffffffffffffffffffffffffff1673ffffffffffffffffffffffffffffffffffffffff1681526020019081526020015f205f9054906101000a900460ff16156115dc576040517f08c379a00000000000000000000000000000000000000000000000000000000081526004016115d390614e73565b60405180910390fd5b6001600c5f3373ffffffffffffffffffffffffffffffffffffffff1673ffffffffffffffffffffffffffffffffffffffff1681526020019081526020015f205f6101000a81548160ff021916908315150217905550604051806060016040528087878080601f0160208091040260200160405190810160405280939291908181526020018383808284375f81840152601f19601f82011690508083019250505050505050815260200185858080601f0160208091040260200160405190810160405280939291908181526020018383808284375f81840152601f19601f82011690508083019250505050505050815260200183838080601f0160208091040260200160405190810160405280939291908181526020018383808284375f81840152601f19601f82011690508083019250505050505050815250600d5f3373ffffffffffffffffffffffffffffffffffffffff1673ffffffffffffffffffffffffffffffffffffffff1681526020019081526020015f205f820151815f0190816117659190614b0b565b50602082015181600101908161177b9190614b0b565b5060408201518160020190816117919190614b0b565b509050507fc6b3a3cb893680baef98e6f2f73e2f33a36a14eaea0ba521451d6547ba362b623387876040516117c893929190614e91565b60405180910390a1505050505050565b5f5f5f5f5f60135f8781526020019081526020015f209050805f01548160010154826002015483600301549450945094509450509193509193565b600c5f3373ffffffffffffffffffffffffffffffffffffffff1673ffffffffffffffffffffffffffffffffffffffff1681526020019081526020015f205f9054906101000a900460ff1661189c576040517f08c379a000000000000000000000000000000000000000000000000000000000815260040161189390614f0b565b60405180910390fd5b3373ffffffffffffffffffffffffffffffffffffffff16600e5f8681526020019081526020015f206004015f9054906101000a900473ffffffffffffffffffffffffffffffffffffffff1673ffffffffffffffffffffffffffffffffffffffff161461193d576040517f08c379a000000000000000000000000000000000000000000000000000000000815260040161193490614f73565b60405180910390fd5b82600e5f8681526020019081526020015f206004015f6101000a81548173ffffffffffffffffffffffffffffffffffffffff021916908373ffffffffffffffffffffffffffffffffffffffff1602179055508181600e5f8781526020019081526020015f2060030191826119b2929190614d2c565b507f02666d7b1655588adc2208a66dd88260cfd5b9c5c38aecf90e5170371cfa4f1984846040516119e4929190614f91565b60405180910390a150505050565b600f5f3373ffffffffffffffffffffffffffffffffffffffff1673ffffffffffffffffffffffffffffffffffffffff1681526020019081526020015f205f9054906101000a900460ff16611a7b576040517f08c379a0000000000000000000000000000000000000000000000000000000008152600401611a7290615002565b60405180910390fd5b6040518060a00160405280878152602001861515815260200185858080601f0160208091040260200160405190810160405280939291908181526020018383808284375f81840152601f19601f82011690508083019250505050505050815260200183838080601f0160208091040260200160405190810160405280939291908181526020018383808284375f81840152601f19601f8201169050808301925050505050505081526020013373ffffffffffffffffffffffffffffffffffffffff1681525060115f8881526020019081526020015f205f820151815f01556020820151816001015f6101000a81548160ff0219169083151502179055506040820151816002019081611b8d9190614b0b565b506060820151816003019081611ba39190614b0b565b506080820151816004015f6101000a81548173ffffffffffffffffffffffffffffffffffffffff021916908373ffffffffffffffffffffffffffffffffffffffff1602179055509050507f9712bb7e105b124f0cc3f0585e06a1950de77a678ebaec3506656b363733eb5e8633604051611c1e929190614f91565b60405180910390a1505050505050565b600c5f3373ffffffffffffffffffffffffffffffffffffffff1673ffffffffffffffffffffffffffffffffffffffff1681526020019081526020015f205f9054906101000a900460ff16611cb7576040517f08c379a0000000000000000000000000000000000000000000000000000000008152600401611cae90614f0b565b60405180910390fd5b6040518060a0016040528085815260200184815260200183838080601f0160208091040260200160405190810160405280939291908181526020018383808284375f81840152601f19601f82011690508083019250505050505050815260200160405180602001604052805f81525081526020013373ffffffffffffffffffffffffffffffffffffffff16815250600e5f8681526020019081526020015f205f820151815f0155602082015181600101556040820151816002019081611d7d9190614b0b565b506060820151816003019081611d939190614b0b565b506080820151816004015f6101000a81548173ffffffffffffffffffffffffffffffffffffffff021916908373ffffffffffffffffffffffffffffffffffffffff1602179055509050507fdce449d7850ca6bef609273e8c07c207f37e3df3d879cd8b431342eb623d20fe8433604051611e0e929190614f91565b60405180910390a150505050565b6013602052805f5260405f205f91509050805f0154908060010154908060020154908060030154905084565b60065f3373ffffffffffffffffffffffffffffffffffffffff1673ffffffffffffffffffffffffffffffffffffffff1681526020019081526020015f205f9054906101000a900460ff16611ed1576040517f08c379a0000000000000000000000000000000000000000000000000000000008152600401611ec89061506a565b60405180910390fd5b3373ffffffffffffffffffffffffffffffffffffffff1660085f8681526020019081526020015f206004015f9054906101000a900473ffffffffffffffffffffffffffffffffffffffff1673ffffffffffffffffffffffffffffffffffffffff1614611f72576040517f08c379a0000000000000000000000000000000000000000000000000000000008152600401611f6990614f73565b60405180910390fd5b8260085f8681526020019081526020015f206004015f6101000a81548173ffffffffffffffffffffffffffffffffffffffff021916908373ffffffffffffffffffffffffffffffffffffffff160217905550818160085f8781526020019081526020015f206003019182611fe7929190614d2c565b507f49e75bcd87d6285773e5c15db6c81bb4d20bd0f6498faba00160e92b9c4786548484604051612019929190614f91565b60405180910390a150505050565b60095f3373ffffffffffffffffffffffffffffffffffffffff1673ffffffffffffffffffffffffffffffffffffffff1681526020019081526020015f205f9054906101000a900460ff166120b0576040517f08c379a00000000000000000000000000000000000000000000000000000000081526004016120a790614c9c565b60405180910390fd5b600b5f8581526020019081526020015f206001015f9054906101000a900460ff16612110576040517f08c379a000000000000000000000000000000000000000000000000000000000815260040161210790614d04565b60405180910390fd5b82600b5f8681526020019081526020015f206006015f6101000a81548173ffffffffffffffffffffffffffffffffffffffff021916908373ffffffffffffffffffffffffffffffffffffffff1602179055508181600b5f8781526020019081526020015f206005019182612185929190614d2c565b507febfa8f41a2a15e0e89718bd17a4f728bd822d73550222a896ea5d3cfe2331ecc84846040516121b7929190614f91565b60405180910390a150505050565b5f5f5f3373ffffffffffffffffffffffffffffffffffffffff1673ffffffffffffffffffffffffffffffffffffffff1681526020019081526020015f205f9054906101000a900460ff1661224e576040517f08c379a0000000000000000000000000000000000000000000000000000000008152600401612245906148b8565b60405180910390fd5b61225782613dcc565b9050919050565b5f5f3373ffffffffffffffffffffffffffffffffffffffff1673ffffffffffffffffffffffffffffffffffffffff1681526020019081526020015f205f9054906101000a900460ff166122e6576040517f08c379a00000000000000000000000000000000000000000000000000000000081526004016122dd906148b8565b60405180910390fd5b60045f8581526020019081526020015f205f9054906101000a900460ff16612343576040517f08c379a000000000000000000000000000000000000000000000000000000000815260040161233a906150d2565b60405180910390fd5b3373ffffffffffffffffffffffffffffffffffffffff1660025f8681526020019081526020015f2060050160019054906101000a900473ffffffffffffffffffffffffffffffffffffffff1673ffffffffffffffffffffffffffffffffffffffff16146123e5576040517f08c379a00000000000000000000000000000000000000000000000000000000081526004016123dc90614f73565b60405180910390fd5b8260025f8681526020019081526020015f2060050160016101000a81548173ffffffffffffffffffffffffffffffffffffffff021916908373ffffffffffffffffffffffffffffffffffffffff1602179055506002805f8681526020019081526020015f206005015f6101000a81548160ff0219169083600681111561246e5761246d614607565b5b0217905550818160025f8781526020019081526020015f206006019182612496929190614d2c565b507fddd0a704fbe441f1fd23c0e39bfa7cdc43718cc3a6e329a80605132407f7b07a848484846040516124cc94939291906150f0565b60405180910390a150505050565b6011602052805f5260405f205f91509050805f015490806001015f9054906101000a900460ff16908060020180546125119061483e565b80601f016020809104026020016040519081016040528092919081815260200182805461253d9061483e565b80156125885780601f1061255f57610100808354040283529160200191612588565b820191905f5260205f20905b81548152906001019060200180831161256b57829003601f168201915b50505050509080600301805461259d9061483e565b80601f01602080910402602001604051908101604052809291908181526020018280546125c99061483e565b80156126145780601f106125eb57610100808354040283529160200191612614565b820191905f5260205f20905b8154815290600101906020018083116125f757829003601f168201915b505050505090806004015f9054906101000a900473ffffffffffffffffffffffffffffffffffffffff16905085565b600a602052805f5260405f205f91509050805f0180546126629061483e565b80601f016020809104026020016040519081016040528092919081815260200182805461268e9061483e565b80156126d95780601f106126b0576101008083540402835291602001916126d9565b820191905f5260205f20905b8154815290600101906020018083116126bc57829003601f168201915b5050505050908060010180546126ee9061483e565b80601f016020809104026020016040519081016040528092919081815260200182805461271a9061483e565b80156127655780601f1061273c57610100808354040283529160200191612765565b820191905f5260205f20905b81548152906001019060200180831161274857829003601f168201915b50505050509080600201805461277a9061483e565b80601f01602080910402602001604051908101604052809291908181526020018280546127a69061483e565b80156127f15780601f106127c8576101008083540402835291602001916127f1565b820191905f5260205f20905b8154815290600101906020018083116127d457829003601f168201915b5050505050905083565b600e602052805f5260405f205f91509050805f0154908060010154908060020180546128269061483e565b80601f01602080910402602001604051908101604052809291908181526020018280546128529061483e565b801561289d5780601f106128745761010080835404028352916020019161289d565b820191905f5260205f20905b81548152906001019060200180831161288057829003601f168201915b5050505050908060030180546128b29061483e565b80601f01602080910402602001604051908101604052809291908181526020018280546128de9061483e565b80156129295780601f1061290057610100808354040283529160200191612929565b820191905f5260205f20905b81548152906001019060200180831161290c57829003601f168201915b505050505090806004015f9054906101000a900473ffffffffffffffffffffffffffffffffffffffff16905085565b60125f9054906101000a900473ffffffffffffffffffffffffffffffffffffffff1681565b6001602052805f5260405f205f91509050805f01805461299c9061483e565b80601f01602080910402602001604051908101604052809291908181526020018280546129c89061483e565b8015612a135780601f106129ea57610100808354040283529160200191612a13565b820191905f5260205f20905b8154815290600101906020018083116129f657829003601f168201915b505050505090806001018054612a289061483e565b80601f0160208091040260200160405190810160405280929190818152602001828054612a549061483e565b8015612a9f5780601f10612a7657610100808354040283529160200191612a9f565b820191905f5260205f20905b815481529060010190602001808311612a8257829003601f168201915b505050505090806002018054612ab49061483e565b80601f0160208091040260200160405190810160405280929190818152602001828054612ae09061483e565b8015612b2b5780601f10612b0257610100808354040283529160200191612b2b565b820191905f5260205f20905b815481529060010190602001808311612b0e57829003601f168201915b5050505050905083565b600c602052805f5260405f205f915054906101000a900460ff1681565b60065f3373ffffffffffffffffffffffffffffffffffffffff1673ffffffffffffffffffffffffffffffffffffffff1681526020019081526020015f205f9054906101000a900460ff1615612bdc576040517f08c379a0000000000000000000000000000000000000000000000000000000008152600401612bd390614e73565b60405180910390fd5b600160065f3373ffffffffffffffffffffffffffffffffffffffff1673ffffffffffffffffffffffffffffffffffffffff1681526020019081526020015f205f6101000a81548160ff021916908315150217905550604051806060016040528087878080601f0160208091040260200160405190810160405280939291908181526020018383808284375f81840152601f19601f82011690508083019250505050505050815260200185858080601f0160208091040260200160405190810160405280939291908181526020018383808284375f81840152601f19601f82011690508083019250505050505050815260200183838080601f0160208091040260200160405190810160405280939291908181526020018383808284375f81840152601f19601f8201169050808301925050505050505081525060075f3373ffffffffffffffffffffffffffffffffffffffff1673ffffffffffffffffffffffffffffffffffffffff1681526020019081526020015f205f820151815f019081612d659190614b0b565b506020820151816001019081612d7b9190614b0b565b506040820151816002019081612d919190614b0b565b509050507fd52881a6125270bc10edc37221b17d746ef540e29867a40b76ed110ef520224c338787604051612dc893929190614e91565b60405180910390a1505050505050565b6002602052805f5260405f205f91509050805f015490806001018054612dfd9061483e565b80601f0160208091040260200160405190810160405280929190818152602001828054612e299061483e565b8015612e745780601f10612e4b57610100808354040283529160200191612e74565b820191905f5260205f20905b815481529060010190602001808311612e5757829003601f168201915b505050505090806002018054612e899061483e565b80601f0160208091040260200160405190810160405280929190818152602001828054612eb59061483e565b8015612f005780601f10612ed757610100808354040283529160200191612f00565b820191905f5260205f20905b815481529060010190602001808311612ee357829003601f168201915b505050505090806003018054612f159061483e565b80601f0160208091040260200160405190810160405280929190818152602001828054612f419061483e565b8015612f8c5780601f10612f6357610100808354040283529160200191612f8c565b820191905f5260205f20905b815481529060010190602001808311612f6f57829003601f168201915b505050505090806004015490806005015f9054906101000a900460ff16908060050160019054906101000a900473ffffffffffffffffffffffffffffffffffffffff1690806006018054612fdf9061483e565b80601f016020809104026020016040519081016040528092919081815260200182805461300b9061483e565b80156130565780601f1061302d57610100808354040283529160200191613056565b820191905f5260205f20905b81548152906001019060200180831161303957829003601f168201915b5050505050905088565b60065f3373ffffffffffffffffffffffffffffffffffffffff1673ffffffffffffffffffffffffffffffffffffffff1681526020019081526020015f205f9054906101000a900460ff166130e9576040517f08c379a00000000000000000000000000000000000000000000000000000000081526004016130e09061506a565b60405180910390fd5b6040518060a0016040528085815260200184815260200183838080601f0160208091040260200160405190810160405280939291908181526020018383808284375f81840152601f19601f82011690508083019250505050505050815260200160405180602001604052805f81525081526020013373ffffffffffffffffffffffffffffffffffffffff1681525060085f8681526020019081526020015f205f820151815f01556020820151816001015560408201518160020190816131af9190614b0b565b5060608201518160030190816131c59190614b0b565b506080820151816004015f6101000a81548173ffffffffffffffffffffffffffffffffffffffff021916908373ffffffffffffffffffffffffffffffffffffffff1602179055509050507fc84b2e7a91cbbf0711ac91fd9090853f03a14f7bef43df0eb49e6b32d36fe0ac8433604051613240929190614f91565b60405180910390a150505050565b600b602052805f5260405f205f91509050805f015490806001015f9054906101000a900460ff16908060020180546132859061483e565b80601f01602080910402602001604051908101604052809291908181526020018280546132b19061483e565b80156132fc5780601f106132d3576101008083540402835291602001916132fc565b820191905f5260205f20905b8154815290600101906020018083116132df57829003601f168201915b505050505090806003015f9054906101000a900460ff16908060040180546133239061483e565b80601f016020809104026020016040519081016040528092919081815260200182805461334f9061483e565b801561339a5780601f106133715761010080835404028352916020019161339a565b820191905f5260205f20905b81548152906001019060200180831161337d57829003601f168201915b5050505050908060050180546133af9061483e565b80601f01602080910402602001604051908101604052809291908181526020018280546133db9061483e565b80156134265780601f106133fd57610100808354040283529160200191613426565b820191905f5260205f20905b81548152906001019060200180831161340957829003601f168201915b505050505090806006015f9054906101000a900473ffffffffffffffffffffffffffffffffffffffff16905087565b60095f3373ffffffffffffffffffffffffffffffffffffffff1673ffffffffffffffffffffffffffffffffffffffff1681526020019081526020015f205f9054906101000a900460ff166134de576040517f08c379a00000000000000000000000000000000000000000000000000000000081526004016134d590614c9c565b60405180910390fd5b6040518060e0016040528084815260200160011515815260200183838080601f0160208091040260200160405190810160405280939291908181526020018383808284375f81840152601f19601f8201169050808301925050505050505081526020015f1515815260200160405180602001604052805f815250815260200160405180602001604052805f81525081526020013373ffffffffffffffffffffffffffffffffffffffff16815250600b5f8581526020019081526020015f205f820151815f01556020820151816001015f6101000a81548160ff02191690831515021790555060408201518160020190816135d89190614b0b565b506060820151816003015f6101000a81548160ff021916908315150217905550608082015181600401908161360d9190614b0b565b5060a08201518160050190816136239190614b0b565b5060c0820151816006015f6101000a81548173ffffffffffffffffffffffffffffffffffffffff021916908373ffffffffffffffffffffffffffffffffffffffff1602179055509050507f3da11207acef64a8ef6a06e530a71956f123355b74d421e1883e3d3ce94c92c1833360405161369e929190614f91565b60405180910390a1505050565b60405180608001604052808481526020018381526020018281526020014281525060135f8681526020019081526020015f205f820151815f0155602082015181600101556040820151816002015560608201518160030155905050837e7ce2a33116d3ce50a5abafe23cf84fc634fa2ec50e9632cf280e3b7d770da48484844260405161373b9493929190614307565b60405180910390a250505050565b60055481565b60095f3373ffffffffffffffffffffffffffffffffffffffff1673ffffffffffffffffffffffffffffffffffffffff1681526020019081526020015f205f9054906101000a900460ff16156137d9576040517f08c379a00000000000000000000000000000000000000000000000000000000081526004016137d090614e73565b60405180910390fd5b600160095f3373ffffffffffffffffffffffffffffffffffffffff1673ffffffffffffffffffffffffffffffffffffffff1681526020019081526020015f205f6101000a81548160ff021916908315150217905550604051806060016040528087878080601f0160208091040260200160405190810160405280939291908181526020018383808284375f81840152601f19601f82011690508083019250505050505050815260200185858080601f0160208091040260200160405190810160405280939291908181526020018383808284375f81840152601f19601f82011690508083019250505050505050815260200183838080601f0160208091040260200160405190810160405280939291908181526020018383808284375f81840152601f19601f82011690508083019250505050505050815250600a5f3373ffffffffffffffffffffffffffffffffffffffff1673ffffffffffffffffffffffffffffffffffffffff1681526020019081526020015f205f820151815f0190816139629190614b0b565b5060208201518160010190816139789190614b0b565b50604082015181600201908161398e9190614b0b565b509050507ef326cfeee4a98cdaa20d4b3ea99e1d7ba56e0bc16159f422e5ef8a57fceb263387876040516139c493929190614e91565b60405180910390a1505050505050565b6003602052805f5260405f205f915090505481565b6008602052805f5260405f205f91509050805f015490806001015490806002018054613a149061483e565b80601f0160208091040260200160405190810160405280929190818152602001828054613a409061483e565b8015613a8b5780601f10613a6257610100808354040283529160200191613a8b565b820191905f5260205f20905b815481529060010190602001808311613a6e57829003601f168201915b505050505090806003018054613aa09061483e565b80601f0160208091040260200160405190810160405280929190818152602001828054613acc9061483e565b8015613b175780601f10613aee57610100808354040283529160200191613b17565b820191905f5260205f20905b815481529060010190602001808311613afa57829003601f168201915b505050505090806004015f9054906101000a900473ffffffffffffffffffffffffffffffffffffffff16905085565b600f5f3373ffffffffffffffffffffffffffffffffffffffff1673ffffffffffffffffffffffffffffffffffffffff1681526020019081526020015f205f9054906101000a900460ff1615613bd0576040517f08c379a0000000000000000000000000000000000000000000000000000000008152600401613bc790614e73565b60405180910390fd5b6001600f5f3373ffffffffffffffffffffffffffffffffffffffff1673ffffffffffffffffffffffffffffffffffffffff1681526020019081526020015f205f6101000a81548160ff021916908315150217905550604051806060016040528087878080601f0160208091040260200160405190810160405280939291908181526020018383808284375f81840152601f19601f82011690508083019250505050505050815260200185858080601f0160208091040260200160405190810160405280939291908181526020018383808284375f81840152601f19601f82011690508083019250505050505050815260200183838080601f0160208091040260200160405190810160405280939291908181526020018383808284375f81840152601f19601f8201169050808301925050505050505081525060105f3373ffffffffffffffffffffffffffffffffffffffff1673ffffffffffffffffffffffffffffffffffffffff1681526020019081526020015f205f820151815f019081613d599190614b0b565b506020820151816001019081613d6f9190614b0b565b506040820151816002019081613d859190614b0b565b509050507f2bf7863d4068dda3123298d02ee28530519d2e96eaab6784f5f0b6184ddd2015338787604051613dbc93929190614e91565b60405180910390a1505050505050565b5f5f6002834233600554604051602001613de99493929190615193565b604051602081830303815290604052604051613e059190615224565b602060405180830381855afa158015613e20573d5f5f3e3d5ffd5b5050506040513d601f19601f82011682018060405250810190613e43919061524e565b90508060035f60055481526020019081526020015f208190555060055f815480929190613e6f906152a6565b919050555080915050919050565b5f5ffd5b5f5ffd5b5f73ffffffffffffffffffffffffffffffffffffffff82169050919050565b5f613eae82613e85565b9050919050565b613ebe81613ea4565b8114613ec8575f5ffd5b50565b5f81359050613ed981613eb5565b92915050565b5f60208284031215613ef457613ef3613e7d565b5b5f613f0184828501613ecb565b91505092915050565b5f81519050919050565b5f82825260208201905092915050565b8281835e5f83830152505050565b5f601f19601f8301169050919050565b5f613f4c82613f0a565b613f568185613f14565b9350613f66818560208601613f24565b613f6f81613f32565b840191505092915050565b5f6060820190508181035f830152613f928186613f42565b90508181036020830152613fa68185613f42565b90508181036040830152613fba8184613f42565b9050949350505050565b5f819050919050565b613fd681613fc4565b8114613fe0575f5ffd5b50565b5f81359050613ff181613fcd565b92915050565b5f5ffd5b5f5ffd5b5f5ffd5b5f5f83601f84011261401857614017613ff7565b5b8235905067ffffffffffffffff81111561403557614034613ffb565b5b60208301915083600182028301111561405157614050613fff565b5b9250929050565b5f819050919050565b61406a81614058565b8114614074575f5ffd5b50565b5f8135905061408581614061565b92915050565b5f5f5f5f5f5f5f5f60a0898b0312156140a7576140a6613e7d565b5b5f6140b48b828c01613fe3565b985050602089013567ffffffffffffffff8111156140d5576140d4613e81565b5b6140e18b828c01614003565b9750975050604089013567ffffffffffffffff81111561410457614103613e81565b5b6141108b828c01614003565b9550955050606089013567ffffffffffffffff81111561413357614132613e81565b5b61413f8b828c01614003565b935093505060806141528b828c01614077565b9150509295985092959890939650565b5f8115159050919050565b61417681614162565b82525050565b5f60208201905061418f5f83018461416d565b92915050565b5f5f5f604084860312156141ac576141ab613e7d565b5b5f6141b986828701613fe3565b935050602084013567ffffffffffffffff8111156141da576141d9613e81565b5b6141e686828701614003565b92509250509250925092565b5f5f5f5f5f5f6060878903121561420c5761420b613e7d565b5b5f87013567ffffffffffffffff81111561422957614228613e81565b5b61423589828a01614003565b9650965050602087013567ffffffffffffffff81111561425857614257613e81565b5b61426489828a01614003565b9450945050604087013567ffffffffffffffff81111561428757614286613e81565b5b61429389828a01614003565b92509250509295509295509295565b5f602082840312156142b7576142b6613e7d565b5b5f6142c484828501613fe3565b91505092915050565b5f602082840312156142e2576142e1613e7d565b5b5f6142ef84828501614077565b91505092915050565b61430181614058565b82525050565b5f60808201905061431a5f8301876142f8565b61432760208301866142f8565b61433460408301856142f8565b61434160608301846142f8565b95945050505050565b5f5f5f5f6060858703121561436257614361613e7d565b5b5f61436f87828801613fe3565b945050602061438087828801613ecb565b935050604085013567ffffffffffffffff8111156143a1576143a0613e81565b5b6143ad87828801614003565b925092505092959194509250565b6143c481614162565b81146143ce575f5ffd5b50565b5f813590506143df816143bb565b92915050565b5f5f5f5f5f5f608087890312156143ff576143fe613e7d565b5b5f61440c89828a01613fe3565b965050602061441d89828a016143d1565b955050604087013567ffffffffffffffff81111561443e5761443d613e81565b5b61444a89828a01614003565b9450945050606087013567ffffffffffffffff81111561446d5761446c613e81565b5b61447989828a01614003565b92509250509295509295509295565b5f5f5f5f606085870312156144a05761449f613e7d565b5b5f6144ad87828801613fe3565b94505060206144be87828801614077565b935050604085013567ffffffffffffffff8111156144df576144de613e81565b5b6144eb87828801614003565b925092505092959194509250565b61450281613fc4565b82525050565b5f60208201905061451b5f8301846144f9565b92915050565b61452a81613ea4565b82525050565b5f60a0820190506145435f8301886144f9565b614550602083018761416d565b81810360408301526145628186613f42565b905081810360608301526145768185613f42565b90506145856080830184614521565b9695505050505050565b5f60a0820190506145a25f8301886144f9565b6145af60208301876142f8565b81810360408301526145c18186613f42565b905081810360608301526145d58185613f42565b90506145e46080830184614521565b9695505050505050565b5f6020820190506146015f830184614521565b92915050565b7f4e487b71000000000000000000000000000000000000000000000000000000005f52602160045260245ffd5b6007811061464557614644614607565b5b50565b5f81905061465582614634565b919050565b5f61466482614648565b9050919050565b6146748161465a565b82525050565b5f6101008201905061468e5f83018b6144f9565b81810360208301526146a0818a613f42565b905081810360408301526146b48189613f42565b905081810360608301526146c88188613f42565b90506146d760808301876142f8565b6146e460a083018661466b565b6146f160c0830185614521565b81810360e08301526147038184613f42565b90509998505050505050505050565b5f60e0820190506147255f83018a6144f9565b614732602083018961416d565b81810360408301526147448188613f42565b9050614753606083018761416d565b81810360808301526147658186613f42565b905081810360a08301526147798185613f42565b905061478860c0830184614521565b98975050505050505050565b5f5f5f5f608085870312156147ac576147ab613e7d565b5b5f6147b987828801614077565b94505060206147ca87828801614077565b93505060406147db87828801614077565b92505060606147ec87828801614077565b91505092959194509250565b5f60208201905061480b5f8301846142f8565b92915050565b7f4e487b71000000000000000000000000000000000000000000000000000000005f52602260045260245ffd5b5f600282049050600182168061485557607f821691505b60208210810361486857614867614811565b5b50919050565b7f4f6e6c79206661726d65720000000000000000000000000000000000000000005f82015250565b5f6148a2600b83613f14565b91506148ad8261486e565b602082019050919050565b5f6020820190508181035f8301526148cf81614896565b9050919050565b7f43726f70206578697374730000000000000000000000000000000000000000005f82015250565b5f61490a600b83613f14565b9150614915826148d6565b602082019050919050565b5f6020820190508181035f830152614937816148fe565b9050919050565b7f4e487b71000000000000000000000000000000000000000000000000000000005f52604160045260245ffd5b5f819050815f5260205f209050919050565b5f6020601f8301049050919050565b5f82821b905092915050565b5f600883026149c77fffffffffffffffffffffffffffffffffffffffffffffffffffffffffffffffff8261498c565b6149d1868361498c565b95508019841693508086168417925050509392505050565b5f819050919050565b5f614a0c614a07614a0284614058565b6149e9565b614058565b9050919050565b5f819050919050565b614a25836149f2565b614a39614a3182614a13565b848454614998565b825550505050565b5f5f905090565b614a50614a41565b614a5b818484614a1c565b505050565b5b81811015614a7e57614a735f82614a48565b600181019050614a61565b5050565b601f821115614ac357614a948161496b565b614a9d8461497d565b81016020851015614aac578190505b614ac0614ab88561497d565b830182614a60565b50505b505050565b5f82821c905092915050565b5f614ae35f1984600802614ac8565b1980831691505092915050565b5f614afb8383614ad4565b9150826002028217905092915050565b614b1482613f0a565b67ffffffffffffffff811115614b2d57614b2c61493e565b5b614b37825461483e565b614b42828285614a82565b5f60209050601f831160018114614b73575f8415614b61578287015190505b614b6b8582614af0565b865550614bd2565b601f198416614b818661496b565b5f5b82811015614ba857848901518255600182019150602085019450602081019050614b83565b86831015614bc55784890151614bc1601f891682614ad4565b8355505b6001600288020188555050505b505050505050565b828183375f83830152505050565b5f614bf38385613f14565b9350614c00838584614bda565b614c0983613f32565b840190509392505050565b5f606082019050614c275f8301876144f9565b8181036020830152614c3a818587614be8565b9050614c4960408301846142f8565b95945050505050565b7f4f6e6c792061676772656761746f7200000000000000000000000000000000005f82015250565b5f614c86600f83613f14565b9150614c9182614c52565b602082019050919050565b5f6020820190508181035f830152614cb381614c7a565b9050919050565b7f4e6f7420726563656976656400000000000000000000000000000000000000005f82015250565b5f614cee600c83613f14565b9150614cf982614cba565b602082019050919050565b5f6020820190508181035f830152614d1b81614ce2565b9050919050565b5f82905092915050565b614d368383614d22565b67ffffffffffffffff811115614d4f57614d4e61493e565b5b614d59825461483e565b614d64828285614a82565b5f601f831160018114614d91575f8415614d7f578287013590505b614d898582614af0565b865550614df0565b601f198416614d9f8661496b565b5f5b82811015614dc657848901358255600182019150602085019450602081019050614da1565b86831015614de35784890135614ddf601f891682614ad4565b8355505b6001600288020188555050505b50505050505050565b5f604082019050614e0c5f8301866144f9565b8181036020830152614e1f818486614be8565b9050949350505050565b7f416c7265616479207265676973746572656400000000000000000000000000005f82015250565b5f614e5d601283613f14565b9150614e6882614e29565b602082019050919050565b5f6020820190508181035f830152614e8a81614e51565b9050919050565b5f604082019050614ea45f830186614521565b8181036020830152614eb7818486614be8565b9050949350505050565b7f4f6e6c792072657461696c6572000000000000000000000000000000000000005f82015250565b5f614ef5600d83613f14565b9150614f0082614ec1565b602082019050919050565b5f6020820190508181035f830152614f2281614ee9565b9050919050565b7f4e6f7420686f6c646572000000000000000000000000000000000000000000005f82015250565b5f614f5d600a83613f14565b9150614f6882614f29565b602082019050919050565b5f6020820190508181035f830152614f8a81614f51565b9050919050565b5f604082019050614fa45f8301856144f9565b614fb16020830184614521565b9392505050565b7f4f6e6c7920637573746f6d6572000000000000000000000000000000000000005f82015250565b5f614fec600d83613f14565b9150614ff782614fb8565b602082019050919050565b5f6020820190508181035f83015261501981614fe0565b9050919050565b7f4f6e6c7920737570706c696572000000000000000000000000000000000000005f82015250565b5f615054600d83613f14565b915061505f82615020565b602082019050919050565b5f6020820190508181035f83015261508181615048565b9050919050565b7f556e6b6e6f776e2063726f7000000000000000000000000000000000000000005f82015250565b5f6150bc600c83613f14565b91506150c782615088565b602082019050919050565b5f6020820190508181035f8301526150e9816150b0565b9050919050565b5f6060820190506151035f8301876144f9565b6151106020830186614521565b8181036040830152615123818486614be8565b905095945050505050565b5f819050919050565b61514861514382614058565b61512e565b82525050565b5f8160601b9050919050565b5f6151648261514e565b9050919050565b5f6151758261515a565b9050919050565b61518d61518882613ea4565b61516b565b82525050565b5f61519e8287615137565b6020820191506151ae8286615137565b6020820191506151be828561517c565b6014820191506151ce8284615137565b60208201915081905095945050505050565b5f81519050919050565b5f81905092915050565b5f6151fe826151e0565b61520881856151ea565b9350615218818560208601613f24565b80840191505092915050565b5f61522f82846151f4565b915081905092915050565b5f8151905061524881613fcd565b92915050565b5f6020828403121561526357615262613e7d565b5b5f6152708482850161523a565b91505092915050565b7f4e487b71000000000000000000000000000000000000000000000000000000005f52601160045260245ffd5b5f6152b082614058565b91507fffffffffffffffffffffffffffffffffffffffffffffffffffffffffffffffff82036152e2576152e1615279565b5b60018201905091905056fea2646970667358221220fd69b91b6f97e3878fb9ec7b2937576481bd2d34e8347d31af0f17022756c03564736f6c634300081e0033",
					"opcodes": "PUSH1 0x80 PUSH1 0x40 MSTORE CALLVALUE DUP1 ISZERO PUSH1 0xE JUMPI PUSH0 PUSH0 REVERT JUMPDEST POP CALLER PUSH1 0x12 PUSH0 PUSH2 0x100 EXP DUP2 SLOAD DUP2 PUSH20 0xFFFFFFFFFFFFFFFFFFFFFFFFFFFFFFFFFFFFFFFF MUL NOT AND SWAP1 DUP4 PUSH20 0xFFFFFFFFFFFFFFFFFFFFFFFFFFFFFFFFFFFFFFFF AND MUL OR SWAP1 SSTORE POP PUSH2 0x5323 DUP1 PUSH2 0x5C PUSH0 CODECOPY PUSH0 RETURN INVALID PUSH1 0x80 PUSH1 0x40 MSTORE CALLVALUE DUP1 ISZERO PUSH2 0xF JUMPI PUSH0 PUSH0 REVERT JUMPDEST POP PUSH1 0x4 CALLDATASIZE LT PUSH2 0x230 JUMPI PUSH0 CALLDATALOAD PUSH1 0xE0 SHR DUP1 PUSH4 0x750AA2EA GT PUSH2 0x12E JUMPI DUP1 PUSH4 0xA900D628 GT PUSH2 0xB6 JUMPI DUP1 PUSH4 0xDFD55A2C GT PUSH2 0x7A JUMPI DUP1 PUSH4 0xDFD55A2C EQ PUSH2 0x75F JUMPI DUP1 PUSH4 0xE9EF9CF7 EQ PUSH2 0x77D JUMPI DUP1 PUSH4 0xF0861B3A EQ PUSH2 0x799 JUMPI DUP1 PUSH4 0xF49D66A3 EQ PUSH2 0x7C9 JUMPI DUP1 PUSH4 0xF8E66A4D EQ PUSH2 0x7FD JUMPI PUSH2 0x230 JUMP JUMPDEST DUP1 PUSH4 0xA900D628 EQ PUSH2 0x69E JUMPI DUP1 PUSH4 0xB71B75F4 EQ PUSH2 0x6D5 JUMPI DUP1 PUSH4 0xC81E25AB EQ PUSH2 0x6F1 JUMPI DUP1 PUSH4 0xC9820CC4 EQ PUSH2 0x727 JUMPI DUP1 PUSH4 0xD8AA4558 EQ PUSH2 0x743 JUMPI PUSH2 0x230 JUMP JUMPDEST DUP1 PUSH4 0x88E46740 GT PUSH2 0xFD JUMPI DUP1 PUSH4 0x88E46740 EQ PUSH2 0x5CE JUMPI DUP1 PUSH4 0x8DA5CB5B EQ PUSH2 0x602 JUMPI DUP1 PUSH4 0x92714224 EQ PUSH2 0x620 JUMPI DUP1 PUSH4 0x9A268F35 EQ PUSH2 0x652 JUMPI DUP1 PUSH4 0xA1C2E79C EQ PUSH2 0x682 JUMPI PUSH2 0x230 JUMP JUMPDEST DUP1 PUSH4 0x750AA2EA EQ PUSH2 0x51C JUMPI DUP1 PUSH4 0x769D0420 EQ PUSH2 0x54C JUMPI DUP1 PUSH4 0x7AB8DBE9 EQ PUSH2 0x568 JUMPI DUP1 PUSH4 0x8039FEEF EQ PUSH2 0x59C JUMPI PUSH2 0x230 JUMP JUMPDEST DUP1 PUSH4 0x401B2168 GT PUSH2 0x1BC JUMPI DUP1 PUSH4 0x51C4ADD5 GT PUSH2 0x180 JUMPI DUP1 PUSH4 0x51C4ADD5 EQ PUSH2 0x479 JUMPI DUP1 PUSH4 0x52F86467 EQ PUSH2 0x495 JUMPI DUP1 PUSH4 0x5CE48268 EQ PUSH2 0x4B1 JUMPI DUP1 PUSH4 0x6C1E9D87 EQ PUSH2 0x4E4 JUMPI DUP1 PUSH4 0x7304957B EQ PUSH2 0x500 JUMPI PUSH2 0x230 JUMP JUMPDEST DUP1 PUSH4 0x401B2168 EQ PUSH2 0x3AC JUMPI DUP1 PUSH4 0x49BEB611 EQ PUSH2 0x3DC JUMPI DUP1 PUSH4 0x4D6EC6E8 EQ PUSH2 0x40E JUMPI DUP1 PUSH4 0x4E3C5452 EQ PUSH2 0x42A JUMPI DUP1 PUSH4 0x4F3BEDBD EQ PUSH2 0x45D JUMPI PUSH2 0x230 JUMP JUMPDEST DUP1 PUSH4 0x18F13654 GT PUSH2 0x203 JUMPI DUP1 PUSH4 0x18F13654 EQ PUSH2 0x2E2 JUMPI DUP1 PUSH4 0x27ED3540 EQ PUSH2 0x314 JUMPI DUP1 PUSH4 0x29A566D2 EQ PUSH2 0x330 JUMPI DUP1 PUSH4 0x336989AE EQ PUSH2 0x34C JUMPI DUP1 PUSH4 0x38A699A4 EQ PUSH2 0x37C JUMPI PUSH2 0x230 JUMP JUMPDEST DUP1 PUSH4 0xF5600CB EQ PUSH2 0x234 JUMPI DUP1 PUSH4 0xF86A2A4 EQ PUSH2 0x266 JUMPI DUP1 PUSH4 0x112CDAB9 EQ PUSH2 0x282 JUMPI DUP1 PUSH4 0x16DC15FE EQ PUSH2 0x2B2 JUMPI JUMPDEST PUSH0 PUSH0 REVERT JUMPDEST PUSH2 0x24E PUSH1 0x4 DUP1 CALLDATASIZE SUB DUP2 ADD SWAP1 PUSH2 0x249 SWAP2 SWAP1 PUSH2 0x3EDF JUMP JUMPDEST PUSH2 0x819 JUMP JUMPDEST PUSH1 0x40 MLOAD PUSH2 0x25D SWAP4 SWAP3 SWAP2 SWAP1 PUSH2 0x3F7A JUMP JUMPDEST PUSH1 0x40 MLOAD DUP1 SWAP2 SUB SWAP1 RETURN JUMPDEST PUSH2 0x280 PUSH1 0x4 DUP1 CALLDATASIZE SUB DUP2 ADD SWAP1 PUSH2 0x27B SWAP2 SWAP1 PUSH2 0x408B JUMP JUMPDEST PUSH2 0x9D1 JUMP JUMPDEST STOP JUMPDEST PUSH2 0x29C PUSH1 0x4 DUP1 CALLDATASIZE SUB DUP2 ADD SWAP1 PUSH2 0x297 SWAP2 SWAP1 PUSH2 0x3EDF JUMP JUMPDEST PUSH2 0xD55 JUMP JUMPDEST PUSH1 0x40 MLOAD PUSH2 0x2A9 SWAP2 SWAP1 PUSH2 0x417C JUMP JUMPDEST PUSH1 0x40 MLOAD DUP1 SWAP2 SUB SWAP1 RETURN JUMPDEST PUSH2 0x2CC PUSH1 0x4 DUP1 CALLDATASIZE SUB DUP2 ADD SWAP1 PUSH2 0x2C7 SWAP2 SWAP1 PUSH2 0x3EDF JUMP JUMPDEST PUSH2 0xD72 JUMP JUMPDEST PUSH1 0x40 MLOAD PUSH2 0x2D9 SWAP2 SWAP1 PUSH2 0x417C JUMP JUMPDEST PUSH1 0x40 MLOAD DUP1 SWAP2 SUB SWAP1 RETURN JUMPDEST PUSH2 0x2FC PUSH1 0x4 DUP1 CALLDATASIZE SUB DUP2 ADD SWAP1 PUSH2 0x2F7 SWAP2 SWAP1 PUSH2 0x3EDF JUMP JUMPDEST PUSH2 0xD8F JUMP JUMPDEST PUSH1 0x40 MLOAD PUSH2 0x30B SWAP4 SWAP3 SWAP2 SWAP1 PUSH2 0x3F7A JUMP JUMPDEST PUSH1 0x40 MLOAD DUP1 SWAP2 SUB SWAP1 RETURN JUMPDEST PUSH2 0x32E PUSH1 0x4 DUP1 CALLDATASIZE SUB DUP2 ADD SWAP1 PUSH2 0x329 SWAP2 SWAP1 PUSH2 0x4195 JUMP JUMPDEST PUSH2 0xF47 JUMP JUMPDEST STOP JUMPDEST PUSH2 0x34A PUSH1 0x4 DUP1 CALLDATASIZE SUB DUP2 ADD SWAP1 PUSH2 0x345 SWAP2 SWAP1 PUSH2 0x41F2 JUMP JUMPDEST PUSH2 0x10C0 JUMP JUMPDEST STOP JUMPDEST PUSH2 0x366 PUSH1 0x4 DUP1 CALLDATASIZE SUB DUP2 ADD SWAP1 PUSH2 0x361 SWAP2 SWAP1 PUSH2 0x3EDF JUMP JUMPDEST PUSH2 0x1344 JUMP JUMPDEST PUSH1 0x40 MLOAD PUSH2 0x373 SWAP2 SWAP1 PUSH2 0x417C JUMP JUMPDEST PUSH1 0x40 MLOAD DUP1 SWAP2 SUB SWAP1 RETURN JUMPDEST PUSH2 0x396 PUSH1 0x4 DUP1 CALLDATASIZE SUB DUP2 ADD SWAP1 PUSH2 0x391 SWAP2 SWAP1 PUSH2 0x42A2 JUMP JUMPDEST PUSH2 0x1361 JUMP JUMPDEST PUSH1 0x40 MLOAD PUSH2 0x3A3 SWAP2 SWAP1 PUSH2 0x417C JUMP JUMPDEST PUSH1 0x40 MLOAD DUP1 SWAP2 SUB SWAP1 RETURN JUMPDEST PUSH2 0x3C6 PUSH1 0x4 DUP1 CALLDATASIZE SUB DUP2 ADD SWAP1 PUSH2 0x3C1 SWAP2 SWAP1 PUSH2 0x3EDF JUMP JUMPDEST PUSH2 0x137E JUMP JUMPDEST PUSH1 0x40 MLOAD PUSH2 0x3D3 SWAP2 SWAP1 PUSH2 0x417C JUMP JUMPDEST PUSH1 0x40 MLOAD DUP1 SWAP2 SUB SWAP1 RETURN JUMPDEST PUSH2 0x3F6 PUSH1 0x4 DUP1 CALLDATASIZE SUB DUP2 ADD SWAP1 PUSH2 0x3F1 SWAP2 SWAP1 PUSH2 0x3EDF JUMP JUMPDEST PUSH2 0x139A JUMP JUMPDEST PUSH1 0x40 MLOAD PUSH2 0x405 SWAP4 SWAP3 SWAP2 SWAP1 PUSH2 0x3F7A JUMP JUMPDEST PUSH1 0x40 MLOAD DUP1 SWAP2 SUB SWAP1 RETURN JUMPDEST PUSH2 0x428 PUSH1 0x4 DUP1 CALLDATASIZE SUB DUP2 ADD SWAP1 PUSH2 0x423 SWAP2 SWAP1 PUSH2 0x41F2 JUMP JUMPDEST PUSH2 0x1552 JUMP JUMPDEST STOP JUMPDEST PUSH2 0x444 PUSH1 0x4 DUP1 CALLDATASIZE SUB DUP2 ADD SWAP1 PUSH2 0x43F SWAP2 SWAP1 PUSH2 0x42CD JUMP JUMPDEST PUSH2 0x17D8 JUMP JUMPDEST PUSH1 0x40 MLOAD PUSH2 0x454 SWAP5 SWAP4 SWAP3 SWAP2 SWAP1 PUSH2 0x4307 JUMP JUMPDEST PUSH1 0x40 MLOAD DUP1 SWAP2 SUB SWAP1 RETURN JUMPDEST PUSH2 0x477 PUSH1 0x4 DUP1 CALLDATASIZE SUB DUP2 ADD SWAP1 PUSH2 0x472 SWAP2 SWAP1 PUSH2 0x434A JUMP JUMPDEST PUSH2 0x1813 JUMP JUMPDEST STOP JUMPDEST PUSH2 0x493 PUSH1 0x4 DUP1 CALLDATASIZE SUB DUP2 ADD SWAP1 PUSH2 0x48E SWAP2 SWAP1 PUSH2 0x43E5 JUMP JUMPDEST PUSH2 0x19F2 JUMP JUMPDEST STOP JUMPDEST PUSH2 0x4AF PUSH1 0x4 DUP1 CALLDATASIZE SUB DUP2 ADD SWAP1 PUSH2 0x4AA SWAP2 SWAP1 PUSH2 0x4488 JUMP JUMPDEST PUSH2 0x1C2E JUMP JUMPDEST STOP JUMPDEST PUSH2 0x4CB PUSH1 0x4 DUP1 CALLDATASIZE SUB DUP2 ADD SWAP1 PUSH2 0x4C6 SWAP2 SWAP1 PUSH2 0x42CD JUMP JUMPDEST PUSH2 0x1E1C JUMP JUMPDEST PUSH1 0x40 MLOAD PUSH2 0x4DB SWAP5 SWAP4 SWAP3 SWAP2 SWAP1 PUSH2 0x4307 JUMP JUMPDEST PUSH1 0x40 MLOAD DUP1 SWAP2 SUB SWAP1 RETURN JUMPDEST PUSH2 0x4FE PUSH1 0x4 DUP1 CALLDATASIZE SUB DUP2 ADD SWAP1 PUSH2 0x4F9 SWAP2 SWAP1 PUSH2 0x434A JUMP JUMPDEST PUSH2 0x1E48 JUMP JUMPDEST STOP JUMPDEST PUSH2 0x51A PUSH1 0x4 DUP1 CALLDATASIZE SUB DUP2 ADD SWAP1 PUSH2 0x515 SWAP2 SWAP1 PUSH2 0x434A JUMP JUMPDEST PUSH2 0x2027 JUMP JUMPDEST STOP JUMPDEST PUSH2 0x536 PUSH1 0x4 DUP1 CALLDATASIZE SUB DUP2 ADD SWAP1 PUSH2 0x531 SWAP2 SWAP1 PUSH2 0x42CD JUMP JUMPDEST PUSH2 0x21C5 JUMP JUMPDEST PUSH1 0x40 MLOAD PUSH2 0x543 SWAP2 SWAP1 PUSH2 0x4508 JUMP JUMPDEST PUSH1 0x40 MLOAD DUP1 SWAP2 SUB SWAP1 RETURN JUMPDEST PUSH2 0x566 PUSH1 0x4 DUP1 CALLDATASIZE SUB DUP2 ADD SWAP1 PUSH2 0x561 SWAP2 SWAP1 PUSH2 0x434A JUMP JUMPDEST PUSH2 0x225E JUMP JUMPDEST STOP JUMPDEST PUSH2 0x582 PUSH1 0x4 DUP1 CALLDATASIZE SUB DUP2 ADD SWAP1 PUSH2 0x57D SWAP2 SWAP1 PUSH2 0x42A2 JUMP JUMPDEST PUSH2 0x24DA JUMP JUMPDEST PUSH1 0x40 MLOAD PUSH2 0x593 SWAP6 SWAP5 SWAP4 SWAP3 SWAP2 SWAP1 PUSH2 0x4530 JUMP JUMPDEST PUSH1 0x40 MLOAD DUP1 SWAP2 SUB SWAP1 RETURN JUMPDEST PUSH2 0x5B6 PUSH1 0x4 DUP1 CALLDATASIZE SUB DUP2 ADD SWAP1 PUSH2 0x5B1 SWAP2 SWAP1 PUSH2 0x3EDF JUMP JUMPDEST PUSH2 0x2643 JUMP JUMPDEST PUSH1 0x40 MLOAD PUSH2 0x5C5 SWAP4 SWAP3 SWAP2 SWAP1 PUSH2 0x3F7A JUMP JUMPDEST PUSH1 0x40 MLOAD DUP1 SWAP2 SUB SWAP1 RETURN JUMPDEST PUSH2 0x5E8 PUSH1 0x4 DUP1 CALLDATASIZE SUB DUP2 ADD SWAP1 PUSH2 0x5E3 SWAP2 SWAP1 PUSH2 0x42A2 JUMP JUMPDEST PUSH2 0x27FB JUMP JUMPDEST PUSH1 0x40 MLOAD PUSH2 0x5F9 SWAP6 SWAP5 SWAP4 SWAP3 SWAP2 SWAP1 PUSH2 0x458F JUMP JUMPDEST PUSH1 0x40 MLOAD DUP1 SWAP2 SUB SWAP1 RETURN JUMPDEST PUSH2 0x60A PUSH2 0x2958 JUMP JUMPDEST PUSH1 0x40 MLOAD PUSH2 0x617 SWAP2 SWAP1 PUSH2 0x45EE JUMP JUMPDEST PUSH1 0x40 MLOAD DUP1 SWAP2 SUB SWAP1 RETURN JUMPDEST PUSH2 0x63A PUSH1 0x4 DUP1 CALLDATASIZE SUB DUP2 ADD SWAP1 PUSH2 0x635 SWAP2 SWAP1 PUSH2 0x3EDF JUMP JUMPDEST PUSH2 0x297D JUMP JUMPDEST PUSH1 0x40 MLOAD PUSH2 0x649 SWAP4 SWAP3 SWAP2 SWAP1 PUSH2 0x3F7A JUMP JUMPDEST PUSH1 0x40 MLOAD DUP1 SWAP2 SUB SWAP1 RETURN JUMPDEST PUSH2 0x66C PUSH1 0x4 DUP1 CALLDATASIZE SUB DUP2 ADD SWAP1 PUSH2 0x667 SWAP2 SWAP1 PUSH2 0x3EDF JUMP JUMPDEST PUSH2 0x2B35 JUMP JUMPDEST PUSH1 0x40 MLOAD PUSH2 0x679 SWAP2 SWAP1 PUSH2 0x417C JUMP JUMPDEST PUSH1 0x40 MLOAD DUP1 SWAP2 SUB SWAP1 RETURN JUMPDEST PUSH2 0x69C PUSH1 0x4 DUP1 CALLDATASIZE SUB DUP2 ADD SWAP1 PUSH2 0x697 SWAP2 SWAP1 PUSH2 0x41F2 JUMP JUMPDEST PUSH2 0x2B52 JUMP JUMPDEST STOP JUMPDEST PUSH2 0x6B8 PUSH1 0x4 DUP1 CALLDATASIZE SUB DUP2 ADD SWAP1 PUSH2 0x6B3 SWAP2 SWAP1 PUSH2 0x42A2 JUMP JUMPDEST PUSH2 0x2DD8 JUMP JUMPDEST PUSH1 0x40 MLOAD PUSH2 0x6CC SWAP9 SWAP8 SWAP7 SWAP6 SWAP5 SWAP4 SWAP3 SWAP2 SWAP1 PUSH2 0x467A JUMP JUMPDEST PUSH1 0x40 MLOAD DUP1 SWAP2 SUB SWAP1 RETURN JUMPDEST PUSH2 0x6EF PUSH1 0x4 DUP1 CALLDATASIZE SUB DUP2 ADD SWAP1 PUSH2 0x6EA SWAP2 SWAP1 PUSH2 0x4488 JUMP JUMPDEST PUSH2 0x3060 JUMP JUMPDEST STOP JUMPDEST PUSH2 0x70B PUSH1 0x4 DUP1 CALLDATASIZE SUB DUP2 ADD SWAP1 PUSH2 0x706 SWAP2 SWAP1 PUSH2 0x42A2 JUMP JUMPDEST PUSH2 0x324E JUMP JUMPDEST PUSH1 0x40 MLOAD PUSH2 0x71E SWAP8 SWAP7 SWAP6 SWAP5 SWAP4 SWAP3 SWAP2 SWAP1 PUSH2 0x4712 JUMP JUMPDEST PUSH1 0x40 MLOAD DUP1 SWAP2 SUB SWAP1 RETURN JUMPDEST PUSH2 0x741 PUSH1 0x4 DUP1 CALLDATASIZE SUB DUP2 ADD SWAP1 PUSH2 0x73C SWAP2 SWAP1 PUSH2 0x4195 JUMP JUMPDEST PUSH2 0x3455 JUMP JUMPDEST STOP JUMPDEST PUSH2 0x75D PUSH1 0x4 DUP1 CALLDATASIZE SUB DUP2 ADD SWAP1 PUSH2 0x758 SWAP2 SWAP1 PUSH2 0x4794 JUMP JUMPDEST PUSH2 0x36AB JUMP JUMPDEST STOP JUMPDEST PUSH2 0x767 PUSH2 0x3749 JUMP JUMPDEST PUSH1 0x40 MLOAD PUSH2 0x774 SWAP2 SWAP1 PUSH2 0x47F8 JUMP JUMPDEST PUSH1 0x40 MLOAD DUP1 SWAP2 SUB SWAP1 RETURN JUMPDEST PUSH2 0x797 PUSH1 0x4 DUP1 CALLDATASIZE SUB DUP2 ADD SWAP1 PUSH2 0x792 SWAP2 SWAP1 PUSH2 0x41F2 JUMP JUMPDEST PUSH2 0x374F JUMP JUMPDEST STOP JUMPDEST PUSH2 0x7B3 PUSH1 0x4 DUP1 CALLDATASIZE SUB DUP2 ADD SWAP1 PUSH2 0x7AE SWAP2 SWAP1 PUSH2 0x42CD JUMP JUMPDEST PUSH2 0x39D4 JUMP JUMPDEST PUSH1 0x40 MLOAD PUSH2 0x7C0 SWAP2 SWAP1 PUSH2 0x4508 JUMP JUMPDEST PUSH1 0x40 MLOAD DUP1 SWAP2 SUB SWAP1 RETURN JUMPDEST PUSH2 0x7E3 PUSH1 0x4 DUP1 CALLDATASIZE SUB DUP2 ADD SWAP1 PUSH2 0x7DE SWAP2 SWAP1 PUSH2 0x42A2 JUMP JUMPDEST PUSH2 0x39E9 JUMP JUMPDEST PUSH1 0x40 MLOAD PUSH2 0x7F4 SWAP6 SWAP5 SWAP4 SWAP3 SWAP2 SWAP1 PUSH2 0x458F JUMP JUMPDEST PUSH1 0x40 MLOAD DUP1 SWAP2 SUB SWAP1 RETURN JUMPDEST PUSH2 0x817 PUSH1 0x4 DUP1 CALLDATASIZE SUB DUP2 ADD SWAP1 PUSH2 0x812 SWAP2 SWAP1 PUSH2 0x41F2 JUMP JUMPDEST PUSH2 0x3B46 JUMP JUMPDEST STOP JUMPDEST PUSH1 0x7 PUSH1 0x20 MSTORE DUP1 PUSH0 MSTORE PUSH1 0x40 PUSH0 KECCAK256 PUSH0 SWAP2 POP SWAP1 POP DUP1 PUSH0 ADD DUP1 SLOAD PUSH2 0x838 SWAP1 PUSH2 0x483E JUMP JUMPDEST DUP1 PUSH1 0x1F ADD PUSH1 0x20 DUP1 SWAP2 DIV MUL PUSH1 0x20 ADD PUSH1 0x40 MLOAD SWAP1 DUP2 ADD PUSH1 0x40 MSTORE DUP1 SWAP3 SWAP2 SWAP1 DUP2 DUP2 MSTORE PUSH1 0x20 ADD DUP3 DUP1 SLOAD PUSH2 0x864 SWAP1 PUSH2 0x483E JUMP JUMPDEST DUP1 ISZERO PUSH2 0x8AF JUMPI DUP1 PUSH1 0x1F LT PUSH2 0x886 JUMPI PUSH2 0x100 DUP1 DUP4 SLOAD DIV MUL DUP4 MSTORE SWAP2 PUSH1 0x20 ADD SWAP2 PUSH2 0x8AF JUMP JUMPDEST DUP3 ADD SWAP2 SWAP1 PUSH0 MSTORE PUSH1 0x20 PUSH0 KECCAK256 SWAP1 JUMPDEST DUP2 SLOAD DUP2 MSTORE SWAP1 PUSH1 0x1 ADD SWAP1 PUSH1 0x20 ADD DUP1 DUP4 GT PUSH2 0x892 JUMPI DUP3 SWAP1 SUB PUSH1 0x1F AND DUP3 ADD SWAP2 JUMPDEST POP POP POP POP POP SWAP1 DUP1 PUSH1 0x1 ADD DUP1 SLOAD PUSH2 0x8C4 SWAP1 PUSH2 0x483E JUMP JUMPDEST DUP1 PUSH1 0x1F ADD PUSH1 0x20 DUP1 SWAP2 DIV MUL PUSH1 0x20 ADD PUSH1 0x40 MLOAD SWAP1 DUP2 ADD PUSH1 0x40 MSTORE DUP1 SWAP3 SWAP2 SWAP1 DUP2 DUP2 MSTORE PUSH1 0x20 ADD DUP3 DUP1 SLOAD PUSH2 0x8F0 SWAP1 PUSH2 0x483E JUMP JUMPDEST DUP1 ISZERO PUSH2 0x93B JUMPI DUP1 PUSH1 0x1F LT PUSH2 0x912 JUMPI PUSH2 0x100 DUP1 DUP4 SLOAD DIV MUL DUP4 MSTORE SWAP2 PUSH1 0x20 ADD SWAP2 PUSH2 0x93B JUMP JUMPDEST DUP3 ADD SWAP2 SWAP1 PUSH0 MSTORE PUSH1 0x20 PUSH0 KECCAK256 SWAP1 JUMPDEST DUP2 SLOAD DUP2 MSTORE SWAP1 PUSH1 0x1 ADD SWAP1 PUSH1 0x20 ADD DUP1 DUP4 GT PUSH2 0x91E JUMPI DUP3 SWAP1 SUB PUSH1 0x1F AND DUP3 ADD SWAP2 JUMPDEST POP POP POP POP POP SWAP1 DUP1 PUSH1 0x2 ADD DUP1 SLOAD PUSH2 0x950 SWAP1 PUSH2 0x483E JUMP JUMPDEST DUP1 PUSH1 0x1F ADD PUSH1 0x20 DUP1 SWAP2 DIV MUL PUSH1 0x20 ADD PUSH1 0x40 MLOAD SWAP1 DUP2 ADD PUSH1 0x40 MSTORE DUP1 SWAP3 SWAP2 SWAP1 DUP2 DUP2 MSTORE PUSH1 0x20 ADD DUP3 DUP1 SLOAD PUSH2 0x97C SWAP1 PUSH2 0x483E JUMP JUMPDEST DUP1 ISZERO PUSH2 0x9C7 JUMPI DUP1 PUSH1 0x1F LT PUSH2 0x99E JUMPI PUSH2 0x100 DUP1 DUP4 SLOAD DIV MUL DUP4 MSTORE SWAP2 PUSH1 0x20 ADD SWAP2 PUSH2 0x9C7 JUMP JUMPDEST DUP3 ADD SWAP2 SWAP1 PUSH0 MSTORE PUSH1 0x20 PUSH0 KECCAK256 SWAP1 JUMPDEST DUP2 SLOAD DUP2 MSTORE SWAP1 PUSH1 0x1 ADD SWAP1 PUSH1 0x20 ADD DUP1 DUP4 GT PUSH2 0x9AA JUMPI DUP3 SWAP1 SUB PUSH1 0x1F AND DUP3 ADD SWAP2 JUMPDEST POP POP POP POP POP SWAP1 POP DUP4 JUMP JUMPDEST PUSH0 PUSH0 CALLER PUSH20 0xFFFFFFFFFFFFFFFFFFFFFFFFFFFFFFFFFFFFFFFF AND PUSH20 0xFFFFFFFFFFFFFFFFFFFFFFFFFFFFFFFFFFFFFFFF AND DUP2 MSTORE PUSH1 0x20 ADD SWAP1 DUP2 MSTORE PUSH1 0x20 ADD PUSH0 KECCAK256 PUSH0 SWAP1 SLOAD SWAP1 PUSH2 0x100 EXP SWAP1 DIV PUSH1 0xFF AND PUSH2 0xA59 JUMPI PUSH1 0x40 MLOAD PUSH32 0x8C379A000000000000000000000000000000000000000000000000000000000 DUP2 MSTORE PUSH1 0x4 ADD PUSH2 0xA50 SWAP1 PUSH2 0x48B8 JUMP JUMPDEST PUSH1 0x40 MLOAD DUP1 SWAP2 SUB SWAP1 REVERT JUMPDEST PUSH1 0x4 PUSH0 DUP10 DUP2 MSTORE PUSH1 0x20 ADD SWAP1 DUP2 MSTORE PUSH1 0x20 ADD PUSH0 KECCAK256 PUSH0 SWAP1 SLOAD SWAP1 PUSH2 0x100 EXP SWAP1 DIV PUSH1 0xFF AND ISZERO PUSH2 0xAB7 JUMPI PUSH1 0x40 MLOAD PUSH32 0x8C379A000000000000000000000000000000000000000000000000000000000 DUP2 MSTORE PUSH1 0x4 ADD PUSH2 0xAAE SWAP1 PUSH2 0x4920 JUMP JUMPDEST PUSH1 0x40 MLOAD DUP1 SWAP2 SUB SWAP1 REVERT JUMPDEST PUSH1 0x40 MLOAD DUP1 PUSH2 0x100 ADD PUSH1 0x40 MSTORE DUP1 DUP10 DUP2 MSTORE PUSH1 0x20 ADD DUP9 DUP9 DUP1 DUP1 PUSH1 0x1F ADD PUSH1 0x20 DUP1 SWAP2 DIV MUL PUSH1 0x20 ADD PUSH1 0x40 MLOAD SWAP1 DUP2 ADD PUSH1 0x40 MSTORE DUP1 SWAP4 SWAP3 SWAP2 SWAP1 DUP2 DUP2 MSTORE PUSH1 0x20 ADD DUP4 DUP4 DUP1 DUP3 DUP5 CALLDATACOPY PUSH0 DUP2 DUP5 ADD MSTORE PUSH1 0x1F NOT PUSH1 0x1F DUP3 ADD AND SWAP1 POP DUP1 DUP4 ADD SWAP3 POP POP POP POP POP POP POP DUP2 MSTORE PUSH1 0x20 ADD DUP7 DUP7 DUP1 DUP1 PUSH1 0x1F ADD PUSH1 0x20 DUP1 SWAP2 DIV MUL PUSH1 0x20 ADD PUSH1 0x40 MLOAD SWAP1 DUP2 ADD PUSH1 0x40 MSTORE DUP1 SWAP4 SWAP3 SWAP2 SWAP1 DUP2 DUP2 MSTORE PUSH1 0x20 ADD DUP4 DUP4 DUP1 DUP3 DUP5 CALLDATACOPY PUSH0 DUP2 DUP5 ADD MSTORE PUSH1 0x1F NOT PUSH1 0x1F DUP3 ADD AND SWAP1 POP DUP1 DUP4 ADD SWAP3 POP POP POP POP POP POP POP DUP2 MSTORE PUSH1 0x20 ADD DUP5 DUP5 DUP1 DUP1 PUSH1 0x1F ADD PUSH1 0x20 DUP1 SWAP2 DIV MUL PUSH1 0x20 ADD PUSH1 0x40 MLOAD SWAP1 DUP2 ADD PUSH1 0x40 MSTORE DUP1 SWAP4 SWAP3 SWAP2 SWAP1 DUP2 DUP2 MSTORE PUSH1 0x20 ADD DUP4 DUP4 DUP1 DUP3 DUP5 CALLDATACOPY PUSH0 DUP2 DUP5 ADD MSTORE PUSH1 0x1F NOT PUSH1 0x1F DUP3 ADD AND SWAP1 POP DUP1 DUP4 ADD SWAP3 POP POP POP POP POP POP POP DUP2 MSTORE PUSH1 0x20 ADD DUP3 DUP2 MSTORE PUSH1 0x20 ADD PUSH1 0x1 PUSH1 0x6 DUP2 GT ISZERO PUSH2 0xBBE JUMPI PUSH2 0xBBD PUSH2 0x4607 JUMP JUMPDEST JUMPDEST DUP2 MSTORE PUSH1 0x20 ADD CALLER PUSH20 0xFFFFFFFFFFFFFFFFFFFFFFFFFFFFFFFFFFFFFFFF AND DUP2 MSTORE PUSH1 0x20 ADD PUSH1 0x40 MLOAD DUP1 PUSH1 0x20 ADD PUSH1 0x40 MSTORE DUP1 PUSH0 DUP2 MSTORE POP DUP2 MSTORE POP PUSH1 0x2 PUSH0 DUP11 DUP2 MSTORE PUSH1 0x20 ADD SWAP1 DUP2 MSTORE PUSH1 0x20 ADD PUSH0 KECCAK256 PUSH0 DUP3 ADD MLOAD DUP2 PUSH0 ADD SSTORE PUSH1 0x20 DUP3 ADD MLOAD DUP2 PUSH1 0x1 ADD SWAP1 DUP2 PUSH2 0xC1F SWAP2 SWAP1 PUSH2 0x4B0B JUMP JUMPDEST POP PUSH1 0x40 DUP3 ADD MLOAD DUP2 PUSH1 0x2 ADD SWAP1 DUP2 PUSH2 0xC35 SWAP2 SWAP1 PUSH2 0x4B0B JUMP JUMPDEST POP PUSH1 0x60 DUP3 ADD MLOAD DUP2 PUSH1 0x3 ADD SWAP1 DUP2 PUSH2 0xC4B SWAP2 SWAP1 PUSH2 0x4B0B JUMP JUMPDEST POP PUSH1 0x80 DUP3 ADD MLOAD DUP2 PUSH1 0x4 ADD SSTORE PUSH1 0xA0 DUP3 ADD MLOAD DUP2 PUSH1 0x5 ADD PUSH0 PUSH2 0x100 EXP DUP2 SLOAD DUP2 PUSH1 0xFF MUL NOT AND SWAP1 DUP4 PUSH1 0x6 DUP2 GT ISZERO PUSH2 0xC80 JUMPI PUSH2 0xC7F PUSH2 0x4607 JUMP JUMPDEST JUMPDEST MUL OR SWAP1 SSTORE POP PUSH1 0xC0 DUP3 ADD MLOAD DUP2 PUSH1 0x5 ADD PUSH1 0x1 PUSH2 0x100 EXP DUP2 SLOAD DUP2 PUSH20 0xFFFFFFFFFFFFFFFFFFFFFFFFFFFFFFFFFFFFFFFF MUL NOT AND SWAP1 DUP4 PUSH20 0xFFFFFFFFFFFFFFFFFFFFFFFFFFFFFFFFFFFFFFFF AND MUL OR SWAP1 SSTORE POP PUSH1 0xE0 DUP3 ADD MLOAD DUP2 PUSH1 0x6 ADD SWAP1 DUP2 PUSH2 0xCE1 SWAP2 SWAP1 PUSH2 0x4B0B JUMP JUMPDEST POP SWAP1 POP POP PUSH1 0x1 PUSH1 0x4 PUSH0 DUP11 DUP2 MSTORE PUSH1 0x20 ADD SWAP1 DUP2 MSTORE PUSH1 0x20 ADD PUSH0 KECCAK256 PUSH0 PUSH2 0x100 EXP DUP2 SLOAD DUP2 PUSH1 0xFF MUL NOT AND SWAP1 DUP4 ISZERO ISZERO MUL OR SWAP1 SSTORE POP PUSH32 0x9DCCA99EEBC5190547E039817ED1A8656E9D96C9FCC340F1223D2717DC72AE58 DUP9 DUP9 DUP9 DUP5 PUSH1 0x40 MLOAD PUSH2 0xD43 SWAP5 SWAP4 SWAP3 SWAP2 SWAP1 PUSH2 0x4C14 JUMP JUMPDEST PUSH1 0x40 MLOAD DUP1 SWAP2 SUB SWAP1 LOG1 POP POP POP POP POP POP POP POP JUMP JUMPDEST PUSH1 0x9 PUSH1 0x20 MSTORE DUP1 PUSH0 MSTORE PUSH1 0x40 PUSH0 KECCAK256 PUSH0 SWAP2 POP SLOAD SWAP1 PUSH2 0x100 EXP SWAP1 DIV PUSH1 0xFF AND DUP2 JUMP JUMPDEST PUSH1 0x6 PUSH1 0x20 MSTORE DUP1 PUSH0 MSTORE PUSH1 0x40 PUSH0 KECCAK256 PUSH0 SWAP2 POP SLOAD SWAP1 PUSH2 0x100 EXP SWAP1 DIV PUSH1 0xFF AND DUP2 JUMP JUMPDEST PUSH1 0xD PUSH1 0x20 MSTORE DUP1 PUSH0 MSTORE PUSH1 0x40 PUSH0 KECCAK256 PUSH0 SWAP2 POP SWAP1 POP DUP1 PUSH0 ADD DUP1 SLOAD PUSH2 0xDAE SWAP1 PUSH2 0x483E JUMP JUMPDEST DUP1 PUSH1 0x1F ADD PUSH1 0x20 DUP1 SWAP2 DIV MUL PUSH1 0x20 ADD PUSH1 0x40 MLOAD SWAP1 DUP2 ADD PUSH1 0x40 MSTORE DUP1 SWAP3 SWAP2 SWAP1 DUP2 DUP2 MSTORE PUSH1 0x20 ADD DUP3 DUP1 SLOAD PUSH2 0xDDA SWAP1 PUSH2 0x483E JUMP JUMPDEST DUP1 ISZERO PUSH2 0xE25 JUMPI DUP1 PUSH1 0x1F LT PUSH2 0xDFC JUMPI PUSH2 0x100 DUP1 DUP4 SLOAD DIV MUL DUP4 MSTORE SWAP2 PUSH1 0x20 ADD SWAP2 PUSH2 0xE25 JUMP JUMPDEST DUP3 ADD SWAP2 SWAP1 PUSH0 MSTORE PUSH1 0x20 PUSH0 KECCAK256 SWAP1 JUMPDEST DUP2 SLOAD DUP2 MSTORE SWAP1 PUSH1 0x1 ADD SWAP1 PUSH1 0x20 ADD DUP1 DUP4 GT PUSH2 0xE08 JUMPI DUP3 SWAP1 SUB PUSH1 0x1F AND DUP3 ADD SWAP2 JUMPDEST POP POP POP POP POP SWAP1 DUP1 PUSH1 0x1 ADD DUP1 SLOAD PUSH2 0xE3A SWAP1 PUSH2 0x483E JUMP JUMPDEST DUP1 PUSH1 0x1F ADD PUSH1 0x20 DUP1 SWAP2 DIV MUL PUSH1 0x20 ADD PUSH1 0x40 MLOAD SWAP1 DUP2 ADD PUSH1 0x40 MSTORE DUP1 SWAP3 SWAP2 SWAP1 DUP2 DUP2 MSTORE PUSH1 0x20 ADD DUP3 DUP1 SLOAD PUSH2 0xE66 SWAP1 PUSH2 0x483E JUMP JUMPDEST DUP1 ISZERO PUSH2 0xEB1 JUMPI DUP1 PUSH1 0x1F LT PUSH2 0xE88 JUMPI PUSH2 0x100 DUP1 DUP4 SLOAD DIV MUL DUP4 MSTORE SWAP2 PUSH1 0x20 ADD SWAP2 PUSH2 0xEB1 JUMP JUMPDEST DUP3 ADD SWAP2 SWAP1 PUSH0 MSTORE PUSH1 0x20 PUSH0 KECCAK256 SWAP1 JUMPDEST DUP2 SLOAD DUP2 MSTORE SWAP1 PUSH1 0x1 ADD SWAP1 PUSH1 0x20 ADD DUP1 DUP4 GT PUSH2 0xE94 JUMPI DUP3 SWAP1 SUB PUSH1 0x1F AND DUP3 ADD SWAP2 JUMPDEST POP POP POP POP POP SWAP1 DUP1 PUSH1 0x2 ADD DUP1 SLOAD PUSH2 0xEC6 SWAP1 PUSH2 0x483E JUMP JUMPDEST DUP1 PUSH1 0x1F ADD PUSH1 0x20 DUP1 SWAP2 DIV MUL PUSH1 0x20 ADD PUSH1 0x40 MLOAD SWAP1 DUP2 ADD PUSH1 0x40 MSTORE DUP1 SWAP3 SWAP2 SWAP1 DUP2 DUP2 MSTORE PUSH1 0x20 ADD DUP3 DUP1 SLOAD PUSH2 0xEF2 SWAP1 PUSH2 0x483E JUMP JUMPDEST DUP1 ISZERO PUSH2 0xF3D JUMPI DUP1 PUSH1 0x1F LT PUSH2 0xF14 JUMPI PUSH2 0x100 DUP1 DUP4 SLOAD DIV MUL DUP4 MSTORE SWAP2 PUSH1 0x20 ADD SWAP2 PUSH2 0xF3D JUMP JUMPDEST DUP3 ADD SWAP2 SWAP1 PUSH0 MSTORE PUSH1 0x20 PUSH0 KECCAK256 SWAP1 JUMPDEST DUP2 SLOAD DUP2 MSTORE SWAP1 PUSH1 0x1 ADD SWAP1 PUSH1 0x20 ADD DUP1 DUP4 GT PUSH2 0xF20 JUMPI DUP3 SWAP1 SUB PUSH1 0x1F AND DUP3 ADD SWAP2 JUMPDEST POP POP POP POP POP SWAP1 POP DUP4 JUMP JUMPDEST PUSH1 0x9 PUSH0 CALLER PUSH20 0xFFFFFFFFFFFFFFFFFFFFFFFFFFFFFFFFFFFFFFFF AND PUSH20 0xFFFFFFFFFFFFFFFFFFFFFFFFFFFFFFFFFFFFFFFF AND DUP2 MSTORE PUSH1 0x20 ADD SWAP1 DUP2 MSTORE PUSH1 0x20 ADD PUSH0 KECCAK256 PUSH0 SWAP1 SLOAD SWAP1 PUSH2 0x100 EXP SWAP1 DIV PUSH1 0xFF AND PUSH2 0xFD0 JUMPI PUSH1 0x40 MLOAD PUSH32 0x8C379A000000000000000000000000000000000000000000000000000000000 DUP2 MSTORE PUSH1 0x4 ADD PUSH2 0xFC7 SWAP1 PUSH2 0x4C9C JUMP JUMPDEST PUSH1 0x40 MLOAD DUP1 SWAP2 SUB SWAP1 REVERT JUMPDEST PUSH1 0xB PUSH0 DUP5 DUP2 MSTORE PUSH1 0x20 ADD SWAP1 DUP2 MSTORE PUSH1 0x20 ADD PUSH0 KECCAK256 PUSH1 0x1 ADD PUSH0 SWAP1 SLOAD SWAP1 PUSH2 0x100 EXP SWAP1 DIV PUSH1 0xFF AND PUSH2 0x1030 JUMPI PUSH1 0x40 MLOAD PUSH32 0x8C379A000000000000000000000000000000000000000000000000000000000 DUP2 MSTORE PUSH1 0x4 ADD PUSH2 0x1027 SWAP1 PUSH2 0x4D04 JUMP JUMPDEST PUSH1 0x40 MLOAD DUP1 SWAP2 SUB SWAP1 REVERT JUMPDEST PUSH1 0x1 PUSH1 0xB PUSH0 DUP6 DUP2 MSTORE PUSH1 0x20 ADD SWAP1 DUP2 MSTORE PUSH1 0x20 ADD PUSH0 KECCAK256 PUSH1 0x3 ADD PUSH0 PUSH2 0x100 EXP DUP2 SLOAD DUP2 PUSH1 0xFF MUL NOT AND SWAP1 DUP4 ISZERO ISZERO MUL OR SWAP1 SSTORE POP DUP2 DUP2 PUSH1 0xB PUSH0 DUP7 DUP2 MSTORE PUSH1 0x20 ADD SWAP1 DUP2 MSTORE PUSH1 0x20 ADD PUSH0 KECCAK256 PUSH1 0x4 ADD SWAP2 DUP3 PUSH2 0x107F SWAP3 SWAP2 SWAP1 PUSH2 0x4D2C JUMP JUMPDEST POP PUSH32 0xE5D0B47A1FE3DE7357458B7B7AA20AEDE2093BAA892E9D8C2784E39FA58A7D8C DUP4 DUP4 DUP4 PUSH1 0x40 MLOAD PUSH2 0x10B3 SWAP4 SWAP3 SWAP2 SWAP1 PUSH2 0x4DF9 JUMP JUMPDEST PUSH1 0x40 MLOAD DUP1 SWAP2 SUB SWAP1 LOG1 POP POP POP JUMP JUMPDEST PUSH0 PUSH0 CALLER PUSH20 0xFFFFFFFFFFFFFFFFFFFFFFFFFFFFFFFFFFFFFFFF AND PUSH20 0xFFFFFFFFFFFFFFFFFFFFFFFFFFFFFFFFFFFFFFFF AND DUP2 MSTORE PUSH1 0x20 ADD SWAP1 DUP2 MSTORE PUSH1 0x20 ADD PUSH0 KECCAK256 PUSH0 SWAP1 SLOAD SWAP1 PUSH2 0x100 EXP SWAP1 DIV PUSH1 0xFF AND ISZERO PUSH2 0x1149 JUMPI PUSH1 0x40 MLOAD PUSH32 0x8C379A000000000000000000000000000000000000000000000000000000000 DUP2 MSTORE PUSH1 0x4 ADD PUSH2 0x1140 SWAP1 PUSH2 0x4E73 JUMP JUMPDEST PUSH1 0x40 MLOAD DUP1 SWAP2 SUB SWAP1 REVERT JUMPDEST PUSH1 0x1 PUSH0 PUSH0 CALLER PUSH20 0xFFFFFFFFFFFFFFFFFFFFFFFFFFFFFFFFFFFFFFFF AND PUSH20 0xFFFFFFFFFFFFFFFFFFFFFFFFFFFFFFFFFFFFFFFF AND DUP2 MSTORE PUSH1 0x20 ADD SWAP1 DUP2 MSTORE PUSH1 0x20 ADD PUSH0 KECCAK256 PUSH0 PUSH2 0x100 EXP DUP2 SLOAD DUP2 PUSH1 0xFF MUL NOT AND SWAP1 DUP4 ISZERO ISZERO MUL OR SWAP1 SSTORE POP PUSH1 0x40 MLOAD DUP1 PUSH1 0x60 ADD PUSH1 0x40 MSTORE DUP1 DUP8 DUP8 DUP1 DUP1 PUSH1 0x1F ADD PUSH1 0x20 DUP1 SWAP2 DIV MUL PUSH1 0x20 ADD PUSH1 0x40 MLOAD SWAP1 DUP2 ADD PUSH1 0x40 MSTORE DUP1 SWAP4 SWAP3 SWAP2 SWAP1 DUP2 DUP2 MSTORE PUSH1 0x20 ADD DUP4 DUP4 DUP1 DUP3 DUP5 CALLDATACOPY PUSH0 DUP2 DUP5 ADD MSTORE PUSH1 0x1F NOT PUSH1 0x1F DUP3 ADD AND SWAP1 POP DUP1 DUP4 ADD SWAP3 POP POP POP POP POP POP POP DUP2 MSTORE PUSH1 0x20 ADD DUP6 DUP6 DUP1 DUP1 PUSH1 0x1F ADD PUSH1 0x20 DUP1 SWAP2 DIV MUL PUSH1 0x20 ADD PUSH1 0x40 MLOAD SWAP1 DUP2 ADD PUSH1 0x40 MSTORE DUP1 SWAP4 SWAP3 SWAP2 SWAP1 DUP2 DUP2 MSTORE PUSH1 0x20 ADD DUP4 DUP4 DUP1 DUP3 DUP5 CALLDATACOPY PUSH0 DUP2 DUP5 ADD MSTORE PUSH1 0x1F NOT PUSH1 0x1F DUP3 ADD AND SWAP1 POP DUP1 DUP4 ADD SWAP3 POP POP POP POP POP POP POP DUP2 MSTORE PUSH1 0x20 ADD DUP4 DUP4 DUP1 DUP1 PUSH1 0x1F ADD PUSH1 0x20 DUP1 SWAP2 DIV MUL PUSH1 0x20 ADD PUSH1 0x40 MLOAD SWAP1 DUP2 ADD PUSH1 0x40 MSTORE DUP1 SWAP4 SWAP3 SWAP2 SWAP1 DUP2 DUP2 MSTORE PUSH1 0x20 ADD DUP4 DUP4 DUP1 DUP3 DUP5 CALLDATACOPY PUSH0 DUP2 DUP5 ADD MSTORE PUSH1 0x1F NOT PUSH1 0x1F DUP3 ADD AND SWAP1 POP DUP1 DUP4 ADD SWAP3 POP POP POP POP POP POP POP DUP2 MSTORE POP PUSH1 0x1 PUSH0 CALLER PUSH20 0xFFFFFFFFFFFFFFFFFFFFFFFFFFFFFFFFFFFFFFFF AND PUSH20 0xFFFFFFFFFFFFFFFFFFFFFFFFFFFFFFFFFFFFFFFF AND DUP2 MSTORE PUSH1 0x20 ADD SWAP1 DUP2 MSTORE PUSH1 0x20 ADD PUSH0 KECCAK256 PUSH0 DUP3 ADD MLOAD DUP2 PUSH0 ADD SWAP1 DUP2 PUSH2 0x12D1 SWAP2 SWAP1 PUSH2 0x4B0B JUMP JUMPDEST POP PUSH1 0x20 DUP3 ADD MLOAD DUP2 PUSH1 0x1 ADD SWAP1 DUP2 PUSH2 0x12E7 SWAP2 SWAP1 PUSH2 0x4B0B JUMP JUMPDEST POP PUSH1 0x40 DUP3 ADD MLOAD DUP2 PUSH1 0x2 ADD SWAP1 DUP2 PUSH2 0x12FD SWAP2 SWAP1 PUSH2 0x4B0B JUMP JUMPDEST POP SWAP1 POP POP PUSH32 0x42558426A946AB6E527D7F548E7BD3E34C2A7DDDE555007464CDFBB5F58665F8 CALLER DUP8 DUP8 PUSH1 0x40 MLOAD PUSH2 0x1334 SWAP4 SWAP3 SWAP2 SWAP1 PUSH2 0x4E91 JUMP JUMPDEST PUSH1 0x40 MLOAD DUP1 SWAP2 SUB SWAP1 LOG1 POP POP POP POP POP POP JUMP JUMPDEST PUSH1 0xF PUSH1 0x20 MSTORE DUP1 PUSH0 MSTORE PUSH1 0x40 PUSH0 KECCAK256 PUSH0 SWAP2 POP SLOAD SWAP1 PUSH2 0x100 EXP SWAP1 DIV PUSH1 0xFF AND DUP2 JUMP JUMPDEST PUSH1 0x4 PUSH1 0x20 MSTORE DUP1 PUSH0 MSTORE PUSH1 0x40 PUSH0 KECCAK256 PUSH0 SWAP2 POP SLOAD SWAP1 PUSH2 0x100 EXP SWAP1 DIV PUSH1 0xFF AND DUP2 JUMP JUMPDEST PUSH0 PUSH1 0x20 MSTORE DUP1 PUSH0 MSTORE PUSH1 0x40 PUSH0 KECCAK256 PUSH0 SWAP2 POP SLOAD SWAP1 PUSH2 0x100 EXP SWAP1 DIV PUSH1 0xFF AND DUP2 JUMP JUMPDEST PUSH1 0x10 PUSH1 0x20 MSTORE DUP1 PUSH0 MSTORE PUSH1 0x40 PUSH0 KECCAK256 PUSH0 SWAP2 POP SWAP1 POP DUP1 PUSH0 ADD DUP1 SLOAD PUSH2 0x13B9 SWAP1 PUSH2 0x483E JUMP JUMPDEST DUP1 PUSH1 0x1F ADD PUSH1 0x20 DUP1 SWAP2 DIV MUL PUSH1 0x20 ADD PUSH1 0x40 MLOAD SWAP1 DUP2 ADD PUSH1 0x40 MSTORE DUP1 SWAP3 SWAP2 SWAP1 DUP2 DUP2 MSTORE PUSH1 0x20 ADD DUP3 DUP1 SLOAD PUSH2 0x13E5 SWAP1 PUSH2 0x483E JUMP JUMPDEST DUP1 ISZERO PUSH2 0x1430 JUMPI DUP1 PUSH1 0x1F LT PUSH2 0x1407 JUMPI PUSH2 0x100 DUP1 DUP4 SLOAD DIV MUL DUP4 MSTORE SWAP2 PUSH1 0x20 ADD SWAP2 PUSH2 0x1430 JUMP JUMPDEST DUP3 ADD SWAP2 SWAP1 PUSH0 MSTORE PUSH1 0x20 PUSH0 KECCAK256 SWAP1 JUMPDEST DUP2 SLOAD DUP2 MSTORE SWAP1 PUSH1 0x1 ADD SWAP1 PUSH1 0x20 ADD DUP1 DUP4 GT PUSH2 0x1413 JUMPI DUP3 SWAP1 SUB PUSH1 0x1F AND DUP3 ADD SWAP2 JUMPDEST POP POP POP POP POP SWAP1 DUP1 PUSH1 0x1 ADD DUP1 SLOAD PUSH2 0x1445 SWAP1 PUSH2 0x483E JUMP JUMPDEST DUP1 PUSH1 0x1F ADD PUSH1 0x20 DUP1 SWAP2 DIV MUL PUSH1 0x20 ADD PUSH1 0x40 MLOAD SWAP1 DUP2 ADD PUSH1 0x40 MSTORE DUP1 SWAP3 SWAP2 SWAP1 DUP2 DUP2 MSTORE PUSH1 0x20 ADD DUP3 DUP1 SLOAD PUSH2 0x1471 SWAP1 PUSH2 0x483E JUMP JUMPDEST DUP1 ISZERO PUSH2 0x14BC JUMPI DUP1 PUSH1 0x1F LT PUSH2 0x1493 JUMPI PUSH2 0x100 DUP1 DUP4 SLOAD DIV MUL DUP4 MSTORE SWAP2 PUSH1 0x20 ADD SWAP2 PUSH2 0x14BC JUMP JUMPDEST DUP3 ADD SWAP2 SWAP1 PUSH0 MSTORE PUSH1 0x20 PUSH0 KECCAK256 SWAP1 JUMPDEST DUP2 SLOAD DUP2 MSTORE SWAP1 PUSH1 0x1 ADD SWAP1 PUSH1 0x20 ADD DUP1 DUP4 GT PUSH2 0x149F JUMPI DUP3 SWAP1 SUB PUSH1 0x1F AND DUP3 ADD SWAP2 JUMPDEST POP POP POP POP POP SWAP1 DUP1 PUSH1 0x2 ADD DUP1 SLOAD PUSH2 0x14D1 SWAP1 PUSH2 0x483E JUMP JUMPDEST DUP1 PUSH1 0x1F ADD PUSH1 0x20 DUP1 SWAP2 DIV MUL PUSH1 0x20 ADD PUSH1 0x40 MLOAD SWAP1 DUP2 ADD PUSH1 0x40 MSTORE DUP1 SWAP3 SWAP2 SWAP1 DUP2 DUP2 MSTORE PUSH1 0x20 ADD DUP3 DUP1 SLOAD PUSH2 0x14FD SWAP1 PUSH2 0x483E JUMP JUMPDEST DUP1 ISZERO PUSH2 0x1548 JUMPI DUP1 PUSH1 0x1F LT PUSH2 0x151F JUMPI PUSH2 0x100 DUP1 DUP4 SLOAD DIV MUL DUP4 MSTORE SWAP2 PUSH1 0x20 ADD SWAP2 PUSH2 0x1548 JUMP JUMPDEST DUP3 ADD SWAP2 SWAP1 PUSH0 MSTORE PUSH1 0x20 PUSH0 KECCAK256 SWAP1 JUMPDEST DUP2 SLOAD DUP2 MSTORE SWAP1 PUSH1 0x1 ADD SWAP1 PUSH1 0x20 ADD DUP1 DUP4 GT PUSH2 0x152B JUMPI DUP3 SWAP1 SUB PUSH1 0x1F AND DUP3 ADD SWAP2 JUMPDEST POP POP POP POP POP SWAP1 POP DUP4 JUMP JUMPDEST PUSH1 0xC PUSH0 CALLER PUSH20 0xFFFFFFFFFFFFFFFFFFFFFFFFFFFFFFFFFFFFFFFF AND PUSH20 0xFFFFFFFFFFFFFFFFFFFFFFFFFFFFFFFFFFFFFFFF AND DUP2 MSTORE PUSH1 0x20 ADD SWAP1 DUP2 MSTORE PUSH1 0x20 ADD PUSH0 KECCAK256 PUSH0 SWAP1 SLOAD SWAP1 PUSH2 0x100 EXP SWAP1 DIV PUSH1 0xFF AND ISZERO PUSH2 0x15DC JUMPI PUSH1 0x40 MLOAD PUSH32 0x8C379A000000000000000000000000000000000000000000000000000000000 DUP2 MSTORE PUSH1 0x4 ADD PUSH2 0x15D3 SWAP1 PUSH2 0x4E73 JUMP JUMPDEST PUSH1 0x40 MLOAD DUP1 SWAP2 SUB SWAP1 REVERT JUMPDEST PUSH1 0x1 PUSH1 0xC PUSH0 CALLER PUSH20 0xFFFFFFFFFFFFFFFFFFFFFFFFFFFFFFFFFFFFFFFF AND PUSH20 0xFFFFFFFFFFFFFFFFFFFFFFFFFFFFFFFFFFFFFFFF AND DUP2 MSTORE PUSH1 0x20 ADD SWAP1 DUP2 MSTORE PUSH1 0x20 ADD PUSH0 KECCAK256 PUSH0 PUSH2 0x100 EXP DUP2 SLOAD DUP2 PUSH1 0xFF MUL NOT AND SWAP1 DUP4 ISZERO ISZERO MUL OR SWAP1 SSTORE POP PUSH1 0x40 MLOAD DUP1 PUSH1 0x60 ADD PUSH1 0x40 MSTORE DUP1 DUP8 DUP8 DUP1 DUP1 PUSH1 0x1F ADD PUSH1 0x20 DUP1 SWAP2 DIV MUL PUSH1 0x20 ADD PUSH1 0x40 MLOAD SWAP1 DUP2 ADD PUSH1 0x40 MSTORE DUP1 SWAP4 SWAP3 SWAP2 SWAP1 DUP2 DUP2 MSTORE PUSH1 0x20 ADD DUP4 DUP4 DUP1 DUP3 DUP5 CALLDATACOPY PUSH0 DUP2 DUP5 ADD MSTORE PUSH1 0x1F NOT PUSH1 0x1F DUP3 ADD AND SWAP1 POP DUP1 DUP4 ADD SWAP3 POP POP POP POP POP POP POP DUP2 MSTORE PUSH1 0x20 ADD DUP6 DUP6 DUP1 DUP1 PUSH1 0x1F ADD PUSH1 0x20 DUP1 SWAP2 DIV MUL PUSH1 0x20 ADD PUSH1 0x40 MLOAD SWAP1 DUP2 ADD PUSH1 0x40 MSTORE DUP1 SWAP4 SWAP3 SWAP2 SWAP1 DUP2 DUP2 MSTORE PUSH1 0x20 ADD DUP4 DUP4 DUP1 DUP3 DUP5 CALLDATACOPY PUSH0 DUP2 DUP5 ADD MSTORE PUSH1 0x1F NOT PUSH1 0x1F DUP3 ADD AND SWAP1 POP DUP1 DUP4 ADD SWAP3 POP POP POP POP POP POP POP DUP2 MSTORE PUSH1 0x20 ADD DUP4 DUP4 DUP1 DUP1 PUSH1 0x1F ADD PUSH1 0x20 DUP1 SWAP2 DIV MUL PUSH1 0x20 ADD PUSH1 0x40 MLOAD SWAP1 DUP2 ADD PUSH1 0x40 MSTORE DUP1 SWAP4 SWAP3 SWAP2 SWAP1 DUP2 DUP2 MSTORE PUSH1 0x20 ADD DUP4 DUP4 DUP1 DUP3 DUP5 CALLDATACOPY PUSH0 DUP2 DUP5 ADD MSTORE PUSH1 0x1F NOT PUSH1 0x1F DUP3 ADD AND SWAP1 POP DUP1 DUP4 ADD SWAP3 POP POP POP POP POP POP POP DUP2 MSTORE POP PUSH1 0xD PUSH0 CALLER PUSH20 0xFFFFFFFFFFFFFFFFFFFFFFFFFFFFFFFFFFFFFFFF AND PUSH20 0xFFFFFFFFFFFFFFFFFFFFFFFFFFFFFFFFFFFFFFFF AND DUP2 MSTORE PUSH1 0x20 ADD SWAP1 DUP2 MSTORE PUSH1 0x20 ADD PUSH0 KECCAK256 PUSH0 DUP3 ADD MLOAD DUP2 PUSH0 ADD SWAP1 DUP2 PUSH2 0x1765 SWAP2 SWAP1 PUSH2 0x4B0B JUMP JUMPDEST POP PUSH1 0x20 DUP3 ADD MLOAD DUP2 PUSH1 0x1 ADD SWAP1 DUP2 PUSH2 0x177B SWAP2 SWAP1 PUSH2 0x4B0B JUMP JUMPDEST POP PUSH1 0x40 DUP3 ADD MLOAD DUP2 PUSH1 0x2 ADD SWAP1 DUP2 PUSH2 0x1791 SWAP2 SWAP1 PUSH2 0x4B0B JUMP JUMPDEST POP SWAP1 POP POP PUSH32 0xC6B3A3CB893680BAEF98E6F2F73E2F33A36A14EAEA0BA521451D6547BA362B62 CALLER DUP8 DUP8 PUSH1 0x40 MLOAD PUSH2 0x17C8 SWAP4 SWAP3 SWAP2 SWAP1 PUSH2 0x4E91 JUMP JUMPDEST PUSH1 0x40 MLOAD DUP1 SWAP2 SUB SWAP1 LOG1 POP POP POP POP POP POP JUMP JUMPDEST PUSH0 PUSH0 PUSH0 PUSH0 PUSH0 PUSH1 0x13 PUSH0 DUP8 DUP2 MSTORE PUSH1 0x20 ADD SWAP1 DUP2 MSTORE PUSH1 0x20 ADD PUSH0 KECCAK256 SWAP1 POP DUP1 PUSH0 ADD SLOAD DUP2 PUSH1 0x1 ADD SLOAD DUP3 PUSH1 0x2 ADD SLOAD DUP4 PUSH1 0x3 ADD SLOAD SWAP5 POP SWAP5 POP SWAP5 POP SWAP5 POP POP SWAP2 SWAP4 POP SWAP2 SWAP4 JUMP JUMPDEST PUSH1 0xC PUSH0 CALLER PUSH20 0xFFFFFFFFFFFFFFFFFFFFFFFFFFFFFFFFFFFFFFFF AND PUSH20 0xFFFFFFFFFFFFFFFFFFFFFFFFFFFFFFFFFFFFFFFF AND DUP2 MSTORE PUSH1 0x20 ADD SWAP1 DUP2 MSTORE PUSH1 0x20 ADD PUSH0 KECCAK256 PUSH0 SWAP1 SLOAD SWAP1 PUSH2 0x100 EXP SWAP1 DIV PUSH1 0xFF AND PUSH2 0x189C JUMPI PUSH1 0x40 MLOAD PUSH32 0x8C379A000000000000000000000000000000000000000000000000000000000 DUP2 MSTORE PUSH1 0x4 ADD PUSH2 0x1893 SWAP1 PUSH2 0x4F0B JUMP JUMPDEST PUSH1 0x40 MLOAD DUP1 SWAP2 SUB SWAP1 REVERT JUMPDEST CALLER PUSH20 0xFFFFFFFFFFFFFFFFFFFFFFFFFFFFFFFFFFFFFFFF AND PUSH1 0xE PUSH0 DUP7 DUP2 MSTORE PUSH1 0x20 ADD SWAP1 DUP2 MSTORE PUSH1 0x20 ADD PUSH0 KECCAK256 PUSH1 0x4 ADD PUSH0 SWAP1 SLOAD SWAP1 PUSH2 0x100 EXP SWAP1 DIV PUSH20 0xFFFFFFFFFFFFFFFFFFFFFFFFFFFFFFFFFFFFFFFF AND PUSH20 0xFFFFFFFFFFFFFFFFFFFFFFFFFFFFFFFFFFFFFFFF AND EQ PUSH2 0x193D JUMPI PUSH1 0x40 MLOAD PUSH32 0x8C379A000000000000000000000000000000000000000000000000000000000 DUP2 MSTORE PUSH1 0x4 ADD PUSH2 0x1934 SWAP1 PUSH2 0x4F73 JUMP JUMPDEST PUSH1 0x40 MLOAD DUP1 SWAP2 SUB SWAP1 REVERT JUMPDEST DUP3 PUSH1 0xE PUSH0 DUP7 DUP2 MSTORE PUSH1 0x20 ADD SWAP1 DUP2 MSTORE PUSH1 0x20 ADD PUSH0 KECCAK256 PUSH1 0x4 ADD PUSH0 PUSH2 0x100 EXP DUP2 SLOAD DUP2 PUSH20 0xFFFFFFFFFFFFFFFFFFFFFFFFFFFFFFFFFFFFFFFF MUL NOT AND SWAP1 DUP4 PUSH20 0xFFFFFFFFFFFFFFFFFFFFFFFFFFFFFFFFFFFFFFFF AND MUL OR SWAP1 SSTORE POP DUP2 DUP2 PUSH1 0xE PUSH0 DUP8 DUP2 MSTORE PUSH1 0x20 ADD SWAP1 DUP2 MSTORE PUSH1 0x20 ADD PUSH0 KECCAK256 PUSH1 0x3 ADD SWAP2 DUP3 PUSH2 0x19B2 SWAP3 SWAP2 SWAP1 PUSH2 0x4D2C JUMP JUMPDEST POP PUSH32 0x2666D7B1655588ADC2208A66DD88260CFD5B9C5C38AECF90E5170371CFA4F19 DUP5 DUP5 PUSH1 0x40 MLOAD PUSH2 0x19E4 SWAP3 SWAP2 SWAP1 PUSH2 0x4F91 JUMP JUMPDEST PUSH1 0x40 MLOAD DUP1 SWAP2 SUB SWAP1 LOG1 POP POP POP POP JUMP JUMPDEST PUSH1 0xF PUSH0 CALLER PUSH20 0xFFFFFFFFFFFFFFFFFFFFFFFFFFFFFFFFFFFFFFFF AND PUSH20 0xFFFFFFFFFFFFFFFFFFFFFFFFFFFFFFFFFFFFFFFF AND DUP2 MSTORE PUSH1 0x20 ADD SWAP1 DUP2 MSTORE PUSH1 0x20 ADD PUSH0 KECCAK256 PUSH0 SWAP1 SLOAD SWAP1 PUSH2 0x100 EXP SWAP1 DIV PUSH1 0xFF AND PUSH2 0x1A7B JUMPI PUSH1 0x40 MLOAD PUSH32 0x8C379A000000000000000000000000000000000000000000000000000000000 DUP2 MSTORE PUSH1 0x4 ADD PUSH2 0x1A72 SWAP1 PUSH2 0x5002 JUMP JUMPDEST PUSH1 0x40 MLOAD DUP1 SWAP2 SUB SWAP1 REVERT JUMPDEST PUSH1 0x40 MLOAD DUP1 PUSH1 0xA0 ADD PUSH1 0x40 MSTORE DUP1 DUP8 DUP2 MSTORE PUSH1 0x20 ADD DUP7 ISZERO ISZERO DUP2 MSTORE PUSH1 0x20 ADD DUP6 DUP6 DUP1 DUP1 PUSH1 0x1F ADD PUSH1 0x20 DUP1 SWAP2 DIV MUL PUSH1 0x20 ADD PUSH1 0x40 MLOAD SWAP1 DUP2 ADD PUSH1 0x40 MSTORE DUP1 SWAP4 SWAP3 SWAP2 SWAP1 DUP2 DUP2 MSTORE PUSH1 0x20 ADD DUP4 DUP4 DUP1 DUP3 DUP5 CALLDATACOPY PUSH0 DUP2 DUP5 ADD MSTORE PUSH1 0x1F NOT PUSH1 0x1F DUP3 ADD AND SWAP1 POP DUP1 DUP4 ADD SWAP3 POP POP POP POP POP POP POP DUP2 MSTORE PUSH1 0x20 ADD DUP4 DUP4 DUP1 DUP1 PUSH1 0x1F ADD PUSH1 0x20 DUP1 SWAP2 DIV MUL PUSH1 0x20 ADD PUSH1 0x40 MLOAD SWAP1 DUP2 ADD PUSH1 0x40 MSTORE DUP1 SWAP4 SWAP3 SWAP2 SWAP1 DUP2 DUP2 MSTORE PUSH1 0x20 ADD DUP4 DUP4 DUP1 DUP3 DUP5 CALLDATACOPY PUSH0 DUP2 DUP5 ADD MSTORE PUSH1 0x1F NOT PUSH1 0x1F DUP3 ADD AND SWAP1 POP DUP1 DUP4 ADD SWAP3 POP POP POP POP POP POP POP DUP2 MSTORE PUSH1 0x20 ADD CALLER PUSH20 0xFFFFFFFFFFFFFFFFFFFFFFFFFFFFFFFFFFFFFFFF AND DUP2 MSTORE POP PUSH1 0x11 PUSH0 DUP9 DUP2 MSTORE PUSH1 0x20 ADD SWAP1 DUP2 MSTORE PUSH1 0x20 ADD PUSH0 KECCAK256 PUSH0 DUP3 ADD MLOAD DUP2 PUSH0 ADD SSTORE PUSH1 0x20 DUP3 ADD MLOAD DUP2 PUSH1 0x1 ADD PUSH0 PUSH2 0x100 EXP DUP2 SLOAD DUP2 PUSH1 0xFF MUL NOT AND SWAP1 DUP4 ISZERO ISZERO MUL OR SWAP1 SSTORE POP PUSH1 0x40 DUP3 ADD MLOAD DUP2 PUSH1 0x2 ADD SWAP1 DUP2 PUSH2 0x1B8D SWAP2 SWAP1 PUSH2 0x4B0B JUMP JUMPDEST POP PUSH1 0x60 DUP3 ADD MLOAD DUP2 PUSH1 0x3 ADD SWAP1 DUP2 PUSH2 0x1BA3 SWAP2 SWAP1 PUSH2 0x4B0B JUMP JUMPDEST POP PUSH1 0x80 DUP3 ADD MLOAD DUP2 PUSH1 0x4 ADD PUSH0 PUSH2 0x100 EXP DUP2 SLOAD DUP2 PUSH20 0xFFFFFFFFFFFFFFFFFFFFFFFFFFFFFFFFFFFFFFFF MUL NOT AND SWAP1 DUP4 PUSH20 0xFFFFFFFFFFFFFFFFFFFFFFFFFFFFFFFFFFFFFFFF AND MUL OR SWAP1 SSTORE POP SWAP1 POP POP PUSH32 0x9712BB7E105B124F0CC3F0585E06A1950DE77A678EBAEC3506656B363733EB5E DUP7 CALLER PUSH1 0x40 MLOAD PUSH2 0x1C1E SWAP3 SWAP2 SWAP1 PUSH2 0x4F91 JUMP JUMPDEST PUSH1 0x40 MLOAD DUP1 SWAP2 SUB SWAP1 LOG1 POP POP POP POP POP POP JUMP JUMPDEST PUSH1 0xC PUSH0 CALLER PUSH20 0xFFFFFFFFFFFFFFFFFFFFFFFFFFFFFFFFFFFFFFFF AND PUSH20 0xFFFFFFFFFFFFFFFFFFFFFFFFFFFFFFFFFFFFFFFF AND DUP2 MSTORE PUSH1 0x20 ADD SWAP1 DUP2 MSTORE PUSH1 0x20 ADD PUSH0 KECCAK256 PUSH0 SWAP1 SLOAD SWAP1 PUSH2 0x100 EXP SWAP1 DIV PUSH1 0xFF AND PUSH2 0x1CB7 JUMPI PUSH1 0x40 MLOAD PUSH32 0x8C379A000000000000000000000000000000000000000000000000000000000 DUP2 MSTORE PUSH1 0x4 ADD PUSH2 0x1CAE SWAP1 PUSH2 0x4F0B JUMP JUMPDEST PUSH1 0x40 MLOAD DUP1 SWAP2 SUB SWAP1 REVERT JUMPDEST PUSH1 0x40 MLOAD DUP1 PUSH1 0xA0 ADD PUSH1 0x40 MSTORE DUP1 DUP6 DUP2 MSTORE PUSH1 0x20 ADD DUP5 DUP2 MSTORE PUSH1 0x20 ADD DUP4 DUP4 DUP1 DUP1 PUSH1 0x1F ADD PUSH1 0x20 DUP1 SWAP2 DIV MUL PUSH1 0x20 ADD PUSH1 0x40 MLOAD SWAP1 DUP2 ADD PUSH1 0x40 MSTORE DUP1 SWAP4 SWAP3 SWAP2 SWAP1 DUP2 DUP2 MSTORE PUSH1 0x20 ADD DUP4 DUP4 DUP1 DUP3 DUP5 CALLDATACOPY PUSH0 DUP2 DUP5 ADD MSTORE PUSH1 0x1F NOT PUSH1 0x1F DUP3 ADD AND SWAP1 POP DUP1 DUP4 ADD SWAP3 POP POP POP POP POP POP POP DUP2 MSTORE PUSH1 0x20 ADD PUSH1 0x40 MLOAD DUP1 PUSH1 0x20 ADD PUSH1 0x40 MSTORE DUP1 PUSH0 DUP2 MSTORE POP DUP2 MSTORE PUSH1 0x20 ADD CALLER PUSH20 0xFFFFFFFFFFFFFFFFFFFFFFFFFFFFFFFFFFFFFFFF AND DUP2 MSTORE POP PUSH1 0xE PUSH0 DUP7 DUP2 MSTORE PUSH1 0x20 ADD SWAP1 DUP2 MSTORE PUSH1 0x20 ADD PUSH0 KECCAK256 PUSH0 DUP3 ADD MLOAD DUP2 PUSH0 ADD SSTORE PUSH1 0x20 DUP3 ADD MLOAD DUP2 PUSH1 0x1 ADD SSTORE PUSH1 0x40 DUP3 ADD MLOAD DUP2 PUSH1 0x2 ADD SWAP1 DUP2 PUSH2 0x1D7D SWAP2 SWAP1 PUSH2 0x4B0B JUMP JUMPDEST POP PUSH1 0x60 DUP3 ADD MLOAD DUP2 PUSH1 0x3 ADD SWAP1 DUP2 PUSH2 0x1D93 SWAP2 SWAP1 PUSH2 0x4B0B JUMP JUMPDEST POP PUSH1 0x80 DUP3 ADD MLOAD DUP2 PUSH1 0x4 ADD PUSH0 PUSH2 0x100 EXP DUP2 SLOAD DUP2 PUSH20 0xFFFFFFFFFFFFFFFFFFFFFFFFFFFFFFFFFFFFFFFF MUL NOT AND SWAP1 DUP4 PUSH20 0xFFFFFFFFFFFFFFFFFFFFFFFFFFFFFFFFFFFFFFFF AND MUL OR SWAP1 SSTORE POP SWAP1 POP POP PUSH32 0xDCE449D7850CA6BEF609273E8C07C207F37E3DF3D879CD8B431342EB623D20FE DUP5 CALLER PUSH1 0x40 MLOAD PUSH2 0x1E0E SWAP3 SWAP2 SWAP1 PUSH2 0x4F91 JUMP JUMPDEST PUSH1 0x40 MLOAD DUP1 SWAP2 SUB SWAP1 LOG1 POP POP POP POP JUMP JUMPDEST PUSH1 0x13 PUSH1 0x20 MSTORE DUP1 PUSH0 MSTORE PUSH1 0x40 PUSH0 KECCAK256 PUSH0 SWAP2 POP SWAP1 POP DUP1 PUSH0 ADD SLOAD SWAP1 DUP1 PUSH1 0x1 ADD SLOAD SWAP1 DUP1 PUSH1 0x2 ADD SLOAD SWAP1 DUP1 PUSH1 0x3 ADD SLOAD SWAP1 POP DUP5 JUMP JUMPDEST PUSH1 0x6 PUSH0 CALLER PUSH20 0xFFFFFFFFFFFFFFFFFFFFFFFFFFFFFFFFFFFFFFFF AND PUSH20 0xFFFFFFFFFFFFFFFFFFFFFFFFFFFFFFFFFFFFFFFF AND DUP2 MSTORE PUSH1 0x20 ADD SWAP1 DUP2 MSTORE PUSH1 0x20 ADD PUSH0 KECCAK256 PUSH0 SWAP1 SLOAD SWAP1 PUSH2 0x100 EXP SWAP1 DIV PUSH1 0xFF AND PUSH2 0x1ED1 JUMPI PUSH1 0x40 MLOAD PUSH32 0x8C379A000000000000000000000000000000000000000000000000000000000 DUP2 MSTORE PUSH1 0x4 ADD PUSH2 0x1EC8 SWAP1 PUSH2 0x506A JUMP JUMPDEST PUSH1 0x40 MLOAD DUP1 SWAP2 SUB SWAP1 REVERT JUMPDEST CALLER PUSH20 0xFFFFFFFFFFFFFFFFFFFFFFFFFFFFFFFFFFFFFFFF AND PUSH1 0x8 PUSH0 DUP7 DUP2 MSTORE PUSH1 0x20 ADD SWAP1 DUP2 MSTORE PUSH1 0x20 ADD PUSH0 KECCAK256 PUSH1 0x4 ADD PUSH0 SWAP1 SLOAD SWAP1 PUSH2 0x100 EXP SWAP1 DIV PUSH20 0xFFFFFFFFFFFFFFFFFFFFFFFFFFFFFFFFFFFFFFFF AND PUSH20 0xFFFFFFFFFFFFFFFFFFFFFFFFFFFFFFFFFFFFFFFF AND EQ PUSH2 0x1F72 JUMPI PUSH1 0x40 MLOAD PUSH32 0x8C379A000000000000000000000000000000000000000000000000000000000 DUP2 MSTORE PUSH1 0x4 ADD PUSH2 0x1F69 SWAP1 PUSH2 0x4F73 JUMP JUMPDEST PUSH1 0x40 MLOAD DUP1 SWAP2 SUB SWAP1 REVERT JUMPDEST DUP3 PUSH1 0x8 PUSH0 DUP7 DUP2 MSTORE PUSH1 0x20 ADD SWAP1 DUP2 MSTORE PUSH1 0x20 ADD PUSH0 KECCAK256 PUSH1 0x4 ADD PUSH0 PUSH2 0x100 EXP DUP2 SLOAD DUP2 PUSH20 0xFFFFFFFFFFFFFFFFFFFFFFFFFFFFFFFFFFFFFFFF MUL NOT AND SWAP1 DUP4 PUSH20 0xFFFFFFFFFFFFFFFFFFFFFFFFFFFFFFFFFFFFFFFF AND MUL OR SWAP1 SSTORE POP DUP2 DUP2 PUSH1 0x8 PUSH0 DUP8 DUP2 MSTORE PUSH1 0x20 ADD SWAP1 DUP2 MSTORE PUSH1 0x20 ADD PUSH0 KECCAK256 PUSH1 0x3 ADD SWAP2 DUP3 PUSH2 0x1FE7 SWAP3 SWAP2 SWAP1 PUSH2 0x4D2C JUMP JUMPDEST POP PUSH32 0x49E75BCD87D6285773E5C15DB6C81BB4D20BD0F6498FABA00160E92B9C478654 DUP5 DUP5 PUSH1 0x40 MLOAD PUSH2 0x2019 SWAP3 SWAP2 SWAP1 PUSH2 0x4F91 JUMP JUMPDEST PUSH1 0x40 MLOAD DUP1 SWAP2 SUB SWAP1 LOG1 POP POP POP POP JUMP JUMPDEST PUSH1 0x9 PUSH0 CALLER PUSH20 0xFFFFFFFFFFFFFFFFFFFFFFFFFFFFFFFFFFFFFFFF AND PUSH20 0xFFFFFFFFFFFFFFFFFFFFFFFFFFFFFFFFFFFFFFFF AND DUP2 MSTORE PUSH1 0x20 ADD SWAP1 DUP2 MSTORE PUSH1 0x20 ADD PUSH0 KECCAK256 PUSH0 SWAP1 SLOAD SWAP1 PUSH2 0x100 EXP SWAP1 DIV PUSH1 0xFF AND PUSH2 0x20B0 JUMPI PUSH1 0x40 MLOAD PUSH32 0x8C379A000000000000000000000000000000000000000000000000000000000 DUP2 MSTORE PUSH1 0x4 ADD PUSH2 0x20A7 SWAP1 PUSH2 0x4C9C JUMP JUMPDEST PUSH1 0x40 MLOAD DUP1 SWAP2 SUB SWAP1 REVERT JUMPDEST PUSH1 0xB PUSH0 DUP6 DUP2 MSTORE PUSH1 0x20 ADD SWAP1 DUP2 MSTORE PUSH1 0x20 ADD PUSH0 KECCAK256 PUSH1 0x1 ADD PUSH0 SWAP1 SLOAD SWAP1 PUSH2 0x100 EXP SWAP1 DIV PUSH1 0xFF AND PUSH2 0x2110 JUMPI PUSH1 0x40 MLOAD PUSH32 0x8C379A000000000000000000000000000000000000000000000000000000000 DUP2 MSTORE PUSH1 0x4 ADD PUSH2 0x2107 SWAP1 PUSH2 0x4D04 JUMP JUMPDEST PUSH1 0x40 MLOAD DUP1 SWAP2 SUB SWAP1 REVERT JUMPDEST DUP3 PUSH1 0xB PUSH0 DUP7 DUP2 MSTORE PUSH1 0x20 ADD SWAP1 DUP2 MSTORE PUSH1 0x20 ADD PUSH0 KECCAK256 PUSH1 0x6 ADD PUSH0 PUSH2 0x100 EXP DUP2 SLOAD DUP2 PUSH20 0xFFFFFFFFFFFFFFFFFFFFFFFFFFFFFFFFFFFFFFFF MUL NOT AND SWAP1 DUP4 PUSH20 0xFFFFFFFFFFFFFFFFFFFFFFFFFFFFFFFFFFFFFFFF AND MUL OR SWAP1 SSTORE POP DUP2 DUP2 PUSH1 0xB PUSH0 DUP8 DUP2 MSTORE PUSH1 0x20 ADD SWAP1 DUP2 MSTORE PUSH1 0x20 ADD PUSH0 KECCAK256 PUSH1 0x5 ADD SWAP2 DUP3 PUSH2 0x2185 SWAP3 SWAP2 SWAP1 PUSH2 0x4D2C JUMP JUMPDEST POP PUSH32 0xEBFA8F41A2A15E0E89718BD17A4F728BD822D73550222A896EA5D3CFE2331ECC DUP5 DUP5 PUSH1 0x40 MLOAD PUSH2 0x21B7 SWAP3 SWAP2 SWAP1 PUSH2 0x4F91 JUMP JUMPDEST PUSH1 0x40 MLOAD DUP1 SWAP2 SUB SWAP1 LOG1 POP POP POP POP JUMP JUMPDEST PUSH0 PUSH0 PUSH0 CALLER PUSH20 0xFFFFFFFFFFFFFFFFFFFFFFFFFFFFFFFFFFFFFFFF AND PUSH20 0xFFFFFFFFFFFFFFFFFFFFFFFFFFFFFFFFFFFFFFFF AND DUP2 MSTORE PUSH1 0x20 ADD SWAP1 DUP2 MSTORE PUSH1 0x20 ADD PUSH0 KECCAK256 PUSH0 SWAP1 SLOAD SWAP1 PUSH2 0x100 EXP SWAP1 DIV PUSH1 0xFF AND PUSH2 0x224E JUMPI PUSH1 0x40 MLOAD PUSH32 0x8C379A000000000000000000000000000000000000000000000000000000000 DUP2 MSTORE PUSH1 0x4 ADD PUSH2 0x2245 SWAP1 PUSH2 0x48B8 JUMP JUMPDEST PUSH1 0x40 MLOAD DUP1 SWAP2 SUB SWAP1 REVERT JUMPDEST PUSH2 0x2257 DUP3 PUSH2 0x3DCC JUMP JUMPDEST SWAP1 POP SWAP2 SWAP1 POP JUMP JUMPDEST PUSH0 PUSH0 CALLER PUSH20 0xFFFFFFFFFFFFFFFFFFFFFFFFFFFFFFFFFFFFFFFF AND PUSH20 0xFFFFFFFFFFFFFFFFFFFFFFFFFFFFFFFFFFFFFFFF AND DUP2 MSTORE PUSH1 0x20 ADD SWAP1 DUP2 MSTORE PUSH1 0x20 ADD PUSH0 KECCAK256 PUSH0 SWAP1 SLOAD SWAP1 PUSH2 0x100 EXP SWAP1 DIV PUSH1 0xFF AND PUSH2 0x22E6 JUMPI PUSH1 0x40 MLOAD PUSH32 0x8C379A000000000000000000000000000000000000000000000000000000000 DUP2 MSTORE PUSH1 0x4 ADD PUSH2 0x22DD SWAP1 PUSH2 0x48B8 JUMP JUMPDEST PUSH1 0x40 MLOAD DUP1 SWAP2 SUB SWAP1 REVERT JUMPDEST PUSH1 0x4 PUSH0 DUP6 DUP2 MSTORE PUSH1 0x20 ADD SWAP1 DUP2 MSTORE PUSH1 0x20 ADD PUSH0 KECCAK256 PUSH0 SWAP1 SLOAD SWAP1 PUSH2 0x100 EXP SWAP1 DIV PUSH1 0xFF AND PUSH2 0x2343 JUMPI PUSH1 0x40 MLOAD PUSH32 0x8C379A000000000000000000000000000000000000000000000000000000000 DUP2 MSTORE PUSH1 0x4 ADD PUSH2 0x233A SWAP1 PUSH2 0x50D2 JUMP JUMPDEST PUSH1 0x40 MLOAD DUP1 SWAP2 SUB SWAP1 REVERT JUMPDEST CALLER PUSH20 0xFFFFFFFFFFFFFFFFFFFFFFFFFFFFFFFFFFFFFFFF AND PUSH1 0x2 PUSH0 DUP7 DUP2 MSTORE PUSH1 0x20 ADD SWAP1 DUP2 MSTORE PUSH1 0x20 ADD PUSH0 KECCAK256 PUSH1 0x5 ADD PUSH1 0x1 SWAP1 SLOAD SWAP1 PUSH2 0x100 EXP SWAP1 DIV PUSH20 0xFFFFFFFFFFFFFFFFFFFFFFFFFFFFFFFFFFFFFFFF AND PUSH20 0xFFFFFFFFFFFFFFFFFFFFFFFFFFFFFFFFFFFFFFFF AND EQ PUSH2 0x23E5 JUMPI PUSH1 0x40 MLOAD PUSH32 0x8C379A000000000000000000000000000000000000000000000000000000000 DUP2 MSTORE PUSH1 0x4 ADD PUSH2 0x23DC SWAP1 PUSH2 0x4F73 JUMP JUMPDEST PUSH1 0x40 MLOAD DUP1 SWAP2 SUB SWAP1 REVERT JUMPDEST DUP3 PUSH1 0x2 PUSH0 DUP7 DUP2 MSTORE PUSH1 0x20 ADD SWAP1 DUP2 MSTORE PUSH1 0x20 ADD PUSH0 KECCAK256 PUSH1 0x5 ADD PUSH1 0x1 PUSH2 0x100 EXP DUP2 SLOAD DUP2 PUSH20 0xFFFFFFFFFFFFFFFFFFFFFFFFFFFFFFFFFFFFFFFF MUL NOT AND SWAP1 DUP4 PUSH20 0xFFFFFFFFFFFFFFFFFFFFFFFFFFFFFFFFFFFFFFFF AND MUL OR SWAP1 SSTORE POP PUSH1 0x2 DUP1 PUSH0 DUP7 DUP2 MSTORE PUSH1 0x20 ADD SWAP1 DUP2 MSTORE PUSH1 0x20 ADD PUSH0 KECCAK256 PUSH1 0x5 ADD PUSH0 PUSH2 0x100 EXP DUP2 SLOAD DUP2 PUSH1 0xFF MUL NOT AND SWAP1 DUP4 PUSH1 0x6 DUP2 GT ISZERO PUSH2 0x246E JUMPI PUSH2 0x246D PUSH2 0x4607 JUMP JUMPDEST JUMPDEST MUL OR SWAP1 SSTORE POP DUP2 DUP2 PUSH1 0x2 PUSH0 DUP8 DUP2 MSTORE PUSH1 0x20 ADD SWAP1 DUP2 MSTORE PUSH1 0x20 ADD PUSH0 KECCAK256 PUSH1 0x6 ADD SWAP2 DUP3 PUSH2 0x2496 SWAP3 SWAP2 SWAP1 PUSH2 0x4D2C JUMP JUMPDEST POP PUSH32 0xDDD0A704FBE441F1FD23C0E39BFA7CDC43718CC3A6E329A80605132407F7B07A DUP5 DUP5 DUP5 DUP5 PUSH1 0x40 MLOAD PUSH2 0x24CC SWAP5 SWAP4 SWAP3 SWAP2 SWAP1 PUSH2 0x50F0 JUMP JUMPDEST PUSH1 0x40 MLOAD DUP1 SWAP2 SUB SWAP1 LOG1 POP POP POP POP JUMP JUMPDEST PUSH1 0x11 PUSH1 0x20 MSTORE DUP1 PUSH0 MSTORE PUSH1 0x40 PUSH0 KECCAK256 PUSH0 SWAP2 POP SWAP1 POP DUP1 PUSH0 ADD SLOAD SWAP1 DUP1 PUSH1 0x1 ADD PUSH0 SWAP1 SLOAD SWAP1 PUSH2 0x100 EXP SWAP1 DIV PUSH1 0xFF AND SWAP1 DUP1 PUSH1 0x2 ADD DUP1 SLOAD PUSH2 0x2511 SWAP1 PUSH2 0x483E JUMP JUMPDEST DUP1 PUSH1 0x1F ADD PUSH1 0x20 DUP1 SWAP2 DIV MUL PUSH1 0x20 ADD PUSH1 0x40 MLOAD SWAP1 DUP2 ADD PUSH1 0x40 MSTORE DUP1 SWAP3 SWAP2 SWAP1 DUP2 DUP2 MSTORE PUSH1 0x20 ADD DUP3 DUP1 SLOAD PUSH2 0x253D SWAP1 PUSH2 0x483E JUMP JUMPDEST DUP1 ISZERO PUSH2 0x2588 JUMPI DUP1 PUSH1 0x1F LT PUSH2 0x255F JUMPI PUSH2 0x100 DUP1 DUP4 SLOAD DIV MUL DUP4 MSTORE SWAP2 PUSH1 0x20 ADD SWAP2 PUSH2 0x2588 JUMP JUMPDEST DUP3 ADD SWAP2 SWAP1 PUSH0 MSTORE PUSH1 0x20 PUSH0 KECCAK256 SWAP1 JUMPDEST DUP2 SLOAD DUP2 MSTORE SWAP1 PUSH1 0x1 ADD SWAP1 PUSH1 0x20 ADD DUP1 DUP4 GT PUSH2 0x256B JUMPI DUP3 SWAP1 SUB PUSH1 0x1F AND DUP3 ADD SWAP2 JUMPDEST POP POP POP POP POP SWAP1 DUP1 PUSH1 0x3 ADD DUP1 SLOAD PUSH2 0x259D SWAP1 PUSH2 0x483E JUMP JUMPDEST DUP1 PUSH1 0x1F ADD PUSH1 0x20 DUP1 SWAP2 DIV MUL PUSH1 0x20 ADD PUSH1 0x40 MLOAD SWAP1 DUP2 ADD PUSH1 0x40 MSTORE DUP1 SWAP3 SWAP2 SWAP1 DUP2 DUP2 MSTORE PUSH1 0x20 ADD DUP3 DUP1 SLOAD PUSH2 0x25C9 SWAP1 PUSH2 0x483E JUMP JUMPDEST DUP1 ISZERO PUSH2 0x2614 JUMPI DUP1 PUSH1 0x1F LT PUSH2 0x25EB JUMPI PUSH2 0x100 DUP1 DUP4 SLOAD DIV MUL DUP4 MSTORE SWAP2 PUSH1 0x20 ADD SWAP2 PUSH2 0x2614 JUMP JUMPDEST DUP3 ADD SWAP2 SWAP1 PUSH0 MSTORE PUSH1 0x20 PUSH0 KECCAK256 SWAP1 JUMPDEST DUP2 SLOAD DUP2 MSTORE SWAP1 PUSH1 0x1 ADD SWAP1 PUSH1 0x20 ADD DUP1 DUP4 GT PUSH2 0x25F7 JUMPI DUP3 SWAP1 SUB PUSH1 0x1F AND DUP3 ADD SWAP2 JUMPDEST POP POP POP POP POP SWAP1 DUP1 PUSH1 0x4 ADD PUSH0 SWAP1 SLOAD SWAP1 PUSH2 0x100 EXP SWAP1 DIV PUSH20 0xFFFFFFFFFFFFFFFFFFFFFFFFFFFFFFFFFFFFFFFF AND SWAP1 POP DUP6 JUMP JUMPDEST PUSH1 0xA PUSH1 0x20 MSTORE DUP1 PUSH0 MSTORE PUSH1 0x40 PUSH0 KECCAK256 PUSH0 SWAP2 POP SWAP1 POP DUP1 PUSH0 ADD DUP1 SLOAD PUSH2 0x2662 SWAP1 PUSH2 0x483E JUMP JUMPDEST DUP1 PUSH1 0x1F ADD PUSH1 0x20 DUP1 SWAP2 DIV MUL PUSH1 0x20 ADD PUSH1 0x40 MLOAD SWAP1 DUP2 ADD PUSH1 0x40 MSTORE DUP1 SWAP3 SWAP2 SWAP1 DUP2 DUP2 MSTORE PUSH1 0x20 ADD DUP3 DUP1 SLOAD PUSH2 0x268E SWAP1 PUSH2 0x483E JUMP JUMPDEST DUP1 ISZERO PUSH2 0x26D9 JUMPI DUP1 PUSH1 0x1F LT PUSH2 0x26B0 JUMPI PUSH2 0x100 DUP1 DUP4 SLOAD DIV MUL DUP4 MSTORE SWAP2 PUSH1 0x20 ADD SWAP2 PUSH2 0x26D9 JUMP JUMPDEST DUP3 ADD SWAP2 SWAP1 PUSH0 MSTORE PUSH1 0x20 PUSH0 KECCAK256 SWAP1 JUMPDEST DUP2 SLOAD DUP2 MSTORE SWAP1 PUSH1 0x1 ADD SWAP1 PUSH1 0x20 ADD DUP1 DUP4 GT PUSH2 0x26BC JUMPI DUP3 SWAP1 SUB PUSH1 0x1F AND DUP3 ADD SWAP2 JUMPDEST POP POP POP POP POP SWAP1 DUP1 PUSH1 0x1 ADD DUP1 SLOAD PUSH2 0x26EE SWAP1 PUSH2 0x483E JUMP JUMPDEST DUP1 PUSH1 0x1F ADD PUSH1 0x20 DUP1 SWAP2 DIV MUL PUSH1 0x20 ADD PUSH1 0x40 MLOAD SWAP1 DUP2 ADD PUSH1 0x40 MSTORE DUP1 SWAP3 SWAP2 SWAP1 DUP2 DUP2 MSTORE PUSH1 0x20 ADD DUP3 DUP1 SLOAD PUSH2 0x271A SWAP1 PUSH2 0x483E JUMP JUMPDEST DUP1 ISZERO PUSH2 0x2765 JUMPI DUP1 PUSH1 0x1F LT PUSH2 0x273C JUMPI PUSH2 0x100 DUP1 DUP4 SLOAD DIV MUL DUP4 MSTORE SWAP2 PUSH1 0x20 ADD SWAP2 PUSH2 0x2765 JUMP JUMPDEST DUP3 ADD SWAP2 SWAP1 PUSH0 MSTORE PUSH1 0x20 PUSH0 KECCAK256 SWAP1 JUMPDEST DUP2 SLOAD DUP2 MSTORE SWAP1 PUSH1 0x1 ADD SWAP1 PUSH1 0x20 ADD DUP1 DUP4 GT PUSH2 0x2748 JUMPI DUP3 SWAP1 SUB PUSH1 0x1F AND DUP3 ADD SWAP2 JUMPDEST POP POP POP POP POP SWAP1 DUP1 PUSH1 0x2 ADD DUP1 SLOAD PUSH2 0x277A SWAP1 PUSH2 0x483E JUMP JUMPDEST DUP1 PUSH1 0x1F ADD PUSH1 0x20 DUP1 SWAP2 DIV MUL PUSH1 0x20 ADD PUSH1 0x40 MLOAD SWAP1 DUP2 ADD PUSH1 0x40 MSTORE DUP1 SWAP3 SWAP2 SWAP1 DUP2 DUP2 MSTORE PUSH1 0x20 ADD DUP3 DUP1 SLOAD PUSH2 0x27A6 SWAP1 PUSH2 0x483E JUMP JUMPDEST DUP1 ISZERO PUSH2 0x27F1 JUMPI DUP1 PUSH1 0x1F LT PUSH2 0x27C8 JUMPI PUSH2 0x100 DUP1 DUP4 SLOAD DIV MUL DUP4 MSTORE SWAP2 PUSH1 0x20 ADD SWAP2 PUSH2 0x27F1 JUMP JUMPDEST DUP3 ADD SWAP2 SWAP1 PUSH0 MSTORE PUSH1 0x20 PUSH0 KECCAK256 SWAP1 JUMPDEST DUP2 SLOAD DUP2 MSTORE SWAP1 PUSH1 0x1 ADD SWAP1 PUSH1 0x20 ADD DUP1 DUP4 GT PUSH2 0x27D4 JUMPI DUP3 SWAP1 SUB PUSH1 0x1F AND DUP3 ADD SWAP2 JUMPDEST POP POP POP POP POP SWAP1 POP DUP4 JUMP JUMPDEST PUSH1 0xE PUSH1 0x20 MSTORE DUP1 PUSH0 MSTORE PUSH1 0x40 PUSH0 KECCAK256 PUSH0 SWAP2 POP SWAP1 POP DUP1 PUSH0 ADD SLOAD SWAP1 DUP1 PUSH1 0x1 ADD SLOAD SWAP1 DUP1 PUSH1 0x2 ADD DUP1 SLOAD PUSH2 0x2826 SWAP1 PUSH2 0x483E JUMP JUMPDEST DUP1 PUSH1 0x1F ADD PUSH1 0x20 DUP1 SWAP2 DIV MUL PUSH1 0x20 ADD PUSH1 0x40 MLOAD SWAP1 DUP2 ADD PUSH1 0x40 MSTORE DUP1 SWAP3 SWAP2 SWAP1 DUP2 DUP2 MSTORE PUSH1 0x20 ADD DUP3 DUP1 SLOAD PUSH2 0x2852 SWAP1 PUSH2 0x483E JUMP JUMPDEST DUP1 ISZERO PUSH2 0x289D JUMPI DUP1 PUSH1 0x1F LT PUSH2 0x2874 JUMPI PUSH2 0x100 DUP1 DUP4 SLOAD DIV MUL DUP4 MSTORE SWAP2 PUSH1 0x20 ADD SWAP2 PUSH2 0x289D JUMP JUMPDEST DUP3 ADD SWAP2 SWAP1 PUSH0 MSTORE PUSH1 0x20 PUSH0 KECCAK256 SWAP1 JUMPDEST DUP2 SLOAD DUP2 MSTORE SWAP1 PUSH1 0x1 ADD SWAP1 PUSH1 0x20 ADD DUP1 DUP4 GT PUSH2 0x2880 JUMPI DUP3 SWAP1 SUB PUSH1 0x1F AND DUP3 ADD SWAP2 JUMPDEST POP POP POP POP POP SWAP1 DUP1 PUSH1 0x3 ADD DUP1 SLOAD PUSH2 0x28B2 SWAP1 PUSH2 0x483E JUMP JUMPDEST DUP1 PUSH1 0x1F ADD PUSH1 0x20 DUP1 SWAP2 DIV MUL PUSH1 0x20 ADD PUSH1 0x40 MLOAD SWAP1 DUP2 ADD PUSH1 0x40 MSTORE DUP1 SWAP3 SWAP2 SWAP1 DUP2 DUP2 MSTORE PUSH1 0x20 ADD DUP3 DUP1 SLOAD PUSH2 0x28DE SWAP1 PUSH2 0x483E JUMP JUMPDEST DUP1 ISZERO PUSH2 0x2929 JUMPI DUP1 PUSH1 0x1F LT PUSH2 0x2900 JUMPI PUSH2 0x100 DUP1 DUP4 SLOAD DIV MUL DUP4 MSTORE SWAP2 PUSH1 0x20 ADD SWAP2 PUSH2 0x2929 JUMP JUMPDEST DUP3 ADD SWAP2 SWAP1 PUSH0 MSTORE PUSH1 0x20 PUSH0 KECCAK256 SWAP1 JUMPDEST DUP2 SLOAD DUP2 MSTORE SWAP1 PUSH1 0x1 ADD SWAP1 PUSH1 0x20 ADD DUP1 DUP4 GT PUSH2 0x290C JUMPI DUP3 SWAP1 SUB PUSH1 0x1F AND DUP3 ADD SWAP2 JUMPDEST POP POP POP POP POP SWAP1 DUP1 PUSH1 0x4 ADD PUSH0 SWAP1 SLOAD SWAP1 PUSH2 0x100 EXP SWAP1 DIV PUSH20 0xFFFFFFFFFFFFFFFFFFFFFFFFFFFFFFFFFFFFFFFF AND SWAP1 POP DUP6 JUMP JUMPDEST PUSH1 0x12 PUSH0 SWAP1 SLOAD SWAP1 PUSH2 0x100 EXP SWAP1 DIV PUSH20 0xFFFFFFFFFFFFFFFFFFFFFFFFFFFFFFFFFFFFFFFF AND DUP2 JUMP JUMPDEST PUSH1 0x1 PUSH1 0x20 MSTORE DUP1 PUSH0 MSTORE PUSH1 0x40 PUSH0 KECCAK256 PUSH0 SWAP2 POP SWAP1 POP DUP1 PUSH0 ADD DUP1 SLOAD PUSH2 0x299C SWAP1 PUSH2 0x483E JUMP JUMPDEST DUP1 PUSH1 0x1F ADD PUSH1 0x20 DUP1 SWAP2 DIV MUL PUSH1 0x20 ADD PUSH1 0x40 MLOAD SWAP1 DUP2 ADD PUSH1 0x40 MSTORE DUP1 SWAP3 SWAP2 SWAP1 DUP2 DUP2 MSTORE PUSH1 0x20 ADD DUP3 DUP1 SLOAD PUSH2 0x29C8 SWAP1 PUSH2 0x483E JUMP JUMPDEST DUP1 ISZERO PUSH2 0x2A13 JUMPI DUP1 PUSH1 0x1F LT PUSH2 0x29EA JUMPI PUSH2 0x100 DUP1 DUP4 SLOAD DIV MUL DUP4 MSTORE SWAP2 PUSH1 0x20 ADD SWAP2 PUSH2 0x2A13 JUMP JUMPDEST DUP3 ADD SWAP2 SWAP1 PUSH0 MSTORE PUSH1 0x20 PUSH0 KECCAK256 SWAP1 JUMPDEST DUP2 SLOAD DUP2 MSTORE SWAP1 PUSH1 0x1 ADD SWAP1 PUSH1 0x20 ADD DUP1 DUP4 GT PUSH2 0x29F6 JUMPI DUP3 SWAP1 SUB PUSH1 0x1F AND DUP3 ADD SWAP2 JUMPDEST POP POP POP POP POP SWAP1 DUP1 PUSH1 0x1 ADD DUP1 SLOAD PUSH2 0x2A28 SWAP1 PUSH2 0x483E JUMP JUMPDEST DUP1 PUSH1 0x1F ADD PUSH1 0x20 DUP1 SWAP2 DIV MUL PUSH1 0x20 ADD PUSH1 0x40 MLOAD SWAP1 DUP2 ADD PUSH1 0x40 MSTORE DUP1 SWAP3 SWAP2 SWAP1 DUP2 DUP2 MSTORE PUSH1 0x20 ADD DUP3 DUP1 SLOAD PUSH2 0x2A54 SWAP1 PUSH2 0x483E JUMP JUMPDEST DUP1 ISZERO PUSH2 0x2A9F JUMPI DUP1 PUSH1 0x1F LT PUSH2 0x2A76 JUMPI PUSH2 0x100 DUP1 DUP4 SLOAD DIV MUL DUP4 MSTORE SWAP2 PUSH1 0x20 ADD SWAP2 PUSH2 0x2A9F JUMP JUMPDEST DUP3 ADD SWAP2 SWAP1 PUSH0 MSTORE PUSH1 0x20 PUSH0 KECCAK256 SWAP1 JUMPDEST DUP2 SLOAD DUP2 MSTORE SWAP1 PUSH1 0x1 ADD SWAP1 PUSH1 0x20 ADD DUP1 DUP4 GT PUSH2 0x2A82 JUMPI DUP3 SWAP1 SUB PUSH1 0x1F AND DUP3 ADD SWAP2 JUMPDEST POP POP POP POP POP SWAP1 DUP1 PUSH1 0x2 ADD DUP1 SLOAD PUSH2 0x2AB4 SWAP1 PUSH2 0x483E JUMP JUMPDEST DUP1 PUSH1 0x1F ADD PUSH1 0x20 DUP1 SWAP2 DIV MUL PUSH1 0x20 ADD PUSH1 0x40 MLOAD SWAP1 DUP2 ADD PUSH1 0x40 MSTORE DUP1 SWAP3 SWAP2 SWAP1 DUP2 DUP2 MSTORE PUSH1 0x20 ADD DUP3 DUP1 SLOAD PUSH2 0x2AE0 SWAP1 PUSH2 0x483E JUMP JUMPDEST DUP1 ISZERO PUSH2 0x2B2B JUMPI DUP1 PUSH1 0x1F LT PUSH2 0x2B02 JUMPI PUSH2 0x100 DUP1 DUP4 SLOAD DIV MUL DUP4 MSTORE SWAP2 PUSH1 0x20 ADD SWAP2 PUSH2 0x2B2B JUMP JUMPDEST DUP3 ADD SWAP2 SWAP1 PUSH0 MSTORE PUSH1 0x20 PUSH0 KECCAK256 SWAP1 JUMPDEST DUP2 SLOAD DUP2 MSTORE SWAP1 PUSH1 0x1 ADD SWAP1 PUSH1 0x20 ADD DUP1 DUP4 GT PUSH2 0x2B0E JUMPI DUP3 SWAP1 SUB PUSH1 0x1F AND DUP3 ADD SWAP2 JUMPDEST POP POP POP POP POP SWAP1 POP DUP4 JUMP JUMPDEST PUSH1 0xC PUSH1 0x20 MSTORE DUP1 PUSH0 MSTORE PUSH1 0x40 PUSH0 KECCAK256 PUSH0 SWAP2 POP SLOAD SWAP1 PUSH2 0x100 EXP SWAP1 DIV PUSH1 0xFF AND DUP2 JUMP JUMPDEST PUSH1 0x6 PUSH0 CALLER PUSH20 0xFFFFFFFFFFFFFFFFFFFFFFFFFFFFFFFFFFFFFFFF AND PUSH20 0xFFFFFFFFFFFFFFFFFFFFFFFFFFFFFFFFFFFFFFFF AND DUP2 MSTORE PUSH1 0x20 ADD SWAP1 DUP2 MSTORE PUSH1 0x20 ADD PUSH0 KECCAK256 PUSH0 SWAP1 SLOAD SWAP1 PUSH2 0x100 EXP SWAP1 DIV PUSH1 0xFF AND ISZERO PUSH2 0x2BDC JUMPI PUSH1 0x40 MLOAD PUSH32 0x8C379A000000000000000000000000000000000000000000000000000000000 DUP2 MSTORE PUSH1 0x4 ADD PUSH2 0x2BD3 SWAP1 PUSH2 0x4E73 JUMP JUMPDEST PUSH1 0x40 MLOAD DUP1 SWAP2 SUB SWAP1 REVERT JUMPDEST PUSH1 0x1 PUSH1 0x6 PUSH0 CALLER PUSH20 0xFFFFFFFFFFFFFFFFFFFFFFFFFFFFFFFFFFFFFFFF AND PUSH20 0xFFFFFFFFFFFFFFFFFFFFFFFFFFFFFFFFFFFFFFFF AND DUP2 MSTORE PUSH1 0x20 ADD SWAP1 DUP2 MSTORE PUSH1 0x20 ADD PUSH0 KECCAK256 PUSH0 PUSH2 0x100 EXP DUP2 SLOAD DUP2 PUSH1 0xFF MUL NOT AND SWAP1 DUP4 ISZERO ISZERO MUL OR SWAP1 SSTORE POP PUSH1 0x40 MLOAD DUP1 PUSH1 0x60 ADD PUSH1 0x40 MSTORE DUP1 DUP8 DUP8 DUP1 DUP1 PUSH1 0x1F ADD PUSH1 0x20 DUP1 SWAP2 DIV MUL PUSH1 0x20 ADD PUSH1 0x40 MLOAD SWAP1 DUP2 ADD PUSH1 0x40 MSTORE DUP1 SWAP4 SWAP3 SWAP2 SWAP1 DUP2 DUP2 MSTORE PUSH1 0x20 ADD DUP4 DUP4 DUP1 DUP3 DUP5 CALLDATACOPY PUSH0 DUP2 DUP5 ADD MSTORE PUSH1 0x1F NOT PUSH1 0x1F DUP3 ADD AND SWAP1 POP DUP1 DUP4 ADD SWAP3 POP POP POP POP POP POP POP DUP2 MSTORE PUSH1 0x20 ADD DUP6 DUP6 DUP1 DUP1 PUSH1 0x1F ADD PUSH1 0x20 DUP1 SWAP2 DIV MUL PUSH1 0x20 ADD PUSH1 0x40 MLOAD SWAP1 DUP2 ADD PUSH1 0x40 MSTORE DUP1 SWAP4 SWAP3 SWAP2 SWAP1 DUP2 DUP2 MSTORE PUSH1 0x20 ADD DUP4 DUP4 DUP1 DUP3 DUP5 CALLDATACOPY PUSH0 DUP2 DUP5 ADD MSTORE PUSH1 0x1F NOT PUSH1 0x1F DUP3 ADD AND SWAP1 POP DUP1 DUP4 ADD SWAP3 POP POP POP POP POP POP POP DUP2 MSTORE PUSH1 0x20 ADD DUP4 DUP4 DUP1 DUP1 PUSH1 0x1F ADD PUSH1 0x20 DUP1 SWAP2 DIV MUL PUSH1 0x20 ADD PUSH1 0x40 MLOAD SWAP1 DUP2 ADD PUSH1 0x40 MSTORE DUP1 SWAP4 SWAP3 SWAP2 SWAP1 DUP2 DUP2 MSTORE PUSH1 0x20 ADD DUP4 DUP4 DUP1 DUP3 DUP5 CALLDATACOPY PUSH0 DUP2 DUP5 ADD MSTORE PUSH1 0x1F NOT PUSH1 0x1F DUP3 ADD AND SWAP1 POP DUP1 DUP4 ADD SWAP3 POP POP POP POP POP POP POP DUP2 MSTORE POP PUSH1 0x7 PUSH0 CALLER PUSH20 0xFFFFFFFFFFFFFFFFFFFFFFFFFFFFFFFFFFFFFFFF AND PUSH20 0xFFFFFFFFFFFFFFFFFFFFFFFFFFFFFFFFFFFFFFFF AND DUP2 MSTORE PUSH1 0x20 ADD SWAP1 DUP2 MSTORE PUSH1 0x20 ADD PUSH0 KECCAK256 PUSH0 DUP3 ADD MLOAD DUP2 PUSH0 ADD SWAP1 DUP2 PUSH2 0x2D65 SWAP2 SWAP1 PUSH2 0x4B0B JUMP JUMPDEST POP PUSH1 0x20 DUP3 ADD MLOAD DUP2 PUSH1 0x1 ADD SWAP1 DUP2 PUSH2 0x2D7B SWAP2 SWAP1 PUSH2 0x4B0B JUMP JUMPDEST POP PUSH1 0x40 DUP3 ADD MLOAD DUP2 PUSH1 0x2 ADD SWAP1 DUP2 PUSH2 0x2D91 SWAP2 SWAP1 PUSH2 0x4B0B JUMP JUMPDEST POP SWAP1 POP POP PUSH32 0xD52881A6125270BC10EDC37221B17D746EF540E29867A40B76ED110EF520224C CALLER DUP8 DUP8 PUSH1 0x40 MLOAD PUSH2 0x2DC8 SWAP4 SWAP3 SWAP2 SWAP1 PUSH2 0x4E91 JUMP JUMPDEST PUSH1 0x40 MLOAD DUP1 SWAP2 SUB SWAP1 LOG1 POP POP POP POP POP POP JUMP JUMPDEST PUSH1 0x2 PUSH1 0x20 MSTORE DUP1 PUSH0 MSTORE PUSH1 0x40 PUSH0 KECCAK256 PUSH0 SWAP2 POP SWAP1 POP DUP1 PUSH0 ADD SLOAD SWAP1 DUP1 PUSH1 0x1 ADD DUP1 SLOAD PUSH2 0x2DFD SWAP1 PUSH2 0x483E JUMP JUMPDEST DUP1 PUSH1 0x1F ADD PUSH1 0x20 DUP1 SWAP2 DIV MUL PUSH1 0x20 ADD PUSH1 0x40 MLOAD SWAP1 DUP2 ADD PUSH1 0x40 MSTORE DUP1 SWAP3 SWAP2 SWAP1 DUP2 DUP2 MSTORE PUSH1 0x20 ADD DUP3 DUP1 SLOAD PUSH2 0x2E29 SWAP1 PUSH2 0x483E JUMP JUMPDEST DUP1 ISZERO PUSH2 0x2E74 JUMPI DUP1 PUSH1 0x1F LT PUSH2 0x2E4B JUMPI PUSH2 0x100 DUP1 DUP4 SLOAD DIV MUL DUP4 MSTORE SWAP2 PUSH1 0x20 ADD SWAP2 PUSH2 0x2E74 JUMP JUMPDEST DUP3 ADD SWAP2 SWAP1 PUSH0 MSTORE PUSH1 0x20 PUSH0 KECCAK256 SWAP1 JUMPDEST DUP2 SLOAD DUP2 MSTORE SWAP1 PUSH1 0x1 ADD SWAP1 PUSH1 0x20 ADD DUP1 DUP4 GT PUSH2 0x2E57 JUMPI DUP3 SWAP1 SUB PUSH1 0x1F AND DUP3 ADD SWAP2 JUMPDEST POP POP POP POP POP SWAP1 DUP1 PUSH1 0x2 ADD DUP1 SLOAD PUSH2 0x2E89 SWAP1 PUSH2 0x483E JUMP JUMPDEST DUP1 PUSH1 0x1F ADD PUSH1 0x20 DUP1 SWAP2 DIV MUL PUSH1 0x20 ADD PUSH1 0x40 MLOAD SWAP1 DUP2 ADD PUSH1 0x40 MSTORE DUP1 SWAP3 SWAP2 SWAP1 DUP2 DUP2 MSTORE PUSH1 0x20 ADD DUP3 DUP1 SLOAD PUSH2 0x2EB5 SWAP1 PUSH2 0x483E JUMP JUMPDEST DUP1 ISZERO PUSH2 0x2F00 JUMPI DUP1 PUSH1 0x1F LT PUSH2 0x2ED7 JUMPI PUSH2 0x100 DUP1 DUP4 SLOAD DIV MUL DUP4 MSTORE SWAP2 PUSH1 0x20 ADD SWAP2 PUSH2 0x2F00 JUMP JUMPDEST DUP3 ADD SWAP2 SWAP1 PUSH0 MSTORE PUSH1 0x20 PUSH0 KECCAK256 SWAP1 JUMPDEST DUP2 SLOAD DUP2 MSTORE SWAP1 PUSH1 0x1 ADD SWAP1 PUSH1 0x20 ADD DUP1 DUP4 GT PUSH2 0x2EE3 JUMPI DUP3 SWAP1 SUB PUSH1 0x1F AND DUP3 ADD SWAP2 JUMPDEST POP POP POP POP POP SWAP1 DUP1 PUSH1 0x3 ADD DUP1 SLOAD PUSH2 0x2F15 SWAP1 PUSH2 0x483E JUMP JUMPDEST DUP1 PUSH1 0x1F ADD PUSH1 0x20 DUP1 SWAP2 DIV MUL PUSH1 0x20 ADD PUSH1 0x40 MLOAD SWAP1 DUP2 ADD PUSH1 0x40 MSTORE DUP1 SWAP3 SWAP2 SWAP1 DUP2 DUP2 MSTORE PUSH1 0x20 ADD DUP3 DUP1 SLOAD PUSH2 0x2F41 SWAP1 PUSH2 0x483E JUMP JUMPDEST DUP1 ISZERO PUSH2 0x2F8C JUMPI DUP1 PUSH1 0x1F LT PUSH2 0x2F63 JUMPI PUSH2 0x100 DUP1 DUP4 SLOAD DIV MUL DUP4 MSTORE SWAP2 PUSH1 0x20 ADD SWAP2 PUSH2 0x2F8C JUMP JUMPDEST DUP3 ADD SWAP2 SWAP1 PUSH0 MSTORE PUSH1 0x20 PUSH0 KECCAK256 SWAP1 JUMPDEST DUP2 SLOAD DUP2 MSTORE SWAP1 PUSH1 0x1 ADD SWAP1 PUSH1 0x20 ADD DUP1 DUP4 GT PUSH2 0x2F6F JUMPI DUP3 SWAP1 SUB PUSH1 0x1F AND DUP3 ADD SWAP2 JUMPDEST POP POP POP POP POP SWAP1 DUP1 PUSH1 0x4 ADD SLOAD SWAP1 DUP1 PUSH1 0x5 ADD PUSH0 SWAP1 SLOAD SWAP1 PUSH2 0x100 EXP SWAP1 DIV PUSH1 0xFF AND SWAP1 DUP1 PUSH1 0x5 ADD PUSH1 0x1 SWAP1 SLOAD SWAP1 PUSH2 0x100 EXP SWAP1 DIV PUSH20 0xFFFFFFFFFFFFFFFFFFFFFFFFFFFFFFFFFFFFFFFF AND SWAP1 DUP1 PUSH1 0x6 ADD DUP1 SLOAD PUSH2 0x2FDF SWAP1 PUSH2 0x483E JUMP JUMPDEST DUP1 PUSH1 0x1F ADD PUSH1 0x20 DUP1 SWAP2 DIV MUL PUSH1 0x20 ADD PUSH1 0x40 MLOAD SWAP1 DUP2 ADD PUSH1 0x40 MSTORE DUP1 SWAP3 SWAP2 SWAP1 DUP2 DUP2 MSTORE PUSH1 0x20 ADD DUP3 DUP1 SLOAD PUSH2 0x300B SWAP1 PUSH2 0x483E JUMP JUMPDEST DUP1 ISZERO PUSH2 0x3056 JUMPI DUP1 PUSH1 0x1F LT PUSH2 0x302D JUMPI PUSH2 0x100 DUP1 DUP4 SLOAD DIV MUL DUP4 MSTORE SWAP2 PUSH1 0x20 ADD SWAP2 PUSH2 0x3056 JUMP JUMPDEST DUP3 ADD SWAP2 SWAP1 PUSH0 MSTORE PUSH1 0x20 PUSH0 KECCAK256 SWAP1 JUMPDEST DUP2 SLOAD DUP2 MSTORE SWAP1 PUSH1 0x1 ADD SWAP1 PUSH1 0x20 ADD DUP1 DUP4 GT PUSH2 0x3039 JUMPI DUP3 SWAP1 SUB PUSH1 0x1F AND DUP3 ADD SWAP2 JUMPDEST POP POP POP POP POP SWAP1 POP DUP9 JUMP JUMPDEST PUSH1 0x6 PUSH0 CALLER PUSH20 0xFFFFFFFFFFFFFFFFFFFFFFFFFFFFFFFFFFFFFFFF AND PUSH20 0xFFFFFFFFFFFFFFFFFFFFFFFFFFFFFFFFFFFFFFFF AND DUP2 MSTORE PUSH1 0x20 ADD SWAP1 DUP2 MSTORE PUSH1 0x20 ADD PUSH0 KECCAK256 PUSH0 SWAP1 SLOAD SWAP1 PUSH2 0x100 EXP SWAP1 DIV PUSH1 0xFF AND PUSH2 0x30E9 JUMPI PUSH1 0x40 MLOAD PUSH32 0x8C379A000000000000000000000000000000000000000000000000000000000 DUP2 MSTORE PUSH1 0x4 ADD PUSH2 0x30E0 SWAP1 PUSH2 0x506A JUMP JUMPDEST PUSH1 0x40 MLOAD DUP1 SWAP2 SUB SWAP1 REVERT JUMPDEST PUSH1 0x40 MLOAD DUP1 PUSH1 0xA0 ADD PUSH1 0x40 MSTORE DUP1 DUP6 DUP2 MSTORE PUSH1 0x20 ADD DUP5 DUP2 MSTORE PUSH1 0x20 ADD DUP4 DUP4 DUP1 DUP1 PUSH1 0x1F ADD PUSH1 0x20 DUP1 SWAP2 DIV MUL PUSH1 0x20 ADD PUSH1 0x40 MLOAD SWAP1 DUP2 ADD PUSH1 0x40 MSTORE DUP1 SWAP4 SWAP3 SWAP2 SWAP1 DUP2 DUP2 MSTORE PUSH1 0x20 ADD DUP4 DUP4 DUP1 DUP3 DUP5 CALLDATACOPY PUSH0 DUP2 DUP5 ADD MSTORE PUSH1 0x1F NOT PUSH1 0x1F DUP3 ADD AND SWAP1 POP DUP1 DUP4 ADD SWAP3 POP POP POP POP POP POP POP DUP2 MSTORE PUSH1 0x20 ADD PUSH1 0x40 MLOAD DUP1 PUSH1 0x20 ADD PUSH1 0x40 MSTORE DUP1 PUSH0 DUP2 MSTORE POP DUP2 MSTORE PUSH1 0x20 ADD CALLER PUSH20 0xFFFFFFFFFFFFFFFFFFFFFFFFFFFFFFFFFFFFFFFF AND DUP2 MSTORE POP PUSH1 0x8 PUSH0 DUP7 DUP2 MSTORE PUSH1 0x20 ADD SWAP1 DUP2 MSTORE PUSH1 0x20 ADD PUSH0 KECCAK256 PUSH0 DUP3 ADD MLOAD DUP2 PUSH0 ADD SSTORE PUSH1 0x20 DUP3 ADD MLOAD DUP2 PUSH1 0x1 ADD SSTORE PUSH1 0x40 DUP3 ADD MLOAD DUP2 PUSH1 0x2 ADD SWAP1 DUP2 PUSH2 0x31AF SWAP2 SWAP1 PUSH2 0x4B0B JUMP JUMPDEST POP PUSH1 0x60 DUP3 ADD MLOAD DUP2 PUSH1 0x3 ADD SWAP1 DUP2 PUSH2 0x31C5 SWAP2 SWAP1 PUSH2 0x4B0B JUMP JUMPDEST POP PUSH1 0x80 DUP3 ADD MLOAD DUP2 PUSH1 0x4 ADD PUSH0 PUSH2 0x100 EXP DUP2 SLOAD DUP2 PUSH20 0xFFFFFFFFFFFFFFFFFFFFFFFFFFFFFFFFFFFFFFFF MUL NOT AND SWAP1 DUP4 PUSH20 0xFFFFFFFFFFFFFFFFFFFFFFFFFFFFFFFFFFFFFFFF AND MUL OR SWAP1 SSTORE POP SWAP1 POP POP PUSH32 0xC84B2E7A91CBBF0711AC91FD9090853F03A14F7BEF43DF0EB49E6B32D36FE0AC DUP5 CALLER PUSH1 0x40 MLOAD PUSH2 0x3240 SWAP3 SWAP2 SWAP1 PUSH2 0x4F91 JUMP JUMPDEST PUSH1 0x40 MLOAD DUP1 SWAP2 SUB SWAP1 LOG1 POP POP POP POP JUMP JUMPDEST PUSH1 0xB PUSH1 0x20 MSTORE DUP1 PUSH0 MSTORE PUSH1 0x40 PUSH0 KECCAK256 PUSH0 SWAP2 POP SWAP1 POP DUP1 PUSH0 ADD SLOAD SWAP1 DUP1 PUSH1 0x1 ADD PUSH0 SWAP1 SLOAD SWAP1 PUSH2 0x100 EXP SWAP1 DIV PUSH1 0xFF AND SWAP1 DUP1 PUSH1 0x2 ADD DUP1 SLOAD PUSH2 0x3285 SWAP1 PUSH2 0x483E JUMP JUMPDEST DUP1 PUSH1 0x1F ADD PUSH1 0x20 DUP1 SWAP2 DIV MUL PUSH1 0x20 ADD PUSH1 0x40 MLOAD SWAP1 DUP2 ADD PUSH1 0x40 MSTORE DUP1 SWAP3 SWAP2 SWAP1 DUP2 DUP2 MSTORE PUSH1 0x20 ADD DUP3 DUP1 SLOAD PUSH2 0x32B1 SWAP1 PUSH2 0x483E JUMP JUMPDEST DUP1 ISZERO PUSH2 0x32FC JUMPI DUP1 PUSH1 0x1F LT PUSH2 0x32D3 JUMPI PUSH2 0x100 DUP1 DUP4 SLOAD DIV MUL DUP4 MSTORE SWAP2 PUSH1 0x20 ADD SWAP2 PUSH2 0x32FC JUMP JUMPDEST DUP3 ADD SWAP2 SWAP1 PUSH0 MSTORE PUSH1 0x20 PUSH0 KECCAK256 SWAP1 JUMPDEST DUP2 SLOAD DUP2 MSTORE SWAP1 PUSH1 0x1 ADD SWAP1 PUSH1 0x20 ADD DUP1 DUP4 GT PUSH2 0x32DF JUMPI DUP3 SWAP1 SUB PUSH1 0x1F AND DUP3 ADD SWAP2 JUMPDEST POP POP POP POP POP SWAP1 DUP1 PUSH1 0x3 ADD PUSH0 SWAP1 SLOAD SWAP1 PUSH2 0x100 EXP SWAP1 DIV PUSH1 0xFF AND SWAP1 DUP1 PUSH1 0x4 ADD DUP1 SLOAD PUSH2 0x3323 SWAP1 PUSH2 0x483E JUMP JUMPDEST DUP1 PUSH1 0x1F ADD PUSH1 0x20 DUP1 SWAP2 DIV MUL PUSH1 0x20 ADD PUSH1 0x40 MLOAD SWAP1 DUP2 ADD PUSH1 0x40 MSTORE DUP1 SWAP3 SWAP2 SWAP1 DUP2 DUP2 MSTORE PUSH1 0x20 ADD DUP3 DUP1 SLOAD PUSH2 0x334F SWAP1 PUSH2 0x483E JUMP JUMPDEST DUP1 ISZERO PUSH2 0x339A JUMPI DUP1 PUSH1 0x1F LT PUSH2 0x3371 JUMPI PUSH2 0x100 DUP1 DUP4 SLOAD DIV MUL DUP4 MSTORE SWAP2 PUSH1 0x20 ADD SWAP2 PUSH2 0x339A JUMP JUMPDEST DUP3 ADD SWAP2 SWAP1 PUSH0 MSTORE PUSH1 0x20 PUSH0 KECCAK256 SWAP1 JUMPDEST DUP2 SLOAD DUP2 MSTORE SWAP1 PUSH1 0x1 ADD SWAP1 PUSH1 0x20 ADD DUP1 DUP4 GT PUSH2 0x337D JUMPI DUP3 SWAP1 SUB PUSH1 0x1F AND DUP3 ADD SWAP2 JUMPDEST POP POP POP POP POP SWAP1 DUP1 PUSH1 0x5 ADD DUP1 SLOAD PUSH2 0x33AF SWAP1 PUSH2 0x483E JUMP JUMPDEST DUP1 PUSH1 0x1F ADD PUSH1 0x20 DUP1 SWAP2 DIV MUL PUSH1 0x20 ADD PUSH1 0x40 MLOAD SWAP1 DUP2 ADD PUSH1 0x40 MSTORE DUP1 SWAP3 SWAP2 SWAP1 DUP2 DUP2 MSTORE PUSH1 0x20 ADD DUP3 DUP1 SLOAD PUSH2 0x33DB SWAP1 PUSH2 0x483E JUMP JUMPDEST DUP1 ISZERO PUSH2 0x3426 JUMPI DUP1 PUSH1 0x1F LT PUSH2 0x33FD JUMPI PUSH2 0x100 DUP1 DUP4 SLOAD DIV MUL DUP4 MSTORE SWAP2 PUSH1 0x20 ADD SWAP2 PUSH2 0x3426 JUMP JUMPDEST DUP3 ADD SWAP2 SWAP1 PUSH0 MSTORE PUSH1 0x20 PUSH0 KECCAK256 SWAP1 JUMPDEST DUP2 SLOAD DUP2 MSTORE SWAP1 PUSH1 0x1 ADD SWAP1 PUSH1 0x20 ADD DUP1 DUP4 GT PUSH2 0x3409 JUMPI DUP3 SWAP1 SUB PUSH1 0x1F AND DUP3 ADD SWAP2 JUMPDEST POP POP POP POP POP SWAP1 DUP1 PUSH1 0x6 ADD PUSH0 SWAP1 SLOAD SWAP1 PUSH2 0x100 EXP SWAP1 DIV PUSH20 0xFFFFFFFFFFFFFFFFFFFFFFFFFFFFFFFFFFFFFFFF AND SWAP1 POP DUP8 JUMP JUMPDEST PUSH1 0x9 PUSH0 CALLER PUSH20 0xFFFFFFFFFFFFFFFFFFFFFFFFFFFFFFFFFFFFFFFF AND PUSH20 0xFFFFFFFFFFFFFFFFFFFFFFFFFFFFFFFFFFFFFFFF AND DUP2 MSTORE PUSH1 0x20 ADD SWAP1 DUP2 MSTORE PUSH1 0x20 ADD PUSH0 KECCAK256 PUSH0 SWAP1 SLOAD SWAP1 PUSH2 0x100 EXP SWAP1 DIV PUSH1 0xFF AND PUSH2 0x34DE JUMPI PUSH1 0x40 MLOAD PUSH32 0x8C379A000000000000000000000000000000000000000000000000000000000 DUP2 MSTORE PUSH1 0x4 ADD PUSH2 0x34D5 SWAP1 PUSH2 0x4C9C JUMP JUMPDEST PUSH1 0x40 MLOAD DUP1 SWAP2 SUB SWAP1 REVERT JUMPDEST PUSH1 0x40 MLOAD DUP1 PUSH1 0xE0 ADD PUSH1 0x40 MSTORE DUP1 DUP5 DUP2 MSTORE PUSH1 0x20 ADD PUSH1 0x1 ISZERO ISZERO DUP2 MSTORE PUSH1 0x20 ADD DUP4 DUP4 DUP1 DUP1 PUSH1 0x1F ADD PUSH1 0x20 DUP1 SWAP2 DIV MUL PUSH1 0x20 ADD PUSH1 0x40 MLOAD SWAP1 DUP2 ADD PUSH1 0x40 MSTORE DUP1 SWAP4 SWAP3 SWAP2 SWAP1 DUP2 DUP2 MSTORE PUSH1 0x20 ADD DUP4 DUP4 DUP1 DUP3 DUP5 CALLDATACOPY PUSH0 DUP2 DUP5 ADD MSTORE PUSH1 0x1F NOT PUSH1 0x1F DUP3 ADD AND SWAP1 POP DUP1 DUP4 ADD SWAP3 POP POP POP POP POP POP POP DUP2 MSTORE PUSH1 0x20 ADD PUSH0 ISZERO ISZERO DUP2 MSTORE PUSH1 0x20 ADD PUSH1 0x40 MLOAD DUP1 PUSH1 0x20 ADD PUSH1 0x40 MSTORE DUP1 PUSH0 DUP2 MSTORE POP DUP2 MSTORE PUSH1 0x20 ADD PUSH1 0x40 MLOAD DUP1 PUSH1 0x20 ADD PUSH1 0x40 MSTORE DUP1 PUSH0 DUP2 MSTORE POP DUP2 MSTORE PUSH1 0x20 ADD CALLER PUSH20 0xFFFFFFFFFFFFFFFFFFFFFFFFFFFFFFFFFFFFFFFF AND DUP2 MSTORE POP PUSH1 0xB PUSH0 DUP6 DUP2 MSTORE PUSH1 0x20 ADD SWAP1 DUP2 MSTORE PUSH1 0x20 ADD PUSH0 KECCAK256 PUSH0 DUP3 ADD MLOAD DUP2 PUSH0 ADD SSTORE PUSH1 0x20 DUP3 ADD MLOAD DUP2 PUSH1 0x1 ADD PUSH0 PUSH2 0x100 EXP DUP2 SLOAD DUP2 PUSH1 0xFF MUL NOT AND SWAP1 DUP4 ISZERO ISZERO MUL OR SWAP1 SSTORE POP PUSH1 0x40 DUP3 ADD MLOAD DUP2 PUSH1 0x2 ADD SWAP1 DUP2 PUSH2 0x35D8 SWAP2 SWAP1 PUSH2 0x4B0B JUMP JUMPDEST POP PUSH1 0x60 DUP3 ADD MLOAD DUP2 PUSH1 0x3 ADD PUSH0 PUSH2 0x100 EXP DUP2 SLOAD DUP2 PUSH1 0xFF MUL NOT AND SWAP1 DUP4 ISZERO ISZERO MUL OR SWAP1 SSTORE POP PUSH1 0x80 DUP3 ADD MLOAD DUP2 PUSH1 0x4 ADD SWAP1 DUP2 PUSH2 0x360D SWAP2 SWAP1 PUSH2 0x4B0B JUMP JUMPDEST POP PUSH1 0xA0 DUP3 ADD MLOAD DUP2 PUSH1 0x5 ADD SWAP1 DUP2 PUSH2 0x3623 SWAP2 SWAP1 PUSH2 0x4B0B JUMP JUMPDEST POP PUSH1 0xC0 DUP3 ADD MLOAD DUP2 PUSH1 0x6 ADD PUSH0 PUSH2 0x100 EXP DUP2 SLOAD DUP2 PUSH20 0xFFFFFFFFFFFFFFFFFFFFFFFFFFFFFFFFFFFFFFFF MUL NOT AND SWAP1 DUP4 PUSH20 0xFFFFFFFFFFFFFFFFFFFFFFFFFFFFFFFFFFFFFFFF AND MUL OR SWAP1 SSTORE POP SWAP1 POP POP PUSH32 0x3DA11207ACEF64A8EF6A06E530A71956F123355B74D421E1883E3D3CE94C92C1 DUP4 CALLER PUSH1 0x40 MLOAD PUSH2 0x369E SWAP3 SWAP2 SWAP1 PUSH2 0x4F91 JUMP JUMPDEST PUSH1 0x40 MLOAD DUP1 SWAP2 SUB SWAP1 LOG1 POP POP POP JUMP JUMPDEST PUSH1 0x40 MLOAD DUP1 PUSH1 0x80 ADD PUSH1 0x40 MSTORE DUP1 DUP5 DUP2 MSTORE PUSH1 0x20 ADD DUP4 DUP2 MSTORE PUSH1 0x20 ADD DUP3 DUP2 MSTORE PUSH1 0x20 ADD TIMESTAMP DUP2 MSTORE POP PUSH1 0x13 PUSH0 DUP7 DUP2 MSTORE PUSH1 0x20 ADD SWAP1 DUP2 MSTORE PUSH1 0x20 ADD PUSH0 KECCAK256 PUSH0 DUP3 ADD MLOAD DUP2 PUSH0 ADD SSTORE PUSH1 0x20 DUP3 ADD MLOAD DUP2 PUSH1 0x1 ADD SSTORE PUSH1 0x40 DUP3 ADD MLOAD DUP2 PUSH1 0x2 ADD SSTORE PUSH1 0x60 DUP3 ADD MLOAD DUP2 PUSH1 0x3 ADD SSTORE SWAP1 POP POP DUP4 PUSH31 0x7CE2A33116D3CE50A5ABAFE23CF84FC634FA2EC50E9632CF280E3B7D770DA4 DUP5 DUP5 DUP5 TIMESTAMP PUSH1 0x40 MLOAD PUSH2 0x373B SWAP5 SWAP4 SWAP3 SWAP2 SWAP1 PUSH2 0x4307 JUMP JUMPDEST PUSH1 0x40 MLOAD DUP1 SWAP2 SUB SWAP1 LOG2 POP POP POP POP JUMP JUMPDEST PUSH1 0x5 SLOAD DUP2 JUMP JUMPDEST PUSH1 0x9 PUSH0 CALLER PUSH20 0xFFFFFFFFFFFFFFFFFFFFFFFFFFFFFFFFFFFFFFFF AND PUSH20 0xFFFFFFFFFFFFFFFFFFFFFFFFFFFFFFFFFFFFFFFF AND DUP2 MSTORE PUSH1 0x20 ADD SWAP1 DUP2 MSTORE PUSH1 0x20 ADD PUSH0 KECCAK256 PUSH0 SWAP1 SLOAD SWAP1 PUSH2 0x100 EXP SWAP1 DIV PUSH1 0xFF AND ISZERO PUSH2 0x37D9 JUMPI PUSH1 0x40 MLOAD PUSH32 0x8C379A000000000000000000000000000000000000000000000000000000000 DUP2 MSTORE PUSH1 0x4 ADD PUSH2 0x37D0 SWAP1 PUSH2 0x4E73 JUMP JUMPDEST PUSH1 0x40 MLOAD DUP1 SWAP2 SUB SWAP1 REVERT JUMPDEST PUSH1 0x1 PUSH1 0x9 PUSH0 CALLER PUSH20 0xFFFFFFFFFFFFFFFFFFFFFFFFFFFFFFFFFFFFFFFF AND PUSH20 0xFFFFFFFFFFFFFFFFFFFFFFFFFFFFFFFFFFFFFFFF AND DUP2 MSTORE PUSH1 0x20 ADD SWAP1 DUP2 MSTORE PUSH1 0x20 ADD PUSH0 KECCAK256 PUSH0 PUSH2 0x100 EXP DUP2 SLOAD DUP2 PUSH1 0xFF MUL NOT AND SWAP1 DUP4 ISZERO ISZERO MUL OR SWAP1 SSTORE POP PUSH1 0x40 MLOAD DUP1 PUSH1 0x60 ADD PUSH1 0x40 MSTORE DUP1 DUP8 DUP8 DUP1 DUP1 PUSH1 0x1F ADD PUSH1 0x20 DUP1 SWAP2 DIV MUL PUSH1 0x20 ADD PUSH1 0x40 MLOAD SWAP1 DUP2 ADD PUSH1 0x40 MSTORE DUP1 SWAP4 SWAP3 SWAP2 SWAP1 DUP2 DUP2 MSTORE PUSH1 0x20 ADD DUP4 DUP4 DUP1 DUP3 DUP5 CALLDATACOPY PUSH0 DUP2 DUP5 ADD MSTORE PUSH1 0x1F NOT PUSH1 0x1F DUP3 ADD AND SWAP1 POP DUP1 DUP4 ADD SWAP3 POP POP POP POP POP POP POP DUP2 MSTORE PUSH1 0x20 ADD DUP6 DUP6 DUP1 DUP1 PUSH1 0x1F ADD PUSH1 0x20 DUP1 SWAP2 DIV MUL PUSH1 0x20 ADD PUSH1 0x40 MLOAD SWAP1 DUP2 ADD PUSH1 0x40 MSTORE DUP1 SWAP4 SWAP3 SWAP2 SWAP1 DUP2 DUP2 MSTORE PUSH1 0x20 ADD DUP4 DUP4 DUP1 DUP3 DUP5 CALLDATACOPY PUSH0 DUP2 DUP5 ADD MSTORE PUSH1 0x1F NOT PUSH1 0x1F DUP3 ADD AND SWAP1 POP DUP1 DUP4 ADD SWAP3 POP POP POP POP POP POP POP DUP2 MSTORE PUSH1 0x20 ADD DUP4 DUP4 DUP1 DUP1 PUSH1 0x1F ADD PUSH1 0x20 DUP1 SWAP2 DIV MUL PUSH1 0x20 ADD PUSH1 0x40 MLOAD SWAP1 DUP2 ADD PUSH1 0x40 MSTORE DUP1 SWAP4 SWAP3 SWAP2 SWAP1 DUP2 DUP2 MSTORE PUSH1 0x20 ADD DUP4 DUP4 DUP1 DUP3 DUP5 CALLDATACOPY PUSH0 DUP2 DUP5 ADD MSTORE PUSH1 0x1F NOT PUSH1 0x1F DUP3 ADD AND SWAP1 POP DUP1 DUP4 ADD SWAP3 POP POP POP POP POP POP POP DUP2 MSTORE POP PUSH1 0xA PUSH0 CALLER PUSH20 0xFFFFFFFFFFFFFFFFFFFFFFFFFFFFFFFFFFFFFFFF AND PUSH20 0xFFFFFFFFFFFFFFFFFFFFFFFFFFFFFFFFFFFFFFFF AND DUP2 MSTORE PUSH1 0x20 ADD SWAP1 DUP2 MSTORE PUSH1 0x20 ADD PUSH0 KECCAK256 PUSH0 DUP3 ADD MLOAD DUP2 PUSH0 ADD SWAP1 DUP2 PUSH2 0x3962 SWAP2 SWAP1 PUSH2 0x4B0B JUMP JUMPDEST POP PUSH1 0x20 DUP3 ADD MLOAD DUP2 PUSH1 0x1 ADD SWAP1 DUP2 PUSH2 0x3978 SWAP2 SWAP1 PUSH2 0x4B0B JUMP JUMPDEST POP PUSH1 0x40 DUP3 ADD MLOAD DUP2 PUSH1 0x2 ADD SWAP1 DUP2 PUSH2 0x398E SWAP2 SWAP1 PUSH2 0x4B0B JUMP JUMPDEST POP SWAP1 POP POP PUSH31 0xF326CFEEE4A98CDAA20D4B3EA99E1D7BA56E0BC16159F422E5EF8A57FCEB26 CALLER DUP8 DUP8 PUSH1 0x40 MLOAD PUSH2 0x39C4 SWAP4 SWAP3 SWAP2 SWAP1 PUSH2 0x4E91 JUMP JUMPDEST PUSH1 0x40 MLOAD DUP1 SWAP2 SUB SWAP1 LOG1 POP POP POP POP POP POP JUMP JUMPDEST PUSH1 0x3 PUSH1 0x20 MSTORE DUP1 PUSH0 MSTORE PUSH1 0x40 PUSH0 KECCAK256 PUSH0 SWAP2 POP SWAP1 POP SLOAD DUP2 JUMP JUMPDEST PUSH1 0x8 PUSH1 0x20 MSTORE DUP1 PUSH0 MSTORE PUSH1 0x40 PUSH0 KECCAK256 PUSH0 SWAP2 POP SWAP1 POP DUP1 PUSH0 ADD SLOAD SWAP1 DUP1 PUSH1 0x1 ADD SLOAD SWAP1 DUP1 PUSH1 0x2 ADD DUP1 SLOAD PUSH2 0x3A14 SWAP1 PUSH2 0x483E JUMP JUMPDEST DUP1 PUSH1 0x1F ADD PUSH1 0x20 DUP1 SWAP2 DIV MUL PUSH1 0x20 ADD PUSH1 0x40 MLOAD SWAP1 DUP2 ADD PUSH1 0x40 MSTORE DUP1 SWAP3 SWAP2 SWAP1 DUP2 DUP2 MSTORE PUSH1 0x20 ADD DUP3 DUP1 SLOAD PUSH2 0x3A40 SWAP1 PUSH2 0x483E JUMP JUMPDEST DUP1 ISZERO PUSH2 0x3A8B JUMPI DUP1 PUSH1 0x1F LT PUSH2 0x3A62 JUMPI PUSH2 0x100 DUP1 DUP4 SLOAD DIV MUL DUP4 MSTORE SWAP2 PUSH1 0x20 ADD SWAP2 PUSH2 0x3A8B JUMP JUMPDEST DUP3 ADD SWAP2 SWAP1 PUSH0 MSTORE PUSH1 0x20 PUSH0 KECCAK256 SWAP1 JUMPDEST DUP2 SLOAD DUP2 MSTORE SWAP1 PUSH1 0x1 ADD SWAP1 PUSH1 0x20 ADD DUP1 DUP4 GT PUSH2 0x3A6E JUMPI DUP3 SWAP1 SUB PUSH1 0x1F AND DUP3 ADD SWAP2 JUMPDEST POP POP POP POP POP SWAP1 DUP1 PUSH1 0x3 ADD DUP1 SLOAD PUSH2 0x3AA0 SWAP1 PUSH2 0x483E JUMP JUMPDEST DUP1 PUSH1 0x1F ADD PUSH1 0x20 DUP1 SWAP2 DIV MUL PUSH1 0x20 ADD PUSH1 0x40 MLOAD SWAP1 DUP2 ADD PUSH1 0x40 MSTORE DUP1 SWAP3 SWAP2 SWAP1 DUP2 DUP2 MSTORE PUSH1 0x20 ADD DUP3 DUP1 SLOAD PUSH2 0x3ACC SWAP1 PUSH2 0x483E JUMP JUMPDEST DUP1 ISZERO PUSH2 0x3B17 JUMPI DUP1 PUSH1 0x1F LT PUSH2 0x3AEE JUMPI PUSH2 0x100 DUP1 DUP4 SLOAD DIV MUL DUP4 MSTORE SWAP2 PUSH1 0x20 ADD SWAP2 PUSH2 0x3B17 JUMP JUMPDEST DUP3 ADD SWAP2 SWAP1 PUSH0 MSTORE PUSH1 0x20 PUSH0 KECCAK256 SWAP1 JUMPDEST DUP2 SLOAD DUP2 MSTORE SWAP1 PUSH1 0x1 ADD SWAP1 PUSH1 0x20 ADD DUP1 DUP4 GT PUSH2 0x3AFA JUMPI DUP3 SWAP1 SUB PUSH1 0x1F AND DUP3 ADD SWAP2 JUMPDEST POP POP POP POP POP SWAP1 DUP1 PUSH1 0x4 ADD PUSH0 SWAP1 SLOAD SWAP1 PUSH2 0x100 EXP SWAP1 DIV PUSH20 0xFFFFFFFFFFFFFFFFFFFFFFFFFFFFFFFFFFFFFFFF AND SWAP1 POP DUP6 JUMP JUMPDEST PUSH1 0xF PUSH0 CALLER PUSH20 0xFFFFFFFFFFFFFFFFFFFFFFFFFFFFFFFFFFFFFFFF AND PUSH20 0xFFFFFFFFFFFFFFFFFFFFFFFFFFFFFFFFFFFFFFFF AND DUP2 MSTORE PUSH1 0x20 ADD SWAP1 DUP2 MSTORE PUSH1 0x20 ADD PUSH0 KECCAK256 PUSH0 SWAP1 SLOAD SWAP1 PUSH2 0x100 EXP SWAP1 DIV PUSH1 0xFF AND ISZERO PUSH2 0x3BD0 JUMPI PUSH1 0x40 MLOAD PUSH32 0x8C379A000000000000000000000000000000000000000000000000000000000 DUP2 MSTORE PUSH1 0x4 ADD PUSH2 0x3BC7 SWAP1 PUSH2 0x4E73 JUMP JUMPDEST PUSH1 0x40 MLOAD DUP1 SWAP2 SUB SWAP1 REVERT JUMPDEST PUSH1 0x1 PUSH1 0xF PUSH0 CALLER PUSH20 0xFFFFFFFFFFFFFFFFFFFFFFFFFFFFFFFFFFFFFFFF AND PUSH20 0xFFFFFFFFFFFFFFFFFFFFFFFFFFFFFFFFFFFFFFFF AND DUP2 MSTORE PUSH1 0x20 ADD SWAP1 DUP2 MSTORE PUSH1 0x20 ADD PUSH0 KECCAK256 PUSH0 PUSH2 0x100 EXP DUP2 SLOAD DUP2 PUSH1 0xFF MUL NOT AND SWAP1 DUP4 ISZERO ISZERO MUL OR SWAP1 SSTORE POP PUSH1 0x40 MLOAD DUP1 PUSH1 0x60 ADD PUSH1 0x40 MSTORE DUP1 DUP8 DUP8 DUP1 DUP1 PUSH1 0x1F ADD PUSH1 0x20 DUP1 SWAP2 DIV MUL PUSH1 0x20 ADD PUSH1 0x40 MLOAD SWAP1 DUP2 ADD PUSH1 0x40 MSTORE DUP1 SWAP4 SWAP3 SWAP2 SWAP1 DUP2 DUP2 MSTORE PUSH1 0x20 ADD DUP4 DUP4 DUP1 DUP3 DUP5 CALLDATACOPY PUSH0 DUP2 DUP5 ADD MSTORE PUSH1 0x1F NOT PUSH1 0x1F DUP3 ADD AND SWAP1 POP DUP1 DUP4 ADD SWAP3 POP POP POP POP POP POP POP DUP2 MSTORE PUSH1 0x20 ADD DUP6 DUP6 DUP1 DUP1 PUSH1 0x1F ADD PUSH1 0x20 DUP1 SWAP2 DIV MUL PUSH1 0x20 ADD PUSH1 0x40 MLOAD SWAP1 DUP2 ADD PUSH1 0x40 MSTORE DUP1 SWAP4 SWAP3 SWAP2 SWAP1 DUP2 DUP2 MSTORE PUSH1 0x20 ADD DUP4 DUP4 DUP1 DUP3 DUP5 CALLDATACOPY PUSH0 DUP2 DUP5 ADD MSTORE PUSH1 0x1F NOT PUSH1 0x1F DUP3 ADD AND SWAP1 POP DUP1 DUP4 ADD SWAP3 POP POP POP POP POP POP POP DUP2 MSTORE PUSH1 0x20 ADD DUP4 DUP4 DUP1 DUP1 PUSH1 0x1F ADD PUSH1 0x20 DUP1 SWAP2 DIV MUL PUSH1 0x20 ADD PUSH1 0x40 MLOAD SWAP1 DUP2 ADD PUSH1 0x40 MSTORE DUP1 SWAP4 SWAP3 SWAP2 SWAP1 DUP2 DUP2 MSTORE PUSH1 0x20 ADD DUP4 DUP4 DUP1 DUP3 DUP5 CALLDATACOPY PUSH0 DUP2 DUP5 ADD MSTORE PUSH1 0x1F NOT PUSH1 0x1F DUP3 ADD AND SWAP1 POP DUP1 DUP4 ADD SWAP3 POP POP POP POP POP POP POP DUP2 MSTORE POP PUSH1 0x10 PUSH0 CALLER PUSH20 0xFFFFFFFFFFFFFFFFFFFFFFFFFFFFFFFFFFFFFFFF AND PUSH20 0xFFFFFFFFFFFFFFFFFFFFFFFFFFFFFFFFFFFFFFFF AND DUP2 MSTORE PUSH1 0x20 ADD SWAP1 DUP2 MSTORE PUSH1 0x20 ADD PUSH0 KECCAK256 PUSH0 DUP3 ADD MLOAD DUP2 PUSH0 ADD SWAP1 DUP2 PUSH2 0x3D59 SWAP2 SWAP1 PUSH2 0x4B0B JUMP JUMPDEST POP PUSH1 0x20 DUP3 ADD MLOAD DUP2 PUSH1 0x1 ADD SWAP1 DUP2 PUSH2 0x3D6F SWAP2 SWAP1 PUSH2 0x4B0B JUMP JUMPDEST POP PUSH1 0x40 DUP3 ADD MLOAD DUP2 PUSH1 0x2 ADD SWAP1 DUP2 PUSH2 0x3D85 SWAP2 SWAP1 PUSH2 0x4B0B JUMP JUMPDEST POP SWAP1 POP POP PUSH32 0x2BF7863D4068DDA3123298D02EE28530519D2E96EAAB6784F5F0B6184DDD2015 CALLER DUP8 DUP8 PUSH1 0x40 MLOAD PUSH2 0x3DBC SWAP4 SWAP3 SWAP2 SWAP1 PUSH2 0x4E91 JUMP JUMPDEST PUSH1 0x40 MLOAD DUP1 SWAP2 SUB SWAP1 LOG1 POP POP POP POP POP POP JUMP JUMPDEST PUSH0 PUSH0 PUSH1 0x2 DUP4 TIMESTAMP CALLER PUSH1 0x5 SLOAD PUSH1 0x40 MLOAD PUSH1 0x20 ADD PUSH2 0x3DE9 SWAP5 SWAP4 SWAP3 SWAP2 SWAP1 PUSH2 0x5193 JUMP JUMPDEST PUSH1 0x40 MLOAD PUSH1 0x20 DUP2 DUP4 SUB SUB DUP2 MSTORE SWAP1 PUSH1 0x40 MSTORE PUSH1 0x40 MLOAD PUSH2 0x3E05 SWAP2 SWAP1 PUSH2 0x5224 JUMP JUMPDEST PUSH1 0x20 PUSH1 0x40 MLOAD DUP1 DUP4 SUB DUP2 DUP6 GAS STATICCALL ISZERO DUP1 ISZERO PUSH2 0x3E20 JUMPI RETURNDATASIZE PUSH0 PUSH0 RETURNDATACOPY RETURNDATASIZE PUSH0 REVERT JUMPDEST POP POP POP PUSH1 0x40 MLOAD RETURNDATASIZE PUSH1 0x1F NOT PUSH1 0x1F DUP3 ADD AND DUP3 ADD DUP1 PUSH1 0x40 MSTORE POP DUP2 ADD SWAP1 PUSH2 0x3E43 SWAP2 SWAP1 PUSH2 0x524E JUMP JUMPDEST SWAP1 POP DUP1 PUSH1 0x3 PUSH0 PUSH1 0x5 SLOAD DUP2 MSTORE PUSH1 0x20 ADD SWAP1 DUP2 MSTORE PUSH1 0x20 ADD PUSH0 KECCAK256 DUP2 SWAP1 SSTORE POP PUSH1 0x5 PUSH0 DUP2 SLOAD DUP1 SWAP3 SWAP2 SWAP1 PUSH2 0x3E6F SWAP1 PUSH2 0x52A6 JUMP JUMPDEST SWAP2 SWAP1 POP SSTORE POP DUP1 SWAP2 POP POP SWAP2 SWAP1 POP JUMP JUMPDEST PUSH0 PUSH0 REVERT JUMPDEST PUSH0 PUSH0 REVERT JUMPDEST PUSH0 PUSH20 0xFFFFFFFFFFFFFFFFFFFFFFFFFFFFFFFFFFFFFFFF DUP3 AND SWAP1 POP SWAP2 SWAP1 POP JUMP JUMPDEST PUSH0 PUSH2 0x3EAE DUP3 PUSH2 0x3E85 JUMP JUMPDEST SWAP1 POP SWAP2 SWAP1 POP JUMP JUMPDEST PUSH2 0x3EBE DUP2 PUSH2 0x3EA4 JUMP JUMPDEST DUP2 EQ PUSH2 0x3EC8 JUMPI PUSH0 PUSH0 REVERT JUMPDEST POP JUMP JUMPDEST PUSH0 DUP2 CALLDATALOAD SWAP1 POP PUSH2 0x3ED9 DUP2 PUSH2 0x3EB5 JUMP JUMPDEST SWAP3 SWAP2 POP POP JUMP JUMPDEST PUSH0 PUSH1 0x20 DUP3 DUP5 SUB SLT ISZERO PUSH2 0x3EF4 JUMPI PUSH2 0x3EF3 PUSH2 0x3E7D JUMP JUMPDEST JUMPDEST PUSH0 PUSH2 0x3F01 DUP5 DUP3 DUP6 ADD PUSH2 0x3ECB JUMP JUMPDEST SWAP2 POP POP SWAP3 SWAP2 POP POP JUMP JUMPDEST PUSH0 DUP2 MLOAD SWAP1 POP SWAP2 SWAP1 POP JUMP JUMPDEST PUSH0 DUP3 DUP3 MSTORE PUSH1 0x20 DUP3 ADD SWAP1 POP SWAP3 SWAP2 POP POP JUMP JUMPDEST DUP3 DUP2 DUP4 MCOPY PUSH0 DUP4 DUP4 ADD MSTORE POP POP POP JUMP JUMPDEST PUSH0 PUSH1 0x1F NOT PUSH1 0x1F DUP4 ADD AND SWAP1 POP SWAP2 SWAP1 POP JUMP JUMPDEST PUSH0 PUSH2 0x3F4C DUP3 PUSH2 0x3F0A JUMP JUMPDEST PUSH2 0x3F56 DUP2 DUP6 PUSH2 0x3F14 JUMP JUMPDEST SWAP4 POP PUSH2 0x3F66 DUP2 DUP6 PUSH1 0x20 DUP7 ADD PUSH2 0x3F24 JUMP JUMPDEST PUSH2 0x3F6F DUP2 PUSH2 0x3F32 JUMP JUMPDEST DUP5 ADD SWAP2 POP POP SWAP3 SWAP2 POP POP JUMP JUMPDEST PUSH0 PUSH1 0x60 DUP3 ADD SWAP1 POP DUP2 DUP2 SUB PUSH0 DUP4 ADD MSTORE PUSH2 0x3F92 DUP2 DUP7 PUSH2 0x3F42 JUMP JUMPDEST SWAP1 POP DUP2 DUP2 SUB PUSH1 0x20 DUP4 ADD MSTORE PUSH2 0x3FA6 DUP2 DUP6 PUSH2 0x3F42 JUMP JUMPDEST SWAP1 POP DUP2 DUP2 SUB PUSH1 0x40 DUP4 ADD MSTORE PUSH2 0x3FBA DUP2 DUP5 PUSH2 0x3F42 JUMP JUMPDEST SWAP1 POP SWAP5 SWAP4 POP POP POP POP JUMP JUMPDEST PUSH0 DUP2 SWAP1 POP SWAP2 SWAP1 POP JUMP JUMPDEST PUSH2 0x3FD6 DUP2 PUSH2 0x3FC4 JUMP JUMPDEST DUP2 EQ PUSH2 0x3FE0 JUMPI PUSH0 PUSH0 REVERT JUMPDEST POP JUMP JUMPDEST PUSH0 DUP2 CALLDATALOAD SWAP1 POP PUSH2 0x3FF1 DUP2 PUSH2 0x3FCD JUMP JUMPDEST SWAP3 SWAP2 POP POP JUMP JUMPDEST PUSH0 PUSH0 REVERT JUMPDEST PUSH0 PUSH0 REVERT JUMPDEST PUSH0 PUSH0 REVERT JUMPDEST PUSH0 PUSH0 DUP4 PUSH1 0x1F DUP5 ADD SLT PUSH2 0x4018 JUMPI PUSH2 0x4017 PUSH2 0x3FF7 JUMP JUMPDEST JUMPDEST DUP3 CALLDATALOAD SWAP1 POP PUSH8 0xFFFFFFFFFFFFFFFF DUP2 GT ISZERO PUSH2 0x4035 JUMPI PUSH2 0x4034 PUSH2 0x3FFB JUMP JUMPDEST JUMPDEST PUSH1 0x20 DUP4 ADD SWAP2 POP DUP4 PUSH1 0x1 DUP3 MUL DUP4 ADD GT ISZERO PUSH2 0x4051 JUMPI PUSH2 0x4050 PUSH2 0x3FFF JUMP JUMPDEST JUMPDEST SWAP3 POP SWAP3 SWAP1 POP JUMP JUMPDEST PUSH0 DUP2 SWAP1 POP SWAP2 SWAP1 POP JUMP JUMPDEST PUSH2 0x406A DUP2 PUSH2 0x4058 JUMP JUMPDEST DUP2 EQ PUSH2 0x4074 JUMPI PUSH0 PUSH0 REVERT JUMPDEST POP JUMP JUMPDEST PUSH0 DUP2 CALLDATALOAD SWAP1 POP PUSH2 0x4085 DUP2 PUSH2 0x4061 JUMP JUMPDEST SWAP3 SWAP2 POP POP JUMP JUMPDEST PUSH0 PUSH0 PUSH0 PUSH0 PUSH0 PUSH0 PUSH0 PUSH0 PUSH1 0xA0 DUP10 DUP12 SUB SLT ISZERO PUSH2 0x40A7 JUMPI PUSH2 0x40A6 PUSH2 0x3E7D JUMP JUMPDEST JUMPDEST PUSH0 PUSH2 0x40B4 DUP12 DUP3 DUP13 ADD PUSH2 0x3FE3 JUMP JUMPDEST SWAP9 POP POP PUSH1 0x20 DUP10 ADD CALLDATALOAD PUSH8 0xFFFFFFFFFFFFFFFF DUP2 GT ISZERO PUSH2 0x40D5 JUMPI PUSH2 0x40D4 PUSH2 0x3E81 JUMP JUMPDEST JUMPDEST PUSH2 0x40E1 DUP12 DUP3 DUP13 ADD PUSH2 0x4003 JUMP JUMPDEST SWAP8 POP SWAP8 POP POP PUSH1 0x40 DUP10 ADD CALLDATALOAD PUSH8 0xFFFFFFFFFFFFFFFF DUP2 GT ISZERO PUSH2 0x4104 JUMPI PUSH2 0x4103 PUSH2 0x3E81 JUMP JUMPDEST JUMPDEST PUSH2 0x4110 DUP12 DUP3 DUP13 ADD PUSH2 0x4003 JUMP JUMPDEST SWAP6 POP SWAP6 POP POP PUSH1 0x60 DUP10 ADD CALLDATALOAD PUSH8 0xFFFFFFFFFFFFFFFF DUP2 GT ISZERO PUSH2 0x4133 JUMPI PUSH2 0x4132 PUSH2 0x3E81 JUMP JUMPDEST JUMPDEST PUSH2 0x413F DUP12 DUP3 DUP13 ADD PUSH2 0x4003 JUMP JUMPDEST SWAP4 POP SWAP4 POP POP PUSH1 0x80 PUSH2 0x4152 DUP12 DUP3 DUP13 ADD PUSH2 0x4077 JUMP JUMPDEST SWAP2 POP POP SWAP3 SWAP6 SWAP9 POP SWAP3 SWAP6 SWAP9 SWAP1 SWAP4 SWAP7 POP JUMP JUMPDEST PUSH0 DUP2 ISZERO ISZERO SWAP1 POP SWAP2 SWAP1 POP JUMP JUMPDEST PUSH2 0x4176 DUP2 PUSH2 0x4162 JUMP JUMPDEST DUP3 MSTORE POP POP JUMP JUMPDEST PUSH0 PUSH1 0x20 DUP3 ADD SWAP1 POP PUSH2 0x418F PUSH0 DUP4 ADD DUP5 PUSH2 0x416D JUMP JUMPDEST SWAP3 SWAP2 POP POP JUMP JUMPDEST PUSH0 PUSH0 PUSH0 PUSH1 0x40 DUP5 DUP7 SUB SLT ISZERO PUSH2 0x41AC JUMPI PUSH2 0x41AB PUSH2 0x3E7D JUMP JUMPDEST JUMPDEST PUSH0 PUSH2 0x41B9 DUP7 DUP3 DUP8 ADD PUSH2 0x3FE3 JUMP JUMPDEST SWAP4 POP POP PUSH1 0x20 DUP5 ADD CALLDATALOAD PUSH8 0xFFFFFFFFFFFFFFFF DUP2 GT ISZERO PUSH2 0x41DA JUMPI PUSH2 0x41D9 PUSH2 0x3E81 JUMP JUMPDEST JUMPDEST PUSH2 0x41E6 DUP7 DUP3 DUP8 ADD PUSH2 0x4003 JUMP JUMPDEST SWAP3 POP SWAP3 POP POP SWAP3 POP SWAP3 POP SWAP3 JUMP JUMPDEST PUSH0 PUSH0 PUSH0 PUSH0 PUSH0 PUSH0 PUSH1 0x60 DUP8 DUP10 SUB SLT ISZERO PUSH2 0x420C JUMPI PUSH2 0x420B PUSH2 0x3E7D JUMP JUMPDEST JUMPDEST PUSH0 DUP8 ADD CALLDATALOAD PUSH8 0xFFFFFFFFFFFFFFFF DUP2 GT ISZERO PUSH2 0x4229 JUMPI PUSH2 0x4228 PUSH2 0x3E81 JUMP JUMPDEST JUMPDEST PUSH2 0x4235 DUP10 DUP3 DUP11 ADD PUSH2 0x4003 JUMP JUMPDEST SWAP7 POP SWAP7 POP POP PUSH1 0x20 DUP8 ADD CALLDATALOAD PUSH8 0xFFFFFFFFFFFFFFFF DUP2 GT ISZERO PUSH2 0x4258 JUMPI PUSH2 0x4257 PUSH2 0x3E81 JUMP JUMPDEST JUMPDEST PUSH2 0x4264 DUP10 DUP3 DUP11 ADD PUSH2 0x4003 JUMP JUMPDEST SWAP5 POP SWAP5 POP POP PUSH1 0x40 DUP8 ADD CALLDATALOAD PUSH8 0xFFFFFFFFFFFFFFFF DUP2 GT ISZERO PUSH2 0x4287 JUMPI PUSH2 0x4286 PUSH2 0x3E81 JUMP JUMPDEST JUMPDEST PUSH2 0x4293 DUP10 DUP3 DUP11 ADD PUSH2 0x4003 JUMP JUMPDEST SWAP3 POP SWAP3 POP POP SWAP3 SWAP6 POP SWAP3 SWAP6 POP SWAP3 SWAP6 JUMP JUMPDEST PUSH0 PUSH1 0x20 DUP3 DUP5 SUB SLT ISZERO PUSH2 0x42B7 JUMPI PUSH2 0x42B6 PUSH2 0x3E7D JUMP JUMPDEST JUMPDEST PUSH0 PUSH2 0x42C4 DUP5 DUP3 DUP6 ADD PUSH2 0x3FE3 JUMP JUMPDEST SWAP2 POP POP SWAP3 SWAP2 POP POP JUMP JUMPDEST PUSH0 PUSH1 0x20 DUP3 DUP5 SUB SLT ISZERO PUSH2 0x42E2 JUMPI PUSH2 0x42E1 PUSH2 0x3E7D JUMP JUMPDEST JUMPDEST PUSH0 PUSH2 0x42EF DUP5 DUP3 DUP6 ADD PUSH2 0x4077 JUMP JUMPDEST SWAP2 POP POP SWAP3 SWAP2 POP POP JUMP JUMPDEST PUSH2 0x4301 DUP2 PUSH2 0x4058 JUMP JUMPDEST DUP3 MSTORE POP POP JUMP JUMPDEST PUSH0 PUSH1 0x80 DUP3 ADD SWAP1 POP PUSH2 0x431A PUSH0 DUP4 ADD DUP8 PUSH2 0x42F8 JUMP JUMPDEST PUSH2 0x4327 PUSH1 0x20 DUP4 ADD DUP7 PUSH2 0x42F8 JUMP JUMPDEST PUSH2 0x4334 PUSH1 0x40 DUP4 ADD DUP6 PUSH2 0x42F8 JUMP JUMPDEST PUSH2 0x4341 PUSH1 0x60 DUP4 ADD DUP5 PUSH2 0x42F8 JUMP JUMPDEST SWAP6 SWAP5 POP POP POP POP POP JUMP JUMPDEST PUSH0 PUSH0 PUSH0 PUSH0 PUSH1 0x60 DUP6 DUP8 SUB SLT ISZERO PUSH2 0x4362 JUMPI PUSH2 0x4361 PUSH2 0x3E7D JUMP JUMPDEST JUMPDEST PUSH0 PUSH2 0x436F DUP8 DUP3 DUP9 ADD PUSH2 0x3FE3 JUMP JUMPDEST SWAP5 POP POP PUSH1 0x20 PUSH2 0x4380 DUP8 DUP3 DUP9 ADD PUSH2 0x3ECB JUMP JUMPDEST SWAP4 POP POP PUSH1 0x40 DUP6 ADD CALLDATALOAD PUSH8 0xFFFFFFFFFFFFFFFF DUP2 GT ISZERO PUSH2 0x43A1 JUMPI PUSH2 0x43A0 PUSH2 0x3E81 JUMP JUMPDEST JUMPDEST PUSH2 0x43AD DUP8 DUP3 DUP9 ADD PUSH2 0x4003 JUMP JUMPDEST SWAP3 POP SWAP3 POP POP SWAP3 SWAP6 SWAP2 SWAP5 POP SWAP3 POP JUMP JUMPDEST PUSH2 0x43C4 DUP2 PUSH2 0x4162 JUMP JUMPDEST DUP2 EQ PUSH2 0x43CE JUMPI PUSH0 PUSH0 REVERT JUMPDEST POP JUMP JUMPDEST PUSH0 DUP2 CALLDATALOAD SWAP1 POP PUSH2 0x43DF DUP2 PUSH2 0x43BB JUMP JUMPDEST SWAP3 SWAP2 POP POP JUMP JUMPDEST PUSH0 PUSH0 PUSH0 PUSH0 PUSH0 PUSH0 PUSH1 0x80 DUP8 DUP10 SUB SLT ISZERO PUSH2 0x43FF JUMPI PUSH2 0x43FE PUSH2 0x3E7D JUMP JUMPDEST JUMPDEST PUSH0 PUSH2 0x440C DUP10 DUP3 DUP11 ADD PUSH2 0x3FE3 JUMP JUMPDEST SWAP7 POP POP PUSH1 0x20 PUSH2 0x441D DUP10 DUP3 DUP11 ADD PUSH2 0x43D1 JUMP JUMPDEST SWAP6 POP POP PUSH1 0x40 DUP8 ADD CALLDATALOAD PUSH8 0xFFFFFFFFFFFFFFFF DUP2 GT ISZERO PUSH2 0x443E JUMPI PUSH2 0x443D PUSH2 0x3E81 JUMP JUMPDEST JUMPDEST PUSH2 0x444A DUP10 DUP3 DUP11 ADD PUSH2 0x4003 JUMP JUMPDEST SWAP5 POP SWAP5 POP POP PUSH1 0x60 DUP8 ADD CALLDATALOAD PUSH8 0xFFFFFFFFFFFFFFFF DUP2 GT ISZERO PUSH2 0x446D JUMPI PUSH2 0x446C PUSH2 0x3E81 JUMP JUMPDEST JUMPDEST PUSH2 0x4479 DUP10 DUP3 DUP11 ADD PUSH2 0x4003 JUMP JUMPDEST SWAP3 POP SWAP3 POP POP SWAP3 SWAP6 POP SWAP3 SWAP6 POP SWAP3 SWAP6 JUMP JUMPDEST PUSH0 PUSH0 PUSH0 PUSH0 PUSH1 0x60 DUP6 DUP8 SUB SLT ISZERO PUSH2 0x44A0 JUMPI PUSH2 0x449F PUSH2 0x3E7D JUMP JUMPDEST JUMPDEST PUSH0 PUSH2 0x44AD DUP8 DUP3 DUP9 ADD PUSH2 0x3FE3 JUMP JUMPDEST SWAP5 POP POP PUSH1 0x20 PUSH2 0x44BE DUP8 DUP3 DUP9 ADD PUSH2 0x4077 JUMP JUMPDEST SWAP4 POP POP PUSH1 0x40 DUP6 ADD CALLDATALOAD PUSH8 0xFFFFFFFFFFFFFFFF DUP2 GT ISZERO PUSH2 0x44DF JUMPI PUSH2 0x44DE PUSH2 0x3E81 JUMP JUMPDEST JUMPDEST PUSH2 0x44EB DUP8 DUP3 DUP9 ADD PUSH2 0x4003 JUMP JUMPDEST SWAP3 POP SWAP3 POP POP SWAP3 SWAP6 SWAP2 SWAP5 POP SWAP3 POP JUMP JUMPDEST PUSH2 0x4502 DUP2 PUSH2 0x3FC4 JUMP JUMPDEST DUP3 MSTORE POP POP JUMP JUMPDEST PUSH0 PUSH1 0x20 DUP3 ADD SWAP1 POP PUSH2 0x451B PUSH0 DUP4 ADD DUP5 PUSH2 0x44F9 JUMP JUMPDEST SWAP3 SWAP2 POP POP JUMP JUMPDEST PUSH2 0x452A DUP2 PUSH2 0x3EA4 JUMP JUMPDEST DUP3 MSTORE POP POP JUMP JUMPDEST PUSH0 PUSH1 0xA0 DUP3 ADD SWAP1 POP PUSH2 0x4543 PUSH0 DUP4 ADD DUP9 PUSH2 0x44F9 JUMP JUMPDEST PUSH2 0x4550 PUSH1 0x20 DUP4 ADD DUP8 PUSH2 0x416D JUMP JUMPDEST DUP2 DUP2 SUB PUSH1 0x40 DUP4 ADD MSTORE PUSH2 0x4562 DUP2 DUP7 PUSH2 0x3F42 JUMP JUMPDEST SWAP1 POP DUP2 DUP2 SUB PUSH1 0x60 DUP4 ADD MSTORE PUSH2 0x4576 DUP2 DUP6 PUSH2 0x3F42 JUMP JUMPDEST SWAP1 POP PUSH2 0x4585 PUSH1 0x80 DUP4 ADD DUP5 PUSH2 0x4521 JUMP JUMPDEST SWAP7 SWAP6 POP POP POP POP POP POP JUMP JUMPDEST PUSH0 PUSH1 0xA0 DUP3 ADD SWAP1 POP PUSH2 0x45A2 PUSH0 DUP4 ADD DUP9 PUSH2 0x44F9 JUMP JUMPDEST PUSH2 0x45AF PUSH1 0x20 DUP4 ADD DUP8 PUSH2 0x42F8 JUMP JUMPDEST DUP2 DUP2 SUB PUSH1 0x40 DUP4 ADD MSTORE PUSH2 0x45C1 DUP2 DUP7 PUSH2 0x3F42 JUMP JUMPDEST SWAP1 POP DUP2 DUP2 SUB PUSH1 0x60 DUP4 ADD MSTORE PUSH2 0x45D5 DUP2 DUP6 PUSH2 0x3F42 JUMP JUMPDEST SWAP1 POP PUSH2 0x45E4 PUSH1 0x80 DUP4 ADD DUP5 PUSH2 0x4521 JUMP JUMPDEST SWAP7 SWAP6 POP POP POP POP POP POP JUMP JUMPDEST PUSH0 PUSH1 0x20 DUP3 ADD SWAP1 POP PUSH2 0x4601 PUSH0 DUP4 ADD DUP5 PUSH2 0x4521 JUMP JUMPDEST SWAP3 SWAP2 POP POP JUMP JUMPDEST PUSH32 0x4E487B7100000000000000000000000000000000000000000000000000000000 PUSH0 MSTORE PUSH1 0x21 PUSH1 0x4 MSTORE PUSH1 0x24 PUSH0 REVERT JUMPDEST PUSH1 0x7 DUP2 LT PUSH2 0x4645 JUMPI PUSH2 0x4644 PUSH2 0x4607 JUMP JUMPDEST JUMPDEST POP JUMP JUMPDEST PUSH0 DUP2 SWAP1 POP PUSH2 0x4655 DUP3 PUSH2 0x4634 JUMP JUMPDEST SWAP2 SWAP1 POP JUMP JUMPDEST PUSH0 PUSH2 0x4664 DUP3 PUSH2 0x4648 JUMP JUMPDEST SWAP1 POP SWAP2 SWAP1 POP JUMP JUMPDEST PUSH2 0x4674 DUP2 PUSH2 0x465A JUMP JUMPDEST DUP3 MSTORE POP POP JUMP JUMPDEST PUSH0 PUSH2 0x100 DUP3 ADD SWAP1 POP PUSH2 0x468E PUSH0 DUP4 ADD DUP12 PUSH2 0x44F9 JUMP JUMPDEST DUP2 DUP2 SUB PUSH1 0x20 DUP4 ADD MSTORE PUSH2 0x46A0 DUP2 DUP11 PUSH2 0x3F42 JUMP JUMPDEST SWAP1 POP DUP2 DUP2 SUB PUSH1 0x40 DUP4 ADD MSTORE PUSH2 0x46B4 DUP2 DUP10 PUSH2 0x3F42 JUMP JUMPDEST SWAP1 POP DUP2 DUP2 SUB PUSH1 0x60 DUP4 ADD MSTORE PUSH2 0x46C8 DUP2 DUP9 PUSH2 0x3F42 JUMP JUMPDEST SWAP1 POP PUSH2 0x46D7 PUSH1 0x80 DUP4 ADD DUP8 PUSH2 0x42F8 JUMP JUMPDEST PUSH2 0x46E4 PUSH1 0xA0 DUP4 ADD DUP7 PUSH2 0x466B JUMP JUMPDEST PUSH2 0x46F1 PUSH1 0xC0 DUP4 ADD DUP6 PUSH2 0x4521 JUMP JUMPDEST DUP2 DUP2 SUB PUSH1 0xE0 DUP4 ADD MSTORE PUSH2 0x4703 DUP2 DUP5 PUSH2 0x3F42 JUMP JUMPDEST SWAP1 POP SWAP10 SWAP9 POP POP POP POP POP POP POP POP POP JUMP JUMPDEST PUSH0 PUSH1 0xE0 DUP3 ADD SWAP1 POP PUSH2 0x4725 PUSH0 DUP4 ADD DUP11 PUSH2 0x44F9 JUMP JUMPDEST PUSH2 0x4732 PUSH1 0x20 DUP4 ADD DUP10 PUSH2 0x416D JUMP JUMPDEST DUP2 DUP2 SUB PUSH1 0x40 DUP4 ADD MSTORE PUSH2 0x4744 DUP2 DUP9 PUSH2 0x3F42 JUMP JUMPDEST SWAP1 POP PUSH2 0x4753 PUSH1 0x60 DUP4 ADD DUP8 PUSH2 0x416D JUMP JUMPDEST DUP2 DUP2 SUB PUSH1 0x80 DUP4 ADD MSTORE PUSH2 0x4765 DUP2 DUP7 PUSH2 0x3F42 JUMP JUMPDEST SWAP1 POP DUP2 DUP2 SUB PUSH1 0xA0 DUP4 ADD MSTORE PUSH2 0x4779 DUP2 DUP6 PUSH2 0x3F42 JUMP JUMPDEST SWAP1 POP PUSH2 0x4788 PUSH1 0xC0 DUP4 ADD DUP5 PUSH2 0x4521 JUMP JUMPDEST SWAP9 SWAP8 POP POP POP POP POP POP POP POP JUMP JUMPDEST PUSH0 PUSH0 PUSH0 PUSH0 PUSH1 0x80 DUP6 DUP8 SUB SLT ISZERO PUSH2 0x47AC JUMPI PUSH2 0x47AB PUSH2 0x3E7D JUMP JUMPDEST JUMPDEST PUSH0 PUSH2 0x47B9 DUP8 DUP3 DUP9 ADD PUSH2 0x4077 JUMP JUMPDEST SWAP5 POP POP PUSH1 0x20 PUSH2 0x47CA DUP8 DUP3 DUP9 ADD PUSH2 0x4077 JUMP JUMPDEST SWAP4 POP POP PUSH1 0x40 PUSH2 0x47DB DUP8 DUP3 DUP9 ADD PUSH2 0x4077 JUMP JUMPDEST SWAP3 POP POP PUSH1 0x60 PUSH2 0x47EC DUP8 DUP3 DUP9 ADD PUSH2 0x4077 JUMP JUMPDEST SWAP2 POP POP SWAP3 SWAP6 SWAP2 SWAP5 POP SWAP3 POP JUMP JUMPDEST PUSH0 PUSH1 0x20 DUP3 ADD SWAP1 POP PUSH2 0x480B PUSH0 DUP4 ADD DUP5 PUSH2 0x42F8 JUMP JUMPDEST SWAP3 SWAP2 POP POP JUMP JUMPDEST PUSH32 0x4E487B7100000000000000000000000000000000000000000000000000000000 PUSH0 MSTORE PUSH1 0x22 PUSH1 0x4 MSTORE PUSH1 0x24 PUSH0 REVERT JUMPDEST PUSH0 PUSH1 0x2 DUP3 DIV SWAP1 POP PUSH1 0x1 DUP3 AND DUP1 PUSH2 0x4855 JUMPI PUSH1 0x7F DUP3 AND SWAP2 POP JUMPDEST PUSH1 0x20 DUP3 LT DUP2 SUB PUSH2 0x4868 JUMPI PUSH2 0x4867 PUSH2 0x4811 JUMP JUMPDEST JUMPDEST POP SWAP2 SWAP1 POP JUMP JUMPDEST PUSH32 0x4F6E6C79206661726D6572000000000000000000000000000000000000000000 PUSH0 DUP3 ADD MSTORE POP JUMP JUMPDEST PUSH0 PUSH2 0x48A2 PUSH1 0xB DUP4 PUSH2 0x3F14 JUMP JUMPDEST SWAP2 POP PUSH2 0x48AD DUP3 PUSH2 0x486E JUMP JUMPDEST PUSH1 0x20 DUP3 ADD SWAP1 POP SWAP2 SWAP1 POP JUMP JUMPDEST PUSH0 PUSH1 0x20 DUP3 ADD SWAP1 POP DUP2 DUP2 SUB PUSH0 DUP4 ADD MSTORE PUSH2 0x48CF DUP2 PUSH2 0x4896 JUMP JUMPDEST SWAP1 POP SWAP2 SWAP1 POP JUMP JUMPDEST PUSH32 0x43726F7020657869737473000000000000000000000000000000000000000000 PUSH0 DUP3 ADD MSTORE POP JUMP JUMPDEST PUSH0 PUSH2 0x490A PUSH1 0xB DUP4 PUSH2 0x3F14 JUMP JUMPDEST SWAP2 POP PUSH2 0x4915 DUP3 PUSH2 0x48D6 JUMP JUMPDEST PUSH1 0x20 DUP3 ADD SWAP1 POP SWAP2 SWAP1 POP JUMP JUMPDEST PUSH0 PUSH1 0x20 DUP3 ADD SWAP1 POP DUP2 DUP2 SUB PUSH0 DUP4 ADD MSTORE PUSH2 0x4937 DUP2 PUSH2 0x48FE JUMP JUMPDEST SWAP1 POP SWAP2 SWAP1 POP JUMP JUMPDEST PUSH32 0x4E487B7100000000000000000000000000000000000000000000000000000000 PUSH0 MSTORE PUSH1 0x41 PUSH1 0x4 MSTORE PUSH1 0x24 PUSH0 REVERT JUMPDEST PUSH0 DUP2 SWAP1 POP DUP2 PUSH0 MSTORE PUSH1 0x20 PUSH0 KECCAK256 SWAP1 POP SWAP2 SWAP1 POP JUMP JUMPDEST PUSH0 PUSH1 0x20 PUSH1 0x1F DUP4 ADD DIV SWAP1 POP SWAP2 SWAP1 POP JUMP JUMPDEST PUSH0 DUP3 DUP3 SHL SWAP1 POP SWAP3 SWAP2 POP POP JUMP JUMPDEST PUSH0 PUSH1 0x8 DUP4 MUL PUSH2 0x49C7 PUSH32 0xFFFFFFFFFFFFFFFFFFFFFFFFFFFFFFFFFFFFFFFFFFFFFFFFFFFFFFFFFFFFFFFF DUP3 PUSH2 0x498C JUMP JUMPDEST PUSH2 0x49D1 DUP7 DUP4 PUSH2 0x498C JUMP JUMPDEST SWAP6 POP DUP1 NOT DUP5 AND SWAP4 POP DUP1 DUP7 AND DUP5 OR SWAP3 POP POP POP SWAP4 SWAP3 POP POP POP JUMP JUMPDEST PUSH0 DUP2 SWAP1 POP SWAP2 SWAP1 POP JUMP JUMPDEST PUSH0 PUSH2 0x4A0C PUSH2 0x4A07 PUSH2 0x4A02 DUP5 PUSH2 0x4058 JUMP JUMPDEST PUSH2 0x49E9 JUMP JUMPDEST PUSH2 0x4058 JUMP JUMPDEST SWAP1 POP SWAP2 SWAP1 POP JUMP JUMPDEST PUSH0 DUP2 SWAP1 POP SWAP2 SWAP1 POP JUMP JUMPDEST PUSH2 0x4A25 DUP4 PUSH2 0x49F2 JUMP JUMPDEST PUSH2 0x4A39 PUSH2 0x4A31 DUP3 PUSH2 0x4A13 JUMP JUMPDEST DUP5 DUP5 SLOAD PUSH2 0x4998 JUMP JUMPDEST DUP3 SSTORE POP POP POP POP JUMP JUMPDEST PUSH0 PUSH0 SWAP1 POP SWAP1 JUMP JUMPDEST PUSH2 0x4A50 PUSH2 0x4A41 JUMP JUMPDEST PUSH2 0x4A5B DUP2 DUP5 DUP5 PUSH2 0x4A1C JUMP JUMPDEST POP POP POP JUMP JUMPDEST JUMPDEST DUP2 DUP2 LT ISZERO PUSH2 0x4A7E JUMPI PUSH2 0x4A73 PUSH0 DUP3 PUSH2 0x4A48 JUMP JUMPDEST PUSH1 0x1 DUP2 ADD SWAP1 POP PUSH2 0x4A61 JUMP JUMPDEST POP POP JUMP JUMPDEST PUSH1 0x1F DUP3 GT ISZERO PUSH2 0x4AC3 JUMPI PUSH2 0x4A94 DUP2 PUSH2 0x496B JUMP JUMPDEST PUSH2 0x4A9D DUP5 PUSH2 0x497D JUMP JUMPDEST DUP2 ADD PUSH1 0x20 DUP6 LT ISZERO PUSH2 0x4AAC JUMPI DUP2 SWAP1 POP JUMPDEST PUSH2 0x4AC0 PUSH2 0x4AB8 DUP6 PUSH2 0x497D JUMP JUMPDEST DUP4 ADD DUP3 PUSH2 0x4A60 JUMP JUMPDEST POP POP JUMPDEST POP POP POP JUMP JUMPDEST PUSH0 DUP3 DUP3 SHR SWAP1 POP SWAP3 SWAP2 POP POP JUMP JUMPDEST PUSH0 PUSH2 0x4AE3 PUSH0 NOT DUP5 PUSH1 0x8 MUL PUSH2 0x4AC8 JUMP JUMPDEST NOT DUP1 DUP4 AND SWAP2 POP POP SWAP3 SWAP2 POP POP JUMP JUMPDEST PUSH0 PUSH2 0x4AFB DUP4 DUP4 PUSH2 0x4AD4 JUMP JUMPDEST SWAP2 POP DUP3 PUSH1 0x2 MUL DUP3 OR SWAP1 POP SWAP3 SWAP2 POP POP JUMP JUMPDEST PUSH2 0x4B14 DUP3 PUSH2 0x3F0A JUMP JUMPDEST PUSH8 0xFFFFFFFFFFFFFFFF DUP2 GT ISZERO PUSH2 0x4B2D JUMPI PUSH2 0x4B2C PUSH2 0x493E JUMP JUMPDEST JUMPDEST PUSH2 0x4B37 DUP3 SLOAD PUSH2 0x483E JUMP JUMPDEST PUSH2 0x4B42 DUP3 DUP3 DUP6 PUSH2 0x4A82 JUMP JUMPDEST PUSH0 PUSH1 0x20 SWAP1 POP PUSH1 0x1F DUP4 GT PUSH1 0x1 DUP2 EQ PUSH2 0x4B73 JUMPI PUSH0 DUP5 ISZERO PUSH2 0x4B61 JUMPI DUP3 DUP8 ADD MLOAD SWAP1 POP JUMPDEST PUSH2 0x4B6B DUP6 DUP3 PUSH2 0x4AF0 JUMP JUMPDEST DUP7 SSTORE POP PUSH2 0x4BD2 JUMP JUMPDEST PUSH1 0x1F NOT DUP5 AND PUSH2 0x4B81 DUP7 PUSH2 0x496B JUMP JUMPDEST PUSH0 JUMPDEST DUP3 DUP2 LT ISZERO PUSH2 0x4BA8 JUMPI DUP5 DUP10 ADD MLOAD DUP3 SSTORE PUSH1 0x1 DUP3 ADD SWAP2 POP PUSH1 0x20 DUP6 ADD SWAP5 POP PUSH1 0x20 DUP2 ADD SWAP1 POP PUSH2 0x4B83 JUMP JUMPDEST DUP7 DUP4 LT ISZERO PUSH2 0x4BC5 JUMPI DUP5 DUP10 ADD MLOAD PUSH2 0x4BC1 PUSH1 0x1F DUP10 AND DUP3 PUSH2 0x4AD4 JUMP JUMPDEST DUP4 SSTORE POP JUMPDEST PUSH1 0x1 PUSH1 0x2 DUP9 MUL ADD DUP9 SSTORE POP POP POP JUMPDEST POP POP POP POP POP POP JUMP JUMPDEST DUP3 DUP2 DUP4 CALLDATACOPY PUSH0 DUP4 DUP4 ADD MSTORE POP POP POP JUMP JUMPDEST PUSH0 PUSH2 0x4BF3 DUP4 DUP6 PUSH2 0x3F14 JUMP JUMPDEST SWAP4 POP PUSH2 0x4C00 DUP4 DUP6 DUP5 PUSH2 0x4BDA JUMP JUMPDEST PUSH2 0x4C09 DUP4 PUSH2 0x3F32 JUMP JUMPDEST DUP5 ADD SWAP1 POP SWAP4 SWAP3 POP POP POP JUMP JUMPDEST PUSH0 PUSH1 0x60 DUP3 ADD SWAP1 POP PUSH2 0x4C27 PUSH0 DUP4 ADD DUP8 PUSH2 0x44F9 JUMP JUMPDEST DUP2 DUP2 SUB PUSH1 0x20 DUP4 ADD MSTORE PUSH2 0x4C3A DUP2 DUP6 DUP8 PUSH2 0x4BE8 JUMP JUMPDEST SWAP1 POP PUSH2 0x4C49 PUSH1 0x40 DUP4 ADD DUP5 PUSH2 0x42F8 JUMP JUMPDEST SWAP6 SWAP5 POP POP POP POP POP JUMP JUMPDEST PUSH32 0x4F6E6C792061676772656761746F720000000000000000000000000000000000 PUSH0 DUP3 ADD MSTORE POP JUMP JUMPDEST PUSH0 PUSH2 0x4C86 PUSH1 0xF DUP4 PUSH2 0x3F14 JUMP JUMPDEST SWAP2 POP PUSH2 0x4C91 DUP3 PUSH2 0x4C52 JUMP JUMPDEST PUSH1 0x20 DUP3 ADD SWAP1 POP SWAP2 SWAP1 POP JUMP JUMPDEST PUSH0 PUSH1 0x20 DUP3 ADD SWAP1 POP DUP2 DUP2 SUB PUSH0 DUP4 ADD MSTORE PUSH2 0x4CB3 DUP2 PUSH2 0x4C7A JUMP JUMPDEST SWAP1 POP SWAP2 SWAP1 POP JUMP JUMPDEST PUSH32 0x4E6F742072656365697665640000000000000000000000000000000000000000 PUSH0 DUP3 ADD MSTORE POP JUMP JUMPDEST PUSH0 PUSH2 0x4CEE PUSH1 0xC DUP4 PUSH2 0x3F14 JUMP JUMPDEST SWAP2 POP PUSH2 0x4CF9 DUP3 PUSH2 0x4CBA JUMP JUMPDEST PUSH1 0x20 DUP3 ADD SWAP1 POP SWAP2 SWAP1 POP JUMP JUMPDEST PUSH0 PUSH1 0x20 DUP3 ADD SWAP1 POP DUP2 DUP2 SUB PUSH0 DUP4 ADD MSTORE PUSH2 0x4D1B DUP2 PUSH2 0x4CE2 JUMP JUMPDEST SWAP1 POP SWAP2 SWAP1 POP JUMP JUMPDEST PUSH0 DUP3 SWAP1 POP SWAP3 SWAP2 POP POP JUMP JUMPDEST PUSH2 0x4D36 DUP4 DUP4 PUSH2 0x4D22 JUMP JUMPDEST PUSH8 0xFFFFFFFFFFFFFFFF DUP2 GT ISZERO PUSH2 0x4D4F JUMPI PUSH2 0x4D4E PUSH2 0x493E JUMP JUMPDEST JUMPDEST PUSH2 0x4D59 DUP3 SLOAD PUSH2 0x483E JUMP JUMPDEST PUSH2 0x4D64 DUP3 DUP3 DUP6 PUSH2 0x4A82 JUMP JUMPDEST PUSH0 PUSH1 0x1F DUP4 GT PUSH1 0x1 DUP2 EQ PUSH2 0x4D91 JUMPI PUSH0 DUP5 ISZERO PUSH2 0x4D7F JUMPI DUP3 DUP8 ADD CALLDATALOAD SWAP1 POP JUMPDEST PUSH2 0x4D89 DUP6 DUP3 PUSH2 0x4AF0 JUMP JUMPDEST DUP7 SSTORE POP PUSH2 0x4DF0 JUMP JUMPDEST PUSH1 0x1F NOT DUP5 AND PUSH2 0x4D9F DUP7 PUSH2 0x496B JUMP JUMPDEST PUSH0 JUMPDEST DUP3 DUP2 LT ISZERO PUSH2 0x4DC6 JUMPI DUP5 DUP10 ADD CALLDATALOAD DUP3 SSTORE PUSH1 0x1 DUP3 ADD SWAP2 POP PUSH1 0x20 DUP6 ADD SWAP5 POP PUSH1 0x20 DUP2 ADD SWAP1 POP PUSH2 0x4DA1 JUMP JUMPDEST DUP7 DUP4 LT ISZERO PUSH2 0x4DE3 JUMPI DUP5 DUP10 ADD CALLDATALOAD PUSH2 0x4DDF PUSH1 0x1F DUP10 AND DUP3 PUSH2 0x4AD4 JUMP JUMPDEST DUP4 SSTORE POP JUMPDEST PUSH1 0x1 PUSH1 0x2 DUP9 MUL ADD DUP9 SSTORE POP POP POP JUMPDEST POP POP POP POP POP POP POP JUMP JUMPDEST PUSH0 PUSH1 0x40 DUP3 ADD SWAP1 POP PUSH2 0x4E0C PUSH0 DUP4 ADD DUP7 PUSH2 0x44F9 JUMP JUMPDEST DUP2 DUP2 SUB PUSH1 0x20 DUP4 ADD MSTORE PUSH2 0x4E1F DUP2 DUP5 DUP7 PUSH2 0x4BE8 JUMP JUMPDEST SWAP1 POP SWAP5 SWAP4 POP POP POP POP JUMP JUMPDEST PUSH32 0x416C726561647920726567697374657265640000000000000000000000000000 PUSH0 DUP3 ADD MSTORE POP JUMP JUMPDEST PUSH0 PUSH2 0x4E5D PUSH1 0x12 DUP4 PUSH2 0x3F14 JUMP JUMPDEST SWAP2 POP PUSH2 0x4E68 DUP3 PUSH2 0x4E29 JUMP JUMPDEST PUSH1 0x20 DUP3 ADD SWAP1 POP SWAP2 SWAP1 POP JUMP JUMPDEST PUSH0 PUSH1 0x20 DUP3 ADD SWAP1 POP DUP2 DUP2 SUB PUSH0 DUP4 ADD MSTORE PUSH2 0x4E8A DUP2 PUSH2 0x4E51 JUMP JUMPDEST SWAP1 POP SWAP2 SWAP1 POP JUMP JUMPDEST PUSH0 PUSH1 0x40 DUP3 ADD SWAP1 POP PUSH2 0x4EA4 PUSH0 DUP4 ADD DUP7 PUSH2 0x4521 JUMP JUMPDEST DUP2 DUP2 SUB PUSH1 0x20 DUP4 ADD MSTORE PUSH2 0x4EB7 DUP2 DUP5 DUP7 PUSH2 0x4BE8 JUMP JUMPDEST SWAP1 POP SWAP5 SWAP4 POP POP POP POP JUMP JUMPDEST PUSH32 0x4F6E6C792072657461696C657200000000000000000000000000000000000000 PUSH0 DUP3 ADD MSTORE POP JUMP JUMPDEST PUSH0 PUSH2 0x4EF5 PUSH1 0xD DUP4 PUSH2 0x3F14 JUMP JUMPDEST SWAP2 POP PUSH2 0x4F00 DUP3 PUSH2 0x4EC1 JUMP JUMPDEST PUSH1 0x20 DUP3 ADD SWAP1 POP SWAP2 SWAP1 POP JUMP JUMPDEST PUSH0 PUSH1 0x20 DUP3 ADD SWAP1 POP DUP2 DUP2 SUB PUSH0 DUP4 ADD MSTORE PUSH2 0x4F22 DUP2 PUSH2 0x4EE9 JUMP JUMPDEST SWAP1 POP SWAP2 SWAP1 POP JUMP JUMPDEST PUSH32 0x4E6F7420686F6C64657200000000000000000000000000000000000000000000 PUSH0 DUP3 ADD MSTORE POP JUMP JUMPDEST PUSH0 PUSH2 0x4F5D PUSH1 0xA DUP4 PUSH2 0x3F14 JUMP JUMPDEST SWAP2 POP PUSH2 0x4F68 DUP3 PUSH2 0x4F29 JUMP JUMPDEST PUSH1 0x20 DUP3 ADD SWAP1 POP SWAP2 SWAP1 POP JUMP JUMPDEST PUSH0 PUSH1 0x20 DUP3 ADD SWAP1 POP DUP2 DUP2 SUB PUSH0 DUP4 ADD MSTORE PUSH2 0x4F8A DUP2 PUSH2 0x4F51 JUMP JUMPDEST SWAP1 POP SWAP2 SWAP1 POP JUMP JUMPDEST PUSH0 PUSH1 0x40 DUP3 ADD SWAP1 POP PUSH2 0x4FA4 PUSH0 DUP4 ADD DUP6 PUSH2 0x44F9 JUMP JUMPDEST PUSH2 0x4FB1 PUSH1 0x20 DUP4 ADD DUP5 PUSH2 0x4521 JUMP JUMPDEST SWAP4 SWAP3 POP POP POP JUMP JUMPDEST PUSH32 0x4F6E6C7920637573746F6D657200000000000000000000000000000000000000 PUSH0 DUP3 ADD MSTORE POP JUMP JUMPDEST PUSH0 PUSH2 0x4FEC PUSH1 0xD DUP4 PUSH2 0x3F14 JUMP JUMPDEST SWAP2 POP PUSH2 0x4FF7 DUP3 PUSH2 0x4FB8 JUMP JUMPDEST PUSH1 0x20 DUP3 ADD SWAP1 POP SWAP2 SWAP1 POP JUMP JUMPDEST PUSH0 PUSH1 0x20 DUP3 ADD SWAP1 POP DUP2 DUP2 SUB PUSH0 DUP4 ADD MSTORE PUSH2 0x5019 DUP2 PUSH2 0x4FE0 JUMP JUMPDEST SWAP1 POP SWAP2 SWAP1 POP JUMP JUMPDEST PUSH32 0x4F6E6C7920737570706C69657200000000000000000000000000000000000000 PUSH0 DUP3 ADD MSTORE POP JUMP JUMPDEST PUSH0 PUSH2 0x5054 PUSH1 0xD DUP4 PUSH2 0x3F14 JUMP JUMPDEST SWAP2 POP PUSH2 0x505F DUP3 PUSH2 0x5020 JUMP JUMPDEST PUSH1 0x20 DUP3 ADD SWAP1 POP SWAP2 SWAP1 POP JUMP JUMPDEST PUSH0 PUSH1 0x20 DUP3 ADD SWAP1 POP DUP2 DUP2 SUB PUSH0 DUP4 ADD MSTORE PUSH2 0x5081 DUP2 PUSH2 0x5048 JUMP JUMPDEST SWAP1 POP SWAP2 SWAP1 POP JUMP JUMPDEST PUSH32 0x556E6B6E6F776E2063726F700000000000000000000000000000000000000000 PUSH0 DUP3 ADD MSTORE POP JUMP JUMPDEST PUSH0 PUSH2 0x50BC PUSH1 0xC DUP4 PUSH2 0x3F14 JUMP JUMPDEST SWAP2 POP PUSH2 0x50C7 DUP3 PUSH2 0x5088 JUMP JUMPDEST PUSH1 0x20 DUP3 ADD SWAP1 POP SWAP2 SWAP1 POP JUMP JUMPDEST PUSH0 PUSH1 0x20 DUP3 ADD SWAP1 POP DUP2 DUP2 SUB PUSH0 DUP4 ADD MSTORE PUSH2 0x50E9 DUP2 PUSH2 0x50B0 JUMP JUMPDEST SWAP1 POP SWAP2 SWAP1 POP JUMP JUMPDEST PUSH0 PUSH1 0x60 DUP3 ADD SWAP1 POP PUSH2 0x5103 PUSH0 DUP4 ADD DUP8 PUSH2 0x44F9 JUMP JUMPDEST PUSH2 0x5110 PUSH1 0x20 DUP4 ADD DUP7 PUSH2 0x4521 JUMP JUMPDEST DUP2 DUP2 SUB PUSH1 0x40 DUP4 ADD MSTORE PUSH2 0x5123 DUP2 DUP5 DUP7 PUSH2 0x4BE8 JUMP JUMPDEST SWAP1 POP SWAP6 SWAP5 POP POP POP POP POP JUMP JUMPDEST PUSH0 DUP2 SWAP1 POP SWAP2 SWAP1 POP JUMP JUMPDEST PUSH2 0x5148 PUSH2 0x5143 DUP3 PUSH2 0x4058 JUMP JUMPDEST PUSH2 0x512E JUMP JUMPDEST DUP3 MSTORE POP POP JUMP JUMPDEST PUSH0 DUP2 PUSH1 0x60 SHL SWAP1 POP SWAP2 SWAP1 POP JUMP JUMPDEST PUSH0 PUSH2 0x5164 DUP3 PUSH2 0x514E JUMP JUMPDEST SWAP1 POP SWAP2 SWAP1 POP JUMP JUMPDEST PUSH0 PUSH2 0x5175 DUP3 PUSH2 0x515A JUMP JUMPDEST SWAP1 POP SWAP2 SWAP1 POP JUMP JUMPDEST PUSH2 0x518D PUSH2 0x5188 DUP3 PUSH2 0x3EA4 JUMP JUMPDEST PUSH2 0x516B JUMP JUMPDEST DUP3 MSTORE POP POP JUMP JUMPDEST PUSH0 PUSH2 0x519E DUP3 DUP8 PUSH2 0x5137 JUMP JUMPDEST PUSH1 0x20 DUP3 ADD SWAP2 POP PUSH2 0x51AE DUP3 DUP7 PUSH2 0x5137 JUMP JUMPDEST PUSH1 0x20 DUP3 ADD SWAP2 POP PUSH2 0x51BE DUP3 DUP6 PUSH2 0x517C JUMP JUMPDEST PUSH1 0x14 DUP3 ADD SWAP2 POP PUSH2 0x51CE DUP3 DUP5 PUSH2 0x5137 JUMP JUMPDEST PUSH1 0x20 DUP3 ADD SWAP2 POP DUP2 SWAP1 POP SWAP6 SWAP5 POP POP POP POP POP JUMP JUMPDEST PUSH0 DUP2 MLOAD SWAP1 POP SWAP2 SWAP1 POP JUMP JUMPDEST PUSH0 DUP2 SWAP1 POP SWAP3 SWAP2 POP POP JUMP JUMPDEST PUSH0 PUSH2 0x51FE DUP3 PUSH2 0x51E0 JUMP JUMPDEST PUSH2 0x5208 DUP2 DUP6 PUSH2 0x51EA JUMP JUMPDEST SWAP4 POP PUSH2 0x5218 DUP2 DUP6 PUSH1 0x20 DUP7 ADD PUSH2 0x3F24 JUMP JUMPDEST DUP1 DUP5 ADD SWAP2 POP POP SWAP3 SWAP2 POP POP JUMP JUMPDEST PUSH0 PUSH2 0x522F DUP3 DUP5 PUSH2 0x51F4 JUMP JUMPDEST SWAP2 POP DUP2 SWAP1 POP SWAP3 SWAP2 POP POP JUMP JUMPDEST PUSH0 DUP2 MLOAD SWAP1 POP PUSH2 0x5248 DUP2 PUSH2 0x3FCD JUMP JUMPDEST SWAP3 SWAP2 POP POP JUMP JUMPDEST PUSH0 PUSH1 0x20 DUP3 DUP5 SUB SLT ISZERO PUSH2 0x5263 JUMPI PUSH2 0x5262 PUSH2 0x3E7D JUMP JUMPDEST JUMPDEST PUSH0 PUSH2 0x5270 DUP5 DUP3 DUP6 ADD PUSH2 0x523A JUMP JUMPDEST SWAP2 POP POP SWAP3 SWAP2 POP POP JUMP JUMPDEST PUSH32 0x4E487B7100000000000000000000000000000000000000000000000000000000 PUSH0 MSTORE PUSH1 0x11 PUSH1 0x4 MSTORE PUSH1 0x24 PUSH0 REVERT JUMPDEST PUSH0 PUSH2 0x52B0 DUP3 PUSH2 0x4058 JUMP JUMPDEST SWAP2 POP PUSH32 0xFFFFFFFFFFFFFFFFFFFFFFFFFFFFFFFFFFFFFFFFFFFFFFFFFFFFFFFFFFFFFFFF DUP3 SUB PUSH2 0x52E2 JUMPI PUSH2 0x52E1 PUSH2 0x5279 JUMP JUMPDEST JUMPDEST PUSH1 0x1 DUP3 ADD SWAP1 POP SWAP2 SWAP1 POP JUMP INVALID LOG2 PUSH5 0x6970667358 0x22 SLT KECCAK256 REVERT PUSH10 0xB91B6F97E3878FB9EC7B 0x29 CALLDATACOPY JUMPI PUSH5 0x81BD2D34E8 CALLVALUE PUSH30 0x31AF0F17022756C03564736F6C634300081E003300000000000000000000 "
				},
				"gasEstimates": {
					"creation": {
						"codeDepositCost": "4256600",
						"executionCost": "29176",
						"totalCost": "4285776"
					},
					"external": {
						"aggregatorDivideBatch(bytes32,string)": "infinite",
						"aggregatorProfiles(address)": "infinite",
						"aggregatorReceiveFromSupplier(bytes32,string)": "infinite",
						"aggregatorTransferToRetailer(bytes32,address,string)": "infinite",
						"aggregators(address)": "2924",
						"batches(bytes32)": "infinite",
						"consumerConfirmPurchase(bytes32,bool,string,string)": "infinite",
						"createUniqueCropID(uint256)": "infinite",
						"cropCount()": "2469",
						"cropIDs(uint256)": "2842",
						"crops(bytes32)": "infinite",
						"customerProfiles(address)": "infinite",
						"customers(address)": "2945",
						"exists(bytes32)": "2919",
						"farmerCollectCrop(bytes32,string,string,string,uint256)": "infinite",
						"farmerProfiles(address)": "infinite",
						"farmerTransferToSupplier(bytes32,address,string)": "infinite",
						"farmers(address)": "2878",
						"getFreshness(uint256)": "infinite",
						"owner()": "2575",
						"productFreshness(uint256)": "infinite",
						"purchases(bytes32)": "infinite",
						"registerAggregator(string,string,string)": "infinite",
						"registerCustomer(string,string,string)": "infinite",
						"registerFarmer(string,string,string)": "infinite",
						"registerRetailer(string,string,string)": "infinite",
						"registerSupplier(string,string,string)": "infinite",
						"retailerProfiles(address)": "infinite",
						"retailerReceiveFromAggregator(bytes32,uint256,string)": "infinite",
						"retailerTransferToConsumer(bytes32,address,string)": "infinite",
						"retailers(address)": "2944",
						"retails(bytes32)": "infinite",
						"supplierProfiles(address)": "infinite",
						"supplierReceiveFromFarmer(bytes32,uint256,string)": "infinite",
						"supplierTransferToAggregator(bytes32,address,string)": "infinite",
						"suppliers(address)": "2946",
						"supplies(bytes32)": "infinite",
						"updateFreshness(uint256,uint256,uint256,uint256)": "infinite"
					}
				},
				"methodIdentifiers": {
					"aggregatorDivideBatch(bytes32,string)": "27ed3540",
					"aggregatorProfiles(address)": "8039feef",
					"aggregatorReceiveFromSupplier(bytes32,string)": "c9820cc4",
					"aggregatorTransferToRetailer(bytes32,address,string)": "7304957b",
					"aggregators(address)": "112cdab9",
					"batches(bytes32)": "c81e25ab",
					"consumerConfirmPurchase(bytes32,bool,string,string)": "51c4add5",
					"createUniqueCropID(uint256)": "750aa2ea",
					"cropCount()": "dfd55a2c",
					"cropIDs(uint256)": "f0861b3a",
					"crops(bytes32)": "a900d628",
					"customerProfiles(address)": "49beb611",
					"customers(address)": "336989ae",
					"exists(bytes32)": "38a699a4",
					"farmerCollectCrop(bytes32,string,string,string,uint256)": "0f86a2a4",
					"farmerProfiles(address)": "92714224",
					"farmerTransferToSupplier(bytes32,address,string)": "769d0420",
					"farmers(address)": "401b2168",
					"getFreshness(uint256)": "4e3c5452",
					"owner()": "8da5cb5b",
					"productFreshness(uint256)": "5ce48268",
					"purchases(bytes32)": "7ab8dbe9",
					"registerAggregator(string,string,string)": "e9ef9cf7",
					"registerCustomer(string,string,string)": "f8e66a4d",
					"registerFarmer(string,string,string)": "29a566d2",
					"registerRetailer(string,string,string)": "4d6ec6e8",
					"registerSupplier(string,string,string)": "a1c2e79c",
					"retailerProfiles(address)": "18f13654",
					"retailerReceiveFromAggregator(bytes32,uint256,string)": "52f86467",
					"retailerTransferToConsumer(bytes32,address,string)": "4f3bedbd",
					"retailers(address)": "9a268f35",
					"retails(bytes32)": "88e46740",
					"supplierProfiles(address)": "0f5600cb",
					"supplierReceiveFromFarmer(bytes32,uint256,string)": "b71b75f4",
					"supplierTransferToAggregator(bytes32,address,string)": "6c1e9d87",
					"suppliers(address)": "16dc15fe",
					"supplies(bytes32)": "f49d66a3",
					"updateFreshness(uint256,uint256,uint256,uint256)": "d8aa4558"
				}
			},
			"storageLayout": {
				"storage": [
					{
						"astId": 365,
						"contract": "TrackSupplyChain.sol:TrackSupplyChain",
						"label": "farmers",
						"offset": 0,
						"slot": "0",
						"type": "t_mapping(t_address,t_bool)"
					},
					{
						"astId": 377,
						"contract": "TrackSupplyChain.sol:TrackSupplyChain",
						"label": "farmerProfiles",
						"offset": 0,
						"slot": "1",
						"type": "t_mapping(t_address,t_struct(FarmerProfile)372_storage)"
					},
					{
						"astId": 430,
						"contract": "TrackSupplyChain.sol:TrackSupplyChain",
						"label": "crops",
						"offset": 0,
						"slot": "2",
						"type": "t_mapping(t_bytes32,t_struct(Crop)425_storage)"
					},
					{
						"astId": 434,
						"contract": "TrackSupplyChain.sol:TrackSupplyChain",
						"label": "cropIDs",
						"offset": 0,
						"slot": "3",
						"type": "t_mapping(t_uint256,t_bytes32)"
					},
					{
						"astId": 438,
						"contract": "TrackSupplyChain.sol:TrackSupplyChain",
						"label": "exists",
						"offset": 0,
						"slot": "4",
						"type": "t_mapping(t_bytes32,t_bool)"
					},
					{
						"astId": 440,
						"contract": "TrackSupplyChain.sol:TrackSupplyChain",
						"label": "cropCount",
						"offset": 0,
						"slot": "5",
						"type": "t_uint256"
					},
					{
						"astId": 841,
						"contract": "TrackSupplyChain.sol:TrackSupplyChain",
						"label": "suppliers",
						"offset": 0,
						"slot": "6",
						"type": "t_mapping(t_address,t_bool)"
					},
					{
						"astId": 853,
						"contract": "TrackSupplyChain.sol:TrackSupplyChain",
						"label": "supplierProfiles",
						"offset": 0,
						"slot": "7",
						"type": "t_mapping(t_address,t_struct(SupplierProfile)848_storage)"
					},
					{
						"astId": 887,
						"contract": "TrackSupplyChain.sol:TrackSupplyChain",
						"label": "supplies",
						"offset": 0,
						"slot": "8",
						"type": "t_mapping(t_bytes32,t_struct(Supply)882_storage)"
					},
					{
						"astId": 5,
						"contract": "TrackSupplyChain.sol:TrackSupplyChain",
						"label": "aggregators",
						"offset": 0,
						"slot": "9",
						"type": "t_mapping(t_address,t_bool)"
					},
					{
						"astId": 17,
						"contract": "TrackSupplyChain.sol:TrackSupplyChain",
						"label": "aggregatorProfiles",
						"offset": 0,
						"slot": "10",
						"type": "t_mapping(t_address,t_struct(AggregatorProfile)12_storage)"
					},
					{
						"astId": 61,
						"contract": "TrackSupplyChain.sol:TrackSupplyChain",
						"label": "batches",
						"offset": 0,
						"slot": "11",
						"type": "t_mapping(t_bytes32,t_struct(AggregatedBatch)56_storage)"
					},
					{
						"astId": 660,
						"contract": "TrackSupplyChain.sol:TrackSupplyChain",
						"label": "retailers",
						"offset": 0,
						"slot": "12",
						"type": "t_mapping(t_address,t_bool)"
					},
					{
						"astId": 672,
						"contract": "TrackSupplyChain.sol:TrackSupplyChain",
						"label": "retailerProfiles",
						"offset": 0,
						"slot": "13",
						"type": "t_mapping(t_address,t_struct(RetailerProfile)667_storage)"
					},
					{
						"astId": 706,
						"contract": "TrackSupplyChain.sol:TrackSupplyChain",
						"label": "retails",
						"offset": 0,
						"slot": "14",
						"type": "t_mapping(t_bytes32,t_struct(Retail)701_storage)"
					},
					{
						"astId": 230,
						"contract": "TrackSupplyChain.sol:TrackSupplyChain",
						"label": "customers",
						"offset": 0,
						"slot": "15",
						"type": "t_mapping(t_address,t_bool)"
					},
					{
						"astId": 242,
						"contract": "TrackSupplyChain.sol:TrackSupplyChain",
						"label": "customerProfiles",
						"offset": 0,
						"slot": "16",
						"type": "t_mapping(t_address,t_struct(CustomerProfile)237_storage)"
					},
					{
						"astId": 270,
						"contract": "TrackSupplyChain.sol:TrackSupplyChain",
						"label": "purchases",
						"offset": 0,
						"slot": "17",
						"type": "t_mapping(t_bytes32,t_struct(Purchase)265_storage)"
					},
					{
						"astId": 1035,
						"contract": "TrackSupplyChain.sol:TrackSupplyChain",
						"label": "owner",
						"offset": 0,
						"slot": "18",
						"type": "t_address"
					},
					{
						"astId": 1049,
						"contract": "TrackSupplyChain.sol:TrackSupplyChain",
						"label": "productFreshness",
						"offset": 0,
						"slot": "19",
						"type": "t_mapping(t_uint256,t_struct(FreshnessData)1044_storage)"
					}
				],
				"types": {
					"t_address": {
						"encoding": "inplace",
						"label": "address",
						"numberOfBytes": "20"
					},
					"t_bool": {
						"encoding": "inplace",
						"label": "bool",
						"numberOfBytes": "1"
					},
					"t_bytes32": {
						"encoding": "inplace",
						"label": "bytes32",
						"numberOfBytes": "32"
					},
					"t_enum(Stage)407": {
						"encoding": "inplace",
						"label": "enum Farmer.Stage",
						"numberOfBytes": "1"
					},
					"t_mapping(t_address,t_bool)": {
						"encoding": "mapping",
						"key": "t_address",
						"label": "mapping(address => bool)",
						"numberOfBytes": "32",
						"value": "t_bool"
					},
					"t_mapping(t_address,t_struct(AggregatorProfile)12_storage)": {
						"encoding": "mapping",
						"key": "t_address",
						"label": "mapping(address => struct Aggregator.AggregatorProfile)",
						"numberOfBytes": "32",
						"value": "t_struct(AggregatorProfile)12_storage"
					},
					"t_mapping(t_address,t_struct(CustomerProfile)237_storage)": {
						"encoding": "mapping",
						"key": "t_address",
						"label": "mapping(address => struct Customer.CustomerProfile)",
						"numberOfBytes": "32",
						"value": "t_struct(CustomerProfile)237_storage"
					},
					"t_mapping(t_address,t_struct(FarmerProfile)372_storage)": {
						"encoding": "mapping",
						"key": "t_address",
						"label": "mapping(address => struct Farmer.FarmerProfile)",
						"numberOfBytes": "32",
						"value": "t_struct(FarmerProfile)372_storage"
					},
					"t_mapping(t_address,t_struct(RetailerProfile)667_storage)": {
						"encoding": "mapping",
						"key": "t_address",
						"label": "mapping(address => struct Retailer.RetailerProfile)",
						"numberOfBytes": "32",
						"value": "t_struct(RetailerProfile)667_storage"
					},
					"t_mapping(t_address,t_struct(SupplierProfile)848_storage)": {
						"encoding": "mapping",
						"key": "t_address",
						"label": "mapping(address => struct Supplier.SupplierProfile)",
						"numberOfBytes": "32",
						"value": "t_struct(SupplierProfile)848_storage"
					},
					"t_mapping(t_bytes32,t_bool)": {
						"encoding": "mapping",
						"key": "t_bytes32",
						"label": "mapping(bytes32 => bool)",
						"numberOfBytes": "32",
						"value": "t_bool"
					},
					"t_mapping(t_bytes32,t_struct(AggregatedBatch)56_storage)": {
						"encoding": "mapping",
						"key": "t_bytes32",
						"label": "mapping(bytes32 => struct Aggregator.AggregatedBatch)",
						"numberOfBytes": "32",
						"value": "t_struct(AggregatedBatch)56_storage"
					},
					"t_mapping(t_bytes32,t_struct(Crop)425_storage)": {
						"encoding": "mapping",
						"key": "t_bytes32",
						"label": "mapping(bytes32 => struct Farmer.Crop)",
						"numberOfBytes": "32",
						"value": "t_struct(Crop)425_storage"
					},
					"t_mapping(t_bytes32,t_struct(Purchase)265_storage)": {
						"encoding": "mapping",
						"key": "t_bytes32",
						"label": "mapping(bytes32 => struct Customer.Purchase)",
						"numberOfBytes": "32",
						"value": "t_struct(Purchase)265_storage"
					},
					"t_mapping(t_bytes32,t_struct(Retail)701_storage)": {
						"encoding": "mapping",
						"key": "t_bytes32",
						"label": "mapping(bytes32 => struct Retailer.Retail)",
						"numberOfBytes": "32",
						"value": "t_struct(Retail)701_storage"
					},
					"t_mapping(t_bytes32,t_struct(Supply)882_storage)": {
						"encoding": "mapping",
						"key": "t_bytes32",
						"label": "mapping(bytes32 => struct Supplier.Supply)",
						"numberOfBytes": "32",
						"value": "t_struct(Supply)882_storage"
					},
					"t_mapping(t_uint256,t_bytes32)": {
						"encoding": "mapping",
						"key": "t_uint256",
						"label": "mapping(uint256 => bytes32)",
						"numberOfBytes": "32",
						"value": "t_bytes32"
					},
					"t_mapping(t_uint256,t_struct(FreshnessData)1044_storage)": {
						"encoding": "mapping",
						"key": "t_uint256",
						"label": "mapping(uint256 => struct TrackSupplyChain.FreshnessData)",
						"numberOfBytes": "32",
						"value": "t_struct(FreshnessData)1044_storage"
					},
					"t_string_storage": {
						"encoding": "bytes",
						"label": "string",
						"numberOfBytes": "32"
					},
					"t_struct(AggregatedBatch)56_storage": {
						"encoding": "inplace",
						"label": "struct Aggregator.AggregatedBatch",
						"members": [
							{
								"astId": 43,
								"contract": "TrackSupplyChain.sol:TrackSupplyChain",
								"label": "cropID",
								"offset": 0,
								"slot": "0",
								"type": "t_bytes32"
							},
							{
								"astId": 45,
								"contract": "TrackSupplyChain.sol:TrackSupplyChain",
								"label": "received",
								"offset": 0,
								"slot": "1",
								"type": "t_bool"
							},
							{
								"astId": 47,
								"contract": "TrackSupplyChain.sol:TrackSupplyChain",
								"label": "receivedDate",
								"offset": 0,
								"slot": "2",
								"type": "t_string_storage"
							},
							{
								"astId": 49,
								"contract": "TrackSupplyChain.sol:TrackSupplyChain",
								"label": "divided",
								"offset": 0,
								"slot": "3",
								"type": "t_bool"
							},
							{
								"astId": 51,
								"contract": "TrackSupplyChain.sol:TrackSupplyChain",
								"label": "dividedDate",
								"offset": 0,
								"slot": "4",
								"type": "t_string_storage"
							},
							{
								"astId": 53,
								"contract": "TrackSupplyChain.sol:TrackSupplyChain",
								"label": "transferDate",
								"offset": 0,
								"slot": "5",
								"type": "t_string_storage"
							},
							{
								"astId": 55,
								"contract": "TrackSupplyChain.sol:TrackSupplyChain",
								"label": "currentHolder",
								"offset": 0,
								"slot": "6",
								"type": "t_address"
							}
						],
						"numberOfBytes": "224"
					},
					"t_struct(AggregatorProfile)12_storage": {
						"encoding": "inplace",
						"label": "struct Aggregator.AggregatorProfile",
						"members": [
							{
								"astId": 7,
								"contract": "TrackSupplyChain.sol:TrackSupplyChain",
								"label": "name",
								"offset": 0,
								"slot": "0",
								"type": "t_string_storage"
							},
							{
								"astId": 9,
								"contract": "TrackSupplyChain.sol:TrackSupplyChain",
								"label": "location",
								"offset": 0,
								"slot": "1",
								"type": "t_string_storage"
							},
							{
								"astId": 11,
								"contract": "TrackSupplyChain.sol:TrackSupplyChain",
								"label": "contact",
								"offset": 0,
								"slot": "2",
								"type": "t_string_storage"
							}
						],
						"numberOfBytes": "96"
					},
					"t_struct(Crop)425_storage": {
						"encoding": "inplace",
						"label": "struct Farmer.Crop",
						"members": [
							{
								"astId": 409,
								"contract": "TrackSupplyChain.sol:TrackSupplyChain",
								"label": "cropID",
								"offset": 0,
								"slot": "0",
								"type": "t_bytes32"
							},
							{
								"astId": 411,
								"contract": "TrackSupplyChain.sol:TrackSupplyChain",
								"label": "cropType",
								"offset": 0,
								"slot": "1",
								"type": "t_string_storage"
							},
							{
								"astId": 413,
								"contract": "TrackSupplyChain.sol:TrackSupplyChain",
								"label": "origin",
								"offset": 0,
								"slot": "2",
								"type": "t_string_storage"
							},
							{
								"astId": 415,
								"contract": "TrackSupplyChain.sol:TrackSupplyChain",
								"label": "date",
								"offset": 0,
								"slot": "3",
								"type": "t_string_storage"
							},
							{
								"astId": 417,
								"contract": "TrackSupplyChain.sol:TrackSupplyChain",
								"label": "price",
								"offset": 0,
								"slot": "4",
								"type": "t_uint256"
							},
							{
								"astId": 420,
								"contract": "TrackSupplyChain.sol:TrackSupplyChain",
								"label": "stage",
								"offset": 0,
								"slot": "5",
								"type": "t_enum(Stage)407"
							},
							{
								"astId": 422,
								"contract": "TrackSupplyChain.sol:TrackSupplyChain",
								"label": "currentHolder",
								"offset": 1,
								"slot": "5",
								"type": "t_address"
							},
							{
								"astId": 424,
								"contract": "TrackSupplyChain.sol:TrackSupplyChain",
								"label": "transferDate",
								"offset": 0,
								"slot": "6",
								"type": "t_string_storage"
							}
						],
						"numberOfBytes": "224"
					},
					"t_struct(CustomerProfile)237_storage": {
						"encoding": "inplace",
						"label": "struct Customer.CustomerProfile",
						"members": [
							{
								"astId": 232,
								"contract": "TrackSupplyChain.sol:TrackSupplyChain",
								"label": "name",
								"offset": 0,
								"slot": "0",
								"type": "t_string_storage"
							},
							{
								"astId": 234,
								"contract": "TrackSupplyChain.sol:TrackSupplyChain",
								"label": "location",
								"offset": 0,
								"slot": "1",
								"type": "t_string_storage"
							},
							{
								"astId": 236,
								"contract": "TrackSupplyChain.sol:TrackSupplyChain",
								"label": "contact",
								"offset": 0,
								"slot": "2",
								"type": "t_string_storage"
							}
						],
						"numberOfBytes": "96"
					},
					"t_struct(FarmerProfile)372_storage": {
						"encoding": "inplace",
						"label": "struct Farmer.FarmerProfile",
						"members": [
							{
								"astId": 367,
								"contract": "TrackSupplyChain.sol:TrackSupplyChain",
								"label": "name",
								"offset": 0,
								"slot": "0",
								"type": "t_string_storage"
							},
							{
								"astId": 369,
								"contract": "TrackSupplyChain.sol:TrackSupplyChain",
								"label": "location",
								"offset": 0,
								"slot": "1",
								"type": "t_string_storage"
							},
							{
								"astId": 371,
								"contract": "TrackSupplyChain.sol:TrackSupplyChain",
								"label": "contact",
								"offset": 0,
								"slot": "2",
								"type": "t_string_storage"
							}
						],
						"numberOfBytes": "96"
					},
					"t_struct(FreshnessData)1044_storage": {
						"encoding": "inplace",
						"label": "struct TrackSupplyChain.FreshnessData",
						"members": [
							{
								"astId": 1037,
								"contract": "TrackSupplyChain.sol:TrackSupplyChain",
								"label": "gasValue",
								"offset": 0,
								"slot": "0",
								"type": "t_uint256"
							},
							{
								"astId": 1039,
								"contract": "TrackSupplyChain.sol:TrackSupplyChain",
								"label": "temperature",
								"offset": 0,
								"slot": "1",
								"type": "t_uint256"
							},
							{
								"astId": 1041,
								"contract": "TrackSupplyChain.sol:TrackSupplyChain",
								"label": "humidity",
								"offset": 0,
								"slot": "2",
								"type": "t_uint256"
							},
							{
								"astId": 1043,
								"contract": "TrackSupplyChain.sol:TrackSupplyChain",
								"label": "timestamp",
								"offset": 0,
								"slot": "3",
								"type": "t_uint256"
							}
						],
						"numberOfBytes": "128"
					},
					"t_struct(Purchase)265_storage": {
						"encoding": "inplace",
						"label": "struct Customer.Purchase",
						"members": [
							{
								"astId": 256,
								"contract": "TrackSupplyChain.sol:TrackSupplyChain",
								"label": "cropID",
								"offset": 0,
								"slot": "0",
								"type": "t_bytes32"
							},
							{
								"astId": 258,
								"contract": "TrackSupplyChain.sol:TrackSupplyChain",
								"label": "purchased",
								"offset": 0,
								"slot": "1",
								"type": "t_bool"
							},
							{
								"astId": 260,
								"contract": "TrackSupplyChain.sol:TrackSupplyChain",
								"label": "feedback",
								"offset": 0,
								"slot": "2",
								"type": "t_string_storage"
							},
							{
								"astId": 262,
								"contract": "TrackSupplyChain.sol:TrackSupplyChain",
								"label": "purchaseDate",
								"offset": 0,
								"slot": "3",
								"type": "t_string_storage"
							},
							{
								"astId": 264,
								"contract": "TrackSupplyChain.sol:TrackSupplyChain",
								"label": "buyer",
								"offset": 0,
								"slot": "4",
								"type": "t_address"
							}
						],
						"numberOfBytes": "160"
					},
					"t_struct(Retail)701_storage": {
						"encoding": "inplace",
						"label": "struct Retailer.Retail",
						"members": [
							{
								"astId": 692,
								"contract": "TrackSupplyChain.sol:TrackSupplyChain",
								"label": "cropID",
								"offset": 0,
								"slot": "0",
								"type": "t_bytes32"
							},
							{
								"astId": 694,
								"contract": "TrackSupplyChain.sol:TrackSupplyChain",
								"label": "retailPrice",
								"offset": 0,
								"slot": "1",
								"type": "t_uint256"
							},
							{
								"astId": 696,
								"contract": "TrackSupplyChain.sol:TrackSupplyChain",
								"label": "receivedDate",
								"offset": 0,
								"slot": "2",
								"type": "t_string_storage"
							},
							{
								"astId": 698,
								"contract": "TrackSupplyChain.sol:TrackSupplyChain",
								"label": "transferDate",
								"offset": 0,
								"slot": "3",
								"type": "t_string_storage"
							},
							{
								"astId": 700,
								"contract": "TrackSupplyChain.sol:TrackSupplyChain",
								"label": "holder",
								"offset": 0,
								"slot": "4",
								"type": "t_address"
							}
						],
						"numberOfBytes": "160"
					},
					"t_struct(RetailerProfile)667_storage": {
						"encoding": "inplace",
						"label": "struct Retailer.RetailerProfile",
						"members": [
							{
								"astId": 662,
								"contract": "TrackSupplyChain.sol:TrackSupplyChain",
								"label": "name",
								"offset": 0,
								"slot": "0",
								"type": "t_string_storage"
							},
							{
								"astId": 664,
								"contract": "TrackSupplyChain.sol:TrackSupplyChain",
								"label": "location",
								"offset": 0,
								"slot": "1",
								"type": "t_string_storage"
							},
							{
								"astId": 666,
								"contract": "TrackSupplyChain.sol:TrackSupplyChain",
								"label": "contact",
								"offset": 0,
								"slot": "2",
								"type": "t_string_storage"
							}
						],
						"numberOfBytes": "96"
					},
					"t_struct(SupplierProfile)848_storage": {
						"encoding": "inplace",
						"label": "struct Supplier.SupplierProfile",
						"members": [
							{
								"astId": 843,
								"contract": "TrackSupplyChain.sol:TrackSupplyChain",
								"label": "name",
								"offset": 0,
								"slot": "0",
								"type": "t_string_storage"
							},
							{
								"astId": 845,
								"contract": "TrackSupplyChain.sol:TrackSupplyChain",
								"label": "location",
								"offset": 0,
								"slot": "1",
								"type": "t_string_storage"
							},
							{
								"astId": 847,
								"contract": "TrackSupplyChain.sol:TrackSupplyChain",
								"label": "contact",
								"offset": 0,
								"slot": "2",
								"type": "t_string_storage"
							}
						],
						"numberOfBytes": "96"
					},
					"t_struct(Supply)882_storage": {
						"encoding": "inplace",
						"label": "struct Supplier.Supply",
						"members": [
							{
								"astId": 873,
								"contract": "TrackSupplyChain.sol:TrackSupplyChain",
								"label": "cropID",
								"offset": 0,
								"slot": "0",
								"type": "t_bytes32"
							},
							{
								"astId": 875,
								"contract": "TrackSupplyChain.sol:TrackSupplyChain",
								"label": "transportCost",
								"offset": 0,
								"slot": "1",
								"type": "t_uint256"
							},
							{
								"astId": 877,
								"contract": "TrackSupplyChain.sol:TrackSupplyChain",
								"label": "receivedDate",
								"offset": 0,
								"slot": "2",
								"type": "t_string_storage"
							},
							{
								"astId": 879,
								"contract": "TrackSupplyChain.sol:TrackSupplyChain",
								"label": "transferDate",
								"offset": 0,
								"slot": "3",
								"type": "t_string_storage"
							},
							{
								"astId": 881,
								"contract": "TrackSupplyChain.sol:TrackSupplyChain",
								"label": "currentHolder",
								"offset": 0,
								"slot": "4",
								"type": "t_address"
							}
						],
						"numberOfBytes": "160"
					},
					"t_uint256": {
						"encoding": "inplace",
						"label": "uint256",
						"numberOfBytes": "32"
					}
				}
			},
			"userdoc": {
				"kind": "user",
				"methods": {},
				"version": 1
			}
		}
	}
}