{
  "contractName": "TrackSupplyChain",
  "abi": [
    {
      "inputs": [],
      "stateMutability": "nonpayable",
      "type": "constructor"
    },
    {
      "anonymous": false,
      "inputs": [
        {
          "indexed": false,
          "internalType": "address",
          "name": "aggregator",
          "type": "address"
        },
        {
          "indexed": false,
          "internalType": "string",
          "name": "name",
          "type": "string"
        }
      ],
      "name": "AggregatorRegistered",
      "type": "event"
    },
    {
      "anonymous": false,
      "inputs": [
        {
          "indexed": false,
          "internalType": "bytes32",
          "name": "cropID",
          "type": "bytes32"
        },
        {
          "indexed": false,
          "internalType": "string",
          "name": "date",
          "type": "string"
        }
      ],
      "name": "BatchDivided",
      "type": "event"
    },
    {
      "anonymous": false,
      "inputs": [
        {
          "indexed": false,
          "internalType": "bytes32",
          "name": "cropID",
          "type": "bytes32"
        },
        {
          "indexed": false,
          "internalType": "string",
          "name": "cropType",
          "type": "string"
        },
        {
          "indexed": false,
          "internalType": "uint256",
          "name": "price",
          "type": "uint256"
        }
      ],
      "name": "CropCollected",
      "type": "event"
    },
    {
      "anonymous": false,
      "inputs": [
        {
          "indexed": false,
          "internalType": "address",
          "name": "customer",
          "type": "address"
        },
        {
          "indexed": false,
          "internalType": "string",
          "name": "name",
          "type": "string"
        }
      ],
      "name": "CustomerRegistered",
      "type": "event"
    },
    {
      "anonymous": false,
      "inputs": [
        {
          "indexed": false,
          "internalType": "address",
          "name": "farmer",
          "type": "address"
        },
        {
          "indexed": false,
          "internalType": "string",
          "name": "name",
          "type": "string"
        }
      ],
      "name": "FarmerRegistered",
      "type": "event"
    },
    {
      "anonymous": false,
      "inputs": [
        {
          "indexed": false,
          "internalType": "bytes32",
          "name": "cropID",
          "type": "bytes32"
        },
        {
          "indexed": false,
          "internalType": "address",
          "name": "buyer",
          "type": "address"
        }
      ],
      "name": "PurchaseConfirmed",
      "type": "event"
    },
    {
      "anonymous": false,
      "inputs": [
        {
          "indexed": false,
          "internalType": "bytes32",
          "name": "cropID",
          "type": "bytes32"
        },
        {
          "indexed": false,
          "internalType": "address",
          "name": "retailer",
          "type": "address"
        }
      ],
      "name": "ReceivedFromAggregator",
      "type": "event"
    },
    {
      "anonymous": false,
      "inputs": [
        {
          "indexed": false,
          "internalType": "bytes32",
          "name": "cropID",
          "type": "bytes32"
        },
        {
          "indexed": false,
          "internalType": "address",
          "name": "supplier",
          "type": "address"
        }
      ],
      "name": "ReceivedFromFarmer",
      "type": "event"
    },
    {
      "anonymous": false,
      "inputs": [
        {
          "indexed": false,
          "internalType": "bytes32",
          "name": "cropID",
          "type": "bytes32"
        },
        {
          "indexed": false,
          "internalType": "address",
          "name": "aggregator",
          "type": "address"
        }
      ],
      "name": "ReceivedFromSupplier",
      "type": "event"
    },
    {
      "anonymous": false,
      "inputs": [
        {
          "indexed": false,
          "internalType": "address",
          "name": "retailer",
          "type": "address"
        },
        {
          "indexed": false,
          "internalType": "string",
          "name": "name",
          "type": "string"
        }
      ],
      "name": "RetailerRegistered",
      "type": "event"
    },
    {
      "anonymous": false,
      "inputs": [
        {
          "indexed": false,
          "internalType": "address",
          "name": "supplier",
          "type": "address"
        },
        {
          "indexed": false,
          "internalType": "string",
          "name": "name",
          "type": "string"
        }
      ],
      "name": "SupplierRegistered",
      "type": "event"
    },
    {
      "anonymous": false,
      "inputs": [
        {
          "indexed": false,
          "internalType": "bytes32",
          "name": "cropID",
          "type": "bytes32"
        },
        {
          "indexed": false,
          "internalType": "address",
          "name": "aggregator",
          "type": "address"
        }
      ],
      "name": "TransferredToAggregator",
      "type": "event"
    },
    {
      "anonymous": false,
      "inputs": [
        {
          "indexed": false,
          "internalType": "bytes32",
          "name": "cropID",
          "type": "bytes32"
        },
        {
          "indexed": false,
          "internalType": "address",
          "name": "consumer",
          "type": "address"
        }
      ],
      "name": "TransferredToConsumer",
      "type": "event"
    },
    {
      "anonymous": false,
      "inputs": [
        {
          "indexed": false,
          "internalType": "bytes32",
          "name": "cropID",
          "type": "bytes32"
        },
        {
          "indexed": false,
          "internalType": "address",
          "name": "retailer",
          "type": "address"
        }
      ],
      "name": "TransferredToRetailer",
      "type": "event"
    },
    {
      "anonymous": false,
      "inputs": [
        {
          "indexed": false,
          "internalType": "bytes32",
          "name": "cropID",
          "type": "bytes32"
        },
        {
          "indexed": false,
          "internalType": "address",
          "name": "supplier",
          "type": "address"
        },
        {
          "indexed": false,
          "internalType": "string",
          "name": "date",
          "type": "string"
        }
      ],
      "name": "TransferredToSupplier",
      "type": "event"
    },
    {
      "inputs": [
        {
          "internalType": "bytes32",
          "name": "cropID",
          "type": "bytes32"
        },
        {
          "internalType": "string",
          "name": "date",
          "type": "string"
        }
      ],
      "name": "aggregatorDivideBatch",
      "outputs": [],
      "stateMutability": "nonpayable",
      "type": "function"
    },
    {
      "inputs": [
        {
          "internalType": "address",
          "name": "",
          "type": "address"
        }
      ],
      "name": "aggregatorProfiles",
      "outputs": [
        {
          "internalType": "string",
          "name": "name",
          "type": "string"
        },
        {
          "internalType": "string",
          "name": "location",
          "type": "string"
        },
        {
          "internalType": "string",
          "name": "contact",
          "type": "string"
        }
      ],
      "stateMutability": "view",
      "type": "function",
      "constant": true
    },
    {
      "inputs": [
        {
          "internalType": "bytes32",
          "name": "cropID",
          "type": "bytes32"
        },
        {
          "internalType": "string",
          "name": "date",
          "type": "string"
        }
      ],
      "name": "aggregatorReceiveFromSupplier",
      "outputs": [],
      "stateMutability": "nonpayable",
      "type": "function"
    },
    {
      "inputs": [
        {
          "internalType": "bytes32",
          "name": "cropID",
          "type": "bytes32"
        },
        {
          "internalType": "address",
          "name": "retailer",
          "type": "address"
        },
        {
          "internalType": "string",
          "name": "transferDate",
          "type": "string"
        }
      ],
      "name": "aggregatorTransferToRetailer",
      "outputs": [],
      "stateMutability": "nonpayable",
      "type": "function"
    },
    {
      "inputs": [
        {
          "internalType": "address",
          "name": "",
          "type": "address"
        }
      ],
      "name": "aggregators",
      "outputs": [
        {
          "internalType": "bool",
          "name": "",
          "type": "bool"
        }
      ],
      "stateMutability": "view",
      "type": "function",
      "constant": true
    },
    {
      "inputs": [
        {
          "internalType": "bytes32",
          "name": "",
          "type": "bytes32"
        }
      ],
      "name": "batches",
      "outputs": [
        {
          "internalType": "bytes32",
          "name": "cropID",
          "type": "bytes32"
        },
        {
          "internalType": "bool",
          "name": "received",
          "type": "bool"
        },
        {
          "internalType": "string",
          "name": "receivedDate",
          "type": "string"
        },
        {
          "internalType": "bool",
          "name": "divided",
          "type": "bool"
        },
        {
          "internalType": "string",
          "name": "dividedDate",
          "type": "string"
        },
        {
          "internalType": "string",
          "name": "transferDate",
          "type": "string"
        },
        {
          "internalType": "address",
          "name": "currentHolder",
          "type": "address"
        }
      ],
      "stateMutability": "view",
      "type": "function",
      "constant": true
    },
    {
      "inputs": [
        {
          "internalType": "bytes32",
          "name": "cropID",
          "type": "bytes32"
        },
        {
          "internalType": "bool",
          "name": "_purchased",
          "type": "bool"
        },
        {
          "internalType": "string",
          "name": "_feedback",
          "type": "string"
        },
        {
          "internalType": "string",
          "name": "_date",
          "type": "string"
        }
      ],
      "name": "consumerConfirmPurchase",
      "outputs": [],
      "stateMutability": "nonpayable",
      "type": "function"
    },
    {
      "inputs": [
        {
          "internalType": "uint256",
          "name": "seed",
          "type": "uint256"
        }
      ],
      "name": "createUniqueCropID",
      "outputs": [
        {
          "internalType": "bytes32",
          "name": "",
          "type": "bytes32"
        }
      ],
      "stateMutability": "nonpayable",
      "type": "function"
    },
    {
      "inputs": [],
      "name": "cropCount",
      "outputs": [
        {
          "internalType": "uint256",
          "name": "",
          "type": "uint256"
        }
      ],
      "stateMutability": "view",
      "type": "function",
      "constant": true
    },
    {
      "inputs": [
        {
          "internalType": "uint256",
          "name": "",
          "type": "uint256"
        }
      ],
      "name": "cropIDs",
      "outputs": [
        {
          "internalType": "bytes32",
          "name": "",
          "type": "bytes32"
        }
      ],
      "stateMutability": "view",
      "type": "function",
      "constant": true
    },
    {
      "inputs": [
        {
          "internalType": "bytes32",
          "name": "",
          "type": "bytes32"
        }
      ],
      "name": "crops",
      "outputs": [
        {
          "internalType": "bytes32",
          "name": "cropID",
          "type": "bytes32"
        },
        {
          "internalType": "string",
          "name": "cropType",
          "type": "string"
        },
        {
          "internalType": "string",
          "name": "origin",
          "type": "string"
        },
        {
          "internalType": "string",
          "name": "date",
          "type": "string"
        },
        {
          "internalType": "uint256",
          "name": "price",
          "type": "uint256"
        },
        {
          "internalType": "enum Farmer.Stage",
          "name": "stage",
          "type": "uint8"
        },
        {
          "internalType": "address",
          "name": "currentHolder",
          "type": "address"
        },
        {
          "internalType": "string",
          "name": "transferDate",
          "type": "string"
        }
      ],
      "stateMutability": "view",
      "type": "function",
      "constant": true
    },
    {
      "inputs": [
        {
          "internalType": "address",
          "name": "",
          "type": "address"
        }
      ],
      "name": "customerProfiles",
      "outputs": [
        {
          "internalType": "string",
          "name": "name",
          "type": "string"
        },
        {
          "internalType": "string",
          "name": "location",
          "type": "string"
        },
        {
          "internalType": "string",
          "name": "contact",
          "type": "string"
        }
      ],
      "stateMutability": "view",
      "type": "function",
      "constant": true
    },
    {
      "inputs": [
        {
          "internalType": "address",
          "name": "",
          "type": "address"
        }
      ],
      "name": "customers",
      "outputs": [
        {
          "internalType": "bool",
          "name": "",
          "type": "bool"
        }
      ],
      "stateMutability": "view",
      "type": "function",
      "constant": true
    },
    {
      "inputs": [
        {
          "internalType": "bytes32",
          "name": "",
          "type": "bytes32"
        }
      ],
      "name": "exists",
      "outputs": [
        {
          "internalType": "bool",
          "name": "",
          "type": "bool"
        }
      ],
      "stateMutability": "view",
      "type": "function",
      "constant": true
    },
    {
      "inputs": [
        {
          "internalType": "bytes32",
          "name": "cropID",
          "type": "bytes32"
        },
        {
          "internalType": "string",
          "name": "cropType",
          "type": "string"
        },
        {
          "internalType": "string",
          "name": "origin",
          "type": "string"
        },
        {
          "internalType": "string",
          "name": "date",
          "type": "string"
        },
        {
          "internalType": "uint256",
          "name": "price",
          "type": "uint256"
        }
      ],
      "name": "farmerCollectCrop",
      "outputs": [],
      "stateMutability": "nonpayable",
      "type": "function"
    },
    {
      "inputs": [
        {
          "internalType": "address",
          "name": "",
          "type": "address"
        }
      ],
      "name": "farmerProfiles",
      "outputs": [
        {
          "internalType": "string",
          "name": "name",
          "type": "string"
        },
        {
          "internalType": "string",
          "name": "location",
          "type": "string"
        },
        {
          "internalType": "string",
          "name": "contact",
          "type": "string"
        }
      ],
      "stateMutability": "view",
      "type": "function",
      "constant": true
    },
    {
      "inputs": [
        {
          "internalType": "bytes32",
          "name": "cropID",
          "type": "bytes32"
        },
        {
          "internalType": "address",
          "name": "supplier",
          "type": "address"
        },
        {
          "internalType": "string",
          "name": "transferDate",
          "type": "string"
        }
      ],
      "name": "farmerTransferToSupplier",
      "outputs": [],
      "stateMutability": "nonpayable",
      "type": "function"
    },
    {
      "inputs": [
        {
          "internalType": "address",
          "name": "",
          "type": "address"
        }
      ],
      "name": "farmers",
      "outputs": [
        {
          "internalType": "bool",
          "name": "",
          "type": "bool"
        }
      ],
      "stateMutability": "view",
      "type": "function",
      "constant": true
    },
    {
      "inputs": [],
      "name": "owner",
      "outputs": [
        {
          "internalType": "address",
          "name": "",
          "type": "address"
        }
      ],
      "stateMutability": "view",
      "type": "function",
      "constant": true
    },
    {
      "inputs": [
        {
          "internalType": "bytes32",
          "name": "",
          "type": "bytes32"
        }
      ],
      "name": "purchases",
      "outputs": [
        {
          "internalType": "bytes32",
          "name": "cropID",
          "type": "bytes32"
        },
        {
          "internalType": "bool",
          "name": "purchased",
          "type": "bool"
        },
        {
          "internalType": "string",
          "name": "feedback",
          "type": "string"
        },
        {
          "internalType": "string",
          "name": "purchaseDate",
          "type": "string"
        },
        {
          "internalType": "address",
          "name": "buyer",
          "type": "address"
        }
      ],
      "stateMutability": "view",
      "type": "function",
      "constant": true
    },
    {
      "inputs": [
        {
          "internalType": "string",
          "name": "name",
          "type": "string"
        },
        {
          "internalType": "string",
          "name": "location",
          "type": "string"
        },
        {
          "internalType": "string",
          "name": "contact",
          "type": "string"
        }
      ],
      "name": "registerAggregator",
      "outputs": [],
      "stateMutability": "nonpayable",
      "type": "function"
    },
    {
      "inputs": [
        {
          "internalType": "string",
          "name": "name",
          "type": "string"
        },
        {
          "internalType": "string",
          "name": "location",
          "type": "string"
        },
        {
          "internalType": "string",
          "name": "contact",
          "type": "string"
        }
      ],
      "name": "registerCustomer",
      "outputs": [],
      "stateMutability": "nonpayable",
      "type": "function"
    },
    {
      "inputs": [
        {
          "internalType": "string",
          "name": "name",
          "type": "string"
        },
        {
          "internalType": "string",
          "name": "location",
          "type": "string"
        },
        {
          "internalType": "string",
          "name": "contact",
          "type": "string"
        }
      ],
      "name": "registerFarmer",
      "outputs": [],
      "stateMutability": "nonpayable",
      "type": "function"
    },
    {
      "inputs": [
        {
          "internalType": "string",
          "name": "name",
          "type": "string"
        },
        {
          "internalType": "string",
          "name": "location",
          "type": "string"
        },
        {
          "internalType": "string",
          "name": "contact",
          "type": "string"
        }
      ],
      "name": "registerRetailer",
      "outputs": [],
      "stateMutability": "nonpayable",
      "type": "function"
    },
    {
      "inputs": [
        {
          "internalType": "string",
          "name": "name",
          "type": "string"
        },
        {
          "internalType": "string",
          "name": "location",
          "type": "string"
        },
        {
          "internalType": "string",
          "name": "contact",
          "type": "string"
        }
      ],
      "name": "registerSupplier",
      "outputs": [],
      "stateMutability": "nonpayable",
      "type": "function"
    },
    {
      "inputs": [
        {
          "internalType": "address",
          "name": "",
          "type": "address"
        }
      ],
      "name": "retailerProfiles",
      "outputs": [
        {
          "internalType": "string",
          "name": "name",
          "type": "string"
        },
        {
          "internalType": "string",
          "name": "location",
          "type": "string"
        },
        {
          "internalType": "string",
          "name": "contact",
          "type": "string"
        }
      ],
      "stateMutability": "view",
      "type": "function",
      "constant": true
    },
    {
      "inputs": [
        {
          "internalType": "bytes32",
          "name": "cropID",
          "type": "bytes32"
        },
        {
          "internalType": "uint256",
          "name": "retailPrice",
          "type": "uint256"
        },
        {
          "internalType": "string",
          "name": "date",
          "type": "string"
        }
      ],
      "name": "retailerReceiveFromAggregator",
      "outputs": [],
      "stateMutability": "nonpayable",
      "type": "function"
    },
    {
      "inputs": [
        {
          "internalType": "bytes32",
          "name": "cropID",
          "type": "bytes32"
        },
        {
          "internalType": "address",
          "name": "consumer",
          "type": "address"
        },
        {
          "internalType": "string",
          "name": "transferDate",
          "type": "string"
        }
      ],
      "name": "retailerTransferToConsumer",
      "outputs": [],
      "stateMutability": "nonpayable",
      "type": "function"
    },
    {
      "inputs": [
        {
          "internalType": "address",
          "name": "",
          "type": "address"
        }
      ],
      "name": "retailers",
      "outputs": [
        {
          "internalType": "bool",
          "name": "",
          "type": "bool"
        }
      ],
      "stateMutability": "view",
      "type": "function",
      "constant": true
    },
    {
      "inputs": [
        {
          "internalType": "bytes32",
          "name": "",
          "type": "bytes32"
        }
      ],
      "name": "retails",
      "outputs": [
        {
          "internalType": "bytes32",
          "name": "cropID",
          "type": "bytes32"
        },
        {
          "internalType": "uint256",
          "name": "retailPrice",
          "type": "uint256"
        },
        {
          "internalType": "string",
          "name": "receivedDate",
          "type": "string"
        },
        {
          "internalType": "string",
          "name": "transferDate",
          "type": "string"
        },
        {
          "internalType": "address",
          "name": "holder",
          "type": "address"
        }
      ],
      "stateMutability": "view",
      "type": "function",
      "constant": true
    },
    {
      "inputs": [
        {
          "internalType": "address",
          "name": "",
          "type": "address"
        }
      ],
      "name": "supplierProfiles",
      "outputs": [
        {
          "internalType": "string",
          "name": "name",
          "type": "string"
        },
        {
          "internalType": "string",
          "name": "location",
          "type": "string"
        },
        {
          "internalType": "string",
          "name": "contact",
          "type": "string"
        }
      ],
      "stateMutability": "view",
      "type": "function",
      "constant": true
    },
    {
      "inputs": [
        {
          "internalType": "bytes32",
          "name": "cropID",
          "type": "bytes32"
        },
        {
          "internalType": "uint256",
          "name": "transportCost",
          "type": "uint256"
        },
        {
          "internalType": "string",
          "name": "date",
          "type": "string"
        }
      ],
      "name": "supplierReceiveFromFarmer",
      "outputs": [],
      "stateMutability": "nonpayable",
      "type": "function"
    },
    {
      "inputs": [
        {
          "internalType": "bytes32",
          "name": "cropID",
          "type": "bytes32"
        },
        {
          "internalType": "address",
          "name": "aggregator",
          "type": "address"
        },
        {
          "internalType": "string",
          "name": "transferDate",
          "type": "string"
        }
      ],
      "name": "supplierTransferToAggregator",
      "outputs": [],
      "stateMutability": "nonpayable",
      "type": "function"
    },
    {
      "inputs": [
        {
          "internalType": "address",
          "name": "",
          "type": "address"
        }
      ],
      "name": "suppliers",
      "outputs": [
        {
          "internalType": "bool",
          "name": "",
          "type": "bool"
        }
      ],
      "stateMutability": "view",
      "type": "function",
      "constant": true
    },
    {
      "inputs": [
        {
          "internalType": "bytes32",
          "name": "",
          "type": "bytes32"
        }
      ],
      "name": "supplies",
      "outputs": [
        {
          "internalType": "bytes32",
          "name": "cropID",
          "type": "bytes32"
        },
        {
          "internalType": "uint256",
          "name": "transportCost",
          "type": "uint256"
        },
        {
          "internalType": "string",
          "name": "receivedDate",
          "type": "string"
        },
        {
          "internalType": "string",
          "name": "transferDate",
          "type": "string"
        },
        {
          "internalType": "address",
          "name": "currentHolder",
          "type": "address"
        }
      ],
      "stateMutability": "view",
      "type": "function",
      "constant": true
    }
  ],
  "bytecode": "0x608060405234801561001057600080fd5b5033601260006101000a81548173ffffffffffffffffffffffffffffffffffffffff021916908373ffffffffffffffffffffffffffffffffffffffff1602179055506152db806100616000396000f3fe608060405234801561001057600080fd5b50600436106102115760003560e01c8063750aa2ea11610125578063a900d628116100ad578063dfd55a2c1161007c578063dfd55a2c146106bf578063e9ef9cf7146106dd578063f0861b3a146106f9578063f49d66a314610729578063f8e66a4d1461075d57610211565b8063a900d6281461061a578063b71b75f414610651578063c81e25ab1461066d578063c9820cc4146106a357610211565b806388e46740116100f457806388e467401461054a5780638da5cb5b1461057e578063927142241461059c5780639a268f35146105ce578063a1c2e79c146105fe57610211565b8063750aa2ea14610498578063769d0420146104c85780637ab8dbe9146104e45780638039feef1461051857610211565b806338a699a4116101a85780634f3bedbd116101775780634f3bedbd1461040c57806351c4add51461042857806352f86467146104445780636c1e9d87146104605780637304957b1461047c57610211565b806338a699a41461035e578063401b21681461038e57806349beb611146103be5780634d6ec6e8146103f057610211565b806318f13654116101e457806318f13654146102c457806327ed3540146102f657806329a566d214610312578063336989ae1461032e57610211565b80630f5600cb146102165780630f86a2a414610248578063112cdab91461026457806316dc15fe14610294575b600080fd5b610230600480360381019061022b9190613e84565b610779565b60405161023f93929190613f41565b60405180910390f35b610262600480360381019061025d919061405e565b61093b565b005b61027e60048036038101906102799190613e84565b610cd1565b60405161028b9190614155565b60405180910390f35b6102ae60048036038101906102a99190613e84565b610cf1565b6040516102bb9190614155565b60405180910390f35b6102de60048036038101906102d99190613e84565b610d11565b6040516102ed93929190613f41565b60405180910390f35b610310600480360381019061030b9190614170565b610ed3565b005b61032c600480360381019061032791906141d0565b611057565b005b61034860048036038101906103439190613e84565b6112e8565b6040516103559190614155565b60405180910390f35b61037860048036038101906103739190614284565b611308565b6040516103859190614155565b60405180910390f35b6103a860048036038101906103a39190613e84565b611328565b6040516103b59190614155565b60405180910390f35b6103d860048036038101906103d39190613e84565b611348565b6040516103e793929190613f41565b60405180910390f35b61040a600480360381019061040591906141d0565b61150a565b005b610426600480360381019061042191906142b1565b61179d565b005b610442600480360381019061043d9190614351565b611987565b005b61045e600480360381019061045991906143f8565b611bce565b005b61047a600480360381019061047591906142b1565b611dc6565b005b610496600480360381019061049191906142b1565b611fb0565b005b6104b260048036038101906104ad919061446c565b612159565b6040516104bf91906144a8565b60405180910390f35b6104e260048036038101906104dd91906142b1565b6121f6565b005b6104fe60048036038101906104f99190614284565b612481565b60405161050f9594939291906144d2565b60405180910390f35b610532600480360381019061052d9190613e84565b6125f4565b60405161054193929190613f41565b60405180910390f35b610564600480360381019061055f9190614284565b6127b6565b604051610575959493929190614542565b60405180910390f35b61058661291c565b60405161059391906145a3565b60405180910390f35b6105b660048036038101906105b19190613e84565b612942565b6040516105c593929190613f41565b60405180910390f35b6105e860048036038101906105e39190613e84565b612b04565b6040516105f59190614155565b60405180910390f35b610618600480360381019061061391906141d0565b612b24565b005b610634600480360381019061062f9190614284565b612db7565b604051610648989796959493929190614635565b60405180910390f35b61066b600480360381019061066691906143f8565b61304c565b005b61068760048036038101906106829190614284565b613244565b60405161069a97969594939291906146cf565b60405180910390f35b6106bd60048036038101906106b89190614170565b613458565b005b6106c76136bc565b6040516106d49190614753565b60405180910390f35b6106f760048036038101906106f291906141d0565b6136c2565b005b610713600480360381019061070e919061446c565b613954565b60405161072091906144a8565b60405180910390f35b610743600480360381019061073e9190614284565b61396c565b604051610754959493929190614542565b60405180910390f35b610777600480360381019061077291906141d0565b613ad2565b005b600760205280600052604060002060009150905080600001805461079c9061479d565b80601f01602080910402602001604051908101604052809291908181526020018280546107c89061479d565b80156108155780601f106107ea57610100808354040283529160200191610815565b820191906000526020600020905b8154815290600101906020018083116107f857829003601f168201915b50505050509080600101805461082a9061479d565b80601f01602080910402602001604051908101604052809291908181526020018280546108569061479d565b80156108a35780601f10610878576101008083540402835291602001916108a3565b820191906000526020600020905b81548152906001019060200180831161088657829003601f168201915b5050505050908060020180546108b89061479d565b80601f01602080910402602001604051908101604052809291908181526020018280546108e49061479d565b80156109315780601f1061090657610100808354040283529160200191610931565b820191906000526020600020905b81548152906001019060200180831161091457829003601f168201915b5050505050905083565b6000803373ffffffffffffffffffffffffffffffffffffffff1673ffffffffffffffffffffffffffffffffffffffff16815260200190815260200160002060009054906101000a900460ff166109c6576040517f08c379a00000000000000000000000000000000000000000000000000000000081526004016109bd9061481a565b60405180910390fd5b6004600089815260200190815260200160002060009054906101000a900460ff1615610a27576040517f08c379a0000000000000000000000000000000000000000000000000000000008152600401610a1e90614886565b60405180910390fd5b60405180610100016040528089815260200188888080601f016020809104026020016040519081016040528093929190818152602001838380828437600081840152601f19601f82011690508083019250505050505050815260200186868080601f016020809104026020016040519081016040528093929190818152602001838380828437600081840152601f19601f82011690508083019250505050505050815260200184848080601f016020809104026020016040519081016040528093929190818152602001838380828437600081840152601f19601f82011690508083019250505050505050815260200182815260200160016006811115610b3157610b306145be565b5b81526020013373ffffffffffffffffffffffffffffffffffffffff16815260200160405180602001604052806000815250815250600260008a8152602001908152602001600020600082015181600001556020820151816001019081610b979190614a81565b506040820151816002019081610bad9190614a81565b506060820151816003019081610bc39190614a81565b506080820151816004015560a08201518160050160006101000a81548160ff02191690836006811115610bf957610bf86145be565b5b021790555060c08201518160050160016101000a81548173ffffffffffffffffffffffffffffffffffffffff021916908373ffffffffffffffffffffffffffffffffffffffff16021790555060e0820151816006019081610c5a9190614a81565b509050506001600460008a815260200190815260200160002060006101000a81548160ff0219169083151502179055507f9dcca99eebc5190547e039817ed1a8656e9d96c9fcc340f1223d2717dc72ae5888888884604051610cbf9493929190614b8f565b60405180910390a15050505050505050565b60096020528060005260406000206000915054906101000a900460ff1681565b60066020528060005260406000206000915054906101000a900460ff1681565b600d602052806000526040600020600091509050806000018054610d349061479d565b80601f0160208091040260200160405190810160405280929190818152602001828054610d609061479d565b8015610dad5780601f10610d8257610100808354040283529160200191610dad565b820191906000526020600020905b815481529060010190602001808311610d9057829003601f168201915b505050505090806001018054610dc29061479d565b80601f0160208091040260200160405190810160405280929190818152602001828054610dee9061479d565b8015610e3b5780601f10610e1057610100808354040283529160200191610e3b565b820191906000526020600020905b815481529060010190602001808311610e1e57829003601f168201915b505050505090806002018054610e509061479d565b80601f0160208091040260200160405190810160405280929190818152602001828054610e7c9061479d565b8015610ec95780601f10610e9e57610100808354040283529160200191610ec9565b820191906000526020600020905b815481529060010190602001808311610eac57829003601f168201915b5050505050905083565b600960003373ffffffffffffffffffffffffffffffffffffffff1673ffffffffffffffffffffffffffffffffffffffff16815260200190815260200160002060009054906101000a900460ff16610f5f576040517f08c379a0000000000000000000000000000000000000000000000000000000008152600401610f5690614c1b565b60405180910390fd5b600b600084815260200190815260200160002060010160009054906101000a900460ff16610fc2576040517f08c379a0000000000000000000000000000000000000000000000000000000008152600401610fb990614c87565b60405180910390fd5b6001600b600085815260200190815260200160002060030160006101000a81548160ff0219169083151502179055508181600b60008681526020019081526020016000206004019182611016929190614cb2565b507fe5d0b47a1fe3de7357458b7b7aa20aede2093baa892e9d8c2784e39fa58a7d8c83838360405161104a93929190614d82565b60405180910390a1505050565b6000803373ffffffffffffffffffffffffffffffffffffffff1673ffffffffffffffffffffffffffffffffffffffff16815260200190815260200160002060009054906101000a900460ff16156110e3576040517f08c379a00000000000000000000000000000000000000000000000000000000081526004016110da90614e00565b60405180910390fd5b60016000803373ffffffffffffffffffffffffffffffffffffffff1673ffffffffffffffffffffffffffffffffffffffff16815260200190815260200160002060006101000a81548160ff021916908315150217905550604051806060016040528087878080601f016020809104026020016040519081016040528093929190818152602001838380828437600081840152601f19601f82011690508083019250505050505050815260200185858080601f016020809104026020016040519081016040528093929190818152602001838380828437600081840152601f19601f82011690508083019250505050505050815260200183838080601f016020809104026020016040519081016040528093929190818152602001838380828437600081840152601f19601f82011690508083019250505050505050815250600160003373ffffffffffffffffffffffffffffffffffffffff1673ffffffffffffffffffffffffffffffffffffffff16815260200190815260200160002060008201518160000190816112759190614a81565b50602082015181600101908161128b9190614a81565b5060408201518160020190816112a19190614a81565b509050507f42558426a946ab6e527d7f548e7bd3e34c2a7ddde555007464cdfbb5f58665f83387876040516112d893929190614e20565b60405180910390a1505050505050565b600f6020528060005260406000206000915054906101000a900460ff1681565b60046020528060005260406000206000915054906101000a900460ff1681565b60006020528060005260406000206000915054906101000a900460ff1681565b601060205280600052604060002060009150905080600001805461136b9061479d565b80601f01602080910402602001604051908101604052809291908181526020018280546113979061479d565b80156113e45780601f106113b9576101008083540402835291602001916113e4565b820191906000526020600020905b8154815290600101906020018083116113c757829003601f168201915b5050505050908060010180546113f99061479d565b80601f01602080910402602001604051908101604052809291908181526020018280546114259061479d565b80156114725780601f1061144757610100808354040283529160200191611472565b820191906000526020600020905b81548152906001019060200180831161145557829003601f168201915b5050505050908060020180546114879061479d565b80601f01602080910402602001604051908101604052809291908181526020018280546114b39061479d565b80156115005780601f106114d557610100808354040283529160200191611500565b820191906000526020600020905b8154815290600101906020018083116114e357829003601f168201915b5050505050905083565b600c60003373ffffffffffffffffffffffffffffffffffffffff1673ffffffffffffffffffffffffffffffffffffffff16815260200190815260200160002060009054906101000a900460ff1615611597576040517f08c379a000000000000000000000000000000000000000000000000000000000815260040161158e90614e00565b60405180910390fd5b6001600c60003373ffffffffffffffffffffffffffffffffffffffff1673ffffffffffffffffffffffffffffffffffffffff16815260200190815260200160002060006101000a81548160ff021916908315150217905550604051806060016040528087878080601f016020809104026020016040519081016040528093929190818152602001838380828437600081840152601f19601f82011690508083019250505050505050815260200185858080601f016020809104026020016040519081016040528093929190818152602001838380828437600081840152601f19601f82011690508083019250505050505050815260200183838080601f016020809104026020016040519081016040528093929190818152602001838380828437600081840152601f19601f82011690508083019250505050505050815250600d60003373ffffffffffffffffffffffffffffffffffffffff1673ffffffffffffffffffffffffffffffffffffffff168152602001908152602001600020600082015181600001908161172a9190614a81565b5060208201518160010190816117409190614a81565b5060408201518160020190816117569190614a81565b509050507fc6b3a3cb893680baef98e6f2f73e2f33a36a14eaea0ba521451d6547ba362b6233878760405161178d93929190614e20565b60405180910390a1505050505050565b600c60003373ffffffffffffffffffffffffffffffffffffffff1673ffffffffffffffffffffffffffffffffffffffff16815260200190815260200160002060009054906101000a900460ff16611829576040517f08c379a000000000000000000000000000000000000000000000000000000000815260040161182090614e9e565b60405180910390fd5b3373ffffffffffffffffffffffffffffffffffffffff16600e600086815260200190815260200160002060040160009054906101000a900473ffffffffffffffffffffffffffffffffffffffff1673ffffffffffffffffffffffffffffffffffffffff16146118cd576040517f08c379a00000000000000000000000000000000000000000000000000000000081526004016118c490614f0a565b60405180910390fd5b82600e600086815260200190815260200160002060040160006101000a81548173ffffffffffffffffffffffffffffffffffffffff021916908373ffffffffffffffffffffffffffffffffffffffff1602179055508181600e60008781526020019081526020016000206003019182611947929190614cb2565b507f02666d7b1655588adc2208a66dd88260cfd5b9c5c38aecf90e5170371cfa4f198484604051611979929190614f2a565b60405180910390a150505050565b600f60003373ffffffffffffffffffffffffffffffffffffffff1673ffffffffffffffffffffffffffffffffffffffff16815260200190815260200160002060009054906101000a900460ff16611a13576040517f08c379a0000000000000000000000000000000000000000000000000000000008152600401611a0a90614f9f565b60405180910390fd5b6040518060a00160405280878152602001861515815260200185858080601f016020809104026020016040519081016040528093929190818152602001838380828437600081840152601f19601f82011690508083019250505050505050815260200183838080601f016020809104026020016040519081016040528093929190818152602001838380828437600081840152601f19601f8201169050808301925050505050505081526020013373ffffffffffffffffffffffffffffffffffffffff16815250601160008881526020019081526020016000206000820151816000015560208201518160010160006101000a81548160ff0219169083151502179055506040820151816002019081611b2c9190614a81565b506060820151816003019081611b429190614a81565b5060808201518160040160006101000a81548173ffffffffffffffffffffffffffffffffffffffff021916908373ffffffffffffffffffffffffffffffffffffffff1602179055509050507f9712bb7e105b124f0cc3f0585e06a1950de77a678ebaec3506656b363733eb5e8633604051611bbe929190614f2a565b60405180910390a1505050505050565b600c60003373ffffffffffffffffffffffffffffffffffffffff1673ffffffffffffffffffffffffffffffffffffffff16815260200190815260200160002060009054906101000a900460ff16611c5a576040517f08c379a0000000000000000000000000000000000000000000000000000000008152600401611c5190614e9e565b60405180910390fd5b6040518060a0016040528085815260200184815260200183838080601f016020809104026020016040519081016040528093929190818152602001838380828437600081840152601f19601f8201169050808301925050505050505081526020016040518060200160405280600081525081526020013373ffffffffffffffffffffffffffffffffffffffff16815250600e600086815260200190815260200160002060008201518160000155602082015181600101556040820151816002019081611d269190614a81565b506060820151816003019081611d3c9190614a81565b5060808201518160040160006101000a81548173ffffffffffffffffffffffffffffffffffffffff021916908373ffffffffffffffffffffffffffffffffffffffff1602179055509050507fdce449d7850ca6bef609273e8c07c207f37e3df3d879cd8b431342eb623d20fe8433604051611db8929190614f2a565b60405180910390a150505050565b600660003373ffffffffffffffffffffffffffffffffffffffff1673ffffffffffffffffffffffffffffffffffffffff16815260200190815260200160002060009054906101000a900460ff16611e52576040517f08c379a0000000000000000000000000000000000000000000000000000000008152600401611e499061500b565b60405180910390fd5b3373ffffffffffffffffffffffffffffffffffffffff166008600086815260200190815260200160002060040160009054906101000a900473ffffffffffffffffffffffffffffffffffffffff1673ffffffffffffffffffffffffffffffffffffffff1614611ef6576040517f08c379a0000000000000000000000000000000000000000000000000000000008152600401611eed90614f0a565b60405180910390fd5b826008600086815260200190815260200160002060040160006101000a81548173ffffffffffffffffffffffffffffffffffffffff021916908373ffffffffffffffffffffffffffffffffffffffff1602179055508181600860008781526020019081526020016000206003019182611f70929190614cb2565b507f49e75bcd87d6285773e5c15db6c81bb4d20bd0f6498faba00160e92b9c4786548484604051611fa2929190614f2a565b60405180910390a150505050565b600960003373ffffffffffffffffffffffffffffffffffffffff1673ffffffffffffffffffffffffffffffffffffffff16815260200190815260200160002060009054906101000a900460ff1661203c576040517f08c379a000000000000000000000000000000000000000000000000000000000815260040161203390614c1b565b60405180910390fd5b600b600085815260200190815260200160002060010160009054906101000a900460ff1661209f576040517f08c379a000000000000000000000000000000000000000000000000000000000815260040161209690614c87565b60405180910390fd5b82600b600086815260200190815260200160002060060160006101000a81548173ffffffffffffffffffffffffffffffffffffffff021916908373ffffffffffffffffffffffffffffffffffffffff1602179055508181600b60008781526020019081526020016000206005019182612119929190614cb2565b507febfa8f41a2a15e0e89718bd17a4f728bd822d73550222a896ea5d3cfe2331ecc848460405161214b929190614f2a565b60405180910390a150505050565b60008060003373ffffffffffffffffffffffffffffffffffffffff1673ffffffffffffffffffffffffffffffffffffffff16815260200190815260200160002060009054906101000a900460ff166121e6576040517f08c379a00000000000000000000000000000000000000000000000000000000081526004016121dd9061481a565b60405180910390fd5b6121ef82613d65565b9050919050565b6000803373ffffffffffffffffffffffffffffffffffffffff1673ffffffffffffffffffffffffffffffffffffffff16815260200190815260200160002060009054906101000a900460ff16612281576040517f08c379a00000000000000000000000000000000000000000000000000000000081526004016122789061481a565b60405180910390fd5b6004600085815260200190815260200160002060009054906101000a900460ff166122e1576040517f08c379a00000000000000000000000000000000000000000000000000000000081526004016122d890615077565b60405180910390fd5b3373ffffffffffffffffffffffffffffffffffffffff166002600086815260200190815260200160002060050160019054906101000a900473ffffffffffffffffffffffffffffffffffffffff1673ffffffffffffffffffffffffffffffffffffffff1614612385576040517f08c379a000000000000000000000000000000000000000000000000000000000815260040161237c90614f0a565b60405180910390fd5b826002600086815260200190815260200160002060050160016101000a81548173ffffffffffffffffffffffffffffffffffffffff021916908373ffffffffffffffffffffffffffffffffffffffff160217905550600280600086815260200190815260200160002060050160006101000a81548160ff02191690836006811115612413576124126145be565b5b0217905550818160026000878152602001908152602001600020600601918261243d929190614cb2565b507fddd0a704fbe441f1fd23c0e39bfa7cdc43718cc3a6e329a80605132407f7b07a848484846040516124739493929190615097565b60405180910390a150505050565b60116020528060005260406000206000915090508060000154908060010160009054906101000a900460ff16908060020180546124bd9061479d565b80601f01602080910402602001604051908101604052809291908181526020018280546124e99061479d565b80156125365780601f1061250b57610100808354040283529160200191612536565b820191906000526020600020905b81548152906001019060200180831161251957829003601f168201915b50505050509080600301805461254b9061479d565b80601f01602080910402602001604051908101604052809291908181526020018280546125779061479d565b80156125c45780601f10612599576101008083540402835291602001916125c4565b820191906000526020600020905b8154815290600101906020018083116125a757829003601f168201915b5050505050908060040160009054906101000a900473ffffffffffffffffffffffffffffffffffffffff16905085565b600a6020528060005260406000206000915090508060000180546126179061479d565b80601f01602080910402602001604051908101604052809291908181526020018280546126439061479d565b80156126905780601f1061266557610100808354040283529160200191612690565b820191906000526020600020905b81548152906001019060200180831161267357829003601f168201915b5050505050908060010180546126a59061479d565b80601f01602080910402602001604051908101604052809291908181526020018280546126d19061479d565b801561271e5780601f106126f35761010080835404028352916020019161271e565b820191906000526020600020905b81548152906001019060200180831161270157829003601f168201915b5050505050908060020180546127339061479d565b80601f016020809104026020016040519081016040528092919081815260200182805461275f9061479d565b80156127ac5780601f10612781576101008083540402835291602001916127ac565b820191906000526020600020905b81548152906001019060200180831161278f57829003601f168201915b5050505050905083565b600e6020528060005260406000206000915090508060000154908060010154908060020180546127e59061479d565b80601f01602080910402602001604051908101604052809291908181526020018280546128119061479d565b801561285e5780601f106128335761010080835404028352916020019161285e565b820191906000526020600020905b81548152906001019060200180831161284157829003601f168201915b5050505050908060030180546128739061479d565b80601f016020809104026020016040519081016040528092919081815260200182805461289f9061479d565b80156128ec5780601f106128c1576101008083540402835291602001916128ec565b820191906000526020600020905b8154815290600101906020018083116128cf57829003601f168201915b5050505050908060040160009054906101000a900473ffffffffffffffffffffffffffffffffffffffff16905085565b601260009054906101000a900473ffffffffffffffffffffffffffffffffffffffff1681565b60016020528060005260406000206000915090508060000180546129659061479d565b80601f01602080910402602001604051908101604052809291908181526020018280546129919061479d565b80156129de5780601f106129b3576101008083540402835291602001916129de565b820191906000526020600020905b8154815290600101906020018083116129c157829003601f168201915b5050505050908060010180546129f39061479d565b80601f0160208091040260200160405190810160405280929190818152602001828054612a1f9061479d565b8015612a6c5780601f10612a4157610100808354040283529160200191612a6c565b820191906000526020600020905b815481529060010190602001808311612a4f57829003601f168201915b505050505090806002018054612a819061479d565b80601f0160208091040260200160405190810160405280929190818152602001828054612aad9061479d565b8015612afa5780601f10612acf57610100808354040283529160200191612afa565b820191906000526020600020905b815481529060010190602001808311612add57829003601f168201915b5050505050905083565b600c6020528060005260406000206000915054906101000a900460ff1681565b600660003373ffffffffffffffffffffffffffffffffffffffff1673ffffffffffffffffffffffffffffffffffffffff16815260200190815260200160002060009054906101000a900460ff1615612bb1576040517f08c379a0000000000000000000000000000000000000000000000000000000008152600401612ba890614e00565b60405180910390fd5b6001600660003373ffffffffffffffffffffffffffffffffffffffff1673ffffffffffffffffffffffffffffffffffffffff16815260200190815260200160002060006101000a81548160ff021916908315150217905550604051806060016040528087878080601f016020809104026020016040519081016040528093929190818152602001838380828437600081840152601f19601f82011690508083019250505050505050815260200185858080601f016020809104026020016040519081016040528093929190818152602001838380828437600081840152601f19601f82011690508083019250505050505050815260200183838080601f016020809104026020016040519081016040528093929190818152602001838380828437600081840152601f19601f82011690508083019250505050505050815250600760003373ffffffffffffffffffffffffffffffffffffffff1673ffffffffffffffffffffffffffffffffffffffff1681526020019081526020016000206000820151816000019081612d449190614a81565b506020820151816001019081612d5a9190614a81565b506040820151816002019081612d709190614a81565b509050507fd52881a6125270bc10edc37221b17d746ef540e29867a40b76ed110ef520224c338787604051612da793929190614e20565b60405180910390a1505050505050565b6002602052806000526040600020600091509050806000015490806001018054612de09061479d565b80601f0160208091040260200160405190810160405280929190818152602001828054612e0c9061479d565b8015612e595780601f10612e2e57610100808354040283529160200191612e59565b820191906000526020600020905b815481529060010190602001808311612e3c57829003601f168201915b505050505090806002018054612e6e9061479d565b80601f0160208091040260200160405190810160405280929190818152602001828054612e9a9061479d565b8015612ee75780601f10612ebc57610100808354040283529160200191612ee7565b820191906000526020600020905b815481529060010190602001808311612eca57829003601f168201915b505050505090806003018054612efc9061479d565b80601f0160208091040260200160405190810160405280929190818152602001828054612f289061479d565b8015612f755780601f10612f4a57610100808354040283529160200191612f75565b820191906000526020600020905b815481529060010190602001808311612f5857829003601f168201915b5050505050908060040154908060050160009054906101000a900460ff16908060050160019054906101000a900473ffffffffffffffffffffffffffffffffffffffff1690806006018054612fc99061479d565b80601f0160208091040260200160405190810160405280929190818152602001828054612ff59061479d565b80156130425780601f1061301757610100808354040283529160200191613042565b820191906000526020600020905b81548152906001019060200180831161302557829003601f168201915b5050505050905088565b600660003373ffffffffffffffffffffffffffffffffffffffff1673ffffffffffffffffffffffffffffffffffffffff16815260200190815260200160002060009054906101000a900460ff166130d8576040517f08c379a00000000000000000000000000000000000000000000000000000000081526004016130cf9061500b565b60405180910390fd5b6040518060a0016040528085815260200184815260200183838080601f016020809104026020016040519081016040528093929190818152602001838380828437600081840152601f19601f8201169050808301925050505050505081526020016040518060200160405280600081525081526020013373ffffffffffffffffffffffffffffffffffffffff1681525060086000868152602001908152602001600020600082015181600001556020820151816001015560408201518160020190816131a49190614a81565b5060608201518160030190816131ba9190614a81565b5060808201518160040160006101000a81548173ffffffffffffffffffffffffffffffffffffffff021916908373ffffffffffffffffffffffffffffffffffffffff1602179055509050507fc84b2e7a91cbbf0711ac91fd9090853f03a14f7bef43df0eb49e6b32d36fe0ac8433604051613236929190614f2a565b60405180910390a150505050565b600b6020528060005260406000206000915090508060000154908060010160009054906101000a900460ff16908060020180546132809061479d565b80601f01602080910402602001604051908101604052809291908181526020018280546132ac9061479d565b80156132f95780601f106132ce576101008083540402835291602001916132f9565b820191906000526020600020905b8154815290600101906020018083116132dc57829003601f168201915b5050505050908060030160009054906101000a900460ff16908060040180546133219061479d565b80601f016020809104026020016040519081016040528092919081815260200182805461334d9061479d565b801561339a5780601f1061336f5761010080835404028352916020019161339a565b820191906000526020600020905b81548152906001019060200180831161337d57829003601f168201915b5050505050908060050180546133af9061479d565b80601f01602080910402602001604051908101604052809291908181526020018280546133db9061479d565b80156134285780601f106133fd57610100808354040283529160200191613428565b820191906000526020600020905b81548152906001019060200180831161340b57829003601f168201915b5050505050908060060160009054906101000a900473ffffffffffffffffffffffffffffffffffffffff16905087565b600960003373ffffffffffffffffffffffffffffffffffffffff1673ffffffffffffffffffffffffffffffffffffffff16815260200190815260200160002060009054906101000a900460ff166134e4576040517f08c379a00000000000000000000000000000000000000000000000000000000081526004016134db90614c1b565b60405180910390fd5b6040518060e0016040528084815260200160011515815260200183838080601f016020809104026020016040519081016040528093929190818152602001838380828437600081840152601f19601f8201169050808301925050505050505081526020016000151581526020016040518060200160405280600081525081526020016040518060200160405280600081525081526020013373ffffffffffffffffffffffffffffffffffffffff16815250600b60008581526020019081526020016000206000820151816000015560208201518160010160006101000a81548160ff02191690831515021790555060408201518160020190816135e79190614a81565b5060608201518160030160006101000a81548160ff021916908315150217905550608082015181600401908161361d9190614a81565b5060a08201518160050190816136339190614a81565b5060c08201518160060160006101000a81548173ffffffffffffffffffffffffffffffffffffffff021916908373ffffffffffffffffffffffffffffffffffffffff1602179055509050507f3da11207acef64a8ef6a06e530a71956f123355b74d421e1883e3d3ce94c92c183336040516136af929190614f2a565b60405180910390a1505050565b60055481565b600960003373ffffffffffffffffffffffffffffffffffffffff1673ffffffffffffffffffffffffffffffffffffffff16815260200190815260200160002060009054906101000a900460ff161561374f576040517f08c379a000000000000000000000000000000000000000000000000000000000815260040161374690614e00565b60405180910390fd5b6001600960003373ffffffffffffffffffffffffffffffffffffffff1673ffffffffffffffffffffffffffffffffffffffff16815260200190815260200160002060006101000a81548160ff021916908315150217905550604051806060016040528087878080601f016020809104026020016040519081016040528093929190818152602001838380828437600081840152601f19601f82011690508083019250505050505050815260200185858080601f016020809104026020016040519081016040528093929190818152602001838380828437600081840152601f19601f82011690508083019250505050505050815260200183838080601f016020809104026020016040519081016040528093929190818152602001838380828437600081840152601f19601f82011690508083019250505050505050815250600a60003373ffffffffffffffffffffffffffffffffffffffff1673ffffffffffffffffffffffffffffffffffffffff16815260200190815260200160002060008201518160000190816138e29190614a81565b5060208201518160010190816138f89190614a81565b50604082015181600201908161390e9190614a81565b509050507ef326cfeee4a98cdaa20d4b3ea99e1d7ba56e0bc16159f422e5ef8a57fceb2633878760405161394493929190614e20565b60405180910390a1505050505050565b60036020528060005260406000206000915090505481565b600860205280600052604060002060009150905080600001549080600101549080600201805461399b9061479d565b80601f01602080910402602001604051908101604052809291908181526020018280546139c79061479d565b8015613a145780601f106139e957610100808354040283529160200191613a14565b820191906000526020600020905b8154815290600101906020018083116139f757829003601f168201915b505050505090806003018054613a299061479d565b80601f0160208091040260200160405190810160405280929190818152602001828054613a559061479d565b8015613aa25780601f10613a7757610100808354040283529160200191613aa2565b820191906000526020600020905b815481529060010190602001808311613a8557829003601f168201915b5050505050908060040160009054906101000a900473ffffffffffffffffffffffffffffffffffffffff16905085565b600f60003373ffffffffffffffffffffffffffffffffffffffff1673ffffffffffffffffffffffffffffffffffffffff16815260200190815260200160002060009054906101000a900460ff1615613b5f576040517f08c379a0000000000000000000000000000000000000000000000000000000008152600401613b5690614e00565b60405180910390fd5b6001600f60003373ffffffffffffffffffffffffffffffffffffffff1673ffffffffffffffffffffffffffffffffffffffff16815260200190815260200160002060006101000a81548160ff021916908315150217905550604051806060016040528087878080601f016020809104026020016040519081016040528093929190818152602001838380828437600081840152601f19601f82011690508083019250505050505050815260200185858080601f016020809104026020016040519081016040528093929190818152602001838380828437600081840152601f19601f82011690508083019250505050505050815260200183838080601f016020809104026020016040519081016040528093929190818152602001838380828437600081840152601f19601f82011690508083019250505050505050815250601060003373ffffffffffffffffffffffffffffffffffffffff1673ffffffffffffffffffffffffffffffffffffffff1681526020019081526020016000206000820151816000019081613cf29190614a81565b506020820151816001019081613d089190614a81565b506040820151816002019081613d1e9190614a81565b509050507f2bf7863d4068dda3123298d02ee28530519d2e96eaab6784f5f0b6184ddd2015338787604051613d5593929190614e20565b60405180910390a1505050505050565b6000806002834233600554604051602001613d839493929190615140565b604051602081830303815290604052604051613d9f91906151d5565b602060405180830381855afa158015613dbc573d6000803e3d6000fd5b5050506040513d601f19601f82011682018060405250810190613ddf9190615201565b9050806003600060055481526020019081526020016000208190555060056000815480929190613e0e9061525d565b919050555080915050919050565b600080fd5b600080fd5b600073ffffffffffffffffffffffffffffffffffffffff82169050919050565b6000613e5182613e26565b9050919050565b613e6181613e46565b8114613e6c57600080fd5b50565b600081359050613e7e81613e58565b92915050565b600060208284031215613e9a57613e99613e1c565b5b6000613ea884828501613e6f565b91505092915050565b600081519050919050565b600082825260208201905092915050565b60005b83811015613eeb578082015181840152602081019050613ed0565b60008484015250505050565b6000601f19601f8301169050919050565b6000613f1382613eb1565b613f1d8185613ebc565b9350613f2d818560208601613ecd565b613f3681613ef7565b840191505092915050565b60006060820190508181036000830152613f5b8186613f08565b90508181036020830152613f6f8185613f08565b90508181036040830152613f838184613f08565b9050949350505050565b6000819050919050565b613fa081613f8d565b8114613fab57600080fd5b50565b600081359050613fbd81613f97565b92915050565b600080fd5b600080fd5b600080fd5b60008083601f840112613fe857613fe7613fc3565b5b8235905067ffffffffffffffff81111561400557614004613fc8565b5b60208301915083600182028301111561402157614020613fcd565b5b9250929050565b6000819050919050565b61403b81614028565b811461404657600080fd5b50565b60008135905061405881614032565b92915050565b60008060008060008060008060a0898b03121561407e5761407d613e1c565b5b600061408c8b828c01613fae565b985050602089013567ffffffffffffffff8111156140ad576140ac613e21565b5b6140b98b828c01613fd2565b9750975050604089013567ffffffffffffffff8111156140dc576140db613e21565b5b6140e88b828c01613fd2565b9550955050606089013567ffffffffffffffff81111561410b5761410a613e21565b5b6141178b828c01613fd2565b9350935050608061412a8b828c01614049565b9150509295985092959890939650565b60008115159050919050565b61414f8161413a565b82525050565b600060208201905061416a6000830184614146565b92915050565b60008060006040848603121561418957614188613e1c565b5b600061419786828701613fae565b935050602084013567ffffffffffffffff8111156141b8576141b7613e21565b5b6141c486828701613fd2565b92509250509250925092565b600080600080600080606087890312156141ed576141ec613e1c565b5b600087013567ffffffffffffffff81111561420b5761420a613e21565b5b61421789828a01613fd2565b9650965050602087013567ffffffffffffffff81111561423a57614239613e21565b5b61424689828a01613fd2565b9450945050604087013567ffffffffffffffff81111561426957614268613e21565b5b61427589828a01613fd2565b92509250509295509295509295565b60006020828403121561429a57614299613e1c565b5b60006142a884828501613fae565b91505092915050565b600080600080606085870312156142cb576142ca613e1c565b5b60006142d987828801613fae565b94505060206142ea87828801613e6f565b935050604085013567ffffffffffffffff81111561430b5761430a613e21565b5b61431787828801613fd2565b925092505092959194509250565b61432e8161413a565b811461433957600080fd5b50565b60008135905061434b81614325565b92915050565b6000806000806000806080878903121561436e5761436d613e1c565b5b600061437c89828a01613fae565b965050602061438d89828a0161433c565b955050604087013567ffffffffffffffff8111156143ae576143ad613e21565b5b6143ba89828a01613fd2565b9450945050606087013567ffffffffffffffff8111156143dd576143dc613e21565b5b6143e989828a01613fd2565b92509250509295509295509295565b6000806000806060858703121561441257614411613e1c565b5b600061442087828801613fae565b945050602061443187828801614049565b935050604085013567ffffffffffffffff81111561445257614451613e21565b5b61445e87828801613fd2565b925092505092959194509250565b60006020828403121561448257614481613e1c565b5b600061449084828501614049565b91505092915050565b6144a281613f8d565b82525050565b60006020820190506144bd6000830184614499565b92915050565b6144cc81613e46565b82525050565b600060a0820190506144e76000830188614499565b6144f46020830187614146565b81810360408301526145068186613f08565b9050818103606083015261451a8185613f08565b905061452960808301846144c3565b9695505050505050565b61453c81614028565b82525050565b600060a0820190506145576000830188614499565b6145646020830187614533565b81810360408301526145768186613f08565b9050818103606083015261458a8185613f08565b905061459960808301846144c3565b9695505050505050565b60006020820190506145b860008301846144c3565b92915050565b7f4e487b7100000000000000000000000000000000000000000000000000000000600052602160045260246000fd5b600781106145fe576145fd6145be565b5b50565b600081905061460f826145ed565b919050565b600061461f82614601565b9050919050565b61462f81614614565b82525050565b60006101008201905061464b600083018b614499565b818103602083015261465d818a613f08565b905081810360408301526146718189613f08565b905081810360608301526146858188613f08565b90506146946080830187614533565b6146a160a0830186614626565b6146ae60c08301856144c3565b81810360e08301526146c08184613f08565b90509998505050505050505050565b600060e0820190506146e4600083018a614499565b6146f16020830189614146565b81810360408301526147038188613f08565b90506147126060830187614146565b81810360808301526147248186613f08565b905081810360a08301526147388185613f08565b905061474760c08301846144c3565b98975050505050505050565b60006020820190506147686000830184614533565b92915050565b7f4e487b7100000000000000000000000000000000000000000000000000000000600052602260045260246000fd5b600060028204905060018216806147b557607f821691505b6020821081036147c8576147c761476e565b5b50919050565b7f4f6e6c79206661726d6572000000000000000000000000000000000000000000600082015250565b6000614804600b83613ebc565b915061480f826147ce565b602082019050919050565b60006020820190508181036000830152614833816147f7565b9050919050565b7f43726f7020657869737473000000000000000000000000000000000000000000600082015250565b6000614870600b83613ebc565b915061487b8261483a565b602082019050919050565b6000602082019050818103600083015261489f81614863565b9050919050565b7f4e487b7100000000000000000000000000000000000000000000000000000000600052604160045260246000fd5b60008190508160005260206000209050919050565b60006020601f8301049050919050565b600082821b905092915050565b6000600883026149377fffffffffffffffffffffffffffffffffffffffffffffffffffffffffffffffff826148fa565b61494186836148fa565b95508019841693508086168417925050509392505050565b6000819050919050565b600061497e61497961497484614028565b614959565b614028565b9050919050565b6000819050919050565b61499883614963565b6149ac6149a482614985565b848454614907565b825550505050565b600090565b6149c16149b4565b6149cc81848461498f565b505050565b5b818110156149f0576149e56000826149b9565b6001810190506149d2565b5050565b601f821115614a3557614a06816148d5565b614a0f846148ea565b81016020851015614a1e578190505b614a32614a2a856148ea565b8301826149d1565b50505b505050565b600082821c905092915050565b6000614a5860001984600802614a3a565b1980831691505092915050565b6000614a718383614a47565b9150826002028217905092915050565b614a8a82613eb1565b67ffffffffffffffff811115614aa357614aa26148a6565b5b614aad825461479d565b614ab88282856149f4565b600060209050601f831160018114614aeb5760008415614ad9578287015190505b614ae38582614a65565b865550614b4b565b601f198416614af9866148d5565b60005b82811015614b2157848901518255600182019150602085019450602081019050614afc565b86831015614b3e5784890151614b3a601f891682614a47565b8355505b6001600288020188555050505b505050505050565b82818337600083830152505050565b6000614b6e8385613ebc565b9350614b7b838584614b53565b614b8483613ef7565b840190509392505050565b6000606082019050614ba46000830187614499565b8181036020830152614bb7818587614b62565b9050614bc66040830184614533565b95945050505050565b7f4f6e6c792061676772656761746f720000000000000000000000000000000000600082015250565b6000614c05600f83613ebc565b9150614c1082614bcf565b602082019050919050565b60006020820190508181036000830152614c3481614bf8565b9050919050565b7f4e6f742072656365697665640000000000000000000000000000000000000000600082015250565b6000614c71600c83613ebc565b9150614c7c82614c3b565b602082019050919050565b60006020820190508181036000830152614ca081614c64565b9050919050565b600082905092915050565b614cbc8383614ca7565b67ffffffffffffffff811115614cd557614cd46148a6565b5b614cdf825461479d565b614cea8282856149f4565b6000601f831160018114614d195760008415614d07578287013590505b614d118582614a65565b865550614d79565b601f198416614d27866148d5565b60005b82811015614d4f57848901358255600182019150602085019450602081019050614d2a565b86831015614d6c5784890135614d68601f891682614a47565b8355505b6001600288020188555050505b50505050505050565b6000604082019050614d976000830186614499565b8181036020830152614daa818486614b62565b9050949350505050565b7f416c726561647920726567697374657265640000000000000000000000000000600082015250565b6000614dea601283613ebc565b9150614df582614db4565b602082019050919050565b60006020820190508181036000830152614e1981614ddd565b9050919050565b6000604082019050614e3560008301866144c3565b8181036020830152614e48818486614b62565b9050949350505050565b7f4f6e6c792072657461696c657200000000000000000000000000000000000000600082015250565b6000614e88600d83613ebc565b9150614e9382614e52565b602082019050919050565b60006020820190508181036000830152614eb781614e7b565b9050919050565b7f4e6f7420686f6c64657200000000000000000000000000000000000000000000600082015250565b6000614ef4600a83613ebc565b9150614eff82614ebe565b602082019050919050565b60006020820190508181036000830152614f2381614ee7565b9050919050565b6000604082019050614f3f6000830185614499565b614f4c60208301846144c3565b9392505050565b7f4f6e6c7920637573746f6d657200000000000000000000000000000000000000600082015250565b6000614f89600d83613ebc565b9150614f9482614f53565b602082019050919050565b60006020820190508181036000830152614fb881614f7c565b9050919050565b7f4f6e6c7920737570706c69657200000000000000000000000000000000000000600082015250565b6000614ff5600d83613ebc565b915061500082614fbf565b602082019050919050565b6000602082019050818103600083015261502481614fe8565b9050919050565b7f556e6b6e6f776e2063726f700000000000000000000000000000000000000000600082015250565b6000615061600c83613ebc565b915061506c8261502b565b602082019050919050565b6000602082019050818103600083015261509081615054565b9050919050565b60006060820190506150ac6000830187614499565b6150b960208301866144c3565b81810360408301526150cc818486614b62565b905095945050505050565b6000819050919050565b6150f26150ed82614028565b6150d7565b82525050565b60008160601b9050919050565b6000615110826150f8565b9050919050565b600061512282615105565b9050919050565b61513a61513582613e46565b615117565b82525050565b600061514c82876150e1565b60208201915061515c82866150e1565b60208201915061516c8285615129565b60148201915061517c82846150e1565b60208201915081905095945050505050565b600081519050919050565b600081905092915050565b60006151af8261518e565b6151b98185615199565b93506151c9818560208601613ecd565b80840191505092915050565b60006151e182846151a4565b915081905092915050565b6000815190506151fb81613f97565b92915050565b60006020828403121561521757615216613e1c565b5b6000615225848285016151ec565b91505092915050565b7f4e487b7100000000000000000000000000000000000000000000000000000000600052601160045260246000fd5b600061526882614028565b91507fffffffffffffffffffffffffffffffffffffffffffffffffffffffffffffffff820361529a5761529961522e565b5b60018201905091905056fea264697066735822122080314265a98f9fc38d68d75f62aee9ee57c53596dfc31442dc82bb644779f56364736f6c63430008140033",
  "immutableReferences": {},
  "source": "// SPDX-License-Identifier: MIT\r\npragma solidity ^0.8.20;\r\n\r\nimport \"./Farmer.sol\";\r\nimport \"./Supplier.sol\";\r\nimport \"./Aggregator.sol\";\r\nimport \"./Retailer.sol\";\r\nimport \"./Customer.sol\";\r\n\r\ncontract TrackSupplyChain is Farmer, Supplier, Aggregator, Retailer, Customer {\r\n    address public owner;\r\n\r\n    constructor() {\r\n        owner = msg.sender;\r\n    }\r\n}\r\n",
  "sourcePath": "C:\\Users\\balakrishna\\Downloads\\Modified_Major (1)\\Modified_Major (1)\\contracts\\TrackSupplyChain.sol",
  "compiler": {
    "name": "solc",
    "version": "0.8.20+commit.a1b79de6.Emscripten.clang"
  },
  "schemaVersion": "3.4.16",
  "updatedAt": "2025-10-07T05:02:16.603Z",
  "networkType": "ethereum",
  "devdoc": {
    "kind": "dev",
    "methods": {},
    "version": 1
  },
  "userdoc": {
    "kind": "user",
    "methods": {},
    "version": 1
  }
}