{
	"data": {
		"bytecode": {
			"linkReferences": {},
			"object": "6080604052348015600e575f5ffd5b503360125f6101000a81548173ffffffffffffffffffffffffffffffffffffffff021916908373ffffffffffffffffffffffffffffffffffffffff1602179055506154768061005c5f395ff3fe608060405234801561000f575f5ffd5b5060043610610246575f3560e01c8063769d042011610139578063b71b75f4116100b6578063e9ef9cf71161007a578063e9ef9cf7146107d4578063f07992b8146107f0578063f0861b3a14610820578063f49d66a314610850578063f8e66a4d1461088457610246565b8063b71b75f414610718578063c81e25ab14610734578063c9820cc41461076a578063d8aa455814610786578063dfd55a2c146107b657610246565b806392714224116100fd57806392714224146106305780639a268f3514610662578063a1c2e79c14610692578063a87e3fd0146106ae578063a900d628146106e157610246565b8063769d04201461055c5780637ab8dbe9146105785780638039feef146105ac57806388e46740146105de5780638da5cb5b1461061257610246565b8063401b2168116101c757806352f864671161018b57806352f86467146104a8578063607f388a146104c45780636c1e9d87146104f45780637304957b14610510578063750aa2ea1461052c57610246565b8063401b2168146103f257806349beb611146104225780634d6ec6e8146104545780634f3bedbd1461047057806351c4add51461048c57610246565b806327ed35401161020e57806327ed35401461032a57806329a566d21461034657806330820a2614610362578063336989ae1461039257806338a699a4146103c257610246565b80630f5600cb1461024a5780630f86a2a41461027c578063112cdab91461029857806316dc15fe146102c857806318f13654146102f8575b5f5ffd5b610264600480360381019061025f9190613fcd565b6108a0565b60405161027393929190614068565b60405180910390f35b61029660048036038101906102919190614179565b610a58565b005b6102b260048036038101906102ad9190613fcd565b610ddc565b6040516102bf919061426a565b60405180910390f35b6102e260048036038101906102dd9190613fcd565b610df9565b6040516102ef919061426a565b60405180910390f35b610312600480360381019061030d9190613fcd565b610e16565b60405161032193929190614068565b60405180910390f35b610344600480360381019061033f9190614283565b610fce565b005b610360600480360381019061035b91906142e0565b611147565b005b61037c60048036038101906103779190614390565b6113cb565b60405161038991906143ca565b60405180910390f35b6103ac60048036038101906103a79190613fcd565b6113e0565b6040516103b9919061426a565b60405180910390f35b6103dc60048036038101906103d791906143e3565b6113fd565b6040516103e9919061426a565b60405180910390f35b61040c60048036038101906104079190613fcd565b61141a565b604051610419919061426a565b60405180910390f35b61043c60048036038101906104379190613fcd565b611436565b60405161044b93929190614068565b60405180910390f35b61046e600480360381019061046991906142e0565b6115ee565b005b61048a6004803603810190610485919061440e565b611874565b005b6104a660048036038101906104a191906144a9565b611a53565b005b6104c260048036038101906104bd919061454c565b611c8f565b005b6104de60048036038101906104d991906145bd565b611e7d565b6040516104eb919061426a565b60405180910390f35b61050e6004803603810190610509919061440e565b611eee565b005b61052a6004803603810190610525919061440e565b6120cd565b005b61054660048036038101906105419190614390565b61226b565b604051610553919061460a565b60405180910390f35b6105766004803603810190610571919061440e565b612304565b005b610592600480360381019061058d91906143e3565b612580565b6040516105a3959493929190614632565b60405180910390f35b6105c660048036038101906105c19190613fcd565b6126e9565b6040516105d593929190614068565b60405180910390f35b6105f860048036038101906105f391906143e3565b6128a1565b604051610609959493929190614691565b60405180910390f35b61061a6129fe565b60405161062791906146f0565b60405180910390f35b61064a60048036038101906106459190613fcd565b612a23565b60405161065993929190614068565b60405180910390f35b61067c60048036038101906106779190613fcd565b612bdb565b604051610689919061426a565b60405180910390f35b6106ac60048036038101906106a791906142e0565b612bf8565b005b6106c860048036038101906106c39190614390565b612e7e565b6040516106d89493929190614709565b60405180910390f35b6106fb60048036038101906106f691906143e3565b612eaa565b60405161070f9897969594939291906147bf565b60405180910390f35b610732600480360381019061072d919061454c565b613132565b005b61074e600480360381019061074991906143e3565b613320565b6040516107619796959493929190614857565b60405180910390f35b610784600480360381019061077f9190614283565b613527565b005b6107a0600480360381019061079b91906148d9565b61377d565b6040516107ad919061426a565b60405180910390f35b6107be613822565b6040516107cb91906143ca565b60405180910390f35b6107ee60048036038101906107e991906142e0565b613828565b005b61080a60048036038101906108059190614390565b613aad565b60405161081791906143ca565b60405180910390f35b61083a60048036038101906108359190614390565b613ac2565b604051610847919061460a565b60405180910390f35b61086a600480360381019061086591906143e3565b613ad7565b60405161087b959493929190614691565b60405180910390f35b61089e600480360381019061089991906142e0565b613c34565b005b6007602052805f5260405f205f91509050805f0180546108bf9061496a565b80601f01602080910402602001604051908101604052809291908181526020018280546108eb9061496a565b80156109365780601f1061090d57610100808354040283529160200191610936565b820191905f5260205f20905b81548152906001019060200180831161091957829003601f168201915b50505050509080600101805461094b9061496a565b80601f01602080910402602001604051908101604052809291908181526020018280546109779061496a565b80156109c25780601f10610999576101008083540402835291602001916109c2565b820191905f5260205f20905b8154815290600101906020018083116109a557829003601f168201915b5050505050908060020180546109d79061496a565b80601f0160208091040260200160405190810160405280929190818152602001828054610a039061496a565b8015610a4e5780601f10610a2557610100808354040283529160200191610a4e565b820191905f5260205f20905b815481529060010190602001808311610a3157829003601f168201915b5050505050905083565b5f5f3373ffffffffffffffffffffffffffffffffffffffff1673ffffffffffffffffffffffffffffffffffffffff1681526020019081526020015f205f9054906101000a900460ff16610ae0576040517f08c379a0000000000000000000000000000000000000000000000000000000008152600401610ad7906149e4565b60405180910390fd5b60045f8981526020019081526020015f205f9054906101000a900460ff1615610b3e576040517f08c379a0000000000000000000000000000000000000000000000000000000008152600401610b3590614a4c565b60405180910390fd5b60405180610100016040528089815260200188888080601f0160208091040260200160405190810160405280939291908181526020018383808284375f81840152601f19601f82011690508083019250505050505050815260200186868080601f0160208091040260200160405190810160405280939291908181526020018383808284375f81840152601f19601f82011690508083019250505050505050815260200184848080601f0160208091040260200160405190810160405280939291908181526020018383808284375f81840152601f19601f82011690508083019250505050505050815260200182815260200160016006811115610c4557610c4461474c565b5b81526020013373ffffffffffffffffffffffffffffffffffffffff16815260200160405180602001604052805f81525081525060025f8a81526020019081526020015f205f820151815f01556020820151816001019081610ca69190614c37565b506040820151816002019081610cbc9190614c37565b506060820151816003019081610cd29190614c37565b506080820151816004015560a0820151816005015f6101000a81548160ff02191690836006811115610d0757610d0661474c565b5b021790555060c08201518160050160016101000a81548173ffffffffffffffffffffffffffffffffffffffff021916908373ffffffffffffffffffffffffffffffffffffffff16021790555060e0820151816006019081610d689190614c37565b50905050600160045f8a81526020019081526020015f205f6101000a81548160ff0219169083151502179055507f9dcca99eebc5190547e039817ed1a8656e9d96c9fcc340f1223d2717dc72ae5888888884604051610dca9493929190614d40565b60405180910390a15050505050505050565b6009602052805f5260405f205f915054906101000a900460ff1681565b6006602052805f5260405f205f915054906101000a900460ff1681565b600d602052805f5260405f205f91509050805f018054610e359061496a565b80601f0160208091040260200160405190810160405280929190818152602001828054610e619061496a565b8015610eac5780601f10610e8357610100808354040283529160200191610eac565b820191905f5260205f20905b815481529060010190602001808311610e8f57829003601f168201915b505050505090806001018054610ec19061496a565b80601f0160208091040260200160405190810160405280929190818152602001828054610eed9061496a565b8015610f385780601f10610f0f57610100808354040283529160200191610f38565b820191905f5260205f20905b815481529060010190602001808311610f1b57829003601f168201915b505050505090806002018054610f4d9061496a565b80601f0160208091040260200160405190810160405280929190818152602001828054610f799061496a565b8015610fc45780601f10610f9b57610100808354040283529160200191610fc4565b820191905f5260205f20905b815481529060010190602001808311610fa757829003601f168201915b5050505050905083565b60095f3373ffffffffffffffffffffffffffffffffffffffff1673ffffffffffffffffffffffffffffffffffffffff1681526020019081526020015f205f9054906101000a900460ff16611057576040517f08c379a000000000000000000000000000000000000000000000000000000000815260040161104e90614dc8565b60405180910390fd5b600b5f8481526020019081526020015f206001015f9054906101000a900460ff166110b7576040517f08c379a00000000000000000000000000000000000000000000000000000000081526004016110ae90614e30565b60405180910390fd5b6001600b5f8581526020019081526020015f206003015f6101000a81548160ff0219169083151502179055508181600b5f8681526020019081526020015f206004019182611106929190614e58565b507fe5d0b47a1fe3de7357458b7b7aa20aede2093baa892e9d8c2784e39fa58a7d8c83838360405161113a93929190614f25565b60405180910390a1505050565b5f5f3373ffffffffffffffffffffffffffffffffffffffff1673ffffffffffffffffffffffffffffffffffffffff1681526020019081526020015f205f9054906101000a900460ff16156111d0576040517f08c379a00000000000000000000000000000000000000000000000000000000081526004016111c790614f9f565b60405180910390fd5b60015f5f3373ffffffffffffffffffffffffffffffffffffffff1673ffffffffffffffffffffffffffffffffffffffff1681526020019081526020015f205f6101000a81548160ff021916908315150217905550604051806060016040528087878080601f0160208091040260200160405190810160405280939291908181526020018383808284375f81840152601f19601f82011690508083019250505050505050815260200185858080601f0160208091040260200160405190810160405280939291908181526020018383808284375f81840152601f19601f82011690508083019250505050505050815260200183838080601f0160208091040260200160405190810160405280939291908181526020018383808284375f81840152601f19601f8201169050808301925050505050505081525060015f3373ffffffffffffffffffffffffffffffffffffffff1673ffffffffffffffffffffffffffffffffffffffff1681526020019081526020015f205f820151815f0190816113589190614c37565b50602082015181600101908161136e9190614c37565b5060408201518160020190816113849190614c37565b509050507f42558426a946ab6e527d7f548e7bd3e34c2a7ddde555007464cdfbb5f58665f83387876040516113bb93929190614fbd565b60405180910390a1505050505050565b6014602052805f5260405f205f915090505481565b600f602052805f5260405f205f915054906101000a900460ff1681565b6004602052805f5260405f205f915054906101000a900460ff1681565b5f602052805f5260405f205f915054906101000a900460ff1681565b6010602052805f5260405f205f91509050805f0180546114559061496a565b80601f01602080910402602001604051908101604052809291908181526020018280546114819061496a565b80156114cc5780601f106114a3576101008083540402835291602001916114cc565b820191905f5260205f20905b8154815290600101906020018083116114af57829003601f168201915b5050505050908060010180546114e19061496a565b80601f016020809104026020016040519081016040528092919081815260200182805461150d9061496a565b80156115585780601f1061152f57610100808354040283529160200191611558565b820191905f5260205f20905b81548152906001019060200180831161153b57829003601f168201915b50505050509080600201805461156d9061496a565b80601f01602080910402602001604051908101604052809291908181526020018280546115999061496a565b80156115e45780601f106115bb576101008083540402835291602001916115e4565b820191905f5260205f20905b8154815290600101906020018083116115c757829003601f168201915b5050505050905083565b600c5f3373ffffffffffffffffffffffffffffffffffffffff1673ffffffffffffffffffffffffffffffffffffffff1681526020019081526020015f205f9054906101000a900460ff1615611678576040517f08c379a000000000000000000000000000000000000000000000000000000000815260040161166f90614f9f565b60405180910390fd5b6001600c5f3373ffffffffffffffffffffffffffffffffffffffff1673ffffffffffffffffffffffffffffffffffffffff1681526020019081526020015f205f6101000a81548160ff021916908315150217905550604051806060016040528087878080601f0160208091040260200160405190810160405280939291908181526020018383808284375f81840152601f19601f82011690508083019250505050505050815260200185858080601f0160208091040260200160405190810160405280939291908181526020018383808284375f81840152601f19601f82011690508083019250505050505050815260200183838080601f0160208091040260200160405190810160405280939291908181526020018383808284375f81840152601f19601f82011690508083019250505050505050815250600d5f3373ffffffffffffffffffffffffffffffffffffffff1673ffffffffffffffffffffffffffffffffffffffff1681526020019081526020015f205f820151815f0190816118019190614c37565b5060208201518160010190816118179190614c37565b50604082015181600201908161182d9190614c37565b509050507fc6b3a3cb893680baef98e6f2f73e2f33a36a14eaea0ba521451d6547ba362b6233878760405161186493929190614fbd565b60405180910390a1505050505050565b600c5f3373ffffffffffffffffffffffffffffffffffffffff1673ffffffffffffffffffffffffffffffffffffffff1681526020019081526020015f205f9054906101000a900460ff166118fd576040517f08c379a00000000000000000000000000000000000000000000000000000000081526004016118f490615037565b60405180910390fd5b3373ffffffffffffffffffffffffffffffffffffffff16600e5f8681526020019081526020015f206004015f9054906101000a900473ffffffffffffffffffffffffffffffffffffffff1673ffffffffffffffffffffffffffffffffffffffff161461199e576040517f08c379a00000000000000000000000000000000000000000000000000000000081526004016119959061509f565b60405180910390fd5b82600e5f8681526020019081526020015f206004015f6101000a81548173ffffffffffffffffffffffffffffffffffffffff021916908373ffffffffffffffffffffffffffffffffffffffff1602179055508181600e5f8781526020019081526020015f206003019182611a13929190614e58565b507f02666d7b1655588adc2208a66dd88260cfd5b9c5c38aecf90e5170371cfa4f198484604051611a459291906150bd565b60405180910390a150505050565b600f5f3373ffffffffffffffffffffffffffffffffffffffff1673ffffffffffffffffffffffffffffffffffffffff1681526020019081526020015f205f9054906101000a900460ff16611adc576040517f08c379a0000000000000000000000000000000000000000000000000000000008152600401611ad39061512e565b60405180910390fd5b6040518060a00160405280878152602001861515815260200185858080601f0160208091040260200160405190810160405280939291908181526020018383808284375f81840152601f19601f82011690508083019250505050505050815260200183838080601f0160208091040260200160405190810160405280939291908181526020018383808284375f81840152601f19601f8201169050808301925050505050505081526020013373ffffffffffffffffffffffffffffffffffffffff1681525060115f8881526020019081526020015f205f820151815f01556020820151816001015f6101000a81548160ff0219169083151502179055506040820151816002019081611bee9190614c37565b506060820151816003019081611c049190614c37565b506080820151816004015f6101000a81548173ffffffffffffffffffffffffffffffffffffffff021916908373ffffffffffffffffffffffffffffffffffffffff1602179055509050507f9712bb7e105b124f0cc3f0585e06a1950de77a678ebaec3506656b363733eb5e8633604051611c7f9291906150bd565b60405180910390a1505050505050565b600c5f3373ffffffffffffffffffffffffffffffffffffffff1673ffffffffffffffffffffffffffffffffffffffff1681526020019081526020015f205f9054906101000a900460ff16611d18576040517f08c379a0000000000000000000000000000000000000000000000000000000008152600401611d0f90615037565b60405180910390fd5b6040518060a0016040528085815260200184815260200183838080601f0160208091040260200160405190810160405280939291908181526020018383808284375f81840152601f19601f82011690508083019250505050505050815260200160405180602001604052805f81525081526020013373ffffffffffffffffffffffffffffffffffffffff16815250600e5f8681526020019081526020015f205f820151815f0155602082015181600101556040820151816002019081611dde9190614c37565b506060820151816003019081611df49190614c37565b506080820151816004015f6101000a81548173ffffffffffffffffffffffffffffffffffffffff021916908373ffffffffffffffffffffffffffffffffffffffff1602179055509050507fdce449d7850ca6bef609273e8c07c207f37e3df3d879cd8b431342eb623d20fe8433604051611e6f9291906150bd565b60405180910390a150505050565b5f8160145f8581526020019081526020015f20819055504260155f8581526020019081526020015f2081905550827ffddf6f64f3cd655060b6184bdd57773866274edc21a72c5d9deb6cc8d615b2788342604051611edc92919061514c565b60405180910390a26001905092915050565b60065f3373ffffffffffffffffffffffffffffffffffffffff1673ffffffffffffffffffffffffffffffffffffffff1681526020019081526020015f205f9054906101000a900460ff16611f77576040517f08c379a0000000000000000000000000000000000000000000000000000000008152600401611f6e906151bd565b60405180910390fd5b3373ffffffffffffffffffffffffffffffffffffffff1660085f8681526020019081526020015f206004015f9054906101000a900473ffffffffffffffffffffffffffffffffffffffff1673ffffffffffffffffffffffffffffffffffffffff1614612018576040517f08c379a000000000000000000000000000000000000000000000000000000000815260040161200f9061509f565b60405180910390fd5b8260085f8681526020019081526020015f206004015f6101000a81548173ffffffffffffffffffffffffffffffffffffffff021916908373ffffffffffffffffffffffffffffffffffffffff160217905550818160085f8781526020019081526020015f20600301918261208d929190614e58565b507f49e75bcd87d6285773e5c15db6c81bb4d20bd0f6498faba00160e92b9c47865484846040516120bf9291906150bd565b60405180910390a150505050565b60095f3373ffffffffffffffffffffffffffffffffffffffff1673ffffffffffffffffffffffffffffffffffffffff1681526020019081526020015f205f9054906101000a900460ff16612156576040517f08c379a000000000000000000000000000000000000000000000000000000000815260040161214d90614dc8565b60405180910390fd5b600b5f8581526020019081526020015f206001015f9054906101000a900460ff166121b6576040517f08c379a00000000000000000000000000000000000000000000000000000000081526004016121ad90614e30565b60405180910390fd5b82600b5f8681526020019081526020015f206006015f6101000a81548173ffffffffffffffffffffffffffffffffffffffff021916908373ffffffffffffffffffffffffffffffffffffffff1602179055508181600b5f8781526020019081526020015f20600501918261222b929190614e58565b507febfa8f41a2a15e0e89718bd17a4f728bd822d73550222a896ea5d3cfe2331ecc848460405161225d9291906150bd565b60405180910390a150505050565b5f5f5f3373ffffffffffffffffffffffffffffffffffffffff1673ffffffffffffffffffffffffffffffffffffffff1681526020019081526020015f205f9054906101000a900460ff166122f4576040517f08c379a00000000000000000000000000000000000000000000000000000000081526004016122eb906149e4565b60405180910390fd5b6122fd82613eba565b9050919050565b5f5f3373ffffffffffffffffffffffffffffffffffffffff1673ffffffffffffffffffffffffffffffffffffffff1681526020019081526020015f205f9054906101000a900460ff1661238c576040517f08c379a0000000000000000000000000000000000000000000000000000000008152600401612383906149e4565b60405180910390fd5b60045f8581526020019081526020015f205f9054906101000a900460ff166123e9576040517f08c379a00000000000000000000000000000000000000000000000000000000081526004016123e090615225565b60405180910390fd5b3373ffffffffffffffffffffffffffffffffffffffff1660025f8681526020019081526020015f2060050160019054906101000a900473ffffffffffffffffffffffffffffffffffffffff1673ffffffffffffffffffffffffffffffffffffffff161461248b576040517f08c379a00000000000000000000000000000000000000000000000000000000081526004016124829061509f565b60405180910390fd5b8260025f8681526020019081526020015f2060050160016101000a81548173ffffffffffffffffffffffffffffffffffffffff021916908373ffffffffffffffffffffffffffffffffffffffff1602179055506002805f8681526020019081526020015f206005015f6101000a81548160ff021916908360068111156125145761251361474c565b5b0217905550818160025f8781526020019081526020015f20600601918261253c929190614e58565b507fddd0a704fbe441f1fd23c0e39bfa7cdc43718cc3a6e329a80605132407f7b07a848484846040516125729493929190615243565b60405180910390a150505050565b6011602052805f5260405f205f91509050805f015490806001015f9054906101000a900460ff16908060020180546125b79061496a565b80601f01602080910402602001604051908101604052809291908181526020018280546125e39061496a565b801561262e5780601f106126055761010080835404028352916020019161262e565b820191905f5260205f20905b81548152906001019060200180831161261157829003601f168201915b5050505050908060030180546126439061496a565b80601f016020809104026020016040519081016040528092919081815260200182805461266f9061496a565b80156126ba5780601f10612691576101008083540402835291602001916126ba565b820191905f5260205f20905b81548152906001019060200180831161269d57829003601f168201915b505050505090806004015f9054906101000a900473ffffffffffffffffffffffffffffffffffffffff16905085565b600a602052805f5260405f205f91509050805f0180546127089061496a565b80601f01602080910402602001604051908101604052809291908181526020018280546127349061496a565b801561277f5780601f106127565761010080835404028352916020019161277f565b820191905f5260205f20905b81548152906001019060200180831161276257829003601f168201915b5050505050908060010180546127949061496a565b80601f01602080910402602001604051908101604052809291908181526020018280546127c09061496a565b801561280b5780601f106127e25761010080835404028352916020019161280b565b820191905f5260205f20905b8154815290600101906020018083116127ee57829003601f168201915b5050505050908060020180546128209061496a565b80601f016020809104026020016040519081016040528092919081815260200182805461284c9061496a565b80156128975780601f1061286e57610100808354040283529160200191612897565b820191905f5260205f20905b81548152906001019060200180831161287a57829003601f168201915b5050505050905083565b600e602052805f5260405f205f91509050805f0154908060010154908060020180546128cc9061496a565b80601f01602080910402602001604051908101604052809291908181526020018280546128f89061496a565b80156129435780601f1061291a57610100808354040283529160200191612943565b820191905f5260205f20905b81548152906001019060200180831161292657829003601f168201915b5050505050908060030180546129589061496a565b80601f01602080910402602001604051908101604052809291908181526020018280546129849061496a565b80156129cf5780601f106129a6576101008083540402835291602001916129cf565b820191905f5260205f20905b8154815290600101906020018083116129b257829003601f168201915b505050505090806004015f9054906101000a900473ffffffffffffffffffffffffffffffffffffffff16905085565b60125f9054906101000a900473ffffffffffffffffffffffffffffffffffffffff1681565b6001602052805f5260405f205f91509050805f018054612a429061496a565b80601f0160208091040260200160405190810160405280929190818152602001828054612a6e9061496a565b8015612ab95780601f10612a9057610100808354040283529160200191612ab9565b820191905f5260205f20905b815481529060010190602001808311612a9c57829003601f168201915b505050505090806001018054612ace9061496a565b80601f0160208091040260200160405190810160405280929190818152602001828054612afa9061496a565b8015612b455780601f10612b1c57610100808354040283529160200191612b45565b820191905f5260205f20905b815481529060010190602001808311612b2857829003601f168201915b505050505090806002018054612b5a9061496a565b80601f0160208091040260200160405190810160405280929190818152602001828054612b869061496a565b8015612bd15780601f10612ba857610100808354040283529160200191612bd1565b820191905f5260205f20905b815481529060010190602001808311612bb457829003601f168201915b5050505050905083565b600c602052805f5260405f205f915054906101000a900460ff1681565b60065f3373ffffffffffffffffffffffffffffffffffffffff1673ffffffffffffffffffffffffffffffffffffffff1681526020019081526020015f205f9054906101000a900460ff1615612c82576040517f08c379a0000000000000000000000000000000000000000000000000000000008152600401612c7990614f9f565b60405180910390fd5b600160065f3373ffffffffffffffffffffffffffffffffffffffff1673ffffffffffffffffffffffffffffffffffffffff1681526020019081526020015f205f6101000a81548160ff021916908315150217905550604051806060016040528087878080601f0160208091040260200160405190810160405280939291908181526020018383808284375f81840152601f19601f82011690508083019250505050505050815260200185858080601f0160208091040260200160405190810160405280939291908181526020018383808284375f81840152601f19601f82011690508083019250505050505050815260200183838080601f0160208091040260200160405190810160405280939291908181526020018383808284375f81840152601f19601f8201169050808301925050505050505081525060075f3373ffffffffffffffffffffffffffffffffffffffff1673ffffffffffffffffffffffffffffffffffffffff1681526020019081526020015f205f820151815f019081612e0b9190614c37565b506020820151816001019081612e219190614c37565b506040820151816002019081612e379190614c37565b509050507fd52881a6125270bc10edc37221b17d746ef540e29867a40b76ed110ef520224c338787604051612e6e93929190614fbd565b60405180910390a1505050505050565b6013602052805f5260405f205f91509050805f0154908060010154908060020154908060030154905084565b6002602052805f5260405f205f91509050805f015490806001018054612ecf9061496a565b80601f0160208091040260200160405190810160405280929190818152602001828054612efb9061496a565b8015612f465780601f10612f1d57610100808354040283529160200191612f46565b820191905f5260205f20905b815481529060010190602001808311612f2957829003601f168201915b505050505090806002018054612f5b9061496a565b80601f0160208091040260200160405190810160405280929190818152602001828054612f879061496a565b8015612fd25780601f10612fa957610100808354040283529160200191612fd2565b820191905f5260205f20905b815481529060010190602001808311612fb557829003601f168201915b505050505090806003018054612fe79061496a565b80601f01602080910402602001604051908101604052809291908181526020018280546130139061496a565b801561305e5780601f106130355761010080835404028352916020019161305e565b820191905f5260205f20905b81548152906001019060200180831161304157829003601f168201915b505050505090806004015490806005015f9054906101000a900460ff16908060050160019054906101000a900473ffffffffffffffffffffffffffffffffffffffff16908060060180546130b19061496a565b80601f01602080910402602001604051908101604052809291908181526020018280546130dd9061496a565b80156131285780601f106130ff57610100808354040283529160200191613128565b820191905f5260205f20905b81548152906001019060200180831161310b57829003601f168201915b5050505050905088565b60065f3373ffffffffffffffffffffffffffffffffffffffff1673ffffffffffffffffffffffffffffffffffffffff1681526020019081526020015f205f9054906101000a900460ff166131bb576040517f08c379a00000000000000000000000000000000000000000000000000000000081526004016131b2906151bd565b60405180910390fd5b6040518060a0016040528085815260200184815260200183838080601f0160208091040260200160405190810160405280939291908181526020018383808284375f81840152601f19601f82011690508083019250505050505050815260200160405180602001604052805f81525081526020013373ffffffffffffffffffffffffffffffffffffffff1681525060085f8681526020019081526020015f205f820151815f01556020820151816001015560408201518160020190816132819190614c37565b5060608201518160030190816132979190614c37565b506080820151816004015f6101000a81548173ffffffffffffffffffffffffffffffffffffffff021916908373ffffffffffffffffffffffffffffffffffffffff1602179055509050507fc84b2e7a91cbbf0711ac91fd9090853f03a14f7bef43df0eb49e6b32d36fe0ac84336040516133129291906150bd565b60405180910390a150505050565b600b602052805f5260405f205f91509050805f015490806001015f9054906101000a900460ff16908060020180546133579061496a565b80601f01602080910402602001604051908101604052809291908181526020018280546133839061496a565b80156133ce5780601f106133a5576101008083540402835291602001916133ce565b820191905f5260205f20905b8154815290600101906020018083116133b157829003601f168201915b505050505090806003015f9054906101000a900460ff16908060040180546133f59061496a565b80601f01602080910402602001604051908101604052809291908181526020018280546134219061496a565b801561346c5780601f106134435761010080835404028352916020019161346c565b820191905f5260205f20905b81548152906001019060200180831161344f57829003601f168201915b5050505050908060050180546134819061496a565b80601f01602080910402602001604051908101604052809291908181526020018280546134ad9061496a565b80156134f85780601f106134cf576101008083540402835291602001916134f8565b820191905f5260205f20905b8154815290600101906020018083116134db57829003601f168201915b505050505090806006015f9054906101000a900473ffffffffffffffffffffffffffffffffffffffff16905087565b60095f3373ffffffffffffffffffffffffffffffffffffffff1673ffffffffffffffffffffffffffffffffffffffff1681526020019081526020015f205f9054906101000a900460ff166135b0576040517f08c379a00000000000000000000000000000000000000000000000000000000081526004016135a790614dc8565b60405180910390fd5b6040518060e0016040528084815260200160011515815260200183838080601f0160208091040260200160405190810160405280939291908181526020018383808284375f81840152601f19601f8201169050808301925050505050505081526020015f1515815260200160405180602001604052805f815250815260200160405180602001604052805f81525081526020013373ffffffffffffffffffffffffffffffffffffffff16815250600b5f8581526020019081526020015f205f820151815f01556020820151816001015f6101000a81548160ff02191690831515021790555060408201518160020190816136aa9190614c37565b506060820151816003015f6101000a81548160ff02191690831515021790555060808201518160040190816136df9190614c37565b5060a08201518160050190816136f59190614c37565b5060c0820151816006015f6101000a81548173ffffffffffffffffffffffffffffffffffffffff021916908373ffffffffffffffffffffffffffffffffffffffff1602179055509050507f3da11207acef64a8ef6a06e530a71956f123355b74d421e1883e3d3ce94c92c183336040516137709291906150bd565b60405180910390a1505050565b5f60405180608001604052808581526020018481526020018381526020014281525060135f8781526020019081526020015f205f820151815f0155602082015181600101556040820151816002015560608201518160030155905050847e7ce2a33116d3ce50a5abafe23cf84fc634fa2ec50e9632cf280e3b7d770da48585854260405161380e9493929190614709565b60405180910390a260019050949350505050565b60055481565b60095f3373ffffffffffffffffffffffffffffffffffffffff1673ffffffffffffffffffffffffffffffffffffffff1681526020019081526020015f205f9054906101000a900460ff16156138b2576040517f08c379a00000000000000000000000000000000000000000000000000000000081526004016138a990614f9f565b60405180910390fd5b600160095f3373ffffffffffffffffffffffffffffffffffffffff1673ffffffffffffffffffffffffffffffffffffffff1681526020019081526020015f205f6101000a81548160ff021916908315150217905550604051806060016040528087878080601f0160208091040260200160405190810160405280939291908181526020018383808284375f81840152601f19601f82011690508083019250505050505050815260200185858080601f0160208091040260200160405190810160405280939291908181526020018383808284375f81840152601f19601f82011690508083019250505050505050815260200183838080601f0160208091040260200160405190810160405280939291908181526020018383808284375f81840152601f19601f82011690508083019250505050505050815250600a5f3373ffffffffffffffffffffffffffffffffffffffff1673ffffffffffffffffffffffffffffffffffffffff1681526020019081526020015f205f820151815f019081613a3b9190614c37565b506020820151816001019081613a519190614c37565b506040820151816002019081613a679190614c37565b509050507ef326cfeee4a98cdaa20d4b3ea99e1d7ba56e0bc16159f422e5ef8a57fceb26338787604051613a9d93929190614fbd565b60405180910390a1505050505050565b6015602052805f5260405f205f915090505481565b6003602052805f5260405f205f915090505481565b6008602052805f5260405f205f91509050805f015490806001015490806002018054613b029061496a565b80601f0160208091040260200160405190810160405280929190818152602001828054613b2e9061496a565b8015613b795780601f10613b5057610100808354040283529160200191613b79565b820191905f5260205f20905b815481529060010190602001808311613b5c57829003601f168201915b505050505090806003018054613b8e9061496a565b80601f0160208091040260200160405190810160405280929190818152602001828054613bba9061496a565b8015613c055780601f10613bdc57610100808354040283529160200191613c05565b820191905f5260205f20905b815481529060010190602001808311613be857829003601f168201915b505050505090806004015f9054906101000a900473ffffffffffffffffffffffffffffffffffffffff16905085565b600f5f3373ffffffffffffffffffffffffffffffffffffffff1673ffffffffffffffffffffffffffffffffffffffff1681526020019081526020015f205f9054906101000a900460ff1615613cbe576040517f08c379a0000000000000000000000000000000000000000000000000000000008152600401613cb590614f9f565b60405180910390fd5b6001600f5f3373ffffffffffffffffffffffffffffffffffffffff1673ffffffffffffffffffffffffffffffffffffffff1681526020019081526020015f205f6101000a81548160ff021916908315150217905550604051806060016040528087878080601f0160208091040260200160405190810160405280939291908181526020018383808284375f81840152601f19601f82011690508083019250505050505050815260200185858080601f0160208091040260200160405190810160405280939291908181526020018383808284375f81840152601f19601f82011690508083019250505050505050815260200183838080601f0160208091040260200160405190810160405280939291908181526020018383808284375f81840152601f19601f8201169050808301925050505050505081525060105f3373ffffffffffffffffffffffffffffffffffffffff1673ffffffffffffffffffffffffffffffffffffffff1681526020019081526020015f205f820151815f019081613e479190614c37565b506020820151816001019081613e5d9190614c37565b506040820151816002019081613e739190614c37565b509050507f2bf7863d4068dda3123298d02ee28530519d2e96eaab6784f5f0b6184ddd2015338787604051613eaa93929190614fbd565b60405180910390a1505050505050565b5f5f6002834233600554604051602001613ed794939291906152e6565b604051602081830303815290604052604051613ef39190615377565b602060405180830381855afa158015613f0e573d5f5f3e3d5ffd5b5050506040513d601f19601f82011682018060405250810190613f3191906153a1565b90508060035f60055481526020019081526020015f208190555060055f815480929190613f5d906153f9565b919050555080915050919050565b5f5ffd5b5f5ffd5b5f73ffffffffffffffffffffffffffffffffffffffff82169050919050565b5f613f9c82613f73565b9050919050565b613fac81613f92565b8114613fb6575f5ffd5b50565b5f81359050613fc781613fa3565b92915050565b5f60208284031215613fe257613fe1613f6b565b5b5f613fef84828501613fb9565b91505092915050565b5f81519050919050565b5f82825260208201905092915050565b8281835e5f83830152505050565b5f601f19601f8301169050919050565b5f61403a82613ff8565b6140448185614002565b9350614054818560208601614012565b61405d81614020565b840191505092915050565b5f6060820190508181035f8301526140808186614030565b905081810360208301526140948185614030565b905081810360408301526140a88184614030565b9050949350505050565b5f819050919050565b6140c4816140b2565b81146140ce575f5ffd5b50565b5f813590506140df816140bb565b92915050565b5f5ffd5b5f5ffd5b5f5ffd5b5f5f83601f840112614106576141056140e5565b5b8235905067ffffffffffffffff811115614123576141226140e9565b5b60208301915083600182028301111561413f5761413e6140ed565b5b9250929050565b5f819050919050565b61415881614146565b8114614162575f5ffd5b50565b5f813590506141738161414f565b92915050565b5f5f5f5f5f5f5f5f60a0898b03121561419557614194613f6b565b5b5f6141a28b828c016140d1565b985050602089013567ffffffffffffffff8111156141c3576141c2613f6f565b5b6141cf8b828c016140f1565b9750975050604089013567ffffffffffffffff8111156141f2576141f1613f6f565b5b6141fe8b828c016140f1565b9550955050606089013567ffffffffffffffff81111561422157614220613f6f565b5b61422d8b828c016140f1565b935093505060806142408b828c01614165565b9150509295985092959890939650565b5f8115159050919050565b61426481614250565b82525050565b5f60208201905061427d5f83018461425b565b92915050565b5f5f5f6040848603121561429a57614299613f6b565b5b5f6142a7868287016140d1565b935050602084013567ffffffffffffffff8111156142c8576142c7613f6f565b5b6142d4868287016140f1565b92509250509250925092565b5f5f5f5f5f5f606087890312156142fa576142f9613f6b565b5b5f87013567ffffffffffffffff81111561431757614316613f6f565b5b61432389828a016140f1565b9650965050602087013567ffffffffffffffff81111561434657614345613f6f565b5b61435289828a016140f1565b9450945050604087013567ffffffffffffffff81111561437557614374613f6f565b5b61438189828a016140f1565b92509250509295509295509295565b5f602082840312156143a5576143a4613f6b565b5b5f6143b284828501614165565b91505092915050565b6143c481614146565b82525050565b5f6020820190506143dd5f8301846143bb565b92915050565b5f602082840312156143f8576143f7613f6b565b5b5f614405848285016140d1565b91505092915050565b5f5f5f5f6060858703121561442657614425613f6b565b5b5f614433878288016140d1565b945050602061444487828801613fb9565b935050604085013567ffffffffffffffff81111561446557614464613f6f565b5b614471878288016140f1565b925092505092959194509250565b61448881614250565b8114614492575f5ffd5b50565b5f813590506144a38161447f565b92915050565b5f5f5f5f5f5f608087890312156144c3576144c2613f6b565b5b5f6144d089828a016140d1565b96505060206144e189828a01614495565b955050604087013567ffffffffffffffff81111561450257614501613f6f565b5b61450e89828a016140f1565b9450945050606087013567ffffffffffffffff81111561453157614530613f6f565b5b61453d89828a016140f1565b92509250509295509295509295565b5f5f5f5f6060858703121561456457614563613f6b565b5b5f614571878288016140d1565b945050602061458287828801614165565b935050604085013567ffffffffffffffff8111156145a3576145a2613f6f565b5b6145af878288016140f1565b925092505092959194509250565b5f5f604083850312156145d3576145d2613f6b565b5b5f6145e085828601614165565b92505060206145f185828601614165565b9150509250929050565b614604816140b2565b82525050565b5f60208201905061461d5f8301846145fb565b92915050565b61462c81613f92565b82525050565b5f60a0820190506146455f8301886145fb565b614652602083018761425b565b81810360408301526146648186614030565b905081810360608301526146788185614030565b90506146876080830184614623565b9695505050505050565b5f60a0820190506146a45f8301886145fb565b6146b160208301876143bb565b81810360408301526146c38186614030565b905081810360608301526146d78185614030565b90506146e66080830184614623565b9695505050505050565b5f6020820190506147035f830184614623565b92915050565b5f60808201905061471c5f8301876143bb565b61472960208301866143bb565b61473660408301856143bb565b61474360608301846143bb565b95945050505050565b7f4e487b71000000000000000000000000000000000000000000000000000000005f52602160045260245ffd5b6007811061478a5761478961474c565b5b50565b5f81905061479a82614779565b919050565b5f6147a98261478d565b9050919050565b6147b98161479f565b82525050565b5f610100820190506147d35f83018b6145fb565b81810360208301526147e5818a614030565b905081810360408301526147f98189614030565b9050818103606083015261480d8188614030565b905061481c60808301876143bb565b61482960a08301866147b0565b61483660c0830185614623565b81810360e08301526148488184614030565b90509998505050505050505050565b5f60e08201905061486a5f83018a6145fb565b614877602083018961425b565b81810360408301526148898188614030565b9050614898606083018761425b565b81810360808301526148aa8186614030565b905081810360a08301526148be8185614030565b90506148cd60c0830184614623565b98975050505050505050565b5f5f5f5f608085870312156148f1576148f0613f6b565b5b5f6148fe87828801614165565b945050602061490f87828801614165565b935050604061492087828801614165565b925050606061493187828801614165565b91505092959194509250565b7f4e487b71000000000000000000000000000000000000000000000000000000005f52602260045260245ffd5b5f600282049050600182168061498157607f821691505b6020821081036149945761499361493d565b5b50919050565b7f4f6e6c79206661726d65720000000000000000000000000000000000000000005f82015250565b5f6149ce600b83614002565b91506149d98261499a565b602082019050919050565b5f6020820190508181035f8301526149fb816149c2565b9050919050565b7f43726f70206578697374730000000000000000000000000000000000000000005f82015250565b5f614a36600b83614002565b9150614a4182614a02565b602082019050919050565b5f6020820190508181035f830152614a6381614a2a565b9050919050565b7f4e487b71000000000000000000000000000000000000000000000000000000005f52604160045260245ffd5b5f819050815f5260205f209050919050565b5f6020601f8301049050919050565b5f82821b905092915050565b5f60088302614af37fffffffffffffffffffffffffffffffffffffffffffffffffffffffffffffffff82614ab8565b614afd8683614ab8565b95508019841693508086168417925050509392505050565b5f819050919050565b5f614b38614b33614b2e84614146565b614b15565b614146565b9050919050565b5f819050919050565b614b5183614b1e565b614b65614b5d82614b3f565b848454614ac4565b825550505050565b5f5f905090565b614b7c614b6d565b614b87818484614b48565b505050565b5b81811015614baa57614b9f5f82614b74565b600181019050614b8d565b5050565b601f821115614bef57614bc081614a97565b614bc984614aa9565b81016020851015614bd8578190505b614bec614be485614aa9565b830182614b8c565b50505b505050565b5f82821c905092915050565b5f614c0f5f1984600802614bf4565b1980831691505092915050565b5f614c278383614c00565b9150826002028217905092915050565b614c4082613ff8565b67ffffffffffffffff811115614c5957614c58614a6a565b5b614c63825461496a565b614c6e828285614bae565b5f60209050601f831160018114614c9f575f8415614c8d578287015190505b614c978582614c1c565b865550614cfe565b601f198416614cad86614a97565b5f5b82811015614cd457848901518255600182019150602085019450602081019050614caf565b86831015614cf15784890151614ced601f891682614c00565b8355505b6001600288020188555050505b505050505050565b828183375f83830152505050565b5f614d1f8385614002565b9350614d2c838584614d06565b614d3583614020565b840190509392505050565b5f606082019050614d535f8301876145fb565b8181036020830152614d66818587614d14565b9050614d7560408301846143bb565b95945050505050565b7f4f6e6c792061676772656761746f7200000000000000000000000000000000005f82015250565b5f614db2600f83614002565b9150614dbd82614d7e565b602082019050919050565b5f6020820190508181035f830152614ddf81614da6565b9050919050565b7f4e6f7420726563656976656400000000000000000000000000000000000000005f82015250565b5f614e1a600c83614002565b9150614e2582614de6565b602082019050919050565b5f6020820190508181035f830152614e4781614e0e565b9050919050565b5f82905092915050565b614e628383614e4e565b67ffffffffffffffff811115614e7b57614e7a614a6a565b5b614e85825461496a565b614e90828285614bae565b5f601f831160018114614ebd575f8415614eab578287013590505b614eb58582614c1c565b865550614f1c565b601f198416614ecb86614a97565b5f5b82811015614ef257848901358255600182019150602085019450602081019050614ecd565b86831015614f0f5784890135614f0b601f891682614c00565b8355505b6001600288020188555050505b50505050505050565b5f604082019050614f385f8301866145fb565b8181036020830152614f4b818486614d14565b9050949350505050565b7f416c7265616479207265676973746572656400000000000000000000000000005f82015250565b5f614f89601283614002565b9150614f9482614f55565b602082019050919050565b5f6020820190508181035f830152614fb681614f7d565b9050919050565b5f604082019050614fd05f830186614623565b8181036020830152614fe3818486614d14565b9050949350505050565b7f4f6e6c792072657461696c6572000000000000000000000000000000000000005f82015250565b5f615021600d83614002565b915061502c82614fed565b602082019050919050565b5f6020820190508181035f83015261504e81615015565b9050919050565b7f4e6f7420686f6c646572000000000000000000000000000000000000000000005f82015250565b5f615089600a83614002565b915061509482615055565b602082019050919050565b5f6020820190508181035f8301526150b68161507d565b9050919050565b5f6040820190506150d05f8301856145fb565b6150dd6020830184614623565b9392505050565b7f4f6e6c7920637573746f6d6572000000000000000000000000000000000000005f82015250565b5f615118600d83614002565b9150615123826150e4565b602082019050919050565b5f6020820190508181035f8301526151458161510c565b9050919050565b5f60408201905061515f5f8301856143bb565b61516c60208301846143bb565b9392505050565b7f4f6e6c7920737570706c696572000000000000000000000000000000000000005f82015250565b5f6151a7600d83614002565b91506151b282615173565b602082019050919050565b5f6020820190508181035f8301526151d48161519b565b9050919050565b7f556e6b6e6f776e2063726f7000000000000000000000000000000000000000005f82015250565b5f61520f600c83614002565b915061521a826151db565b602082019050919050565b5f6020820190508181035f83015261523c81615203565b9050919050565b5f6060820190506152565f8301876145fb565b6152636020830186614623565b8181036040830152615276818486614d14565b905095945050505050565b5f819050919050565b61529b61529682614146565b615281565b82525050565b5f8160601b9050919050565b5f6152b7826152a1565b9050919050565b5f6152c8826152ad565b9050919050565b6152e06152db82613f92565b6152be565b82525050565b5f6152f1828761528a565b602082019150615301828661528a565b60208201915061531182856152cf565b601482019150615321828461528a565b60208201915081905095945050505050565b5f81519050919050565b5f81905092915050565b5f61535182615333565b61535b818561533d565b935061536b818560208601614012565b80840191505092915050565b5f6153828284615347565b915081905092915050565b5f8151905061539b816140bb565b92915050565b5f602082840312156153b6576153b5613f6b565b5b5f6153c38482850161538d565b91505092915050565b7f4e487b71000000000000000000000000000000000000000000000000000000005f52601160045260245ffd5b5f61540382614146565b91507fffffffffffffffffffffffffffffffffffffffffffffffffffffffffffffffff8203615435576154346153cc565b5b60018201905091905056fea2646970667358221220d76d5d98520b58a01094e4bcd668eeae65660e9d2d78ab53694308a9898c3f3a64736f6c634300081e0033",
			"opcodes": "PUSH1 0x80 PUSH1 0x40 MSTORE CALLVALUE DUP1 ISZERO PUSH1 0xE JUMPI PUSH0 PUSH0 REVERT JUMPDEST POP CALLER PUSH1 0x12 PUSH0 PUSH2 0x100 EXP DUP2 SLOAD DUP2 PUSH20 0xFFFFFFFFFFFFFFFFFFFFFFFFFFFFFFFFFFFFFFFF MUL NOT AND SWAP1 DUP4 PUSH20 0xFFFFFFFFFFFFFFFFFFFFFFFFFFFFFFFFFFFFFFFF AND MUL OR SWAP1 SSTORE POP PUSH2 0x5476 DUP1 PUSH2 0x5C PUSH0 CODECOPY PUSH0 RETURN INVALID PUSH1 0x80 PUSH1 0x40 MSTORE CALLVALUE DUP1 ISZERO PUSH2 0xF JUMPI PUSH0 PUSH0 REVERT JUMPDEST POP PUSH1 0x4 CALLDATASIZE LT PUSH2 0x246 JUMPI PUSH0 CALLDATALOAD PUSH1 0xE0 SHR DUP1 PUSH4 0x769D0420 GT PUSH2 0x139 JUMPI DUP1 PUSH4 0xB71B75F4 GT PUSH2 0xB6 JUMPI DUP1 PUSH4 0xE9EF9CF7 GT PUSH2 0x7A JUMPI DUP1 PUSH4 0xE9EF9CF7 EQ PUSH2 0x7D4 JUMPI DUP1 PUSH4 0xF07992B8 EQ PUSH2 0x7F0 JUMPI DUP1 PUSH4 0xF0861B3A EQ PUSH2 0x820 JUMPI DUP1 PUSH4 0xF49D66A3 EQ PUSH2 0x850 JUMPI DUP1 PUSH4 0xF8E66A4D EQ PUSH2 0x884 JUMPI PUSH2 0x246 JUMP JUMPDEST DUP1 PUSH4 0xB71B75F4 EQ PUSH2 0x718 JUMPI DUP1 PUSH4 0xC81E25AB EQ PUSH2 0x734 JUMPI DUP1 PUSH4 0xC9820CC4 EQ PUSH2 0x76A JUMPI DUP1 PUSH4 0xD8AA4558 EQ PUSH2 0x786 JUMPI DUP1 PUSH4 0xDFD55A2C EQ PUSH2 0x7B6 JUMPI PUSH2 0x246 JUMP JUMPDEST DUP1 PUSH4 0x92714224 GT PUSH2 0xFD JUMPI DUP1 PUSH4 0x92714224 EQ PUSH2 0x630 JUMPI DUP1 PUSH4 0x9A268F35 EQ PUSH2 0x662 JUMPI DUP1 PUSH4 0xA1C2E79C EQ PUSH2 0x692 JUMPI DUP1 PUSH4 0xA87E3FD0 EQ PUSH2 0x6AE JUMPI DUP1 PUSH4 0xA900D628 EQ PUSH2 0x6E1 JUMPI PUSH2 0x246 JUMP JUMPDEST DUP1 PUSH4 0x769D0420 EQ PUSH2 0x55C JUMPI DUP1 PUSH4 0x7AB8DBE9 EQ PUSH2 0x578 JUMPI DUP1 PUSH4 0x8039FEEF EQ PUSH2 0x5AC JUMPI DUP1 PUSH4 0x88E46740 EQ PUSH2 0x5DE JUMPI DUP1 PUSH4 0x8DA5CB5B EQ PUSH2 0x612 JUMPI PUSH2 0x246 JUMP JUMPDEST DUP1 PUSH4 0x401B2168 GT PUSH2 0x1C7 JUMPI DUP1 PUSH4 0x52F86467 GT PUSH2 0x18B JUMPI DUP1 PUSH4 0x52F86467 EQ PUSH2 0x4A8 JUMPI DUP1 PUSH4 0x607F388A EQ PUSH2 0x4C4 JUMPI DUP1 PUSH4 0x6C1E9D87 EQ PUSH2 0x4F4 JUMPI DUP1 PUSH4 0x7304957B EQ PUSH2 0x510 JUMPI DUP1 PUSH4 0x750AA2EA EQ PUSH2 0x52C JUMPI PUSH2 0x246 JUMP JUMPDEST DUP1 PUSH4 0x401B2168 EQ PUSH2 0x3F2 JUMPI DUP1 PUSH4 0x49BEB611 EQ PUSH2 0x422 JUMPI DUP1 PUSH4 0x4D6EC6E8 EQ PUSH2 0x454 JUMPI DUP1 PUSH4 0x4F3BEDBD EQ PUSH2 0x470 JUMPI DUP1 PUSH4 0x51C4ADD5 EQ PUSH2 0x48C JUMPI PUSH2 0x246 JUMP JUMPDEST DUP1 PUSH4 0x27ED3540 GT PUSH2 0x20E JUMPI DUP1 PUSH4 0x27ED3540 EQ PUSH2 0x32A JUMPI DUP1 PUSH4 0x29A566D2 EQ PUSH2 0x346 JUMPI DUP1 PUSH4 0x30820A26 EQ PUSH2 0x362 JUMPI DUP1 PUSH4 0x336989AE EQ PUSH2 0x392 JUMPI DUP1 PUSH4 0x38A699A4 EQ PUSH2 0x3C2 JUMPI PUSH2 0x246 JUMP JUMPDEST DUP1 PUSH4 0xF5600CB EQ PUSH2 0x24A JUMPI DUP1 PUSH4 0xF86A2A4 EQ PUSH2 0x27C JUMPI DUP1 PUSH4 0x112CDAB9 EQ PUSH2 0x298 JUMPI DUP1 PUSH4 0x16DC15FE EQ PUSH2 0x2C8 JUMPI DUP1 PUSH4 0x18F13654 EQ PUSH2 0x2F8 JUMPI JUMPDEST PUSH0 PUSH0 REVERT JUMPDEST PUSH2 0x264 PUSH1 0x4 DUP1 CALLDATASIZE SUB DUP2 ADD SWAP1 PUSH2 0x25F SWAP2 SWAP1 PUSH2 0x3FCD JUMP JUMPDEST PUSH2 0x8A0 JUMP JUMPDEST PUSH1 0x40 MLOAD PUSH2 0x273 SWAP4 SWAP3 SWAP2 SWAP1 PUSH2 0x4068 JUMP JUMPDEST PUSH1 0x40 MLOAD DUP1 SWAP2 SUB SWAP1 RETURN JUMPDEST PUSH2 0x296 PUSH1 0x4 DUP1 CALLDATASIZE SUB DUP2 ADD SWAP1 PUSH2 0x291 SWAP2 SWAP1 PUSH2 0x4179 JUMP JUMPDEST PUSH2 0xA58 JUMP JUMPDEST STOP JUMPDEST PUSH2 0x2B2 PUSH1 0x4 DUP1 CALLDATASIZE SUB DUP2 ADD SWAP1 PUSH2 0x2AD SWAP2 SWAP1 PUSH2 0x3FCD JUMP JUMPDEST PUSH2 0xDDC JUMP JUMPDEST PUSH1 0x40 MLOAD PUSH2 0x2BF SWAP2 SWAP1 PUSH2 0x426A JUMP JUMPDEST PUSH1 0x40 MLOAD DUP1 SWAP2 SUB SWAP1 RETURN JUMPDEST PUSH2 0x2E2 PUSH1 0x4 DUP1 CALLDATASIZE SUB DUP2 ADD SWAP1 PUSH2 0x2DD SWAP2 SWAP1 PUSH2 0x3FCD JUMP JUMPDEST PUSH2 0xDF9 JUMP JUMPDEST PUSH1 0x40 MLOAD PUSH2 0x2EF SWAP2 SWAP1 PUSH2 0x426A JUMP JUMPDEST PUSH1 0x40 MLOAD DUP1 SWAP2 SUB SWAP1 RETURN JUMPDEST PUSH2 0x312 PUSH1 0x4 DUP1 CALLDATASIZE SUB DUP2 ADD SWAP1 PUSH2 0x30D SWAP2 SWAP1 PUSH2 0x3FCD JUMP JUMPDEST PUSH2 0xE16 JUMP JUMPDEST PUSH1 0x40 MLOAD PUSH2 0x321 SWAP4 SWAP3 SWAP2 SWAP1 PUSH2 0x4068 JUMP JUMPDEST PUSH1 0x40 MLOAD DUP1 SWAP2 SUB SWAP1 RETURN JUMPDEST PUSH2 0x344 PUSH1 0x4 DUP1 CALLDATASIZE SUB DUP2 ADD SWAP1 PUSH2 0x33F SWAP2 SWAP1 PUSH2 0x4283 JUMP JUMPDEST PUSH2 0xFCE JUMP JUMPDEST STOP JUMPDEST PUSH2 0x360 PUSH1 0x4 DUP1 CALLDATASIZE SUB DUP2 ADD SWAP1 PUSH2 0x35B SWAP2 SWAP1 PUSH2 0x42E0 JUMP JUMPDEST PUSH2 0x1147 JUMP JUMPDEST STOP JUMPDEST PUSH2 0x37C PUSH1 0x4 DUP1 CALLDATASIZE SUB DUP2 ADD SWAP1 PUSH2 0x377 SWAP2 SWAP1 PUSH2 0x4390 JUMP JUMPDEST PUSH2 0x13CB JUMP JUMPDEST PUSH1 0x40 MLOAD PUSH2 0x389 SWAP2 SWAP1 PUSH2 0x43CA JUMP JUMPDEST PUSH1 0x40 MLOAD DUP1 SWAP2 SUB SWAP1 RETURN JUMPDEST PUSH2 0x3AC PUSH1 0x4 DUP1 CALLDATASIZE SUB DUP2 ADD SWAP1 PUSH2 0x3A7 SWAP2 SWAP1 PUSH2 0x3FCD JUMP JUMPDEST PUSH2 0x13E0 JUMP JUMPDEST PUSH1 0x40 MLOAD PUSH2 0x3B9 SWAP2 SWAP1 PUSH2 0x426A JUMP JUMPDEST PUSH1 0x40 MLOAD DUP1 SWAP2 SUB SWAP1 RETURN JUMPDEST PUSH2 0x3DC PUSH1 0x4 DUP1 CALLDATASIZE SUB DUP2 ADD SWAP1 PUSH2 0x3D7 SWAP2 SWAP1 PUSH2 0x43E3 JUMP JUMPDEST PUSH2 0x13FD JUMP JUMPDEST PUSH1 0x40 MLOAD PUSH2 0x3E9 SWAP2 SWAP1 PUSH2 0x426A JUMP JUMPDEST PUSH1 0x40 MLOAD DUP1 SWAP2 SUB SWAP1 RETURN JUMPDEST PUSH2 0x40C PUSH1 0x4 DUP1 CALLDATASIZE SUB DUP2 ADD SWAP1 PUSH2 0x407 SWAP2 SWAP1 PUSH2 0x3FCD JUMP JUMPDEST PUSH2 0x141A JUMP JUMPDEST PUSH1 0x40 MLOAD PUSH2 0x419 SWAP2 SWAP1 PUSH2 0x426A JUMP JUMPDEST PUSH1 0x40 MLOAD DUP1 SWAP2 SUB SWAP1 RETURN JUMPDEST PUSH2 0x43C PUSH1 0x4 DUP1 CALLDATASIZE SUB DUP2 ADD SWAP1 PUSH2 0x437 SWAP2 SWAP1 PUSH2 0x3FCD JUMP JUMPDEST PUSH2 0x1436 JUMP JUMPDEST PUSH1 0x40 MLOAD PUSH2 0x44B SWAP4 SWAP3 SWAP2 SWAP1 PUSH2 0x4068 JUMP JUMPDEST PUSH1 0x40 MLOAD DUP1 SWAP2 SUB SWAP1 RETURN JUMPDEST PUSH2 0x46E PUSH1 0x4 DUP1 CALLDATASIZE SUB DUP2 ADD SWAP1 PUSH2 0x469 SWAP2 SWAP1 PUSH2 0x42E0 JUMP JUMPDEST PUSH2 0x15EE JUMP JUMPDEST STOP JUMPDEST PUSH2 0x48A PUSH1 0x4 DUP1 CALLDATASIZE SUB DUP2 ADD SWAP1 PUSH2 0x485 SWAP2 SWAP1 PUSH2 0x440E JUMP JUMPDEST PUSH2 0x1874 JUMP JUMPDEST STOP JUMPDEST PUSH2 0x4A6 PUSH1 0x4 DUP1 CALLDATASIZE SUB DUP2 ADD SWAP1 PUSH2 0x4A1 SWAP2 SWAP1 PUSH2 0x44A9 JUMP JUMPDEST PUSH2 0x1A53 JUMP JUMPDEST STOP JUMPDEST PUSH2 0x4C2 PUSH1 0x4 DUP1 CALLDATASIZE SUB DUP2 ADD SWAP1 PUSH2 0x4BD SWAP2 SWAP1 PUSH2 0x454C JUMP JUMPDEST PUSH2 0x1C8F JUMP JUMPDEST STOP JUMPDEST PUSH2 0x4DE PUSH1 0x4 DUP1 CALLDATASIZE SUB DUP2 ADD SWAP1 PUSH2 0x4D9 SWAP2 SWAP1 PUSH2 0x45BD JUMP JUMPDEST PUSH2 0x1E7D JUMP JUMPDEST PUSH1 0x40 MLOAD PUSH2 0x4EB SWAP2 SWAP1 PUSH2 0x426A JUMP JUMPDEST PUSH1 0x40 MLOAD DUP1 SWAP2 SUB SWAP1 RETURN JUMPDEST PUSH2 0x50E PUSH1 0x4 DUP1 CALLDATASIZE SUB DUP2 ADD SWAP1 PUSH2 0x509 SWAP2 SWAP1 PUSH2 0x440E JUMP JUMPDEST PUSH2 0x1EEE JUMP JUMPDEST STOP JUMPDEST PUSH2 0x52A PUSH1 0x4 DUP1 CALLDATASIZE SUB DUP2 ADD SWAP1 PUSH2 0x525 SWAP2 SWAP1 PUSH2 0x440E JUMP JUMPDEST PUSH2 0x20CD JUMP JUMPDEST STOP JUMPDEST PUSH2 0x546 PUSH1 0x4 DUP1 CALLDATASIZE SUB DUP2 ADD SWAP1 PUSH2 0x541 SWAP2 SWAP1 PUSH2 0x4390 JUMP JUMPDEST PUSH2 0x226B JUMP JUMPDEST PUSH1 0x40 MLOAD PUSH2 0x553 SWAP2 SWAP1 PUSH2 0x460A JUMP JUMPDEST PUSH1 0x40 MLOAD DUP1 SWAP2 SUB SWAP1 RETURN JUMPDEST PUSH2 0x576 PUSH1 0x4 DUP1 CALLDATASIZE SUB DUP2 ADD SWAP1 PUSH2 0x571 SWAP2 SWAP1 PUSH2 0x440E JUMP JUMPDEST PUSH2 0x2304 JUMP JUMPDEST STOP JUMPDEST PUSH2 0x592 PUSH1 0x4 DUP1 CALLDATASIZE SUB DUP2 ADD SWAP1 PUSH2 0x58D SWAP2 SWAP1 PUSH2 0x43E3 JUMP JUMPDEST PUSH2 0x2580 JUMP JUMPDEST PUSH1 0x40 MLOAD PUSH2 0x5A3 SWAP6 SWAP5 SWAP4 SWAP3 SWAP2 SWAP1 PUSH2 0x4632 JUMP JUMPDEST PUSH1 0x40 MLOAD DUP1 SWAP2 SUB SWAP1 RETURN JUMPDEST PUSH2 0x5C6 PUSH1 0x4 DUP1 CALLDATASIZE SUB DUP2 ADD SWAP1 PUSH2 0x5C1 SWAP2 SWAP1 PUSH2 0x3FCD JUMP JUMPDEST PUSH2 0x26E9 JUMP JUMPDEST PUSH1 0x40 MLOAD PUSH2 0x5D5 SWAP4 SWAP3 SWAP2 SWAP1 PUSH2 0x4068 JUMP JUMPDEST PUSH1 0x40 MLOAD DUP1 SWAP2 SUB SWAP1 RETURN JUMPDEST PUSH2 0x5F8 PUSH1 0x4 DUP1 CALLDATASIZE SUB DUP2 ADD SWAP1 PUSH2 0x5F3 SWAP2 SWAP1 PUSH2 0x43E3 JUMP JUMPDEST PUSH2 0x28A1 JUMP JUMPDEST PUSH1 0x40 MLOAD PUSH2 0x609 SWAP6 SWAP5 SWAP4 SWAP3 SWAP2 SWAP1 PUSH2 0x4691 JUMP JUMPDEST PUSH1 0x40 MLOAD DUP1 SWAP2 SUB SWAP1 RETURN JUMPDEST PUSH2 0x61A PUSH2 0x29FE JUMP JUMPDEST PUSH1 0x40 MLOAD PUSH2 0x627 SWAP2 SWAP1 PUSH2 0x46F0 JUMP JUMPDEST PUSH1 0x40 MLOAD DUP1 SWAP2 SUB SWAP1 RETURN JUMPDEST PUSH2 0x64A PUSH1 0x4 DUP1 CALLDATASIZE SUB DUP2 ADD SWAP1 PUSH2 0x645 SWAP2 SWAP1 PUSH2 0x3FCD JUMP JUMPDEST PUSH2 0x2A23 JUMP JUMPDEST PUSH1 0x40 MLOAD PUSH2 0x659 SWAP4 SWAP3 SWAP2 SWAP1 PUSH2 0x4068 JUMP JUMPDEST PUSH1 0x40 MLOAD DUP1 SWAP2 SUB SWAP1 RETURN JUMPDEST PUSH2 0x67C PUSH1 0x4 DUP1 CALLDATASIZE SUB DUP2 ADD SWAP1 PUSH2 0x677 SWAP2 SWAP1 PUSH2 0x3FCD JUMP JUMPDEST PUSH2 0x2BDB JUMP JUMPDEST PUSH1 0x40 MLOAD PUSH2 0x689 SWAP2 SWAP1 PUSH2 0x426A JUMP JUMPDEST PUSH1 0x40 MLOAD DUP1 SWAP2 SUB SWAP1 RETURN JUMPDEST PUSH2 0x6AC PUSH1 0x4 DUP1 CALLDATASIZE SUB DUP2 ADD SWAP1 PUSH2 0x6A7 SWAP2 SWAP1 PUSH2 0x42E0 JUMP JUMPDEST PUSH2 0x2BF8 JUMP JUMPDEST STOP JUMPDEST PUSH2 0x6C8 PUSH1 0x4 DUP1 CALLDATASIZE SUB DUP2 ADD SWAP1 PUSH2 0x6C3 SWAP2 SWAP1 PUSH2 0x4390 JUMP JUMPDEST PUSH2 0x2E7E JUMP JUMPDEST PUSH1 0x40 MLOAD PUSH2 0x6D8 SWAP5 SWAP4 SWAP3 SWAP2 SWAP1 PUSH2 0x4709 JUMP JUMPDEST PUSH1 0x40 MLOAD DUP1 SWAP2 SUB SWAP1 RETURN JUMPDEST PUSH2 0x6FB PUSH1 0x4 DUP1 CALLDATASIZE SUB DUP2 ADD SWAP1 PUSH2 0x6F6 SWAP2 SWAP1 PUSH2 0x43E3 JUMP JUMPDEST PUSH2 0x2EAA JUMP JUMPDEST PUSH1 0x40 MLOAD PUSH2 0x70F SWAP9 SWAP8 SWAP7 SWAP6 SWAP5 SWAP4 SWAP3 SWAP2 SWAP1 PUSH2 0x47BF JUMP JUMPDEST PUSH1 0x40 MLOAD DUP1 SWAP2 SUB SWAP1 RETURN JUMPDEST PUSH2 0x732 PUSH1 0x4 DUP1 CALLDATASIZE SUB DUP2 ADD SWAP1 PUSH2 0x72D SWAP2 SWAP1 PUSH2 0x454C JUMP JUMPDEST PUSH2 0x3132 JUMP JUMPDEST STOP JUMPDEST PUSH2 0x74E PUSH1 0x4 DUP1 CALLDATASIZE SUB DUP2 ADD SWAP1 PUSH2 0x749 SWAP2 SWAP1 PUSH2 0x43E3 JUMP JUMPDEST PUSH2 0x3320 JUMP JUMPDEST PUSH1 0x40 MLOAD PUSH2 0x761 SWAP8 SWAP7 SWAP6 SWAP5 SWAP4 SWAP3 SWAP2 SWAP1 PUSH2 0x4857 JUMP JUMPDEST PUSH1 0x40 MLOAD DUP1 SWAP2 SUB SWAP1 RETURN JUMPDEST PUSH2 0x784 PUSH1 0x4 DUP1 CALLDATASIZE SUB DUP2 ADD SWAP1 PUSH2 0x77F SWAP2 SWAP1 PUSH2 0x4283 JUMP JUMPDEST PUSH2 0x3527 JUMP JUMPDEST STOP JUMPDEST PUSH2 0x7A0 PUSH1 0x4 DUP1 CALLDATASIZE SUB DUP2 ADD SWAP1 PUSH2 0x79B SWAP2 SWAP1 PUSH2 0x48D9 JUMP JUMPDEST PUSH2 0x377D JUMP JUMPDEST PUSH1 0x40 MLOAD PUSH2 0x7AD SWAP2 SWAP1 PUSH2 0x426A JUMP JUMPDEST PUSH1 0x40 MLOAD DUP1 SWAP2 SUB SWAP1 RETURN JUMPDEST PUSH2 0x7BE PUSH2 0x3822 JUMP JUMPDEST PUSH1 0x40 MLOAD PUSH2 0x7CB SWAP2 SWAP1 PUSH2 0x43CA JUMP JUMPDEST PUSH1 0x40 MLOAD DUP1 SWAP2 SUB SWAP1 RETURN JUMPDEST PUSH2 0x7EE PUSH1 0x4 DUP1 CALLDATASIZE SUB DUP2 ADD SWAP1 PUSH2 0x7E9 SWAP2 SWAP1 PUSH2 0x42E0 JUMP JUMPDEST PUSH2 0x3828 JUMP JUMPDEST STOP JUMPDEST PUSH2 0x80A PUSH1 0x4 DUP1 CALLDATASIZE SUB DUP2 ADD SWAP1 PUSH2 0x805 SWAP2 SWAP1 PUSH2 0x4390 JUMP JUMPDEST PUSH2 0x3AAD JUMP JUMPDEST PUSH1 0x40 MLOAD PUSH2 0x817 SWAP2 SWAP1 PUSH2 0x43CA JUMP JUMPDEST PUSH1 0x40 MLOAD DUP1 SWAP2 SUB SWAP1 RETURN JUMPDEST PUSH2 0x83A PUSH1 0x4 DUP1 CALLDATASIZE SUB DUP2 ADD SWAP1 PUSH2 0x835 SWAP2 SWAP1 PUSH2 0x4390 JUMP JUMPDEST PUSH2 0x3AC2 JUMP JUMPDEST PUSH1 0x40 MLOAD PUSH2 0x847 SWAP2 SWAP1 PUSH2 0x460A JUMP JUMPDEST PUSH1 0x40 MLOAD DUP1 SWAP2 SUB SWAP1 RETURN JUMPDEST PUSH2 0x86A PUSH1 0x4 DUP1 CALLDATASIZE SUB DUP2 ADD SWAP1 PUSH2 0x865 SWAP2 SWAP1 PUSH2 0x43E3 JUMP JUMPDEST PUSH2 0x3AD7 JUMP JUMPDEST PUSH1 0x40 MLOAD PUSH2 0x87B SWAP6 SWAP5 SWAP4 SWAP3 SWAP2 SWAP1 PUSH2 0x4691 JUMP JUMPDEST PUSH1 0x40 MLOAD DUP1 SWAP2 SUB SWAP1 RETURN JUMPDEST PUSH2 0x89E PUSH1 0x4 DUP1 CALLDATASIZE SUB DUP2 ADD SWAP1 PUSH2 0x899 SWAP2 SWAP1 PUSH2 0x42E0 JUMP JUMPDEST PUSH2 0x3C34 JUMP JUMPDEST STOP JUMPDEST PUSH1 0x7 PUSH1 0x20 MSTORE DUP1 PUSH0 MSTORE PUSH1 0x40 PUSH0 KECCAK256 PUSH0 SWAP2 POP SWAP1 POP DUP1 PUSH0 ADD DUP1 SLOAD PUSH2 0x8BF SWAP1 PUSH2 0x496A JUMP JUMPDEST DUP1 PUSH1 0x1F ADD PUSH1 0x20 DUP1 SWAP2 DIV MUL PUSH1 0x20 ADD PUSH1 0x40 MLOAD SWAP1 DUP2 ADD PUSH1 0x40 MSTORE DUP1 SWAP3 SWAP2 SWAP1 DUP2 DUP2 MSTORE PUSH1 0x20 ADD DUP3 DUP1 SLOAD PUSH2 0x8EB SWAP1 PUSH2 0x496A JUMP JUMPDEST DUP1 ISZERO PUSH2 0x936 JUMPI DUP1 PUSH1 0x1F LT PUSH2 0x90D JUMPI PUSH2 0x100 DUP1 DUP4 SLOAD DIV MUL DUP4 MSTORE SWAP2 PUSH1 0x20 ADD SWAP2 PUSH2 0x936 JUMP JUMPDEST DUP3 ADD SWAP2 SWAP1 PUSH0 MSTORE PUSH1 0x20 PUSH0 KECCAK256 SWAP1 JUMPDEST DUP2 SLOAD DUP2 MSTORE SWAP1 PUSH1 0x1 ADD SWAP1 PUSH1 0x20 ADD DUP1 DUP4 GT PUSH2 0x919 JUMPI DUP3 SWAP1 SUB PUSH1 0x1F AND DUP3 ADD SWAP2 JUMPDEST POP POP POP POP POP SWAP1 DUP1 PUSH1 0x1 ADD DUP1 SLOAD PUSH2 0x94B SWAP1 PUSH2 0x496A JUMP JUMPDEST DUP1 PUSH1 0x1F ADD PUSH1 0x20 DUP1 SWAP2 DIV MUL PUSH1 0x20 ADD PUSH1 0x40 MLOAD SWAP1 DUP2 ADD PUSH1 0x40 MSTORE DUP1 SWAP3 SWAP2 SWAP1 DUP2 DUP2 MSTORE PUSH1 0x20 ADD DUP3 DUP1 SLOAD PUSH2 0x977 SWAP1 PUSH2 0x496A JUMP JUMPDEST DUP1 ISZERO PUSH2 0x9C2 JUMPI DUP1 PUSH1 0x1F LT PUSH2 0x999 JUMPI PUSH2 0x100 DUP1 DUP4 SLOAD DIV MUL DUP4 MSTORE SWAP2 PUSH1 0x20 ADD SWAP2 PUSH2 0x9C2 JUMP JUMPDEST DUP3 ADD SWAP2 SWAP1 PUSH0 MSTORE PUSH1 0x20 PUSH0 KECCAK256 SWAP1 JUMPDEST DUP2 SLOAD DUP2 MSTORE SWAP1 PUSH1 0x1 ADD SWAP1 PUSH1 0x20 ADD DUP1 DUP4 GT PUSH2 0x9A5 JUMPI DUP3 SWAP1 SUB PUSH1 0x1F AND DUP3 ADD SWAP2 JUMPDEST POP POP POP POP POP SWAP1 DUP1 PUSH1 0x2 ADD DUP1 SLOAD PUSH2 0x9D7 SWAP1 PUSH2 0x496A JUMP JUMPDEST DUP1 PUSH1 0x1F ADD PUSH1 0x20 DUP1 SWAP2 DIV MUL PUSH1 0x20 ADD PUSH1 0x40 MLOAD SWAP1 DUP2 ADD PUSH1 0x40 MSTORE DUP1 SWAP3 SWAP2 SWAP1 DUP2 DUP2 MSTORE PUSH1 0x20 ADD DUP3 DUP1 SLOAD PUSH2 0xA03 SWAP1 PUSH2 0x496A JUMP JUMPDEST DUP1 ISZERO PUSH2 0xA4E JUMPI DUP1 PUSH1 0x1F LT PUSH2 0xA25 JUMPI PUSH2 0x100 DUP1 DUP4 SLOAD DIV MUL DUP4 MSTORE SWAP2 PUSH1 0x20 ADD SWAP2 PUSH2 0xA4E JUMP JUMPDEST DUP3 ADD SWAP2 SWAP1 PUSH0 MSTORE PUSH1 0x20 PUSH0 KECCAK256 SWAP1 JUMPDEST DUP2 SLOAD DUP2 MSTORE SWAP1 PUSH1 0x1 ADD SWAP1 PUSH1 0x20 ADD DUP1 DUP4 GT PUSH2 0xA31 JUMPI DUP3 SWAP1 SUB PUSH1 0x1F AND DUP3 ADD SWAP2 JUMPDEST POP POP POP POP POP SWAP1 POP DUP4 JUMP JUMPDEST PUSH0 PUSH0 CALLER PUSH20 0xFFFFFFFFFFFFFFFFFFFFFFFFFFFFFFFFFFFFFFFF AND PUSH20 0xFFFFFFFFFFFFFFFFFFFFFFFFFFFFFFFFFFFFFFFF AND DUP2 MSTORE PUSH1 0x20 ADD SWAP1 DUP2 MSTORE PUSH1 0x20 ADD PUSH0 KECCAK256 PUSH0 SWAP1 SLOAD SWAP1 PUSH2 0x100 EXP SWAP1 DIV PUSH1 0xFF AND PUSH2 0xAE0 JUMPI PUSH1 0x40 MLOAD PUSH32 0x8C379A000000000000000000000000000000000000000000000000000000000 DUP2 MSTORE PUSH1 0x4 ADD PUSH2 0xAD7 SWAP1 PUSH2 0x49E4 JUMP JUMPDEST PUSH1 0x40 MLOAD DUP1 SWAP2 SUB SWAP1 REVERT JUMPDEST PUSH1 0x4 PUSH0 DUP10 DUP2 MSTORE PUSH1 0x20 ADD SWAP1 DUP2 MSTORE PUSH1 0x20 ADD PUSH0 KECCAK256 PUSH0 SWAP1 SLOAD SWAP1 PUSH2 0x100 EXP SWAP1 DIV PUSH1 0xFF AND ISZERO PUSH2 0xB3E JUMPI PUSH1 0x40 MLOAD PUSH32 0x8C379A000000000000000000000000000000000000000000000000000000000 DUP2 MSTORE PUSH1 0x4 ADD PUSH2 0xB35 SWAP1 PUSH2 0x4A4C JUMP JUMPDEST PUSH1 0x40 MLOAD DUP1 SWAP2 SUB SWAP1 REVERT JUMPDEST PUSH1 0x40 MLOAD DUP1 PUSH2 0x100 ADD PUSH1 0x40 MSTORE DUP1 DUP10 DUP2 MSTORE PUSH1 0x20 ADD DUP9 DUP9 DUP1 DUP1 PUSH1 0x1F ADD PUSH1 0x20 DUP1 SWAP2 DIV MUL PUSH1 0x20 ADD PUSH1 0x40 MLOAD SWAP1 DUP2 ADD PUSH1 0x40 MSTORE DUP1 SWAP4 SWAP3 SWAP2 SWAP1 DUP2 DUP2 MSTORE PUSH1 0x20 ADD DUP4 DUP4 DUP1 DUP3 DUP5 CALLDATACOPY PUSH0 DUP2 DUP5 ADD MSTORE PUSH1 0x1F NOT PUSH1 0x1F DUP3 ADD AND SWAP1 POP DUP1 DUP4 ADD SWAP3 POP POP POP POP POP POP POP DUP2 MSTORE PUSH1 0x20 ADD DUP7 DUP7 DUP1 DUP1 PUSH1 0x1F ADD PUSH1 0x20 DUP1 SWAP2 DIV MUL PUSH1 0x20 ADD PUSH1 0x40 MLOAD SWAP1 DUP2 ADD PUSH1 0x40 MSTORE DUP1 SWAP4 SWAP3 SWAP2 SWAP1 DUP2 DUP2 MSTORE PUSH1 0x20 ADD DUP4 DUP4 DUP1 DUP3 DUP5 CALLDATACOPY PUSH0 DUP2 DUP5 ADD MSTORE PUSH1 0x1F NOT PUSH1 0x1F DUP3 ADD AND SWAP1 POP DUP1 DUP4 ADD SWAP3 POP POP POP POP POP POP POP DUP2 MSTORE PUSH1 0x20 ADD DUP5 DUP5 DUP1 DUP1 PUSH1 0x1F ADD PUSH1 0x20 DUP1 SWAP2 DIV MUL PUSH1 0x20 ADD PUSH1 0x40 MLOAD SWAP1 DUP2 ADD PUSH1 0x40 MSTORE DUP1 SWAP4 SWAP3 SWAP2 SWAP1 DUP2 DUP2 MSTORE PUSH1 0x20 ADD DUP4 DUP4 DUP1 DUP3 DUP5 CALLDATACOPY PUSH0 DUP2 DUP5 ADD MSTORE PUSH1 0x1F NOT PUSH1 0x1F DUP3 ADD AND SWAP1 POP DUP1 DUP4 ADD SWAP3 POP POP POP POP POP POP POP DUP2 MSTORE PUSH1 0x20 ADD DUP3 DUP2 MSTORE PUSH1 0x20 ADD PUSH1 0x1 PUSH1 0x6 DUP2 GT ISZERO PUSH2 0xC45 JUMPI PUSH2 0xC44 PUSH2 0x474C JUMP JUMPDEST JUMPDEST DUP2 MSTORE PUSH1 0x20 ADD CALLER PUSH20 0xFFFFFFFFFFFFFFFFFFFFFFFFFFFFFFFFFFFFFFFF AND DUP2 MSTORE PUSH1 0x20 ADD PUSH1 0x40 MLOAD DUP1 PUSH1 0x20 ADD PUSH1 0x40 MSTORE DUP1 PUSH0 DUP2 MSTORE POP DUP2 MSTORE POP PUSH1 0x2 PUSH0 DUP11 DUP2 MSTORE PUSH1 0x20 ADD SWAP1 DUP2 MSTORE PUSH1 0x20 ADD PUSH0 KECCAK256 PUSH0 DUP3 ADD MLOAD DUP2 PUSH0 ADD SSTORE PUSH1 0x20 DUP3 ADD MLOAD DUP2 PUSH1 0x1 ADD SWAP1 DUP2 PUSH2 0xCA6 SWAP2 SWAP1 PUSH2 0x4C37 JUMP JUMPDEST POP PUSH1 0x40 DUP3 ADD MLOAD DUP2 PUSH1 0x2 ADD SWAP1 DUP2 PUSH2 0xCBC SWAP2 SWAP1 PUSH2 0x4C37 JUMP JUMPDEST POP PUSH1 0x60 DUP3 ADD MLOAD DUP2 PUSH1 0x3 ADD SWAP1 DUP2 PUSH2 0xCD2 SWAP2 SWAP1 PUSH2 0x4C37 JUMP JUMPDEST POP PUSH1 0x80 DUP3 ADD MLOAD DUP2 PUSH1 0x4 ADD SSTORE PUSH1 0xA0 DUP3 ADD MLOAD DUP2 PUSH1 0x5 ADD PUSH0 PUSH2 0x100 EXP DUP2 SLOAD DUP2 PUSH1 0xFF MUL NOT AND SWAP1 DUP4 PUSH1 0x6 DUP2 GT ISZERO PUSH2 0xD07 JUMPI PUSH2 0xD06 PUSH2 0x474C JUMP JUMPDEST JUMPDEST MUL OR SWAP1 SSTORE POP PUSH1 0xC0 DUP3 ADD MLOAD DUP2 PUSH1 0x5 ADD PUSH1 0x1 PUSH2 0x100 EXP DUP2 SLOAD DUP2 PUSH20 0xFFFFFFFFFFFFFFFFFFFFFFFFFFFFFFFFFFFFFFFF MUL NOT AND SWAP1 DUP4 PUSH20 0xFFFFFFFFFFFFFFFFFFFFFFFFFFFFFFFFFFFFFFFF AND MUL OR SWAP1 SSTORE POP PUSH1 0xE0 DUP3 ADD MLOAD DUP2 PUSH1 0x6 ADD SWAP1 DUP2 PUSH2 0xD68 SWAP2 SWAP1 PUSH2 0x4C37 JUMP JUMPDEST POP SWAP1 POP POP PUSH1 0x1 PUSH1 0x4 PUSH0 DUP11 DUP2 MSTORE PUSH1 0x20 ADD SWAP1 DUP2 MSTORE PUSH1 0x20 ADD PUSH0 KECCAK256 PUSH0 PUSH2 0x100 EXP DUP2 SLOAD DUP2 PUSH1 0xFF MUL NOT AND SWAP1 DUP4 ISZERO ISZERO MUL OR SWAP1 SSTORE POP PUSH32 0x9DCCA99EEBC5190547E039817ED1A8656E9D96C9FCC340F1223D2717DC72AE58 DUP9 DUP9 DUP9 DUP5 PUSH1 0x40 MLOAD PUSH2 0xDCA SWAP5 SWAP4 SWAP3 SWAP2 SWAP1 PUSH2 0x4D40 JUMP JUMPDEST PUSH1 0x40 MLOAD DUP1 SWAP2 SUB SWAP1 LOG1 POP POP POP POP POP POP POP POP JUMP JUMPDEST PUSH1 0x9 PUSH1 0x20 MSTORE DUP1 PUSH0 MSTORE PUSH1 0x40 PUSH0 KECCAK256 PUSH0 SWAP2 POP SLOAD SWAP1 PUSH2 0x100 EXP SWAP1 DIV PUSH1 0xFF AND DUP2 JUMP JUMPDEST PUSH1 0x6 PUSH1 0x20 MSTORE DUP1 PUSH0 MSTORE PUSH1 0x40 PUSH0 KECCAK256 PUSH0 SWAP2 POP SLOAD SWAP1 PUSH2 0x100 EXP SWAP1 DIV PUSH1 0xFF AND DUP2 JUMP JUMPDEST PUSH1 0xD PUSH1 0x20 MSTORE DUP1 PUSH0 MSTORE PUSH1 0x40 PUSH0 KECCAK256 PUSH0 SWAP2 POP SWAP1 POP DUP1 PUSH0 ADD DUP1 SLOAD PUSH2 0xE35 SWAP1 PUSH2 0x496A JUMP JUMPDEST DUP1 PUSH1 0x1F ADD PUSH1 0x20 DUP1 SWAP2 DIV MUL PUSH1 0x20 ADD PUSH1 0x40 MLOAD SWAP1 DUP2 ADD PUSH1 0x40 MSTORE DUP1 SWAP3 SWAP2 SWAP1 DUP2 DUP2 MSTORE PUSH1 0x20 ADD DUP3 DUP1 SLOAD PUSH2 0xE61 SWAP1 PUSH2 0x496A JUMP JUMPDEST DUP1 ISZERO PUSH2 0xEAC JUMPI DUP1 PUSH1 0x1F LT PUSH2 0xE83 JUMPI PUSH2 0x100 DUP1 DUP4 SLOAD DIV MUL DUP4 MSTORE SWAP2 PUSH1 0x20 ADD SWAP2 PUSH2 0xEAC JUMP JUMPDEST DUP3 ADD SWAP2 SWAP1 PUSH0 MSTORE PUSH1 0x20 PUSH0 KECCAK256 SWAP1 JUMPDEST DUP2 SLOAD DUP2 MSTORE SWAP1 PUSH1 0x1 ADD SWAP1 PUSH1 0x20 ADD DUP1 DUP4 GT PUSH2 0xE8F JUMPI DUP3 SWAP1 SUB PUSH1 0x1F AND DUP3 ADD SWAP2 JUMPDEST POP POP POP POP POP SWAP1 DUP1 PUSH1 0x1 ADD DUP1 SLOAD PUSH2 0xEC1 SWAP1 PUSH2 0x496A JUMP JUMPDEST DUP1 PUSH1 0x1F ADD PUSH1 0x20 DUP1 SWAP2 DIV MUL PUSH1 0x20 ADD PUSH1 0x40 MLOAD SWAP1 DUP2 ADD PUSH1 0x40 MSTORE DUP1 SWAP3 SWAP2 SWAP1 DUP2 DUP2 MSTORE PUSH1 0x20 ADD DUP3 DUP1 SLOAD PUSH2 0xEED SWAP1 PUSH2 0x496A JUMP JUMPDEST DUP1 ISZERO PUSH2 0xF38 JUMPI DUP1 PUSH1 0x1F LT PUSH2 0xF0F JUMPI PUSH2 0x100 DUP1 DUP4 SLOAD DIV MUL DUP4 MSTORE SWAP2 PUSH1 0x20 ADD SWAP2 PUSH2 0xF38 JUMP JUMPDEST DUP3 ADD SWAP2 SWAP1 PUSH0 MSTORE PUSH1 0x20 PUSH0 KECCAK256 SWAP1 JUMPDEST DUP2 SLOAD DUP2 MSTORE SWAP1 PUSH1 0x1 ADD SWAP1 PUSH1 0x20 ADD DUP1 DUP4 GT PUSH2 0xF1B JUMPI DUP3 SWAP1 SUB PUSH1 0x1F AND DUP3 ADD SWAP2 JUMPDEST POP POP POP POP POP SWAP1 DUP1 PUSH1 0x2 ADD DUP1 SLOAD PUSH2 0xF4D SWAP1 PUSH2 0x496A JUMP JUMPDEST DUP1 PUSH1 0x1F ADD PUSH1 0x20 DUP1 SWAP2 DIV MUL PUSH1 0x20 ADD PUSH1 0x40 MLOAD SWAP1 DUP2 ADD PUSH1 0x40 MSTORE DUP1 SWAP3 SWAP2 SWAP1 DUP2 DUP2 MSTORE PUSH1 0x20 ADD DUP3 DUP1 SLOAD PUSH2 0xF79 SWAP1 PUSH2 0x496A JUMP JUMPDEST DUP1 ISZERO PUSH2 0xFC4 JUMPI DUP1 PUSH1 0x1F LT PUSH2 0xF9B JUMPI PUSH2 0x100 DUP1 DUP4 SLOAD DIV MUL DUP4 MSTORE SWAP2 PUSH1 0x20 ADD SWAP2 PUSH2 0xFC4 JUMP JUMPDEST DUP3 ADD SWAP2 SWAP1 PUSH0 MSTORE PUSH1 0x20 PUSH0 KECCAK256 SWAP1 JUMPDEST DUP2 SLOAD DUP2 MSTORE SWAP1 PUSH1 0x1 ADD SWAP1 PUSH1 0x20 ADD DUP1 DUP4 GT PUSH2 0xFA7 JUMPI DUP3 SWAP1 SUB PUSH1 0x1F AND DUP3 ADD SWAP2 JUMPDEST POP POP POP POP POP SWAP1 POP DUP4 JUMP JUMPDEST PUSH1 0x9 PUSH0 CALLER PUSH20 0xFFFFFFFFFFFFFFFFFFFFFFFFFFFFFFFFFFFFFFFF AND PUSH20 0xFFFFFFFFFFFFFFFFFFFFFFFFFFFFFFFFFFFFFFFF AND DUP2 MSTORE PUSH1 0x20 ADD SWAP1 DUP2 MSTORE PUSH1 0x20 ADD PUSH0 KECCAK256 PUSH0 SWAP1 SLOAD SWAP1 PUSH2 0x100 EXP SWAP1 DIV PUSH1 0xFF AND PUSH2 0x1057 JUMPI PUSH1 0x40 MLOAD PUSH32 0x8C379A000000000000000000000000000000000000000000000000000000000 DUP2 MSTORE PUSH1 0x4 ADD PUSH2 0x104E SWAP1 PUSH2 0x4DC8 JUMP JUMPDEST PUSH1 0x40 MLOAD DUP1 SWAP2 SUB SWAP1 REVERT JUMPDEST PUSH1 0xB PUSH0 DUP5 DUP2 MSTORE PUSH1 0x20 ADD SWAP1 DUP2 MSTORE PUSH1 0x20 ADD PUSH0 KECCAK256 PUSH1 0x1 ADD PUSH0 SWAP1 SLOAD SWAP1 PUSH2 0x100 EXP SWAP1 DIV PUSH1 0xFF AND PUSH2 0x10B7 JUMPI PUSH1 0x40 MLOAD PUSH32 0x8C379A000000000000000000000000000000000000000000000000000000000 DUP2 MSTORE PUSH1 0x4 ADD PUSH2 0x10AE SWAP1 PUSH2 0x4E30 JUMP JUMPDEST PUSH1 0x40 MLOAD DUP1 SWAP2 SUB SWAP1 REVERT JUMPDEST PUSH1 0x1 PUSH1 0xB PUSH0 DUP6 DUP2 MSTORE PUSH1 0x20 ADD SWAP1 DUP2 MSTORE PUSH1 0x20 ADD PUSH0 KECCAK256 PUSH1 0x3 ADD PUSH0 PUSH2 0x100 EXP DUP2 SLOAD DUP2 PUSH1 0xFF MUL NOT AND SWAP1 DUP4 ISZERO ISZERO MUL OR SWAP1 SSTORE POP DUP2 DUP2 PUSH1 0xB PUSH0 DUP7 DUP2 MSTORE PUSH1 0x20 ADD SWAP1 DUP2 MSTORE PUSH1 0x20 ADD PUSH0 KECCAK256 PUSH1 0x4 ADD SWAP2 DUP3 PUSH2 0x1106 SWAP3 SWAP2 SWAP1 PUSH2 0x4E58 JUMP JUMPDEST POP PUSH32 0xE5D0B47A1FE3DE7357458B7B7AA20AEDE2093BAA892E9D8C2784E39FA58A7D8C DUP4 DUP4 DUP4 PUSH1 0x40 MLOAD PUSH2 0x113A SWAP4 SWAP3 SWAP2 SWAP1 PUSH2 0x4F25 JUMP JUMPDEST PUSH1 0x40 MLOAD DUP1 SWAP2 SUB SWAP1 LOG1 POP POP POP JUMP JUMPDEST PUSH0 PUSH0 CALLER PUSH20 0xFFFFFFFFFFFFFFFFFFFFFFFFFFFFFFFFFFFFFFFF AND PUSH20 0xFFFFFFFFFFFFFFFFFFFFFFFFFFFFFFFFFFFFFFFF AND DUP2 MSTORE PUSH1 0x20 ADD SWAP1 DUP2 MSTORE PUSH1 0x20 ADD PUSH0 KECCAK256 PUSH0 SWAP1 SLOAD SWAP1 PUSH2 0x100 EXP SWAP1 DIV PUSH1 0xFF AND ISZERO PUSH2 0x11D0 JUMPI PUSH1 0x40 MLOAD PUSH32 0x8C379A000000000000000000000000000000000000000000000000000000000 DUP2 MSTORE PUSH1 0x4 ADD PUSH2 0x11C7 SWAP1 PUSH2 0x4F9F JUMP JUMPDEST PUSH1 0x40 MLOAD DUP1 SWAP2 SUB SWAP1 REVERT JUMPDEST PUSH1 0x1 PUSH0 PUSH0 CALLER PUSH20 0xFFFFFFFFFFFFFFFFFFFFFFFFFFFFFFFFFFFFFFFF AND PUSH20 0xFFFFFFFFFFFFFFFFFFFFFFFFFFFFFFFFFFFFFFFF AND DUP2 MSTORE PUSH1 0x20 ADD SWAP1 DUP2 MSTORE PUSH1 0x20 ADD PUSH0 KECCAK256 PUSH0 PUSH2 0x100 EXP DUP2 SLOAD DUP2 PUSH1 0xFF MUL NOT AND SWAP1 DUP4 ISZERO ISZERO MUL OR SWAP1 SSTORE POP PUSH1 0x40 MLOAD DUP1 PUSH1 0x60 ADD PUSH1 0x40 MSTORE DUP1 DUP8 DUP8 DUP1 DUP1 PUSH1 0x1F ADD PUSH1 0x20 DUP1 SWAP2 DIV MUL PUSH1 0x20 ADD PUSH1 0x40 MLOAD SWAP1 DUP2 ADD PUSH1 0x40 MSTORE DUP1 SWAP4 SWAP3 SWAP2 SWAP1 DUP2 DUP2 MSTORE PUSH1 0x20 ADD DUP4 DUP4 DUP1 DUP3 DUP5 CALLDATACOPY PUSH0 DUP2 DUP5 ADD MSTORE PUSH1 0x1F NOT PUSH1 0x1F DUP3 ADD AND SWAP1 POP DUP1 DUP4 ADD SWAP3 POP POP POP POP POP POP POP DUP2 MSTORE PUSH1 0x20 ADD DUP6 DUP6 DUP1 DUP1 PUSH1 0x1F ADD PUSH1 0x20 DUP1 SWAP2 DIV MUL PUSH1 0x20 ADD PUSH1 0x40 MLOAD SWAP1 DUP2 ADD PUSH1 0x40 MSTORE DUP1 SWAP4 SWAP3 SWAP2 SWAP1 DUP2 DUP2 MSTORE PUSH1 0x20 ADD DUP4 DUP4 DUP1 DUP3 DUP5 CALLDATACOPY PUSH0 DUP2 DUP5 ADD MSTORE PUSH1 0x1F NOT PUSH1 0x1F DUP3 ADD AND SWAP1 POP DUP1 DUP4 ADD SWAP3 POP POP POP POP POP POP POP DUP2 MSTORE PUSH1 0x20 ADD DUP4 DUP4 DUP1 DUP1 PUSH1 0x1F ADD PUSH1 0x20 DUP1 SWAP2 DIV MUL PUSH1 0x20 ADD PUSH1 0x40 MLOAD SWAP1 DUP2 ADD PUSH1 0x40 MSTORE DUP1 SWAP4 SWAP3 SWAP2 SWAP1 DUP2 DUP2 MSTORE PUSH1 0x20 ADD DUP4 DUP4 DUP1 DUP3 DUP5 CALLDATACOPY PUSH0 DUP2 DUP5 ADD MSTORE PUSH1 0x1F NOT PUSH1 0x1F DUP3 ADD AND SWAP1 POP DUP1 DUP4 ADD SWAP3 POP POP POP POP POP POP POP DUP2 MSTORE POP PUSH1 0x1 PUSH0 CALLER PUSH20 0xFFFFFFFFFFFFFFFFFFFFFFFFFFFFFFFFFFFFFFFF AND PUSH20 0xFFFFFFFFFFFFFFFFFFFFFFFFFFFFFFFFFFFFFFFF AND DUP2 MSTORE PUSH1 0x20 ADD SWAP1 DUP2 MSTORE PUSH1 0x20 ADD PUSH0 KECCAK256 PUSH0 DUP3 ADD MLOAD DUP2 PUSH0 ADD SWAP1 DUP2 PUSH2 0x1358 SWAP2 SWAP1 PUSH2 0x4C37 JUMP JUMPDEST POP PUSH1 0x20 DUP3 ADD MLOAD DUP2 PUSH1 0x1 ADD SWAP1 DUP2 PUSH2 0x136E SWAP2 SWAP1 PUSH2 0x4C37 JUMP JUMPDEST POP PUSH1 0x40 DUP3 ADD MLOAD DUP2 PUSH1 0x2 ADD SWAP1 DUP2 PUSH2 0x1384 SWAP2 SWAP1 PUSH2 0x4C37 JUMP JUMPDEST POP SWAP1 POP POP PUSH32 0x42558426A946AB6E527D7F548E7BD3E34C2A7DDDE555007464CDFBB5F58665F8 CALLER DUP8 DUP8 PUSH1 0x40 MLOAD PUSH2 0x13BB SWAP4 SWAP3 SWAP2 SWAP1 PUSH2 0x4FBD JUMP JUMPDEST PUSH1 0x40 MLOAD DUP1 SWAP2 SUB SWAP1 LOG1 POP POP POP POP POP POP JUMP JUMPDEST PUSH1 0x14 PUSH1 0x20 MSTORE DUP1 PUSH0 MSTORE PUSH1 0x40 PUSH0 KECCAK256 PUSH0 SWAP2 POP SWAP1 POP SLOAD DUP2 JUMP JUMPDEST PUSH1 0xF PUSH1 0x20 MSTORE DUP1 PUSH0 MSTORE PUSH1 0x40 PUSH0 KECCAK256 PUSH0 SWAP2 POP SLOAD SWAP1 PUSH2 0x100 EXP SWAP1 DIV PUSH1 0xFF AND DUP2 JUMP JUMPDEST PUSH1 0x4 PUSH1 0x20 MSTORE DUP1 PUSH0 MSTORE PUSH1 0x40 PUSH0 KECCAK256 PUSH0 SWAP2 POP SLOAD SWAP1 PUSH2 0x100 EXP SWAP1 DIV PUSH1 0xFF AND DUP2 JUMP JUMPDEST PUSH0 PUSH1 0x20 MSTORE DUP1 PUSH0 MSTORE PUSH1 0x40 PUSH0 KECCAK256 PUSH0 SWAP2 POP SLOAD SWAP1 PUSH2 0x100 EXP SWAP1 DIV PUSH1 0xFF AND DUP2 JUMP JUMPDEST PUSH1 0x10 PUSH1 0x20 MSTORE DUP1 PUSH0 MSTORE PUSH1 0x40 PUSH0 KECCAK256 PUSH0 SWAP2 POP SWAP1 POP DUP1 PUSH0 ADD DUP1 SLOAD PUSH2 0x1455 SWAP1 PUSH2 0x496A JUMP JUMPDEST DUP1 PUSH1 0x1F ADD PUSH1 0x20 DUP1 SWAP2 DIV MUL PUSH1 0x20 ADD PUSH1 0x40 MLOAD SWAP1 DUP2 ADD PUSH1 0x40 MSTORE DUP1 SWAP3 SWAP2 SWAP1 DUP2 DUP2 MSTORE PUSH1 0x20 ADD DUP3 DUP1 SLOAD PUSH2 0x1481 SWAP1 PUSH2 0x496A JUMP JUMPDEST DUP1 ISZERO PUSH2 0x14CC JUMPI DUP1 PUSH1 0x1F LT PUSH2 0x14A3 JUMPI PUSH2 0x100 DUP1 DUP4 SLOAD DIV MUL DUP4 MSTORE SWAP2 PUSH1 0x20 ADD SWAP2 PUSH2 0x14CC JUMP JUMPDEST DUP3 ADD SWAP2 SWAP1 PUSH0 MSTORE PUSH1 0x20 PUSH0 KECCAK256 SWAP1 JUMPDEST DUP2 SLOAD DUP2 MSTORE SWAP1 PUSH1 0x1 ADD SWAP1 PUSH1 0x20 ADD DUP1 DUP4 GT PUSH2 0x14AF JUMPI DUP3 SWAP1 SUB PUSH1 0x1F AND DUP3 ADD SWAP2 JUMPDEST POP POP POP POP POP SWAP1 DUP1 PUSH1 0x1 ADD DUP1 SLOAD PUSH2 0x14E1 SWAP1 PUSH2 0x496A JUMP JUMPDEST DUP1 PUSH1 0x1F ADD PUSH1 0x20 DUP1 SWAP2 DIV MUL PUSH1 0x20 ADD PUSH1 0x40 MLOAD SWAP1 DUP2 ADD PUSH1 0x40 MSTORE DUP1 SWAP3 SWAP2 SWAP1 DUP2 DUP2 MSTORE PUSH1 0x20 ADD DUP3 DUP1 SLOAD PUSH2 0x150D SWAP1 PUSH2 0x496A JUMP JUMPDEST DUP1 ISZERO PUSH2 0x1558 JUMPI DUP1 PUSH1 0x1F LT PUSH2 0x152F JUMPI PUSH2 0x100 DUP1 DUP4 SLOAD DIV MUL DUP4 MSTORE SWAP2 PUSH1 0x20 ADD SWAP2 PUSH2 0x1558 JUMP JUMPDEST DUP3 ADD SWAP2 SWAP1 PUSH0 MSTORE PUSH1 0x20 PUSH0 KECCAK256 SWAP1 JUMPDEST DUP2 SLOAD DUP2 MSTORE SWAP1 PUSH1 0x1 ADD SWAP1 PUSH1 0x20 ADD DUP1 DUP4 GT PUSH2 0x153B JUMPI DUP3 SWAP1 SUB PUSH1 0x1F AND DUP3 ADD SWAP2 JUMPDEST POP POP POP POP POP SWAP1 DUP1 PUSH1 0x2 ADD DUP1 SLOAD PUSH2 0x156D SWAP1 PUSH2 0x496A JUMP JUMPDEST DUP1 PUSH1 0x1F ADD PUSH1 0x20 DUP1 SWAP2 DIV MUL PUSH1 0x20 ADD PUSH1 0x40 MLOAD SWAP1 DUP2 ADD PUSH1 0x40 MSTORE DUP1 SWAP3 SWAP2 SWAP1 DUP2 DUP2 MSTORE PUSH1 0x20 ADD DUP3 DUP1 SLOAD PUSH2 0x1599 SWAP1 PUSH2 0x496A JUMP JUMPDEST DUP1 ISZERO PUSH2 0x15E4 JUMPI DUP1 PUSH1 0x1F LT PUSH2 0x15BB JUMPI PUSH2 0x100 DUP1 DUP4 SLOAD DIV MUL DUP4 MSTORE SWAP2 PUSH1 0x20 ADD SWAP2 PUSH2 0x15E4 JUMP JUMPDEST DUP3 ADD SWAP2 SWAP1 PUSH0 MSTORE PUSH1 0x20 PUSH0 KECCAK256 SWAP1 JUMPDEST DUP2 SLOAD DUP2 MSTORE SWAP1 PUSH1 0x1 ADD SWAP1 PUSH1 0x20 ADD DUP1 DUP4 GT PUSH2 0x15C7 JUMPI DUP3 SWAP1 SUB PUSH1 0x1F AND DUP3 ADD SWAP2 JUMPDEST POP POP POP POP POP SWAP1 POP DUP4 JUMP JUMPDEST PUSH1 0xC PUSH0 CALLER PUSH20 0xFFFFFFFFFFFFFFFFFFFFFFFFFFFFFFFFFFFFFFFF AND PUSH20 0xFFFFFFFFFFFFFFFFFFFFFFFFFFFFFFFFFFFFFFFF AND DUP2 MSTORE PUSH1 0x20 ADD SWAP1 DUP2 MSTORE PUSH1 0x20 ADD PUSH0 KECCAK256 PUSH0 SWAP1 SLOAD SWAP1 PUSH2 0x100 EXP SWAP1 DIV PUSH1 0xFF AND ISZERO PUSH2 0x1678 JUMPI PUSH1 0x40 MLOAD PUSH32 0x8C379A000000000000000000000000000000000000000000000000000000000 DUP2 MSTORE PUSH1 0x4 ADD PUSH2 0x166F SWAP1 PUSH2 0x4F9F JUMP JUMPDEST PUSH1 0x40 MLOAD DUP1 SWAP2 SUB SWAP1 REVERT JUMPDEST PUSH1 0x1 PUSH1 0xC PUSH0 CALLER PUSH20 0xFFFFFFFFFFFFFFFFFFFFFFFFFFFFFFFFFFFFFFFF AND PUSH20 0xFFFFFFFFFFFFFFFFFFFFFFFFFFFFFFFFFFFFFFFF AND DUP2 MSTORE PUSH1 0x20 ADD SWAP1 DUP2 MSTORE PUSH1 0x20 ADD PUSH0 KECCAK256 PUSH0 PUSH2 0x100 EXP DUP2 SLOAD DUP2 PUSH1 0xFF MUL NOT AND SWAP1 DUP4 ISZERO ISZERO MUL OR SWAP1 SSTORE POP PUSH1 0x40 MLOAD DUP1 PUSH1 0x60 ADD PUSH1 0x40 MSTORE DUP1 DUP8 DUP8 DUP1 DUP1 PUSH1 0x1F ADD PUSH1 0x20 DUP1 SWAP2 DIV MUL PUSH1 0x20 ADD PUSH1 0x40 MLOAD SWAP1 DUP2 ADD PUSH1 0x40 MSTORE DUP1 SWAP4 SWAP3 SWAP2 SWAP1 DUP2 DUP2 MSTORE PUSH1 0x20 ADD DUP4 DUP4 DUP1 DUP3 DUP5 CALLDATACOPY PUSH0 DUP2 DUP5 ADD MSTORE PUSH1 0x1F NOT PUSH1 0x1F DUP3 ADD AND SWAP1 POP DUP1 DUP4 ADD SWAP3 POP POP POP POP POP POP POP DUP2 MSTORE PUSH1 0x20 ADD DUP6 DUP6 DUP1 DUP1 PUSH1 0x1F ADD PUSH1 0x20 DUP1 SWAP2 DIV MUL PUSH1 0x20 ADD PUSH1 0x40 MLOAD SWAP1 DUP2 ADD PUSH1 0x40 MSTORE DUP1 SWAP4 SWAP3 SWAP2 SWAP1 DUP2 DUP2 MSTORE PUSH1 0x20 ADD DUP4 DUP4 DUP1 DUP3 DUP5 CALLDATACOPY PUSH0 DUP2 DUP5 ADD MSTORE PUSH1 0x1F NOT PUSH1 0x1F DUP3 ADD AND SWAP1 POP DUP1 DUP4 ADD SWAP3 POP POP POP POP POP POP POP DUP2 MSTORE PUSH1 0x20 ADD DUP4 DUP4 DUP1 DUP1 PUSH1 0x1F ADD PUSH1 0x20 DUP1 SWAP2 DIV MUL PUSH1 0x20 ADD PUSH1 0x40 MLOAD SWAP1 DUP2 ADD PUSH1 0x40 MSTORE DUP1 SWAP4 SWAP3 SWAP2 SWAP1 DUP2 DUP2 MSTORE PUSH1 0x20 ADD DUP4 DUP4 DUP1 DUP3 DUP5 CALLDATACOPY PUSH0 DUP2 DUP5 ADD MSTORE PUSH1 0x1F NOT PUSH1 0x1F DUP3 ADD AND SWAP1 POP DUP1 DUP4 ADD SWAP3 POP POP POP POP POP POP POP DUP2 MSTORE POP PUSH1 0xD PUSH0 CALLER PUSH20 0xFFFFFFFFFFFFFFFFFFFFFFFFFFFFFFFFFFFFFFFF AND PUSH20 0xFFFFFFFFFFFFFFFFFFFFFFFFFFFFFFFFFFFFFFFF AND DUP2 MSTORE PUSH1 0x20 ADD SWAP1 DUP2 MSTORE PUSH1 0x20 ADD PUSH0 KECCAK256 PUSH0 DUP3 ADD MLOAD DUP2 PUSH0 ADD SWAP1 DUP2 PUSH2 0x1801 SWAP2 SWAP1 PUSH2 0x4C37 JUMP JUMPDEST POP PUSH1 0x20 DUP3 ADD MLOAD DUP2 PUSH1 0x1 ADD SWAP1 DUP2 PUSH2 0x1817 SWAP2 SWAP1 PUSH2 0x4C37 JUMP JUMPDEST POP PUSH1 0x40 DUP3 ADD MLOAD DUP2 PUSH1 0x2 ADD SWAP1 DUP2 PUSH2 0x182D SWAP2 SWAP1 PUSH2 0x4C37 JUMP JUMPDEST POP SWAP1 POP POP PUSH32 0xC6B3A3CB893680BAEF98E6F2F73E2F33A36A14EAEA0BA521451D6547BA362B62 CALLER DUP8 DUP8 PUSH1 0x40 MLOAD PUSH2 0x1864 SWAP4 SWAP3 SWAP2 SWAP1 PUSH2 0x4FBD JUMP JUMPDEST PUSH1 0x40 MLOAD DUP1 SWAP2 SUB SWAP1 LOG1 POP POP POP POP POP POP JUMP JUMPDEST PUSH1 0xC PUSH0 CALLER PUSH20 0xFFFFFFFFFFFFFFFFFFFFFFFFFFFFFFFFFFFFFFFF AND PUSH20 0xFFFFFFFFFFFFFFFFFFFFFFFFFFFFFFFFFFFFFFFF AND DUP2 MSTORE PUSH1 0x20 ADD SWAP1 DUP2 MSTORE PUSH1 0x20 ADD PUSH0 KECCAK256 PUSH0 SWAP1 SLOAD SWAP1 PUSH2 0x100 EXP SWAP1 DIV PUSH1 0xFF AND PUSH2 0x18FD JUMPI PUSH1 0x40 MLOAD PUSH32 0x8C379A000000000000000000000000000000000000000000000000000000000 DUP2 MSTORE PUSH1 0x4 ADD PUSH2 0x18F4 SWAP1 PUSH2 0x5037 JUMP JUMPDEST PUSH1 0x40 MLOAD DUP1 SWAP2 SUB SWAP1 REVERT JUMPDEST CALLER PUSH20 0xFFFFFFFFFFFFFFFFFFFFFFFFFFFFFFFFFFFFFFFF AND PUSH1 0xE PUSH0 DUP7 DUP2 MSTORE PUSH1 0x20 ADD SWAP1 DUP2 MSTORE PUSH1 0x20 ADD PUSH0 KECCAK256 PUSH1 0x4 ADD PUSH0 SWAP1 SLOAD SWAP1 PUSH2 0x100 EXP SWAP1 DIV PUSH20 0xFFFFFFFFFFFFFFFFFFFFFFFFFFFFFFFFFFFFFFFF AND PUSH20 0xFFFFFFFFFFFFFFFFFFFFFFFFFFFFFFFFFFFFFFFF AND EQ PUSH2 0x199E JUMPI PUSH1 0x40 MLOAD PUSH32 0x8C379A000000000000000000000000000000000000000000000000000000000 DUP2 MSTORE PUSH1 0x4 ADD PUSH2 0x1995 SWAP1 PUSH2 0x509F JUMP JUMPDEST PUSH1 0x40 MLOAD DUP1 SWAP2 SUB SWAP1 REVERT JUMPDEST DUP3 PUSH1 0xE PUSH0 DUP7 DUP2 MSTORE PUSH1 0x20 ADD SWAP1 DUP2 MSTORE PUSH1 0x20 ADD PUSH0 KECCAK256 PUSH1 0x4 ADD PUSH0 PUSH2 0x100 EXP DUP2 SLOAD DUP2 PUSH20 0xFFFFFFFFFFFFFFFFFFFFFFFFFFFFFFFFFFFFFFFF MUL NOT AND SWAP1 DUP4 PUSH20 0xFFFFFFFFFFFFFFFFFFFFFFFFFFFFFFFFFFFFFFFF AND MUL OR SWAP1 SSTORE POP DUP2 DUP2 PUSH1 0xE PUSH0 DUP8 DUP2 MSTORE PUSH1 0x20 ADD SWAP1 DUP2 MSTORE PUSH1 0x20 ADD PUSH0 KECCAK256 PUSH1 0x3 ADD SWAP2 DUP3 PUSH2 0x1A13 SWAP3 SWAP2 SWAP1 PUSH2 0x4E58 JUMP JUMPDEST POP PUSH32 0x2666D7B1655588ADC2208A66DD88260CFD5B9C5C38AECF90E5170371CFA4F19 DUP5 DUP5 PUSH1 0x40 MLOAD PUSH2 0x1A45 SWAP3 SWAP2 SWAP1 PUSH2 0x50BD JUMP JUMPDEST PUSH1 0x40 MLOAD DUP1 SWAP2 SUB SWAP1 LOG1 POP POP POP POP JUMP JUMPDEST PUSH1 0xF PUSH0 CALLER PUSH20 0xFFFFFFFFFFFFFFFFFFFFFFFFFFFFFFFFFFFFFFFF AND PUSH20 0xFFFFFFFFFFFFFFFFFFFFFFFFFFFFFFFFFFFFFFFF AND DUP2 MSTORE PUSH1 0x20 ADD SWAP1 DUP2 MSTORE PUSH1 0x20 ADD PUSH0 KECCAK256 PUSH0 SWAP1 SLOAD SWAP1 PUSH2 0x100 EXP SWAP1 DIV PUSH1 0xFF AND PUSH2 0x1ADC JUMPI PUSH1 0x40 MLOAD PUSH32 0x8C379A000000000000000000000000000000000000000000000000000000000 DUP2 MSTORE PUSH1 0x4 ADD PUSH2 0x1AD3 SWAP1 PUSH2 0x512E JUMP JUMPDEST PUSH1 0x40 MLOAD DUP1 SWAP2 SUB SWAP1 REVERT JUMPDEST PUSH1 0x40 MLOAD DUP1 PUSH1 0xA0 ADD PUSH1 0x40 MSTORE DUP1 DUP8 DUP2 MSTORE PUSH1 0x20 ADD DUP7 ISZERO ISZERO DUP2 MSTORE PUSH1 0x20 ADD DUP6 DUP6 DUP1 DUP1 PUSH1 0x1F ADD PUSH1 0x20 DUP1 SWAP2 DIV MUL PUSH1 0x20 ADD PUSH1 0x40 MLOAD SWAP1 DUP2 ADD PUSH1 0x40 MSTORE DUP1 SWAP4 SWAP3 SWAP2 SWAP1 DUP2 DUP2 MSTORE PUSH1 0x20 ADD DUP4 DUP4 DUP1 DUP3 DUP5 CALLDATACOPY PUSH0 DUP2 DUP5 ADD MSTORE PUSH1 0x1F NOT PUSH1 0x1F DUP3 ADD AND SWAP1 POP DUP1 DUP4 ADD SWAP3 POP POP POP POP POP POP POP DUP2 MSTORE PUSH1 0x20 ADD DUP4 DUP4 DUP1 DUP1 PUSH1 0x1F ADD PUSH1 0x20 DUP1 SWAP2 DIV MUL PUSH1 0x20 ADD PUSH1 0x40 MLOAD SWAP1 DUP2 ADD PUSH1 0x40 MSTORE DUP1 SWAP4 SWAP3 SWAP2 SWAP1 DUP2 DUP2 MSTORE PUSH1 0x20 ADD DUP4 DUP4 DUP1 DUP3 DUP5 CALLDATACOPY PUSH0 DUP2 DUP5 ADD MSTORE PUSH1 0x1F NOT PUSH1 0x1F DUP3 ADD AND SWAP1 POP DUP1 DUP4 ADD SWAP3 POP POP POP POP POP POP POP DUP2 MSTORE PUSH1 0x20 ADD CALLER PUSH20 0xFFFFFFFFFFFFFFFFFFFFFFFFFFFFFFFFFFFFFFFF AND DUP2 MSTORE POP PUSH1 0x11 PUSH0 DUP9 DUP2 MSTORE PUSH1 0x20 ADD SWAP1 DUP2 MSTORE PUSH1 0x20 ADD PUSH0 KECCAK256 PUSH0 DUP3 ADD MLOAD DUP2 PUSH0 ADD SSTORE PUSH1 0x20 DUP3 ADD MLOAD DUP2 PUSH1 0x1 ADD PUSH0 PUSH2 0x100 EXP DUP2 SLOAD DUP2 PUSH1 0xFF MUL NOT AND SWAP1 DUP4 ISZERO ISZERO MUL OR SWAP1 SSTORE POP PUSH1 0x40 DUP3 ADD MLOAD DUP2 PUSH1 0x2 ADD SWAP1 DUP2 PUSH2 0x1BEE SWAP2 SWAP1 PUSH2 0x4C37 JUMP JUMPDEST POP PUSH1 0x60 DUP3 ADD MLOAD DUP2 PUSH1 0x3 ADD SWAP1 DUP2 PUSH2 0x1C04 SWAP2 SWAP1 PUSH2 0x4C37 JUMP JUMPDEST POP PUSH1 0x80 DUP3 ADD MLOAD DUP2 PUSH1 0x4 ADD PUSH0 PUSH2 0x100 EXP DUP2 SLOAD DUP2 PUSH20 0xFFFFFFFFFFFFFFFFFFFFFFFFFFFFFFFFFFFFFFFF MUL NOT AND SWAP1 DUP4 PUSH20 0xFFFFFFFFFFFFFFFFFFFFFFFFFFFFFFFFFFFFFFFF AND MUL OR SWAP1 SSTORE POP SWAP1 POP POP PUSH32 0x9712BB7E105B124F0CC3F0585E06A1950DE77A678EBAEC3506656B363733EB5E DUP7 CALLER PUSH1 0x40 MLOAD PUSH2 0x1C7F SWAP3 SWAP2 SWAP1 PUSH2 0x50BD JUMP JUMPDEST PUSH1 0x40 MLOAD DUP1 SWAP2 SUB SWAP1 LOG1 POP POP POP POP POP POP JUMP JUMPDEST PUSH1 0xC PUSH0 CALLER PUSH20 0xFFFFFFFFFFFFFFFFFFFFFFFFFFFFFFFFFFFFFFFF AND PUSH20 0xFFFFFFFFFFFFFFFFFFFFFFFFFFFFFFFFFFFFFFFF AND DUP2 MSTORE PUSH1 0x20 ADD SWAP1 DUP2 MSTORE PUSH1 0x20 ADD PUSH0 KECCAK256 PUSH0 SWAP1 SLOAD SWAP1 PUSH2 0x100 EXP SWAP1 DIV PUSH1 0xFF AND PUSH2 0x1D18 JUMPI PUSH1 0x40 MLOAD PUSH32 0x8C379A000000000000000000000000000000000000000000000000000000000 DUP2 MSTORE PUSH1 0x4 ADD PUSH2 0x1D0F SWAP1 PUSH2 0x5037 JUMP JUMPDEST PUSH1 0x40 MLOAD DUP1 SWAP2 SUB SWAP1 REVERT JUMPDEST PUSH1 0x40 MLOAD DUP1 PUSH1 0xA0 ADD PUSH1 0x40 MSTORE DUP1 DUP6 DUP2 MSTORE PUSH1 0x20 ADD DUP5 DUP2 MSTORE PUSH1 0x20 ADD DUP4 DUP4 DUP1 DUP1 PUSH1 0x1F ADD PUSH1 0x20 DUP1 SWAP2 DIV MUL PUSH1 0x20 ADD PUSH1 0x40 MLOAD SWAP1 DUP2 ADD PUSH1 0x40 MSTORE DUP1 SWAP4 SWAP3 SWAP2 SWAP1 DUP2 DUP2 MSTORE PUSH1 0x20 ADD DUP4 DUP4 DUP1 DUP3 DUP5 CALLDATACOPY PUSH0 DUP2 DUP5 ADD MSTORE PUSH1 0x1F NOT PUSH1 0x1F DUP3 ADD AND SWAP1 POP DUP1 DUP4 ADD SWAP3 POP POP POP POP POP POP POP DUP2 MSTORE PUSH1 0x20 ADD PUSH1 0x40 MLOAD DUP1 PUSH1 0x20 ADD PUSH1 0x40 MSTORE DUP1 PUSH0 DUP2 MSTORE POP DUP2 MSTORE PUSH1 0x20 ADD CALLER PUSH20 0xFFFFFFFFFFFFFFFFFFFFFFFFFFFFFFFFFFFFFFFF AND DUP2 MSTORE POP PUSH1 0xE PUSH0 DUP7 DUP2 MSTORE PUSH1 0x20 ADD SWAP1 DUP2 MSTORE PUSH1 0x20 ADD PUSH0 KECCAK256 PUSH0 DUP3 ADD MLOAD DUP2 PUSH0 ADD SSTORE PUSH1 0x20 DUP3 ADD MLOAD DUP2 PUSH1 0x1 ADD SSTORE PUSH1 0x40 DUP3 ADD MLOAD DUP2 PUSH1 0x2 ADD SWAP1 DUP2 PUSH2 0x1DDE SWAP2 SWAP1 PUSH2 0x4C37 JUMP JUMPDEST POP PUSH1 0x60 DUP3 ADD MLOAD DUP2 PUSH1 0x3 ADD SWAP1 DUP2 PUSH2 0x1DF4 SWAP2 SWAP1 PUSH2 0x4C37 JUMP JUMPDEST POP PUSH1 0x80 DUP3 ADD MLOAD DUP2 PUSH1 0x4 ADD PUSH0 PUSH2 0x100 EXP DUP2 SLOAD DUP2 PUSH20 0xFFFFFFFFFFFFFFFFFFFFFFFFFFFFFFFFFFFFFFFF MUL NOT AND SWAP1 DUP4 PUSH20 0xFFFFFFFFFFFFFFFFFFFFFFFFFFFFFFFFFFFFFFFF AND MUL OR SWAP1 SSTORE POP SWAP1 POP POP PUSH32 0xDCE449D7850CA6BEF609273E8C07C207F37E3DF3D879CD8B431342EB623D20FE DUP5 CALLER PUSH1 0x40 MLOAD PUSH2 0x1E6F SWAP3 SWAP2 SWAP1 PUSH2 0x50BD JUMP JUMPDEST PUSH1 0x40 MLOAD DUP1 SWAP2 SUB SWAP1 LOG1 POP POP POP POP JUMP JUMPDEST PUSH0 DUP2 PUSH1 0x14 PUSH0 DUP6 DUP2 MSTORE PUSH1 0x20 ADD SWAP1 DUP2 MSTORE PUSH1 0x20 ADD PUSH0 KECCAK256 DUP2 SWAP1 SSTORE POP TIMESTAMP PUSH1 0x15 PUSH0 DUP6 DUP2 MSTORE PUSH1 0x20 ADD SWAP1 DUP2 MSTORE PUSH1 0x20 ADD PUSH0 KECCAK256 DUP2 SWAP1 SSTORE POP DUP3 PUSH32 0xFDDF6F64F3CD655060B6184BDD57773866274EDC21A72C5D9DEB6CC8D615B278 DUP4 TIMESTAMP PUSH1 0x40 MLOAD PUSH2 0x1EDC SWAP3 SWAP2 SWAP1 PUSH2 0x514C JUMP JUMPDEST PUSH1 0x40 MLOAD DUP1 SWAP2 SUB SWAP1 LOG2 PUSH1 0x1 SWAP1 POP SWAP3 SWAP2 POP POP JUMP JUMPDEST PUSH1 0x6 PUSH0 CALLER PUSH20 0xFFFFFFFFFFFFFFFFFFFFFFFFFFFFFFFFFFFFFFFF AND PUSH20 0xFFFFFFFFFFFFFFFFFFFFFFFFFFFFFFFFFFFFFFFF AND DUP2 MSTORE PUSH1 0x20 ADD SWAP1 DUP2 MSTORE PUSH1 0x20 ADD PUSH0 KECCAK256 PUSH0 SWAP1 SLOAD SWAP1 PUSH2 0x100 EXP SWAP1 DIV PUSH1 0xFF AND PUSH2 0x1F77 JUMPI PUSH1 0x40 MLOAD PUSH32 0x8C379A000000000000000000000000000000000000000000000000000000000 DUP2 MSTORE PUSH1 0x4 ADD PUSH2 0x1F6E SWAP1 PUSH2 0x51BD JUMP JUMPDEST PUSH1 0x40 MLOAD DUP1 SWAP2 SUB SWAP1 REVERT JUMPDEST CALLER PUSH20 0xFFFFFFFFFFFFFFFFFFFFFFFFFFFFFFFFFFFFFFFF AND PUSH1 0x8 PUSH0 DUP7 DUP2 MSTORE PUSH1 0x20 ADD SWAP1 DUP2 MSTORE PUSH1 0x20 ADD PUSH0 KECCAK256 PUSH1 0x4 ADD PUSH0 SWAP1 SLOAD SWAP1 PUSH2 0x100 EXP SWAP1 DIV PUSH20 0xFFFFFFFFFFFFFFFFFFFFFFFFFFFFFFFFFFFFFFFF AND PUSH20 0xFFFFFFFFFFFFFFFFFFFFFFFFFFFFFFFFFFFFFFFF AND EQ PUSH2 0x2018 JUMPI PUSH1 0x40 MLOAD PUSH32 0x8C379A000000000000000000000000000000000000000000000000000000000 DUP2 MSTORE PUSH1 0x4 ADD PUSH2 0x200F SWAP1 PUSH2 0x509F JUMP JUMPDEST PUSH1 0x40 MLOAD DUP1 SWAP2 SUB SWAP1 REVERT JUMPDEST DUP3 PUSH1 0x8 PUSH0 DUP7 DUP2 MSTORE PUSH1 0x20 ADD SWAP1 DUP2 MSTORE PUSH1 0x20 ADD PUSH0 KECCAK256 PUSH1 0x4 ADD PUSH0 PUSH2 0x100 EXP DUP2 SLOAD DUP2 PUSH20 0xFFFFFFFFFFFFFFFFFFFFFFFFFFFFFFFFFFFFFFFF MUL NOT AND SWAP1 DUP4 PUSH20 0xFFFFFFFFFFFFFFFFFFFFFFFFFFFFFFFFFFFFFFFF AND MUL OR SWAP1 SSTORE POP DUP2 DUP2 PUSH1 0x8 PUSH0 DUP8 DUP2 MSTORE PUSH1 0x20 ADD SWAP1 DUP2 MSTORE PUSH1 0x20 ADD PUSH0 KECCAK256 PUSH1 0x3 ADD SWAP2 DUP3 PUSH2 0x208D SWAP3 SWAP2 SWAP1 PUSH2 0x4E58 JUMP JUMPDEST POP PUSH32 0x49E75BCD87D6285773E5C15DB6C81BB4D20BD0F6498FABA00160E92B9C478654 DUP5 DUP5 PUSH1 0x40 MLOAD PUSH2 0x20BF SWAP3 SWAP2 SWAP1 PUSH2 0x50BD JUMP JUMPDEST PUSH1 0x40 MLOAD DUP1 SWAP2 SUB SWAP1 LOG1 POP POP POP POP JUMP JUMPDEST PUSH1 0x9 PUSH0 CALLER PUSH20 0xFFFFFFFFFFFFFFFFFFFFFFFFFFFFFFFFFFFFFFFF AND PUSH20 0xFFFFFFFFFFFFFFFFFFFFFFFFFFFFFFFFFFFFFFFF AND DUP2 MSTORE PUSH1 0x20 ADD SWAP1 DUP2 MSTORE PUSH1 0x20 ADD PUSH0 KECCAK256 PUSH0 SWAP1 SLOAD SWAP1 PUSH2 0x100 EXP SWAP1 DIV PUSH1 0xFF AND PUSH2 0x2156 JUMPI PUSH1 0x40 MLOAD PUSH32 0x8C379A000000000000000000000000000000000000000000000000000000000 DUP2 MSTORE PUSH1 0x4 ADD PUSH2 0x214D SWAP1 PUSH2 0x4DC8 JUMP JUMPDEST PUSH1 0x40 MLOAD DUP1 SWAP2 SUB SWAP1 REVERT JUMPDEST PUSH1 0xB PUSH0 DUP6 DUP2 MSTORE PUSH1 0x20 ADD SWAP1 DUP2 MSTORE PUSH1 0x20 ADD PUSH0 KECCAK256 PUSH1 0x1 ADD PUSH0 SWAP1 SLOAD SWAP1 PUSH2 0x100 EXP SWAP1 DIV PUSH1 0xFF AND PUSH2 0x21B6 JUMPI PUSH1 0x40 MLOAD PUSH32 0x8C379A000000000000000000000000000000000000000000000000000000000 DUP2 MSTORE PUSH1 0x4 ADD PUSH2 0x21AD SWAP1 PUSH2 0x4E30 JUMP JUMPDEST PUSH1 0x40 MLOAD DUP1 SWAP2 SUB SWAP1 REVERT JUMPDEST DUP3 PUSH1 0xB PUSH0 DUP7 DUP2 MSTORE PUSH1 0x20 ADD SWAP1 DUP2 MSTORE PUSH1 0x20 ADD PUSH0 KECCAK256 PUSH1 0x6 ADD PUSH0 PUSH2 0x100 EXP DUP2 SLOAD DUP2 PUSH20 0xFFFFFFFFFFFFFFFFFFFFFFFFFFFFFFFFFFFFFFFF MUL NOT AND SWAP1 DUP4 PUSH20 0xFFFFFFFFFFFFFFFFFFFFFFFFFFFFFFFFFFFFFFFF AND MUL OR SWAP1 SSTORE POP DUP2 DUP2 PUSH1 0xB PUSH0 DUP8 DUP2 MSTORE PUSH1 0x20 ADD SWAP1 DUP2 MSTORE PUSH1 0x20 ADD PUSH0 KECCAK256 PUSH1 0x5 ADD SWAP2 DUP3 PUSH2 0x222B SWAP3 SWAP2 SWAP1 PUSH2 0x4E58 JUMP JUMPDEST POP PUSH32 0xEBFA8F41A2A15E0E89718BD17A4F728BD822D73550222A896EA5D3CFE2331ECC DUP5 DUP5 PUSH1 0x40 MLOAD PUSH2 0x225D SWAP3 SWAP2 SWAP1 PUSH2 0x50BD JUMP JUMPDEST PUSH1 0x40 MLOAD DUP1 SWAP2 SUB SWAP1 LOG1 POP POP POP POP JUMP JUMPDEST PUSH0 PUSH0 PUSH0 CALLER PUSH20 0xFFFFFFFFFFFFFFFFFFFFFFFFFFFFFFFFFFFFFFFF AND PUSH20 0xFFFFFFFFFFFFFFFFFFFFFFFFFFFFFFFFFFFFFFFF AND DUP2 MSTORE PUSH1 0x20 ADD SWAP1 DUP2 MSTORE PUSH1 0x20 ADD PUSH0 KECCAK256 PUSH0 SWAP1 SLOAD SWAP1 PUSH2 0x100 EXP SWAP1 DIV PUSH1 0xFF AND PUSH2 0x22F4 JUMPI PUSH1 0x40 MLOAD PUSH32 0x8C379A000000000000000000000000000000000000000000000000000000000 DUP2 MSTORE PUSH1 0x4 ADD PUSH2 0x22EB SWAP1 PUSH2 0x49E4 JUMP JUMPDEST PUSH1 0x40 MLOAD DUP1 SWAP2 SUB SWAP1 REVERT JUMPDEST PUSH2 0x22FD DUP3 PUSH2 0x3EBA JUMP JUMPDEST SWAP1 POP SWAP2 SWAP1 POP JUMP JUMPDEST PUSH0 PUSH0 CALLER PUSH20 0xFFFFFFFFFFFFFFFFFFFFFFFFFFFFFFFFFFFFFFFF AND PUSH20 0xFFFFFFFFFFFFFFFFFFFFFFFFFFFFFFFFFFFFFFFF AND DUP2 MSTORE PUSH1 0x20 ADD SWAP1 DUP2 MSTORE PUSH1 0x20 ADD PUSH0 KECCAK256 PUSH0 SWAP1 SLOAD SWAP1 PUSH2 0x100 EXP SWAP1 DIV PUSH1 0xFF AND PUSH2 0x238C JUMPI PUSH1 0x40 MLOAD PUSH32 0x8C379A000000000000000000000000000000000000000000000000000000000 DUP2 MSTORE PUSH1 0x4 ADD PUSH2 0x2383 SWAP1 PUSH2 0x49E4 JUMP JUMPDEST PUSH1 0x40 MLOAD DUP1 SWAP2 SUB SWAP1 REVERT JUMPDEST PUSH1 0x4 PUSH0 DUP6 DUP2 MSTORE PUSH1 0x20 ADD SWAP1 DUP2 MSTORE PUSH1 0x20 ADD PUSH0 KECCAK256 PUSH0 SWAP1 SLOAD SWAP1 PUSH2 0x100 EXP SWAP1 DIV PUSH1 0xFF AND PUSH2 0x23E9 JUMPI PUSH1 0x40 MLOAD PUSH32 0x8C379A000000000000000000000000000000000000000000000000000000000 DUP2 MSTORE PUSH1 0x4 ADD PUSH2 0x23E0 SWAP1 PUSH2 0x5225 JUMP JUMPDEST PUSH1 0x40 MLOAD DUP1 SWAP2 SUB SWAP1 REVERT JUMPDEST CALLER PUSH20 0xFFFFFFFFFFFFFFFFFFFFFFFFFFFFFFFFFFFFFFFF AND PUSH1 0x2 PUSH0 DUP7 DUP2 MSTORE PUSH1 0x20 ADD SWAP1 DUP2 MSTORE PUSH1 0x20 ADD PUSH0 KECCAK256 PUSH1 0x5 ADD PUSH1 0x1 SWAP1 SLOAD SWAP1 PUSH2 0x100 EXP SWAP1 DIV PUSH20 0xFFFFFFFFFFFFFFFFFFFFFFFFFFFFFFFFFFFFFFFF AND PUSH20 0xFFFFFFFFFFFFFFFFFFFFFFFFFFFFFFFFFFFFFFFF AND EQ PUSH2 0x248B JUMPI PUSH1 0x40 MLOAD PUSH32 0x8C379A000000000000000000000000000000000000000000000000000000000 DUP2 MSTORE PUSH1 0x4 ADD PUSH2 0x2482 SWAP1 PUSH2 0x509F JUMP JUMPDEST PUSH1 0x40 MLOAD DUP1 SWAP2 SUB SWAP1 REVERT JUMPDEST DUP3 PUSH1 0x2 PUSH0 DUP7 DUP2 MSTORE PUSH1 0x20 ADD SWAP1 DUP2 MSTORE PUSH1 0x20 ADD PUSH0 KECCAK256 PUSH1 0x5 ADD PUSH1 0x1 PUSH2 0x100 EXP DUP2 SLOAD DUP2 PUSH20 0xFFFFFFFFFFFFFFFFFFFFFFFFFFFFFFFFFFFFFFFF MUL NOT AND SWAP1 DUP4 PUSH20 0xFFFFFFFFFFFFFFFFFFFFFFFFFFFFFFFFFFFFFFFF AND MUL OR SWAP1 SSTORE POP PUSH1 0x2 DUP1 PUSH0 DUP7 DUP2 MSTORE PUSH1 0x20 ADD SWAP1 DUP2 MSTORE PUSH1 0x20 ADD PUSH0 KECCAK256 PUSH1 0x5 ADD PUSH0 PUSH2 0x100 EXP DUP2 SLOAD DUP2 PUSH1 0xFF MUL NOT AND SWAP1 DUP4 PUSH1 0x6 DUP2 GT ISZERO PUSH2 0x2514 JUMPI PUSH2 0x2513 PUSH2 0x474C JUMP JUMPDEST JUMPDEST MUL OR SWAP1 SSTORE POP DUP2 DUP2 PUSH1 0x2 PUSH0 DUP8 DUP2 MSTORE PUSH1 0x20 ADD SWAP1 DUP2 MSTORE PUSH1 0x20 ADD PUSH0 KECCAK256 PUSH1 0x6 ADD SWAP2 DUP3 PUSH2 0x253C SWAP3 SWAP2 SWAP1 PUSH2 0x4E58 JUMP JUMPDEST POP PUSH32 0xDDD0A704FBE441F1FD23C0E39BFA7CDC43718CC3A6E329A80605132407F7B07A DUP5 DUP5 DUP5 DUP5 PUSH1 0x40 MLOAD PUSH2 0x2572 SWAP5 SWAP4 SWAP3 SWAP2 SWAP1 PUSH2 0x5243 JUMP JUMPDEST PUSH1 0x40 MLOAD DUP1 SWAP2 SUB SWAP1 LOG1 POP POP POP POP JUMP JUMPDEST PUSH1 0x11 PUSH1 0x20 MSTORE DUP1 PUSH0 MSTORE PUSH1 0x40 PUSH0 KECCAK256 PUSH0 SWAP2 POP SWAP1 POP DUP1 PUSH0 ADD SLOAD SWAP1 DUP1 PUSH1 0x1 ADD PUSH0 SWAP1 SLOAD SWAP1 PUSH2 0x100 EXP SWAP1 DIV PUSH1 0xFF AND SWAP1 DUP1 PUSH1 0x2 ADD DUP1 SLOAD PUSH2 0x25B7 SWAP1 PUSH2 0x496A JUMP JUMPDEST DUP1 PUSH1 0x1F ADD PUSH1 0x20 DUP1 SWAP2 DIV MUL PUSH1 0x20 ADD PUSH1 0x40 MLOAD SWAP1 DUP2 ADD PUSH1 0x40 MSTORE DUP1 SWAP3 SWAP2 SWAP1 DUP2 DUP2 MSTORE PUSH1 0x20 ADD DUP3 DUP1 SLOAD PUSH2 0x25E3 SWAP1 PUSH2 0x496A JUMP JUMPDEST DUP1 ISZERO PUSH2 0x262E JUMPI DUP1 PUSH1 0x1F LT PUSH2 0x2605 JUMPI PUSH2 0x100 DUP1 DUP4 SLOAD DIV MUL DUP4 MSTORE SWAP2 PUSH1 0x20 ADD SWAP2 PUSH2 0x262E JUMP JUMPDEST DUP3 ADD SWAP2 SWAP1 PUSH0 MSTORE PUSH1 0x20 PUSH0 KECCAK256 SWAP1 JUMPDEST DUP2 SLOAD DUP2 MSTORE SWAP1 PUSH1 0x1 ADD SWAP1 PUSH1 0x20 ADD DUP1 DUP4 GT PUSH2 0x2611 JUMPI DUP3 SWAP1 SUB PUSH1 0x1F AND DUP3 ADD SWAP2 JUMPDEST POP POP POP POP POP SWAP1 DUP1 PUSH1 0x3 ADD DUP1 SLOAD PUSH2 0x2643 SWAP1 PUSH2 0x496A JUMP JUMPDEST DUP1 PUSH1 0x1F ADD PUSH1 0x20 DUP1 SWAP2 DIV MUL PUSH1 0x20 ADD PUSH1 0x40 MLOAD SWAP1 DUP2 ADD PUSH1 0x40 MSTORE DUP1 SWAP3 SWAP2 SWAP1 DUP2 DUP2 MSTORE PUSH1 0x20 ADD DUP3 DUP1 SLOAD PUSH2 0x266F SWAP1 PUSH2 0x496A JUMP JUMPDEST DUP1 ISZERO PUSH2 0x26BA JUMPI DUP1 PUSH1 0x1F LT PUSH2 0x2691 JUMPI PUSH2 0x100 DUP1 DUP4 SLOAD DIV MUL DUP4 MSTORE SWAP2 PUSH1 0x20 ADD SWAP2 PUSH2 0x26BA JUMP JUMPDEST DUP3 ADD SWAP2 SWAP1 PUSH0 MSTORE PUSH1 0x20 PUSH0 KECCAK256 SWAP1 JUMPDEST DUP2 SLOAD DUP2 MSTORE SWAP1 PUSH1 0x1 ADD SWAP1 PUSH1 0x20 ADD DUP1 DUP4 GT PUSH2 0x269D JUMPI DUP3 SWAP1 SUB PUSH1 0x1F AND DUP3 ADD SWAP2 JUMPDEST POP POP POP POP POP SWAP1 DUP1 PUSH1 0x4 ADD PUSH0 SWAP1 SLOAD SWAP1 PUSH2 0x100 EXP SWAP1 DIV PUSH20 0xFFFFFFFFFFFFFFFFFFFFFFFFFFFFFFFFFFFFFFFF AND SWAP1 POP DUP6 JUMP JUMPDEST PUSH1 0xA PUSH1 0x20 MSTORE DUP1 PUSH0 MSTORE PUSH1 0x40 PUSH0 KECCAK256 PUSH0 SWAP2 POP SWAP1 POP DUP1 PUSH0 ADD DUP1 SLOAD PUSH2 0x2708 SWAP1 PUSH2 0x496A JUMP JUMPDEST DUP1 PUSH1 0x1F ADD PUSH1 0x20 DUP1 SWAP2 DIV MUL PUSH1 0x20 ADD PUSH1 0x40 MLOAD SWAP1 DUP2 ADD PUSH1 0x40 MSTORE DUP1 SWAP3 SWAP2 SWAP1 DUP2 DUP2 MSTORE PUSH1 0x20 ADD DUP3 DUP1 SLOAD PUSH2 0x2734 SWAP1 PUSH2 0x496A JUMP JUMPDEST DUP1 ISZERO PUSH2 0x277F JUMPI DUP1 PUSH1 0x1F LT PUSH2 0x2756 JUMPI PUSH2 0x100 DUP1 DUP4 SLOAD DIV MUL DUP4 MSTORE SWAP2 PUSH1 0x20 ADD SWAP2 PUSH2 0x277F JUMP JUMPDEST DUP3 ADD SWAP2 SWAP1 PUSH0 MSTORE PUSH1 0x20 PUSH0 KECCAK256 SWAP1 JUMPDEST DUP2 SLOAD DUP2 MSTORE SWAP1 PUSH1 0x1 ADD SWAP1 PUSH1 0x20 ADD DUP1 DUP4 GT PUSH2 0x2762 JUMPI DUP3 SWAP1 SUB PUSH1 0x1F AND DUP3 ADD SWAP2 JUMPDEST POP POP POP POP POP SWAP1 DUP1 PUSH1 0x1 ADD DUP1 SLOAD PUSH2 0x2794 SWAP1 PUSH2 0x496A JUMP JUMPDEST DUP1 PUSH1 0x1F ADD PUSH1 0x20 DUP1 SWAP2 DIV MUL PUSH1 0x20 ADD PUSH1 0x40 MLOAD SWAP1 DUP2 ADD PUSH1 0x40 MSTORE DUP1 SWAP3 SWAP2 SWAP1 DUP2 DUP2 MSTORE PUSH1 0x20 ADD DUP3 DUP1 SLOAD PUSH2 0x27C0 SWAP1 PUSH2 0x496A JUMP JUMPDEST DUP1 ISZERO PUSH2 0x280B JUMPI DUP1 PUSH1 0x1F LT PUSH2 0x27E2 JUMPI PUSH2 0x100 DUP1 DUP4 SLOAD DIV MUL DUP4 MSTORE SWAP2 PUSH1 0x20 ADD SWAP2 PUSH2 0x280B JUMP JUMPDEST DUP3 ADD SWAP2 SWAP1 PUSH0 MSTORE PUSH1 0x20 PUSH0 KECCAK256 SWAP1 JUMPDEST DUP2 SLOAD DUP2 MSTORE SWAP1 PUSH1 0x1 ADD SWAP1 PUSH1 0x20 ADD DUP1 DUP4 GT PUSH2 0x27EE JUMPI DUP3 SWAP1 SUB PUSH1 0x1F AND DUP3 ADD SWAP2 JUMPDEST POP POP POP POP POP SWAP1 DUP1 PUSH1 0x2 ADD DUP1 SLOAD PUSH2 0x2820 SWAP1 PUSH2 0x496A JUMP JUMPDEST DUP1 PUSH1 0x1F ADD PUSH1 0x20 DUP1 SWAP2 DIV MUL PUSH1 0x20 ADD PUSH1 0x40 MLOAD SWAP1 DUP2 ADD PUSH1 0x40 MSTORE DUP1 SWAP3 SWAP2 SWAP1 DUP2 DUP2 MSTORE PUSH1 0x20 ADD DUP3 DUP1 SLOAD PUSH2 0x284C SWAP1 PUSH2 0x496A JUMP JUMPDEST DUP1 ISZERO PUSH2 0x2897 JUMPI DUP1 PUSH1 0x1F LT PUSH2 0x286E JUMPI PUSH2 0x100 DUP1 DUP4 SLOAD DIV MUL DUP4 MSTORE SWAP2 PUSH1 0x20 ADD SWAP2 PUSH2 0x2897 JUMP JUMPDEST DUP3 ADD SWAP2 SWAP1 PUSH0 MSTORE PUSH1 0x20 PUSH0 KECCAK256 SWAP1 JUMPDEST DUP2 SLOAD DUP2 MSTORE SWAP1 PUSH1 0x1 ADD SWAP1 PUSH1 0x20 ADD DUP1 DUP4 GT PUSH2 0x287A JUMPI DUP3 SWAP1 SUB PUSH1 0x1F AND DUP3 ADD SWAP2 JUMPDEST POP POP POP POP POP SWAP1 POP DUP4 JUMP JUMPDEST PUSH1 0xE PUSH1 0x20 MSTORE DUP1 PUSH0 MSTORE PUSH1 0x40 PUSH0 KECCAK256 PUSH0 SWAP2 POP SWAP1 POP DUP1 PUSH0 ADD SLOAD SWAP1 DUP1 PUSH1 0x1 ADD SLOAD SWAP1 DUP1 PUSH1 0x2 ADD DUP1 SLOAD PUSH2 0x28CC SWAP1 PUSH2 0x496A JUMP JUMPDEST DUP1 PUSH1 0x1F ADD PUSH1 0x20 DUP1 SWAP2 DIV MUL PUSH1 0x20 ADD PUSH1 0x40 MLOAD SWAP1 DUP2 ADD PUSH1 0x40 MSTORE DUP1 SWAP3 SWAP2 SWAP1 DUP2 DUP2 MSTORE PUSH1 0x20 ADD DUP3 DUP1 SLOAD PUSH2 0x28F8 SWAP1 PUSH2 0x496A JUMP JUMPDEST DUP1 ISZERO PUSH2 0x2943 JUMPI DUP1 PUSH1 0x1F LT PUSH2 0x291A JUMPI PUSH2 0x100 DUP1 DUP4 SLOAD DIV MUL DUP4 MSTORE SWAP2 PUSH1 0x20 ADD SWAP2 PUSH2 0x2943 JUMP JUMPDEST DUP3 ADD SWAP2 SWAP1 PUSH0 MSTORE PUSH1 0x20 PUSH0 KECCAK256 SWAP1 JUMPDEST DUP2 SLOAD DUP2 MSTORE SWAP1 PUSH1 0x1 ADD SWAP1 PUSH1 0x20 ADD DUP1 DUP4 GT PUSH2 0x2926 JUMPI DUP3 SWAP1 SUB PUSH1 0x1F AND DUP3 ADD SWAP2 JUMPDEST POP POP POP POP POP SWAP1 DUP1 PUSH1 0x3 ADD DUP1 SLOAD PUSH2 0x2958 SWAP1 PUSH2 0x496A JUMP JUMPDEST DUP1 PUSH1 0x1F ADD PUSH1 0x20 DUP1 SWAP2 DIV MUL PUSH1 0x20 ADD PUSH1 0x40 MLOAD SWAP1 DUP2 ADD PUSH1 0x40 MSTORE DUP1 SWAP3 SWAP2 SWAP1 DUP2 DUP2 MSTORE PUSH1 0x20 ADD DUP3 DUP1 SLOAD PUSH2 0x2984 SWAP1 PUSH2 0x496A JUMP JUMPDEST DUP1 ISZERO PUSH2 0x29CF JUMPI DUP1 PUSH1 0x1F LT PUSH2 0x29A6 JUMPI PUSH2 0x100 DUP1 DUP4 SLOAD DIV MUL DUP4 MSTORE SWAP2 PUSH1 0x20 ADD SWAP2 PUSH2 0x29CF JUMP JUMPDEST DUP3 ADD SWAP2 SWAP1 PUSH0 MSTORE PUSH1 0x20 PUSH0 KECCAK256 SWAP1 JUMPDEST DUP2 SLOAD DUP2 MSTORE SWAP1 PUSH1 0x1 ADD SWAP1 PUSH1 0x20 ADD DUP1 DUP4 GT PUSH2 0x29B2 JUMPI DUP3 SWAP1 SUB PUSH1 0x1F AND DUP3 ADD SWAP2 JUMPDEST POP POP POP POP POP SWAP1 DUP1 PUSH1 0x4 ADD PUSH0 SWAP1 SLOAD SWAP1 PUSH2 0x100 EXP SWAP1 DIV PUSH20 0xFFFFFFFFFFFFFFFFFFFFFFFFFFFFFFFFFFFFFFFF AND SWAP1 POP DUP6 JUMP JUMPDEST PUSH1 0x12 PUSH0 SWAP1 SLOAD SWAP1 PUSH2 0x100 EXP SWAP1 DIV PUSH20 0xFFFFFFFFFFFFFFFFFFFFFFFFFFFFFFFFFFFFFFFF AND DUP2 JUMP JUMPDEST PUSH1 0x1 PUSH1 0x20 MSTORE DUP1 PUSH0 MSTORE PUSH1 0x40 PUSH0 KECCAK256 PUSH0 SWAP2 POP SWAP1 POP DUP1 PUSH0 ADD DUP1 SLOAD PUSH2 0x2A42 SWAP1 PUSH2 0x496A JUMP JUMPDEST DUP1 PUSH1 0x1F ADD PUSH1 0x20 DUP1 SWAP2 DIV MUL PUSH1 0x20 ADD PUSH1 0x40 MLOAD SWAP1 DUP2 ADD PUSH1 0x40 MSTORE DUP1 SWAP3 SWAP2 SWAP1 DUP2 DUP2 MSTORE PUSH1 0x20 ADD DUP3 DUP1 SLOAD PUSH2 0x2A6E SWAP1 PUSH2 0x496A JUMP JUMPDEST DUP1 ISZERO PUSH2 0x2AB9 JUMPI DUP1 PUSH1 0x1F LT PUSH2 0x2A90 JUMPI PUSH2 0x100 DUP1 DUP4 SLOAD DIV MUL DUP4 MSTORE SWAP2 PUSH1 0x20 ADD SWAP2 PUSH2 0x2AB9 JUMP JUMPDEST DUP3 ADD SWAP2 SWAP1 PUSH0 MSTORE PUSH1 0x20 PUSH0 KECCAK256 SWAP1 JUMPDEST DUP2 SLOAD DUP2 MSTORE SWAP1 PUSH1 0x1 ADD SWAP1 PUSH1 0x20 ADD DUP1 DUP4 GT PUSH2 0x2A9C JUMPI DUP3 SWAP1 SUB PUSH1 0x1F AND DUP3 ADD SWAP2 JUMPDEST POP POP POP POP POP SWAP1 DUP1 PUSH1 0x1 ADD DUP1 SLOAD PUSH2 0x2ACE SWAP1 PUSH2 0x496A JUMP JUMPDEST DUP1 PUSH1 0x1F ADD PUSH1 0x20 DUP1 SWAP2 DIV MUL PUSH1 0x20 ADD PUSH1 0x40 MLOAD SWAP1 DUP2 ADD PUSH1 0x40 MSTORE DUP1 SWAP3 SWAP2 SWAP1 DUP2 DUP2 MSTORE PUSH1 0x20 ADD DUP3 DUP1 SLOAD PUSH2 0x2AFA SWAP1 PUSH2 0x496A JUMP JUMPDEST DUP1 ISZERO PUSH2 0x2B45 JUMPI DUP1 PUSH1 0x1F LT PUSH2 0x2B1C JUMPI PUSH2 0x100 DUP1 DUP4 SLOAD DIV MUL DUP4 MSTORE SWAP2 PUSH1 0x20 ADD SWAP2 PUSH2 0x2B45 JUMP JUMPDEST DUP3 ADD SWAP2 SWAP1 PUSH0 MSTORE PUSH1 0x20 PUSH0 KECCAK256 SWAP1 JUMPDEST DUP2 SLOAD DUP2 MSTORE SWAP1 PUSH1 0x1 ADD SWAP1 PUSH1 0x20 ADD DUP1 DUP4 GT PUSH2 0x2B28 JUMPI DUP3 SWAP1 SUB PUSH1 0x1F AND DUP3 ADD SWAP2 JUMPDEST POP POP POP POP POP SWAP1 DUP1 PUSH1 0x2 ADD DUP1 SLOAD PUSH2 0x2B5A SWAP1 PUSH2 0x496A JUMP JUMPDEST DUP1 PUSH1 0x1F ADD PUSH1 0x20 DUP1 SWAP2 DIV MUL PUSH1 0x20 ADD PUSH1 0x40 MLOAD SWAP1 DUP2 ADD PUSH1 0x40 MSTORE DUP1 SWAP3 SWAP2 SWAP1 DUP2 DUP2 MSTORE PUSH1 0x20 ADD DUP3 DUP1 SLOAD PUSH2 0x2B86 SWAP1 PUSH2 0x496A JUMP JUMPDEST DUP1 ISZERO PUSH2 0x2BD1 JUMPI DUP1 PUSH1 0x1F LT PUSH2 0x2BA8 JUMPI PUSH2 0x100 DUP1 DUP4 SLOAD DIV MUL DUP4 MSTORE SWAP2 PUSH1 0x20 ADD SWAP2 PUSH2 0x2BD1 JUMP JUMPDEST DUP3 ADD SWAP2 SWAP1 PUSH0 MSTORE PUSH1 0x20 PUSH0 KECCAK256 SWAP1 JUMPDEST DUP2 SLOAD DUP2 MSTORE SWAP1 PUSH1 0x1 ADD SWAP1 PUSH1 0x20 ADD DUP1 DUP4 GT PUSH2 0x2BB4 JUMPI DUP3 SWAP1 SUB PUSH1 0x1F AND DUP3 ADD SWAP2 JUMPDEST POP POP POP POP POP SWAP1 POP DUP4 JUMP JUMPDEST PUSH1 0xC PUSH1 0x20 MSTORE DUP1 PUSH0 MSTORE PUSH1 0x40 PUSH0 KECCAK256 PUSH0 SWAP2 POP SLOAD SWAP1 PUSH2 0x100 EXP SWAP1 DIV PUSH1 0xFF AND DUP2 JUMP JUMPDEST PUSH1 0x6 PUSH0 CALLER PUSH20 0xFFFFFFFFFFFFFFFFFFFFFFFFFFFFFFFFFFFFFFFF AND PUSH20 0xFFFFFFFFFFFFFFFFFFFFFFFFFFFFFFFFFFFFFFFF AND DUP2 MSTORE PUSH1 0x20 ADD SWAP1 DUP2 MSTORE PUSH1 0x20 ADD PUSH0 KECCAK256 PUSH0 SWAP1 SLOAD SWAP1 PUSH2 0x100 EXP SWAP1 DIV PUSH1 0xFF AND ISZERO PUSH2 0x2C82 JUMPI PUSH1 0x40 MLOAD PUSH32 0x8C379A000000000000000000000000000000000000000000000000000000000 DUP2 MSTORE PUSH1 0x4 ADD PUSH2 0x2C79 SWAP1 PUSH2 0x4F9F JUMP JUMPDEST PUSH1 0x40 MLOAD DUP1 SWAP2 SUB SWAP1 REVERT JUMPDEST PUSH1 0x1 PUSH1 0x6 PUSH0 CALLER PUSH20 0xFFFFFFFFFFFFFFFFFFFFFFFFFFFFFFFFFFFFFFFF AND PUSH20 0xFFFFFFFFFFFFFFFFFFFFFFFFFFFFFFFFFFFFFFFF AND DUP2 MSTORE PUSH1 0x20 ADD SWAP1 DUP2 MSTORE PUSH1 0x20 ADD PUSH0 KECCAK256 PUSH0 PUSH2 0x100 EXP DUP2 SLOAD DUP2 PUSH1 0xFF MUL NOT AND SWAP1 DUP4 ISZERO ISZERO MUL OR SWAP1 SSTORE POP PUSH1 0x40 MLOAD DUP1 PUSH1 0x60 ADD PUSH1 0x40 MSTORE DUP1 DUP8 DUP8 DUP1 DUP1 PUSH1 0x1F ADD PUSH1 0x20 DUP1 SWAP2 DIV MUL PUSH1 0x20 ADD PUSH1 0x40 MLOAD SWAP1 DUP2 ADD PUSH1 0x40 MSTORE DUP1 SWAP4 SWAP3 SWAP2 SWAP1 DUP2 DUP2 MSTORE PUSH1 0x20 ADD DUP4 DUP4 DUP1 DUP3 DUP5 CALLDATACOPY PUSH0 DUP2 DUP5 ADD MSTORE PUSH1 0x1F NOT PUSH1 0x1F DUP3 ADD AND SWAP1 POP DUP1 DUP4 ADD SWAP3 POP POP POP POP POP POP POP DUP2 MSTORE PUSH1 0x20 ADD DUP6 DUP6 DUP1 DUP1 PUSH1 0x1F ADD PUSH1 0x20 DUP1 SWAP2 DIV MUL PUSH1 0x20 ADD PUSH1 0x40 MLOAD SWAP1 DUP2 ADD PUSH1 0x40 MSTORE DUP1 SWAP4 SWAP3 SWAP2 SWAP1 DUP2 DUP2 MSTORE PUSH1 0x20 ADD DUP4 DUP4 DUP1 DUP3 DUP5 CALLDATACOPY PUSH0 DUP2 DUP5 ADD MSTORE PUSH1 0x1F NOT PUSH1 0x1F DUP3 ADD AND SWAP1 POP DUP1 DUP4 ADD SWAP3 POP POP POP POP POP POP POP DUP2 MSTORE PUSH1 0x20 ADD DUP4 DUP4 DUP1 DUP1 PUSH1 0x1F ADD PUSH1 0x20 DUP1 SWAP2 DIV MUL PUSH1 0x20 ADD PUSH1 0x40 MLOAD SWAP1 DUP2 ADD PUSH1 0x40 MSTORE DUP1 SWAP4 SWAP3 SWAP2 SWAP1 DUP2 DUP2 MSTORE PUSH1 0x20 ADD DUP4 DUP4 DUP1 DUP3 DUP5 CALLDATACOPY PUSH0 DUP2 DUP5 ADD MSTORE PUSH1 0x1F NOT PUSH1 0x1F DUP3 ADD AND SWAP1 POP DUP1 DUP4 ADD SWAP3 POP POP POP POP POP POP POP DUP2 MSTORE POP PUSH1 0x7 PUSH0 CALLER PUSH20 0xFFFFFFFFFFFFFFFFFFFFFFFFFFFFFFFFFFFFFFFF AND PUSH20 0xFFFFFFFFFFFFFFFFFFFFFFFFFFFFFFFFFFFFFFFF AND DUP2 MSTORE PUSH1 0x20 ADD SWAP1 DUP2 MSTORE PUSH1 0x20 ADD PUSH0 KECCAK256 PUSH0 DUP3 ADD MLOAD DUP2 PUSH0 ADD SWAP1 DUP2 PUSH2 0x2E0B SWAP2 SWAP1 PUSH2 0x4C37 JUMP JUMPDEST POP PUSH1 0x20 DUP3 ADD MLOAD DUP2 PUSH1 0x1 ADD SWAP1 DUP2 PUSH2 0x2E21 SWAP2 SWAP1 PUSH2 0x4C37 JUMP JUMPDEST POP PUSH1 0x40 DUP3 ADD MLOAD DUP2 PUSH1 0x2 ADD SWAP1 DUP2 PUSH2 0x2E37 SWAP2 SWAP1 PUSH2 0x4C37 JUMP JUMPDEST POP SWAP1 POP POP PUSH32 0xD52881A6125270BC10EDC37221B17D746EF540E29867A40B76ED110EF520224C CALLER DUP8 DUP8 PUSH1 0x40 MLOAD PUSH2 0x2E6E SWAP4 SWAP3 SWAP2 SWAP1 PUSH2 0x4FBD JUMP JUMPDEST PUSH1 0x40 MLOAD DUP1 SWAP2 SUB SWAP1 LOG1 POP POP POP POP POP POP JUMP JUMPDEST PUSH1 0x13 PUSH1 0x20 MSTORE DUP1 PUSH0 MSTORE PUSH1 0x40 PUSH0 KECCAK256 PUSH0 SWAP2 POP SWAP1 POP DUP1 PUSH0 ADD SLOAD SWAP1 DUP1 PUSH1 0x1 ADD SLOAD SWAP1 DUP1 PUSH1 0x2 ADD SLOAD SWAP1 DUP1 PUSH1 0x3 ADD SLOAD SWAP1 POP DUP5 JUMP JUMPDEST PUSH1 0x2 PUSH1 0x20 MSTORE DUP1 PUSH0 MSTORE PUSH1 0x40 PUSH0 KECCAK256 PUSH0 SWAP2 POP SWAP1 POP DUP1 PUSH0 ADD SLOAD SWAP1 DUP1 PUSH1 0x1 ADD DUP1 SLOAD PUSH2 0x2ECF SWAP1 PUSH2 0x496A JUMP JUMPDEST DUP1 PUSH1 0x1F ADD PUSH1 0x20 DUP1 SWAP2 DIV MUL PUSH1 0x20 ADD PUSH1 0x40 MLOAD SWAP1 DUP2 ADD PUSH1 0x40 MSTORE DUP1 SWAP3 SWAP2 SWAP1 DUP2 DUP2 MSTORE PUSH1 0x20 ADD DUP3 DUP1 SLOAD PUSH2 0x2EFB SWAP1 PUSH2 0x496A JUMP JUMPDEST DUP1 ISZERO PUSH2 0x2F46 JUMPI DUP1 PUSH1 0x1F LT PUSH2 0x2F1D JUMPI PUSH2 0x100 DUP1 DUP4 SLOAD DIV MUL DUP4 MSTORE SWAP2 PUSH1 0x20 ADD SWAP2 PUSH2 0x2F46 JUMP JUMPDEST DUP3 ADD SWAP2 SWAP1 PUSH0 MSTORE PUSH1 0x20 PUSH0 KECCAK256 SWAP1 JUMPDEST DUP2 SLOAD DUP2 MSTORE SWAP1 PUSH1 0x1 ADD SWAP1 PUSH1 0x20 ADD DUP1 DUP4 GT PUSH2 0x2F29 JUMPI DUP3 SWAP1 SUB PUSH1 0x1F AND DUP3 ADD SWAP2 JUMPDEST POP POP POP POP POP SWAP1 DUP1 PUSH1 0x2 ADD DUP1 SLOAD PUSH2 0x2F5B SWAP1 PUSH2 0x496A JUMP JUMPDEST DUP1 PUSH1 0x1F ADD PUSH1 0x20 DUP1 SWAP2 DIV MUL PUSH1 0x20 ADD PUSH1 0x40 MLOAD SWAP1 DUP2 ADD PUSH1 0x40 MSTORE DUP1 SWAP3 SWAP2 SWAP1 DUP2 DUP2 MSTORE PUSH1 0x20 ADD DUP3 DUP1 SLOAD PUSH2 0x2F87 SWAP1 PUSH2 0x496A JUMP JUMPDEST DUP1 ISZERO PUSH2 0x2FD2 JUMPI DUP1 PUSH1 0x1F LT PUSH2 0x2FA9 JUMPI PUSH2 0x100 DUP1 DUP4 SLOAD DIV MUL DUP4 MSTORE SWAP2 PUSH1 0x20 ADD SWAP2 PUSH2 0x2FD2 JUMP JUMPDEST DUP3 ADD SWAP2 SWAP1 PUSH0 MSTORE PUSH1 0x20 PUSH0 KECCAK256 SWAP1 JUMPDEST DUP2 SLOAD DUP2 MSTORE SWAP1 PUSH1 0x1 ADD SWAP1 PUSH1 0x20 ADD DUP1 DUP4 GT PUSH2 0x2FB5 JUMPI DUP3 SWAP1 SUB PUSH1 0x1F AND DUP3 ADD SWAP2 JUMPDEST POP POP POP POP POP SWAP1 DUP1 PUSH1 0x3 ADD DUP1 SLOAD PUSH2 0x2FE7 SWAP1 PUSH2 0x496A JUMP JUMPDEST DUP1 PUSH1 0x1F ADD PUSH1 0x20 DUP1 SWAP2 DIV MUL PUSH1 0x20 ADD PUSH1 0x40 MLOAD SWAP1 DUP2 ADD PUSH1 0x40 MSTORE DUP1 SWAP3 SWAP2 SWAP1 DUP2 DUP2 MSTORE PUSH1 0x20 ADD DUP3 DUP1 SLOAD PUSH2 0x3013 SWAP1 PUSH2 0x496A JUMP JUMPDEST DUP1 ISZERO PUSH2 0x305E JUMPI DUP1 PUSH1 0x1F LT PUSH2 0x3035 JUMPI PUSH2 0x100 DUP1 DUP4 SLOAD DIV MUL DUP4 MSTORE SWAP2 PUSH1 0x20 ADD SWAP2 PUSH2 0x305E JUMP JUMPDEST DUP3 ADD SWAP2 SWAP1 PUSH0 MSTORE PUSH1 0x20 PUSH0 KECCAK256 SWAP1 JUMPDEST DUP2 SLOAD DUP2 MSTORE SWAP1 PUSH1 0x1 ADD SWAP1 PUSH1 0x20 ADD DUP1 DUP4 GT PUSH2 0x3041 JUMPI DUP3 SWAP1 SUB PUSH1 0x1F AND DUP3 ADD SWAP2 JUMPDEST POP POP POP POP POP SWAP1 DUP1 PUSH1 0x4 ADD SLOAD SWAP1 DUP1 PUSH1 0x5 ADD PUSH0 SWAP1 SLOAD SWAP1 PUSH2 0x100 EXP SWAP1 DIV PUSH1 0xFF AND SWAP1 DUP1 PUSH1 0x5 ADD PUSH1 0x1 SWAP1 SLOAD SWAP1 PUSH2 0x100 EXP SWAP1 DIV PUSH20 0xFFFFFFFFFFFFFFFFFFFFFFFFFFFFFFFFFFFFFFFF AND SWAP1 DUP1 PUSH1 0x6 ADD DUP1 SLOAD PUSH2 0x30B1 SWAP1 PUSH2 0x496A JUMP JUMPDEST DUP1 PUSH1 0x1F ADD PUSH1 0x20 DUP1 SWAP2 DIV MUL PUSH1 0x20 ADD PUSH1 0x40 MLOAD SWAP1 DUP2 ADD PUSH1 0x40 MSTORE DUP1 SWAP3 SWAP2 SWAP1 DUP2 DUP2 MSTORE PUSH1 0x20 ADD DUP3 DUP1 SLOAD PUSH2 0x30DD SWAP1 PUSH2 0x496A JUMP JUMPDEST DUP1 ISZERO PUSH2 0x3128 JUMPI DUP1 PUSH1 0x1F LT PUSH2 0x30FF JUMPI PUSH2 0x100 DUP1 DUP4 SLOAD DIV MUL DUP4 MSTORE SWAP2 PUSH1 0x20 ADD SWAP2 PUSH2 0x3128 JUMP JUMPDEST DUP3 ADD SWAP2 SWAP1 PUSH0 MSTORE PUSH1 0x20 PUSH0 KECCAK256 SWAP1 JUMPDEST DUP2 SLOAD DUP2 MSTORE SWAP1 PUSH1 0x1 ADD SWAP1 PUSH1 0x20 ADD DUP1 DUP4 GT PUSH2 0x310B JUMPI DUP3 SWAP1 SUB PUSH1 0x1F AND DUP3 ADD SWAP2 JUMPDEST POP POP POP POP POP SWAP1 POP DUP9 JUMP JUMPDEST PUSH1 0x6 PUSH0 CALLER PUSH20 0xFFFFFFFFFFFFFFFFFFFFFFFFFFFFFFFFFFFFFFFF AND PUSH20 0xFFFFFFFFFFFFFFFFFFFFFFFFFFFFFFFFFFFFFFFF AND DUP2 MSTORE PUSH1 0x20 ADD SWAP1 DUP2 MSTORE PUSH1 0x20 ADD PUSH0 KECCAK256 PUSH0 SWAP1 SLOAD SWAP1 PUSH2 0x100 EXP SWAP1 DIV PUSH1 0xFF AND PUSH2 0x31BB JUMPI PUSH1 0x40 MLOAD PUSH32 0x8C379A000000000000000000000000000000000000000000000000000000000 DUP2 MSTORE PUSH1 0x4 ADD PUSH2 0x31B2 SWAP1 PUSH2 0x51BD JUMP JUMPDEST PUSH1 0x40 MLOAD DUP1 SWAP2 SUB SWAP1 REVERT JUMPDEST PUSH1 0x40 MLOAD DUP1 PUSH1 0xA0 ADD PUSH1 0x40 MSTORE DUP1 DUP6 DUP2 MSTORE PUSH1 0x20 ADD DUP5 DUP2 MSTORE PUSH1 0x20 ADD DUP4 DUP4 DUP1 DUP1 PUSH1 0x1F ADD PUSH1 0x20 DUP1 SWAP2 DIV MUL PUSH1 0x20 ADD PUSH1 0x40 MLOAD SWAP1 DUP2 ADD PUSH1 0x40 MSTORE DUP1 SWAP4 SWAP3 SWAP2 SWAP1 DUP2 DUP2 MSTORE PUSH1 0x20 ADD DUP4 DUP4 DUP1 DUP3 DUP5 CALLDATACOPY PUSH0 DUP2 DUP5 ADD MSTORE PUSH1 0x1F NOT PUSH1 0x1F DUP3 ADD AND SWAP1 POP DUP1 DUP4 ADD SWAP3 POP POP POP POP POP POP POP DUP2 MSTORE PUSH1 0x20 ADD PUSH1 0x40 MLOAD DUP1 PUSH1 0x20 ADD PUSH1 0x40 MSTORE DUP1 PUSH0 DUP2 MSTORE POP DUP2 MSTORE PUSH1 0x20 ADD CALLER PUSH20 0xFFFFFFFFFFFFFFFFFFFFFFFFFFFFFFFFFFFFFFFF AND DUP2 MSTORE POP PUSH1 0x8 PUSH0 DUP7 DUP2 MSTORE PUSH1 0x20 ADD SWAP1 DUP2 MSTORE PUSH1 0x20 ADD PUSH0 KECCAK256 PUSH0 DUP3 ADD MLOAD DUP2 PUSH0 ADD SSTORE PUSH1 0x20 DUP3 ADD MLOAD DUP2 PUSH1 0x1 ADD SSTORE PUSH1 0x40 DUP3 ADD MLOAD DUP2 PUSH1 0x2 ADD SWAP1 DUP2 PUSH2 0x3281 SWAP2 SWAP1 PUSH2 0x4C37 JUMP JUMPDEST POP PUSH1 0x60 DUP3 ADD MLOAD DUP2 PUSH1 0x3 ADD SWAP1 DUP2 PUSH2 0x3297 SWAP2 SWAP1 PUSH2 0x4C37 JUMP JUMPDEST POP PUSH1 0x80 DUP3 ADD MLOAD DUP2 PUSH1 0x4 ADD PUSH0 PUSH2 0x100 EXP DUP2 SLOAD DUP2 PUSH20 0xFFFFFFFFFFFFFFFFFFFFFFFFFFFFFFFFFFFFFFFF MUL NOT AND SWAP1 DUP4 PUSH20 0xFFFFFFFFFFFFFFFFFFFFFFFFFFFFFFFFFFFFFFFF AND MUL OR SWAP1 SSTORE POP SWAP1 POP POP PUSH32 0xC84B2E7A91CBBF0711AC91FD9090853F03A14F7BEF43DF0EB49E6B32D36FE0AC DUP5 CALLER PUSH1 0x40 MLOAD PUSH2 0x3312 SWAP3 SWAP2 SWAP1 PUSH2 0x50BD JUMP JUMPDEST PUSH1 0x40 MLOAD DUP1 SWAP2 SUB SWAP1 LOG1 POP POP POP POP JUMP JUMPDEST PUSH1 0xB PUSH1 0x20 MSTORE DUP1 PUSH0 MSTORE PUSH1 0x40 PUSH0 KECCAK256 PUSH0 SWAP2 POP SWAP1 POP DUP1 PUSH0 ADD SLOAD SWAP1 DUP1 PUSH1 0x1 ADD PUSH0 SWAP1 SLOAD SWAP1 PUSH2 0x100 EXP SWAP1 DIV PUSH1 0xFF AND SWAP1 DUP1 PUSH1 0x2 ADD DUP1 SLOAD PUSH2 0x3357 SWAP1 PUSH2 0x496A JUMP JUMPDEST DUP1 PUSH1 0x1F ADD PUSH1 0x20 DUP1 SWAP2 DIV MUL PUSH1 0x20 ADD PUSH1 0x40 MLOAD SWAP1 DUP2 ADD PUSH1 0x40 MSTORE DUP1 SWAP3 SWAP2 SWAP1 DUP2 DUP2 MSTORE PUSH1 0x20 ADD DUP3 DUP1 SLOAD PUSH2 0x3383 SWAP1 PUSH2 0x496A JUMP JUMPDEST DUP1 ISZERO PUSH2 0x33CE JUMPI DUP1 PUSH1 0x1F LT PUSH2 0x33A5 JUMPI PUSH2 0x100 DUP1 DUP4 SLOAD DIV MUL DUP4 MSTORE SWAP2 PUSH1 0x20 ADD SWAP2 PUSH2 0x33CE JUMP JUMPDEST DUP3 ADD SWAP2 SWAP1 PUSH0 MSTORE PUSH1 0x20 PUSH0 KECCAK256 SWAP1 JUMPDEST DUP2 SLOAD DUP2 MSTORE SWAP1 PUSH1 0x1 ADD SWAP1 PUSH1 0x20 ADD DUP1 DUP4 GT PUSH2 0x33B1 JUMPI DUP3 SWAP1 SUB PUSH1 0x1F AND DUP3 ADD SWAP2 JUMPDEST POP POP POP POP POP SWAP1 DUP1 PUSH1 0x3 ADD PUSH0 SWAP1 SLOAD SWAP1 PUSH2 0x100 EXP SWAP1 DIV PUSH1 0xFF AND SWAP1 DUP1 PUSH1 0x4 ADD DUP1 SLOAD PUSH2 0x33F5 SWAP1 PUSH2 0x496A JUMP JUMPDEST DUP1 PUSH1 0x1F ADD PUSH1 0x20 DUP1 SWAP2 DIV MUL PUSH1 0x20 ADD PUSH1 0x40 MLOAD SWAP1 DUP2 ADD PUSH1 0x40 MSTORE DUP1 SWAP3 SWAP2 SWAP1 DUP2 DUP2 MSTORE PUSH1 0x20 ADD DUP3 DUP1 SLOAD PUSH2 0x3421 SWAP1 PUSH2 0x496A JUMP JUMPDEST DUP1 ISZERO PUSH2 0x346C JUMPI DUP1 PUSH1 0x1F LT PUSH2 0x3443 JUMPI PUSH2 0x100 DUP1 DUP4 SLOAD DIV MUL DUP4 MSTORE SWAP2 PUSH1 0x20 ADD SWAP2 PUSH2 0x346C JUMP JUMPDEST DUP3 ADD SWAP2 SWAP1 PUSH0 MSTORE PUSH1 0x20 PUSH0 KECCAK256 SWAP1 JUMPDEST DUP2 SLOAD DUP2 MSTORE SWAP1 PUSH1 0x1 ADD SWAP1 PUSH1 0x20 ADD DUP1 DUP4 GT PUSH2 0x344F JUMPI DUP3 SWAP1 SUB PUSH1 0x1F AND DUP3 ADD SWAP2 JUMPDEST POP POP POP POP POP SWAP1 DUP1 PUSH1 0x5 ADD DUP1 SLOAD PUSH2 0x3481 SWAP1 PUSH2 0x496A JUMP JUMPDEST DUP1 PUSH1 0x1F ADD PUSH1 0x20 DUP1 SWAP2 DIV MUL PUSH1 0x20 ADD PUSH1 0x40 MLOAD SWAP1 DUP2 ADD PUSH1 0x40 MSTORE DUP1 SWAP3 SWAP2 SWAP1 DUP2 DUP2 MSTORE PUSH1 0x20 ADD DUP3 DUP1 SLOAD PUSH2 0x34AD SWAP1 PUSH2 0x496A JUMP JUMPDEST DUP1 ISZERO PUSH2 0x34F8 JUMPI DUP1 PUSH1 0x1F LT PUSH2 0x34CF JUMPI PUSH2 0x100 DUP1 DUP4 SLOAD DIV MUL DUP4 MSTORE SWAP2 PUSH1 0x20 ADD SWAP2 PUSH2 0x34F8 JUMP JUMPDEST DUP3 ADD SWAP2 SWAP1 PUSH0 MSTORE PUSH1 0x20 PUSH0 KECCAK256 SWAP1 JUMPDEST DUP2 SLOAD DUP2 MSTORE SWAP1 PUSH1 0x1 ADD SWAP1 PUSH1 0x20 ADD DUP1 DUP4 GT PUSH2 0x34DB JUMPI DUP3 SWAP1 SUB PUSH1 0x1F AND DUP3 ADD SWAP2 JUMPDEST POP POP POP POP POP SWAP1 DUP1 PUSH1 0x6 ADD PUSH0 SWAP1 SLOAD SWAP1 PUSH2 0x100 EXP SWAP1 DIV PUSH20 0xFFFFFFFFFFFFFFFFFFFFFFFFFFFFFFFFFFFFFFFF AND SWAP1 POP DUP8 JUMP JUMPDEST PUSH1 0x9 PUSH0 CALLER PUSH20 0xFFFFFFFFFFFFFFFFFFFFFFFFFFFFFFFFFFFFFFFF AND PUSH20 0xFFFFFFFFFFFFFFFFFFFFFFFFFFFFFFFFFFFFFFFF AND DUP2 MSTORE PUSH1 0x20 ADD SWAP1 DUP2 MSTORE PUSH1 0x20 ADD PUSH0 KECCAK256 PUSH0 SWAP1 SLOAD SWAP1 PUSH2 0x100 EXP SWAP1 DIV PUSH1 0xFF AND PUSH2 0x35B0 JUMPI PUSH1 0x40 MLOAD PUSH32 0x8C379A000000000000000000000000000000000000000000000000000000000 DUP2 MSTORE PUSH1 0x4 ADD PUSH2 0x35A7 SWAP1 PUSH2 0x4DC8 JUMP JUMPDEST PUSH1 0x40 MLOAD DUP1 SWAP2 SUB SWAP1 REVERT JUMPDEST PUSH1 0x40 MLOAD DUP1 PUSH1 0xE0 ADD PUSH1 0x40 MSTORE DUP1 DUP5 DUP2 MSTORE PUSH1 0x20 ADD PUSH1 0x1 ISZERO ISZERO DUP2 MSTORE PUSH1 0x20 ADD DUP4 DUP4 DUP1 DUP1 PUSH1 0x1F ADD PUSH1 0x20 DUP1 SWAP2 DIV MUL PUSH1 0x20 ADD PUSH1 0x40 MLOAD SWAP1 DUP2 ADD PUSH1 0x40 MSTORE DUP1 SWAP4 SWAP3 SWAP2 SWAP1 DUP2 DUP2 MSTORE PUSH1 0x20 ADD DUP4 DUP4 DUP1 DUP3 DUP5 CALLDATACOPY PUSH0 DUP2 DUP5 ADD MSTORE PUSH1 0x1F NOT PUSH1 0x1F DUP3 ADD AND SWAP1 POP DUP1 DUP4 ADD SWAP3 POP POP POP POP POP POP POP DUP2 MSTORE PUSH1 0x20 ADD PUSH0 ISZERO ISZERO DUP2 MSTORE PUSH1 0x20 ADD PUSH1 0x40 MLOAD DUP1 PUSH1 0x20 ADD PUSH1 0x40 MSTORE DUP1 PUSH0 DUP2 MSTORE POP DUP2 MSTORE PUSH1 0x20 ADD PUSH1 0x40 MLOAD DUP1 PUSH1 0x20 ADD PUSH1 0x40 MSTORE DUP1 PUSH0 DUP2 MSTORE POP DUP2 MSTORE PUSH1 0x20 ADD CALLER PUSH20 0xFFFFFFFFFFFFFFFFFFFFFFFFFFFFFFFFFFFFFFFF AND DUP2 MSTORE POP PUSH1 0xB PUSH0 DUP6 DUP2 MSTORE PUSH1 0x20 ADD SWAP1 DUP2 MSTORE PUSH1 0x20 ADD PUSH0 KECCAK256 PUSH0 DUP3 ADD MLOAD DUP2 PUSH0 ADD SSTORE PUSH1 0x20 DUP3 ADD MLOAD DUP2 PUSH1 0x1 ADD PUSH0 PUSH2 0x100 EXP DUP2 SLOAD DUP2 PUSH1 0xFF MUL NOT AND SWAP1 DUP4 ISZERO ISZERO MUL OR SWAP1 SSTORE POP PUSH1 0x40 DUP3 ADD MLOAD DUP2 PUSH1 0x2 ADD SWAP1 DUP2 PUSH2 0x36AA SWAP2 SWAP1 PUSH2 0x4C37 JUMP JUMPDEST POP PUSH1 0x60 DUP3 ADD MLOAD DUP2 PUSH1 0x3 ADD PUSH0 PUSH2 0x100 EXP DUP2 SLOAD DUP2 PUSH1 0xFF MUL NOT AND SWAP1 DUP4 ISZERO ISZERO MUL OR SWAP1 SSTORE POP PUSH1 0x80 DUP3 ADD MLOAD DUP2 PUSH1 0x4 ADD SWAP1 DUP2 PUSH2 0x36DF SWAP2 SWAP1 PUSH2 0x4C37 JUMP JUMPDEST POP PUSH1 0xA0 DUP3 ADD MLOAD DUP2 PUSH1 0x5 ADD SWAP1 DUP2 PUSH2 0x36F5 SWAP2 SWAP1 PUSH2 0x4C37 JUMP JUMPDEST POP PUSH1 0xC0 DUP3 ADD MLOAD DUP2 PUSH1 0x6 ADD PUSH0 PUSH2 0x100 EXP DUP2 SLOAD DUP2 PUSH20 0xFFFFFFFFFFFFFFFFFFFFFFFFFFFFFFFFFFFFFFFF MUL NOT AND SWAP1 DUP4 PUSH20 0xFFFFFFFFFFFFFFFFFFFFFFFFFFFFFFFFFFFFFFFF AND MUL OR SWAP1 SSTORE POP SWAP1 POP POP PUSH32 0x3DA11207ACEF64A8EF6A06E530A71956F123355B74D421E1883E3D3CE94C92C1 DUP4 CALLER PUSH1 0x40 MLOAD PUSH2 0x3770 SWAP3 SWAP2 SWAP1 PUSH2 0x50BD JUMP JUMPDEST PUSH1 0x40 MLOAD DUP1 SWAP2 SUB SWAP1 LOG1 POP POP POP JUMP JUMPDEST PUSH0 PUSH1 0x40 MLOAD DUP1 PUSH1 0x80 ADD PUSH1 0x40 MSTORE DUP1 DUP6 DUP2 MSTORE PUSH1 0x20 ADD DUP5 DUP2 MSTORE PUSH1 0x20 ADD DUP4 DUP2 MSTORE PUSH1 0x20 ADD TIMESTAMP DUP2 MSTORE POP PUSH1 0x13 PUSH0 DUP8 DUP2 MSTORE PUSH1 0x20 ADD SWAP1 DUP2 MSTORE PUSH1 0x20 ADD PUSH0 KECCAK256 PUSH0 DUP3 ADD MLOAD DUP2 PUSH0 ADD SSTORE PUSH1 0x20 DUP3 ADD MLOAD DUP2 PUSH1 0x1 ADD SSTORE PUSH1 0x40 DUP3 ADD MLOAD DUP2 PUSH1 0x2 ADD SSTORE PUSH1 0x60 DUP3 ADD MLOAD DUP2 PUSH1 0x3 ADD SSTORE SWAP1 POP POP DUP5 PUSH31 0x7CE2A33116D3CE50A5ABAFE23CF84FC634FA2EC50E9632CF280E3B7D770DA4 DUP6 DUP6 DUP6 TIMESTAMP PUSH1 0x40 MLOAD PUSH2 0x380E SWAP5 SWAP4 SWAP3 SWAP2 SWAP1 PUSH2 0x4709 JUMP JUMPDEST PUSH1 0x40 MLOAD DUP1 SWAP2 SUB SWAP1 LOG2 PUSH1 0x1 SWAP1 POP SWAP5 SWAP4 POP POP POP POP JUMP JUMPDEST PUSH1 0x5 SLOAD DUP2 JUMP JUMPDEST PUSH1 0x9 PUSH0 CALLER PUSH20 0xFFFFFFFFFFFFFFFFFFFFFFFFFFFFFFFFFFFFFFFF AND PUSH20 0xFFFFFFFFFFFFFFFFFFFFFFFFFFFFFFFFFFFFFFFF AND DUP2 MSTORE PUSH1 0x20 ADD SWAP1 DUP2 MSTORE PUSH1 0x20 ADD PUSH0 KECCAK256 PUSH0 SWAP1 SLOAD SWAP1 PUSH2 0x100 EXP SWAP1 DIV PUSH1 0xFF AND ISZERO PUSH2 0x38B2 JUMPI PUSH1 0x40 MLOAD PUSH32 0x8C379A000000000000000000000000000000000000000000000000000000000 DUP2 MSTORE PUSH1 0x4 ADD PUSH2 0x38A9 SWAP1 PUSH2 0x4F9F JUMP JUMPDEST PUSH1 0x40 MLOAD DUP1 SWAP2 SUB SWAP1 REVERT JUMPDEST PUSH1 0x1 PUSH1 0x9 PUSH0 CALLER PUSH20 0xFFFFFFFFFFFFFFFFFFFFFFFFFFFFFFFFFFFFFFFF AND PUSH20 0xFFFFFFFFFFFFFFFFFFFFFFFFFFFFFFFFFFFFFFFF AND DUP2 MSTORE PUSH1 0x20 ADD SWAP1 DUP2 MSTORE PUSH1 0x20 ADD PUSH0 KECCAK256 PUSH0 PUSH2 0x100 EXP DUP2 SLOAD DUP2 PUSH1 0xFF MUL NOT AND SWAP1 DUP4 ISZERO ISZERO MUL OR SWAP1 SSTORE POP PUSH1 0x40 MLOAD DUP1 PUSH1 0x60 ADD PUSH1 0x40 MSTORE DUP1 DUP8 DUP8 DUP1 DUP1 PUSH1 0x1F ADD PUSH1 0x20 DUP1 SWAP2 DIV MUL PUSH1 0x20 ADD PUSH1 0x40 MLOAD SWAP1 DUP2 ADD PUSH1 0x40 MSTORE DUP1 SWAP4 SWAP3 SWAP2 SWAP1 DUP2 DUP2 MSTORE PUSH1 0x20 ADD DUP4 DUP4 DUP1 DUP3 DUP5 CALLDATACOPY PUSH0 DUP2 DUP5 ADD MSTORE PUSH1 0x1F NOT PUSH1 0x1F DUP3 ADD AND SWAP1 POP DUP1 DUP4 ADD SWAP3 POP POP POP POP POP POP POP DUP2 MSTORE PUSH1 0x20 ADD DUP6 DUP6 DUP1 DUP1 PUSH1 0x1F ADD PUSH1 0x20 DUP1 SWAP2 DIV MUL PUSH1 0x20 ADD PUSH1 0x40 MLOAD SWAP1 DUP2 ADD PUSH1 0x40 MSTORE DUP1 SWAP4 SWAP3 SWAP2 SWAP1 DUP2 DUP2 MSTORE PUSH1 0x20 ADD DUP4 DUP4 DUP1 DUP3 DUP5 CALLDATACOPY PUSH0 DUP2 DUP5 ADD MSTORE PUSH1 0x1F NOT PUSH1 0x1F DUP3 ADD AND SWAP1 POP DUP1 DUP4 ADD SWAP3 POP POP POP POP POP POP POP DUP2 MSTORE PUSH1 0x20 ADD DUP4 DUP4 DUP1 DUP1 PUSH1 0x1F ADD PUSH1 0x20 DUP1 SWAP2 DIV MUL PUSH1 0x20 ADD PUSH1 0x40 MLOAD SWAP1 DUP2 ADD PUSH1 0x40 MSTORE DUP1 SWAP4 SWAP3 SWAP2 SWAP1 DUP2 DUP2 MSTORE PUSH1 0x20 ADD DUP4 DUP4 DUP1 DUP3 DUP5 CALLDATACOPY PUSH0 DUP2 DUP5 ADD MSTORE PUSH1 0x1F NOT PUSH1 0x1F DUP3 ADD AND SWAP1 POP DUP1 DUP4 ADD SWAP3 POP POP POP POP POP POP POP DUP2 MSTORE POP PUSH1 0xA PUSH0 CALLER PUSH20 0xFFFFFFFFFFFFFFFFFFFFFFFFFFFFFFFFFFFFFFFF AND PUSH20 0xFFFFFFFFFFFFFFFFFFFFFFFFFFFFFFFFFFFFFFFF AND DUP2 MSTORE PUSH1 0x20 ADD SWAP1 DUP2 MSTORE PUSH1 0x20 ADD PUSH0 KECCAK256 PUSH0 DUP3 ADD MLOAD DUP2 PUSH0 ADD SWAP1 DUP2 PUSH2 0x3A3B SWAP2 SWAP1 PUSH2 0x4C37 JUMP JUMPDEST POP PUSH1 0x20 DUP3 ADD MLOAD DUP2 PUSH1 0x1 ADD SWAP1 DUP2 PUSH2 0x3A51 SWAP2 SWAP1 PUSH2 0x4C37 JUMP JUMPDEST POP PUSH1 0x40 DUP3 ADD MLOAD DUP2 PUSH1 0x2 ADD SWAP1 DUP2 PUSH2 0x3A67 SWAP2 SWAP1 PUSH2 0x4C37 JUMP JUMPDEST POP SWAP1 POP POP PUSH31 0xF326CFEEE4A98CDAA20D4B3EA99E1D7BA56E0BC16159F422E5EF8A57FCEB26 CALLER DUP8 DUP8 PUSH1 0x40 MLOAD PUSH2 0x3A9D SWAP4 SWAP3 SWAP2 SWAP1 PUSH2 0x4FBD JUMP JUMPDEST PUSH1 0x40 MLOAD DUP1 SWAP2 SUB SWAP1 LOG1 POP POP POP POP POP POP JUMP JUMPDEST PUSH1 0x15 PUSH1 0x20 MSTORE DUP1 PUSH0 MSTORE PUSH1 0x40 PUSH0 KECCAK256 PUSH0 SWAP2 POP SWAP1 POP SLOAD DUP2 JUMP JUMPDEST PUSH1 0x3 PUSH1 0x20 MSTORE DUP1 PUSH0 MSTORE PUSH1 0x40 PUSH0 KECCAK256 PUSH0 SWAP2 POP SWAP1 POP SLOAD DUP2 JUMP JUMPDEST PUSH1 0x8 PUSH1 0x20 MSTORE DUP1 PUSH0 MSTORE PUSH1 0x40 PUSH0 KECCAK256 PUSH0 SWAP2 POP SWAP1 POP DUP1 PUSH0 ADD SLOAD SWAP1 DUP1 PUSH1 0x1 ADD SLOAD SWAP1 DUP1 PUSH1 0x2 ADD DUP1 SLOAD PUSH2 0x3B02 SWAP1 PUSH2 0x496A JUMP JUMPDEST DUP1 PUSH1 0x1F ADD PUSH1 0x20 DUP1 SWAP2 DIV MUL PUSH1 0x20 ADD PUSH1 0x40 MLOAD SWAP1 DUP2 ADD PUSH1 0x40 MSTORE DUP1 SWAP3 SWAP2 SWAP1 DUP2 DUP2 MSTORE PUSH1 0x20 ADD DUP3 DUP1 SLOAD PUSH2 0x3B2E SWAP1 PUSH2 0x496A JUMP JUMPDEST DUP1 ISZERO PUSH2 0x3B79 JUMPI DUP1 PUSH1 0x1F LT PUSH2 0x3B50 JUMPI PUSH2 0x100 DUP1 DUP4 SLOAD DIV MUL DUP4 MSTORE SWAP2 PUSH1 0x20 ADD SWAP2 PUSH2 0x3B79 JUMP JUMPDEST DUP3 ADD SWAP2 SWAP1 PUSH0 MSTORE PUSH1 0x20 PUSH0 KECCAK256 SWAP1 JUMPDEST DUP2 SLOAD DUP2 MSTORE SWAP1 PUSH1 0x1 ADD SWAP1 PUSH1 0x20 ADD DUP1 DUP4 GT PUSH2 0x3B5C JUMPI DUP3 SWAP1 SUB PUSH1 0x1F AND DUP3 ADD SWAP2 JUMPDEST POP POP POP POP POP SWAP1 DUP1 PUSH1 0x3 ADD DUP1 SLOAD PUSH2 0x3B8E SWAP1 PUSH2 0x496A JUMP JUMPDEST DUP1 PUSH1 0x1F ADD PUSH1 0x20 DUP1 SWAP2 DIV MUL PUSH1 0x20 ADD PUSH1 0x40 MLOAD SWAP1 DUP2 ADD PUSH1 0x40 MSTORE DUP1 SWAP3 SWAP2 SWAP1 DUP2 DUP2 MSTORE PUSH1 0x20 ADD DUP3 DUP1 SLOAD PUSH2 0x3BBA SWAP1 PUSH2 0x496A JUMP JUMPDEST DUP1 ISZERO PUSH2 0x3C05 JUMPI DUP1 PUSH1 0x1F LT PUSH2 0x3BDC JUMPI PUSH2 0x100 DUP1 DUP4 SLOAD DIV MUL DUP4 MSTORE SWAP2 PUSH1 0x20 ADD SWAP2 PUSH2 0x3C05 JUMP JUMPDEST DUP3 ADD SWAP2 SWAP1 PUSH0 MSTORE PUSH1 0x20 PUSH0 KECCAK256 SWAP1 JUMPDEST DUP2 SLOAD DUP2 MSTORE SWAP1 PUSH1 0x1 ADD SWAP1 PUSH1 0x20 ADD DUP1 DUP4 GT PUSH2 0x3BE8 JUMPI DUP3 SWAP1 SUB PUSH1 0x1F AND DUP3 ADD SWAP2 JUMPDEST POP POP POP POP POP SWAP1 DUP1 PUSH1 0x4 ADD PUSH0 SWAP1 SLOAD SWAP1 PUSH2 0x100 EXP SWAP1 DIV PUSH20 0xFFFFFFFFFFFFFFFFFFFFFFFFFFFFFFFFFFFFFFFF AND SWAP1 POP DUP6 JUMP JUMPDEST PUSH1 0xF PUSH0 CALLER PUSH20 0xFFFFFFFFFFFFFFFFFFFFFFFFFFFFFFFFFFFFFFFF AND PUSH20 0xFFFFFFFFFFFFFFFFFFFFFFFFFFFFFFFFFFFFFFFF AND DUP2 MSTORE PUSH1 0x20 ADD SWAP1 DUP2 MSTORE PUSH1 0x20 ADD PUSH0 KECCAK256 PUSH0 SWAP1 SLOAD SWAP1 PUSH2 0x100 EXP SWAP1 DIV PUSH1 0xFF AND ISZERO PUSH2 0x3CBE JUMPI PUSH1 0x40 MLOAD PUSH32 0x8C379A000000000000000000000000000000000000000000000000000000000 DUP2 MSTORE PUSH1 0x4 ADD PUSH2 0x3CB5 SWAP1 PUSH2 0x4F9F JUMP JUMPDEST PUSH1 0x40 MLOAD DUP1 SWAP2 SUB SWAP1 REVERT JUMPDEST PUSH1 0x1 PUSH1 0xF PUSH0 CALLER PUSH20 0xFFFFFFFFFFFFFFFFFFFFFFFFFFFFFFFFFFFFFFFF AND PUSH20 0xFFFFFFFFFFFFFFFFFFFFFFFFFFFFFFFFFFFFFFFF AND DUP2 MSTORE PUSH1 0x20 ADD SWAP1 DUP2 MSTORE PUSH1 0x20 ADD PUSH0 KECCAK256 PUSH0 PUSH2 0x100 EXP DUP2 SLOAD DUP2 PUSH1 0xFF MUL NOT AND SWAP1 DUP4 ISZERO ISZERO MUL OR SWAP1 SSTORE POP PUSH1 0x40 MLOAD DUP1 PUSH1 0x60 ADD PUSH1 0x40 MSTORE DUP1 DUP8 DUP8 DUP1 DUP1 PUSH1 0x1F ADD PUSH1 0x20 DUP1 SWAP2 DIV MUL PUSH1 0x20 ADD PUSH1 0x40 MLOAD SWAP1 DUP2 ADD PUSH1 0x40 MSTORE DUP1 SWAP4 SWAP3 SWAP2 SWAP1 DUP2 DUP2 MSTORE PUSH1 0x20 ADD DUP4 DUP4 DUP1 DUP3 DUP5 CALLDATACOPY PUSH0 DUP2 DUP5 ADD MSTORE PUSH1 0x1F NOT PUSH1 0x1F DUP3 ADD AND SWAP1 POP DUP1 DUP4 ADD SWAP3 POP POP POP POP POP POP POP DUP2 MSTORE PUSH1 0x20 ADD DUP6 DUP6 DUP1 DUP1 PUSH1 0x1F ADD PUSH1 0x20 DUP1 SWAP2 DIV MUL PUSH1 0x20 ADD PUSH1 0x40 MLOAD SWAP1 DUP2 ADD PUSH1 0x40 MSTORE DUP1 SWAP4 SWAP3 SWAP2 SWAP1 DUP2 DUP2 MSTORE PUSH1 0x20 ADD DUP4 DUP4 DUP1 DUP3 DUP5 CALLDATACOPY PUSH0 DUP2 DUP5 ADD MSTORE PUSH1 0x1F NOT PUSH1 0x1F DUP3 ADD AND SWAP1 POP DUP1 DUP4 ADD SWAP3 POP POP POP POP POP POP POP DUP2 MSTORE PUSH1 0x20 ADD DUP4 DUP4 DUP1 DUP1 PUSH1 0x1F ADD PUSH1 0x20 DUP1 SWAP2 DIV MUL PUSH1 0x20 ADD PUSH1 0x40 MLOAD SWAP1 DUP2 ADD PUSH1 0x40 MSTORE DUP1 SWAP4 SWAP3 SWAP2 SWAP1 DUP2 DUP2 MSTORE PUSH1 0x20 ADD DUP4 DUP4 DUP1 DUP3 DUP5 CALLDATACOPY PUSH0 DUP2 DUP5 ADD MSTORE PUSH1 0x1F NOT PUSH1 0x1F DUP3 ADD AND SWAP1 POP DUP1 DUP4 ADD SWAP3 POP POP POP POP POP POP POP DUP2 MSTORE POP PUSH1 0x10 PUSH0 CALLER PUSH20 0xFFFFFFFFFFFFFFFFFFFFFFFFFFFFFFFFFFFFFFFF AND PUSH20 0xFFFFFFFFFFFFFFFFFFFFFFFFFFFFFFFFFFFFFFFF AND DUP2 MSTORE PUSH1 0x20 ADD SWAP1 DUP2 MSTORE PUSH1 0x20 ADD PUSH0 KECCAK256 PUSH0 DUP3 ADD MLOAD DUP2 PUSH0 ADD SWAP1 DUP2 PUSH2 0x3E47 SWAP2 SWAP1 PUSH2 0x4C37 JUMP JUMPDEST POP PUSH1 0x20 DUP3 ADD MLOAD DUP2 PUSH1 0x1 ADD SWAP1 DUP2 PUSH2 0x3E5D SWAP2 SWAP1 PUSH2 0x4C37 JUMP JUMPDEST POP PUSH1 0x40 DUP3 ADD MLOAD DUP2 PUSH1 0x2 ADD SWAP1 DUP2 PUSH2 0x3E73 SWAP2 SWAP1 PUSH2 0x4C37 JUMP JUMPDEST POP SWAP1 POP POP PUSH32 0x2BF7863D4068DDA3123298D02EE28530519D2E96EAAB6784F5F0B6184DDD2015 CALLER DUP8 DUP8 PUSH1 0x40 MLOAD PUSH2 0x3EAA SWAP4 SWAP3 SWAP2 SWAP1 PUSH2 0x4FBD JUMP JUMPDEST PUSH1 0x40 MLOAD DUP1 SWAP2 SUB SWAP1 LOG1 POP POP POP POP POP POP JUMP JUMPDEST PUSH0 PUSH0 PUSH1 0x2 DUP4 TIMESTAMP CALLER PUSH1 0x5 SLOAD PUSH1 0x40 MLOAD PUSH1 0x20 ADD PUSH2 0x3ED7 SWAP5 SWAP4 SWAP3 SWAP2 SWAP1 PUSH2 0x52E6 JUMP JUMPDEST PUSH1 0x40 MLOAD PUSH1 0x20 DUP2 DUP4 SUB SUB DUP2 MSTORE SWAP1 PUSH1 0x40 MSTORE PUSH1 0x40 MLOAD PUSH2 0x3EF3 SWAP2 SWAP1 PUSH2 0x5377 JUMP JUMPDEST PUSH1 0x20 PUSH1 0x40 MLOAD DUP1 DUP4 SUB DUP2 DUP6 GAS STATICCALL ISZERO DUP1 ISZERO PUSH2 0x3F0E JUMPI RETURNDATASIZE PUSH0 PUSH0 RETURNDATACOPY RETURNDATASIZE PUSH0 REVERT JUMPDEST POP POP POP PUSH1 0x40 MLOAD RETURNDATASIZE PUSH1 0x1F NOT PUSH1 0x1F DUP3 ADD AND DUP3 ADD DUP1 PUSH1 0x40 MSTORE POP DUP2 ADD SWAP1 PUSH2 0x3F31 SWAP2 SWAP1 PUSH2 0x53A1 JUMP JUMPDEST SWAP1 POP DUP1 PUSH1 0x3 PUSH0 PUSH1 0x5 SLOAD DUP2 MSTORE PUSH1 0x20 ADD SWAP1 DUP2 MSTORE PUSH1 0x20 ADD PUSH0 KECCAK256 DUP2 SWAP1 SSTORE POP PUSH1 0x5 PUSH0 DUP2 SLOAD DUP1 SWAP3 SWAP2 SWAP1 PUSH2 0x3F5D SWAP1 PUSH2 0x53F9 JUMP JUMPDEST SWAP2 SWAP1 POP SSTORE POP DUP1 SWAP2 POP POP SWAP2 SWAP1 POP JUMP JUMPDEST PUSH0 PUSH0 REVERT JUMPDEST PUSH0 PUSH0 REVERT JUMPDEST PUSH0 PUSH20 0xFFFFFFFFFFFFFFFFFFFFFFFFFFFFFFFFFFFFFFFF DUP3 AND SWAP1 POP SWAP2 SWAP1 POP JUMP JUMPDEST PUSH0 PUSH2 0x3F9C DUP3 PUSH2 0x3F73 JUMP JUMPDEST SWAP1 POP SWAP2 SWAP1 POP JUMP JUMPDEST PUSH2 0x3FAC DUP2 PUSH2 0x3F92 JUMP JUMPDEST DUP2 EQ PUSH2 0x3FB6 JUMPI PUSH0 PUSH0 REVERT JUMPDEST POP JUMP JUMPDEST PUSH0 DUP2 CALLDATALOAD SWAP1 POP PUSH2 0x3FC7 DUP2 PUSH2 0x3FA3 JUMP JUMPDEST SWAP3 SWAP2 POP POP JUMP JUMPDEST PUSH0 PUSH1 0x20 DUP3 DUP5 SUB SLT ISZERO PUSH2 0x3FE2 JUMPI PUSH2 0x3FE1 PUSH2 0x3F6B JUMP JUMPDEST JUMPDEST PUSH0 PUSH2 0x3FEF DUP5 DUP3 DUP6 ADD PUSH2 0x3FB9 JUMP JUMPDEST SWAP2 POP POP SWAP3 SWAP2 POP POP JUMP JUMPDEST PUSH0 DUP2 MLOAD SWAP1 POP SWAP2 SWAP1 POP JUMP JUMPDEST PUSH0 DUP3 DUP3 MSTORE PUSH1 0x20 DUP3 ADD SWAP1 POP SWAP3 SWAP2 POP POP JUMP JUMPDEST DUP3 DUP2 DUP4 MCOPY PUSH0 DUP4 DUP4 ADD MSTORE POP POP POP JUMP JUMPDEST PUSH0 PUSH1 0x1F NOT PUSH1 0x1F DUP4 ADD AND SWAP1 POP SWAP2 SWAP1 POP JUMP JUMPDEST PUSH0 PUSH2 0x403A DUP3 PUSH2 0x3FF8 JUMP JUMPDEST PUSH2 0x4044 DUP2 DUP6 PUSH2 0x4002 JUMP JUMPDEST SWAP4 POP PUSH2 0x4054 DUP2 DUP6 PUSH1 0x20 DUP7 ADD PUSH2 0x4012 JUMP JUMPDEST PUSH2 0x405D DUP2 PUSH2 0x4020 JUMP JUMPDEST DUP5 ADD SWAP2 POP POP SWAP3 SWAP2 POP POP JUMP JUMPDEST PUSH0 PUSH1 0x60 DUP3 ADD SWAP1 POP DUP2 DUP2 SUB PUSH0 DUP4 ADD MSTORE PUSH2 0x4080 DUP2 DUP7 PUSH2 0x4030 JUMP JUMPDEST SWAP1 POP DUP2 DUP2 SUB PUSH1 0x20 DUP4 ADD MSTORE PUSH2 0x4094 DUP2 DUP6 PUSH2 0x4030 JUMP JUMPDEST SWAP1 POP DUP2 DUP2 SUB PUSH1 0x40 DUP4 ADD MSTORE PUSH2 0x40A8 DUP2 DUP5 PUSH2 0x4030 JUMP JUMPDEST SWAP1 POP SWAP5 SWAP4 POP POP POP POP JUMP JUMPDEST PUSH0 DUP2 SWAP1 POP SWAP2 SWAP1 POP JUMP JUMPDEST PUSH2 0x40C4 DUP2 PUSH2 0x40B2 JUMP JUMPDEST DUP2 EQ PUSH2 0x40CE JUMPI PUSH0 PUSH0 REVERT JUMPDEST POP JUMP JUMPDEST PUSH0 DUP2 CALLDATALOAD SWAP1 POP PUSH2 0x40DF DUP2 PUSH2 0x40BB JUMP JUMPDEST SWAP3 SWAP2 POP POP JUMP JUMPDEST PUSH0 PUSH0 REVERT JUMPDEST PUSH0 PUSH0 REVERT JUMPDEST PUSH0 PUSH0 REVERT JUMPDEST PUSH0 PUSH0 DUP4 PUSH1 0x1F DUP5 ADD SLT PUSH2 0x4106 JUMPI PUSH2 0x4105 PUSH2 0x40E5 JUMP JUMPDEST JUMPDEST DUP3 CALLDATALOAD SWAP1 POP PUSH8 0xFFFFFFFFFFFFFFFF DUP2 GT ISZERO PUSH2 0x4123 JUMPI PUSH2 0x4122 PUSH2 0x40E9 JUMP JUMPDEST JUMPDEST PUSH1 0x20 DUP4 ADD SWAP2 POP DUP4 PUSH1 0x1 DUP3 MUL DUP4 ADD GT ISZERO PUSH2 0x413F JUMPI PUSH2 0x413E PUSH2 0x40ED JUMP JUMPDEST JUMPDEST SWAP3 POP SWAP3 SWAP1 POP JUMP JUMPDEST PUSH0 DUP2 SWAP1 POP SWAP2 SWAP1 POP JUMP JUMPDEST PUSH2 0x4158 DUP2 PUSH2 0x4146 JUMP JUMPDEST DUP2 EQ PUSH2 0x4162 JUMPI PUSH0 PUSH0 REVERT JUMPDEST POP JUMP JUMPDEST PUSH0 DUP2 CALLDATALOAD SWAP1 POP PUSH2 0x4173 DUP2 PUSH2 0x414F JUMP JUMPDEST SWAP3 SWAP2 POP POP JUMP JUMPDEST PUSH0 PUSH0 PUSH0 PUSH0 PUSH0 PUSH0 PUSH0 PUSH0 PUSH1 0xA0 DUP10 DUP12 SUB SLT ISZERO PUSH2 0x4195 JUMPI PUSH2 0x4194 PUSH2 0x3F6B JUMP JUMPDEST JUMPDEST PUSH0 PUSH2 0x41A2 DUP12 DUP3 DUP13 ADD PUSH2 0x40D1 JUMP JUMPDEST SWAP9 POP POP PUSH1 0x20 DUP10 ADD CALLDATALOAD PUSH8 0xFFFFFFFFFFFFFFFF DUP2 GT ISZERO PUSH2 0x41C3 JUMPI PUSH2 0x41C2 PUSH2 0x3F6F JUMP JUMPDEST JUMPDEST PUSH2 0x41CF DUP12 DUP3 DUP13 ADD PUSH2 0x40F1 JUMP JUMPDEST SWAP8 POP SWAP8 POP POP PUSH1 0x40 DUP10 ADD CALLDATALOAD PUSH8 0xFFFFFFFFFFFFFFFF DUP2 GT ISZERO PUSH2 0x41F2 JUMPI PUSH2 0x41F1 PUSH2 0x3F6F JUMP JUMPDEST JUMPDEST PUSH2 0x41FE DUP12 DUP3 DUP13 ADD PUSH2 0x40F1 JUMP JUMPDEST SWAP6 POP SWAP6 POP POP PUSH1 0x60 DUP10 ADD CALLDATALOAD PUSH8 0xFFFFFFFFFFFFFFFF DUP2 GT ISZERO PUSH2 0x4221 JUMPI PUSH2 0x4220 PUSH2 0x3F6F JUMP JUMPDEST JUMPDEST PUSH2 0x422D DUP12 DUP3 DUP13 ADD PUSH2 0x40F1 JUMP JUMPDEST SWAP4 POP SWAP4 POP POP PUSH1 0x80 PUSH2 0x4240 DUP12 DUP3 DUP13 ADD PUSH2 0x4165 JUMP JUMPDEST SWAP2 POP POP SWAP3 SWAP6 SWAP9 POP SWAP3 SWAP6 SWAP9 SWAP1 SWAP4 SWAP7 POP JUMP JUMPDEST PUSH0 DUP2 ISZERO ISZERO SWAP1 POP SWAP2 SWAP1 POP JUMP JUMPDEST PUSH2 0x4264 DUP2 PUSH2 0x4250 JUMP JUMPDEST DUP3 MSTORE POP POP JUMP JUMPDEST PUSH0 PUSH1 0x20 DUP3 ADD SWAP1 POP PUSH2 0x427D PUSH0 DUP4 ADD DUP5 PUSH2 0x425B JUMP JUMPDEST SWAP3 SWAP2 POP POP JUMP JUMPDEST PUSH0 PUSH0 PUSH0 PUSH1 0x40 DUP5 DUP7 SUB SLT ISZERO PUSH2 0x429A JUMPI PUSH2 0x4299 PUSH2 0x3F6B JUMP JUMPDEST JUMPDEST PUSH0 PUSH2 0x42A7 DUP7 DUP3 DUP8 ADD PUSH2 0x40D1 JUMP JUMPDEST SWAP4 POP POP PUSH1 0x20 DUP5 ADD CALLDATALOAD PUSH8 0xFFFFFFFFFFFFFFFF DUP2 GT ISZERO PUSH2 0x42C8 JUMPI PUSH2 0x42C7 PUSH2 0x3F6F JUMP JUMPDEST JUMPDEST PUSH2 0x42D4 DUP7 DUP3 DUP8 ADD PUSH2 0x40F1 JUMP JUMPDEST SWAP3 POP SWAP3 POP POP SWAP3 POP SWAP3 POP SWAP3 JUMP JUMPDEST PUSH0 PUSH0 PUSH0 PUSH0 PUSH0 PUSH0 PUSH1 0x60 DUP8 DUP10 SUB SLT ISZERO PUSH2 0x42FA JUMPI PUSH2 0x42F9 PUSH2 0x3F6B JUMP JUMPDEST JUMPDEST PUSH0 DUP8 ADD CALLDATALOAD PUSH8 0xFFFFFFFFFFFFFFFF DUP2 GT ISZERO PUSH2 0x4317 JUMPI PUSH2 0x4316 PUSH2 0x3F6F JUMP JUMPDEST JUMPDEST PUSH2 0x4323 DUP10 DUP3 DUP11 ADD PUSH2 0x40F1 JUMP JUMPDEST SWAP7 POP SWAP7 POP POP PUSH1 0x20 DUP8 ADD CALLDATALOAD PUSH8 0xFFFFFFFFFFFFFFFF DUP2 GT ISZERO PUSH2 0x4346 JUMPI PUSH2 0x4345 PUSH2 0x3F6F JUMP JUMPDEST JUMPDEST PUSH2 0x4352 DUP10 DUP3 DUP11 ADD PUSH2 0x40F1 JUMP JUMPDEST SWAP5 POP SWAP5 POP POP PUSH1 0x40 DUP8 ADD CALLDATALOAD PUSH8 0xFFFFFFFFFFFFFFFF DUP2 GT ISZERO PUSH2 0x4375 JUMPI PUSH2 0x4374 PUSH2 0x3F6F JUMP JUMPDEST JUMPDEST PUSH2 0x4381 DUP10 DUP3 DUP11 ADD PUSH2 0x40F1 JUMP JUMPDEST SWAP3 POP SWAP3 POP POP SWAP3 SWAP6 POP SWAP3 SWAP6 POP SWAP3 SWAP6 JUMP JUMPDEST PUSH0 PUSH1 0x20 DUP3 DUP5 SUB SLT ISZERO PUSH2 0x43A5 JUMPI PUSH2 0x43A4 PUSH2 0x3F6B JUMP JUMPDEST JUMPDEST PUSH0 PUSH2 0x43B2 DUP5 DUP3 DUP6 ADD PUSH2 0x4165 JUMP JUMPDEST SWAP2 POP POP SWAP3 SWAP2 POP POP JUMP JUMPDEST PUSH2 0x43C4 DUP2 PUSH2 0x4146 JUMP JUMPDEST DUP3 MSTORE POP POP JUMP JUMPDEST PUSH0 PUSH1 0x20 DUP3 ADD SWAP1 POP PUSH2 0x43DD PUSH0 DUP4 ADD DUP5 PUSH2 0x43BB JUMP JUMPDEST SWAP3 SWAP2 POP POP JUMP JUMPDEST PUSH0 PUSH1 0x20 DUP3 DUP5 SUB SLT ISZERO PUSH2 0x43F8 JUMPI PUSH2 0x43F7 PUSH2 0x3F6B JUMP JUMPDEST JUMPDEST PUSH0 PUSH2 0x4405 DUP5 DUP3 DUP6 ADD PUSH2 0x40D1 JUMP JUMPDEST SWAP2 POP POP SWAP3 SWAP2 POP POP JUMP JUMPDEST PUSH0 PUSH0 PUSH0 PUSH0 PUSH1 0x60 DUP6 DUP8 SUB SLT ISZERO PUSH2 0x4426 JUMPI PUSH2 0x4425 PUSH2 0x3F6B JUMP JUMPDEST JUMPDEST PUSH0 PUSH2 0x4433 DUP8 DUP3 DUP9 ADD PUSH2 0x40D1 JUMP JUMPDEST SWAP5 POP POP PUSH1 0x20 PUSH2 0x4444 DUP8 DUP3 DUP9 ADD PUSH2 0x3FB9 JUMP JUMPDEST SWAP4 POP POP PUSH1 0x40 DUP6 ADD CALLDATALOAD PUSH8 0xFFFFFFFFFFFFFFFF DUP2 GT ISZERO PUSH2 0x4465 JUMPI PUSH2 0x4464 PUSH2 0x3F6F JUMP JUMPDEST JUMPDEST PUSH2 0x4471 DUP8 DUP3 DUP9 ADD PUSH2 0x40F1 JUMP JUMPDEST SWAP3 POP SWAP3 POP POP SWAP3 SWAP6 SWAP2 SWAP5 POP SWAP3 POP JUMP JUMPDEST PUSH2 0x4488 DUP2 PUSH2 0x4250 JUMP JUMPDEST DUP2 EQ PUSH2 0x4492 JUMPI PUSH0 PUSH0 REVERT JUMPDEST POP JUMP JUMPDEST PUSH0 DUP2 CALLDATALOAD SWAP1 POP PUSH2 0x44A3 DUP2 PUSH2 0x447F JUMP JUMPDEST SWAP3 SWAP2 POP POP JUMP JUMPDEST PUSH0 PUSH0 PUSH0 PUSH0 PUSH0 PUSH0 PUSH1 0x80 DUP8 DUP10 SUB SLT ISZERO PUSH2 0x44C3 JUMPI PUSH2 0x44C2 PUSH2 0x3F6B JUMP JUMPDEST JUMPDEST PUSH0 PUSH2 0x44D0 DUP10 DUP3 DUP11 ADD PUSH2 0x40D1 JUMP JUMPDEST SWAP7 POP POP PUSH1 0x20 PUSH2 0x44E1 DUP10 DUP3 DUP11 ADD PUSH2 0x4495 JUMP JUMPDEST SWAP6 POP POP PUSH1 0x40 DUP8 ADD CALLDATALOAD PUSH8 0xFFFFFFFFFFFFFFFF DUP2 GT ISZERO PUSH2 0x4502 JUMPI PUSH2 0x4501 PUSH2 0x3F6F JUMP JUMPDEST JUMPDEST PUSH2 0x450E DUP10 DUP3 DUP11 ADD PUSH2 0x40F1 JUMP JUMPDEST SWAP5 POP SWAP5 POP POP PUSH1 0x60 DUP8 ADD CALLDATALOAD PUSH8 0xFFFFFFFFFFFFFFFF DUP2 GT ISZERO PUSH2 0x4531 JUMPI PUSH2 0x4530 PUSH2 0x3F6F JUMP JUMPDEST JUMPDEST PUSH2 0x453D DUP10 DUP3 DUP11 ADD PUSH2 0x40F1 JUMP JUMPDEST SWAP3 POP SWAP3 POP POP SWAP3 SWAP6 POP SWAP3 SWAP6 POP SWAP3 SWAP6 JUMP JUMPDEST PUSH0 PUSH0 PUSH0 PUSH0 PUSH1 0x60 DUP6 DUP8 SUB SLT ISZERO PUSH2 0x4564 JUMPI PUSH2 0x4563 PUSH2 0x3F6B JUMP JUMPDEST JUMPDEST PUSH0 PUSH2 0x4571 DUP8 DUP3 DUP9 ADD PUSH2 0x40D1 JUMP JUMPDEST SWAP5 POP POP PUSH1 0x20 PUSH2 0x4582 DUP8 DUP3 DUP9 ADD PUSH2 0x4165 JUMP JUMPDEST SWAP4 POP POP PUSH1 0x40 DUP6 ADD CALLDATALOAD PUSH8 0xFFFFFFFFFFFFFFFF DUP2 GT ISZERO PUSH2 0x45A3 JUMPI PUSH2 0x45A2 PUSH2 0x3F6F JUMP JUMPDEST JUMPDEST PUSH2 0x45AF DUP8 DUP3 DUP9 ADD PUSH2 0x40F1 JUMP JUMPDEST SWAP3 POP SWAP3 POP POP SWAP3 SWAP6 SWAP2 SWAP5 POP SWAP3 POP JUMP JUMPDEST PUSH0 PUSH0 PUSH1 0x40 DUP4 DUP6 SUB SLT ISZERO PUSH2 0x45D3 JUMPI PUSH2 0x45D2 PUSH2 0x3F6B JUMP JUMPDEST JUMPDEST PUSH0 PUSH2 0x45E0 DUP6 DUP3 DUP7 ADD PUSH2 0x4165 JUMP JUMPDEST SWAP3 POP POP PUSH1 0x20 PUSH2 0x45F1 DUP6 DUP3 DUP7 ADD PUSH2 0x4165 JUMP JUMPDEST SWAP2 POP POP SWAP3 POP SWAP3 SWAP1 POP JUMP JUMPDEST PUSH2 0x4604 DUP2 PUSH2 0x40B2 JUMP JUMPDEST DUP3 MSTORE POP POP JUMP JUMPDEST PUSH0 PUSH1 0x20 DUP3 ADD SWAP1 POP PUSH2 0x461D PUSH0 DUP4 ADD DUP5 PUSH2 0x45FB JUMP JUMPDEST SWAP3 SWAP2 POP POP JUMP JUMPDEST PUSH2 0x462C DUP2 PUSH2 0x3F92 JUMP JUMPDEST DUP3 MSTORE POP POP JUMP JUMPDEST PUSH0 PUSH1 0xA0 DUP3 ADD SWAP1 POP PUSH2 0x4645 PUSH0 DUP4 ADD DUP9 PUSH2 0x45FB JUMP JUMPDEST PUSH2 0x4652 PUSH1 0x20 DUP4 ADD DUP8 PUSH2 0x425B JUMP JUMPDEST DUP2 DUP2 SUB PUSH1 0x40 DUP4 ADD MSTORE PUSH2 0x4664 DUP2 DUP7 PUSH2 0x4030 JUMP JUMPDEST SWAP1 POP DUP2 DUP2 SUB PUSH1 0x60 DUP4 ADD MSTORE PUSH2 0x4678 DUP2 DUP6 PUSH2 0x4030 JUMP JUMPDEST SWAP1 POP PUSH2 0x4687 PUSH1 0x80 DUP4 ADD DUP5 PUSH2 0x4623 JUMP JUMPDEST SWAP7 SWAP6 POP POP POP POP POP POP JUMP JUMPDEST PUSH0 PUSH1 0xA0 DUP3 ADD SWAP1 POP PUSH2 0x46A4 PUSH0 DUP4 ADD DUP9 PUSH2 0x45FB JUMP JUMPDEST PUSH2 0x46B1 PUSH1 0x20 DUP4 ADD DUP8 PUSH2 0x43BB JUMP JUMPDEST DUP2 DUP2 SUB PUSH1 0x40 DUP4 ADD MSTORE PUSH2 0x46C3 DUP2 DUP7 PUSH2 0x4030 JUMP JUMPDEST SWAP1 POP DUP2 DUP2 SUB PUSH1 0x60 DUP4 ADD MSTORE PUSH2 0x46D7 DUP2 DUP6 PUSH2 0x4030 JUMP JUMPDEST SWAP1 POP PUSH2 0x46E6 PUSH1 0x80 DUP4 ADD DUP5 PUSH2 0x4623 JUMP JUMPDEST SWAP7 SWAP6 POP POP POP POP POP POP JUMP JUMPDEST PUSH0 PUSH1 0x20 DUP3 ADD SWAP1 POP PUSH2 0x4703 PUSH0 DUP4 ADD DUP5 PUSH2 0x4623 JUMP JUMPDEST SWAP3 SWAP2 POP POP JUMP JUMPDEST PUSH0 PUSH1 0x80 DUP3 ADD SWAP1 POP PUSH2 0x471C PUSH0 DUP4 ADD DUP8 PUSH2 0x43BB JUMP JUMPDEST PUSH2 0x4729 PUSH1 0x20 DUP4 ADD DUP7 PUSH2 0x43BB JUMP JUMPDEST PUSH2 0x4736 PUSH1 0x40 DUP4 ADD DUP6 PUSH2 0x43BB JUMP JUMPDEST PUSH2 0x4743 PUSH1 0x60 DUP4 ADD DUP5 PUSH2 0x43BB JUMP JUMPDEST SWAP6 SWAP5 POP POP POP POP POP JUMP JUMPDEST PUSH32 0x4E487B7100000000000000000000000000000000000000000000000000000000 PUSH0 MSTORE PUSH1 0x21 PUSH1 0x4 MSTORE PUSH1 0x24 PUSH0 REVERT JUMPDEST PUSH1 0x7 DUP2 LT PUSH2 0x478A JUMPI PUSH2 0x4789 PUSH2 0x474C JUMP JUMPDEST JUMPDEST POP JUMP JUMPDEST PUSH0 DUP2 SWAP1 POP PUSH2 0x479A DUP3 PUSH2 0x4779 JUMP JUMPDEST SWAP2 SWAP1 POP JUMP JUMPDEST PUSH0 PUSH2 0x47A9 DUP3 PUSH2 0x478D JUMP JUMPDEST SWAP1 POP SWAP2 SWAP1 POP JUMP JUMPDEST PUSH2 0x47B9 DUP2 PUSH2 0x479F JUMP JUMPDEST DUP3 MSTORE POP POP JUMP JUMPDEST PUSH0 PUSH2 0x100 DUP3 ADD SWAP1 POP PUSH2 0x47D3 PUSH0 DUP4 ADD DUP12 PUSH2 0x45FB JUMP JUMPDEST DUP2 DUP2 SUB PUSH1 0x20 DUP4 ADD MSTORE PUSH2 0x47E5 DUP2 DUP11 PUSH2 0x4030 JUMP JUMPDEST SWAP1 POP DUP2 DUP2 SUB PUSH1 0x40 DUP4 ADD MSTORE PUSH2 0x47F9 DUP2 DUP10 PUSH2 0x4030 JUMP JUMPDEST SWAP1 POP DUP2 DUP2 SUB PUSH1 0x60 DUP4 ADD MSTORE PUSH2 0x480D DUP2 DUP9 PUSH2 0x4030 JUMP JUMPDEST SWAP1 POP PUSH2 0x481C PUSH1 0x80 DUP4 ADD DUP8 PUSH2 0x43BB JUMP JUMPDEST PUSH2 0x4829 PUSH1 0xA0 DUP4 ADD DUP7 PUSH2 0x47B0 JUMP JUMPDEST PUSH2 0x4836 PUSH1 0xC0 DUP4 ADD DUP6 PUSH2 0x4623 JUMP JUMPDEST DUP2 DUP2 SUB PUSH1 0xE0 DUP4 ADD MSTORE PUSH2 0x4848 DUP2 DUP5 PUSH2 0x4030 JUMP JUMPDEST SWAP1 POP SWAP10 SWAP9 POP POP POP POP POP POP POP POP POP JUMP JUMPDEST PUSH0 PUSH1 0xE0 DUP3 ADD SWAP1 POP PUSH2 0x486A PUSH0 DUP4 ADD DUP11 PUSH2 0x45FB JUMP JUMPDEST PUSH2 0x4877 PUSH1 0x20 DUP4 ADD DUP10 PUSH2 0x425B JUMP JUMPDEST DUP2 DUP2 SUB PUSH1 0x40 DUP4 ADD MSTORE PUSH2 0x4889 DUP2 DUP9 PUSH2 0x4030 JUMP JUMPDEST SWAP1 POP PUSH2 0x4898 PUSH1 0x60 DUP4 ADD DUP8 PUSH2 0x425B JUMP JUMPDEST DUP2 DUP2 SUB PUSH1 0x80 DUP4 ADD MSTORE PUSH2 0x48AA DUP2 DUP7 PUSH2 0x4030 JUMP JUMPDEST SWAP1 POP DUP2 DUP2 SUB PUSH1 0xA0 DUP4 ADD MSTORE PUSH2 0x48BE DUP2 DUP6 PUSH2 0x4030 JUMP JUMPDEST SWAP1 POP PUSH2 0x48CD PUSH1 0xC0 DUP4 ADD DUP5 PUSH2 0x4623 JUMP JUMPDEST SWAP9 SWAP8 POP POP POP POP POP POP POP POP JUMP JUMPDEST PUSH0 PUSH0 PUSH0 PUSH0 PUSH1 0x80 DUP6 DUP8 SUB SLT ISZERO PUSH2 0x48F1 JUMPI PUSH2 0x48F0 PUSH2 0x3F6B JUMP JUMPDEST JUMPDEST PUSH0 PUSH2 0x48FE DUP8 DUP3 DUP9 ADD PUSH2 0x4165 JUMP JUMPDEST SWAP5 POP POP PUSH1 0x20 PUSH2 0x490F DUP8 DUP3 DUP9 ADD PUSH2 0x4165 JUMP JUMPDEST SWAP4 POP POP PUSH1 0x40 PUSH2 0x4920 DUP8 DUP3 DUP9 ADD PUSH2 0x4165 JUMP JUMPDEST SWAP3 POP POP PUSH1 0x60 PUSH2 0x4931 DUP8 DUP3 DUP9 ADD PUSH2 0x4165 JUMP JUMPDEST SWAP2 POP POP SWAP3 SWAP6 SWAP2 SWAP5 POP SWAP3 POP JUMP JUMPDEST PUSH32 0x4E487B7100000000000000000000000000000000000000000000000000000000 PUSH0 MSTORE PUSH1 0x22 PUSH1 0x4 MSTORE PUSH1 0x24 PUSH0 REVERT JUMPDEST PUSH0 PUSH1 0x2 DUP3 DIV SWAP1 POP PUSH1 0x1 DUP3 AND DUP1 PUSH2 0x4981 JUMPI PUSH1 0x7F DUP3 AND SWAP2 POP JUMPDEST PUSH1 0x20 DUP3 LT DUP2 SUB PUSH2 0x4994 JUMPI PUSH2 0x4993 PUSH2 0x493D JUMP JUMPDEST JUMPDEST POP SWAP2 SWAP1 POP JUMP JUMPDEST PUSH32 0x4F6E6C79206661726D6572000000000000000000000000000000000000000000 PUSH0 DUP3 ADD MSTORE POP JUMP JUMPDEST PUSH0 PUSH2 0x49CE PUSH1 0xB DUP4 PUSH2 0x4002 JUMP JUMPDEST SWAP2 POP PUSH2 0x49D9 DUP3 PUSH2 0x499A JUMP JUMPDEST PUSH1 0x20 DUP3 ADD SWAP1 POP SWAP2 SWAP1 POP JUMP JUMPDEST PUSH0 PUSH1 0x20 DUP3 ADD SWAP1 POP DUP2 DUP2 SUB PUSH0 DUP4 ADD MSTORE PUSH2 0x49FB DUP2 PUSH2 0x49C2 JUMP JUMPDEST SWAP1 POP SWAP2 SWAP1 POP JUMP JUMPDEST PUSH32 0x43726F7020657869737473000000000000000000000000000000000000000000 PUSH0 DUP3 ADD MSTORE POP JUMP JUMPDEST PUSH0 PUSH2 0x4A36 PUSH1 0xB DUP4 PUSH2 0x4002 JUMP JUMPDEST SWAP2 POP PUSH2 0x4A41 DUP3 PUSH2 0x4A02 JUMP JUMPDEST PUSH1 0x20 DUP3 ADD SWAP1 POP SWAP2 SWAP1 POP JUMP JUMPDEST PUSH0 PUSH1 0x20 DUP3 ADD SWAP1 POP DUP2 DUP2 SUB PUSH0 DUP4 ADD MSTORE PUSH2 0x4A63 DUP2 PUSH2 0x4A2A JUMP JUMPDEST SWAP1 POP SWAP2 SWAP1 POP JUMP JUMPDEST PUSH32 0x4E487B7100000000000000000000000000000000000000000000000000000000 PUSH0 MSTORE PUSH1 0x41 PUSH1 0x4 MSTORE PUSH1 0x24 PUSH0 REVERT JUMPDEST PUSH0 DUP2 SWAP1 POP DUP2 PUSH0 MSTORE PUSH1 0x20 PUSH0 KECCAK256 SWAP1 POP SWAP2 SWAP1 POP JUMP JUMPDEST PUSH0 PUSH1 0x20 PUSH1 0x1F DUP4 ADD DIV SWAP1 POP SWAP2 SWAP1 POP JUMP JUMPDEST PUSH0 DUP3 DUP3 SHL SWAP1 POP SWAP3 SWAP2 POP POP JUMP JUMPDEST PUSH0 PUSH1 0x8 DUP4 MUL PUSH2 0x4AF3 PUSH32 0xFFFFFFFFFFFFFFFFFFFFFFFFFFFFFFFFFFFFFFFFFFFFFFFFFFFFFFFFFFFFFFFF DUP3 PUSH2 0x4AB8 JUMP JUMPDEST PUSH2 0x4AFD DUP7 DUP4 PUSH2 0x4AB8 JUMP JUMPDEST SWAP6 POP DUP1 NOT DUP5 AND SWAP4 POP DUP1 DUP7 AND DUP5 OR SWAP3 POP POP POP SWAP4 SWAP3 POP POP POP JUMP JUMPDEST PUSH0 DUP2 SWAP1 POP SWAP2 SWAP1 POP JUMP JUMPDEST PUSH0 PUSH2 0x4B38 PUSH2 0x4B33 PUSH2 0x4B2E DUP5 PUSH2 0x4146 JUMP JUMPDEST PUSH2 0x4B15 JUMP JUMPDEST PUSH2 0x4146 JUMP JUMPDEST SWAP1 POP SWAP2 SWAP1 POP JUMP JUMPDEST PUSH0 DUP2 SWAP1 POP SWAP2 SWAP1 POP JUMP JUMPDEST PUSH2 0x4B51 DUP4 PUSH2 0x4B1E JUMP JUMPDEST PUSH2 0x4B65 PUSH2 0x4B5D DUP3 PUSH2 0x4B3F JUMP JUMPDEST DUP5 DUP5 SLOAD PUSH2 0x4AC4 JUMP JUMPDEST DUP3 SSTORE POP POP POP POP JUMP JUMPDEST PUSH0 PUSH0 SWAP1 POP SWAP1 JUMP JUMPDEST PUSH2 0x4B7C PUSH2 0x4B6D JUMP JUMPDEST PUSH2 0x4B87 DUP2 DUP5 DUP5 PUSH2 0x4B48 JUMP JUMPDEST POP POP POP JUMP JUMPDEST JUMPDEST DUP2 DUP2 LT ISZERO PUSH2 0x4BAA JUMPI PUSH2 0x4B9F PUSH0 DUP3 PUSH2 0x4B74 JUMP JUMPDEST PUSH1 0x1 DUP2 ADD SWAP1 POP PUSH2 0x4B8D JUMP JUMPDEST POP POP JUMP JUMPDEST PUSH1 0x1F DUP3 GT ISZERO PUSH2 0x4BEF JUMPI PUSH2 0x4BC0 DUP2 PUSH2 0x4A97 JUMP JUMPDEST PUSH2 0x4BC9 DUP5 PUSH2 0x4AA9 JUMP JUMPDEST DUP2 ADD PUSH1 0x20 DUP6 LT ISZERO PUSH2 0x4BD8 JUMPI DUP2 SWAP1 POP JUMPDEST PUSH2 0x4BEC PUSH2 0x4BE4 DUP6 PUSH2 0x4AA9 JUMP JUMPDEST DUP4 ADD DUP3 PUSH2 0x4B8C JUMP JUMPDEST POP POP JUMPDEST POP POP POP JUMP JUMPDEST PUSH0 DUP3 DUP3 SHR SWAP1 POP SWAP3 SWAP2 POP POP JUMP JUMPDEST PUSH0 PUSH2 0x4C0F PUSH0 NOT DUP5 PUSH1 0x8 MUL PUSH2 0x4BF4 JUMP JUMPDEST NOT DUP1 DUP4 AND SWAP2 POP POP SWAP3 SWAP2 POP POP JUMP JUMPDEST PUSH0 PUSH2 0x4C27 DUP4 DUP4 PUSH2 0x4C00 JUMP JUMPDEST SWAP2 POP DUP3 PUSH1 0x2 MUL DUP3 OR SWAP1 POP SWAP3 SWAP2 POP POP JUMP JUMPDEST PUSH2 0x4C40 DUP3 PUSH2 0x3FF8 JUMP JUMPDEST PUSH8 0xFFFFFFFFFFFFFFFF DUP2 GT ISZERO PUSH2 0x4C59 JUMPI PUSH2 0x4C58 PUSH2 0x4A6A JUMP JUMPDEST JUMPDEST PUSH2 0x4C63 DUP3 SLOAD PUSH2 0x496A JUMP JUMPDEST PUSH2 0x4C6E DUP3 DUP3 DUP6 PUSH2 0x4BAE JUMP JUMPDEST PUSH0 PUSH1 0x20 SWAP1 POP PUSH1 0x1F DUP4 GT PUSH1 0x1 DUP2 EQ PUSH2 0x4C9F JUMPI PUSH0 DUP5 ISZERO PUSH2 0x4C8D JUMPI DUP3 DUP8 ADD MLOAD SWAP1 POP JUMPDEST PUSH2 0x4C97 DUP6 DUP3 PUSH2 0x4C1C JUMP JUMPDEST DUP7 SSTORE POP PUSH2 0x4CFE JUMP JUMPDEST PUSH1 0x1F NOT DUP5 AND PUSH2 0x4CAD DUP7 PUSH2 0x4A97 JUMP JUMPDEST PUSH0 JUMPDEST DUP3 DUP2 LT ISZERO PUSH2 0x4CD4 JUMPI DUP5 DUP10 ADD MLOAD DUP3 SSTORE PUSH1 0x1 DUP3 ADD SWAP2 POP PUSH1 0x20 DUP6 ADD SWAP5 POP PUSH1 0x20 DUP2 ADD SWAP1 POP PUSH2 0x4CAF JUMP JUMPDEST DUP7 DUP4 LT ISZERO PUSH2 0x4CF1 JUMPI DUP5 DUP10 ADD MLOAD PUSH2 0x4CED PUSH1 0x1F DUP10 AND DUP3 PUSH2 0x4C00 JUMP JUMPDEST DUP4 SSTORE POP JUMPDEST PUSH1 0x1 PUSH1 0x2 DUP9 MUL ADD DUP9 SSTORE POP POP POP JUMPDEST POP POP POP POP POP POP JUMP JUMPDEST DUP3 DUP2 DUP4 CALLDATACOPY PUSH0 DUP4 DUP4 ADD MSTORE POP POP POP JUMP JUMPDEST PUSH0 PUSH2 0x4D1F DUP4 DUP6 PUSH2 0x4002 JUMP JUMPDEST SWAP4 POP PUSH2 0x4D2C DUP4 DUP6 DUP5 PUSH2 0x4D06 JUMP JUMPDEST PUSH2 0x4D35 DUP4 PUSH2 0x4020 JUMP JUMPDEST DUP5 ADD SWAP1 POP SWAP4 SWAP3 POP POP POP JUMP JUMPDEST PUSH0 PUSH1 0x60 DUP3 ADD SWAP1 POP PUSH2 0x4D53 PUSH0 DUP4 ADD DUP8 PUSH2 0x45FB JUMP JUMPDEST DUP2 DUP2 SUB PUSH1 0x20 DUP4 ADD MSTORE PUSH2 0x4D66 DUP2 DUP6 DUP8 PUSH2 0x4D14 JUMP JUMPDEST SWAP1 POP PUSH2 0x4D75 PUSH1 0x40 DUP4 ADD DUP5 PUSH2 0x43BB JUMP JUMPDEST SWAP6 SWAP5 POP POP POP POP POP JUMP JUMPDEST PUSH32 0x4F6E6C792061676772656761746F720000000000000000000000000000000000 PUSH0 DUP3 ADD MSTORE POP JUMP JUMPDEST PUSH0 PUSH2 0x4DB2 PUSH1 0xF DUP4 PUSH2 0x4002 JUMP JUMPDEST SWAP2 POP PUSH2 0x4DBD DUP3 PUSH2 0x4D7E JUMP JUMPDEST PUSH1 0x20 DUP3 ADD SWAP1 POP SWAP2 SWAP1 POP JUMP JUMPDEST PUSH0 PUSH1 0x20 DUP3 ADD SWAP1 POP DUP2 DUP2 SUB PUSH0 DUP4 ADD MSTORE PUSH2 0x4DDF DUP2 PUSH2 0x4DA6 JUMP JUMPDEST SWAP1 POP SWAP2 SWAP1 POP JUMP JUMPDEST PUSH32 0x4E6F742072656365697665640000000000000000000000000000000000000000 PUSH0 DUP3 ADD MSTORE POP JUMP JUMPDEST PUSH0 PUSH2 0x4E1A PUSH1 0xC DUP4 PUSH2 0x4002 JUMP JUMPDEST SWAP2 POP PUSH2 0x4E25 DUP3 PUSH2 0x4DE6 JUMP JUMPDEST PUSH1 0x20 DUP3 ADD SWAP1 POP SWAP2 SWAP1 POP JUMP JUMPDEST PUSH0 PUSH1 0x20 DUP3 ADD SWAP1 POP DUP2 DUP2 SUB PUSH0 DUP4 ADD MSTORE PUSH2 0x4E47 DUP2 PUSH2 0x4E0E JUMP JUMPDEST SWAP1 POP SWAP2 SWAP1 POP JUMP JUMPDEST PUSH0 DUP3 SWAP1 POP SWAP3 SWAP2 POP POP JUMP JUMPDEST PUSH2 0x4E62 DUP4 DUP4 PUSH2 0x4E4E JUMP JUMPDEST PUSH8 0xFFFFFFFFFFFFFFFF DUP2 GT ISZERO PUSH2 0x4E7B JUMPI PUSH2 0x4E7A PUSH2 0x4A6A JUMP JUMPDEST JUMPDEST PUSH2 0x4E85 DUP3 SLOAD PUSH2 0x496A JUMP JUMPDEST PUSH2 0x4E90 DUP3 DUP3 DUP6 PUSH2 0x4BAE JUMP JUMPDEST PUSH0 PUSH1 0x1F DUP4 GT PUSH1 0x1 DUP2 EQ PUSH2 0x4EBD JUMPI PUSH0 DUP5 ISZERO PUSH2 0x4EAB JUMPI DUP3 DUP8 ADD CALLDATALOAD SWAP1 POP JUMPDEST PUSH2 0x4EB5 DUP6 DUP3 PUSH2 0x4C1C JUMP JUMPDEST DUP7 SSTORE POP PUSH2 0x4F1C JUMP JUMPDEST PUSH1 0x1F NOT DUP5 AND PUSH2 0x4ECB DUP7 PUSH2 0x4A97 JUMP JUMPDEST PUSH0 JUMPDEST DUP3 DUP2 LT ISZERO PUSH2 0x4EF2 JUMPI DUP5 DUP10 ADD CALLDATALOAD DUP3 SSTORE PUSH1 0x1 DUP3 ADD SWAP2 POP PUSH1 0x20 DUP6 ADD SWAP5 POP PUSH1 0x20 DUP2 ADD SWAP1 POP PUSH2 0x4ECD JUMP JUMPDEST DUP7 DUP4 LT ISZERO PUSH2 0x4F0F JUMPI DUP5 DUP10 ADD CALLDATALOAD PUSH2 0x4F0B PUSH1 0x1F DUP10 AND DUP3 PUSH2 0x4C00 JUMP JUMPDEST DUP4 SSTORE POP JUMPDEST PUSH1 0x1 PUSH1 0x2 DUP9 MUL ADD DUP9 SSTORE POP POP POP JUMPDEST POP POP POP POP POP POP POP JUMP JUMPDEST PUSH0 PUSH1 0x40 DUP3 ADD SWAP1 POP PUSH2 0x4F38 PUSH0 DUP4 ADD DUP7 PUSH2 0x45FB JUMP JUMPDEST DUP2 DUP2 SUB PUSH1 0x20 DUP4 ADD MSTORE PUSH2 0x4F4B DUP2 DUP5 DUP7 PUSH2 0x4D14 JUMP JUMPDEST SWAP1 POP SWAP5 SWAP4 POP POP POP POP JUMP JUMPDEST PUSH32 0x416C726561647920726567697374657265640000000000000000000000000000 PUSH0 DUP3 ADD MSTORE POP JUMP JUMPDEST PUSH0 PUSH2 0x4F89 PUSH1 0x12 DUP4 PUSH2 0x4002 JUMP JUMPDEST SWAP2 POP PUSH2 0x4F94 DUP3 PUSH2 0x4F55 JUMP JUMPDEST PUSH1 0x20 DUP3 ADD SWAP1 POP SWAP2 SWAP1 POP JUMP JUMPDEST PUSH0 PUSH1 0x20 DUP3 ADD SWAP1 POP DUP2 DUP2 SUB PUSH0 DUP4 ADD MSTORE PUSH2 0x4FB6 DUP2 PUSH2 0x4F7D JUMP JUMPDEST SWAP1 POP SWAP2 SWAP1 POP JUMP JUMPDEST PUSH0 PUSH1 0x40 DUP3 ADD SWAP1 POP PUSH2 0x4FD0 PUSH0 DUP4 ADD DUP7 PUSH2 0x4623 JUMP JUMPDEST DUP2 DUP2 SUB PUSH1 0x20 DUP4 ADD MSTORE PUSH2 0x4FE3 DUP2 DUP5 DUP7 PUSH2 0x4D14 JUMP JUMPDEST SWAP1 POP SWAP5 SWAP4 POP POP POP POP JUMP JUMPDEST PUSH32 0x4F6E6C792072657461696C657200000000000000000000000000000000000000 PUSH0 DUP3 ADD MSTORE POP JUMP JUMPDEST PUSH0 PUSH2 0x5021 PUSH1 0xD DUP4 PUSH2 0x4002 JUMP JUMPDEST SWAP2 POP PUSH2 0x502C DUP3 PUSH2 0x4FED JUMP JUMPDEST PUSH1 0x20 DUP3 ADD SWAP1 POP SWAP2 SWAP1 POP JUMP JUMPDEST PUSH0 PUSH1 0x20 DUP3 ADD SWAP1 POP DUP2 DUP2 SUB PUSH0 DUP4 ADD MSTORE PUSH2 0x504E DUP2 PUSH2 0x5015 JUMP JUMPDEST SWAP1 POP SWAP2 SWAP1 POP JUMP JUMPDEST PUSH32 0x4E6F7420686F6C64657200000000000000000000000000000000000000000000 PUSH0 DUP3 ADD MSTORE POP JUMP JUMPDEST PUSH0 PUSH2 0x5089 PUSH1 0xA DUP4 PUSH2 0x4002 JUMP JUMPDEST SWAP2 POP PUSH2 0x5094 DUP3 PUSH2 0x5055 JUMP JUMPDEST PUSH1 0x20 DUP3 ADD SWAP1 POP SWAP2 SWAP1 POP JUMP JUMPDEST PUSH0 PUSH1 0x20 DUP3 ADD SWAP1 POP DUP2 DUP2 SUB PUSH0 DUP4 ADD MSTORE PUSH2 0x50B6 DUP2 PUSH2 0x507D JUMP JUMPDEST SWAP1 POP SWAP2 SWAP1 POP JUMP JUMPDEST PUSH0 PUSH1 0x40 DUP3 ADD SWAP1 POP PUSH2 0x50D0 PUSH0 DUP4 ADD DUP6 PUSH2 0x45FB JUMP JUMPDEST PUSH2 0x50DD PUSH1 0x20 DUP4 ADD DUP5 PUSH2 0x4623 JUMP JUMPDEST SWAP4 SWAP3 POP POP POP JUMP JUMPDEST PUSH32 0x4F6E6C7920637573746F6D657200000000000000000000000000000000000000 PUSH0 DUP3 ADD MSTORE POP JUMP JUMPDEST PUSH0 PUSH2 0x5118 PUSH1 0xD DUP4 PUSH2 0x4002 JUMP JUMPDEST SWAP2 POP PUSH2 0x5123 DUP3 PUSH2 0x50E4 JUMP JUMPDEST PUSH1 0x20 DUP3 ADD SWAP1 POP SWAP2 SWAP1 POP JUMP JUMPDEST PUSH0 PUSH1 0x20 DUP3 ADD SWAP1 POP DUP2 DUP2 SUB PUSH0 DUP4 ADD MSTORE PUSH2 0x5145 DUP2 PUSH2 0x510C JUMP JUMPDEST SWAP1 POP SWAP2 SWAP1 POP JUMP JUMPDEST PUSH0 PUSH1 0x40 DUP3 ADD SWAP1 POP PUSH2 0x515F PUSH0 DUP4 ADD DUP6 PUSH2 0x43BB JUMP JUMPDEST PUSH2 0x516C PUSH1 0x20 DUP4 ADD DUP5 PUSH2 0x43BB JUMP JUMPDEST SWAP4 SWAP3 POP POP POP JUMP JUMPDEST PUSH32 0x4F6E6C7920737570706C69657200000000000000000000000000000000000000 PUSH0 DUP3 ADD MSTORE POP JUMP JUMPDEST PUSH0 PUSH2 0x51A7 PUSH1 0xD DUP4 PUSH2 0x4002 JUMP JUMPDEST SWAP2 POP PUSH2 0x51B2 DUP3 PUSH2 0x5173 JUMP JUMPDEST PUSH1 0x20 DUP3 ADD SWAP1 POP SWAP2 SWAP1 POP JUMP JUMPDEST PUSH0 PUSH1 0x20 DUP3 ADD SWAP1 POP DUP2 DUP2 SUB PUSH0 DUP4 ADD MSTORE PUSH2 0x51D4 DUP2 PUSH2 0x519B JUMP JUMPDEST SWAP1 POP SWAP2 SWAP1 POP JUMP JUMPDEST PUSH32 0x556E6B6E6F776E2063726F700000000000000000000000000000000000000000 PUSH0 DUP3 ADD MSTORE POP JUMP JUMPDEST PUSH0 PUSH2 0x520F PUSH1 0xC DUP4 PUSH2 0x4002 JUMP JUMPDEST SWAP2 POP PUSH2 0x521A DUP3 PUSH2 0x51DB JUMP JUMPDEST PUSH1 0x20 DUP3 ADD SWAP1 POP SWAP2 SWAP1 POP JUMP JUMPDEST PUSH0 PUSH1 0x20 DUP3 ADD SWAP1 POP DUP2 DUP2 SUB PUSH0 DUP4 ADD MSTORE PUSH2 0x523C DUP2 PUSH2 0x5203 JUMP JUMPDEST SWAP1 POP SWAP2 SWAP1 POP JUMP JUMPDEST PUSH0 PUSH1 0x60 DUP3 ADD SWAP1 POP PUSH2 0x5256 PUSH0 DUP4 ADD DUP8 PUSH2 0x45FB JUMP JUMPDEST PUSH2 0x5263 PUSH1 0x20 DUP4 ADD DUP7 PUSH2 0x4623 JUMP JUMPDEST DUP2 DUP2 SUB PUSH1 0x40 DUP4 ADD MSTORE PUSH2 0x5276 DUP2 DUP5 DUP7 PUSH2 0x4D14 JUMP JUMPDEST SWAP1 POP SWAP6 SWAP5 POP POP POP POP POP JUMP JUMPDEST PUSH0 DUP2 SWAP1 POP SWAP2 SWAP1 POP JUMP JUMPDEST PUSH2 0x529B PUSH2 0x5296 DUP3 PUSH2 0x4146 JUMP JUMPDEST PUSH2 0x5281 JUMP JUMPDEST DUP3 MSTORE POP POP JUMP JUMPDEST PUSH0 DUP2 PUSH1 0x60 SHL SWAP1 POP SWAP2 SWAP1 POP JUMP JUMPDEST PUSH0 PUSH2 0x52B7 DUP3 PUSH2 0x52A1 JUMP JUMPDEST SWAP1 POP SWAP2 SWAP1 POP JUMP JUMPDEST PUSH0 PUSH2 0x52C8 DUP3 PUSH2 0x52AD JUMP JUMPDEST SWAP1 POP SWAP2 SWAP1 POP JUMP JUMPDEST PUSH2 0x52E0 PUSH2 0x52DB DUP3 PUSH2 0x3F92 JUMP JUMPDEST PUSH2 0x52BE JUMP JUMPDEST DUP3 MSTORE POP POP JUMP JUMPDEST PUSH0 PUSH2 0x52F1 DUP3 DUP8 PUSH2 0x528A JUMP JUMPDEST PUSH1 0x20 DUP3 ADD SWAP2 POP PUSH2 0x5301 DUP3 DUP7 PUSH2 0x528A JUMP JUMPDEST PUSH1 0x20 DUP3 ADD SWAP2 POP PUSH2 0x5311 DUP3 DUP6 PUSH2 0x52CF JUMP JUMPDEST PUSH1 0x14 DUP3 ADD SWAP2 POP PUSH2 0x5321 DUP3 DUP5 PUSH2 0x528A JUMP JUMPDEST PUSH1 0x20 DUP3 ADD SWAP2 POP DUP2 SWAP1 POP SWAP6 SWAP5 POP POP POP POP POP JUMP JUMPDEST PUSH0 DUP2 MLOAD SWAP1 POP SWAP2 SWAP1 POP JUMP JUMPDEST PUSH0 DUP2 SWAP1 POP SWAP3 SWAP2 POP POP JUMP JUMPDEST PUSH0 PUSH2 0x5351 DUP3 PUSH2 0x5333 JUMP JUMPDEST PUSH2 0x535B DUP2 DUP6 PUSH2 0x533D JUMP JUMPDEST SWAP4 POP PUSH2 0x536B DUP2 DUP6 PUSH1 0x20 DUP7 ADD PUSH2 0x4012 JUMP JUMPDEST DUP1 DUP5 ADD SWAP2 POP POP SWAP3 SWAP2 POP POP JUMP JUMPDEST PUSH0 PUSH2 0x5382 DUP3 DUP5 PUSH2 0x5347 JUMP JUMPDEST SWAP2 POP DUP2 SWAP1 POP SWAP3 SWAP2 POP POP JUMP JUMPDEST PUSH0 DUP2 MLOAD SWAP1 POP PUSH2 0x539B DUP2 PUSH2 0x40BB JUMP JUMPDEST SWAP3 SWAP2 POP POP JUMP JUMPDEST PUSH0 PUSH1 0x20 DUP3 DUP5 SUB SLT ISZERO PUSH2 0x53B6 JUMPI PUSH2 0x53B5 PUSH2 0x3F6B JUMP JUMPDEST JUMPDEST PUSH0 PUSH2 0x53C3 DUP5 DUP3 DUP6 ADD PUSH2 0x538D JUMP JUMPDEST SWAP2 POP POP SWAP3 SWAP2 POP POP JUMP JUMPDEST PUSH32 0x4E487B7100000000000000000000000000000000000000000000000000000000 PUSH0 MSTORE PUSH1 0x11 PUSH1 0x4 MSTORE PUSH1 0x24 PUSH0 REVERT JUMPDEST PUSH0 PUSH2 0x5403 DUP3 PUSH2 0x4146 JUMP JUMPDEST SWAP2 POP PUSH32 0xFFFFFFFFFFFFFFFFFFFFFFFFFFFFFFFFFFFFFFFFFFFFFFFFFFFFFFFFFFFFFFFF DUP3 SUB PUSH2 0x5435 JUMPI PUSH2 0x5434 PUSH2 0x53CC JUMP JUMPDEST JUMPDEST PUSH1 0x1 DUP3 ADD SWAP1 POP SWAP2 SWAP1 POP JUMP INVALID LOG2 PUSH5 0x6970667358 0x22 SLT KECCAK256 0xD7 PUSH14 0x5D98520B58A01094E4BCD668EEAE PUSH6 0x660E9D2D78AB MSTORE8 PUSH10 0x4308A9898C3F3A64736F PUSH13 0x634300081E0033000000000000 "
		},
		"gasEstimates": {
			"creation": {
				"codeDepositCost": "4324400",
				"executionCost": "29262",
				"totalCost": "4353662"
			},
			"external": {
				"aggregatorDivideBatch(bytes32,string)": "infinite",
				"aggregatorProfiles(address)": "infinite",
				"aggregatorReceiveFromSupplier(bytes32,string)": "infinite",
				"aggregatorTransferToRetailer(bytes32,address,string)": "infinite",
				"aggregators(address)": "2924",
				"batches(bytes32)": "infinite",
				"consumerConfirmPurchase(bytes32,bool,string,string)": "infinite",
				"createUniqueCropID(uint256)": "infinite",
				"cropCount()": "2558",
				"cropIDs(uint256)": "2842",
				"crops(bytes32)": "infinite",
				"customerProfiles(address)": "infinite",
				"customers(address)": "2945",
				"exists(bytes32)": "2919",
				"farmerCollectCrop(bytes32,string,string,string,uint256)": "infinite",
				"farmerProfiles(address)": "infinite",
				"farmerTransferToSupplier(bytes32,address,string)": "infinite",
				"farmers(address)": "2878",
				"freshnessRecords(uint256)": "infinite",
				"gasTimestamp(uint256)": "infinite",
				"gasValues(uint256)": "infinite",
				"owner()": "2642",
				"purchases(bytes32)": "infinite",
				"registerAggregator(string,string,string)": "infinite",
				"registerCustomer(string,string,string)": "infinite",
				"registerFarmer(string,string,string)": "infinite",
				"registerRetailer(string,string,string)": "infinite",
				"registerSupplier(string,string,string)": "infinite",
				"retailerProfiles(address)": "infinite",
				"retailerReceiveFromAggregator(bytes32,uint256,string)": "infinite",
				"retailerTransferToConsumer(bytes32,address,string)": "infinite",
				"retailers(address)": "2900",
				"retails(bytes32)": "infinite",
				"supplierProfiles(address)": "infinite",
				"supplierReceiveFromFarmer(bytes32,uint256,string)": "infinite",
				"supplierTransferToAggregator(bytes32,address,string)": "infinite",
				"suppliers(address)": "2946",
				"supplies(bytes32)": "infinite",
				"updateFreshness(uint256,uint256,uint256,uint256)": "infinite",
				"updateGasValue(uint256,uint256)": "infinite"
			}
		},
		"methodIdentifiers": {
			"aggregatorDivideBatch(bytes32,string)": "27ed3540",
			"aggregatorProfiles(address)": "8039feef",
			"aggregatorReceiveFromSupplier(bytes32,string)": "c9820cc4",
			"aggregatorTransferToRetailer(bytes32,address,string)": "7304957b",
			"aggregators(address)": "112cdab9",
			"batches(bytes32)": "c81e25ab",
			"consumerConfirmPurchase(bytes32,bool,string,string)": "51c4add5",
			"createUniqueCropID(uint256)": "750aa2ea",
			"cropCount()": "dfd55a2c",
			"cropIDs(uint256)": "f0861b3a",
			"crops(bytes32)": "a900d628",
			"customerProfiles(address)": "49beb611",
			"customers(address)": "336989ae",
			"exists(bytes32)": "38a699a4",
			"farmerCollectCrop(bytes32,string,string,string,uint256)": "0f86a2a4",
			"farmerProfiles(address)": "92714224",
			"farmerTransferToSupplier(bytes32,address,string)": "769d0420",
			"farmers(address)": "401b2168",
			"freshnessRecords(uint256)": "a87e3fd0",
			"gasTimestamp(uint256)": "f07992b8",
			"gasValues(uint256)": "30820a26",
			"owner()": "8da5cb5b",
			"purchases(bytes32)": "7ab8dbe9",
			"registerAggregator(string,string,string)": "e9ef9cf7",
			"registerCustomer(string,string,string)": "f8e66a4d",
			"registerFarmer(string,string,string)": "29a566d2",
			"registerRetailer(string,string,string)": "4d6ec6e8",
			"registerSupplier(string,string,string)": "a1c2e79c",
			"retailerProfiles(address)": "18f13654",
			"retailerReceiveFromAggregator(bytes32,uint256,string)": "52f86467",
			"retailerTransferToConsumer(bytes32,address,string)": "4f3bedbd",
			"retailers(address)": "9a268f35",
			"retails(bytes32)": "88e46740",
			"supplierProfiles(address)": "0f5600cb",
			"supplierReceiveFromFarmer(bytes32,uint256,string)": "b71b75f4",
			"supplierTransferToAggregator(bytes32,address,string)": "6c1e9d87",
			"suppliers(address)": "16dc15fe",
			"supplies(bytes32)": "f49d66a3",
			"updateFreshness(uint256,uint256,uint256,uint256)": "d8aa4558",
			"updateGasValue(uint256,uint256)": "607f388a"
		}
	},
	"abi": [
		{
			"inputs": [],
			"stateMutability": "nonpayable",
			"type": "constructor"
		},
		{
			"anonymous": false,
			"inputs": [
				{
					"indexed": false,
					"internalType": "address",
					"name": "aggregator",
					"type": "address"
				},
				{
					"indexed": false,
					"internalType": "string",
					"name": "name",
					"type": "string"
				}
			],
			"name": "AggregatorRegistered",
			"type": "event"
		},
		{
			"anonymous": false,
			"inputs": [
				{
					"indexed": false,
					"internalType": "bytes32",
					"name": "cropID",
					"type": "bytes32"
				},
				{
					"indexed": false,
					"internalType": "string",
					"name": "date",
					"type": "string"
				}
			],
			"name": "BatchDivided",
			"type": "event"
		},
		{
			"anonymous": false,
			"inputs": [
				{
					"indexed": false,
					"internalType": "bytes32",
					"name": "cropID",
					"type": "bytes32"
				},
				{
					"indexed": false,
					"internalType": "string",
					"name": "cropType",
					"type": "string"
				},
				{
					"indexed": false,
					"internalType": "uint256",
					"name": "price",
					"type": "uint256"
				}
			],
			"name": "CropCollected",
			"type": "event"
		},
		{
			"anonymous": false,
			"inputs": [
				{
					"indexed": false,
					"internalType": "address",
					"name": "customer",
					"type": "address"
				},
				{
					"indexed": false,
					"internalType": "string",
					"name": "name",
					"type": "string"
				}
			],
			"name": "CustomerRegistered",
			"type": "event"
		},
		{
			"anonymous": false,
			"inputs": [
				{
					"indexed": false,
					"internalType": "address",
					"name": "farmer",
					"type": "address"
				},
				{
					"indexed": false,
					"internalType": "string",
					"name": "name",
					"type": "string"
				}
			],
			"name": "FarmerRegistered",
			"type": "event"
		},
		{
			"anonymous": false,
			"inputs": [
				{
					"indexed": true,
					"internalType": "uint256",
					"name": "productId",
					"type": "uint256"
				},
				{
					"indexed": false,
					"internalType": "uint256",
					"name": "gasValue",
					"type": "uint256"
				},
				{
					"indexed": false,
					"internalType": "uint256",
					"name": "temperature",
					"type": "uint256"
				},
				{
					"indexed": false,
					"internalType": "uint256",
					"name": "humidity",
					"type": "uint256"
				},
				{
					"indexed": false,
					"internalType": "uint256",
					"name": "timestamp",
					"type": "uint256"
				}
			],
			"name": "FreshnessUpdated",
			"type": "event"
		},
		{
			"anonymous": false,
			"inputs": [
				{
					"indexed": true,
					"internalType": "uint256",
					"name": "productId",
					"type": "uint256"
				},
				{
					"indexed": false,
					"internalType": "uint256",
					"name": "gasValue",
					"type": "uint256"
				},
				{
					"indexed": false,
					"internalType": "uint256",
					"name": "timestamp",
					"type": "uint256"
				}
			],
			"name": "GasUpdated",
			"type": "event"
		},
		{
			"anonymous": false,
			"inputs": [
				{
					"indexed": false,
					"internalType": "bytes32",
					"name": "cropID",
					"type": "bytes32"
				},
				{
					"indexed": false,
					"internalType": "address",
					"name": "buyer",
					"type": "address"
				}
			],
			"name": "PurchaseConfirmed",
			"type": "event"
		},
		{
			"anonymous": false,
			"inputs": [
				{
					"indexed": false,
					"internalType": "bytes32",
					"name": "cropID",
					"type": "bytes32"
				},
				{
					"indexed": false,
					"internalType": "address",
					"name": "retailer",
					"type": "address"
				}
			],
			"name": "ReceivedFromAggregator",
			"type": "event"
		},
		{
			"anonymous": false,
			"inputs": [
				{
					"indexed": false,
					"internalType": "bytes32",
					"name": "cropID",
					"type": "bytes32"
				},
				{
					"indexed": false,
					"internalType": "address",
					"name": "supplier",
					"type": "address"
				}
			],
			"name": "ReceivedFromFarmer",
			"type": "event"
		},
		{
			"anonymous": false,
			"inputs": [
				{
					"indexed": false,
					"internalType": "bytes32",
					"name": "cropID",
					"type": "bytes32"
				},
				{
					"indexed": false,
					"internalType": "address",
					"name": "aggregator",
					"type": "address"
				}
			],
			"name": "ReceivedFromSupplier",
			"type": "event"
		},
		{
			"anonymous": false,
			"inputs": [
				{
					"indexed": false,
					"internalType": "address",
					"name": "retailer",
					"type": "address"
				},
				{
					"indexed": false,
					"internalType": "string",
					"name": "name",
					"type": "string"
				}
			],
			"name": "RetailerRegistered",
			"type": "event"
		},
		{
			"anonymous": false,
			"inputs": [
				{
					"indexed": false,
					"internalType": "address",
					"name": "supplier",
					"type": "address"
				},
				{
					"indexed": false,
					"internalType": "string",
					"name": "name",
					"type": "string"
				}
			],
			"name": "SupplierRegistered",
			"type": "event"
		},
		{
			"anonymous": false,
			"inputs": [
				{
					"indexed": false,
					"internalType": "bytes32",
					"name": "cropID",
					"type": "bytes32"
				},
				{
					"indexed": false,
					"internalType": "address",
					"name": "aggregator",
					"type": "address"
				}
			],
			"name": "TransferredToAggregator",
			"type": "event"
		},
		{
			"anonymous": false,
			"inputs": [
				{
					"indexed": false,
					"internalType": "bytes32",
					"name": "cropID",
					"type": "bytes32"
				},
				{
					"indexed": false,
					"internalType": "address",
					"name": "consumer",
					"type": "address"
				}
			],
			"name": "TransferredToConsumer",
			"type": "event"
		},
		{
			"anonymous": false,
			"inputs": [
				{
					"indexed": false,
					"internalType": "bytes32",
					"name": "cropID",
					"type": "bytes32"
				},
				{
					"indexed": false,
					"internalType": "address",
					"name": "retailer",
					"type": "address"
				}
			],
			"name": "TransferredToRetailer",
			"type": "event"
		},
		{
			"anonymous": false,
			"inputs": [
				{
					"indexed": false,
					"internalType": "bytes32",
					"name": "cropID",
					"type": "bytes32"
				},
				{
					"indexed": false,
					"internalType": "address",
					"name": "supplier",
					"type": "address"
				},
				{
					"indexed": false,
					"internalType": "string",
					"name": "date",
					"type": "string"
				}
			],
			"name": "TransferredToSupplier",
			"type": "event"
		},
		{
			"inputs": [
				{
					"internalType": "bytes32",
					"name": "cropID",
					"type": "bytes32"
				},
				{
					"internalType": "string",
					"name": "date",
					"type": "string"
				}
			],
			"name": "aggregatorDivideBatch",
			"outputs": [],
			"stateMutability": "nonpayable",
			"type": "function"
		},
		{
			"inputs": [
				{
					"internalType": "address",
					"name": "",
					"type": "address"
				}
			],
			"name": "aggregatorProfiles",
			"outputs": [
				{
					"internalType": "string",
					"name": "name",
					"type": "string"
				},
				{
					"internalType": "string",
					"name": "location",
					"type": "string"
				},
				{
					"internalType": "string",
					"name": "contact",
					"type": "string"
				}
			],
			"stateMutability": "view",
			"type": "function"
		},
		{
			"inputs": [
				{
					"internalType": "bytes32",
					"name": "cropID",
					"type": "bytes32"
				},
				{
					"internalType": "string",
					"name": "date",
					"type": "string"
				}
			],
			"name": "aggregatorReceiveFromSupplier",
			"outputs": [],
			"stateMutability": "nonpayable",
			"type": "function"
		},
		{
			"inputs": [
				{
					"internalType": "bytes32",
					"name": "cropID",
					"type": "bytes32"
				},
				{
					"internalType": "address",
					"name": "retailer",
					"type": "address"
				},
				{
					"internalType": "string",
					"name": "transferDate",
					"type": "string"
				}
			],
			"name": "aggregatorTransferToRetailer",
			"outputs": [],
			"stateMutability": "nonpayable",
			"type": "function"
		},
		{
			"inputs": [
				{
					"internalType": "address",
					"name": "",
					"type": "address"
				}
			],
			"name": "aggregators",
			"outputs": [
				{
					"internalType": "bool",
					"name": "",
					"type": "bool"
				}
			],
			"stateMutability": "view",
			"type": "function"
		},
		{
			"inputs": [
				{
					"internalType": "bytes32",
					"name": "",
					"type": "bytes32"
				}
			],
			"name": "batches",
			"outputs": [
				{
					"internalType": "bytes32",
					"name": "cropID",
					"type": "bytes32"
				},
				{
					"internalType": "bool",
					"name": "received",
					"type": "bool"
				},
				{
					"internalType": "string",
					"name": "receivedDate",
					"type": "string"
				},
				{
					"internalType": "bool",
					"name": "divided",
					"type": "bool"
				},
				{
					"internalType": "string",
					"name": "dividedDate",
					"type": "string"
				},
				{
					"internalType": "string",
					"name": "transferDate",
					"type": "string"
				},
				{
					"internalType": "address",
					"name": "currentHolder",
					"type": "address"
				}
			],
			"stateMutability": "view",
			"type": "function"
		},
		{
			"inputs": [
				{
					"internalType": "bytes32",
					"name": "cropID",
					"type": "bytes32"
				},
				{
					"internalType": "bool",
					"name": "_purchased",
					"type": "bool"
				},
				{
					"internalType": "string",
					"name": "_feedback",
					"type": "string"
				},
				{
					"internalType": "string",
					"name": "_date",
					"type": "string"
				}
			],
			"name": "consumerConfirmPurchase",
			"outputs": [],
			"stateMutability": "nonpayable",
			"type": "function"
		},
		{
			"inputs": [
				{
					"internalType": "uint256",
					"name": "seed",
					"type": "uint256"
				}
			],
			"name": "createUniqueCropID",
			"outputs": [
				{
					"internalType": "bytes32",
					"name": "",
					"type": "bytes32"
				}
			],
			"stateMutability": "nonpayable",
			"type": "function"
		},
		{
			"inputs": [],
			"name": "cropCount",
			"outputs": [
				{
					"internalType": "uint256",
					"name": "",
					"type": "uint256"
				}
			],
			"stateMutability": "view",
			"type": "function"
		},
		{
			"inputs": [
				{
					"internalType": "uint256",
					"name": "",
					"type": "uint256"
				}
			],
			"name": "cropIDs",
			"outputs": [
				{
					"internalType": "bytes32",
					"name": "",
					"type": "bytes32"
				}
			],
			"stateMutability": "view",
			"type": "function"
		},
		{
			"inputs": [
				{
					"internalType": "bytes32",
					"name": "",
					"type": "bytes32"
				}
			],
			"name": "crops",
			"outputs": [
				{
					"internalType": "bytes32",
					"name": "cropID",
					"type": "bytes32"
				},
				{
					"internalType": "string",
					"name": "cropType",
					"type": "string"
				},
				{
					"internalType": "string",
					"name": "origin",
					"type": "string"
				},
				{
					"internalType": "string",
					"name": "date",
					"type": "string"
				},
				{
					"internalType": "uint256",
					"name": "price",
					"type": "uint256"
				},
				{
					"internalType": "enum Farmer.Stage",
					"name": "stage",
					"type": "uint8"
				},
				{
					"internalType": "address",
					"name": "currentHolder",
					"type": "address"
				},
				{
					"internalType": "string",
					"name": "transferDate",
					"type": "string"
				}
			],
			"stateMutability": "view",
			"type": "function"
		},
		{
			"inputs": [
				{
					"internalType": "address",
					"name": "",
					"type": "address"
				}
			],
			"name": "customerProfiles",
			"outputs": [
				{
					"internalType": "string",
					"name": "name",
					"type": "string"
				},
				{
					"internalType": "string",
					"name": "location",
					"type": "string"
				},
				{
					"internalType": "string",
					"name": "contact",
					"type": "string"
				}
			],
			"stateMutability": "view",
			"type": "function"
		},
		{
			"inputs": [
				{
					"internalType": "address",
					"name": "",
					"type": "address"
				}
			],
			"name": "customers",
			"outputs": [
				{
					"internalType": "bool",
					"name": "",
					"type": "bool"
				}
			],
			"stateMutability": "view",
			"type": "function"
		},
		{
			"inputs": [
				{
					"internalType": "bytes32",
					"name": "",
					"type": "bytes32"
				}
			],
			"name": "exists",
			"outputs": [
				{
					"internalType": "bool",
					"name": "",
					"type": "bool"
				}
			],
			"stateMutability": "view",
			"type": "function"
		},
		{
			"inputs": [
				{
					"internalType": "bytes32",
					"name": "cropID",
					"type": "bytes32"
				},
				{
					"internalType": "string",
					"name": "cropType",
					"type": "string"
				},
				{
					"internalType": "string",
					"name": "origin",
					"type": "string"
				},
				{
					"internalType": "string",
					"name": "date",
					"type": "string"
				},
				{
					"internalType": "uint256",
					"name": "price",
					"type": "uint256"
				}
			],
			"name": "farmerCollectCrop",
			"outputs": [],
			"stateMutability": "nonpayable",
			"type": "function"
		},
		{
			"inputs": [
				{
					"internalType": "address",
					"name": "",
					"type": "address"
				}
			],
			"name": "farmerProfiles",
			"outputs": [
				{
					"internalType": "string",
					"name": "name",
					"type": "string"
				},
				{
					"internalType": "string",
					"name": "location",
					"type": "string"
				},
				{
					"internalType": "string",
					"name": "contact",
					"type": "string"
				}
			],
			"stateMutability": "view",
			"type": "function"
		},
		{
			"inputs": [
				{
					"internalType": "bytes32",
					"name": "cropID",
					"type": "bytes32"
				},
				{
					"internalType": "address",
					"name": "supplier",
					"type": "address"
				},
				{
					"internalType": "string",
					"name": "transferDate",
					"type": "string"
				}
			],
			"name": "farmerTransferToSupplier",
			"outputs": [],
			"stateMutability": "nonpayable",
			"type": "function"
		},
		{
			"inputs": [
				{
					"internalType": "address",
					"name": "",
					"type": "address"
				}
			],
			"name": "farmers",
			"outputs": [
				{
					"internalType": "bool",
					"name": "",
					"type": "bool"
				}
			],
			"stateMutability": "view",
			"type": "function"
		},
		{
			"inputs": [
				{
					"internalType": "uint256",
					"name": "",
					"type": "uint256"
				}
			],
			"name": "freshnessRecords",
			"outputs": [
				{
					"internalType": "uint256",
					"name": "gasValue",
					"type": "uint256"
				},
				{
					"internalType": "uint256",
					"name": "temperature",
					"type": "uint256"
				},
				{
					"internalType": "uint256",
					"name": "humidity",
					"type": "uint256"
				},
				{
					"internalType": "uint256",
					"name": "timestamp",
					"type": "uint256"
				}
			],
			"stateMutability": "view",
			"type": "function"
		},
		{
			"inputs": [
				{
					"internalType": "uint256",
					"name": "",
					"type": "uint256"
				}
			],
			"name": "gasTimestamp",
			"outputs": [
				{
					"internalType": "uint256",
					"name": "",
					"type": "uint256"
				}
			],
			"stateMutability": "view",
			"type": "function"
		},
		{
			"inputs": [
				{
					"internalType": "uint256",
					"name": "",
					"type": "uint256"
				}
			],
			"name": "gasValues",
			"outputs": [
				{
					"internalType": "uint256",
					"name": "",
					"type": "uint256"
				}
			],
			"stateMutability": "view",
			"type": "function"
		},
		{
			"inputs": [],
			"name": "owner",
			"outputs": [
				{
					"internalType": "address",
					"name": "",
					"type": "address"
				}
			],
			"stateMutability": "view",
			"type": "function"
		},
		{
			"inputs": [
				{
					"internalType": "bytes32",
					"name": "",
					"type": "bytes32"
				}
			],
			"name": "purchases",
			"outputs": [
				{
					"internalType": "bytes32",
					"name": "cropID",
					"type": "bytes32"
				},
				{
					"internalType": "bool",
					"name": "purchased",
					"type": "bool"
				},
				{
					"internalType": "string",
					"name": "feedback",
					"type": "string"
				},
				{
					"internalType": "string",
					"name": "purchaseDate",
					"type": "string"
				},
				{
					"internalType": "address",
					"name": "buyer",
					"type": "address"
				}
			],
			"stateMutability": "view",
			"type": "function"
		},
		{
			"inputs": [
				{
					"internalType": "string",
					"name": "name",
					"type": "string"
				},
				{
					"internalType": "string",
					"name": "location",
					"type": "string"
				},
				{
					"internalType": "string",
					"name": "contact",
					"type": "string"
				}
			],
			"name": "registerAggregator",
			"outputs": [],
			"stateMutability": "nonpayable",
			"type": "function"
		},
		{
			"inputs": [
				{
					"internalType": "string",
					"name": "name",
					"type": "string"
				},
				{
					"internalType": "string",
					"name": "location",
					"type": "string"
				},
				{
					"internalType": "string",
					"name": "contact",
					"type": "string"
				}
			],
			"name": "registerCustomer",
			"outputs": [],
			"stateMutability": "nonpayable",
			"type": "function"
		},
		{
			"inputs": [
				{
					"internalType": "string",
					"name": "name",
					"type": "string"
				},
				{
					"internalType": "string",
					"name": "location",
					"type": "string"
				},
				{
					"internalType": "string",
					"name": "contact",
					"type": "string"
				}
			],
			"name": "registerFarmer",
			"outputs": [],
			"stateMutability": "nonpayable",
			"type": "function"
		},
		{
			"inputs": [
				{
					"internalType": "string",
					"name": "name",
					"type": "string"
				},
				{
					"internalType": "string",
					"name": "location",
					"type": "string"
				},
				{
					"internalType": "string",
					"name": "contact",
					"type": "string"
				}
			],
			"name": "registerRetailer",
			"outputs": [],
			"stateMutability": "nonpayable",
			"type": "function"
		},
		{
			"inputs": [
				{
					"internalType": "string",
					"name": "name",
					"type": "string"
				},
				{
					"internalType": "string",
					"name": "location",
					"type": "string"
				},
				{
					"internalType": "string",
					"name": "contact",
					"type": "string"
				}
			],
			"name": "registerSupplier",
			"outputs": [],
			"stateMutability": "nonpayable",
			"type": "function"
		},
		{
			"inputs": [
				{
					"internalType": "address",
					"name": "",
					"type": "address"
				}
			],
			"name": "retailerProfiles",
			"outputs": [
				{
					"internalType": "string",
					"name": "name",
					"type": "string"
				},
				{
					"internalType": "string",
					"name": "location",
					"type": "string"
				},
				{
					"internalType": "string",
					"name": "contact",
					"type": "string"
				}
			],
			"stateMutability": "view",
			"type": "function"
		},
		{
			"inputs": [
				{
					"internalType": "bytes32",
					"name": "cropID",
					"type": "bytes32"
				},
				{
					"internalType": "uint256",
					"name": "retailPrice",
					"type": "uint256"
				},
				{
					"internalType": "string",
					"name": "date",
					"type": "string"
				}
			],
			"name": "retailerReceiveFromAggregator",
			"outputs": [],
			"stateMutability": "nonpayable",
			"type": "function"
		},
		{
			"inputs": [
				{
					"internalType": "bytes32",
					"name": "cropID",
					"type": "bytes32"
				},
				{
					"internalType": "address",
					"name": "consumer",
					"type": "address"
				},
				{
					"internalType": "string",
					"name": "transferDate",
					"type": "string"
				}
			],
			"name": "retailerTransferToConsumer",
			"outputs": [],
			"stateMutability": "nonpayable",
			"type": "function"
		},
		{
			"inputs": [
				{
					"internalType": "address",
					"name": "",
					"type": "address"
				}
			],
			"name": "retailers",
			"outputs": [
				{
					"internalType": "bool",
					"name": "",
					"type": "bool"
				}
			],
			"stateMutability": "view",
			"type": "function"
		},
		{
			"inputs": [
				{
					"internalType": "bytes32",
					"name": "",
					"type": "bytes32"
				}
			],
			"name": "retails",
			"outputs": [
				{
					"internalType": "bytes32",
					"name": "cropID",
					"type": "bytes32"
				},
				{
					"internalType": "uint256",
					"name": "retailPrice",
					"type": "uint256"
				},
				{
					"internalType": "string",
					"name": "receivedDate",
					"type": "string"
				},
				{
					"internalType": "string",
					"name": "transferDate",
					"type": "string"
				},
				{
					"internalType": "address",
					"name": "holder",
					"type": "address"
				}
			],
			"stateMutability": "view",
			"type": "function"
		},
		{
			"inputs": [
				{
					"internalType": "address",
					"name": "",
					"type": "address"
				}
			],
			"name": "supplierProfiles",
			"outputs": [
				{
					"internalType": "string",
					"name": "name",
					"type": "string"
				},
				{
					"internalType": "string",
					"name": "location",
					"type": "string"
				},
				{
					"internalType": "string",
					"name": "contact",
					"type": "string"
				}
			],
			"stateMutability": "view",
			"type": "function"
		},
		{
			"inputs": [
				{
					"internalType": "bytes32",
					"name": "cropID",
					"type": "bytes32"
				},
				{
					"internalType": "uint256",
					"name": "transportCost",
					"type": "uint256"
				},
				{
					"internalType": "string",
					"name": "date",
					"type": "string"
				}
			],
			"name": "supplierReceiveFromFarmer",
			"outputs": [],
			"stateMutability": "nonpayable",
			"type": "function"
		},
		{
			"inputs": [
				{
					"internalType": "bytes32",
					"name": "cropID",
					"type": "bytes32"
				},
				{
					"internalType": "address",
					"name": "aggregator",
					"type": "address"
				},
				{
					"internalType": "string",
					"name": "transferDate",
					"type": "string"
				}
			],
			"name": "supplierTransferToAggregator",
			"outputs": [],
			"stateMutability": "nonpayable",
			"type": "function"
		},
		{
			"inputs": [
				{
					"internalType": "address",
					"name": "",
					"type": "address"
				}
			],
			"name": "suppliers",
			"outputs": [
				{
					"internalType": "bool",
					"name": "",
					"type": "bool"
				}
			],
			"stateMutability": "view",
			"type": "function"
		},
		{
			"inputs": [
				{
					"internalType": "bytes32",
					"name": "",
					"type": "bytes32"
				}
			],
			"name": "supplies",
			"outputs": [
				{
					"internalType": "bytes32",
					"name": "cropID",
					"type": "bytes32"
				},
				{
					"internalType": "uint256",
					"name": "transportCost",
					"type": "uint256"
				},
				{
					"internalType": "string",
					"name": "receivedDate",
					"type": "string"
				},
				{
					"internalType": "string",
					"name": "transferDate",
					"type": "string"
				},
				{
					"internalType": "address",
					"name": "currentHolder",
					"type": "address"
				}
			],
			"stateMutability": "view",
			"type": "function"
		},
		{
			"inputs": [
				{
					"internalType": "uint256",
					"name": "productId",
					"type": "uint256"
				},
				{
					"internalType": "uint256",
					"name": "gasValue",
					"type": "uint256"
				},
				{
					"internalType": "uint256",
					"name": "temperature",
					"type": "uint256"
				},
				{
					"internalType": "uint256",
					"name": "humidity",
					"type": "uint256"
				}
			],
			"name": "updateFreshness",
			"outputs": [
				{
					"internalType": "bool",
					"name": "",
					"type": "bool"
				}
			],
			"stateMutability": "nonpayable",
			"type": "function"
		},
		{
			"inputs": [
				{
					"internalType": "uint256",
					"name": "productId",
					"type": "uint256"
				},
				{
					"internalType": "uint256",
					"name": "gasValue",
					"type": "uint256"
				}
			],
			"name": "updateGasValue",
			"outputs": [
				{
					"internalType": "bool",
					"name": "",
					"type": "bool"
				}
			],
			"stateMutability": "nonpayable",
			"type": "function"
		}
	]
}