{
  "contractName": "TrackSupplyChain",
  "abi": [
    {
      "inputs": [],
      "stateMutability": "nonpayable",
      "type": "constructor"
    },
    {
      "anonymous": false,
      "inputs": [
        {
          "indexed": false,
          "internalType": "address",
          "name": "aggregator",
          "type": "address"
        },
        {
          "indexed": false,
          "internalType": "string",
          "name": "name",
          "type": "string"
        }
      ],
      "name": "AggregatorRegistered",
      "type": "event"
    },
    {
      "anonymous": false,
      "inputs": [
        {
          "indexed": false,
          "internalType": "bytes32",
          "name": "cropID",
          "type": "bytes32"
        },
        {
          "indexed": false,
          "internalType": "string",
          "name": "date",
          "type": "string"
        }
      ],
      "name": "BatchDivided",
      "type": "event"
    },
    {
      "anonymous": false,
      "inputs": [
        {
          "indexed": true,
          "internalType": "bytes32",
          "name": "cropID",
          "type": "bytes32"
        },
        {
          "indexed": true,
          "internalType": "address",
          "name": "farmer",
          "type": "address"
        },
        {
          "indexed": false,
          "internalType": "string",
          "name": "cropType",
          "type": "string"
        },
        {
          "indexed": false,
          "internalType": "string",
          "name": "origin",
          "type": "string"
        },
        {
          "indexed": false,
          "internalType": "uint256",
          "name": "price",
          "type": "uint256"
        },
        {
          "indexed": false,
          "internalType": "uint256",
          "name": "timestamp",
          "type": "uint256"
        }
      ],
      "name": "CropCollected",
      "type": "event"
    },
    {
      "anonymous": false,
      "inputs": [
        {
          "indexed": true,
          "internalType": "bytes32",
          "name": "cropID",
          "type": "bytes32"
        },
        {
          "indexed": true,
          "internalType": "address",
          "name": "from",
          "type": "address"
        },
        {
          "indexed": true,
          "internalType": "address",
          "name": "to",
          "type": "address"
        },
        {
          "indexed": false,
          "internalType": "string",
          "name": "purchaseDate",
          "type": "string"
        },
        {
          "indexed": false,
          "internalType": "string",
          "name": "feedback",
          "type": "string"
        },
        {
          "indexed": false,
          "internalType": "uint256",
          "name": "timestamp",
          "type": "uint256"
        }
      ],
      "name": "CropPurchased",
      "type": "event"
    },
    {
      "anonymous": false,
      "inputs": [
        {
          "indexed": true,
          "internalType": "bytes32",
          "name": "cropID",
          "type": "bytes32"
        },
        {
          "indexed": true,
          "internalType": "address",
          "name": "from",
          "type": "address"
        },
        {
          "indexed": true,
          "internalType": "address",
          "name": "to",
          "type": "address"
        },
        {
          "indexed": false,
          "internalType": "uint256",
          "name": "cost",
          "type": "uint256"
        },
        {
          "indexed": false,
          "internalType": "string",
          "name": "date",
          "type": "string"
        },
        {
          "indexed": false,
          "internalType": "uint256",
          "name": "timestamp",
          "type": "uint256"
        }
      ],
      "name": "CropReceived",
      "type": "event"
    },
    {
      "anonymous": false,
      "inputs": [
        {
          "indexed": true,
          "internalType": "bytes32",
          "name": "cropID",
          "type": "bytes32"
        },
        {
          "indexed": true,
          "internalType": "address",
          "name": "from",
          "type": "address"
        },
        {
          "indexed": true,
          "internalType": "address",
          "name": "to",
          "type": "address"
        },
        {
          "indexed": false,
          "internalType": "string",
          "name": "transferDate",
          "type": "string"
        },
        {
          "indexed": false,
          "internalType": "uint256",
          "name": "timestamp",
          "type": "uint256"
        }
      ],
      "name": "CropTransferred",
      "type": "event"
    },
    {
      "anonymous": false,
      "inputs": [
        {
          "indexed": true,
          "internalType": "address",
          "name": "customer",
          "type": "address"
        },
        {
          "indexed": false,
          "internalType": "string",
          "name": "name",
          "type": "string"
        }
      ],
      "name": "CustomerRegistered",
      "type": "event"
    },
    {
      "anonymous": false,
      "inputs": [
        {
          "indexed": true,
          "internalType": "address",
          "name": "farmer",
          "type": "address"
        },
        {
          "indexed": false,
          "internalType": "string",
          "name": "name",
          "type": "string"
        }
      ],
      "name": "FarmerRegistered",
      "type": "event"
    },
    {
      "anonymous": false,
      "inputs": [
        {
          "indexed": true,
          "internalType": "bytes32",
          "name": "cropID",
          "type": "bytes32"
        },
        {
          "indexed": false,
          "internalType": "uint256",
          "name": "gasValue",
          "type": "uint256"
        },
        {
          "indexed": false,
          "internalType": "uint256",
          "name": "temperature",
          "type": "uint256"
        },
        {
          "indexed": false,
          "internalType": "uint256",
          "name": "humidity",
          "type": "uint256"
        },
        {
          "indexed": false,
          "internalType": "uint256",
          "name": "timestamp",
          "type": "uint256"
        }
      ],
      "name": "FreshnessUpdated",
      "type": "event"
    },
    {
      "anonymous": false,
      "inputs": [
        {
          "indexed": false,
          "internalType": "bytes32",
          "name": "cropID",
          "type": "bytes32"
        },
        {
          "indexed": false,
          "internalType": "address",
          "name": "aggregator",
          "type": "address"
        }
      ],
      "name": "ReceivedFromSupplier",
      "type": "event"
    },
    {
      "anonymous": false,
      "inputs": [
        {
          "indexed": true,
          "internalType": "address",
          "name": "retailer",
          "type": "address"
        },
        {
          "indexed": false,
          "internalType": "string",
          "name": "name",
          "type": "string"
        }
      ],
      "name": "RetailerRegistered",
      "type": "event"
    },
    {
      "anonymous": false,
      "inputs": [
        {
          "indexed": true,
          "internalType": "address",
          "name": "supplier",
          "type": "address"
        },
        {
          "indexed": false,
          "internalType": "string",
          "name": "name",
          "type": "string"
        }
      ],
      "name": "SupplierRegistered",
      "type": "event"
    },
    {
      "anonymous": false,
      "inputs": [
        {
          "indexed": false,
          "internalType": "bytes32",
          "name": "cropID",
          "type": "bytes32"
        },
        {
          "indexed": false,
          "internalType": "address",
          "name": "retailer",
          "type": "address"
        }
      ],
      "name": "TransferredToRetailer",
      "type": "event"
    },
    {
      "inputs": [
        {
          "internalType": "bytes32",
          "name": "cropID",
          "type": "bytes32"
        },
        {
          "internalType": "string",
          "name": "date",
          "type": "string"
        }
      ],
      "name": "aggregatorDivideBatch",
      "outputs": [],
      "stateMutability": "nonpayable",
      "type": "function"
    },
    {
      "inputs": [
        {
          "internalType": "address",
          "name": "",
          "type": "address"
        }
      ],
      "name": "aggregatorProfiles",
      "outputs": [
        {
          "internalType": "string",
          "name": "name",
          "type": "string"
        },
        {
          "internalType": "string",
          "name": "location",
          "type": "string"
        },
        {
          "internalType": "string",
          "name": "contact",
          "type": "string"
        }
      ],
      "stateMutability": "view",
      "type": "function",
      "constant": true
    },
    {
      "inputs": [
        {
          "internalType": "bytes32",
          "name": "cropID",
          "type": "bytes32"
        },
        {
          "internalType": "uint256",
          "name": "processingCost",
          "type": "uint256"
        },
        {
          "internalType": "string",
          "name": "date",
          "type": "string"
        }
      ],
      "name": "aggregatorReceiveFromSupplier",
      "outputs": [],
      "stateMutability": "nonpayable",
      "type": "function"
    },
    {
      "inputs": [
        {
          "internalType": "bytes32",
          "name": "cropID",
          "type": "bytes32"
        },
        {
          "internalType": "address",
          "name": "retailer",
          "type": "address"
        },
        {
          "internalType": "string",
          "name": "transferDate",
          "type": "string"
        }
      ],
      "name": "aggregatorTransferToRetailer",
      "outputs": [],
      "stateMutability": "nonpayable",
      "type": "function"
    },
    {
      "inputs": [
        {
          "internalType": "address",
          "name": "",
          "type": "address"
        }
      ],
      "name": "aggregators",
      "outputs": [
        {
          "internalType": "bool",
          "name": "",
          "type": "bool"
        }
      ],
      "stateMutability": "view",
      "type": "function",
      "constant": true
    },
    {
      "inputs": [
        {
          "internalType": "bytes32",
          "name": "",
          "type": "bytes32"
        }
      ],
      "name": "batches",
      "outputs": [
        {
          "internalType": "bytes32",
          "name": "cropID",
          "type": "bytes32"
        },
        {
          "internalType": "bool",
          "name": "received",
          "type": "bool"
        },
        {
          "internalType": "string",
          "name": "receivedDate",
          "type": "string"
        },
        {
          "internalType": "bool",
          "name": "divided",
          "type": "bool"
        },
        {
          "internalType": "string",
          "name": "dividedDate",
          "type": "string"
        },
        {
          "internalType": "string",
          "name": "transferDate",
          "type": "string"
        },
        {
          "internalType": "address",
          "name": "currentHolder",
          "type": "address"
        },
        {
          "internalType": "uint256",
          "name": "processingCost",
          "type": "uint256"
        },
        {
          "internalType": "bool",
          "name": "exists",
          "type": "bool"
        }
      ],
      "stateMutability": "view",
      "type": "function",
      "constant": true
    },
    {
      "inputs": [
        {
          "internalType": "bytes32",
          "name": "cropID",
          "type": "bytes32"
        },
        {
          "internalType": "bool",
          "name": "_purchased",
          "type": "bool"
        },
        {
          "internalType": "string",
          "name": "_feedback",
          "type": "string"
        },
        {
          "internalType": "string",
          "name": "_date",
          "type": "string"
        }
      ],
      "name": "consumerConfirmPurchase",
      "outputs": [],
      "stateMutability": "nonpayable",
      "type": "function"
    },
    {
      "inputs": [
        {
          "internalType": "uint256",
          "name": "seed",
          "type": "uint256"
        }
      ],
      "name": "createUniqueCropID",
      "outputs": [
        {
          "internalType": "bytes32",
          "name": "",
          "type": "bytes32"
        }
      ],
      "stateMutability": "nonpayable",
      "type": "function"
    },
    {
      "inputs": [],
      "name": "cropCount",
      "outputs": [
        {
          "internalType": "uint256",
          "name": "",
          "type": "uint256"
        }
      ],
      "stateMutability": "view",
      "type": "function",
      "constant": true
    },
    {
      "inputs": [
        {
          "internalType": "uint256",
          "name": "",
          "type": "uint256"
        }
      ],
      "name": "cropIDs",
      "outputs": [
        {
          "internalType": "bytes32",
          "name": "",
          "type": "bytes32"
        }
      ],
      "stateMutability": "view",
      "type": "function",
      "constant": true
    },
    {
      "inputs": [
        {
          "internalType": "bytes32",
          "name": "",
          "type": "bytes32"
        }
      ],
      "name": "crops",
      "outputs": [
        {
          "internalType": "bytes32",
          "name": "cropID",
          "type": "bytes32"
        },
        {
          "internalType": "string",
          "name": "cropType",
          "type": "string"
        },
        {
          "internalType": "string",
          "name": "origin",
          "type": "string"
        },
        {
          "internalType": "string",
          "name": "date",
          "type": "string"
        },
        {
          "internalType": "uint256",
          "name": "price",
          "type": "uint256"
        },
        {
          "internalType": "enum Farmer.Stage",
          "name": "stage",
          "type": "uint8"
        },
        {
          "internalType": "address",
          "name": "currentHolder",
          "type": "address"
        },
        {
          "internalType": "string",
          "name": "transferDate",
          "type": "string"
        },
        {
          "internalType": "bool",
          "name": "exists",
          "type": "bool"
        }
      ],
      "stateMutability": "view",
      "type": "function",
      "constant": true
    },
    {
      "inputs": [
        {
          "internalType": "address",
          "name": "",
          "type": "address"
        }
      ],
      "name": "customerProfiles",
      "outputs": [
        {
          "internalType": "string",
          "name": "name",
          "type": "string"
        },
        {
          "internalType": "string",
          "name": "location",
          "type": "string"
        },
        {
          "internalType": "string",
          "name": "contact",
          "type": "string"
        }
      ],
      "stateMutability": "view",
      "type": "function",
      "constant": true
    },
    {
      "inputs": [
        {
          "internalType": "address",
          "name": "",
          "type": "address"
        }
      ],
      "name": "customers",
      "outputs": [
        {
          "internalType": "bool",
          "name": "",
          "type": "bool"
        }
      ],
      "stateMutability": "view",
      "type": "function",
      "constant": true
    },
    {
      "inputs": [
        {
          "internalType": "bytes32",
          "name": "",
          "type": "bytes32"
        }
      ],
      "name": "exists",
      "outputs": [
        {
          "internalType": "bool",
          "name": "",
          "type": "bool"
        }
      ],
      "stateMutability": "view",
      "type": "function",
      "constant": true
    },
    {
      "inputs": [
        {
          "internalType": "bytes32",
          "name": "cropID",
          "type": "bytes32"
        },
        {
          "internalType": "string",
          "name": "cropType",
          "type": "string"
        },
        {
          "internalType": "string",
          "name": "origin",
          "type": "string"
        },
        {
          "internalType": "string",
          "name": "date",
          "type": "string"
        },
        {
          "internalType": "uint256",
          "name": "price",
          "type": "uint256"
        }
      ],
      "name": "farmerCollectCrop",
      "outputs": [],
      "stateMutability": "nonpayable",
      "type": "function"
    },
    {
      "inputs": [
        {
          "internalType": "address",
          "name": "",
          "type": "address"
        }
      ],
      "name": "farmerProfiles",
      "outputs": [
        {
          "internalType": "string",
          "name": "name",
          "type": "string"
        },
        {
          "internalType": "string",
          "name": "location",
          "type": "string"
        },
        {
          "internalType": "string",
          "name": "contact",
          "type": "string"
        }
      ],
      "stateMutability": "view",
      "type": "function",
      "constant": true
    },
    {
      "inputs": [
        {
          "internalType": "bytes32",
          "name": "cropID",
          "type": "bytes32"
        },
        {
          "internalType": "address",
          "name": "supplier",
          "type": "address"
        },
        {
          "internalType": "string",
          "name": "transferDate",
          "type": "string"
        }
      ],
      "name": "farmerTransferToSupplier",
      "outputs": [],
      "stateMutability": "nonpayable",
      "type": "function"
    },
    {
      "inputs": [
        {
          "internalType": "address",
          "name": "",
          "type": "address"
        }
      ],
      "name": "farmers",
      "outputs": [
        {
          "internalType": "bool",
          "name": "",
          "type": "bool"
        }
      ],
      "stateMutability": "view",
      "type": "function",
      "constant": true
    },
    {
      "inputs": [
        {
          "internalType": "bytes32",
          "name": "cropID",
          "type": "bytes32"
        }
      ],
      "name": "getBatch",
      "outputs": [
        {
          "internalType": "bool",
          "name": "received",
          "type": "bool"
        },
        {
          "internalType": "string",
          "name": "receivedDate",
          "type": "string"
        },
        {
          "internalType": "bool",
          "name": "divided",
          "type": "bool"
        },
        {
          "internalType": "string",
          "name": "dividedDate",
          "type": "string"
        },
        {
          "internalType": "string",
          "name": "transferDate",
          "type": "string"
        },
        {
          "internalType": "address",
          "name": "holder",
          "type": "address"
        },
        {
          "internalType": "uint256",
          "name": "processingCost",
          "type": "uint256"
        }
      ],
      "stateMutability": "view",
      "type": "function",
      "constant": true
    },
    {
      "inputs": [
        {
          "internalType": "bytes32",
          "name": "cropID",
          "type": "bytes32"
        }
      ],
      "name": "getCrop",
      "outputs": [
        {
          "internalType": "string",
          "name": "cropType",
          "type": "string"
        },
        {
          "internalType": "string",
          "name": "origin",
          "type": "string"
        },
        {
          "internalType": "string",
          "name": "date",
          "type": "string"
        },
        {
          "internalType": "uint256",
          "name": "price",
          "type": "uint256"
        },
        {
          "internalType": "string",
          "name": "stage",
          "type": "string"
        },
        {
          "internalType": "address",
          "name": "holder",
          "type": "address"
        },
        {
          "internalType": "string",
          "name": "transferDate",
          "type": "string"
        }
      ],
      "stateMutability": "view",
      "type": "function",
      "constant": true
    },
    {
      "inputs": [
        {
          "internalType": "bytes32",
          "name": "cropID",
          "type": "bytes32"
        }
      ],
      "name": "getPurchase",
      "outputs": [
        {
          "internalType": "bool",
          "name": "purchased",
          "type": "bool"
        },
        {
          "internalType": "string",
          "name": "feedback",
          "type": "string"
        },
        {
          "internalType": "string",
          "name": "purchaseDate",
          "type": "string"
        },
        {
          "internalType": "address",
          "name": "buyer",
          "type": "address"
        }
      ],
      "stateMutability": "view",
      "type": "function",
      "constant": true
    },
    {
      "inputs": [
        {
          "internalType": "bytes32",
          "name": "cropID",
          "type": "bytes32"
        }
      ],
      "name": "getRetail",
      "outputs": [
        {
          "internalType": "uint256",
          "name": "retailPrice",
          "type": "uint256"
        },
        {
          "internalType": "string",
          "name": "receivedDate",
          "type": "string"
        },
        {
          "internalType": "string",
          "name": "transferDate",
          "type": "string"
        },
        {
          "internalType": "address",
          "name": "holder",
          "type": "address"
        }
      ],
      "stateMutability": "view",
      "type": "function",
      "constant": true
    },
    {
      "inputs": [
        {
          "internalType": "bytes32",
          "name": "cropID",
          "type": "bytes32"
        }
      ],
      "name": "getSupply",
      "outputs": [
        {
          "internalType": "uint256",
          "name": "transportCost",
          "type": "uint256"
        },
        {
          "internalType": "string",
          "name": "receivedDate",
          "type": "string"
        },
        {
          "internalType": "string",
          "name": "transferDate",
          "type": "string"
        },
        {
          "internalType": "address",
          "name": "holder",
          "type": "address"
        }
      ],
      "stateMutability": "view",
      "type": "function",
      "constant": true
    },
    {
      "inputs": [
        {
          "internalType": "address",
          "name": "",
          "type": "address"
        }
      ],
      "name": "isAccountRegistered",
      "outputs": [
        {
          "internalType": "bool",
          "name": "",
          "type": "bool"
        }
      ],
      "stateMutability": "view",
      "type": "function",
      "constant": true
    },
    {
      "inputs": [],
      "name": "owner",
      "outputs": [
        {
          "internalType": "address",
          "name": "",
          "type": "address"
        }
      ],
      "stateMutability": "view",
      "type": "function",
      "constant": true
    },
    {
      "inputs": [
        {
          "internalType": "bytes32",
          "name": "",
          "type": "bytes32"
        }
      ],
      "name": "productFreshness",
      "outputs": [
        {
          "internalType": "uint256",
          "name": "gasValue",
          "type": "uint256"
        },
        {
          "internalType": "uint256",
          "name": "temperature",
          "type": "uint256"
        },
        {
          "internalType": "uint256",
          "name": "humidity",
          "type": "uint256"
        },
        {
          "internalType": "uint256",
          "name": "timestamp",
          "type": "uint256"
        }
      ],
      "stateMutability": "view",
      "type": "function",
      "constant": true
    },
    {
      "inputs": [
        {
          "internalType": "bytes32",
          "name": "",
          "type": "bytes32"
        }
      ],
      "name": "purchases",
      "outputs": [
        {
          "internalType": "bytes32",
          "name": "cropID",
          "type": "bytes32"
        },
        {
          "internalType": "bool",
          "name": "purchased",
          "type": "bool"
        },
        {
          "internalType": "string",
          "name": "feedback",
          "type": "string"
        },
        {
          "internalType": "string",
          "name": "purchaseDate",
          "type": "string"
        },
        {
          "internalType": "address",
          "name": "buyer",
          "type": "address"
        },
        {
          "internalType": "bool",
          "name": "exists",
          "type": "bool"
        }
      ],
      "stateMutability": "view",
      "type": "function",
      "constant": true
    },
    {
      "inputs": [
        {
          "internalType": "string",
          "name": "name",
          "type": "string"
        },
        {
          "internalType": "string",
          "name": "location",
          "type": "string"
        },
        {
          "internalType": "string",
          "name": "contact",
          "type": "string"
        }
      ],
      "name": "registerAggregator",
      "outputs": [],
      "stateMutability": "nonpayable",
      "type": "function"
    },
    {
      "inputs": [
        {
          "internalType": "string",
          "name": "name",
          "type": "string"
        },
        {
          "internalType": "string",
          "name": "location",
          "type": "string"
        },
        {
          "internalType": "string",
          "name": "contact",
          "type": "string"
        }
      ],
      "name": "registerCustomer",
      "outputs": [],
      "stateMutability": "nonpayable",
      "type": "function"
    },
    {
      "inputs": [
        {
          "internalType": "string",
          "name": "name",
          "type": "string"
        },
        {
          "internalType": "string",
          "name": "location",
          "type": "string"
        },
        {
          "internalType": "string",
          "name": "contact",
          "type": "string"
        }
      ],
      "name": "registerFarmer",
      "outputs": [],
      "stateMutability": "nonpayable",
      "type": "function"
    },
    {
      "inputs": [
        {
          "internalType": "string",
          "name": "name",
          "type": "string"
        },
        {
          "internalType": "string",
          "name": "location",
          "type": "string"
        },
        {
          "internalType": "string",
          "name": "contact",
          "type": "string"
        }
      ],
      "name": "registerRetailer",
      "outputs": [],
      "stateMutability": "nonpayable",
      "type": "function"
    },
    {
      "inputs": [
        {
          "internalType": "string",
          "name": "name",
          "type": "string"
        },
        {
          "internalType": "string",
          "name": "location",
          "type": "string"
        },
        {
          "internalType": "string",
          "name": "contact",
          "type": "string"
        }
      ],
      "name": "registerSupplier",
      "outputs": [],
      "stateMutability": "nonpayable",
      "type": "function"
    },
    {
      "inputs": [
        {
          "internalType": "address",
          "name": "",
          "type": "address"
        }
      ],
      "name": "retailerProfiles",
      "outputs": [
        {
          "internalType": "string",
          "name": "name",
          "type": "string"
        },
        {
          "internalType": "string",
          "name": "location",
          "type": "string"
        },
        {
          "internalType": "string",
          "name": "contact",
          "type": "string"
        }
      ],
      "stateMutability": "view",
      "type": "function",
      "constant": true
    },
    {
      "inputs": [
        {
          "internalType": "bytes32",
          "name": "cropID",
          "type": "bytes32"
        },
        {
          "internalType": "uint256",
          "name": "retailPrice",
          "type": "uint256"
        },
        {
          "internalType": "string",
          "name": "date",
          "type": "string"
        }
      ],
      "name": "retailerReceiveFromAggregator",
      "outputs": [],
      "stateMutability": "nonpayable",
      "type": "function"
    },
    {
      "inputs": [
        {
          "internalType": "bytes32",
          "name": "cropID",
          "type": "bytes32"
        },
        {
          "internalType": "address",
          "name": "consumer",
          "type": "address"
        },
        {
          "internalType": "string",
          "name": "transferDate",
          "type": "string"
        }
      ],
      "name": "retailerTransferToConsumer",
      "outputs": [],
      "stateMutability": "nonpayable",
      "type": "function"
    },
    {
      "inputs": [
        {
          "internalType": "address",
          "name": "",
          "type": "address"
        }
      ],
      "name": "retailers",
      "outputs": [
        {
          "internalType": "bool",
          "name": "",
          "type": "bool"
        }
      ],
      "stateMutability": "view",
      "type": "function",
      "constant": true
    },
    {
      "inputs": [
        {
          "internalType": "bytes32",
          "name": "",
          "type": "bytes32"
        }
      ],
      "name": "retails",
      "outputs": [
        {
          "internalType": "bytes32",
          "name": "cropID",
          "type": "bytes32"
        },
        {
          "internalType": "uint256",
          "name": "retailPrice",
          "type": "uint256"
        },
        {
          "internalType": "string",
          "name": "receivedDate",
          "type": "string"
        },
        {
          "internalType": "string",
          "name": "transferDate",
          "type": "string"
        },
        {
          "internalType": "address",
          "name": "holder",
          "type": "address"
        },
        {
          "internalType": "bool",
          "name": "exists",
          "type": "bool"
        }
      ],
      "stateMutability": "view",
      "type": "function",
      "constant": true
    },
    {
      "inputs": [
        {
          "internalType": "address",
          "name": "",
          "type": "address"
        }
      ],
      "name": "supplierProfiles",
      "outputs": [
        {
          "internalType": "string",
          "name": "name",
          "type": "string"
        },
        {
          "internalType": "string",
          "name": "location",
          "type": "string"
        },
        {
          "internalType": "string",
          "name": "contact",
          "type": "string"
        }
      ],
      "stateMutability": "view",
      "type": "function",
      "constant": true
    },
    {
      "inputs": [
        {
          "internalType": "bytes32",
          "name": "cropID",
          "type": "bytes32"
        },
        {
          "internalType": "uint256",
          "name": "transportCost",
          "type": "uint256"
        },
        {
          "internalType": "string",
          "name": "date",
          "type": "string"
        }
      ],
      "name": "supplierReceiveFromFarmer",
      "outputs": [],
      "stateMutability": "nonpayable",
      "type": "function"
    },
    {
      "inputs": [
        {
          "internalType": "bytes32",
          "name": "cropID",
          "type": "bytes32"
        },
        {
          "internalType": "address",
          "name": "aggregator",
          "type": "address"
        },
        {
          "internalType": "string",
          "name": "transferDate",
          "type": "string"
        }
      ],
      "name": "supplierTransferToAggregator",
      "outputs": [],
      "stateMutability": "nonpayable",
      "type": "function"
    },
    {
      "inputs": [
        {
          "internalType": "address",
          "name": "",
          "type": "address"
        }
      ],
      "name": "suppliers",
      "outputs": [
        {
          "internalType": "bool",
          "name": "",
          "type": "bool"
        }
      ],
      "stateMutability": "view",
      "type": "function",
      "constant": true
    },
    {
      "inputs": [
        {
          "internalType": "bytes32",
          "name": "",
          "type": "bytes32"
        }
      ],
      "name": "supplies",
      "outputs": [
        {
          "internalType": "bytes32",
          "name": "cropID",
          "type": "bytes32"
        },
        {
          "internalType": "uint256",
          "name": "transportCost",
          "type": "uint256"
        },
        {
          "internalType": "string",
          "name": "receivedDate",
          "type": "string"
        },
        {
          "internalType": "string",
          "name": "transferDate",
          "type": "string"
        },
        {
          "internalType": "address",
          "name": "currentHolder",
          "type": "address"
        },
        {
          "internalType": "bool",
          "name": "exists",
          "type": "bool"
        }
      ],
      "stateMutability": "view",
      "type": "function",
      "constant": true
    },
    {
      "inputs": [
        {
          "internalType": "bytes32",
          "name": "_cropID",
          "type": "bytes32"
        },
        {
          "internalType": "uint256",
          "name": "_gasValue",
          "type": "uint256"
        },
        {
          "internalType": "uint256",
          "name": "_temperature",
          "type": "uint256"
        },
        {
          "internalType": "uint256",
          "name": "_humidity",
          "type": "uint256"
        }
      ],
      "name": "updateFreshness",
      "outputs": [],
      "stateMutability": "nonpayable",
      "type": "function"
    },
    {
      "inputs": [
        {
          "internalType": "bytes32",
          "name": "_cropID",
          "type": "bytes32"
        }
      ],
      "name": "getFreshness",
      "outputs": [
        {
          "internalType": "uint256",
          "name": "gasValue",
          "type": "uint256"
        },
        {
          "internalType": "uint256",
          "name": "temperature",
          "type": "uint256"
        },
        {
          "internalType": "uint256",
          "name": "humidity",
          "type": "uint256"
        },
        {
          "internalType": "uint256",
          "name": "timestamp",
          "type": "uint256"
        }
      ],
      "stateMutability": "view",
      "type": "function",
      "constant": true
    }
  ],
  "bytecode": "0x608060405234801561001057600080fd5b50601380546001600160a01b0319163317905561408e806100326000396000f3fe608060405234801561001057600080fd5b50600436106102745760003560e01c80637ab8dbe911610151578063c81e25ab116100c3578063e9ef9cf711610087578063e9ef9cf7146106d7578063ed42136f146106ea578063f0861b3a14610710578063f49d66a314610730578063f585149314610743578063f8e66a4d1461076657600080fd5b8063c81e25ab14610638578063de3a77b014610660578063dfd55a2c14610686578063e3b104761461068f578063e7a3e81e146106c457600080fd5b80639a268f35116101155780639a268f351461055e578063a1c2e79c14610581578063a900d62814610594578063b71b75f4146105bc578063b7f3731f146105cf578063c1383def146105e257600080fd5b80637ab8dbe9146104c35780638039feef146104e857806388e46740146104fb5780638da5cb5b14610520578063927142241461054b57600080fd5b806349beb611116101ea57806354d9be59116101ae57806354d9be59146104335780635e086484146104565780636c1e9d87146104695780637304957b1461047c578063750aa2ea1461048f578063769d0420146104b057600080fd5b806349beb611146103d45780634d6ec6e8146103e75780634f3bedbd146103fa57806351c4add51461040d57806352f864671461042057600080fd5b806327ed35401161023c57806327ed35401461032257806329a566d2146103355780633082a40214610348578063336989ae1461036b57806338a699a41461038e578063401b2168146103b157600080fd5b80630f5600cb146102795780630f86a2a4146102a4578063112cdab9146102b957806316dc15fe146102ec57806318f136541461030f575b600080fd5b61028c6102873660046134a5565b610779565b60405161029b93929190613517565b60405180910390f35b6102b76102b23660046135a3565b610933565b005b6102dc6102c73660046134a5565b600a6020526000908152604090205460ff1681565b604051901515815260200161029b565b6102dc6102fa3660046134a5565b60076020526000908152604090205460ff1681565b61028c61031d3660046134a5565b610bef565b6102b761033036600461364e565b610c0a565b6102b761034336600461369a565b610d29565b61035b610356366004613734565b610f00565b60405161029b949392919061374d565b6102dc6103793660046134a5565b60106020526000908152604090205460ff1681565b6102dc61039c366004613734565b60056020526000908152604090205460ff1681565b6102dc6103bf3660046134a5565b60016020526000908152604090205460ff1681565b61028c6103e23660046134a5565b61110b565b6102b76103f536600461369a565b611126565b6102b7610408366004613794565b6112d2565b6102b761041b3660046137ee565b61144f565b6102b761042e366004613860565b611673565b610446610441366004613734565b6117fd565b60405161029b949392919061389b565b6102b76104643660046138b4565b6118aa565b6102b7610477366004613794565b611943565b6102b761048a366004613794565b611a66565b6104a261049d366004613734565b611b9a565b60405190815260200161029b565b6102b76104be366004613794565b611bda565b6104d66104d1366004613734565b611ce6565b60405161029b969594939291906138e6565b61028c6104f63660046134a5565b611e3f565b61050e610509366004613734565b611e5a565b60405161029b9695949392919061393d565b601354610533906001600160a01b031681565b6040516001600160a01b03909116815260200161029b565b61028c6105593660046134a5565b611e82565b6102dc61056c3660046134a5565b600d6020526000908152604090205460ff1681565b6102b761058f36600461369a565b611e9d565b6105a76105a2366004613734565b612049565b60405161029b99989796959493929190613972565b6102b76105ca366004613860565b6122c4565b6104466105dd366004613734565b6123b3565b6106186105f0366004613734565b6000908152601460205260409020805460018201546002830154600390930154919390929190565b60408051948552602085019390935291830152606082015260800161029b565b61064b610646366004613734565b612462565b60405161029b99989796959493929190613a27565b61067361066e366004613734565b61265d565b60405161029b9796959493929190613aa7565b6104a260065481565b61061861069d366004613734565b60146020526000908152604090208054600182015460028301546003909301549192909184565b6102b76106d2366004613860565b6129ef565b6102b76106e536600461369a565b612baa565b6106fd6106f8366004613734565b612d7f565b60405161029b9796959493929190613b1d565b6104a261071e366004613734565b60046020526000908152604090205481565b61050e61073e366004613734565b61302f565b6102dc6107513660046134a5565b60006020819052908152604090205460ff1681565b6102b761077436600461369a565b613057565b60086020526000908152604090208054819061079490613b86565b80601f01602080910402602001604051908101604052809291908181526020018280546107c090613b86565b801561080d5780601f106107e25761010080835404028352916020019161080d565b820191906000526020600020905b8154815290600101906020018083116107f057829003601f168201915b50505050509080600101805461082290613b86565b80601f016020809104026020016040519081016040528092919081815260200182805461084e90613b86565b801561089b5780601f106108705761010080835404028352916020019161089b565b820191906000526020600020905b81548152906001019060200180831161087e57829003601f168201915b5050505050908060020180546108b090613b86565b80601f01602080910402602001604051908101604052809291908181526020018280546108dc90613b86565b80156109295780601f106108fe57610100808354040283529160200191610929565b820191906000526020600020905b81548152906001019060200180831161090c57829003601f168201915b5050505050905083565b3360009081526001602052604090205460ff1661096b5760405162461bcd60e51b815260040161096290613bc0565b60405180910390fd5b60008881526003602052604090206007015460ff16156109bb5760405162461bcd60e51b815260206004820152600b60248201526a43726f702065786973747360a81b6044820152606401610962565b60405180610120016040528089815260200188888080601f016020809104026020016040519081016040528093929190818152602001838380828437600092019190915250505090825250604080516020601f890181900481028201810190925287815291810191908890889081908401838280828437600092019190915250505090825250604080516020601f870181900481028201810190925285815291810191908690869081908401838280828437600092018290525093855250505060208083018590526001604080850182905233606086015280518084018252848152608086015260a09094018190528c8352600382529290912083518155908301519091820190610acc9082613c4a565b5060408201516002820190610ae19082613c4a565b5060608201516003820190610af69082613c4a565b506080820151600482015560a082015160058201805460ff19166001836006811115610b2457610b2461395c565b021790555060c08201516005820180546001600160a01b0390921661010002610100600160a81b031990921691909117905560e08201516006820190610b6a9082613c4a565b5061010091909101516007909101805491151560ff1992831617905560008981526005602052604090819020805490921660011790915551339089907f8c4b7d29c2987de2d13cc57dd8588ec26a84b6b085afb2289c6f11a169b0690690610bdd908b908b908b908b9089904290613d33565b60405180910390a35050505050505050565b600e6020526000908152604090208054819061079490613b86565b336000908152600a602052604090205460ff16610c395760405162461bcd60e51b815260040161096290613d70565b6000838152600c6020526040902060080154839060ff16610c6c5760405162461bcd60e51b815260040161096290613d99565b6000848152600c602052604090206001015460ff16610cbc5760405162461bcd60e51b815260206004820152600c60248201526b139bdd081c9958d95a5d995960a21b6044820152606401610962565b6000848152600c6020526040902060038101805460ff19166001179055600401610ce7838583613dc7565b507fe5d0b47a1fe3de7357458b7b7aa20aede2093baa892e9d8c2784e39fa58a7d8c848484604051610d1b93929190613e88565b60405180910390a150505050565b3360009081526020819052604090205460ff1615610d595760405162461bcd60e51b815260040161096290613eab565b3360009081526001602052604090205460ff1615610d895760405162461bcd60e51b815260040161096290613ee2565b33600090815260016020818152604092839020805460ff191690921790915581516080601f8901839004909202810182019092526060820187815282918990899081908501838280828437600092019190915250505090825250604080516020601f880181900481028201810190925286815291810191908790879081908401838280828437600092019190915250505090825250604080516020601f860181900481028201810190925284815291810191908590859081908401838280828437600092018290525093909452505033815260026020526040902082519091508190610e759082613c4a565b5060208201516001820190610e8a9082613c4a565b5060408201516002820190610e9f9082613c4a565b50506040513391507f42558426a946ab6e527d7f548e7bd3e34c2a7ddde555007464cdfbb5f58665f890610ed69089908990613f0e565b60405180910390a25050336000908152602081905260409020805460ff1916600117905550505050565b600081815260126020526040812060040154606090819083908590600160a01b900460ff16610f665760405162461bcd60e51b8152602060048201526012602482015271141d5c98da185cd9481b9bdd08199bdd5b9960721b6044820152606401610962565b6000868152601260209081526040808320815160c08101835281548152600182015460ff161515938101939093526002810180549192840191610fa890613b86565b80601f0160208091040260200160405190810160405280929190818152602001828054610fd490613b86565b80156110215780601f10610ff657610100808354040283529160200191611021565b820191906000526020600020905b81548152906001019060200180831161100457829003601f168201915b5050505050815260200160038201805461103a90613b86565b80601f016020809104026020016040519081016040528092919081815260200182805461106690613b86565b80156110b35780601f10611088576101008083540402835291602001916110b3565b820191906000526020600020905b81548152906001019060200180831161109657829003601f168201915b5050509183525050600491909101546001600160a01b038116602080840191909152600160a01b90910460ff161515604092830152820151908201516060830151608090930151919a90995091975095509350505050565b60116020526000908152604090208054819061079490613b86565b3360009081526020819052604090205460ff16156111565760405162461bcd60e51b815260040161096290613eab565b336000908152600d602052604090205460ff16156111865760405162461bcd60e51b815260040161096290613ee2565b336000908152600d6020908152604091829020805460ff1916600117905581516080601f8901839004909202810182019092526060820187815282918990899081908501838280828437600092019190915250505090825250604080516020601f880181900481028201810190925286815291810191908790879081908401838280828437600092019190915250505090825250604080516020601f8601819004810282018101909252848152918101919085908590819084018382808284376000920182905250939094525050338152600e60205260409020825190915081906112719082613c4a565b50602082015160018201906112869082613c4a565b506040820151600282019061129b9082613c4a565b50506040513391507fc6b3a3cb893680baef98e6f2f73e2f33a36a14eaea0ba521451d6547ba362b6290610ed69089908990613f0e565b336000908152600d602052604090205460ff166113215760405162461bcd60e51b815260206004820152600d60248201526c27b7363c903932ba30b4b632b960991b6044820152606401610962565b6000848152600f60205260409020600401548490600160a01b900460ff166113855760405162461bcd60e51b815260206004820152601760248201527614995d185a5b081c9958dbdc99081b9bdd08199bdd5b99604a1b6044820152606401610962565b6000858152600f60205260409020600401546001600160a01b031633146113be5760405162461bcd60e51b815260040161096290613f2a565b6000858152600f602052604090206004810180546001600160a01b0319166001600160a01b0387161790556003016113f7838583613dc7565b50836001600160a01b0316336001600160a01b0316867f7e7fbb9e8446922aba8de3a258fba24d6e74f0066056ec9aa9816d94aff7c8ce86864260405161144093929190613f4e565b60405180910390a45050505050565b3360009081526010602052604090205460ff1661149e5760405162461bcd60e51b815260206004820152600d60248201526c27b7363c9031bab9ba37b6b2b960991b6044820152606401610962565b600086815260126020526040902060040154600160a01b900460ff16156114fb5760405162461bcd60e51b8152602060048201526011602482015270105b1c9958591e481c1d5c98da185cd959607a1b6044820152606401610962565b6040518060c00160405280878152602001861515815260200185858080601f016020809104026020016040519081016040528093929190818152602001838380828437600092019190915250505090825250604080516020601f8601819004810282018101909252848152918101919085908590819084018382808284376000920182905250938552505033602080850191909152600160409485018190528b845260128252928490208551815590850151928101805460ff191693151593909317909255509082015160028201906115d49082613c4a565b50606082015160038201906115e99082613c4a565b5060808201516004909101805460a0909301511515600160a01b026001600160a81b03199093166001600160a01b03909216919091179190911790556040513390329088907f7875d9b7231044476491b12ab6681850a2ccb04972a7b71882c968d5594d3ba09061166390879087908b908b904290613f72565b60405180910390a4505050505050565b336000908152600d602052604090205460ff166116c25760405162461bcd60e51b815260206004820152600d60248201526c27b7363c903932ba30b4b632b960991b6044820152606401610962565b6040518060c0016040528085815260200184815260200183838080601f01602080910402602001604051908101604052809392919081815260200183838082843760009201829052509385525050604080516020818101835284825280860191909152338286015260016060909501859052898452600f815292819020855181559285015193830193909355509082015160028201906117629082613c4a565b50606082015160038201906117779082613c4a565b5060808201516004909101805460a0909301511515600160a01b026001600160a81b03199093166001600160a01b03909216919091179190911790556040513390329086907ff85ed9f1a22f55980b6c688d2516e690c66c968640299e976c1905aff0fea2d7906117ef908890889088904290613fac565b60405180910390a450505050565b600081815260096020526040812060040154606090819083908590600160a01b900460ff166118665760405162461bcd60e51b815260206004820152601560248201527414dd5c1c1b1e48191bd95cc81b9bdd08195e1a5cdd605a1b6044820152606401610962565b6000600960008881526020019081526020016000206040518060c00160405290816000820154815260200160018201548152602001600282018054610fa890613b86565b6040805160808082018352858252602080830186815283850186815242606080870182815260008d815260148752899020975188559351600188015591516002870155915160039095019490945584518881529182018790529381018590529182019290925285917f7fd082d8376089b35d3d381f3e1f22fc8dad31314fd249c6eea5de808362a58e910160405180910390a250505050565b3360009081526007602052604090205460ff166119925760405162461bcd60e51b815260206004820152600d60248201526c27b7363c9039bab8383634b2b960991b6044820152606401610962565b6000848152600960205260409020600401548490600160a01b900460ff166119f45760405162461bcd60e51b815260206004820152601560248201527414dd5c1c1b1e48191bd95cc81b9bdd08195e1a5cdd605a1b6044820152606401610962565b6000858152600960205260409020600401546001600160a01b03163314611a2d5760405162461bcd60e51b815260040161096290613f2a565b60008581526009602052604090206004810180546001600160a01b0319166001600160a01b0387161790556003016113f7838583613dc7565b336000908152600a602052604090205460ff16611a955760405162461bcd60e51b815260040161096290613d70565b6000848152600c6020526040902060080154849060ff16611ac85760405162461bcd60e51b815260040161096290613d99565b6000858152600c602052604090206001015460ff16611b185760405162461bcd60e51b815260206004820152600c60248201526b139bdd081c9958d95a5d995960a21b6044820152606401610962565b6000858152600c602052604090206006810180546001600160a01b0319166001600160a01b038716179055600501611b51838583613dc7565b50604080518681526001600160a01b03861660208201527febfa8f41a2a15e0e89718bd17a4f728bd822d73550222a896ea5d3cfe2331ecc910160405180910390a15050505050565b3360009081526001602052604081205460ff16611bc95760405162461bcd60e51b815260040161096290613bc0565b611bd282613203565b90505b919050565b3360009081526001602052604090205460ff16611c095760405162461bcd60e51b815260040161096290613bc0565b600084815260036020526040902060070154849060ff16611c625760405162461bcd60e51b815260206004820152601360248201527210dc9bdc08191bd95cc81b9bdd08195e1a5cdd606a1b6044820152606401610962565b60008581526003602052604090206005015461010090046001600160a01b03163314611ca05760405162461bcd60e51b815260040161096290613f2a565b600085815260036020526040902060058101805460ff196001600160a01b03881661010002166001600160a81b03199091161760021790556006016113f7838583613dc7565b601260205260009081526040902080546001820154600283018054929360ff90921692611d1290613b86565b80601f0160208091040260200160405190810160405280929190818152602001828054611d3e90613b86565b8015611d8b5780601f10611d6057610100808354040283529160200191611d8b565b820191906000526020600020905b815481529060010190602001808311611d6e57829003601f168201915b505050505090806003018054611da090613b86565b80601f0160208091040260200160405190810160405280929190818152602001828054611dcc90613b86565b8015611e195780601f10611dee57610100808354040283529160200191611e19565b820191906000526020600020905b815481529060010190602001808311611dfc57829003601f168201915b505050600490930154919250506001600160a01b0381169060ff600160a01b9091041686565b600b6020526000908152604090208054819061079490613b86565b600f6020526000908152604090208054600182015460028301805492939192611d1290613b86565b60026020526000908152604090208054819061079490613b86565b3360009081526020819052604090205460ff1615611ecd5760405162461bcd60e51b815260040161096290613eab565b3360009081526007602052604090205460ff1615611efd5760405162461bcd60e51b815260040161096290613ee2565b33600090815260076020908152604091829020805460ff1916600117905581516080601f8901839004909202810182019092526060820187815282918990899081908501838280828437600092019190915250505090825250604080516020601f880181900481028201810190925286815291810191908790879081908401838280828437600092019190915250505090825250604080516020601f860181900481028201810190925284815291810191908590859081908401838280828437600092018290525093909452505033815260086020526040902082519091508190611fe89082613c4a565b5060208201516001820190611ffd9082613c4a565b50604082015160028201906120129082613c4a565b50506040513391507fd52881a6125270bc10edc37221b17d746ef540e29867a40b76ed110ef520224c90610ed69089908990613f0e565b6003602052600090815260409020805460018201805491929161206b90613b86565b80601f016020809104026020016040519081016040528092919081815260200182805461209790613b86565b80156120e45780601f106120b9576101008083540402835291602001916120e4565b820191906000526020600020905b8154815290600101906020018083116120c757829003601f168201915b5050505050908060020180546120f990613b86565b80601f016020809104026020016040519081016040528092919081815260200182805461212590613b86565b80156121725780601f1061214757610100808354040283529160200191612172565b820191906000526020600020905b81548152906001019060200180831161215557829003601f168201915b50505050509080600301805461218790613b86565b80601f01602080910402602001604051908101604052809291908181526020018280546121b390613b86565b80156122005780601f106121d557610100808354040283529160200191612200565b820191906000526020600020905b8154815290600101906020018083116121e357829003601f168201915b50505050600483015460058401546006850180549495929460ff831694506101009092046001600160a01b0316929161223890613b86565b80601f016020809104026020016040519081016040528092919081815260200182805461226490613b86565b80156122b15780601f10612286576101008083540402835291602001916122b1565b820191906000526020600020905b81548152906001019060200180831161229457829003601f168201915b5050506007909301549192505060ff1689565b3360009081526007602052604090205460ff166123135760405162461bcd60e51b815260206004820152600d60248201526c27b7363c9039bab8383634b2b960991b6044820152606401610962565b6040518060c0016040528085815260200184815260200183838080601f016020809104026020016040519081016040528093929190818152602001838380828437600092018290525093855250506040805160208181018352848252808601919091523382860152600160609095018590528984526009815292819020855181559285015193830193909355509082015160028201906117629082613c4a565b6000818152600f6020526040812060040154606090819083908590600160a01b900460ff1661241e5760405162461bcd60e51b815260206004820152601760248201527614995d185a5b081c9958dbdc99081b9bdd08199bdd5b99604a1b6044820152606401610962565b6000600f60008881526020019081526020016000206040518060c00160405290816000820154815260200160018201548152602001600282018054610fa890613b86565b600c60205260009081526040902080546001820154600283018054929360ff9092169261248e90613b86565b80601f01602080910402602001604051908101604052809291908181526020018280546124ba90613b86565b80156125075780601f106124dc57610100808354040283529160200191612507565b820191906000526020600020905b8154815290600101906020018083116124ea57829003601f168201915b5050506003840154600485018054949560ff90921694919350915061252b90613b86565b80601f016020809104026020016040519081016040528092919081815260200182805461255790613b86565b80156125a45780601f10612579576101008083540402835291602001916125a4565b820191906000526020600020905b81548152906001019060200180831161258757829003601f168201915b5050505050908060050180546125b990613b86565b80601f01602080910402602001604051908101604052809291908181526020018280546125e590613b86565b80156126325780601f1061260757610100808354040283529160200191612632565b820191906000526020600020905b81548152906001019060200180831161261557829003601f168201915b505050506006830154600784015460089094015492936001600160a01b039091169290915060ff1689565b6000818152600360205260408120600701546060918291829190829082908290889060ff166126c45760405162461bcd60e51b815260206004820152601360248201527210dc9bdc08191bd95cc81b9bdd08195e1a5cdd606a1b6044820152606401610962565b6000600360008b815260200190815260200160002060405180610120016040529081600082015481526020016001820180546126ff90613b86565b80601f016020809104026020016040519081016040528092919081815260200182805461272b90613b86565b80156127785780601f1061274d57610100808354040283529160200191612778565b820191906000526020600020905b81548152906001019060200180831161275b57829003601f168201915b5050505050815260200160028201805461279190613b86565b80601f01602080910402602001604051908101604052809291908181526020018280546127bd90613b86565b801561280a5780601f106127df5761010080835404028352916020019161280a565b820191906000526020600020905b8154815290600101906020018083116127ed57829003601f168201915b5050505050815260200160038201805461282390613b86565b80601f016020809104026020016040519081016040528092919081815260200182805461284f90613b86565b801561289c5780601f106128715761010080835404028352916020019161289c565b820191906000526020600020905b81548152906001019060200180831161287f57829003601f168201915b505050918352505060048201546020820152600582015460409091019060ff1660068111156128cd576128cd61395c565b60068111156128de576128de61395c565b8152600582015461010090046001600160a01b0316602082015260068201805460409092019161290d90613b86565b80601f016020809104026020016040519081016040528092919081815260200182805461293990613b86565b80156129865780601f1061295b57610100808354040283529160200191612986565b820191906000526020600020905b81548152906001019060200180831161296957829003601f168201915b505050505081526020016007820160009054906101000a900460ff161515151581525050905080602001518160400151826060015183608001516129cd8560a001516132d2565b60c086015160e090960151949f939e50919c509a509850919650945092505050565b336000908152600a602052604090205460ff16612a1e5760405162461bcd60e51b815260040161096290613d70565b60405180610120016040528085815260200160011515815260200183838080601f016020809104026020016040519081016040528093929190818152602001838380828437600092018290525093855250505060208083018290526040805180830182528381528185015280518083018252838152606085015233608085015260a08401889052600160c0909401849052888352600c8252918290208451815590840151928101805460ff1916931515939093179092558201516002820190612ae79082613c4a565b50606082015160038201805460ff191691151591909117905560808201516004820190612b149082613c4a565b5060a08201516005820190612b299082613c4a565b5060c08201516006820180546001600160a01b0319166001600160a01b0390921691909117905560e08201516007820155610100909101516008909101805460ff1916911515919091179055604080518581523360208201527f3da11207acef64a8ef6a06e530a71956f123355b74d421e1883e3d3ce94c92c19101610d1b565b3360009081526020819052604090205460ff1615612bda5760405162461bcd60e51b815260040161096290613eab565b336000908152600a602052604090205460ff1615612c0a5760405162461bcd60e51b815260040161096290613ee2565b336000908152600a6020908152604091829020805460ff1916600117905581516080601f8901839004909202810182019092526060820187815282918990899081908501838280828437600092019190915250505090825250604080516020601f880181900481028201810190925286815291810191908790879081908401838280828437600092019190915250505090825250604080516020601f8601819004810282018101909252848152918101919085908590819084018382808284376000920182905250939094525050338152600b6020526040902082519091508190612cf59082613c4a565b5060208201516001820190612d0a9082613c4a565b5060408201516002820190612d1f9082613c4a565b509050507ef326cfeee4a98cdaa20d4b3ea99e1d7ba56e0bc16159f422e5ef8a57fceb26338787604051612d5593929190613fd7565b60405180910390a15050336000908152602081905260409020805460ff1916600117905550505050565b6000818152600c602052604081206008015460609082908290819083908190889060ff16612dbf5760405162461bcd60e51b815260040161096290613d99565b6000898152600c6020908152604080832081516101208101835281548152600182015460ff161515938101939093526002810180549192840191612e0290613b86565b80601f0160208091040260200160405190810160405280929190818152602001828054612e2e90613b86565b8015612e7b5780601f10612e5057610100808354040283529160200191612e7b565b820191906000526020600020905b815481529060010190602001808311612e5e57829003601f168201915b5050509183525050600382015460ff1615156020820152600482018054604090920191612ea790613b86565b80601f0160208091040260200160405190810160405280929190818152602001828054612ed390613b86565b8015612f205780601f10612ef557610100808354040283529160200191612f20565b820191906000526020600020905b815481529060010190602001808311612f0357829003601f168201915b50505050508152602001600582018054612f3990613b86565b80601f0160208091040260200160405190810160405280929190818152602001828054612f6590613b86565b8015612fb25780601f10612f8757610100808354040283529160200191612fb2565b820191906000526020600020905b815481529060010190602001808311612f9557829003601f168201915b505050918352505060068201546001600160a01b0316602080830191909152600783015460408084019190915260089093015460ff1615156060928301528301519183015190830151608084015160a085015160c086015160e090960151949e50929c50909a509850965090945092505050919395979092949650565b60096020526000908152604090208054600182015460028301805492939192611d1290613b86565b3360009081526020819052604090205460ff16156130875760405162461bcd60e51b815260040161096290613eab565b3360009081526010602052604090205460ff16156130b75760405162461bcd60e51b815260040161096290613ee2565b33600090815260106020908152604091829020805460ff1916600117905581516080601f8901839004909202810182019092526060820187815282918990899081908501838280828437600092019190915250505090825250604080516020601f880181900481028201810190925286815291810191908790879081908401838280828437600092019190915250505090825250604080516020601f8601819004810282018101909252848152918101919085908590819084018382808284376000920182905250939094525050338152601160205260409020825190915081906131a29082613c4a565b50602082015160018201906131b79082613c4a565b50604082015160028201906131cc9082613c4a565b50506040513391507f2bf7863d4068dda3123298d02ee28530519d2e96eaab6784f5f0b6184ddd201590610ed69089908990613f0e565b60008060028342336006546040516020016132499493929190938452602084019290925260601b6bffffffffffffffffffffffff19166040830152605482015260740190565b60408051601f198184030181529082905261326391613ffc565b602060405180830381855afa158015613280573d6000803e3d6000fd5b5050506040513d601f19601f820116820180604052508101906132a39190614018565b60068054600090815260046020526040812083905581549293506132c683614031565b90915550909392505050565b606060008260068111156132e8576132e861395c565b0361331057505060408051808201909152600781526610dc99585d195960ca1b602082015290565b60018260068111156133245761332461395c565b0361334e57505060408051808201909152600981526810dbdb1b1958dd195960ba1b602082015290565b60028260068111156133625761336261395c565b0361338b57505060408051808201909152600881526714dd5c1c1b1a595960c21b602082015290565b600382600681111561339f5761339f61395c565b036133ca57505060408051808201909152600a8152691059d9dc9959d85d195960b21b602082015290565b60048260068111156133de576133de61395c565b03613406575050604080518082019091526007815266111a5d9a59195960ca1b602082015290565b600582600681111561341a5761341a61395c565b0361343f57505060408051808201909152600481526314dbdb1960e21b602082015290565b60068260068111156134535761345361395c565b0361347a575050604080518082019091526006815265109bdd59da1d60d21b602082015290565b505060408051602081019091526000815290565b80356001600160a01b0381168114611bd557600080fd5b6000602082840312156134b757600080fd5b6134c08261348e565b9392505050565b60005b838110156134e25781810151838201526020016134ca565b50506000910152565b600081518084526135038160208601602086016134c7565b601f01601f19169290920160200192915050565b60608152600061352a60608301866134eb565b828103602084015261353c81866134eb565b9050828103604084015261355081856134eb565b9695505050505050565b60008083601f84011261356c57600080fd5b50813567ffffffffffffffff81111561358457600080fd5b60208301915083602082850101111561359c57600080fd5b9250929050565b60008060008060008060008060a0898b0312156135bf57600080fd5b88359750602089013567ffffffffffffffff808211156135de57600080fd5b6135ea8c838d0161355a565b909950975060408b013591508082111561360357600080fd5b61360f8c838d0161355a565b909750955060608b013591508082111561362857600080fd5b506136358b828c0161355a565b999c989b50969995989497949560800135949350505050565b60008060006040848603121561366357600080fd5b83359250602084013567ffffffffffffffff81111561368157600080fd5b61368d8682870161355a565b9497909650939450505050565b600080600080600080606087890312156136b357600080fd5b863567ffffffffffffffff808211156136cb57600080fd5b6136d78a838b0161355a565b909850965060208901359150808211156136f057600080fd5b6136fc8a838b0161355a565b9096509450604089013591508082111561371557600080fd5b5061372289828a0161355a565b979a9699509497509295939492505050565b60006020828403121561374657600080fd5b5035919050565b841515815260806020820152600061376860808301866134eb565b828103604084015261377a81866134eb565b91505060018060a01b038316606083015295945050505050565b600080600080606085870312156137aa57600080fd5b843593506137ba6020860161348e565b9250604085013567ffffffffffffffff8111156137d657600080fd5b6137e28782880161355a565b95989497509550505050565b6000806000806000806080878903121561380757600080fd5b863595506020870135801515811461381e57600080fd5b9450604087013567ffffffffffffffff8082111561383b57600080fd5b6138478a838b0161355a565b9096509450606089013591508082111561371557600080fd5b6000806000806060858703121561387657600080fd5b8435935060208501359250604085013567ffffffffffffffff8111156137d657600080fd5b84815260806020820152600061376860808301866134eb565b600080600080608085870312156138ca57600080fd5b5050823594602084013594506040840135936060013592509050565b868152851515602082015260c06040820152600061390760c08301876134eb565b828103606084015261391981876134eb565b6001600160a01b03959095166080840152505090151560a090910152949350505050565b86815285602082015260c06040820152600061390760c08301876134eb565b634e487b7160e01b600052602160045260246000fd5b60006101208b835280602084015261398c8184018c6134eb565b905082810360408401526139a0818b6134eb565b905082810360608401526139b4818a6134eb565b9050876080840152600787106139da57634e487b7160e01b600052602160045260246000fd5b8660a08401526139f560c08401876001600160a01b03169052565b82810360e0840152613a0781866134eb565b915050613a1961010083018415159052565b9a9950505050505050505050565b60006101208b83528a15156020840152806040840152613a498184018b6134eb565b905088151560608401528281036080840152613a6581896134eb565b905082810360a0840152613a7981886134eb565b6001600160a01b039690961660c0840152505060e08101929092521515610100909101529695505050505050565b60e081526000613aba60e083018a6134eb565b8281036020840152613acc818a6134eb565b90508281036040840152613ae081896134eb565b90508660608401528281036080840152613afa81876134eb565b6001600160a01b03861660a085015283810360c08501529050613a1981856134eb565b871515815260e060208201526000613b3860e08301896134eb565b87151560408401528281036060840152613b5281886134eb565b90508281036080840152613b6681876134eb565b6001600160a01b039590951660a0840152505060c0015295945050505050565b600181811c90821680613b9a57607f821691505b602082108103613bba57634e487b7160e01b600052602260045260246000fd5b50919050565b6020808252600b908201526a27b7363c903330b936b2b960a91b604082015260600190565b634e487b7160e01b600052604160045260246000fd5b601f821115613c4557600081815260208120601f850160051c81016020861015613c225750805b601f850160051c820191505b81811015613c4157828155600101613c2e565b5050505b505050565b815167ffffffffffffffff811115613c6457613c64613be5565b613c7881613c728454613b86565b84613bfb565b602080601f831160018114613cad5760008415613c955750858301515b600019600386901b1c1916600185901b178555613c41565b600085815260208120601f198616915b82811015613cdc57888601518255948401946001909101908401613cbd565b5085821015613cfa5787850151600019600388901b60f8161c191681555b5050505050600190811b01905550565b81835281816020850137506000828201602090810191909152601f909101601f19169091010190565b608081526000613d4760808301888a613d0a565b8281036020840152613d5a818789613d0a565b6040840195909552505060600152949350505050565b6020808252600f908201526e27b7363c9030b3b3b932b3b0ba37b960891b604082015260600190565b60208082526014908201527310985d18da08191bd95cc81b9bdd08195e1a5cdd60621b604082015260600190565b67ffffffffffffffff831115613ddf57613ddf613be5565b613df383613ded8354613b86565b83613bfb565b6000601f841160018114613e275760008515613e0f5750838201355b600019600387901b1c1916600186901b178355613e81565b600083815260209020601f19861690835b82811015613e585786850135825560209485019460019092019101613e38565b5086821015613e755760001960f88860031b161c19848701351681555b505060018560011b0183555b5050505050565b838152604060208201526000613ea2604083018486613d0a565b95945050505050565b6020808252601a908201527f4163636f756e7420616c72656164792072656769737465726564000000000000604082015260600190565b602080825260129082015271105b1c9958591e481c9959da5cdd195c995960721b604082015260600190565b602081526000613f22602083018486613d0a565b949350505050565b6020808252600a90820152692737ba103437b63232b960b11b604082015260600190565b604081526000613f62604083018587613d0a565b9050826020830152949350505050565b606081526000613f86606083018789613d0a565b8281036020840152613f99818688613d0a565b9150508260408301529695505050505050565b848152606060208201526000613fc6606083018587613d0a565b905082604083015295945050505050565b6001600160a01b0384168152604060208201819052600090613ea29083018486613d0a565b6000825161400e8184602087016134c7565b9190910192915050565b60006020828403121561402a57600080fd5b5051919050565b60006001820161405157634e487b7160e01b600052601160045260246000fd5b506001019056fea26469706673582212200be4681bc572a60286c3a5f244b39b1c9f2bb371fc51a2cb92f3a08d943fbea764736f6c63430008140033",
  "immutableReferences": {},
  "source": "// SPDX-License-Identifier: MIT\r\npragma solidity ^0.8.20;\r\n\r\nimport \"./Registrable.sol\";\r\nimport \"./Farmer.sol\";\r\nimport \"./Supplier.sol\";\r\nimport \"./Aggregator.sol\";\r\nimport \"./Retailer.sol\";\r\nimport \"./Customer.sol\";\r\n\r\ncontract TrackSupplyChain is\r\n    Farmer,\r\n    Supplier,\r\n    Aggregator,\r\n    Retailer,\r\n    Customer\r\n{\r\n    address public owner;\r\n\r\n    constructor() {\r\n        owner = msg.sender;\r\n    }\r\n\r\n\r\n    // =====================================================\r\n    // 🌡️ IOT / FRESHNESS DATA (GRAPH + ML READY)\r\n    // =====================================================\r\n\r\n    struct FreshnessData {\r\n        uint256 gasValue;\r\n        uint256 temperature;\r\n        uint256 humidity;\r\n        uint256 timestamp;\r\n    }\r\n\r\n    /// cropID => freshness\r\n    mapping(bytes32 => FreshnessData) public productFreshness;\r\n\r\n    /// 🔵 GRAPH-FRIENDLY EVENT\r\n    event FreshnessUpdated(\r\n        bytes32 indexed cropID,\r\n        uint256 gasValue,\r\n        uint256 temperature,\r\n        uint256 humidity,\r\n        uint256 timestamp\r\n    );\r\n\r\n    // =====================================================\r\n    // 🌱 UPDATE FRESHNESS (CALLED BY IOT / ORACLE)\r\n    // =====================================================\r\n\r\n    function updateFreshness(\r\n        bytes32 _cropID,\r\n        uint256 _gasValue,\r\n        uint256 _temperature,\r\n        uint256 _humidity\r\n    ) external {\r\n        productFreshness[_cropID] = FreshnessData({\r\n            gasValue: _gasValue,\r\n            temperature: _temperature,\r\n            humidity: _humidity,\r\n            timestamp: block.timestamp\r\n        });\r\n\r\n        emit FreshnessUpdated(\r\n            _cropID,\r\n            _gasValue,\r\n            _temperature,\r\n            _humidity,\r\n            block.timestamp\r\n        );\r\n    }\r\n\r\n    // =====================================================\r\n    // 🔍 READ FRESHNESS (FRONTEND / GRAPH BACKUP)\r\n    // =====================================================\r\n\r\n    function getFreshness(bytes32 _cropID)\r\n        external\r\n        view\r\n        returns (\r\n            uint256 gasValue,\r\n            uint256 temperature,\r\n            uint256 humidity,\r\n            uint256 timestamp\r\n        )\r\n    {\r\n        FreshnessData storage f = productFreshness[_cropID];\r\n        return (f.gasValue, f.temperature, f.humidity, f.timestamp);\r\n    }\r\n}\r\n\r\n",
  "sourcePath": "C:\\Users\\Asus\\Downloads\\ModifiedF\\ModifiedF\\ModifiedFi\\contracts\\TrackSupplyChain.sol",
  "compiler": {
    "name": "solc",
    "version": "0.8.20+commit.a1b79de6.Emscripten.clang"
  },
  "schemaVersion": "3.4.16",
  "updatedAt": "2026-02-28T16:01:28.119Z",
  "networkType": "ethereum",
  "devdoc": {
    "kind": "dev",
    "methods": {},
    "version": 1
  },
  "userdoc": {
    "events": {
      "FreshnessUpdated(bytes32,uint256,uint256,uint256,uint256)": {
        "notice": "🔵 GRAPH-FRIENDLY EVENT"
      }
    },
    "kind": "user",
    "methods": {
      "productFreshness(bytes32)": {
        "notice": "cropID => freshness"
      }
    },
    "version": 1
  }
}